:100000000C94FF220C9477230C9477230C94772381
:100010000C9477230C9477230C9477230C947723F8
:100020000C9477230C9477230C9477230C947723E8
:100030000C9477230C94D6230C9416240C947723D9
:100040000C9477230C9477230C9477230C947723C8
:100050000C9477230C9477230C9477230C947723B8
:100060000C9477230C9477230C9477230C947723A8
:100070005A5501200101003808000000000000006E
:100080000000000000000000000000000000000070
:100090008100450027FF24FF2A902B1C210C22FB06
:1000A000850084008903888D81096F0244424700DE
:1000B0004501B083B300B10125118A4F8B030A2794
:1000C0000D27D52AC627BE2716271B272027AF278F
:1000D0002327262729276D27000208000855040832
:1000E0005A0000F8000990000A1E32050000FF00C7
:1000F0000000D80000000000000000000000000028
:1001000000000000000000000000000000000000EF
:1001100000000000000000000000000000000000DF
:1001200000000000000000000000000000000000CF
:1001300000000000000000000000000000000000BF
:10014000000000000000000000000049000000491D
:100150005252000052525C2D0000000000000000CE
:1001600000000000000000000040000000494A526A
:10017000004952525B1C52531C25241B2425251B6D
:100180000A0A2D1C12120A0A0000000000000000DA
:10019000404949494949525B5B5B525B1C1C131245
:1001A000241C1209090912090909090A0A0A0A0A7A
:1001B0000A13120A0A12130A0000000000009252E9
:1001C0005252525213121309001C0A1212401B659C
:1001D000090A0009241B120000251C1C010025240B
:1001E0001C1C002425242424000000000000524987
:1001F000494000001B1352494900641C1C5B4A48DB
:100200001C651C2552491C1C652464491C1C652561
:1002100064491C1C6D2E5C490000000000000000B9
:100220000000004900000000535200000053522516
:1002300000004A52252500005B251300005B530097
:100240000A1C095B1C657F374052522E2E1C525CE3
:100250002E251B1324251C1C12002525120000121C
:100260001B0000132E37001B37372E2E37372E2E4C
:100270002E2E2E2E6E6E6E1C1313120009131200FA
:10028000001213130012251C13132E371C13131303
:10029000361C131B1B1B25131C1C1B1B1B1C1C1C93
:1002A0001C1C1C1C1C1C1C131312121313001313F4
:1002B000131C000913131C010037131C13002E2EEE
:1002C0001C1C001C772E2500137F251C010A3724D7
:1002D0001C1C0A2E25250900132E242525252E2534
:1002E0002525252525252D2E251B2E2E251C1325C0
:1002F000251C1C1C1C011C1C1300011C0A00016590
:10030000775C016E7F6E521B25256D1C5249252599
:100310001C1353001C1C1C524A001B135B5B000087
:1003200009525C0000005B5C000000001B00000044
:100330000000000000000000135B7F776E6E136505
:1003400077766E6E1B65777676761B5BBF76B676B4
:1003500009136DBFB7B6001B125C76BF0000121BFD
:10036000125B00000000090A6E6E6E77241C6E6E30
:1003700077251C1C6E776E1C1C1C76761C1C242595
:10038000B765646D6D1B766D6D5B09125B5C5B120E
:100390005B641213131B12121C1C1C1C1C241C1C3F
:1003A000242525242425251B00002513000064BFD7
:1003B00000096EBFBF6D6EBF6D5B12135B1213122F
:1003C00009000901000000002E1C0900096E01004F
:1003D00009767F7F12777F7F6412BF775B121B09DC
:1003E0005B121B0900001B09000000000000000058
:1003F00000000000000000007F7F53131300641210
:100400001B0100001B1200000000000000000000A3
:1004100000000000000000000000000000000000DC
:1004200000000000000000000000000000002600A6
:10043000000026002F0000002F00370000003700CA
:10044000FF000000FF00BF000000BF0037000037C2
:100450000000002626000000000000000000262604
:1004600026262600000000002F00000000370000B4
:100470000000FF00000000BF000000003700000087
:100480000000262626262600000000000000262662
:10049000262626002F000000000037000000000084
:1004A000FFFFFFFF0000BF0000000000370000005A
:1004B0000000262626262600000000000000262632
:1004C000262600002F0000002F0037000000370014
:1004D000FFFFFFFF0000BF000000BF00370000006B
:1004E000370026262626000000000000000000003D
:1004F00026262600002F00002F00370000003700BE
:10050000FF000000FF00BF000000BF003700003701
:100510000000262626000000000000000000260043
:10052000000026002F0000002F00003700370000D9
:100530000000FF00000000BF00BF00003700000007
:100540003700260000002600000000000000000028
:10055000000000000000000000000000000000009B
:1005600000000000000000000000009B000000529E
:100570009BA400005B9B6D77000000000000000062
:100580000000000000000000005B000000E4F6FF37
:10059000099BEDF6FFBFA4ADBFBFBFBF767F7FB79E
:1005A000B7BF7F766EB7B7BF000000000000000045
:1005B0005BB6F6F6F6FFFFFFFFBFFFFFFFBFBFAE64
:1005C000FFFFFFB7AD65FFFFB7B6AD65FFFFBFB774
:1005D000AE6EFFFFBFB7B765000000000000F6F683
:1005E000EDEDADA4B66D6D5C526E656565526576D8
:1005F0005C5C52536E246552526E25255B52772DFA
:100600002525526E6E2D2525000000000000A49BBC
:100610009B4900006564A49B92006D252564934965
:10062000656E652E9B5224256D25655225246D2D02
:10063000655225256E2E6452000000000000000067
:100640000000004A000000005B9B0000005B5B2D87
:100650000000525B2E2E00015B2D1C01005C5B0133
:100660004A654A5B1C6E7F77495B9B77776D5B655C
:10067000776E65656D2D25255C522E25130949641D
:100680001C09095C7F7F091C7F7F777F777F7777E5
:100690007F7F7776777F7F6E656E6EA4B6FF655B32
:1006A000A4B7BFFF526DBFBFBFFF7FBFBFBFBFFFBC
:1006B000BFBFB7BFFFFF7FB7BFBFFFFF6EB7BFBFF3
:1006C000FFFF77BFBFBFFFFFFFFFBFBFB75BFFFFEE
:1006D000BFBFA464FFFFBFADA47FFFFFBFA4BF7F68
:1006E000FFBFADBFBFBFFFB6BFBFBF77F7BFBFBFC5
:1006F0007777FFBFBFBF64526D7F6E2E2D2D7F7643
:100700006E6E6E2E777777762E1C7F776E251C2582
:10071000776525251C096E6E1C0949255B494A6EC3
:100720007F645377BF775B5C256E6E255B4A2565DA
:100730001C1B5B002524245B53001C1B5B5C00001E
:100740000A5B640000006464000000005C000000BC
:1007500000000000000000005B5C7FBF77765C6DEE
:100760007FB777775C6D7FBF77775C64BFBFBFBFB4
:100770000A5C6EBFBFBF0065646DBFBF00005B6DEC
:10078000646D00000000125B7777777F6E6E77777D
:100790007F766D7677BF776D6E76BF7F6D6E767F75
:1007A000BF7676BFBF76BFBFBFB664ADADB6B6ADE0
:1007B000BFFF646DADB6AD6477BFBFBFFFFF77BF4E
:1007C000BFBFFFFF7FBFBFBFFFF6BFB7ADF6FFFFE5
:1007D000A4ADFFFFFFFFFFFFFFFFFFFFFFFFFFF6DF
:1007E000A4005B5200000000BFBFAD5B64BFB6ADAC
:1007F000ADBFFFBFFFFFFFFFBF64FFFFBFB6765B6C
:10080000FFBFBF5B0000FF5C0000000000000000B5
:100810000000000000000000BFBF645C5C006E5C74
:10082000654900006D5B0000000000000000000052
:1008300000000000000000000000000000000000B8
:10084000000000000000000006000400000001009D
:10085000020003000400050006000700080009006C
:100860000A000B000C000D000E000F00100000002D
:1008700011001200130014001500160006000300FA
:1008800000001700180019001A001B001C001D00B2
:100890001E001F002000210022002300240025004C
:1008A0002600000000408891D2E4ADB5B6BEBFFF7F
:1008B0000000000000000000000000000000000038
:1008C0000000000000000000000000000000000028
:1008D0000000000000000000000000000000000018
:1008E0000000FF00000000FFFFFF000000FFFFFF0F
:1008F00000000000FF0000000000FF0000000000FA
:10090000000000000000FF000000000000000000E8
:10091000FFFF00FFFF00FFFF00FFFF00FF0000FFE1
:1009200000000000000000000000000000000000C7
:1009300000000000000000000000000000000000B7
:1009400000000000000000FF00FF0000FFFFFFFFAD
:10095000FF0000FF00FF000000FF00FF0000FFFF9E
:10096000FFFFFF0000FF00FF00000000000000008C
:1009700000FF0000000000FFFFFF0000FF0000007C
:10098000000000FFFF000000000000FF0000FFFF6C
:10099000FF0000000000FF00000000000000000059
:1009A000FFFF0000FF00FFFF0000FF00000000FF4E
:1009B00000000000FF00000000FF00000000FF003A
:1009C00000FFFF00FF0000FFFF000000000000002C
:1009D00000FF00000000FF00FF000000FF00FF001C
:1009E000000000FF00000000FF00FF00FF00FF000C
:1009F00000FF000000FFFF00FF00000000000000FB
:100A000000FFFF00000000FFFF00000000FF0000EB
:100A100000000000000000000000000000000000D6
:100A200000000000000000000000000000000000C6
:100A30000000FF00000000FF0000000000FF0000B9
:100A4000000000FF0000000000FF0000000000FFA9
:100A5000000000000000FF00000000000000000097
:100A600000FF000000000000FF0000000000FF0089
:100A700000000000FF0000000000FF000000000078
:100A8000FF00000000FF0000000000000000000068
:100A900000000000000000FF00FF000000FFFFFF5B
:100AA0000000FFFFFFFFFF0000FFFFFF000000FF4F
:100AB00000FF000000000000000000000000000037
:100AC0000000000000000000FF0000000000FF0028
:100AD0000000FFFFFFFFFF000000FF00000000001C
:100AE000FF00000000000000000000000000000007
:100AF00000000000000000000000000000000000F6
:100B0000000000000000000000000000000000FFE6
:100B1000FF00000000FFFF00000000FF00000000D9
:100B200000000000000000000000000000000000C5
:100B30000000FFFFFFFFFF000000000000000000BA
:100B400000000000000000000000000000000000A5
:100B50000000000000000000000000000000000095
:100B6000000000000000000000000000000000FF86
:100B7000FF00000000FFFF00000000000000000078
:100B800000000000000000000000FF00000000FF67
:100B900000000000FF00000000FF00000000FF0058
:100BA0000000000000000000000000000000000045
:100BB000002F2F2F00002F0000002F002F00002FEC
:100BC0002F002F002F002F002F2F00002F002F00AD
:100BD00000002F00002F2F2F000000000000000059
:100BE00000002F000000002F2F00000000002F0049
:100BF000000000002F00000000002F000000000097
:100C00002F000000002F2F2F000000000000000028
:100C1000002F2F2F00002F0000002F0000000000E9
:100C20002F0000002F2F0000002F000000002F00D9
:100C3000000000002F2F2F2F2F00000000000000C9
:100C4000002F2F2F00002F0000002F0000000000B9
:100C50002F00002F2F2F0000000000002F002F007A
:100C600000002F00002F2F2F0000000000000000C8
:100C70000000002F000000002F2F0000002F002F89
:100C800000002F00002F00002F2F2F2F2F0000001B
:100C9000002F00000000002F0000000000000000F6
:100CA0002F2F2F2F2F002F00000000002F000000FB
:100CB00000002F2F2F2F0000000000002F002F001A
:100CC00000002F00002F2F2F000000000000000068
:100CD00000002F2F0000002F000000002F00000058
:100CE00000002F2F2F2F00002F0000002F002F00BB
:100CF00000002F00002F2F2F000000000000000038
:100D00002F2F2F2F2F00000000002F000000002F9A
:100D1000000000002F000000002F00000000002F46
:100D200000000000002F0000000000000000000094
:100D3000002F2F2F00002F0000002F002F00000099
:100D40002F00002F2F2F00002F0000002F002F005A
:100D500000002F00002F2F2F0000000000000000D7
:100D6000002F2F2F00002F0000002F002F00000069
:100D70002F00002F2F2F2F00000000002F00000059
:100D8000002F0000002F2F000000000000000000D6
:100D900000000000000000000000000000FFFF0055
:100DA000000000FFFF00000000000000000000FF46
:100DB000FF00000000FFFF00000000000000000036
:100DC00000000000000000000000000000FFFF0025
:100DD000000000FFFF00000000000000000000FF16
:100DE000FF00000000FFFF00000000FF0000000007
:100DF00000000000FF00000000FF00000000FF00F6
:100E0000000000FF000000000000FF0000000000E4
:100E100000FF000000000000FF00000000000000D4
:100E2000000000000000000000000000FFFFFFFFC6
:100E3000FF00000000000000000000000000FFFFB5
:100E4000FFFFFF00000000000000000000000000A5
:100E500000FF000000000000FF000000000000FF95
:100E6000000000000000FF00000000FF0000000084
:100E7000FF00000000FF0000000000000000000074
:100E800000FFFFFF0000FF000000FF000000000067
:100E9000FF000000FFFF00000000FF000000000056
:100EA000000000000000FF00000000000000000043
:100EB00000FFFFFF0000FF000000FF00FF00FFFF3A
:100EC000FF00FF00FF00FF00FF00FFFFFF00FF002B
:100ED0000000000000FFFFFF000000000000000015
:100EE00000FFFFFF0000FF000000FF00FF00000008
:100EF000FF00FF000000FF00FFFFFFFFFF00FF00FB
:100F00000000FF00FF000000FF00000000000000E4
:100F1000FFFFFFFF0000FF000000FF00FF000000D8
:100F2000FF00FFFFFFFF0000FF000000FF00FF00C9
:100F30000000FF00FFFFFFFF0000000000000000B6
:100F400000FFFFFF0000FF000000FF00FF000000A7
:100F50000000FF0000000000FF0000000000FF0094
:100F60000000FF0000FFFFFF000000000000000085
:100F7000FFFFFFFF0000FF000000FF00FF00000078
:100F8000FF00FF000000FF00FF000000FF00FF0067
:100F90000000FF00FFFFFFFF000000000000000056
:100FA000FFFFFFFFFF00FF0000000000FF00000048
:100FB0000000FFFFFFFF0000FF0000000000FF0037
:100FC00000000000FFFFFFFFFF0000000000000026
:100FD000FFFFFFFFFF00FF0000000000FF00000018
:100FE0000000FFFFFFFF0000FF0000000000FF0007
:100FF00000000000FF0000000000000000000000F2
:1010000000FFFFFF0000FF000000FF00FF000000E6
:101010000000FF00FFFFFF00FF000000FF00FF00D7
:101020000000FF0000FFFFFFFF00000000000000C5
:10103000FF000000FF00FF000000FF00FF000000B5
:10104000FF00FFFFFFFFFF00FF000000FF00FF00A9
:101050000000FF00FF000000FF0000000000000093
:1010600000FFFFFF00000000FF0000000000FF0085
:1010700000000000FF0000000000FF000000000072
:10108000FF00000000FFFFFF000000000000000064
:1010900000000000FF0000000000FF000000000052
:1010A000FF0000000000FF00FF000000FF00FF0045
:1010B0000000FF0000FFFFFF000000000000000034
:1010C000FF000000FF00FF0000FF0000FF00FF0026
:1010D0000000FFFF00000000FF00FF000000FF0015
:1010E00000FF0000FF000000FF0000000000000003
:1010F000FF0000000000FF0000000000FF000000F3
:101100000000FF0000000000FF0000000000FF00E2
:1011100000000000FFFFFFFFFF00000000000000D4
:10112000FF000000FF00FFFF00FFFF00FF00FF00C7
:10113000FF00FF000000FF00FF000000FF00FF00B5
:101140000000FF00FF000000FF00000000000000A2
:10115000FF000000FF00FFFF0000FF00FF00FF0096
:10116000FF00FF0000FFFF00FF000000FF00FF0086
:101170000000FF00FF000000FF0000000000000072
:1011800000FFFFFF0000FF000000FF00FF00000065
:10119000FF00FF000000FF00FF000000FF00FF0055
:1011A0000000FF0000FFFFFF000000000000000043
:1011B000FFFFFFFF0000FF000000FF00FF00000036
:1011C000FF00FFFFFFFF0000FF0000000000FF0026
:1011D00000000000FF000000000000000000000010
:1011E00000FFFFFF0000FF000000FF00FF00000005
:1011F000FF00FF000000FF00FF00FF00FF00FF00F6
:1012000000FF000000FFFF00FF00000000000000E2
:10121000FFFFFFFF0000FF000000FF00FF000000D5
:10122000FF00FFFFFFFF0000FF0000FF0000FF00C6
:101230000000FF00FF000000FF00000000000000B1
:1012400000FFFFFF0000FF000000FF00FF000000A4
:10125000000000FFFFFF000000000000FF00FF0093
:101260000000FF0000FFFFFF000000000000000082
:10127000FFFFFFFFFF000000FF0000000000FF0075
:1012800000000000FF0000000000FF000000000060
:10129000FF0000000000FF00000000000000000050
:1012A000FF000000FF00FF000000FF00FF00000043
:1012B000FF00FF000000FF00FF000000FF00FF0034
:1012C0000000FF0000FFFFFF000000000000000022
:1012D000FF000000FF00FF000000FF00FF00000013
:1012E000FF00FF000000FF00FF000000FF0000FF04
:1012F00000FF00000000FF000000000000000000F0
:10130000FF000000FF00FF000000FF00FF00FF00E3
:10131000FF00FF00FF00FF00FF00FF00FF00FF00D5
:10132000FF00FF0000FF00FF0000000000000000C1
:10133000FF000000FF00FF000000FF0000FF00FFB3
:1013400000000000FF00000000FF00FF0000FF00A1
:101350000000FF00FF000000FF0000000000000090
:10136000FF000000FF00FF000000FF00FF00000082
:10137000FF0000FF00FF00000000FF000000000071
:10138000FF0000000000FF0000000000000000005F
:10139000FFFFFFFF0000000000FF00000000FF0053
:1013A000000000FF00000000FF0000000000FF0040
:1013B00000000000FFFFFFFF000000000000000031
:1013C0000000FFFF000000FF0000000000FF000021
:1013D0000000FFFF0000000000FF0000000000FF11
:1013E000000000000000FFFF0000000000000000FF
:1013F0000000FFFF000000FF0000FF00FF00FFFFF4
:1014000000FFFF00FF0000FFFF00FFFF00FF00FFE5
:101410000000FF000000FFFF0000000000000000CF
:1014200000FFFF000000000000FF0000000000FFC0
:101430000000000000FFFF00000000FF00000000AF
:1014400000FF000000FFFF0000000000000000009F
:10145000000000000000000000000000000000008C
:10146000000000000000000000000000000000007C
:10147000000000000000000000000000000000006C
:10148000363636363636361F1F1F1F1F361F1F1FB4
:101490001F1F361F1F1F1F36361F1F1F361F361FE9
:1014A0001F361F1F361F361F1F1F361F361F1F14E4
:1014B0003636363636361F1F1F1F1F1F1F1F1F1FB2
:1014C0001F1F361F1F1F1F1F1F1F1F1414141F1441
:1014D0001467676714676767676767676767676742
:1014E0003636363636361F1F1F1F1F1F1F1F1F1F82
:1014F0001F1F1F1F1F1F1F1F1414141414146767AE
:10150000676767676767676767676767676767676B
:101510003636363636361F1F1F1F1F1F1F1F1F1F51
:101520001F1F1F1F1F1F1F1F1414141F1F1F67675C
:101530006714141F6767676767146767676767677C
:101540003636363636361F1F1F1F1F141F1F1F1F2C
:101550001F141F1F1F1F1F141F1F1F1F1F141F1FBC
:101560001F1F1F141F1F1F1F1F14141F1F1F1F14B7
:10157000361F361F1F14361F1F1F1467361F1F1FED
:101580001467361F1F146767361F1F146767361FDF
:101590001F146767361F1F146767361F1F1467679E
:1015A00067676767676767676767676767676767CB
:1015B00067676767676767676767676767676767BB
:1015C00067676767676767676767676767676767AB
:1015D0006767676767676767674848486767674817
:1015E000F34867676748F3FE67676748F2F3676722
:1015F0006748F2F367676748F2F367676748F2F294
:1016000067676767676748676767676748676767A8
:101610006767484867676767484867676767484814
:1016200067676767484867676767484867676767C6
:10163000141F1F1F1F1467141F1F1F1467141F1F61
:101640001F146767141F1F146767141F1F14676731
:10165000141F1F146767141F1F146767141F1F14BC
:10166000361F1F146767361F1F146767361F1F1446
:101670006767361F1F146767361F1F146767361F9B
:101680001F146767361F1F146767361F1F146767AD
:1016900067676748FEF267676748FEF2676748F268
:1016A000F348676748F3F248676748F3F2486767AB
:1016B00048FEEA486748F2F348486748F3F248486A
:1016C0004848676767674848676767674867676745
:1016D00067674867676767674867676767674867F7
:1016E00067676767486767676767486767676767C8
:1016F0006767141F1F146767141F1F146767141F81
:101700001F146767141F1F146767141F1F14676770
:10171000141F1F146767141F1F146767141F1F14FB
:10172000361F1F146767361F1F146767361F1F1485
:101730006767361F1F146767361F1F146767361FDA
:101740001F1F1467361F1F1F1467361F1F1F1F140C
:101750006748F3EA484848F3FEF2484848F3FE4831
:10176000484848F3FE48484848F2F3484848484843
:10177000484848676748484848676748484848674E
:101780006767141F1F146767141F1F146767141FF0
:101790001F146767141F1F146767141F1F14671433
:1017A0001F1F1F1467141F1F1F14141F1F161F1441
:1017B000361F1F1F1F1F361F1F1F1F1F361F1F1FF4
:1017C0001F1F361F1F1F1F1F361F1F1F1F1F361FE4
:1017D0001F1F1F1F361F1F1F1F1F36141414141422
:1017E0001467676767671467676767671F1414671D
:1017F00067671F1F1F1414141F1F1F1F1F1F1F1F8A
:101800001F1F1F1F1F1F1F1F1F1F1414141414142A
:101810006767676767676767676767676767676758
:1018200067671414141414141F1F1F1F1F1F1F1F7A
:101830001F1F1F1F1F1F1F1F1F1F141414141414FA
:101840006767676767146767676767146767671421
:10185000141F1414141F1F1F1F1F1F1F1F161F1FCD
:101860001F1F1F1F1F1F1F1F1F1F141414141414CA
:101870001F1F1F161F141F1F1F161F141F1F161FA9
:101880001F141F161F1F1F14161F1F1F1F141F1F9B
:101890001F1F1F141F1F1F1F1F14141414141414B0
:1018A0006767676767676767674848486767484863
:1018B000484867674848F3EA6748F3F3F3F348F2A8
:1018C000EA48EAFE48FEEA4848FE48FEEA4848FE82
:1018D00067676767676748676767676748486767F5
:1018E0006767484867676767EA4848676767F24815
:1018F00048676767F24848676767F24848676767FD
:101900006767676767676767676767676767676767
:101910006767676767676767676767676767676757
:10192000676767676767676767486767676748F2FA
:1019300048FEEA48F2FE48EA4848FEF2674848F2A4
:10194000FE486748F2F3484848F2F348484848F2EE
:10195000F3484848F2F348484867F348484848483D
:1019600048484867676748484867676748486767FF
:101970006767484867676767486767676767676754
:1019800067676767676767676767676767676767E7
:101990006767676748F367676748F2F26767674892
:1019A000FEF367676748FEF367676748F2F36767A8
:1019B0006748484867676767484867676767484890
:1019C000484848F2F2484848F2FE4848F3F3FEF22D
:1019D0004848F3F3FEF24848F2F3F34848484848D1
:1019E0004848484848484848486748484848486739
:1019F00067676767676748676767676748676767B5
:101A00006767486767676767676767676767676785
:101A10006767676767676767676767676767676756
:101A20006767676767676767484848486767484800
:101A300048486748EAFEF3F36748F2F2F2F348F2E7
:101A4000F24848F248F2F24848F348F2F24848F3C4
:101A50006767676767674867676767674848676773
:101A60006767F24867676767F34848676767FE48D4
:101A700048676767F24848676767F248486767677B
:101A800067676767676767676767676767676767E6
:101A900067676767676767676767676767676767D6
:101AA000676748486767676748F267676748F2FE95
:101AB00048F2EA48EAFE484848EAFEF34848F2F3AA
:101AC000F3F248EAF3FEF248484848EAF3F248489D
:101AD00048EAF3F2F24848EAF3F2F34848EAF3F24C
:101AE000F2484867676748484867676748484867F3
:101AF0006767484867676767484867676767484830
:101B000067676767484867676767484867676767E1
:101B100067676748F2F367676748F2F26767674885
:101B2000EAF367676748EAF36767676748F26767DA
:101B30006767484867676767674867676767676792
:101B40004848EAF3F348EAEAF2F3F248FEFEF3F219
:101B50004848FEFEF3F24848F3F3F2484848484844
:101B60004848484848484848486748484848676798
:101B700048486767676748486767676748486767AF
:101B80006767486767676767486767676767676723
:101B900067676767676767676767676767676767D5
:101BA00067676767676767676767676767676767C5
:101BB00067486767676767486767676748F2676787
:101BC0006748EAFE676748EAF2FE676748EAF2FE9E
:101BD000676767676767484848676767484848674F
:101BE0006767F24848676767F34848676767F2487E
:101BF00048676767EA4848676767EA48486767670A
:101C00006767676767676767676767676767676764
:101C10006767676767676748676767676748676792
:101C2000676767486767676748EA6767676748F392
:101C3000676748F2FEFE6748F2F3F3F348F2F2EA10
:101C4000F3F2EAF3EA48F3F2F3EA4848F3EAF3EA94
:101C50004848F3EAF3F2EAF3F3F2F3F3F3FEF3F2B4
:101C6000EA4848676767EA4848676767EA48486735
:101C700067674848486767674848676767674848CD
:101C80006767676748486767676748486767676760
:101C90006767676748486767676748486767676750
:101CA0006748676767676748676767676748676721
:101CB00067676767676767676767676767676767B4
:101CC0004848F2F3EA484848F2F3EA4848F2F3F3A6
:101CD000484848F2F3F3484848EAEAEA484848489E
:101CE0004848484867484848484867674848484817
:101CF000484867676767484867676767484867672E
:101D000067674848676767674848676767674867FE
:101D10006767676767676767676767676767676753
:101D20006767676767676767676767676767676743
:101D30006767676767676767676767676767676733
:101D40006767676767676767674867676767674861
:101D5000676767676767674848484848674848480B
:101D600048484848EAF2F3F348F3FEFEF2F248F33B
:101D7000F3484848EAF3F3484848EAF3F348484848
:101D800067676767676748484867676748484848BC
:101D90006767F3F248486767F3F24848676748485F
:101DA000484867674848484867676767676767677D
:101DB0006767676767486767676748EA676767676E
:101DC00048EA6767676748486767676748486767BB
:101DD000676748EA6767676748F26767676748F257
:101DE000F2F3F3484848F3F3FEFEF3F2F2F2F3F3B2
:101DF000FEF348484848F2FE48484848F2F3F248A3
:101E00004848F2F3EA484848F2F248484848F3F2B2
:101E1000486767676767484867676767F248676743
:101E20006767F24848676767F24848676767F2483C
:101E3000486767674848486767674848486767670B
:101E4000484848F2F2EA484848F3F248FEFEF3F305
:101E5000EA48FEFEF3F3EA48F3F2F2EA484848485B
:101E600048484848484848484848484848484867D3
:101E700048484867676748486767676748486767CB
:101E8000676748486767676748676767676748675E
:101E900067676767676767676767676767676767D2
:101EA000676767676767676748484848674848489B
:101EB00048486748F2F3F3F348EAFEF2EAF248F3DF
:101EC000EA4848F3F2FE48484848F2FE4848484885
:101ED00067676767676748676767676748486767EF
:101EE0006767484867676767F34848676767F34805
:101EF00048486767F3F348486767F3F348486767FC
:101F00006767676767486767676748F26767676714
:101F100048F26767676748F367676748EAF3676788
:101F20006748EAF367676748EAF267676748F2F26B
:101F3000F2F248484848FEF2F2484848F3F3F3F317
:101F4000FE48F348F2F3F2F3F3484848F2F3F3485B
:101F50004848F2F348484848F2F348484848F2F203
:101F600048484848676748484867676748676767F9
:101F700067674848676767674848676767674848AB
:101F8000676767674848676767674848676767675D
:101F900067676748F3F267676748F2EA6767674809
:101FA000F3FE67676748F3FE6767674848F367674C
:101FB000676748486767676767486767676767670E
:101FC00048489048F3F2484848F2F348F248F2F3A0
:101FD000F248F248F2F3F248F3F3F2F24848484884
:101FE0004848484848484848484848484848486752
:101FF000484867676767484867676767484867672B
:1020000067674848676767674867676767674867DC
:102010006767676767676767676767676767676750
:10202000676767676767676767676748676767675F
:1020300067486767676748486767676748EA676729
:10204000676748EA6767676748F26767676748F2E4
:102050006767676767674848484848484848484846
:102060004848EAF2F2F2F2F2F2FEF3F3F3FEF2483B
:102070004848F3F3F2484848FEF2F2484848FEF276
:10208000676767676767484867676767484848677B
:102090006767F24848676767F24848676767F248CA
:1020A0004867676748484867676748484867676799
:1020B0006767676748EA676767676748676767676B
:1020C00067486767676767676767676767676767BF
:1020D00067676767676767676748676767676748CE
:1020E00048484848F2EA484848EAEA484848F2F38B
:1020F000EA484848F2EA484848F2F3EA484848F2D1
:10210000F348484848F3F248484848F2EA484867E4
:102110004848486767674848676767674848676728
:10212000676748676767676748676767676748679C
:10213000676767676767676767676767676767672F
:102140006767676767486767676748F267676767D2
:1021500048F26767676748F26767676748F26767CB
:10216000676748486767676767486767676767487B
:10217000F3EA48484867F3EA48484867FE48484851
:102180006767FE4848486767F248484867674848B5
:1021900048676767484848676767484848676767A8
:1021A0006767676767676767484848486767484879
:1021B00048486748F2F2F2F248F2F3F2F2F248F3DA
:1021C000F3484848F2F3F2484848F2F3F2484848E6
:1021D00067676767676748676767676748486767EC
:1021E0006767F24848676767F3F24867676748F3CD
:1021F00048486767EAF248486767EAF2484867670D
:10220000676767676748676767676748676767679C
:1022100067486767676767486767676748EA676728
:10222000676748EA67676748EAF367676748F2EAFB
:10223000F2FEF2484848EAFEFEF2F2F2F2F3FEFE47
:10224000F3F2F2F3FEFEFEEAF2F3F3FEF3F2F2F340
:10225000F3FEF3F2F2484848F3F348484848F2FEE8
:10226000F2F248486767EA4848486767EA484848DA
:1022700067674848486767674848486767674848E6
:102280004867676748486767676748486767676779
:10229000484848F2FEF24848F2FEF348F2F2F3F3FF
:1022A0004848F2F2F3F34848F2F2F3484848484805
:1022B000484848484848484848484848484848677F
:1022C0006767676767676767674848486767484839
:1022D0004848676748EAEAEA6748F3FEF2FE48F2D0
:1022E000F24848F2EAF248484848EAF24848484882
:1022F000676767676767676767676767486767678D
:102300006767484867676767F24867676767FE48B7
:1023100048676767FE4848676767FE4848676767BA
:10232000676767676748676767676748676767677B
:10233000674867676767674867676767674867678A
:10234000676767486767676748486767674848EA35
:10235000F24848484848F248484848F2FE48484849
:1023600048F3FEEA4848FEFEF2F3F3F3F3F3F2F328
:10237000F3F3F3F348EAEA48F3EA48484848F348F5
:10238000FE4848676767F34848676767EA484867F1
:1023900067674848486767674848486767674848C5
:1023A0004867676748486767676748486767676758
:1023B000484848EAF2484848EAF34848F2EAF3F263
:1023C0004848F2EAF3F24848F2F3EA4848484848F5
:1023D0004848484848484848486748484848676720
:1023E0004848676767674848676767674867676718
:1023F00067674867676767674867676767676767AB
:10240000676767676767676767676767676767675C
:10241000676767676767676767676767676767486B
:10242000484867676748F3FE67676748F3FE676772
:102430006748F3FE67676748F2F367676748F2F239
:10244000676767676767676767676767676767671C
:1024500067674867676767484867676767484848C6
:10246000676748F34848676748F34848676748F331
:102470006767676767674848484848674848484803
:102480004848F3FEFEFEF248F3F3F2FEFE48F3EA9C
:1024900048F2FE48EA4848F2FE48EA4848F2FE4858
:1024A000141F1F1F1F1467141F1F1F1467141F1FE3
:1024B0001F146767141F1F144867141F1F144867F1
:1024C000141F1F144867141F1F144867141F1F147C
:1024D00067676748FE4867676748FE4867676748F9
:1024E000FE48676748F2F348676748F3F248676752
:1024F00048FEEA486748F2F348486748F2F348481C
:1025000048486748F2F248676748F3F2486748F27C
:10251000F3EA486748F2F348486748F3F2484867E7
:1025200048F3F248486748FEEA486748EAFEEA4846
:10253000484848F3FE48484848F3F348484848F3B9
:10254000F2484848EAF348484848F2F348484848BF
:10255000F2F348484848F3F2484848EAF348484804
:102560004867141F1F144867141F1F144867141F5F
:102570001F144867141F1F144867141F1F1448674F
:10258000141F1F146767141F1F146767141F1F147D
:102590006748F3F248486748F3EA484848F3FE487A
:1025A000484848F2F348484848F2F3484848484801
:1025B00048484867674848484867674848486767E1
:1025C0006748EAFEEA486748EAF3F2EA676748F2D2
:1025D000F3FE676748F2F3FE676748F2EAEA676767
:1025E0006748484867676748484867676767484873
:1025F000EAF3F2484848F2F248484867F2EA4848A5
:102600004867F2EA48484867EA48484867674848E0
:102610004848676748484867676748486767676723
:10262000676767676767676767676767676767673A
:1026300067674867676767674867676767674848A6
:102640006767676748486767676748486767676796
:102650006767676767676767676767674848486767
:10266000676748F3FE48676748F3FE48676748F3C3
:10267000FE48486748F2F348486748F2F24848671E
:102680004848676767674867676767674867676756
:102690006767486767676748486767676748486765
:1026A000676767484867676748F26767676748F220
:1026B00048FE4848486748FE4848676748FE48481B
:1026C0006767F2F348486767F3F248486767FEEACE
:1026D00048486767F34848486767F348486767674B
:1026E0006767676748F36767676748F367676748BF
:1026F000F3FE67676748F2F367676748F2F3676757
:102700006748484867676767484867676767484832
:10271000F24848676767EA48486767674848486714
:102720006767484848676767484848676767484831
:102730006767676748486767676748676767676786
:102740006767676767676767676767676767676719
:1027500067674867676767484867676748F2484838
:10276000676748F24848676748FE4848676748FE19
:102770006767676767676748484867674848F3EA75
:102780004867F3F3F3F3EA48EA48EAFEF248EA4816
:10279000EAFEF248EA4848FEF248EA48F2FE4848B3
:1027A0004848676748EA48676767674848676767F0
:1027B00067484867676767484867676748F24867D8
:1027C0006748F2F3486748F2F348676748F2F3480E
:1027D0004848FEF2484848F2FE48484848F2FE4859
:1027E0004848F2F348484848F3484848486748484A
:1027F0004848676748484867676748484848676780
:102800004867141F1F144867141F1F146767141F9D
:102810001F146767141F1F146767141F1F1467674F
:10282000141F1F146767141F1F146767141F1F14DA
:10283000676748F348486748F2F248486748FEF33C
:10284000F3F36748F2F3F2F36748F2F3F2F3674801
:10285000484848486767484848486767484848487C
:1028600048F2F2486767F2FE48484867FEF2484877
:102870004867F34848486767F348484867674848E7
:1028800048486767484848676767484867676767B1
:1028900067676767676748484848486748484848DF
:1028A0004867EAFEF3F3F248F2F2F2F3F348F24833
:1028B00048F2FE48F24848F3F248F24848F3F2483A
:1028C0004848676748F248676767484848676767E6
:1028D00048484867676748EA4867676748484867FD
:1028E00048484848486748F2F2486748F2FEF348CB
:1028F000EA48EAFEF24848EAFEF34848F2F3F3F207
:102900004848F3FEF248484848EAF3F2484848EAA3
:10291000F3F2484848EAF3F2484848EAF3F24848F4
:102920004867141F1F144867141F1F144867141F9B
:102930001F146767141F1F146767141F1F1467672E
:10294000141F1F146767141F1F146767141F1F14B9
:102950006748F2F348486748F2F2EAEA6748EAF360
:10296000FEFE6748EAF3FEFE676748F2F3F3676727
:1029700048484848676767484848676767674848FE
:10298000EAF3F3484848F2F3F2484848F3F248487B
:102990004848F3F248484867F2484848486748487A
:1029A0004848676748484867676748486767676790
:1029B00067676767676767676767484867676767E5
:1029C000484867676748F248676748F2F3486748CE
:1029D000EAFEF24848EAF2FEEA4848EAF2FEEA482D
:1029E0004848676767674867676767484867676712
:1029F00048F248676748EAF348676748F3EA486778
:102A00006748F3EA486748EAF3F2676748F3F3F385
:102A100048F2FEFEEA48F2F3F3F3EA48F2EAF3F290
:102A20004848EA48F3F248484848F3EA48484848E2
:102A3000F3EA4848EAF3F3F24848F3FEF3F2484871
:102A4000676748484848676748484848676767482D
:102A500048F26767674848F26767674848EA676708
:102A60006767674867676767674867676767676734
:102A7000F2F3EA484848F2F3EA484848F3F3484892
:102A80004848F3F348484848EAEA4848486748480D
:102A900048486767484848486767484848676767DD
:102AA00067676767676767676767674867676767D5
:102AB00067484867676748484867676748F3484812
:102AC000676748F348486748EAF348486748EAF3C5
:102AD00067676767676748484848484848484848BC
:102AE0004848EAF2F3F3F3F2FEFEF2F2F3F2F348AF
:102AF00048484848F34848484848F34848486767C2
:102B0000141F1F1F1F1467141F1F1F1467141F1F7C
:102B10001F144867141F1F144867141F1F144867A9
:102B2000141F1F144867141F1F146767141F1F14F6
:102B300048486748F2F3486748EAF3F3486748EAC9
:102B4000F2F2486748484848486748484848486754
:102B500048EAF248486748F2EA48674848F2484875
:102B6000F34848484867FEFEF3F24867F3F3FEF384
:102B7000F2484848F2FEF2484848F2F3F248484822
:102B8000F2F3F2484848F2F248484848F3F248481D
:102B90006767141F1F146767141F1F146767141FCC
:102BA0001F146767141F1F144867141F1F144867FA
:102BB000141F1F144867141F1F144867141F1F1485
:102BC0006748F3F248486748F3F248486748F2F329
:102BD000FEFE6748F2F3FEFE676748F2F3F26767AE
:102BE000484848486767674848486767676748488C
:102BF00048F2F2EA484848F3F2484848F3F3EA4812
:102C00004848F3F3EA484848F2EA484848674848E1
:102C1000484848674848484867674848486767677A
:102C2000000000C4C4C40000C4C4C4C400C4C4C4FC
:102C3000C4C4C4C4C4C4C4C4C4C4C4C4E4E4C4C414
:102C4000C4E4E4E4C4C4C4E4E4E4C4C4C4E4E4E424
:102C5000C4C4C4C4C4C4C4C4C4C4C4C4C4C4C4C434
:102C6000C4C4C4C4C4C4C4C4E4E4E4E4E4E4E4E424
:102C7000E4E4E4E4E4E4E4E4E4E4E4E4E4E4E4E414
:102C8000C4C4C4000000C4C4C4C40000C4C4C4C4D8
:102C9000C400C4C4C4C4C4C4E4E4C4C4C4C4E4E438
:102CA000E4C4C4C4E4E4E4C4C4C4E4E4E4C4C4C404
:102CB000C4C4C4E4E4E4C4C4C4E4E4E4C4C4C4E4F4
:102CC000E4E4C4C4C4E4E4E4C4C4C4E4E4E4C4C4C4
:102CD000C4E4E4E4C4C4C4E4E4E4C4C4C4E4E4E494
:102CE000E4E4E4C4C4C4E4E4E4C4C4C4E4E4E4C484
:102CF000C4C4E4E4E4C4C4C4E4E4E4C4C4C4E4E494
:102D0000E4C4C4C4E4E4E4C4C4C4E4E4E4C4C4C4A3
:102D1000C4C4C4E4E4E4C4C4C4E4E4E4C4C4C4E493
:102D2000E4E4C4C4C4C4E4E4C4C4C4C4C4C400C4A7
:102D3000C4C4C4C40000C4C4C4C4000000C4C4C427
:102D4000E4E4E4E4E4E4E4E4E4E4E4E4E4E4E4E443
:102D5000E4E4E4E4E4E4E4E4C4C4C4C4C4C4C4C433
:102D6000C4C4C4C4C4C4C4C4C4C4C4C4C4C4C4C423
:102D7000E4E4E4C4C4C4E4E4E4C4C4C4E4E4E4C4F3
:102D8000C4C4E4E4C4C4C4C4C4C4C4C4C4C4C4C4C3
:102D9000C4C4C400C4C4C4C40000C4C4C40000008B
:102DA0000000000000000000000000000707070707
:102DB00007000007070700000000070000000000F0
:102DC0000000000000000000000000000000000003
:102DD00000000000000000000000000000000000F3
:102DE00000000000070000000007070700000707B9
:102DF00007070700000000000000000000000000BE
:102E000000000000000000000000000000000700BB
:102E1000000000000707000000000707070000008F
:102E2000070700000000070000000000000000008D
:102E3000000000000000000000000000000000078B
:102E4000000000000707000000070707000000005F
:102E5000070700000000000700000000000000005D
:102E6000F267FE67000014F2360036673600FE6730
:102E7000FE0067F267000036141F00366700670027
:102E8000FEFE00364867360067001FF2FE1F003660
:102E90000000000000000000000000000020000012
:102EA000050000000000000000000000000000001D
:102EB00000000000000500002000000000000000ED
:102EC000000000000000000000000000003F0000C3
:102ED00000000000000000000000000000000000F2
:102EE00000000000000000003F00000000000000A3
:102EF0003F3F3F3F3F3F3F67676767673F676767A2
:102F000067673F67676780673F67678080673F677E
:102F1000676780673F67676780673F676767806746
:102F20003F3F3F3F3F3F67673F67676767673F6771
:102F3000676767673F67678067673F676767676758
:102F40003F67676767673F67678067673F67678057
:102F50003F3F3F3F3F3F676767673F676767676719
:102F60003F67808067673F67678067673F67678005
:102F700067673F67808067673F67676767673F6727
:102F80003F3F3F3F3F3F67676767676767676767C1
:102F9000676767808080676767676780676767675D
:102FA0006780676767808080676767676780676734
:102FB0003F3F3F3F3F3F3F67676767673F676767E1
:102FC00067673F67678067803F67678067803F67A5
:102FD000678067803F67678080803F67676767803B
:102FE0003F3F3F00000067673F64000067673F6442
:102FF000640067673F64640067673F6464006767F5
:103000003F64640067673F64640067673F6464000F
:103010003F67676780673F67678080803F67676754
:1030200067673F3F3F3F3F3F3F67676767673F6770
:10303000678080803F67678067673F6767806767F3
:1030400067673F67678067673F67678067673F6756
:1030500067673F3F3F3F3F3F67673F676767676718
:103060003F67678067673F67678067673F6767801D
:10307000676767673F67808067673F6767676767FE
:103080003F673F3F3F3F3F3F676767673F678080DE
:1030900067673F67676767673F67676767673F6738
:1030A000676767806767678080806767676767674C
:1030B00067673F3F3F3F3F3F676767676767678077
:1030C000808067676767678067676767678067672C
:1030D0003F67676767803F67676767803F676767C6
:1030E00067673F3F3F3F3F3F3F67676767673F67B0
:1030F000678080803F67678067803F676780678001
:1031000067673F64640067673F64640067673F64A4
:1031100064003F3F3F64640067673F646400676723
:103120003F64640067673F64640067673F646400EE
:103130003F67678080803F67676767803F67676733
:1031400067803F67678080803F67676767673F3F4B
:103150003F3F3F3F3F67676767673F6767808080A4
:1031600067673F67678067673F67678067673F6735
:10317000678067673F67678067673F6767673F3F4D
:103180003F3F3F3F67673F67676767673F678067A6
:10319000808067673F67678067673F6767806767AB
:1031A0003F67808067673F67676767673F673F3F45
:1031B0003F3F3F3F676767673F67808080673F6744
:1031C0006767678067676767806767676767806744
:1031D00067676767806767676767676767673F3FB6
:1031E0003F3F3F3F676767676767678067678067DD
:1031F0003F67678080803F67678067803F67678041
:1032000067803F67678080803F67676767673F3F8A
:103210003F3F3F3F3F67676767673F6780678080E3
:1032200067673F64640067673F64640067673F6483
:10323000640067673F64640067673F6464003F3F02
:103240003F64640067673F64640080673F646400B4
:103250003F67678067803F67678067803F676780F9
:1032600080803F67676767803F67676767803F6702
:10327000678080803F67676767673F3F3F3F3F3FAB
:1032800067673F67806767673F67806767673F6714
:10329000806767673F67806767673F6780676767C3
:1032A0003F67806767673F6767673F3F3F3F3F3FD5
:1032B000806780673F67806780673F678067806758
:1032C0003F67806780673F67806780673F67808070
:1032D00080673F67676767673F673F3F3F3F3F3FA5
:1032E00067806767806767806767806767806767F1
:1032F00080676780676780676780676780676780C8
:10330000676780676767676767673F3F3F3F3F3F24
:103310003F67806767673F67806767673F6780676A
:1033200080803F67806780673F67806780673F670F
:10333000806780803F67676767673F3F3F3F3F3FEA
:1033400080673F64640080673F64640080673F6417
:10335000640067673F64640067673F646400806778
:103360003F64640067673F6464003F3F3F646400FC
:103370003F67676767673F67806780803F678067F1
:1033800067673F67806767673F67806780803F67E1
:10339000806767673F67806767673F678067808090
:1033A00067673F67676780673F67806780673F67DA
:1033B000806780673F67806780673F678067806757
:1033C0003F67806780673F67806780673F67806788
:1033D000676767673F67806780673F678067806769
:1033E0003F67806780673F67808080673F67676768
:1033F00080673F67676780673F67676780673F678A
:1034000067676767676780678080806780678067B6
:10341000676780678067676780678080806780678D
:10342000676780678067676780678067808080677D
:103430003F00000000003F00000000003F000000CF
:1034400000003F00000000003F00000000003F00BF
:10345000000000003F00000000003F0000000000EE
:1034600000003F64640000003F64640000003F64AB
:10347000640000003F64640000003F6464000000DA
:103480003F64640000003F64640000003F64640027
:103490003F67676767673F67676767673F3F3F3FAC
:1034A0003F3F00242424242400002424242400005A
:1034B0000024242400000000242400000000000058
:1034C00067673F67676767673F6767673F3F3F3F7C
:1034D0003F3F242424242424242424242424242476
:1034E0002424242424242424242400000000000074
:1034F000676767673F67676767673F673F3F3F3F4C
:103500003F3F242424242424242424242424242445
:103510002424242424242424242400000000000043
:103520006767676767676767676767673F3F3F3FCB
:103530003F3F242424242424242424242424242415
:103540002424242424242424242400000000000013
:103550003F00000000003F00000000003F3F3F3FF1
:103560003F3F2424242424242424242424242424E5
:1035700024242424242424242424000000000000E3
:1035800000003F64640000003F6464003F3F3F640C
:103590006400242424646400242424246400242457
:1035A00024242400242424242400000000000000FB
:1035B00000000000000000F3F3F3F3F300F3F3F373
:1035C000F3F300F3F3F3F3F300F3F300000000F37D
:1035D000F300000000F3F300000000F3F3F3F3F353
:1035E000000000670000F3F3006700F3F3F30067E7
:1035F00000F3F3F3006700F30000006700F300003E
:10360000676700F30000676700F3F300676700F384
:10361000000000006700F3F3F3006700F3F3F3002A
:103620006700F3F3F3006700F3F3F3006700F3F3CD
:10363000F3006700F3F300006700F3F30000670096
:10364000000000000000F3F3F3F3F3F3F3F3F3F3FC
:10365000F3F3F3F3F3F3F3F3F3F300000000F3F306
:1036600000000000F3F300000000F3F3F3F3F3F3C2
:10367000000067000000F3006700F3F3F300670049
:10368000F3F3F3006700F3F300006700F300006753
:10369000670000000067670000670067676767678B
:1036A000000000000000F3F3F3F3F3F3F3F3F3F39C
:1036B000F3F3F3F3F3F3F3F300F3F30000F300F3A6
:1036C000F300000000F3F300670000F3F300676706
:1036D000006700000000006700F3F3F3006700F3E9
:1036E000F3F3006700F3F3F3006700F3F300006700
:1036F00000F3F300006700F3F300676700F3F3F3F0
:10370000000000000067F3F3F3F30067F3F3F3F353
:103710000067F3F3F3F300670000000000670000A8
:1037200000000067000000006767F3F3F3006767BD
:10373000000000676700F3F300670000F3F3006721
:1037400000F3F3F3006700F30000006700F30000EC
:10375000006700F30000676700F3F300676700F39A
:10376000000067670000F300006700F3F3F3000058
:1037700000F3F3F3000000F3F3F3F30000F3F3F3CB
:10378000F3F300F3F3F3F3F300F3F300F3F3F3F3E2
:10379000000067676767F30067676767F30067673D
:1037A0006767F30067676767F30067676767F3003A
:1037B00067676767F30067676767F300676767674F
:1037C0006767676700006767676700F36767676732
:1037D00000F36767676700F36767676700F367670A
:1037E000676700F36767676700F36767676700F3FA
:1037F000000000000067F3F3F3F30000F3F3F3F3CA
:10380000F300F3F3F3F3F300F3000000F3F3F3003A
:103810000000F3F3F3000000F3F3F3000000F3F310
:10382000676700000000676700F3F300006700F3BC
:10383000F300006700F3F300006700F3F300006794
:1038400000F3F300006700F3F300006700F3F300F8
:103850006767676767676767670000006767670094
:10386000F3F367676700F3F367676700F3F367676E
:103870006700F3F367676700F3F367676700F3F3C5
:10388000676700000000006700F3F3F3006700F3D0
:10389000F3F3006700F3F3F3006700000000006734
:1038A000000000000067676700000067670000F322
:1038B000000000006767F3F3F3000067F3F3F3F32E
:1038C0000067F3F3F3F3006700F3F3F30067F3F338
:1038D000F3000067F3F3F3000067F3F30000006701
:1038E00000000000000000F3F3F3F3F300F3F3F340
:1038F000F3F300F3F3F3F3F30000000000F3000030
:103900000000F3F367670000F3F3670000F3F3F3DD
:10391000000067676767F30000676767F3F3006796
:103920006767F3F300676767F3F300676700F30007
:1039300000676700F300006767000000006767002A
:1039400000000000676700F3F300676700F3F3000F
:10395000676700F3F300676700F3F3006767F3F34B
:10396000F3006767F3F3F3006767F3F3000067673B
:1039700067676700000067676700F3F367676700C2
:10398000F3F367676700F3F367676700F3F367674D
:103990006700F3F367676700F3F367676700F3F3A4
:1039A000000000000000F3F3F3F3F300F3F3F3F38C
:1039B000F300F3F3F3F3F300000000000000000055
:1039C00000000000000000000067F3F3F3F300675D
:1039D00000F3F3F3F3F300F3F300000000F3F3005C
:1039E000000000F3F300676700F3F300676700F37C
:1039F000F30067670000000067670000000067676A
:103A00000000676700F30000676700F300676767FF
:103A100000F36767676700F36767676700F36767C7
:103A2000676700F36767676700006767676700009D
:103A3000F3F300676700F3F300676700F3000067C4
:103A40006700F30000676700F30067676700F30033
:103A500067676700000067676700000067676700C7
:103A6000F3F3F3F3F300F3F300000000F3F30000CB
:103A70000000F3F300676767F3F300676767F3F32A
:103A80000067676700000067676700000067676797
:103A90000067676767000067676767006767676752
:103AA00067006767676767006767676767006767DB
:103AB00067676700676767676700676767676700CB
:103AC00000F3F3006767F3F3F3006767F3F3F300C2
:103AD0006767F3F3F3006767F3F3F3006767F3F3E4
:103AE000F300676700000000676700000000676779
:103AF000676700F3F3F3676700F3F300676700F3AA
:103B0000F300676700F3F3F3676700F3F3F36767A6
:103B100000F3F3F367670000000067670000000030
:103B2000F3F3000067670000000067670000000013
:103B30000067F3F3F3F30067F3F3F3F30067F3F3D2
:103B4000F3F300670000000000670000000000675A
:103B500000F3F3F3F3F300F3F300000000F3F300DA
:103B6000000000F3F3F3F3F300F3F3F3F3F300F3E4
:103B7000F3F3F3F300000000000000000000000079
:103B80000000676700F30000676700F3000000674C
:103B900000F3F3F3006700F3F3F3006700F3F3F3CC
:103BA000006700F3000000670000000000670000ED
:103BB000F30000F3F3F3F3000000F3F3F30000006D
:103BC000F3F3F300000000F3F300670000F3F300E9
:103BD00067670000000067670000000067676767AD
:103BE000F30067676767F30067676767F3006767F6
:103BF0006767F30067676767F300676767670000D9
:103C00006767676700006767676767676767676712
:103C10006767676700F36767676700F367676767EA
:103C200000F36767676700F36767676700F36767B5
:103C3000676700F36767676700006767676700008B
:103C4000F3F3F3F3F300F3F3F3F30000F3000000F6
:103C50000000F30000000000F30067676767F300EF
:103C60006767676700006767676700006767676780
:103C7000006700F3F300006700F3F3F3006700F35D
:103C8000F3F367670000F3F36767000000F367670B
:103C900067000000676767000000676767670000EC
:103CA00000670000F3F3000000F3F3F3000000F3FB
:103CB000F3F3F3F3F3F3F300F3F3F3F30000F3F3AD
:103CC000F30000000000000000000000000000679A
:103CD00000670000F3F3006700F3F3F3006700F3FD
:103CE000F3F3006700F3F3F3006700F3F3F36767A0
:103CF0000000F3F367670000000067670000000042
:103D0000F3000000676700000067676700000000BD
:103D10000067F3F3F3F30067F3F3F3F30067F3F3F0
:103D2000F3F3006700000000006700000000006778
:103D30000000F3F3F30000F3F3F3000000F3F3F3F8
:103D4000000000F3F3F3F3F300F3F3F3F3F30000F5
:103D5000F3F3F3F300000000000000000000000097
:103D60000000676700000067676700F300000067F6
:103D700000F3F3F3006700F3F3F3006700F3F3F3EA
:103D8000006700F30000006700000000006700000B
:103D9000F3F300006767F3F300000000F3F30000A3
:103DA0000000F3F3F3F3F3F3F3F3F3F3F3F3F3F3C9
:103DB000F3F3F3F300000000000000000000000037
:103DC00067676700F3F300006700F3F30000670024
:103DD000F3F3F3006700F3F3F3006700F3F300007D
:103DE0006700F3F300006700000000676700000051
:103DF000F3F3F3000067000000000067000000001C
:103E00000000F3F3F3F3F300F3F3F3F3F300F3F34E
:103E1000F3F3F300000000000000000000000000C9
:103E2000C7C7C7C7C7C7C7C7C7C7C7C7C7C7C7C722
:103E3000C7C7C7C7C7C7C7C7C7C7C7C7C7C7C7C712
:103E4000C7C7C7C7C7C7C7C7C7C7C7C7C7C7C7C702
:103E5000001000000010000000000000040004003A
:103E6000040404000400040004040000040404002A
:103E7000040004000400040004040000000000002A
:103E80000000001000000000000000000400040416
:103E9000040000000400040004000404000000000A
:103EA00004000400040004000400000000000000FE
:103EB00000100000001000000000000004040400D6
:103EC00004000400040004000404000000040400D2
:103ED00004000004040404000004000000000000CA
:103EE00000000010000000000000000004000000BE
:103EF00000040400600004000000600004040000EE
:103F00006000040000000000040000000000000049
:103F10000010000000100000000000000000000081
:103F20000400040000000400040000000400040079
:103F3000000004000400040004040000000000006D
:103F40000000001000000000000000000000000061
:103F50000004000000600000000000600004040095
:103F600000600004040004000004000000000000E1
:103F70000010000000100000000000000404000415
:103F8000040400040004000404040004000400000D
:103F90000004000404040004040400000000000005
:103FA00000000010000000000000000000040004F9
:103FB00004040004000000040004000404040004DD
:103FC00000000004000400040404000000000000DD
:103FD00005000500000000000000000000000000D7
:103FE00000000000000000000000000000000000D1
:103FF00000000000000000000000000000000000C1
:1040000000000000000005000500010002000300A0
:104010000400050006000700080009000A000B0064
:1040200007000C000D000E000F0007001000070035
:104030001100120013001400150016000500050001
:10404000010002000300040005000600070017003D
:1040500018000A000B0019001A001B000E000F00C8
:104060001C001D001E00110012001300140015009A
:104070001600050005000100020003000400050011
:10408000060007001F0020000A000B00210022008C
:1040900023000E000F00240025002600110012004E
:1040A00013001400150016000500050001000200B1
:1040B00003000400050006000700270028000A008E
:1040C0000B0029002A002B000E000F002C002D00F1
:1040D0002E00110012001300140015001600050038
:1040E00005000100020003000400050006002F0087
:1040F000300031000A000B003200330034000E00A3
:104100000F002400350036001100120013001400C7
:104110001500160005000500010002000300040060
:10412000050006002F00370038000A000B00390098
:104130003A003B000E000F003C003D003E00110025
:104140001200130014001500160005000500010000
:10415000020003000400050006003F00400041008B
:104160000A000B004200430044000E000F0045000F
:10417000460007001100120013001400150016007D
:104180000500050001000200030004000500060010
:104190002F00470048000A000B0049004A004B006E
:1041A0000E000F003C004C003E00110012001300F6
:1041B00014001500160005000500010002000300B0
:1041C0000400050006002F004D004E000A000B0001
:1041D0004F00500051000E000F003C0052005300F1
:1041E0001100120013001400150016000500050050
:1041F0000100020003000400050006005400550001
:10420000560057000B00580059005A005B000F0081
:104210005C005D005E001100120013001400150028
:10422000160005000500010002000300040005005F
:10423000060054005F0060000A000B005800610097
:1042400062000E000F005C006300640011001200A9
:1042500013001400150016000500050001000200FF
:1042600003000400050006005400650066005700C6
:104270000B0058006700680069000F005C006A00CE
:104280006B00110012001300140015001600050049
:1042900005000100020003000400050006005400B0
:1042A00065006C0057000B0058006D006E006F0039
:1042B0000F005C0070007100110012001300140068
:1042C00015001600050005000100020003000400AF
:1042D0000500060054005F00720057000B005800F4
:1042E000730074006F000F005C0075007600110011
:1042F000120013001400150016000500050001004F
:104300000200030004000500060054007700780056
:1043100079000B0058007A007B007C000F005C00E5
:104320007D007E001100120013001400150016001D
:1043300017000200B200B300B400B500B600B70029
:10434000B800B900B200BA00BB00BC00BD00BE009E
:10435000BF00C000C100C200C300C400C500C60049
:10436000C700C800C900CA00CB00CC00CD00CE00F9
:10437000CF00D000D100D200D300D400D500D600A9
:10438000D700D800D900DA00DB00DC00DD00DE0059
:10439000060006008E008F009000910092009300AE
:1043A0009400950096009700980099009A009B0051
:1043B0009C009D009E009F00A000A100A200A30001
:1043C000A400A500A600A700A800A900AA00AB00B1
:1043D000AC00AD00AE00AF00B000B10008000100BD
:1043E000E000E100E200E300E400E500E600E700B1
:1043F0000002040007700000D800083C010500001E
:10440000FF0002040007700000F6000832000828D0
:10441000010302010302010302010302010302017D
:10442000030201030201030201030201030201036B
:104430000201050000FF0002040007800000FB00ED
:1044400008320008280103020103020103020103EC
:104450000201030201050000FF00020100078000C5
:1044600008360000140203020203010203020203E1
:10447000010203020203010203020203010203021A
:10448000020301020302020301020302020301020A
:10449000030202030101050000FF000000F04300D9
:1044A0000000000000000144000000000000003691
:1044B00044000000000000005944000000002020DB
:1044C000202020202020200020202020202020200C
:1044D000200046494E4953484544210050555A5AF8
:1044E0004C45204953002027535441525427200063
:1044F0004E45572047414D452D00202020202020AB
:104500002020200020275354415254272000204DC2
:10451000454E55202D202000202742272D4E4F208C
:104520002000202741272D59455320004E45572074
:1045300047414D453F002053544550533A202000F9
:1045400020275354415254272000204D454E5520DA
:104550002D202000505245535320425554544F4E65
:10456000202753544152542700415343454E444958
:104570004E47204F5244455200504C414345205431
:104580004845204E554D42455220494E2000544842
:10459000452052554C4553204152452053494D50DA
:1045A0004C453A004F524445522057495448204FF9
:1045B0004E452054494C45204D495353494E4700E0
:1045C0004E554D4245524544205351554152452088
:1045D00054494C455320494E2052414E444F4D00C2
:1045E00050555A5A4C4520434F4E5349535453202B
:1045F0004F462041204652414D45204F4600112450
:104600001FBECFEFD0E1DEBFCDBF14BE88E10FB635
:10461000F89480936000109260000FBE11E0A0E05B
:10462000B1E0E8E5F5E702C005900D92A432B107CC
:10463000D9F71CE0A4E2B1E001C01D92A43DB1078E
:10464000E1F70E94D126882311F40E94E726F8940E
:10465000EFEFF9E080E881939CE0EB30F907D9F7C0
:104660008FEF99E090930C0C80930B0C10920D0C33
:1046700091E09093240C9093250C9093230C10922E
:10468000100C1092160C10921C0C1092220C10920E
:10469000EA0982E18093EB0980EE8093F40980932C
:1046A000F20984E18093F3098093F1091092F809EB
:1046B0001092F7091092FC091092FB0990930F0CCD
:1046C0000E94003120E930E0F90185919491FC01CC
:1046D000F07090832E5F3F4F80E02E3B3807A1F7AC
:1046E00078940E9413320E9408370C94AA3A0C94D2
:1046F000000030EE3A950C947D23E1F70C94802372
:10470000C4E2D1E000EEA02E662776E037D137E292
:104710003A95F1F70E94B42335E13A95F1F7AA945E
:1047200089F0C8956395683029F033E03A95F1F740
:104730000000ECCF6627002430E5C30FD01DC895DC
:104740000000E4CF35E03A95F1F700C017D111E051
:104750000091E80901270093E80900FF1093EC0994
:10476000E2E0E09336000895DE014D915D91679F90
:10477000C001480F591FFA0128E2059108B94D916F
:10478000059108B95D91059108B900C0059108B976
:10479000480F591F059108B90591FA012A9508B9E2
:1047A00061F700C00000002708B908950F921F921A
:1047B000EF93FF93EFB7EF93E0918400E251F1E0C4
:1047C000EF1700F0F395FA30D8F30C94E723E0915B
:1047D000EB09EA95E093EB09F091EA09F0FD57C087
:1047E000EC3098F0F3E0F0938900FDE8F093880056
:1047F000E0FB289826F4E1E00E94A325B8C0E5E19B
:10480000EA95F1F70000289AB2C0E63038F100C00E
:1048100000C02898E0FBE4E016F40E94A325E4E041
:10482000E0933600E6E0E0936F00A1C0EF93EFB7AE
:10483000EF93E0918400ED55E13000F0E23000F0BC
:10484000E33000F0E43000F0E53000F0289AE2E0D8
:10485000E0936F00EF91EFBFEF91189500C0E0FB80
:10486000289826F4E1E00E94A32505C0E5E1EA9539
:10487000F1F70000289AE091EB09E03009F077C0E9
:10488000EDEFE093EB09E1E0E093EA0970C0E7E0C7
:10489000E0938900EBE1E093880000C02898E2E013
:1048A00000C00E94A325FDEF0090F109F019E091EE
:1048B000EB09EF17E0F4FDEF0090F109F01900901B
:1048C000F209F019EF1798F0EDE1FF2700800F9241
:1048D000EA95E1F70FE10A95F1F7000000000E9468
:1048E0007923E1E0FF270F900192EE31E0F3E091B0
:1048F000EB09E03009F03BC02F933F934F935F9358
:104900006F937F938F939F93AF93BF93789411246A
:10491000EE27E093EA09E2E1E093EB09F091F30975
:10492000F093F109F091F409F093F209E091ED09A7
:10493000F091EE09E115F10509F009950E94C026F4
:104940000E9425310E94C9241124E091EF09F091C1
:10495000F009E115F10509F00995BF91AF919F911B
:104960008F917F916F915F914F913F912F91EF9137
:10497000EFBFFF91EF911F900F9018952898E2E0FC
:1049800000C00E94A325E091EB09EA95E093EB09B2
:104990000895E0910F0CE0FD0E94642800900D0C3A
:1049A000002019F4AFEFB9E002C0A5E0BBE021E0C0
:1049B000022600920D0C22E020930E0CE0910F0CC9
:1049C000E0FF08952F923F924F925F926F927F92F5
:1049D0008F929F92AF92BF92CF92DF92EF92FF920F
:1049E0000F931F93CF93DF935091220C6091240C6F
:1049F0007091250C8091260C2090110C3090120C97
:104A00004090140C5090150C6090130C1091100CE9
:104A10007090170C8090180C9090190CA0901A0CA4
:104A2000B0901B0C2091160CC0901D0CD0901E0C49
:104A3000E090200CF090210C00911F0C30911C0C88
:104A40009FEF620C431CF2014491410300240008D3
:104A5000C12DD02D970CA81CF501449142030024D0
:104A60000008C10DD01D0C0DED1CF701449143034E
:104A700000240008C10DD01D8A956AF44091230CD2
:104A8000842F8695062E0694062600FA769567955D
:104A900076F940FF66F940E860FD4FE745030024E2
:104AA0000008C10DD01D0024C038D0050CF0CFE7A0
:104AB0000A94C038D0050CF4C0E8C058CD939A953C
:104AC00009F0BFCF40910E0C4A9540930E0C97E031
:104AD00009F0B7CF6092130C4092140C9092190C0D
:104AE000A0921A0C00931F0CE092200C6093240CEF
:104AF0007093250C8093260CDF91CF911F910F911D
:104B0000FF90EF90DF90CF90BF90AF909F908F90ED
:104B10007F906F905F904F903F902F900895E0911D
:104B20000B0CF0910C0C019100000093B3000CE011
:104B3000EB30F0070FEF19E008F0F801E0930B0CF1
:104B4000F0930C0C08950F931F932F93EF93E09124
:104B50000B0CF0910C0C01910093B3000CE0EB30C6
:104B6000F0070FEF19E008F0F801E0930B0CF09359
:104B70000C0CE8E0EA95F1F7EF912F911F910F915E
:104B8000E0FD289AE0FF01C00895F4E1FA95F1F7FD
:104B900000C0E1FD289AE1FF00C00895992777271A
:104BA000833008F00895E8E0F6E5660F771FE60F1A
:104BB000F71FA591B491E0E1FCE026E0289FE00D0D
:104BC000F11DA183B283112408959091230C91705B
:104BD000880F892B8093230C089599277727E0E18C
:104BE000FCE026E0289FE00DF11D6E3F31F460915E
:104BF000230C6E7F6093230C0BC06F3F31F46091E8
:104C0000230C6E6F6093230C03C078E5760F7583D9
:104C10001124089599277727E0E1FCE026E0289FFA
:104C2000E00DF11D608311240895E0E6F4E0A4E2B4
:104C3000B1E06091E4097091E5096D937D9331973E
:104C4000E1F7112408959927552728E2220F629F42
:104C5000880F080E191EA4E2B1E0A00DB11D6091ED
:104C6000E4097091E50920E3429F600D711D6D9389
:104C70007C93112408959927772728E2220F629FB9
:104C8000880F080E191EA4E2B1E0A00DB11D6091BD
:104C9000E6097091E70920E3429F600D711D529F64
:104CA000700D6D937C93112408958093E409909383
:104CB000E50908958093E6099093E70908958091A6
:104CC000EC09089511241092EC090895882329F421
:104CD0008091F5099091F60908958091F9099091D4
:104CE000FA090895F999FECF92BD81BD60BDF8948F
:104CF000FA9AF99A78940895F999FECF92BD81BDF8
:104D0000F894F89A80B578940895129AC895C89541
:104D1000129820E030E080E090E040E03695279562
:104D2000969587951398C895C895009B3068019B08
:104D30009068139AC895C8954F5F403179F73093C2
:104D4000F6092093F5099093FA098093F909809167
:104D5000F5099091F6090F9731F08091F90990913A
:104D6000FA090F9761F428E088E190E00FB6F89413
:104D7000A895809360000FBE20936000FFCF089538
:104D80001092280C009903C081E08093280C0199AF
:104D900005C08091280C82608093280C0E94852693
:104DA00008951F9380E090E00E947C26182F81E0F8
:104DB00090E00E947C2690E0382F20E0210F311DEA
:104DC0002A55354509F491E0892F1F910895CF9315
:104DD000DF93C0E0D0E0FE01E059FF4FE491CE0147
:104DE0006E2F0E9472262196C032D105A1F7C0E233
:104DF000D0E0CE016FEF0E947226CE0101966FEFD8
:104E00000E947226A09688E0C030D80791F7DF9103
:104E1000CF910895FC014587089581E091E090933A
:104E2000250C8093240C4093230C0895FC01808171
:104E30008F7580830895FC0180818064808308954C
:104E4000FC0144870895FC0147830895FC014087D5
:104E500008951F93CF93DF93EC01162F898190E083
:104E6000FC01EE0FFF1FE85FF94A25913491E42F12
:104E7000FF27E7FDF095E80FF91FEE0FFF1FE85F32
:104E8000F94A859194916091300C821B930B70E0EC
:104E90000E94A3399B016115710511F421E030E0F6
:104EA000812F90E0FC01EE0FFF1FE80FF91FEE0FBE
:104EB000FF1FE05FF34F81819281820F931F9283E6
:104EC00081833B832A838881886088838981840FDA
:104ED0008C83DF91CF911F9108954093300C0895FA
:104EE0009093860C8093850C8FE680938A0C1092A9
:104EF000FE09EBE2FCE090E18FEF28E1908313865E
:104F00008187828716862087958376963CE0E338F2
:104F1000F307A1F70895DC01ED91FC911197AF0122
:104F20004F5F5F4F11965C934E93E4912E2F30E0CC
:104F3000E7FF13C02F7730703695322F2227379531
:104F40002795FA014F5F5F4FE4918E2F8F77280FDF
:104F5000311DE7FDF1CF4D935C93C9010895FF9298
:104F60000F931F938C01862FF42E642F0E94CE2561
:104F7000F801F1821F910F91FF900895FC01862F97
:104F80006181641B61830E94CE250895FC01862FF8
:104F90009181490F4183642F0E94CE250895FF928D
:104FA0000F931F93CF93DF93182FF62E86E1189F50
:104FB000E0011124C55DD34F00E0888187FD01E049
:104FC0001A8A1D869FEF9C874B871B8A8881806287
:104FD000877B88831F8299872983133069F4002394
:104FE00009F4F22E81E091E09093250C8093240C3B
:104FF00081E08093230C08C0812F622F0E94CE2570
:10500000812F60E00E94ED25002311F0FF8601C092
:10501000FE8689E0F89EC0011124E091850CF09194
:10502000860CE80FF91F339625913491211531052F
:1050300019F41D8A1C8A07C0F9018491898B2F5F9E
:105040003F4F3D8B2C8BDF91CF911F910F91FF90A4
:105050000895582F742FA82FB0E086E190E0A89F04
:10506000F001A99FF00DB89FF00D1124E55DF34FFD
:10507000308135FF02C037FD26C0222391F486E13E
:1050800090E0A89FF001A99FF00DB89FF00D1124AA
:10509000E55DF34F3F7B308385858823A1F413863C
:1050A000089586E190E0A89FF001A99FF00DB89FB8
:1050B000F00D1124E55DF34F3F773083852F422FAC
:1050C000272F0E94CF270895AF92BF92DF92EF92D1
:1050D000FF920F931F93CF93DF93ABE2BCE0C1E14C
:1050E000DCE01D968C911D978823B9F0282F33277B
:1050F00027FD30951C968C911C97280F311D2F3F52
:10510000310519F014F02FEF30E0C90137FF02C06C
:1051100080E090E01C968C931C978C9183FF26C0B6
:1051200012964D915C91139728813981240F351F78
:105130003983288314968C911497E82FF0E0EE0FB2
:10514000FF1FE85FF94A859194911416150624F41F
:105150002817390730F40AC0452B41F0821793070E
:1051600028F0998388838C91877F8C935696269616
:105170004CE0A338B40709F0B4CF8091FE0988232E
:1051800009F0DEC0FAC0E0918D0CF0918E0CCF01D9
:10519000019690938E0C80938D0C44914F3F69F54E
:1051A000AC014F5F5F4F50938E0C40938D0CFC0110
:1051B00084918F3219F41092FE09D0C0863009F024
:1051C000B2C0FA013196CF01019690938E0C809374
:1051D0008D0CE491E33529F49093900C80938F0C1F
:1051E000A2C0E53409F09FC080918F0C9091900C83
:1051F00090938E0C80938D0C96C047FF02C0409315
:10520000870C2091870C322F3F7047FF08C0019612
:1052100090938E0C80938D0C0197FC014491822F0A
:1052200090E0807F9070803B910531F1803C91054A
:1052300009F46DC08039910509F075C0E0918D0CBD
:10524000F0918E0C3196F0938E0CE0938D0C31978B
:10525000E491832F90E08C9FD0018D9FB00D9C9F97
:10526000B00D1124A55DB34FEE0F832F1E966C91E8
:105270002E2F0E94292857C0E0918D0CF0918E0CA2
:105280003196F0938E0CE0938D0C3197249147303A
:1052900071F4832F90E08C9FF0018D9FF00D9C9F07
:1052A000F00D1124E55DF34F220F22873CC04B30F7
:1052B00071F4832F90E08C9FF0018D9FF00D9C9FE7
:1052C000F00D1124E55DF34F220F21872CC04C35E2
:1052D00071F4832F90E08C9FF0018D9FF00D9C9FC7
:1052E000F00D1124E55DF34F220F27831CC04436D7
:1052F000D1F4832F90E08C9FF0018D9FF00D9C9F47
:10530000F00D1124E55DF34F220F20870CC0832F91
:1053100090E08C9FF0018D9FF00D9C9FF00D11246B
:10532000E55DF34F46878DE89CE00E948B279093C4
:105330008C0C80938B0C1092840C1092830C02C006
:10534000C6E1D0E02091830C3091840C80918B0CCD
:1053500090918C0C2817390709F415CF2F5F3F4F18
:105360003093840C2093830C8091880C9091890C4D
:1053700001969093890C8093880CCBE2DCE000E1ED
:105380001CE0FF24EFEFAE2EB12CDC2EED2E888139
:1053900086FD3DC08C899D89892B09F435C09A8989
:1053A0008989981768F530C0EC89FD89CF0101968D
:1053B0009D8B8C8B24912F3F31F488818F7788834C
:1053C0001D8A1C8A21C001969D8B8C8B0197FC0144
:1053D0004491822F90E0880F991F82549F4FFC01C7
:1053E000259134918D2D9E2D6F2DF9010995EC8914
:1053F000FD893196FD8BEC8B3197E491E98B1A8A0C
:105400009A898989981781F28A898F5F8A8B888126
:1054100085FD03C020E030E06BC08B898F3F11F029
:105420008F5F8B8B9B85992309F45CC02C8522238D
:1054300009F458C08A85882309F454C040918A0C25
:10544000442309F44FC0899FC001112480509F4F0D
:10545000892F992730E0B901869F9001879F300DF1
:10546000969F300D112420503F4F232F33278985DD
:1054700090E0FC012E9FC0012F9F900D3E9F900D4C
:10548000112480509F4F892F9927242F30E0AC01A1
:10549000429FC001439F900D529F900D1124805058
:1054A0009F4F292F33278F818823F1F0EE81F0E081
:1054B000E050F84AE491E058E89FC0011124805080
:1054C0009F4F892F9927B501681B790B629FC001F7
:1054D000639F900D729F900D112480509F4F292F34
:1054E000332702C020E030E08E819885890F8E83BB
:1054F000F8012083F39466960A5F1F4FF4E0FF16CD
:1055000009F043CFDF91CF911F910F91FF90EF9062
:10551000DF90BF90AF900895582F762F89E0589F65
:10552000C0011124E091850CF091860CE80FF91F61
:105530008491813011F443E021C0823011F444E0C1
:105540001DC08091410C87FF16C08091500C8517BB
:1055500011F4442381F48091570C87FF0EC0809191
:10556000660C851711F4442341F49091540C8091FA
:105570006A0C891710F441E001C042E0242F30E0AA
:1055800086E190E0289FF001299FF00D389FF00DF3
:105590001124E55DF34F808180688083842F652F1F
:1055A000472F20E50E94CF270895862F642F0E9461
:1055B000ED2508950000000000000000000000003C
:1055C00000000000000000000000000000000000DB
:1055D00000000000000000000000000000000000CB
:1055E00000000000000000000000000000000000BB
:1055F00000000000000000000000000000000000AB
:1056000080E080930F0C08952200240026002800DB
:105610002B002D0030003300360039003D004000E3
:10562000440048004C00510056005B0060006600DA
:105630006C00730079008100880090009900A2003E
:10564000AC00B600C100CC00D800E500F3000101B9
:10565000100121013201440157016C0181019801BF
:10566000B001CA01E501020221024102640288027E
:10567000AE02D7020303300361039403CB03050496
:1056800042048304C70410055D05AF0505066106E5
:10569000C206290796070908830805098E09200A0A
:1056A000BA0A5D0B0A0CC10C840D510E2B0F12109F
:1056B00007110A121D1340147415BA161418831911
:1056C000071BA31C571E24200E22142439267F28D2
:1056D000E82A752D293006330F364539AD3C49404F
:1056E0001B442848734CFE50CF55EA5A51600C6653
:1056F0001D6C8B725A79928037885090E598FDA185
:105700009FABD3B5A3C00000000000000000000064
:105710000000000000000000000000000000000089
:105720000000000000000000000000000000000079
:105730000000000000000000000000000000000069
:105740000000000000000000000000000000000059
:105750000000000000000000000000000000000049
:105760000000000000000000000000000000000039
:105770000000000000000000000000000000000029
:105780000000000000000000000000000000000019
:105790000000000000000000000000000000000009
:1057A00000000000000000000000000000000000F9
:1057B00000000000000000000000000000000000E9
:1057C00000000000000000000000000000000000D9
:1057D00000000000000000000000000000000000C9
:1057E00000000000000000000000000000000000B9
:1057F00000000000000000000000000000000000A9
:10580000000306090C101316191C1F2225282B2E25
:10581000313336393C3F414447494C4E515355583A
:105820005A5C5E60626466686A6B6D6F70717374F7
:10583000757678797A7A7B7C7D7D7E7E7E7F7F7FB0
:105840007F7F7F7F7E7E7E7D7D7C7B7A7A79787696
:1058500075747371706F6D6B6A68666462605E5CAC
:105860005A585553514E4C494744413F3C393633C1
:10587000312E2B2825221F1C191613100C09060384
:1058800000FDFAF7F4F0EDEAE7E4E1DEDBD8D5D28B
:10589000CFCDCAC7C4C1BFBCB9B7B4B2AFADABA856
:1058A000A6A4A2A09E9C9A9896959391908F8D8C79
:1058B0008B8A8887868685848383828282818181A0
:1058C0008181818182828283838485868687888A9A
:1058D0008B8C8D8F9091939596989A9C9EA0A2A464
:1058E000A6A8ABADAFB2B4B7B9BCBFC1C4C7CACD2F
:1058F000CFD2D5D8DBDEE1E4E7EAEDF0F4F7FAFD4C
:10590000808182838485868788898A8B8C8D8E8F1F
:10591000909192939495969798999A9B9C9D9E9F0F
:10592000A0A1A2A3A4A5A6A7A8A9AAABACADAEAFFF
:10593000B0B1B2B3B4B5B6B7B8B9BABBBCBDBEBFEF
:10594000C0C1C2C3C4C5C6C7C8C9CACBCCCDCECFDF
:10595000D0D1D2D3D4D5D6D7D8D9DADBDCDDDEDFCF
:10596000E0E1E2E3E4E5E6E7E8E9EAEBECEDEEEFBF
:10597000F0F1F2F3F4F5F6F7F8F9FAFBFCFDFEFFAF
:10598000000102030405060708090A0B0C0D0E0F9F
:10599000101112131415161718191A1B1C1D1E1F8F
:1059A000202122232425262728292A2B2C2D2E2F7F
:1059B000303132333435363738393A3B3C3D3E3F6F
:1059C000404142434445464748494A4B4C4D4E4F5F
:1059D000505152535455565758595A5B5C5D5E5F4F
:1059E000606162636465666768696A6B6C6D6E6F3F
:1059F000707172737475767778797A7B7C7D7E7F2F
:105A000000020406080A0C0E10121416181A1C1EA6
:105A100020222426282A2C2E30323436383A3C3E96
:105A200040424446484A4C4E50525456585A5C5E86
:105A300060626466686A6C6E70727476787A7C7E76
:105A40007F7D7B79777573716F6D6B696765636156
:105A50005F5D5B59575553514F4D4B494745434146
:105A60003F3D3B39373533312F2D2B292725232136
:105A70001F1D1B19171513110F0D0B090705030126
:105A8000FFFDFBF9F7F5F3F1EFEDEBE9E7E5E3E116
:105A9000DFDDDBD9D7D5D3D1CFCDCBC9C7C5C3C106
:105AA000BFBDBBB9B7B5B3B1AFADABA9A7A5A3A1F6
:105AB0009F9D9B99979593918F8D8B8987858381E6
:105AC00080828486888A8C8E90929496989A9C9EE6
:105AD000A0A2A4A6A8AAACAEB0B2B4B6B8BABCBED6
