:100000000C94C11B0C946A1C0C946A1C0C946A1C02
:100010000C946A1C0C946A1C0C946A1C0C946A1C48
:100020000C946A1C0C946A1C0C946A1C0C946A1C38
:100030000C946A1C0C94941D0C946A1C0C946A1CFD
:100040000C946A1C0C946A1C0C946A1C0C946A1C18
:100050000C946A1C0C946A1C0C946A1C0C946A1C08
:100060000C946A1C0C946A1C0C946A1C0C946A1CF8
:100070000000000000000000000000000000000080
:100080000000000000000000000000000000000070
:100090000000000000000000000000000000000060
:1000A0000000000000000000000000000000000050
:1000B0000000000000000000000000000000000040
:1000C00000000000000000000000000000000049E7
:1000D00000000000004952520000004952531C2504
:1000E000004952522425251B52525C2D2D1C121200
:1000F00000000000000000000000000040494949E5
:1001000000404949525B5B5B4A52525B1C1C131214
:100110005B1C241C12090909241B12090909090A7C
:100120000A0A0A0A0A0A0A130A0A120A0A12130A0D
:1001300000000000000000009252525252525249F8
:1001400013121309001C1B130A1212401B65641CB6
:10015000090A0009241B1C65120000251C1C1C1C1C
:10016000010025241C1C1C1C0024252424241C1CE8
:1001700000000000000000004940000000000000F6
:1001800052494900000000001C5B4A480000000082
:100190001C2552490000000065246449000000004D
:1001A00065256449000000006D2E5C4900000000D8
:1001B0000000000000004052000000000049525CB6
:1001C000000000005352242500000053522525252D
:1001D00000004A5225251B0000005B251300001B70
:1001E000005B53000A1C3737095B1C657F372E2ED6
:1001F000522E2E1C131312002E251B131200001258
:100200001C1C12000012251C120000122E371C1399
:1002100000132E37361C131B37372E2E25131C1CAC
:100220002E2E2E2E1B1C1C1C6E6E6E1C1C1C1C1CD1
:10023000091313121213130013131313131C0009C1
:10024000131313131C0100371313131C13002E2E4A
:100250001B1B1C1C001C772E1B1B2500137F251C41
:100260001C1C010A37241C1C1C130A2E25250900FE
:10027000132E2425252525252E252525252525252F
:1002800025252D2E251B1C1C2E2E251C13251B134E
:10029000251C1C1C1C0109521C1C1300011C5B5C4E
:1002A0000A000165775C1B00016E7F6E521B000027
:1002B0006D1C5249000000001C1353000000000098
:1002C0001C524A00000000005B5B000000000000C0
:1002D0005C000000000000000000000000000000C2
:1002E000000000000000000000000000000000000E
:1002F000135B7F776E6E6E6E136577766E6E6E6EC5
:100300001B65777676766E771B5BBF76B6767676EC
:1003100009136DBFB7B6B765001B125C76BF766D6B
:100320000000121B125B5B5C00000000090A121344
:100330006E77241C1C1C1C1C77251C1C1C1C2425D3
:100340006E1C1C1C2425251B1C1C242525130000A9
:10035000646D6D1B00096EBF6D5B09126EBF6D5B36
:100360005B125B645B121312131B12120901000073
:100370001C242E1C0900096E2524010009767F7FAC
:10038000000012777F7F641264BFBF775B121B0986
:10039000BF6D5B121B09000012131B090000000057
:1003A0000900000000000000000000000000000044
:1003B0007F7F53131300000064121B010000000034
:1003C0001B12000000000000000000000000000000
:1003D000000000000000000000000000000000001D
:1003E000000000000000000000000000000000000D
:1003F0000000000000000000260000002600262665
:100400002F0000002F000000370000003700000020
:10041000FF000000FF000000BF000000BF0000BFA1
:10042000370000370000370000262600000026268F
:1004300000000000000000002626260026262626B2
:1004400000002F002F0000000037000037000000E0
:10045000FF000000FFFFFFFF00000000BF000000E2
:10046000000000003700000026262600262626264B
:1004700000000000000000002600262626260000BE
:1004800000002F0000002F000000370000003700A0
:100490000000FFFFFFFF00000000BF000000BF00E2
:1004A0000000370000003700260026262626000020
:1004B00000000000000000000000262626002600A4
:1004C000002F00002F002F003700000037000037FA
:1004D000FF000000FF000000BF000000BF0000BFE1
:1004E00037000037000037002626260000002600CF
:1004F00000000000000000000000260000000000D6
:1005000000002F0000000000003700000000000085
:10051000FF0000000000000000BF0000000000001D
:10052000000037000000000000002600000000006E
:1005300000000000000000000000000000000000BB
:10054000000000000000000000000000000000E4C7
:1005500000000000099BEDF60000009BA4ADBFBFAA
:1005600000529BA4767F7FB75B9B6D777F766EB7DB
:100570000000000000000000000000005BB6F6F67E
:10058000005BF6FFFFFFFFBFF6FFFFFFFFBFBFAE41
:10059000FFBFFFFFFFB7AD65BFBFFFFFB7B6AD65DC
:1005A000B7BFFFFFBFB7AE6EB7BFFFFFBFB7B7653F
:1005B0000000000000000000F6F6EDEDADA4A49BE5
:1005C000B66D6D5C526E65646565655265766D25C8
:1005D0005C5C52536E24656E6552526E252524254F
:1005E0005B52772D25252524526E6E2D2525252538
:1005F00000000000000000009B4900000000000017
:10060000A49B9200000000002564934900000000B4
:10061000652E9B52000000006D2565520000000011
:100620006D2D6552000000006E2E64520000000027
:10063000000000000000495B00000000004A5B650C
:10064000000000005B9B6D2D0000005B5B2D2E25E4
:100650000000525B2E2E1C0900015B2D1C01091CA1
:10066000005C5B014A65777F4A5B1C6E7F7777761B
:100670009B77776D656E6EA4776E6565655BA4B7D5
:1006800025255C52526DBFBF130949647FBFBFBFB0
:10069000095C7F7FBFBFB7BF7F7F777F7FB7BFBF5B
:1006A00077777F7F6EB7BFBF777F7F6E77BFBFBF24
:1006B000B6FFFFFFBFBFB75BBFFFFFFFBFBFA464B5
:1006C000BFFFFFFFBFADA47FBFFFFFFFBFA4BF7F82
:1006D000FFFFFFBFADBFBFBFFFFFFFB6BFBFBF770D
:1006E000FFFFF7BFBFBF7777FFFFFFBFBFBF6452FA
:1006F0006D7F6E2E2D2D256E7F766E6E6E2E25658E
:10070000777777762E1C25247F776E251C251C1B7A
:10071000776525251C090A5B6E6E1C0949256464F2
:100720005B494A6E7F645C005377BF775B5C000077
:100730006E255B4A000000001C1B5B0000000000EF
:10074000245B5300000000005B5C00000000000020
:100750006400000000000000000000000000000035
:100760000000000000000000000000000000000089
:100770005B5C7FBF777677775C6D7FB777777777CE
:100780005C6D7FBF777777BF5C64BFBFBFBFBF7F44
:100790000A5C6EBFBFBFBF760065646DBFBFBFBFE1
:1007A00000005B6D646DADB600000000125B646D0F
:1007B000777F6E6E77BFBFBF7F766D7677BFBFBF27
:1007C000776D6E767FBFBFBF6D6E767FBFB7ADF6BC
:1007D00076BFBF76A4ADFFFFBFB664ADFFFFFFFFDE
:1007E000B6ADBFFFFFFFFFF6ADB6AD645B520000D4
:1007F000FFFFBFBFAD5B64BFFFFFB6ADADBFFFBFC7
:10080000FFF6FFFFFFFFBF64FFFFFFFFBFB6765B92
:10081000FFFFFFBFBF5B0000FFFFFF5C00000000A9
:10082000A400000000000000000000000000000024
:10083000BFBF645C5C0000006E5C654900000000A6
:100840006D5B0000000000000000000000000000E0
:100850000000000000000000000000000000000098
:100860000000000000000000000000000000000088
:100870000504000102030405060708090A0B0C0D14
:10088000000E0F1011120503001314151617181976
:100890001A1B1C1D1E1F0000020800085504085AE0
:1008A0000000F8000990000A1E32050000FF000059
:1008B000009708000000002D283B28C5289F2C89A0
:1008C0002C3E284D285C286F2C6A287828FEFEFED6
:1008D000FEFE0000FEFEFEFEFE00FFF600FEFEFE37
:1008E000FE00FFF600FEFEFEFE00FFF600FEFEFE2E
:1008F000FE00FFF600FEFEFEFE00FFF600FE00001A
:10090000FE00FFFF0000FFFF0000FFFFFFFEFEFEF6
:10091000FEFEFEFEFEFEFEFEFEFEFEFEFEFEFEFEF7
:10092000FEFEFEFEFEFEFEFEFEFEFEFEFE000000E1
:1009300000FEFEFEFEFFF600F60000FEFEFFF600E3
:10094000F600F600FEFFFFFFF6FFF600FE00FFFFD9
:10095000F600FFFF00FE00FFFFF6FFFF00FEFE00B7
:10096000FFFFFFFF00FEFE00FFFFFFFF00FEFEFE99
:1009700000FFFFFFFFFEFEFEFE00FFFFFFFEFEFE8C
:10098000FEFE00F6F6FEFEFEFEFEFE0000F600F69F
:1009900000FFF600FEF600F600FFF600FEF600F699
:1009A00000FFF600FEF600F600FFF600FEFFFFFF78
:1009B000FFF600FEFEFFFFFFF6F600FEFEF6F6F67F
:1009C000F600FEFEFE00000000FEFEFEFEFEFEFE45
:1009D000FEFE0000FEFEFEFEFE00D8C800FEFEFE8B
:1009E000FE00D8C800FEFEFEFE00D8C800FEFEFED7
:1009F000FE00D8C800FEFEFEFE00D8C800FE0000C3
:100A0000FE00D8D80000D8D80000D8D8D8FEFEFE06
:100A1000FEFEFEFEFEFEFEFEFEFEFEFEFEFEFEFEF6
:100A2000FEFEFEFEFEFEFEFEFEFEFEFEFE000000E0
:100A300000FEFEFEFED8C800C80000FEFED8C800BA
:100A4000C800C800FED8D8D8C8D8C800FE00D8D87A
:100A5000C800D8D800FE00D8D8C8D8D800FEFE00FC
:100A6000D8D8D8D800FEFE00D8D8D8D800FEFEFED0
:100A700000D8D8D8D8FEFEFEFE00D8D8D8FEFEFE9C
:100A8000FEFE00C8C8FEFEFEFEFEFE0000C800C856
:100A900000D8C800FEC800C800D8C800FEC800C8FA
:100AA00000D8C800FEC800C800D8C800FED8D8D8F2
:100AB000D8C800FEFED8D8D8C8C800FEFEC8C8C82E
:100AC000C800FEFEFE00000000FEFEFEFEFEFEFE72
:100AD000FEFE0000FEFEFEFEFE00FFAD01FEFEFE7D
:100AE000FE00FFAD01FEFEFEFE00FFAD00FEFEFEBD
:100AF000FE00FFAD00FEFEFEFE00FFAD00FE0000AA
:100B0000FE00FFFF0000FFFF0000FFFFFFFEFEFEF4
:100B1000FEFEFEFEFEFEFEFEFEFEFEFEFEFEFEFEF5
:100B2000FEFEFEFEFEFEFEFEFEFEFEFEFE000000DF
:100B300000FEFEFEFEFFAD00AD0000FEFEFFAD00BC
:100B4000AD00AD00FEFFFFFFADFFAD00FEFEFEFEFF
:100B5000FEFEFEFEFEFEFEFEFEFEFEFEFEFEFEFEB5
:100B6000FEFEFEFEFEFEFEFEFEFEFEFEFEFEFEFEA5
:100B7000FEFEFEFEFEFEFEFEFEFEFEFEFEFEFEFE95
:100B8000FEFEFEFEFEFEFEFEFEFEFEFEFEFEFEFE85
:100B9000FEFEFEFEFEFEFEFEFEFEFEFEFEFEFEFE75
:100BA000FEFE0000FEFEFEFEFE000B0B00FEFEFE43
:100BB000006E1E000BFEFEFE0014000B14FEFEFE77
:100BC000FE000B146EFEFEFE000B146E6EFEFE00A9
:100BD00000FEFEFEFEFE000B0B00FEFEFE000B14F0
:100BE0006E6E00FEFE0B146E6E1E1E00FE146E6E08
:100BF0001E1E1E1E006E6E1E1E1E1E140B6E1E1E60
:100C00001E1E14140B1E1E1E1E14140B0BFEFEFEC5
:100C1000FEFEFEFEFEFEFEFEFEFEFEFEFEFEFEFEF4
:100C2000FEFEFEFEFEFEFEFEFEFEFEFEFEFEFEFEE4
:100C3000FEFEFEFEFE00FEFEFEFEFEFEFE00FEFED0
:100C4000FEFEFEFEFE00FEFEFEFEFEFEFEFEFEFEC2
:100C5000FEFEFEFEFEFEFEFEFEFEFEFEFEFEFEFEB4
:100C60000000000000FEFE000B146E1E1EFEFE00C3
:100C70000B146E1E1EFEFE000B146E1E1EFEFE00EA
:100C80000B146E1E1EFEFE000B146E1E1EFEFEFEDC
:100C9000FEFEFEFEFEFEFEFEFEFEFEFEFE0000FE70
:100CA000FEFEFEFEFE140B00FEFEFEFEFE140B001A
:100CB000FEFEFEFEFE140B00FEFEFEFEFE140B000A
:100CC000FEFEFEFEFE140B00FEFEFEFEFE00FFFF1B
:100CD000AD00FFFF00FE00FFFFADFFFF00FEFE00C6
:100CE000FFFFFFFF00FEFE00FFFFFFFF00FEFEFE16
:100CF00000FFFFFFFFFEFEFEFE00FFFFFFFEFEFE09
:100D0000FEFE00ADADFEFEFEFEFEFE0000AD00AD3F
:100D100000FFAD00FEAD00AD00FFAD00FEAD00ADCB
:100D200000FFAD00FEAD00AD00FFAD00FEFFFFFF18
:100D3000FFAD00FEFEFFFFFFADAD00FEFEADADADB1
:100D4000AD00FEFEFE00000000FEFEFEFEFEFE0008
:100D50000B146E6E1EFE000B146E6E1E1E000B1426
:100D60006E6E1E1E1E00146E6E1E1E1E1EFE006E79
:100D70001E1E1E1E14FEFE001E1E1E1414FEFEFE6F
:100D8000001414140BFEFEFEFE000B0B0B1E1E1EA9
:100D900014140B0B001E1E14140B0B00FE1E141457
:100DA0000B0B00FEFE14140B0B000000FE140B0BCB
:100DB0000000000B000B0B0000000B140B0B00FEDF
:100DC000000B14141400FEFEFE00141E1EFEFEFE98
:100DD000FEFEFEFEFEFEFEFEFEFEFEFEFEFEFEFE33
:100DE000FEFEFEFEFEFEFEFEFEFEFEFEFEFEFEFE23
:100DF000FEFEFEFEFE00FEFEFEFEFEFEFE0B00FE02
:100E0000FEFEFEFEFE140B00FEFEFEFEFEFE0000D9
:100E10000B146E1E1E001E000B146E1E1E0014000E
:100E20000B146E1E1E000B000B146E1E1EFE000027
:100E30000B146E1E1EFEFE000B146E1E1EFEFE0028
:100E40000B146E1E1EFEFE000B146E1E1E140B00F5
:100E50000000000000140B00001E1E1E1E140B00DC
:100E60000014141414140B00000B0B0B0B140B00C8
:100E70000000000000140B00FEFEFEFEFE140B003E
:100E8000FEFEFEFEFE140B00FEFEFEFEFE00000057
:100E900000000000FE1E1E1E1E1E1E0B0014141459
:100EA0001414140B000B0B0B0B0B0B0B00000000AE
:100EB00000000000FEFEFEFEFEFEFEFEFEFEFEFE4A
:100EC000FEFEFEFEFEFEFEFEFEFEFEFEFEFEFEFE42
:100ED000FEFE000000FEFEFEFEFEFEFEFEFEFEFE2C
:100EE000FEFEFEFEFEFEFEFEFEFEFEFEFEFEFEFE22
:100EF000FEFEFEFEFEFEFEFEFEFEFEFEFEFEFEFE12
:100F0000FEFEFEFEFEFEFEFEFEFEFEFEFEFEFEFE01
:100F1000FEFE00141EFEFEFEFEFEFE0014FEFEFEA1
:100F2000FEFEFEFE00FEFEFEFEFEFEFEFEFEFEFEDF
:100F3000FEFEFEFEFEFEFEFEFEFEFEFEFEFEFEFED1
:100F4000FEFEFEFEFEFEFEFEFEFEFEFEFE1E140B7E
:100F500000FEFEFEFE1E1E140B00FEFEFE141E1EF4
:100F60001E0B00FEFE00141E1E140B00FEFE0014DD
:100F700014140B00FEFEFE000B0B00FEFEFEFEFE38
:100F80000000FEFEFEFEFEFEFEFEFEFEFEFEFE007B
:100F90000B146E1E1EFEFE000B146E1E1EFEFEFEC9
:100FA0000000000000FEFEFEFEFEFEFEFEFEFEFE57
:100FB000FEFEFEFEFEFEFEFEFEFEFEFEFEFEFEFE51
:100FC000FEFEFEFEFEFEFEFEFEFEFEFEFE140B001C
:100FD000FEFEFEFEFE140B00FEFEFEFEFE0000FE08
:100FE000FEFEFEFEFEFEFEFEFEFEFEFEFEFEFEFE21
:100FF000FEFEFEFEFEFEFEFEFEFEFEFEFEFEFEFE11
:10100000FEFEFEFEFEFEFEFEFEFEFEFEFE020200F6
:10101000010203020204050607030308090A0B0C78
:101020000A0A0A0A00000000000000000000000098
:1010300000000000000000000000000000000000B0
:1010400000000000000000000000000000000000A0
:101050000000000000000000000000000000000090
:1010600000000000C0000000000000000000F8F8D0
:10107000F8F8F8F800F800F8F8F8F8F800F8F800D0
:10108000F8F8F8F800F8F8F800F8F8F800F8F8F8C8
:10109000F800000000F8F8F8F800F8F800F8F8F8A0
:1010A000F800F8F80000000000000000F8F8F8F878
:1010B000F8F8F8F8F8F8F8F8F8F8F8F8F8F8F8F8B0
:1010C000F8F8F8F8F8F8F8F8F8F8F8F80000000080
:1010D00000000000F8F8F8F8F8F8F8F8F8F8F8F870
:1010E000F8F8F8F800000000000000C0F8F8F8F880
:1010F000F8F80000F8F8F8F8F800A000F8F8F8F8A8
:1011000000A0A000F8F8F800A0A0A000000000A037
:10111000A0A0A000F8F800A0A0A0A000F8F800A0EF
:10112000A0A0A00000F8F8F8F800F8F800F8F8F827
:10113000F800F8F800F8F8F8F800F8F800F8F8F80F
:10114000F800F8F800F8F8F8F800F8F800F8F8F8FF
:10115000F800F8F800F8F8F8F800F8F800F8F8F8EF
:10116000F800F8F8F8F8F8F8F8F8F8F8F8F8F8F8F7
:10117000F8F8F8F8F8F8F8F8F8F8F8F8F8F8F8F8EF
:10118000F8F8F8F8F8F8F8F8F8F8F8F8F8F8F8F8DF
:10119000F8F8F8F8F8F8F8F8F8F8F8F8F8F8F8F8CF
:1011A000F8F8F8F8F8F800A0A0A0A000F8F800A05F
:1011B000A0A0A000F8F800A0A0A0A000F8F800A04F
:1011C000A0A0A000F8F800A0A0A0A000F8F800A03F
:1011D000A0A0A000F8F800A0A0A0A000F8F800A02F
:1011E000A0A0A00000F8F8F8F800F8F800F8F8F867
:1011F000F800F8F800F8F8F8F800000000F8F8F83F
:1012000000A0A0A000F8F800A0A0A0A000F800A0F6
:10121000A0A0A0A00000A0A0A0A0A0A0C0000000CE
:1012200000000000F8F8F8F8F8F8F8F8F8F8F8F81E
:10123000F8F8F8F80000000000000000A0A0A0A04E
:10124000A0A0A0A0A0A0A0A0A0A0A0A0A0A0A0A09E
:10125000A0A0A0A0A0A0A0A0A0A0A0A0000000000E
:1012600000000000F8F800A0A0A0A000F8F800A07E
:10127000A0A0A000000000A0A0A0A000A0A0A0002E
:10128000A0A0A000A0A0A0A000A0A000A0A0A0A03E
:10129000A000A000A0A0A0A0A0A00000000000004E
:1012A000000000C0C0000000000000000000A0A07E
:1012B000A0A0A0A000A000A0A0A0A0A000A0A000AE
:1012C000A0A0A0A000A0A0A000A0A0A000A0A0A0FE
:1012D000A000000000A0A0A0A000F8F800A0A0A01E
:1012E000A000F8F80000000000000000A0A0A0A0EE
:1012F000A0A0A0A0A0A0A0A0A0A0A0A0A0A0A0A0EE
:10130000A0A0A0A0A0A0A0A0A0A0A0A0000000005D
:1013100000000000F8F8F8F8F8F8F8F8F8F8F8F82D
:10132000F8F8F8F800000000000000C0A0A0A0A09D
:10133000A0A00000A0A0A0A0A000F800A0A0A0A0D5
:1013400000F8F800A0A0A000F8F8F800000000F8ED
:10135000F8F8F800F8F800F8F8F8F800F8F800F8ED
:10136000F8F8F80000A0A0A0A000F8F800A0A0A045
:10137000A000F8F800A0A0A0A000F8F800A0A0A08D
:10138000A000F8F800A0A0A0A000F8F800A0A0A07D
:10139000A000F8F800A0A0A0A000F8F800A0A0A06D
:1013A000A000F8F8F8F800F8F8F8F800F8F800F8F5
:1013B000F8F8F800F8F800F8F8F8F800F8F800F88D
:1013C000F8F8F800F8F800F8F8F8F800F8F800F87D
:1013D000F8F8F800F8F800F8F8F8F800F8F800F86D
:1013E000F8F8F80000A0A0A0A000F8F800A0A0A0C5
:1013F000A000F8F800A0A0A0A000000000A0A0A0FD
:1014000000F8F8F800A0A000F8F8F8F800A000F83C
:10141000F8F8F8F80000F8F8F8F8F8F8C00000005C
:1014200000000000F8F8F8F8F8F8F8F8F8F8F8F81C
:10143000F8F8F8F80000000000000000F8F8F8F8EC
:10144000F8F8F8F8F8F8F8F8F8F8F8F8F8F8F8F81C
:10145000F8F8F8F8F8F8F8F8F8F8F8F800000000EC
:1014600000000000F8F800F8F8F8F800F8F800F8C4
:10147000F8F8F800000000F8F8F8F800F8F8F800BC
:10148000F8F8F800F8F8F8F800F8F800F8F8F8F8C4
:10149000F800F800F8F8F8F8F8F80000000000008C
:1014A000000000C0C03F3F3F3F3F3F3F3F3FF8F895
:1014B000F8F8F8F83FF83FF8F8F8F8F83FF8F83F90
:1014C000F8F8F8F83FF8F8F83FF8F8F83FF8F8F8C7
:1014D000F83F3F3F3FF8F8F8F83FF8F83FF8F8F8E2
:1014E000F83FF8F83F3F3F3F3F3F3F3FF8F8F8F8FD
:1014F000F8F8F8F8F8F8F8F8F8F8F8F8F8F8F8F86C
:10150000F8F8F8F8F8F8F8F8F8F8F8F83F3F3F3F3F
:101510003F3F3F3FF8F8F8F8F8F8F8F8F8F8F8F82F
:10152000F8F8F8F83F3F3F3F3F3F3FC0F8F8F8F882
:10153000F8F83F3FF8F8F8F8F83FA03FF8F8F8F867
:101540003FA0A03FF8F8F83FA0A0A03F3F3F3FA03A
:10155000A0A0A03FF8F83FA0A0A0A03FF8F83FA0AF
:10156000A0A0A03F3FF8F8F8F83FF8F83FF8F8F8E7
:10157000F83FF8F83FF8F8F8F83FF8F83FF8F8F8CF
:10158000F83FF8F83FF8F8F8F83FF8F83FF8F8F8BF
:10159000F83FF8F83FF8F8F8F83FF8F83FF8F8F8AF
:1015A000F83FF8F8F8F83FA0A0A0A03FF8F83FA057
:1015B000A0A0A03FF8F83FA0A0A0A03FF8F83FA04F
:1015C000A0A0A03FF8F83FA0A0A0A03FF8F83FA03F
:1015D000A0A0A03FF8F83FA0A0A0A03FF8F83FA02F
:1015E000A0A0A03F3FF8F8F8F83FF8F83FF8F8F867
:1015F000F83FF8F83FF8F8F8F83F3F3F3FF8F8F8C1
:101600003FA0A0A03FF8F83FA0A0A0A03FF83FA0B7
:10161000A0A0A0A03F3FA0A0A0A0A0A0C03F3F3F8F
:101620003F3F3F3FF8F8F8F8F8F8F8F8F8F8F8F81E
:10163000F8F8F8F83F3F3F3F3F3F3F3FA0A0A0A052
:10164000A0A0A0A0A0A0A0A0A0A0A0A0A0A0A0A09A
:10165000A0A0A0A0A0A0A0A0A0A0A0A03F3F3F3F0E
:101660003F3F3F3FF8F83FA0A0A0A03FF8F83FA0C1
:10167000A0A0A03F3F3F3FA0A0A0A03FA0A0A03FB0
:10168000A0A0A03FA0A0A0A03FA0A03FA0A0A0A07D
:10169000A03FA03FA0A0A0A0A0A03F3F3F3F3F3F52
:1016A0003F3F3FC01818181818181818181818189D
:1016B00018181818181818181818181818181818AA
:1016C000181818181818181818181818181818189A
:1016D000181818181818181818181818181818188A
:1016E000181818181818180000000000181818000A
:1016F000C0C0C0C018181800C0C0C0C0181818005A
:10170000C0C0C0C018181800C0C0C0C01818180049
:10171000C0C0C0C018181800C0C0C0C01818180039
:10172000C0C0C0C00000000000000000C0C0C0C0B9
:10173000C0C0C0C0C0C0C0C0C0C0C0C0C0C0C0C0A9
:10174000C0C0C0C0C0C0C0C0C0C0C0C0C0C0C0C099
:10175000C0C0C0C0C0C0C0C0C0C0C0C0C0C0C0C089
:10176000C0C0C0C00000000000000000C0C0C0C079
:10177000C0C0C0C0C0C0C0C0C0C0C0C0C0C0C0C069
:10178000C0C0C0C0C0C0C0C0C0C0C0C0C0C0C0C059
:10179000C0C0C0C0C0C0C0C0C0C0C0C0C0C0C0C049
:1017A000C0C0C0A00000000000000000C0C0C0C059
:1017B000C0C0C0C0C0C0C0C0C0C0C0C0C0C0C0C029
:1017C000C0C0C0C0C0C0C0A0A0A0A0A0C0A0A0A019
:1017D000A0A0A0A0A0A0A00000000000A00000A465
:1017E000A4A4A4A40000000000000000C0C0C0C069
:1017F000C0C0C0C0C0C0C0C0C0C0C0C0C0C0C0C0E9
:10180000C0C0C0C0A0A0A0A0A0A0A0A0A0A0A0A058
:10181000A0A0A0A00000000000000000A4A4A4A4B8
:10182000A4A4A4A40000000000000000C0C0C0C028
:10183000C0C0C0C0C0C0C0C0C0C0C0C0C0C0C0C0A8
:10184000C0C0C0C0A0A0C0C0C0C0C0C0A0A0A0A058
:10185000C0C0C0C00000A0A0A0C0C0C0A4A4000020
:10186000A0A0C0C00000000000000018C0C0C0C0A0
:10187000C0C00000C0C0C0C0C0C00080C0C0C0C0E8
:10188000C0C00080C0C0C0C0C0C00080C0C0C0C058
:10189000C0C00080C0C0C0C0C0C00080C0C0C0C048
:1018A000C0C0008018181818181818180018181830
:1018B00018181818800018181818181880800018A0
:1018C00018181818808080000018181880808080F0
:1018D00080001818808080808000181880808080A8
:1018E0008000181818181800C0C0C0C018181800B8
:1018F000C0C0C0C018181800C0C0C0C01818180058
:10190000C0C0C0C018181800C0C0C0C01818180047
:10191000C0C0C0C018181800C0C0C0C01818180037
:10192000C0C0C0C0C0C0C0C0C0C0C0C0C0C0C0C0B7
:10193000C0C0C0C0C0C0C0C0C0C0C0C0C0C0C0C0A7
:10194000C0C0C0C0C0C0C0C0C0C0C0C0C0C0C0C097
:10195000C0C0C0C0C0C0C0C0C0C0C0C0C0C0C0C087
:10196000C0C0C0C0C0C0C0C0C0C0A0A0C0C0C0C0B7
:10197000C0C0A0A0C0C0C0C0C0C0A000C0C0C0C087
:10198000C0C0A000C0C0C0C0C0C0A000C0C0C0C017
:10199000C0C0A000C0C0C0C0C0C0A000C0C0C0C007
:1019A000C0C0A00000A4A4A4A4A4A4A400A4A4A4AF
:1019B000F6F6F6F6A4A4A4FFFFFFFFFFA4A4A4A4D8
:1019C000F6F6F6F6A4A4A4A4A4A4A4A4A4A4A4A48F
:1019D000A4A4A4A4A4A4A4A4A4A4A4A4A4A4A4A4C7
:1019E000A4A4A4A4A4A4A4A4A4A4A4A4F6F6F6F66F
:1019F000F6F6F6F6FFFFFFFFFFFFFFFFF6F6F6F63F
:101A0000F6F6F6F6A4A4A4A4A4A4A4A4A4A4A4A44E
:101A1000A4A4A4A4A4A4A4A4A4A4A4A4A4A4A4A486
:101A2000A4A4A4A4A4A4A4A400A0C0C0F6F6F6A4F0
:101A300000A0A0C0FFFFA4A4A400A0C0F6F6F6A4D6
:101A4000A400A0C0A4A4A4A4A400A0C0A4A4A4A46E
:101A5000A400A0C0A4A4A4A4A400A0C0A4A4A4A45E
:101A6000A400A0C0C0C0C0C0C0C00080C0C0C0C072
:101A7000C0C00080C0C0C0C0C0C00080C0C0C0C066
:101A8000C0C00080C0C0C0C0C0C00080C0C0C0C056
:101A9000C0C00080C0C0C0C0C0C00080C0C0C0C046
:101AA000C0C0008080808080800018188080808086
:101AB00080001818808080808000181880808080C6
:101AC00080001818808080808000181880808080B6
:101AD00080001818808080808000181880808080A6
:101AE00080001818C0C0C0C0C0C0A000C0C0C0C026
:101AF000C0C0A000C0C0C0C0C0C0A0A0C0C0C0C006
:101B0000C0C0A0A0C0C0C0C0C0C0C0A0C0C0C0C035
:101B1000C0C0C0C0C0C0C0C0C0C0C0C0C0C0C0C0C5
:101B2000C0C0C0C0A4A4A4A4A4A4A4A4A4A4A4A405
:101B3000A4A4A4A400A4A4A4A4A4A4A400A4A4A4AD
:101B4000A4A4A4A4A00000A4A4A4A4A4A0A0A00051
:101B500000000000C0A0A0A0A0A0A0A0C0C0C0A085
:101B6000A0A0A0A0A4A4A4A4A4A4A4A4A4A4A4A445
:101B7000A4A4A4A4A4A4A4A4A4A4A4A4A4A4A4A425
:101B8000A4A4A4A4A4A4A4A4A4A4A4A400000000A5
:101B900000000000A0A0A0A0A0A0A0A0A0A0A0A0C5
:101BA000A0A0A0A0A4A4A4A4A400A0C0A4A4A4A491
:101BB000A400A0C0A4A4A4A400A0A0C0A4A4A4A401
:101BC00000A0C0C0A4A40000A0A0C0C00000A0A0AD
:101BD000A0C0C0C0A0A0A0A0C0C0C0C0A0A0C0C0E5
:101BE000C0C0C0C0C0C0C0C0C0C0C0C0C0C0C0C0F5
:101BF000C0C0C0C0C0C0C0C0C0C0C0C000000000E5
:101C00000000000000000000000000000000C0C054
:101C1000C0C0C0C00000C0C0C0C0C0C00000C0C0C4
:101C2000C0C0C0C0C0C0C0C0C0C0C0C0C0C0C0C0B4
:101C3000C0C0C0C0C0C0C0C0C0C0C0C000000000A4
:101C4000000000000000000000000000C0C0C0C094
:101C5000C0C0C0C0C0C0C0C0C0C0C0C0C0C0C0C084
:101C6000C0C0C0C0C0C0C0C0C0C00080C0C0C0C074
:101C7000C0C00080C0C0C0C0C0C000800000000064
:101C8000000000800000000000000080C0C0C0C054
:101C9000C0C00080C0C0C0C0C0C00080C0C0C0C044
:101CA000C0C000800000C0C0C0C0C0C00000C0C034
:101CB000C0C0C0C00000C0C0C0C0C0C00000C0C024
:101CC000C0C0C0C00000C0C0C0C0C0C00000C0C014
:101CD000C0C0C0C00000C0C0C0C0C0C00000C0C004
:101CE000C0C0C0C0C0C0C0C0C0C0C0C0C0C0C0C0F4
:101CF000C0C0C0C0C0C0C0C0C0C0C0C0C0C0C0C0E4
:101D0000C0C0C0C0000000000000000000000000D3
:101D1000000000000000C0C0C0C0C0C00000C0C0C3
:101D2000C0C0C0C0C0C0C0C0C0C0C0C0C0C0C0C0B3
:101D3000C0C0C0C0C0C0C0C0C0C0C0C0C0C0C0C0A3
:101D4000C0C0C0C000000000000000000000000093
:101D500000000000C0C0C0C0C0C0C0C0C0C0C0C083
:101D6000C0C0C0C018181800C0C0C0C018181800E3
:101D700000000000181818000000000018181800D3
:101D80009090909018181800909090901818180043
:101D90009090909018181800909090901818180033
:101DA00090909090C0C0C0C0C0C0C0C000000000F3
:101DB00000000000000000000000000090909090E3
:101DC0009090909090909090909090909090909013
:101DD0009090909090909090909090909090909003
:101DE000909090900000C0C0C0C0C0C00000000033
:101DF00000000000000000000000000090909090A3
:101E000090909090909090909090909090909090D2
:101E100090909090909090909090909090909090C2
:101E200090909090C0C0C0C0C0C000800000000072
:101E30000000008000000000000000809090909062
:101E400090900080909090909090008090909090D2
:101E500090900080909090909090008090909090C2
:101E60009090008018181800909090901818180002
:101E70009090909018181800909090901818180052
:101E80009090909018181800909090901818180042
:101E90009090909018181800909090901818180032
:101EA0009090909090909090909090909090909032
:101EB0009090909090909090909090909090909022
:101EC0009090909090909090909090909090909012
:101ED0009090909090909090909090909090909002
:101EE0009090909090909090909000809090909092
:101EF0009090008090909090909000809090909022
:101F00009090008090909090909000809090909011
:101F10009090008090909090909000809090909001
:101F20009090008018181800909090901818180041
:101F30009090909018181800909090901818180091
:101F40009090909018181800909090901818180081
:101F500000000000181818180000808018181818C1
:101F60001818008090909090909090909090909001
:101F70009090909090909090909090909090909061
:101F80009090909090909090909090900000000091
:101F90000000000080808080808080808080808041
:101FA0008080808090909090909000809090909011
:101FB0009090008090909090909000809090909061
:101FC0009090008090909090909000800000000091
:101FD0000000008080808080808080008080808001
:101FE0008080808080808080800018188080808041
:101FF0008000181880808080800018188080808081
:102000008000181880808080800018188080808070
:102010008000181800808080800018188000808060
:102020008000181880808080808080800000808000
:102030008080808018180000000000001818181810
:102040001818181818181818181818181818181810
:102050001818181818181818181818181818181800
:102060001818181880808080808080808080808010
:102070008080808000000000000000001818181800
:1020800018181818181818181818181818181818D0
:1020900018181818181818181818181818181818C0
:1020A0001818181880800000800018188080808020
:1020B0000000181800000000000018181818181860
:1020C0001818181818181818181818181818181890
:1020D0001818181818181818181818181818181880
:1020E0001818181800000000000000000000000090
:1020F00000000000000000000000000000000000E0
:1021000000000000000000000000000000000000CF
:1021100000000000000000000000000000000000BF
:10212000000000000000FBFBFB0000000000FBFBC8
:10213000FB0000000000B8B8B8000000000070709C
:1021400000000000000070700000000000000000AF
:10215000000000000000202000000000000000003F
:10216000000000000000FB00FB0000000000FB007E
:10217000FB0000000000B800B800000000000000F4
:10218000000000000000000000000000000000004F
:10219000000000000000000000000000000000003F
:1021A0000000000000FB000000FB0000FBFBFBFB4D
:1021B000FBFBFB0000B8000000B80000007000004E
:1021C000007000000070000000700000202020203F
:1021D000202020000020000000200000000000005F
:1021E00000000000000000FB0000000000FBFBFB03
:1021F000FBFBFB00B80000B800000000007070702E
:10220000707000000000007000007000202020208E
:10221000202000000000002000000000000000005E
:1022200000000000FBFB000000000000FBFB0000C2
:10223000FB000000000000B800000000000070007B
:1022400000000000007000000000000020000020DE
:10225000200000000000002020000000000000001E
:10226000000000000000FBFB0000000000FB00007D
:10227000FB00000000B8B800B800000000707070EB
:10228000000000007000007070007000200000006E
:10229000202000000020202020002000000000005E
:1022A0000000000000FBFB000000000000FBFB0042
:1022B000000000000000B8000000000000700000F6
:1022C000000000000000000000000000000000000E
:1022D00000000000000000000000000000000000FE
:1022E0000000000000000000FBFB0000000000FBFD
:1022F000000000000000B8000000000000007000B6
:10230000000000000000700000000000000000203D
:10231000000000000000000020200000000000007D
:10232000000000000000FBFB0000000000000000B7
:10233000FB0000000000000000B8000000000000EA
:1023400000700000000000000070000000000000AD
:10235000200000000000202000000000000000001D
:10236000000000000000000000000000000000FB72
:102370000000000000B800B800B800000000707055
:10238000700000000070007000700000000000206D
:10239000000000000000000000000000000000003D
:1023A000000000000000000000000000000000FB32
:1023B00000000000000000B8000000000070707015
:1023C000707000000000007000000000000000209D
:1023D00000000000000000000000000000000000FD
:1023E00000000000000000000000000000000000ED
:1023F00000000000000000000000000000000000DD
:1024000000000000000070700000000000002020AC
:10241000000000000020200000000000000000007C
:1024200000000000000000000000000000000000AC
:10243000000000000000000000000000007070704C
:1024400070700000000000000000000000000000AC
:10245000000000000000000000000000000000007C
:10246000000000000000000000000000000000006C
:10247000000000000000000000000000000000005C
:10248000000000000000000000000000000020200C
:1024900000000000000020200000000000000000FC
:1024A00000000000000000000000FB000000000031
:1024B00000FB000000000000B800000000000070F9
:1024C000000000000000700000000000002000007C
:1024D00000000000200000000000000000000000DC
:1024E000000000000000FFFFFF00000000FF0000F0
:1024F000FFFF0000ADAD000000ADAD00ADAD0000D0
:1025000000ADAD005B5B0000005B5B00005B5B004F
:10251000005B000000005B5B5B000000000000004F
:1025200000000000000000FFFF0000000000FFFFAF
:10253000FF000000000000ADAD000000000000AD95
:10254000AD0000000000005B5B0000000000005BCD
:102550005B000000005B5B5B5B5B5B0000000000FE
:102560000000000000FFFFFFFFFF0000FFFF000072
:1025700000FFFF0000000000FFFFFF000000ADAD06
:10258000ADAD000000ADADADAD0000005B5B5B002C
:10259000000000005B5B5B5B5B5B5B0000000000BE
:1025A0000000000000FFFFFFFFFFFF000000000031
:1025B000FFFF0000000000ADAD0000000000ADAD69
:1025C000ADAD000000000000005B5B005B5B000045
:1025D000005B5B00005B5B5B5B5B0000000000007E
:1025E00000000000000000FFFFFF00000000FFFFF0
:1025F000FFFF000000ADAD00ADAD0000ADAD0000CF
:10260000ADAD00005B5B5B5B5B5B5B0000000000F3
:102610005B5B0000000000005B5B0000000000004E
:1026200000000000FFFFFFFFFFFF0000FFFF0000B2
:1026300000000000ADADADADADAD0000000000008C
:1026400000ADAD0000000000005B5B005B5B0000C4
:10265000005B5B00005B5B5B5B5B000000000000FD
:10266000000000000000FFFFFFFF000000FFFF0070
:1026700000000000ADAD000000000000ADADADAD4C
:10268000ADAD00005B5B0000005B5B005B5B0000CE
:10269000005B5B00005B5B5B5B5B000000000000BD
:1026A00000000000FFFFFFFFFFFFFF00FFFF000033
:1026B00000FFFF0000000000ADAD0000000000AD15
:1026C000AD00000000005B5B0000000000005B5BF1
:1026D0000000000000005B5B000000000000000044
:1026E0000000000000FFFFFFFF000000FFFF0000F0
:1026F00000FF0000ADADAD0000AD000000ADADAD20
:10270000AD0000005B00005B5B5B5B005B000000FA
:10271000005B5B00005B5B5B5B5B0000000000003C
:102720000000000000FFFFFFFFFF0000FFFF0000B0
:1027300000FFFF00ADAD000000ADAD0000ADADADE0
:10274000ADADAD0000000000005B5B0000000000CC
:102750005B5B0000005B5B5B5B0000000000000057
:102760000000000000000000000000000000FBFB73
:10277000000000000000B8B80000000000000000E9
:102780000000000000007070000000000000202029
:102790000000000000000000000000000000000039
:1027A0000000000000000000000000000000FBFB33
:1027B000000000000000B8B80000000000000000A9
:1027C00000000000000070700000000000002020E9
:1027D00000000000002020000000000000000000B9
:1027E0000000000000000000FB000000000000FBF3
:1027F000000000000000B8000000000000700000B1
:102800000000000000007000000000000000002038
:102810000000000000000000200000000000000098
:1028200000000000000000000000000000000000A8
:102830000000000000B8B8B8B8B800000000000000
:102840000000000000707070707000000000000058
:102850000000000000000000000000000000000078
:10286000000000000000FB0000000000000000FB72
:102870000000000000000000B800000000000000A0
:102880000070000000000000700000000000002048
:102890000000000000002000000000000000000018
:1028A0000000000000FBFBFBFBFB0000FBFBFBFB55
:1028B000FBFBFB00B8B8000000B8B8000000000047
:1028C00070700000000070707000000000000000D8
:1028D0000000000000002020200000000000000098
:1028E000000000000000FBFBFB00000000FB0000FC
:1028F00000FB0000B80000B800B8000070007000D5
:102900007070000070000070700000000020000077
:102910000000000000002020202000000000000037
:10292000000000000000FBFBFB00000000FBFB00C0
:10293000FBFB0000B8B8000000B8B80070700000E1
:102940000070700070707070707070002020000057
:1029500000202000202000000020200000000000B7
:1029600000000000FBFBFBFBFBFB0000FBFB00008F
:1029700000FBFB00B8B8000000B8B80070707070C1
:102980007070000070700000007070002020000067
:102990000020200020202020202000000000000037
:1029A000000000000000FBFBFBFB000000FBFB0045
:1029B00000FBFB00B8B800000000000070700000D1
:1029C00000000000707000000000000000202000E7
:1029D0000020200000002020202000000000000037
:1029E00000000000FBFBFBFBFB000000FBFB00000A
:1029F000FBFB0000B8B8000000B8B8007070000021
:102A000000707000707000000070700020200000E6
:102A100020200000202020202000000000000000D6
:102A200000000000FBFBFBFBFBFBFB00FBFB0000D3
:102A300000000000B8B80000000000007070707066
:102A40007070000070700000000000002020000086
:102A50000000000020202020202020000000000096
:102A600000000000FBFBFBFBFBFBFB00FBFB000093
:102A700000000000B8B80000000000007070707026
:102A80007070000070700000000000002020000046
:102A900000000000202000000000000000000000F6
:102AA000000000000000FBFBFBFBFB0000FBFB0049
:102AB00000000000B8B800000000000070700000C6
:102AC00070707000707000000070700000202000B6
:102AD0000020200000002020202020000000000016
:102AE00000000000FBFB000000FBFB00FBFB000004
:102AF00000FBFB00B8B8000000B8B8007070707040
:102B00007070700070700000007070002020000075
:102B100000202000202000000020200000000000F5
:102B20000000000000FBFBFBFBFBFB00000000FBC8
:102B3000FB000000000000B8B800000000000070BA
:102B40007000000000000070700000000000002015
:102B50002000000000202020202020000000000095
:102B600000000000000000FBFBFBFB000000000079
:102B7000FBFB000000000000B8B8000000000000EF
:102B80007070000000000000707000002000000065
:102B90002020000000202020200000000000000075
:102BA00000000000FBFB000000FBFB00FBFB000043
:102BB000FBFB0000B8B800B8B8000000707070707F
:102BC0000000000070707070700000002020002075
:102BD0002020000020200000202020000000000015
:102BE0000000000000FBFB000000000000FBFB00F9
:102BF0000000000000B8B800000000000070700085
:102C000000000000007070000000000000202000A4
:102C100000000000002020202020200000000000F4
:102C200000000000FBFB000000FBFB00FBFBFB00C7
:102C3000FBFBFB00B8B8B8B8B8B8B80070707070DB
:102C400070707000707000700070700020200000C4
:102C500000202000202000000020200000000000B4
:102C600000000000FBFB000000FBFB00FBFBFB0087
:102C700000FBFB00B8B8B8B800B8B800707070704E
:102C80007070700070700070707070002020000014
:102C90002020200020200000002020000000000054
:102CA0000000000000FBFBFBFBFB0000FBFB000047
:102CB00000FBFB00B8B8000000B8B800707000005E
:102CC0000070700070700000007070002020000024
:102CD0000020200000202020202000000000000014
:102CE00000000000FBFBFBFBFBFB0000FBFB00000C
:102CF00000FBFB00B8B8000000B8B800707000001E
:102D00000070700070707070707000002020000003
:102D10000000000020200000000000000000000073
:102D20000000000000FBFBFBFBFB0000FBFB0000C6
:102D300000FBFB00B8B8000000B8B80070700000DD
:102D400000707000707000707070700020200000C3
:102D50002020000000202020200020000000000093
:102D600000000000FBFBFBFBFBFB0000FBFB00008B
:102D700000FBFB00B8B8000000B8B800707000009D
:102D80007070700070707070700000002020002063
:102D90002020000020200000202020000000000053
:102DA0000000000000FBFBFBFB000000FBFB000041
:102DB000FBFB0000B8B8000000000000007070705D
:102DC0007070000000000000007070002020000003
:102DD0000020200000202020202000000000000013
:102DE0000000000000FBFBFBFBFBFB00000000FB06
:102DF000FB000000000000B8B800000000000070F8
:102E00007000000000000070700000000000002052
:102E10002000000000000020200000000000000052
:102E200000000000FBFB000000FBFB00FBFB0000C0
:102E300000FBFB00B8B8000000B8B80070700000DC
:102E400000707000707000000070700020200000A2
:102E50000020200000202020202000000000000092
:102E600000000000FBFB000000FBFB00FBFB000080
:102E700000FBFB00B8B8000000B8B800707070002C
:102E80007070700000707070707000000000202082
:102E900020000000000000200000000000000000F2
:102EA00000000000FBFB000000FBFB00FBFB000040
:102EB00000FBFB00B8B800B800B8B80070707070C4
:102EC0007070700070707070707070002020200042
:102ED0002020200020200000002020000000000012
:102EE00000000000FBFB000000FBFB00FBFBFB0005
:102EF000FBFBFB0000B8B8B8B8B800000000707069
:102F000070000000007070707070000020202000C1
:102F100020202000202000000020200000000000D1
:102F20000000000000FBFB0000FBFB0000FBFB00BF
:102F300000FBFB0000B8B80000B8B80000007070DB
:102F400070700000000000707000000000000020A1
:102F50002000000000000020200000000000000011
:102F600000000000FBFBFBFBFBFBFB000000000084
:102F7000FBFBFB00000000B8B8B800000000707058
:102F80007000000000707070000000002020200021
:102F90000000000020202020202020000000000051
:102FA000000000000000FBFBFBFB00000000FBFB3F
:102FB000000000000000B8B80000000000007070C1
:102FC00000000000000070700000000000002020E1
:102FD0000000000000002020202000000000000071
:102FE000000000000000FFFFFFFF000000FF0000E6
:102FF0000000FF00FF0000FFFF0000FFFF00FF00D8
:10300000000000FFFF00FF00000000FFFF0000FFC6
:10301000FF0000FF00FF00000000FF000000FFFFB6
:10302000FFFF00000000FBFBFBFB000000000000B6
:10303000FBFB000000000000B8B80000000000002A
:1030400070700000000000007070000000000000C0
:1030500020200000000020202020000000000000B0
:10306000000000000000FB000000000000B800B8F5
:103070000000000070000000700000000000000070
:103080000000000000000000000000000000000040
:103090000000000000000000000000000000000030
:1030A0000000000000000000000000000000000020
:1030B0000000000000000000000000000000000010
:1030C0000000000000000000000000000000000000
:1030D0000000000020202020202020000000000010
:1030E00000000000040003000100020002000300D1
:1030F000040005000500060007000800080009009C
:10310000040003000A000B000B000C000D0005007A
:1031100005000E000F001000100011000400030055
:10312000120013001300140015000500050016001E
:1031300017001800180019001E001A001A001A00C3
:103140001A001A001A001A001A001A001A001A00AF
:103150001A001A001A001A001A001A001A001A009F
:103160001A001A001A001A001A001A001A001A008F
:103170001A001A001A001A001A001A001A001A007F
:103180001A001A001A001A001A001A001A001A006F
:103190001A001A001A001A001A001A001A001A005F
:1031A0001A001A001A001A001A001A001A001A004F
:1031B0001A001A001A001A001B001C001C001C0038
:1031C0001C001D001E001F001F001F001F001F000D
:1031D0001F001F001F001F001F001F0020001C00F9
:1031E0001C001C001C00210022001A001A001A00FA
:1031F0001A001A00230024002400240024002500C3
:103200002600270027002700270027002700270087
:10321000270027002700270028002400240024007E
:10322000240029002A001A001A001A001A001A00A5
:10323000230024002400240024002B002C002D0057
:103240002D002D002D002D002D002D002D002D0016
:103250002D002D002E00240024002400240029002D
:103260002A001A001A001A001A001A00230024006B
:10327000240024002400240024002400240024002E
:1032800024002400240024002400240024002F0013
:103290003000300030003000300031002A001A00C9
:1032A0001A001A001A001A00230024002400240027
:1032B00024002400240024002400240024002400EE
:1032C00024002400240024002400320024002400D0
:1032D00024002400240029002A001A001A001A00E1
:1032E0001A001A00230024002400240024002400D3
:1032F00024002400240024002400240024002400AE
:10330000240024002400320024002400240024008F
:10331000240029002A001A001A001A001A001A00B4
:10332000230024002400240024002400240024007E
:10333000240024002400240024002400240024006D
:10334000240032002400240024002400240029004A
:103350002A001A001A001A001A001A00230024007A
:10336000240024002400240024002400240024003D
:10337000240024002400240024002400240032001F
:103380002400240024002400240029002A001A001C
:103390001A001A001A001A00230024002400240036
:1033A00024002400240024002400240024002400FD
:1033B00024002400240024002400320024002400DF
:1033C00024002400240029002A001A001A001A00F0
:1033D0001A001A00230024002400240024002400E2
:1033E00024002400240024002400240024002400BD
:1033F000240024002400320024002400240024009F
:10340000240029002A001A001A001A001A001A00C3
:10341000230024002400240024002400240024008D
:10342000240024002400240024002400240024007C
:103430002400320024002400240024002400290059
:103440002A001A001A001A001A001A002300240089
:10345000240024002400240024002400240024004C
:10346000240024002400240024002400240032002E
:103470002400240024002400240029002A001A002B
:103480001A001A001A001A00230024002400240045
:10349000240024002400240024002400240024000C
:1034A00024002400240024002400320024002400EE
:1034B00024002400240029002A001A001A001A00FF
:1034C0001A001A00230024002400240024002400F1
:1034D00024002400240024002400240024002400CC
:1034E00024002400240032002400240024002400AE
:1034F000240029002A001A001A001A001A001A00D3
:10350000230024002400240024002400330034007D
:10351000340034003400340034003400340034000B
:103520003400320024002400240024002400290058
:103530002A001A001A001A001A001A002300240098
:10354000240024002400240032002400240024004D
:10355000240024002400240024002400240032003D
:103560002400240024002400240029002A001A003A
:103570001A001A001A001A00230024002400240054
:10358000240024003200240024002400240024000D
:1035900024002400240024002400320024002400FD
:1035A00024002400240029002A001A001A001A000E
:1035B0001A001A0023002400240024002400240000
:1035C00032002400240024002400240024002400CD
:1035D00024002400240032002400240024002400BD
:1035E000240029002A001A001A001A001A001A00E2
:1035F000350036003600360036003600370036001B
:10360000360036003600360036003600360036000A
:1036100036003700360036003600360036003800F7
:103620002A001A001A001A001A001A0039003A007B
:103630003A003A003A003A003A003A003A003A00BA
:103640003A003A003A003A003A003A003A003A00AA
:103650003A003A003A003A003A003B002A001A00C9
:103660001A001A001A001A0039003A003A003A000B
:103670003A003A003A003A003A003A003A003A007A
:103680003A003A003A003A003A003A003A003A006A
:103690003A003A003A003B002A001A001A001A00C9
:1036A0001A001A003C003D003D003D003D003D0079
:1036B0003D003D003D003D003D003D003D003D0022
:1036C0003D003D003D003D003D003D003D003D0012
:1036D0003D003E003F001A001A001A001A001A00AE
:1036E0001A004000410041004100410041004100FA
:1036F00041004100410041004100410041004100C2
:1037000041004100410041004100410041004100B1
:1037100042001A001A001A001A001A001A001A00B1
:103720001A001A001A001A001A001A001A001A00C9
:103730001A001A001A001A001A001A001A001A00B9
:103740001A001A001A001A001A001A001A001A00A9
:103750001A001A00425241444C455920424F4343FB
:10376000555A5A49005752495454454E2042593AE5
:103770000043414C43554C41544F522044454D4F1A
:10378000000011241FBECFEFD0E1DEBFCDBF14BEBD
:1037900088E10FB6F89480936000109260000FBE2D
:1037A00013E0A0E0B1E0E4EEF6E602C005900D9271
:1037B000AC3CB107D9F71CE0ACECB3E001C01D9202
:1037C000A43DB107E1F7F894E1E0FAE080E090E091
:1037D00020E802C02193019632E08C309307D4F3A5
:1037E00081E09AE090930E0C80930D0C10920F0CD8
:1037F000E2E1FCE080E090E003C0108201963A969E
:1038000084309105D4F381E08093320C8093330CA3
:103810008093310C1092810015BCE6EBFCE080E057
:1038200090E020EE03C02083019634968630910507
:10383000D4F39093490C8093480C8FEF87B984B9E7
:1038400080E88AB98CE081B98BEF82B91092E609E1
:1038500086E08093E709109285001092840083E04F
:10386000809389008DE88093880089E080938100AF
:1038700082E080936F0082E484BD17BC91E095BD27
:1038800083E88093B0001092B3009093B10081E17F
:1038900085B91092F7091092EA091092EB0910927B
:1038A000F2091092F1091092F6091092F50910929E
:1038B0004A0C0E94042780E00E94821F80FF03C000
:1038C00084E00E947F1F78940E94E5270E94CE32F8
:1038D0000C9470330C940000D31DDD1DEB1D3F1DB7
:1038E000E6ECF9E0C0EED3E02091CF0C0027A081F8
:1038F000B181AC0FBD1F1C911283021708F4102F69
:103900001C93339603950A3090F309E40A5016E0AD
:103910001A95F1F70A95D9F716E01A95F1F700C054
:10392000C0EED3E000EEA02E662778E02DD133E282
:103930003A95F1F70E94D61C3FE03A95F1F700C0A6
:10394000AA94A9F00000639500000000683029F0F7
:10395000C895C895C8950000E9CF662700243EE1C8
:10396000C30FD01D0000000000000000DFCFC8958D
:10397000C895C895C895C8950000000005D10E945B
:10398000B42C11E00091E90901270093E909209185
:10399000EA09002309F021272093EA09E1E0E093F6
:1039A000E809E2E0E093360011240895DE01679F04
:1039B00000000091EC091091ED0900581240000D33
:1039C000111D180106E417E0000D111D280130E457
:1039D0001EE12D912A306FB660FA239FA1010EF4EB
:1039E000A201040E151EF001F6F0059108B92D9103
:1039F000059108B9239F059108B92A306FB6059142
:103A000008B908F4A201059108B960FA040E0591FD
:103A100008B9151E1A95059108B9059139F1F001FB
:103A200008B91EF700C0019108B92D91019100005D
:103A300008B9239F0191000008B92A306FB660FAD7
:103A4000019108B90EF0A1010191040E08B9151EEB
:103A500000C0019108B9000000C0019108B90191AE
:103A60001A9521F0F00108B906F6DDCF08B9002754
:103A7000C895000008B905E00A95F1F7089528985F
:103A80000E942221E7E1EA95F1F7289AE3D0E0E0ED
:103A9000F6E0C6D0E0FF05D0E0FF02C00E9447205C
:103AA0000895EF93E091E709E93EE0F5E930D0F1C0
:103AB0002F923F924F925F926F927F928F929F923E
:103AC000AF92BF92CF92DF92EF92FF920F931F932C
:103AD0002F933F934F935F936F937F938F939F9316
:103AE000AF93BF93CF93DF930E94701CDF91CF9170
:103AF000BF91AF919F918F917F916F915F914F9106
:103B00003F912F911F910F91FF90EF90DF90CF90F9
:103B1000BF90AF909F908F907F906F905F904F90ED
:103B20003F902F90EF910895FF93EF93EFB7EF93AE
:103B3000E0918400EE50E13000F0E23000F0E3303C
:103B400000F0E43000F0E53000F0E63000F0E7305F
:103B500000F0E83000F0E93000F005D0EF91EFBF61
:103B6000EF91FF9118950F921F92E8EDF8E3009006
:103B7000E609000C1124E00DF11D05901490F001F0
:103B800009951F900F90089528980E942221E5E141
:103B9000EA95F1F7E091E709EA95E093E709289AB9
:103BA00000000000089528980E944B21289A0000E8
:103BB000E1E0F6E035D047D0089528980E944B21E7
:103BC000E0EB0000EA95E9F700000000289AF6E033
:103BD000E2E026D0089528980E944B21289A000000
:103BE000E3E0FDEF1DD0E091E709E53091F4E091CD
:103BF000E909E1300000F091F70919F4F091F709B3
:103C0000F195E3E0E0938900EDE8EF0FE0938800A1
:103C10000895E3E0E0938900EDE8E09388000895DB
:103C20000090E7090A9410905F0011FC0F2E00929B
:103C3000E7090090E60911FC0E2E0092E609E0E08B
:103C400011FCE1E00895E3E0E0938900EDE8E09302
:103C500088000895E7E0E0938900EBE1E0938800B5
:103C60000895E6E6F3E0A0EEB3E06AE06D933197E5
:103C7000E9F711240895CC03CC03CC03CC03CC0387
:103C8000CC03CC03CC03CC03CC03CC03CC03CC03BC
:103C9000CC03CC03CC03CC03CC03CC03CC03CC03AC
:103CA000CC03CC03CC03CC03CC03CC03CC03CC039C
:103CB000CC03CC03CC03CC03CC03CC03CC03CC038C
:103CC000CC03CC03CC03CC03CC03CC03CC03CC037C
:103CD000CC03CC03CC03CC03CC03992777272EE16C
:103CE000629F080E191EA0EEB3E0A00DB11D465F45
:103CF0004C9311240895089599272EE1629F080E90
:103D0000191EA0EEB3E0A00DB11D5091EE09450FB4
:103D10004C93112408958093EE0908958093E4094B
:103D20009093E50908958093EC099093ED09089527
:103D30008091E809089511241092E809089580E817
:103D400091E08093610090936100089580E890E095
:103D50008093610090936100089520E4E091EC0964
:103D6000F091ED098A50829FE00DF11DA6E4B7E0C5
:103D7000629FA00DB11D002405900D9205900D923B
:103D800005900D9205900D9205900D9205900D9263
:103D900005900D9205900D9205900D9205900D9253
:103DA00005900D9205900D9205900D9205900D9243
:103DB00005900D9205900D9205900D9205900D9233
:103DC00005900D9205900D9205900D9205900D9223
:103DD00005900D9205900D9205900D9205900D9213
:103DE00005900D9205900D9205900D9205900D9203
:103DF00005900D9205900D9205900D9205900D92F3
:103E000005900D9205900D9205900D9205900D92E2
:103E100005900D9205900D9205900D9205900D92D2
:103E200005900D9205900D9205900D9205900D92C2
:103E300005900D9205900D9205900D9205900D92B2
:103E400005900D9205900D9205900D9205900D92A2
:103E500005900D9205900D9205900D9205900D9292
:103E600005900D9205900D9205900D9205900D9282
:103E700005900D9205900D921124089594E0899F6C
:103E8000E5EBFCE0E00DF11D8281E091E409F091A9
:103E9000E50990E4899FE00DF11DA6E4B7E0699F74
:103EA000A00DB11D1124403021F4A20FB11D822FAD
:103EB00004C088E0821BE80FF11D503031F498E017
:103EC000939FA00DB11D932F06C098E0931B58E05F
:103ED000599FE00DF11D11243EEF58E0591B48E0B9
:103EE000481B259123132C9311964A95D1F7E80F7F
:103EF000F11DA80FB11D5A9591F7112408958093D3
:103F0000F7090895882329F48091EF099091F00929
:103F100008958091F3099091F4090895882329F474
:103F20008091F1099091F20908958091F50990919D
:103F3000F609089578E07A95F1F700000197D1F736
:103F40000895F999FECF92BD81BD60BDF894FA9AAB
:103F5000F99A78940895F999FECF92BD81BDF894AD
:103F6000F89A80B5789408950000000000000000E1
:103F70000000000000000000000000000000000041
:103F80000000000000000000000000000000000031
:103F90000000000000000000000000000000000021
:103FA0000000000000000000000000000000000011
:103FB0000000000000000000000000000000000001
:103FC00000000000000000000000000000000000F1
:103FD00000000000000000000000000000000000E1
:103FE00000000000000000000000000000000000D1
:103FF00000000000000000000000000000000000C1
:1040000099277727833008F00895E0E0FDE4660FF4
:10401000771FE60FF71FA591B491E2E1FCE02AE0DB
:10402000289FE00DF11DA183B28311240895909182
:10403000310C9170880F892B8093310C089599274A
:104040007727E2E1FCE02AE0289FE00DF11D6E3FBA
:1040500031F46091310C6E7F6093310C0BC06F3F77
:1040600031F46091310C6E6F6093310C03C073E4D6
:10407000760F75831124089599277727E2E1FCE0F4
:104080002AE0289FE00DF11D6083112408952F93ED
:104090003F934F935F936F937F938F939F93AF93D0
:1040A000BF93789411240E94722D0E94552E0E9475
:1040B000A5270E9499292F923F924F925F926F926B
:1040C0007F928F929F92AF92BF92CF92DF92EF92A8
:1040D000FF920F931F93CF93DF9300900F0C00205C
:1040E00019F4A1E0BAE002C0A7E0BBE001E00026BD
:1040F00000920F0C02E00093100C5091300C609174
:10410000320C7091330C8091340C2090130C309051
:10411000140C4090160C5090170C6090150C1091D8
:10412000120C70901D0C80901E0C90901F0CA09093
:10413000200CB090210C20911C0CC090270CD0902A
:10414000280CE0902A0CF0902B0C0091290C309157
:10415000260C9FEF620C431CF201449141030024A2
:104160000008C12DD02D970CA81CF50144914203E5
:1041700000240008C10DD01D0C0DED1CF701449169
:10418000430300240008C10DD01D8A956AF44091B4
:10419000310C842F8695062E0694062600FA769515
:1041A000679576F940FF66F940E860FD4FE7450303
:1041B00000240008C10DD01D0024C038D0050CF02B
:1041C000CFE70A94C038D0050CF4C0E8C058CD93AE
:1041D0009A9509F0BFCF4091100C4A954093100C6E
:1041E00097E009F0B7CF6092150C4092160C9092B0
:1041F0001F0CA092200C0093290CE0922A0C6093D3
:10420000320C7093330C8093340CDF91CF911F915B
:104210000F91FF90EF90DF90CF90BF90AF909F9065
:104220008F907F906F905F904F903F902F90BF91B5
:10423000AF919F918F917F916F915F914F913F913E
:104240002F9108950C9424210C9426210F931F93F1
:104250002ABDE0910D0CF0910E0C0191000000932D
:10426000B3000CE0ED30F00710F40000000010F097
:10427000E1E0FAE0E0930D0CF0930E0CC895C895C0
:10428000C895C895C895C8950000000000002AB5DB
:104290001F910F9108950000E091E709E0FFD6CF4C
:1042A000E1E1EA95F1F70000000008950000000048
:1042B00000000000000000000000000000000000FE
:1042C00000000000000000000000000000000000EE
:1042D00000000000000000000000000000000000DE
:1042E00000000000000000000000000000000000CE
:1042F00000000000000000000000000000000000BE
:10430000000306090C101316191C1F2225282B2E3A
:10431000313336393C3F414447494C4E515355584F
:104320005A5C5E60626466686A6B6D6F707173740C
:10433000757678797A7A7B7C7D7D7E7E7E7F7F7FC5
:104340007F7F7F7F7E7E7E7D7D7C7B7A7A797876AB
:1043500075747371706F6D6B6A68666462605E5CC1
:104360005A585553514E4C494744413F3C393633D6
:10437000312E2B2825221F1C191613100C09060399
:1043800000FDFAF7F4F0EDEAE7E4E1DEDBD8D5D2A0
:10439000CFCDCAC7C4C1BFBCB9B7B4B2AFADABA86B
:1043A000A6A4A2A09E9C9A9896959391908F8D8C8E
:1043B0008B8A8887868685848383828282818181B5
:1043C0008181818182828283838485868687888AAF
:1043D0008B8C8D8F9091939596989A9C9EA0A2A479
:1043E000A6A8ABADAFB2B4B7B9BCBFC1C4C7CACD44
:1043F000CFD2D5D8DBDEE1E4E7EAEDF0F4F7FAFD61
:10440000808182838485868788898A8B8C8D8E8F34
:10441000909192939495969798999A9B9C9D9E9F24
:10442000A0A1A2A3A4A5A6A7A8A9AAABACADAEAF14
:10443000B0B1B2B3B4B5B6B7B8B9BABBBCBDBEBF04
:10444000C0C1C2C3C4C5C6C7C8C9CACBCCCDCECFF4
:10445000D0D1D2D3D4D5D6D7D8D9DADBDCDDDEDFE4
:10446000E0E1E2E3E4E5E6E7E8E9EAEBECEDEEEFD4
:10447000F0F1F2F3F4F5F6F7F8F9FAFBFCFDFEFFC4
:10448000000102030405060708090A0B0C0D0E0FB4
:10449000101112131415161718191A1B1C1D1E1FA4
:1044A000202122232425262728292A2B2C2D2E2F94
:1044B000303132333435363738393A3B3C3D3E3F84
:1044C000404142434445464748494A4B4C4D4E4F74
:1044D000505152535455565758595A5B5C5D5E5F64
:1044E000606162636465666768696A6B6C6D6E6F54
:1044F000707172737475767778797A7B7C7D7E7F44
:1045000000020406080A0C0E10121416181A1C1EBB
:1045100020222426282A2C2E30323436383A3C3EAB
:1045200040424446484A4C4E50525456585A5C5E9B
:1045300060626466686A6C6E70727476787A7C7E8B
:104540007F7D7B79777573716F6D6B69676563616B
:104550005F5D5B59575553514F4D4B49474543415B
:104560003F3D3B39373533312F2D2B29272523214B
:104570001F1D1B19171513110F0D0B09070503013B
:10458000FFFDFBF9F7F5F3F1EFEDEBE9E7E5E3E12B
:10459000DFDDDBD9D7D5D3D1CFCDCBC9C7C5C3C11B
:1045A000BFBDBBB9B7B5B3B1AFADABA9A7A5A3A10B
:1045B0009F9D9B99979593918F8D8B8987858381FB
:1045C00080828486888A8C8E90929496989A9C9EFB
:1045D000A0A2A4A6A8AAACAEB0B2B4B6B8BABCBEEB
:1045E000C0C2C4C6C8CACCCED0D2D4D6D8DADCDEDB
:1045F000E0E2E4E6E8EAECEEF0F2F4F6F8FAFCFECB
:104600007F7F7F7F7F7F7F7F7F7F7F7F7F7F7F7FBA
:104610007F7F7F7F7F7F7F7F7F7F7F7F7F7F7F7FAA
:104620007F7F7F7F7F7F7F7F7F7F7F7F7F7F7F7F9A
:104630007F7F7F7F7F7F7F7F7F7F7F7F7F7F7F7F8A
:104900000309131E28313A40464C5054585B5E61EF
:10491000636567696B6C6E6F7071727374757677AF
:10492000777879797A7A7B7B7C7C7C7D7D7D7E7ED5
:104930007E7E7F7F7F7F7F7F7F7F7F7F7F7F7F7F89
:104940007F7F7F7F7F7F7F7F7F7F7F7F7F7E7E7E7A
:104950007E7D7D7D7C7C7C7B7B7A7A7979787777AC
:10496000767574737271706F6E6C6B696765636175
:104970005E5B5854504C46403A31281E13090300E0
:10498000C6CCD5DBDFE3E5E7E9EAEBECEDEEEFEFF4
:10499000F0F0F0F1F1F1F1F2F2F2F2F2F2F2F2F300
:1049A000F3F3F3F3F3F3F3F3F3F3F3F3F3F3F3F3D7
:1049B000F3F3F3F3F3F3F3F3F3F3F3F3F3F3F3F3C7
:1049C000F3F3F3F3F3F3F3F3F3F3F3F3F3F3F3F3B7
:1049D000F3F3F3F3F3F3F3F3F3F3F3F3F3F3F3F3A7
:1049E000F2F2F2F2F2F2F2F2F1F1F1F1F0F0F0EFB4
:1049F000EFEEEDECEBEAE9E7E5E3DFDBD5CCC60073
:104A000000283D42302D2C2B2C2D2E2F30323335CB
:104A100037393B3D3F414345484A4C4E505355572B
:104A2000595B5D5F61636567696B6C6E7071737410
:104A3000757778797A7B7C7D7D7E7E7F7F7F7F7FB7
:104A40007F7F7F7F7F7F7E7E7D7D7C7B7A7978779D
:104A500075747371706E6C6B69676563615F5D5BC4
:104A600059575553504E4C4A484543413F3D3B39B9
:104A700037353332302F2E2D2C2B2C2D30423D2824
:104A800000E9E5FED4D7D7D7D6D4D2D0CECCCAC889
:104A9000C6C3C1BFBDBAB8B6B4B1AFADABA9A7A5C7
:104AA000A3A19F9E9C9A999795949391908F8D8C9A
:104AB0008B8A898888878685858484848383838399
:104AC0008383838383848484858586878888898A91
:104AD0008B8C8D8F909193949597999A9C9E9FA182
:104AE000A3A5A7A9ABADAFB1B4B6B8BABDBFC1C39A
:104AF000C6C8CACCCED0D2D4D6D7D7D7D4FEE5E953
:104B0000F9F8F9F5EBE1DDDEE0E2E4E5E6E5E4E223
:104B1000DED9D2CAC1B7ACA299918A86838180803E
:104B20008182838586888A8C8D8F909293959697C3
:104B300098999A9B9B9C9D9D9D9E9E9E9F9F9F9FAB
:104B40009F9F9F9E9E9E9D9D9D9C9B9B9A999897A3
:104B500096959392908F8D8C8A88868583828180AA
:104B6000808183868A9199A2ACB7C1CAD2D9DEE28C
:104B7000E4E5E6E5E4E2E0DEDDE1EBF5F9F8F90095
:104B80000708070B151F2322201E1C1B1A1B1C1EA7
:104B900022272E363F49545E676F767A7E7F7F7F6D
:104BA0007F7E7D7B7A7876747371706E6D6B6A69C7
:104BB00068676665656464636362626261616161BE
:104BC00061616162626263636364656566676869A7
:104BD0006A6B6D6E7071737476787A7B7D7E7F7F81
:104BE0007F7F7E7A766F675E54493F362E27221E7E
:104BF0001C1B1A1B1C1E2022231F150B0708070055
:104C00001F313D444E5354565A5F64696E74767931
:104C10007C7F7F7F7F7F7F7F7F7F7F7F7F7F7F7FA7
:104C20007F7F7F7F7F7F7F7F7F7F7F7F7F7F7F7F94
:104C30007F7F7F7F7F7F7F7F7F7F7F7F7F7F7F7F84
:104C40007F7F7F7F7F7F7F7F7F7F7F7F7F7F7F7F74
:104C50007F7F7F7F7F7F7F7F7F7F7F7F7F7F7F7F64
:104C60007F7F7F7F7F7F7F7F7F7F7F7F7F7F7F7F54
:104C70007F7F7F7F7F7F7F7F7F7F7F7C7871684CA6
:104C80002C1C120C0A0B0A05FDF3E9DFD4CAC0B7CD
:104C9000AEA69E97918B8685828080808080808062
:104CA0008080808080808080808080808080808004
:104CB00080808080808080808080808080808080F4
:104CC00080808080808080808080808080808080E4
:104CD00080808080808080808080808080808080D4
:104CE00080808080808080808080808080808080C4
:104CF000808080808087919DACC4CBD4DDF2FAFAAD
:104D000022002400260028002B002D003000330054
:104D1000360039003D004000440048004C0051007E
:104D200056005B00600066006C0073007900810033
:104D3000880090009900A200AC00B600C100CC0031
:104D4000D800E500F3000101100121013201440106
:104D500057016C0181019801B001CA01E50102020D
:104D60002102410264028802AE02D702030330032B
:104D700061039403CB03050442048304C7041005B4
:104D80005D05AF0505066106C206290796070908F5
:104D9000830805098E09200ABA0A5D0B0A0CC10CAA
:104DA000840D510E2B0F121007110A121D134014FF
:104DB0007415BA1614188319071BA31C571E242038
:104DC0000E22142439267F28E82A752D293006332F
:104DD0000F364539AD3C49401B442848734CFE50C2
:104DE000CF55EA5A51600C661D6C8B725A799280CD
:104DF00037885090E598FDA19FABD3B5A3C00000C4
:104E000081E080934A0C0895FF920F931F93CF93F4
:104E1000DF93129A80914A0C882329F081E090E078
:104E20000E949A1F02C0C895C895129800E010E031
:104E3000C0E0D0E0FF2416950795D695C795139846
:104E400080914A0C882329F085E090E00E949A1F07
:104E500002C0C895C895009B1068019BD068139A42
:104E600080914A0C882329F085E090E00E949A1FE7
:104E700002C0C895C895F39480E1F816E1F6109346
:104E8000F0090093EF09D093F409C093F309DF917F
:104E9000CF911F910F91FF90089580914A0C882324
:104EA000E1F00E9404278091EF099091F00997FFAB
:104EB00005C08091EF099091F0090AC08091F30933
:104EC0009091F40997FF09C08091F3099091F4093A
:104ED000892F86958695837008958FEF0895FF92A8
:104EE0000F931F93F82E80914A0C882309F428C051
:104EF00006E00E944D278F1511F481E022C088EE54
:104F000093E00E949A1F10E0129A1398C895C895D2
:104F1000C895C895C895C895C895139A129882E007
:104F200090E00E949A1FC895C895C895C895C895E5
:104F3000C895C8951F5F1F3139F70F5F09F0D9CFAA
:104F400080E01F910F91FF900895FF920F931F93A0
:104F5000CF93DF930E9404278091EF099091F0098D
:104F600097FD06C08091F3099091F40997FF27C03F
:104F700081E090E00E949A1F00E010E0C0E0D0E0E5
:104F8000FF24000F111FCC0FDD1F1398C895C89583
:104F9000C895C895009B0160019BC160139A88E089
:104FA00090E00E949A1FF39480E1F81651F7109355
:104FB000F2090093F109D093F609C093F509DF9146
:104FC000CF911F910F91FF9008950F931F930EEAB9
:104FD00018E0C8010E94862880E790E00E94931E96
:104FE0000E94311E89E190E00E94962DC8010E9426
:104FF000862841E06FEF80E00E94F12B00E718E087
:10500000A8016CE08DE00E94CB2C83E090E00E9430
:10501000962D46E858E06CE08DE00E94CB2C82E0B3
:1050200090E00E94962DA8016CE08DE00E94CB2CB0
:1050300088E290E00E94962D8AE090E00E94962DF2
:1050400061E081E00E94592D0E94311E84E190E0D0
:105050000E94962D1F910F91089590E026E130E077
:10506000829FF001839FF00D929FF00D1124E35B6E
:10507000F34F628708956093310C089590E026E124
:1050800030E0829FF001839FF00D929FF00D11247C
:10509000E35BF34F13861182089590E026E130E040
:1050A000829FF001839FF00D929FF00D1124E35B2E
:1050B000F34F81E0838B089590E026E130E0829FFA
:1050C000F001839FF00D929FF00D1124E35BF34FED
:1050D0006187089590E026E130E0829FF001839F90
:1050E000F00D929FF00D1124E35BF34F648308955C
:1050F00090E026E130E0829FF001839FF00D929FC7
:10510000F00D1124E35BF34F658308959093A80C91
:105110008093A70C8FE68093AD0C1092000AEDE40B
:10512000FCE021E08FEF98E120831086868387835F
:1051300014861182958376963CE0E53AF307A1F751
:105140000895DC01ED91FC911197AF014F5F5F4F26
:1051500011965C934E93E4912E2F30E0E7FF13C03D
:105160002F7730703695322F222737952795FA0101
:105170004F5F5F4FE4918E2F8F77280F311DE7FD32
:10518000F1CF4D935C93C90108950E941F200895AB
:10519000EF92FF920F931F93CF93DF93182F062F59
:1051A000F42EE22EC82FD0E086E190E0C89FF001F7
:1051B000C99FF00DD89FF00D1124E35BF34F838559
:1051C000882321F08181882309F0ACC0EE2091F47E
:1051D00086E190E0C89FF001C99FF00DD89FF00DC7
:1051E0001124E35BF34F138A8285882309F09AC068
:1051F000108698C0133059F481E091E09093330CFD
:105200008093320C81E08093310C0F2D08C060E058
:10521000812F0E941F206F2D812F0E9400200F37A9
:1052200099F486E190E0C89FF001C99FF00DD89FE6
:10523000F00D1124E35BF34F8091AA0C87878BEA72
:105240009CE0958B848B30C089E0089FC0011124BD
:10525000E091A70CF091A80CE80FF91F3396459147
:1052600054914115510571F486E190E0C89FF00119
:10527000C99FF00DD89FF00D1124E35BF34F158A01
:10528000148A12C0FA01249186E190E0C89FF001CF
:10529000C99FF00DD89FF00D1124E35BF34F2787D2
:1052A0004F5F5F4F558B448B86E190E0C89FD001E4
:1052B000C99FB00DD89FB00D1124A35BB34F50967A
:1052C0001C9250971A961C921A971C960C931C9736
:1052D00011961C9211972FEF19962C9319971896E7
:1052E000EC9218978BE090E0C89FF001C99FF00DF9
:1052F000D89FF00D1124EE0FFF1FE15BF34FF082FA
:1053000051961C92519781E01B968C931B97539654
:105310001C92539752961C92529714961C92149773
:1053200016962C93DF91CF911F910F91FF90EF90E4
:105330000895CF92DF92FF920F931F93CF93DF9345
:10534000E6E5FCE08181282F332727FD3095808119
:10535000280F311D2F3F310519F014F02FEF30E0E9
:10536000C90137FF02C080E090E0808376964CE070
:10537000EE3AF40739F78091000A882309F027C133
:1053800043C1E091B00CF091B10C9F012F5F3F4FF2
:105390003093B10C2093B00C44914F3F69F5A901B3
:1053A0004F5F5F4F5093B10C4093B00CF901849163
:1053B0008F3219F41092000A18C1863009F0FAC031
:1053C000FA013196CF0101969093B10C8093B00C05
:1053D000E491E33529F49093B40C8093B30CEAC0C4
:1053E000E53409F0E7C08091B30C9091B40C909330
:1053F000B10C8093B00CDEC047FF02C04093A90CF3
:10540000542F5F70842F90E0807F9070803B9105D7
:1054100029F1803C910579F18039910509F042C06C
:10542000C9010196F901449101969093B10C8093C2
:10543000B00C0197FC012491852F90E08C9FF00126
:105440008D9FF00D9C9FF00D1124E35BF34F808145
:10545000882309F4AFC0220F648552C0C9010196A8
:10546000F901449101969093B10C8093B00C01978F
:10547000FC01249153C02F5F3F4F3093B10C209318
:10548000B00C21503040F9012491852F90E08C9F81
:10549000F0018D9FF00D9C9FF00D1124E35BF34F05
:1054A000248788C08091A90C582F5F7090E0807F7E
:1054B0009070803B910541F1803C910509F46EC0EC
:1054C0008039910509F076C02F5F3F4F3093B10CC2
:1054D0002093B00C21503040F9012491852F90E0A9
:1054E0008C9FD0018D9FB00D9C9FB00D1124A35BAC
:1054F000B34F8C91882309F45DC0220F1C966C91E8
:10550000852F0E94C82856C02F5F3F4F3093B10CA3
:105510002093B00C21503040F9012491473071F4B0
:10552000852F90E08C9FF0018D9FF00D9C9FF00DDA
:105530001124E35BF34F220F27833CC04B3071F4FF
:10554000852F90E08C9FF0018D9FF00D9C9FF00DBA
:105550001124E35BF34F220F26832CC04C3571F4EA
:10556000852F90E08C9FF0018D9FF00D9C9FF00D9A
:105570001124E35BF34F220F24831CC04436D1F483
:10558000852F90E08C9FF0018D9FF00D9C9FF00D7A
:105590001124E35BF34F220F25830CC0852F90E08D
:1055A0008C9FF0018D9FF00D9C9FF00D1124E35B0B
:1055B000F34F448780EB9CE00E94A1289093AF0CAE
:1055C0008093AE0C1092A60C1092A50C02C0C6E1FE
:1055D000D0E06091A50C7091A60C8091AE0C9091DA
:1055E000AF0C6817790709F4CCCE6F5F7F4F7093CB
:1055F000A60C6093A50C8091AB0C9091AC0C01961D
:105600009093AC0C8093AB0C02E11CE0CEE4DCE0A8
:10561000FF24BFEFCB2ED12C8A89882309F05EC0EE
:105620008B899C89892B09F456C09F858E85981794
:1056300008F04CC050C08B852B893C898F37E9F42A
:10564000D9018D91BC8BAB8B8F3F01F1F901618149
:105650001196BC8BAB8BE82FF0E0EE0FFF1FE954E7
:10566000F74F0190F081E02D8F2D0995EB89FC8992
:1056700081918E87FC8BEB8B28C0A9014F5F5F4F18
:105680005C8B4B8BF90184918F3F21F418821C8A2B
:105690001B8A21C04F5F5F4F5C8B4B8B415050404A
:1056A000FA01649190E0880F991F8954974FFC018B
:1056B000259134918F2DF9010995EB89FC8931965B
:1056C000FC8BEB8B3197E491EE871F869F858E854F
:1056D000981709F4B0CF8F858F5F8F878A858823CD
:1056E00019F420E030E06BC088898F3F11F08F5FA4
:1056F000888B9F81992309F45CC02885222309F4B3
:1057000058C08E81882309F454C04091AD0C4423C5
:1057100009F44FC0899FC001112480509F4F892FE9
:10572000992730E0B901869F9001879F300D969FA1
:10573000300D112420503F4F232F33278D8190E0CF
:10574000FC012E9FC0012F9F900D3E9F900D1124B4
:1057500080509F4F892F9927242F30E0AC01429F22
:10576000C001439F900D529F900D112480509F4F78
:10577000292F33278B818823F1F0EA81F0E0E05074
:10578000FD4BE491E058E89FC001112480509F4FE9
:10579000892F9927B601681B790B629FC001639F0F
:1057A000900D729F900D112480509F4F292F332709
:1057B00002C020E030E08A819C81890F8A83F80151
:1057C0002083F394065F1F4F6696F4E0FF1609F0FE
:1057D00023CFDF91CF911F910F91FF90DF90CF905A
:1057E00008951F93CF93DF93582F89E0589FC001EE
:1057F00011242091A70C3091A80C280F391FC90142
:105800000396FC01A591B491F901849181508230F5
:1058100010F413E01DC08091640C8823B1F08091D6
:10582000700C851711F4442381F480917A0C88233D
:1058300071F08091860C851711F4442341F4909106
:10584000740C80918A0C891710F411E001C012E0E9
:10585000212F30E0FD01449186E190E0289FE00196
:10586000299FD00D389FD00D1124C35BD34F4F8794
:105870001196BD8BAC8B188A8BE090E0289FF001CD
:10588000299FF00D389FF00D1124EE0FFF1FE15BF3
:10589000F34F80E5808368878FEF89871A861B8A9C
:1058A000198A21E02B871A8A5D8729831C828E83BF
:1058B000133049F481E091E09093330C8093320CE3
:1058C0002093310C08C060E5812F0E9400206A8976
:1058D000812F0E941F20DF91CF911F910895FF9289
:1058E0000F931F93082FF62E0E94002010E08BE0EC
:1058F00090E0089FF001099FF00D189FF00D112412
:10590000EE0FFF1FE15BF34FF0821F910F91FF90AD
:105910000895962F482F50E02BE030E0429FF00191
:10592000439FF00D529FF00D1124EE0FFF1FE15B1E
:10593000F34F6081691B60830E9400200895482F07
:1059400050E02BE030E0429FF001439FF00D529F6A
:10595000F00D1124EE0FFF1FE15BF34F9081690FF3
:1059600060830E94002008953091CF0C20E010C089
:10597000822F90E0FC01EE0FFF1FE80FF91FEA53A2
:10598000F64FA081B181A052BC4F82818C932F5FD2
:10599000231770F308951F93CF93DF93FA01749147
:1059A00031961491C72FD0E0AF014F5F5F4F9EE15A
:1059B000699F90011124280F311D60E00CC0849173
:1059C000865F8D939F5F31969717C8F36F5F4C0F7B
:1059D0005D1F225E3F4F611730F4D901A052BC4FCA
:1059E000FA0190E0F1CFDF91CF911F9108951F93BD
:1059F000CF93DF93A82FFB0174913196B491C72FF9
:105A0000D0E0AF014F5F5F4F60E016C0F9018491B5
:105A1000E12FF0E0EE0FFF1FEE0FFF1FE954F34FF1
:105A200080839F5F2F5F3F4F192F1A0F971770F3D7
:105A3000A70F6F5F4C0F5D1F6B1718F49A0190E072
:105A4000F3CFDF91CF911F9108950F9350E012C0D3
:105A5000F0E0EE0FFF1FEE0FFF1FEB54F34F30830C
:105A600041839F5F385FE92FE80F921788F3820F19
:105A70005F5F485F501718F4362F90E0F4CF0F9116
:105A80000895982F882319F48FEF87B9089581E03E
:105A90008093D20C8093CE0C9093CD0C1092D10CAD
:105AA0008093D00C662321F08091D00C8823E1F7FD
:105AB0000895982F882311F417B808958CE08093E7
:105AC000D20C8FEF8093CE0C9093CD0C1092D10C12
:105AD00081E08093D00C662321F08091D00C882344
:105AE000E1F708958091D00C8823F9F08091D10CD2
:105AF0008823C1F48091CD0C8093D10C9091D20C6D
:105B0000E92FF0E0E050FF4F808187B98091CE0C03
:105B1000890F8093D20C882311F08D3031F41092CC
:105B2000D00C089581508093D10C08950F931F934A
:105B3000CF93DF938C01C0E0D0E007C00E94981E95
:105B40008823E1F30E949B1E2196C017D107B4F36E
:105B5000DF91CF911F910F910895FF920F931F93A3
:105B6000CF93DF938C01F62EEA01FE01449121963A
:105B7000442349F0802F0F5F1F4F4F7746516F2D01
:105B80000E947C1EF2CFDF91CF911F910F91FF9069
:105B90000895CF92DF92EF92FF920F931F93CF93CE
:105BA000DF93C62E79018A01EC01DD24E114F104B2
:105BB0000105110511F4DD2059F4C801B7012AE0EF
:105BC00030E040E050E00E943333462F465E01C093
:105BD0004AE06C2D8C2F0E947C1ED394219786E086
:105BE000D81669F0C801B7012AE030E040E050E083
:105BF0000E943333C901DA017C018D01D7CFDF91D7
:105C0000CF911F910F91FF90EF90DF90CF9008956B
:105C10007F928F929F92AF92BF92CF92DF92EF923C
:105C2000FF920F931F93CF93DF93782E862EEA0176
:105C3000FA01C590D490FA013296A590B49000E094
:105C400016C0FC01EE0DFF1D3296EE0FFF1FEC0F8C
:105C5000FD1F45915491692D812F870D0E946D1E66
:105C60001F5F812F90E08C159D055CF30F5F802FE7
:105C700090E08A159B055CF48C9D70018D9DF00C65
:105C80009C9DF00C112410E0902E980CEACFDF912F
:105C9000CF911F910F91FF90EF90DF90CF90BF9029
:105CA000AF909F908F907F9008952F923F924F9248
:105CB0005F926F927F928F929F92AF92BF92CF929C
:105CC000DF92EF92FF920F931F93DF93CF9300D059
:105CD0000F92CDB7DEB71092CF0C809100018823D0
:105CE00009F49AC065EB862E6CE0962E7724F401B9
:105CF0009181903E08F071C08081382F369536959D
:105D00003695282F277019F0F2E0F98302C081E060
:105D10008983892F869586958695977019F052E02C
:105D2000652E02C066246394B92EAA241501220EA2
:105D3000311C9EE1899F80011124030F111DCC2489
:105D4000DD2440C02A813B81200F311FF701708183
:105D50007A30E8F06091CF0C6A3010F5862F90E031
:105D6000FC01EE0FFF1FE80FF91FEA53F64F3183D6
:105D700020837283872F0E94AD1E7091CF0CF70194
:105D800070837F5F7093CF0C71507A3048F44A81F2
:105D90005B81440D551D9101672F872D0E943E1F89
