:100000000C94773B0C94DF3B0C94DF3B0C94DF3B70
:100010000C94DF3B0C94DF3B0C94DF3B0C94DF3BF8
:100020000C94DF3B0C94DF3B0C94DF3B0C94DF3BE8
:100030000C94DF3B0C94483E0C94883E0C94DF3BC0
:100040000C94DF3B0C94DF3B0C94DF3B0C94DF3BC8
:100050000C94DF3B0C94DF3B0C94DF3B0C94DF3BB8
:100060000C94DF3B0C94DF3B0C94DF3B0C94DF3BA8
:100070005A5501200101003808000000000000006E
:100080000000000000000000000000000000000070
:100090008100450027FF24FF2A902B1C210C22FB06
:1000A000850084008903888D81096F0244424700DE
:1000B0004501B083B300B10125118A4F8B03CD40B8
:1000C000D0401345F741EE41D940DE40E340DC41EA
:1000D000E640E940EC402D413041334100408891F9
:1000E000D2E4ADB5B6BEBFFF4A1D1D1D1D6E1D1D60
:1000F0006666666E66666E6627276E272727272741
:100100002F2F2F2F2F2F2F2F4A4A2F2F2F2F2F13E5
:100110004A2F2F1313132F2F2F2F131300131300F6
:100120002F131313131300131D1D1D1D1D1D1D1D46
:1001300066666E66666E66662727272727276E2700
:100140002F2F2F2F2F2F2F2F1313131300131300C5
:1001500000131313131300132F2F131313002F2F38
:10016000132F2F2F2F2F2F2F1D1D1D1D1D1D1D1D4B
:1001700066666E66666E66662727272727276E27C0
:100180002F2F2F2F2F2F2F2F131313130013130085
:10019000002F132F2F2F00132F2F2F2F2F2F2F2F05
:1001A0002F2F2F2F002F2F2F1D1D1D1D1D1D1D1D1E
:1001B00066666E66666E66662727272727276E2780
:1001C0002F2F2F2F2F2F2F2F131313130013130045
:1001D0000013132F2F2F00132F2F2F2F2F2F2F2FE1
:1001E0002F2F2F2F002F2F2F1D1D6E1D6E1D1D4A0F
:1001F000666E6666666E6666272727272727272787
:100200002F2F2F2F2F2F2F2F1313131313134A4A70
:10021000131313130013134A00132F2F2F13131349
:100220002F2F2F13131313134A1D1D1D1D6E1D1D7C
:100230006666666E66666E6627276E2727272727FF
:100240002F2F2F2F2F2F2F2F4A4A0D0D2121212104
:100250004A0D0D0D0D0D0D0D0D0D0D0D0D0D0D217D
:100260000D0DFFFF0D0D0D0D1D1D1D1D1D1D1D1D5A
:1002700066666E66666E66662727272727276E27BF
:100280002F2F2F2F2F2F2F2F2121212121212121EE
:1002900021212121212121210D0D0D0D210D0D0DDA
:1002A0000D0D0D0D0D0D0D0D1D1D1D1D1D1D1D1DFE
:1002B00066666E66666E66662727272727276E277F
:1002C0002F2F2F2F2F2F2F2F2121212121212121AE
:1002D0002121210D212121210D0D0D0D210D0D0DAE
:1002E0000D0D0D0D210D0D0DE4E4E4E4E4141414E2
:1002F0004A92921414146E14924A1414141414147E
:1003000092141414141414144A1D1D1D1D6E1D1D69
:100310006666666E66666E6627276E27272727271E
:100320002F2F2F2F2F2F2F2F1D1D6E1D6E1D1D4A9E
:10033000666E6666666E6666272727272727272745
:100340002F2F2F2F2F2F2F2F212121210D0D4A4A03
:10035000210D0D0D0D0D0D4A0D210D0D0D0D0D0D68
:100360000D0D0D0D0D0D0D0DE4E4E4E4E4E4E4E405
:100370004A92924A4A92924A924A4A92924A4A929D
:1003800092929292929292924A4A4A4A4A1414142F
:100390004A4A4A1414146E144A4A141414141414B5
:1003A0004A14141414141414E4E4E4E4E4E4E4E457
:1003B0004A92924A4A92924A924A4A92924A4A925D
:1003C00092929292929292921414141414141414FD
:1003D00014146E1414141414146E1414146E1414CF
:1003E000141414146E1414144A4A924A924A4A4A33
:1003F0004A4A923F92FDFFFD4A4A92923F4A4A4A38
:100400004A4A9292924A4A4A4A4A3F4A924A4A4A37
:100410004A4A3FFD3FFDFDFD4A4A3F3F924A4A4A54
:100420004A4A923F924A4A4A4A4A4A924A924A4A17
:10043000FDFDFD3FFD924A4A4A4A4A3F92924A4A8E
:100440004A4A4A3F3F924A4A4A4A4A924A924A4A4A
:10045000FDFDFF3FFD924A4A4A4A4A3F92924A4A6C
:100460004A4A4A9292924A4AE4E4E4E4E4E4E4E444
:100470004A92924A4A92924A924A4A92924A4A929C
:1004800092929292929292921414144A4A4A4A4A2E
:10049000146E1414144A4A4A14146E1414144A4A5A
:1004A000141414141414144A141414E4E4E4E4E4C6
:1004B000146E14141492924A14146E1414144A9262
:1004C00014141414141414921D1D6E1D6E1D1D4A57
:1004D000666E6666666E66662727272727272727A4
:1004E0002F2F2F2F2F2F2F2F2F13131313001313F3
:1004F0002F001313001313134A13130013131313B2
:100500004A4A1313130013132F2F2F2F2F2F2F2F80
:100510006627272727272727666666662727272730
:100520004A1D6666666666660013130013132F2F56
:1005300013130013131313131300131300131300D7
:1005400013131313131300132F2F2F2F2F2F2F2FAE
:10055000272727272727272727272727272727272B
:1005600066666666666666662F2F2F2F2F2F2F2FE3
:100570002F2F00132F2F2F2F1300131300131300EF
:1005800013131313131300132F2F2F2F2F2F2F2F6E
:1005900027272727272727272727272727272727EB
:1005A0006666666666666666002F2F2F2F2F2F13EE
:1005B0002F2F002F13131313130013130013130003
:1005C00013131313131300132F2F2F2F2F2F2F2F2E
:1005D00027272727272727272727272727272727AB
:1005E0006666666666666666130013130013131369
:1005F0000013131313130013131313131313134ABA
:100600001313131313134A4A2F2F2F2F2F2F2F2F6C
:10061000272727272727272727272727666666666E
:100620006666666666661D4A0D0DFFFF0D0D0D0DB3
:100630000D0DFFFFFF0D0D0D4A0D0DFFFFFFFFFF1D
:100640004A4A0D0D0D0D0D0D4A4A2F2F2F2F2F1336
:100650004A2F2F1313132F2F2F2F131300131300B1
:100660002F131313131300130D0D0D0D0D0D0D0D81
:100670000D0D0D0D0D0D0D0D0D0D0D0D0D0D0D0DAA
:100680000D0D0D0D0D0D0D0D131313130013130090
:1006900000131313131300132F2F131313002F2FF3
:1006A000132F2F2F2F2F2F2F0D0D0D0D0D0D0D0D86
:1006B0000D0D0D0D0D0D0D0D0D0D0D0D0D0D0D0D6A
:1006C0000D0D0D0D0D0D0D0D131313130013130050
:1006D000002F132F2F2F00132F2F2F2F2F2F2F2FC0
:1006E0002F2F2F2F002F2F2F0D0D0D0D0D0D0D0D59
:1006F0000D0D0D0D0D0D0D0D0D0D0D0D0D0D0D0D2A
:100700000D0D0D0D0D0D0D0D13131313001313000F
:100710000013132F2F2F00132F2F2F2F2F2F2F2F9B
:100720002F2F2F2F002F2F2F0D0D0D0D0D0D0D0D18
:100730000D0D0D0D0D0D0D0D0D0D0D0D0D0D0D4AAC
:100740000D0D0D0D0D0D4A4A1313131313134A4AC1
:10075000131313130013134A00132F2F2F13131304
:100760002F2F2F1313131313E4E4E4E4E4E4E4E47D
:100770004A92924A4A92924A924A4A92924A4A9299
:1007800092929292929292924A4A0D0D21212121A7
:100790004A0D0D0D0D0D0D0D0D0D0D0D0D0D0D2138
:1007A0000D0DFFFF0D0D0D0DE4E4E4E4E4E4E4E4DD
:1007B0004A92924A4A92924A924A4A92924A4A9259
:1007C0009292929292929292212121212121212191
:1007D00021212121212121210D0D0D0D210D0D0D95
:1007E0000D0D0D0D0D0D0D0DE4E4E4E4E4E4E4E481
:1007F0004A92924A4A92924A924A4A92924A4A9219
:100800009292929292929292212121212121212150
:100810002121210D212121210D0D0D0D210D0D0D68
:100820000D0D0D0D210D0D0D4A4A4A4A4A4A4A4AFC
:100830004A4A4A4A4A4A4A4A4A4A4A4A4A4A4A4A18
:100840004A4A4A4A4A4A4A4A4A4A4A4A4A4A4A4A08
:100850004A4A4A4A4A4A4A4A4A4A4A4A4A4A4A4AF8
:100860004A4A4A4A4A4A4A4AE4E4E4E4E4E4E4E418
:100870004A92924A4A92924A924A4A92924A4A9298
:100880009292929292929292212121210D0D4A4AA6
:10089000210D0D0D0D0D0D4A0D210D0D0D0D0D0D23
:1008A0000D0D0D0D0D0D0D0DE41D1D1D1D1D1D1D31
:1008B0004A92141414141414924A4A14141414145A
:1008C00092929292141414144A4A4A4A4A4A4A4A40
:1008D0004A4A4A4A4A4A4A4A4A4A4A4A4A4A4A4A78
:1008E0004A4A4A4A4A4A4A4A4A4A4A4A4A4A4A4A68
:1008F000FFFF4AFF4AFFFFFF4AFFFFFFFFFFFF4ADC
:100900004AF6B7B7B7B7F64A4AB7A3B7B7A3B74AD5
:100910004AB7B7B7B7B7B74A4AB7B75D5DB7B74ACF
:10092000FFFFB7B7B7B7FFFF4A4AEB66EB66EB4A84
:100930004AFD6666666666FD4AFD6600000066FD65
:100940004AFD6600660066FD4AFD6600000066FD21
:100950004AEB6600666666FD4AEB6600666666EB15
:100960004AEBEBEBEBEBEBEB4A4A4A4A4A4A4A4A80
:100970004A3F4A3F4A3F4A3F073F073F073F073F3B
:10098000073F3F3F073F073F073F073F073F073FFF
:100990004A3F4A3F4A3F3F3F4A1D4A1D4A1D1D1DCF
:1009A0004A4A4A4A4A4A4A4A4A4A4A4A4A4A4A4AA7
:1009B0004A3F3F4A4A3F3F4A073F073F073F073FFB
:1009C000073F3F07073F3F07073F073F073F073FF7
:1009D0004A3F4A3F4A3F4A3F4A1D4A1D4A1D4A1D57
:1009E0004A4A4A4A4A4A4A4A4A4A4A4A4A4A4A4A67
:1009F0004A3F4A3F4A4A3F4A073F4A3F07073F07A5
:100A0000073F3F3F07073F0707073F07070707075E
:100A10004A4A3F4A4A4A3F4A4A4A1D4A4A4A274A9C
:100A20004A4A4A4A4A4A4A4A2F13131313001313D5
:100A30002F001313001313134A131300131313136C
:100A40004A4A1313130013134A4A6E6E6E6E6E6E8B
:100A50006E6E6E6E6E6E6E6E4A4A6E6E1111111172
:100A60004A626262621173730013130013132F2F13
:100A70001313001313131313130013130013130092
:100A800013131313131300136E6E6E6E6E6E6E6E71
:100A90006E6E6E6E6E6E6E6E6E6E111111116E6EEA
:100AA00073626262626262622F2F2F2F2F2F2F2FAD
:100AB0002F2F00132F2F2F2F1300131300131300AA
:100AC00013131313131300136E6E6E6E6E6E6E6E31
:100AD0006E6E6E6E6E6E6E6E6E6E111111116E6EAA
:100AE0007362626262626262002F2F2F2F2F2F13B8
:100AF0002F2F002F131313131300131300131300BE
:100B000013131313131300136E6E6E6E6E6E6E6EF0
:100B10006E6E6E6E6E6E6E6E6E6E111111116E6E69
:100B20007362626262626262130013130013131332
:100B30000013131313130013131313131313134A74
:100B40001313131313134A4A6E6E6E6E6E6E4A4A77
:100B50006E6E6E6E6E6E6E6E626E116E6E6E4A4A66
:100B60001111111162626262E4E4E4E4E4E4E4E499
:100B70004A92924A4A92924A924A4A92924A4A9295
:100B800092929292929292924A4A2F2F2F2F2F1343
:100B90004A2F2F1313132F2F2F2F1313001313006C
:100BA0002F13131313130013E4E4E4E4E4E4E4E484
:100BB0004A92924A4A92924A924A4A92924A4A9255
:100BC0009292929292929292131313130013130023
:100BD00000131313131300132F2F131313002F2FAE
:100BE000132F2F2F2F2F2F2FE4E4E4E4E4E4E4E489
:100BF0004A92924A4A92924A924A4A92924A4A9215
:100C000092929292929292921313131300131300E2
:100C1000002F132F2F2F00132F2F2F2F2F2F2F2F7A
:100C20002F2F2F2F002F2F2FE4E4E4E4E4E4E4E45B
:100C30004A92924A4A92924A924A4A92924A4A92D4
:100C400092929292929292921313131300131300A2
:100C50000013132F2F2F00132F2F2F2F2F2F2F2F56
:100C60002F2F2F2F002F2F2FE4E4E4E4E4E4E4E41B
:100C70004A92924A4A92924A924A4A92924A4A9294
:100C800092929292929292921313131313134A4ACE
:100C9000131313130013134A00132F2F2F131313BF
:100CA0002F2F2F13131313131D1D1D1D1D1D1DE4A9
:100CB000141414141414924A14141414144A4A9256
:100CC00014141414929292924A4A4A4A4A4A4A4A3C
:100CD0004A4A4A4A4A4A4A4A4A4A4A4A4A4A4A4A74
:100CE0004A4A4A4A4A4A4A4AFDFFFFFDFDFD4A4A2E
:100CF000FD4A4A4A4AFDFD4AFDFDFDFFFFFDFDFD9F
:100D0000FD4A4A4A4AFDFFFFFDFDFFFFFDFDB6B665
:100D1000FD4A4A4A4AB6B64AB6B6B6B6B6B64A4A20
:100D20004A4A4A4A4A4A4A4A4A4A4A4A4A4A4A4A23
:100D30004A4A4A4A4A4A4A4A4A4A4A141414144AEB
:100D400014141D1D141414144A4A4A1D1D1D1D4A55
:100D50004A4A4A4A4A4A4A4A4A4A4A4A4A4A4A4AF3
:100D60004A4A4A4A4A4A4A4A4A4A4A4A4A4A4A4AE3
:100D70004A077F7F4A7F4A7F4A7F4A7F4A7F4A07E6
:100D80004A7F4A074A7F4A7F4A074A074A074A0773
:100D90004A0707074A0707074A0C0C0C4A0C0C0CB9
:100DA0004A4A4A4A4A4A4A4A4A4A4A4A4A4A4A4AA3
:100DB0004A7F7F7F4A074A7F4A7F4A7F4A7F4A7F2E
:100DC0004A074A4A4A7F7F074A074A074A074A07AB
:100DD0004A0707074A074A074A0C0C0C4A0C4A0CF8
:100DE0004A4A4A4A4A4A4A4A4A4A4A4A4A4A4A4A63
:100DF0004A4A7F4A7F4A074A4A4A7F4A074A7F4A05
:100E00004A4A7F4A7F4A7F4A4A4A4A4A4A4A4A4AA3
:100E10004A4A074A074A074A4A4A0C4A0C4A0C4AB5
:100E20004A4A4A4A4A4A4A4A7373111162626262E2
:100E300011737373737373734A1111111173111159
:100E40004A4A4A11111111112F2F2F2F2F2F2F2FF7
:100E500066272727272727276666666627272727E7
:100E60004A1D666666666666626273737311111167
:100E700073737311737373737373111111111111F0
:100E8000111111114A4A4A112F2F2F2F2F2F2F2FB7
:100E900027272727272727272727272727272727E2
:100EA00066666666666666664A4A924A924A4A4A32
:100EB0004A4A923F92FD3FFD4A4A92923F4A4A4A2D
:100EC0004A4A9292924A4A4A4A4A3F4A924A4A4A6D
:100ED0004A4A3FFD3F3FFD3F4A4A3F3F924A4A4A06
:100EE0004A4A923F924A4A4A4A4A4A924A924A4A4D
:100EF000FD3FFD3FFD924A4A4A4A4A3F92924A4A82
:100F00004A4A4A3F3F924A4A4A4A4A924A924A4A7F
:100F1000FD3FFF3FFD924A4A4A4A4A3F92924A4A5F
:100F20004A4A4A9292924A4A1111117373734A7350
:100F3000731111734A7373737373737311111111F6
:100F400011111111114A4A4A2F2F2F2F2F2F2F2FF6
:100F50002727272727272727272727276666666625
:100F60006666666666661D4AE4E4E4E4E4E4E4E496
:100F70004A92924A4A92924A924A4A92924A4A9291
:100F800092929292929292924A4A6E6E6E6E6E6EA9
:100F90006E6E6E6E6E6E6E6E4A4A6E6E111111112D
:100FA0004A62626262117373E4E4E4E4E4E4E4E458
:100FB0004A92924A4A92924A924A4A92924A4A9251
:100FC00092929292929292926E6E6E6E6E6E6E6E21
:100FD0006E6E6E6E6E6E6E6E6E6E111111116E6EA5
:100FE0007362626262626262E4E4E4E4E4E4E4E4C0
:100FF0004A92924A4A92924A924A4A92924A4A9211
:1010000092929292929292926E6E6E6E6E6E4A4A28
:101010006E6E6E6E6E6E6E6E4A6E116E6E6E4A4AB9
:1010200011111111626262624ADEDE944A4ADEDE0A
:10103000DE944ADE94DE944ADE944A4A4ADE944ABA
:101040004ADEDE944ADE944A4A4A4AFD94FD944AB6
:10105000FD944AFD94FD944A4AFDFD944A4AFDFDE3
:101060004A4A4A4A4A4A4A4A944A4ADEDE944ADE90
:10107000DE94DE944ADE94DE4A4ADE944ADE94DE52
:101080004A4ADE944ADE94DE4A4AFD944AFD94FDC3
:10109000FD94FD944AFD94FD944A4AFDFD944AFD59
:1010A0004A4A4A4A4A4A4A4ADEDE944ADEDEDE9428
:1010B000944ADE94DE944A4A944ADE94DE944A4A84
:1010C000DEDE944ADEDEDE94944AFD94FD944A4AC4
:1010D000944AFD94FD944A4A944AFD94FDFDFD9482
:1010E0004A4A4A4A4A4A4A4AB7B74AF6F6B7B7B7E7
:1010F000FFFF4AB7B7B7A3B7FFFF4AB7B7B7B7B74E
:10110000FFFF4A4AB7B7B75D4AFFFFFFFFFFB7B718
:101110004AFFFFFFFFFFFFFF4A4AFFFFFFFF00FFFD
:101120004A4AFFFFFFFFFFFFB7B7B7F6F64AB7B768
:10113000B7A3B7B7B74AFFFFB7B7B7B7B74AFFFF0D
:101140005DB7B7B74A4AFFFFB7B7FFFFFFFFFF4AD8
:10115000FFFFFFFFFFFFFF4AFF00FFFFFFFF4A4ABD
:10116000FFFFFFFFFFFF4A4A4A4AB01A4A4AB01A35
:101170004A4AB01A4AB01A4A4A4AB01AB01A4A4AF7
:101180004A4AB0B01A4A4A4A4A4AB01AB01A4A4AB7
:101190004A4A3F1A4A3F1A4A4A4A3F1A4A4A3F1A9B
:1011A0004A4A4A4A4A4A4A4A4A4A4A4A4A4A4A4A9F
:1011B000B01A4A4A4A4A4A4A4A4AB0B0B01A4A4A57
:1011C000B01AB01A4AB01AB0B01AB01A4AB01AB06F
:1011D0003F1A3F1A4A3F1A3F3F1A3F1A4A3F1A4ADC
:1011E0004A4A4A4A4A4A4A4A4A4A4A4A4A4A4A4A5F
:1011F0004A4A4A4A4A4A4A4AB0B01A4A4A4A4A4AB3
:101200001A4AB01A4A4A4A4A1A4AB01A4A4A4A4A32
:101210003F3F3F1A4A4A4A4A4A4A3F1A4A4A4A4ABA
:101220003F3F1A4A4A4A4A4A4A4A4A4A4A4AFD4AB1
:101230004A4A4A4A4AFDFD4A4A4A4A4A4ADCFD4A63
:101240004A4A4A4A4A4AFD4A4A4A4A4A4A4AFD4A98
:101250004A4A4A4A4AFDFDFD4A4A4A4A4ADCDCDC1F
:101260004A4A4A4A4A4A4A4A4A4A4A4A4A4AFD4A2B
:101270004A4A4A4A4AFDDCFD4A4A4A4A4ADC4AFD91
:101280004A4A4A4A4A4AFD4A4A4A4A4A4AFD4A4A58
:101290004A4A4A4A4AFDFDFD4A4A4A4A4ADCDCDCDF
:1012A0004A4A4A4A4A4A4A4A4AFDFDFD4A4AFD4AD2
:1012B0004AFD4A4A4AFDDCFD4AFDFD4A4AFD4AFD17
:1012C0004ADCDCFD4AFD4AFD4A4A4AFD4AFD4AFD28
:1012D0004AFDFD4A4ADCFDDC4ADCDC4A4A4ADC4A7B
:1012E0004A4A4A4A4A4A4A4A4A4AFD4A4A4AFD4AF8
:1012F0004AFDDCFD4AFDDCFD4AFD4AFD4AFD4AFD92
:101300004AFD4AFD4AFD4AFD4AFD4AFD4AFD4AFDA5
:101310004ADCFDDC4ADCFDDC4A4ADC4A4A4ADC4A5B
:101320004A4A4A4A4A4A4A4A4A4AFD4A4A4A4A4A6A
:101330004AFDDCFD4A4A4A4A4AFD4AFD4A4A4A4AAF
:101340004AFD4AFD4A4A4A4A4AFD4AFD4A4A4A4A31
:101350004ADCFDDC4A4A4A4A4A4ADC4A4A4A4A4A84
:101360004A4A4A4A4A4A4A4AE4E4E4E4E4E4E4E40D
:101370004A92924A4A92924A924A4A92924A4A928D
:1013800092929292929292922F2F2F2F2F2F2F2F55
:1013900066272727272727276666666627272727A2
:1013A0004A1D666666666666E4E4E4E4E4E4E4E452
:1013B0004A92924A4A92924A924A4A92924A4A924D
:1013C00092929292929292922F2F2F2F2F2F2F2F15
:1013D000272727272727272727272727272727279D
:1013E0006666666666666666E4E4E4E4E4E4E4E4AD
:1013F0004A92924A4A92924A924A4A92924A4A920D
:1014000092929292929292922F2F2F2F2F2F2F2FD4
:101410002727272727272727272727276666666660
:101420006666666666661D4ADEDEDE4A4A4ADEDEBD
:10143000DEDCDCDE4ADEDCDCDE4A4ADE4ADE4A4A4C
:10144000DEDEDEDC4ADE4A4AFD4A4AFD4AFD4A4A01
:10145000FD4A4AFD4AFD4A4AFDFDFDDC4ADCFDFD30
:10146000DCDCDC4A4A4ADCDC4A4ADE4A4ADE4ADE46
:10147000DE4ADEDE4ADE4ADEDE4ADEDE4ADE4ADE04
:10148000DE4ADEDCDEDE4ADEFD4AFD4AFDFD4AFDC7
:10149000FD4AFD4ADCFD4AFDDC4AFD4A4AFD4ADCC4
:1014A0004A4ADC4A4ADC4A4A4A4ADE4A4ADEDE4ABC
:1014B0004A4ADE4ADEDCDCDE4A4ADE4ADE4A4A4A84
:1014C0004A4ADE4A4ADEDE4A4A4AFD4A4ADCDCFD36
:1014D0004A4AFD4AFD4A4AFDFDFDDC4ADCFDFDDCD1
:1014E000DCDC4A4A4ADCDCDC4A4A4A4A4A14141424
:1014F0004A4A4A1414146E144A4A14141414141444
:101500004A141414141414144A1D1D1D1D6E1D1D9F
:101510006666666E66666E6627276E27272727270C
:101520002F2F2F2F2F2F2F2F1414141414141414A3
:1015300014146E1414141414146E1414146E14145D
:10154000141414146E1414141D1D1D1D1D1D1D1DB9
:1015500066666E66666E66662727272727276E27CC
:101560002F2F2F2F2F2F2F2FE4E4E4E4E4E4E4E4E3
:101570004A92924A4A92924A924A4A92924A4A928B
:1015800092929292929292924A4A4A4A4A4A4A4A7B
:101590004A4A4A4A4A4A4A4A4A4A4A4A4A4A4A4AAB
:1015A0004A4A4A4A4A4A4A4AFDFFFD4A4A4A4A4A80
:1015B0004A92FDFF4A4A4A4A924A4AFD4A4A4A4AE0
:1015C000929292FD4A4A4A4A4A4A4A4A4A4A4A4AF0
:1015D0004A4A4A4A4A4A4A4A4A4A4A4A4A4A4A4A6B
:1015E0004A4A4A4A4A4A4A4A1414144A4A4A4A4AFD
:1015F000146E1414144A4A4A14146E1414144A4AE9
:10160000141414141414144A1D1D6E1D6E1D1D4A4D
:10161000666E6666666E6666272727272727272752
:101620002F2F2F2F2F2F2F2FB01A4A4A4A4A4A1AEC
:10163000B01A4A4A4A4A4A1AB01A4A4A4A4A4A1AFE
:10164000B01A4A4A4A4A4A1AB01A4A4A4A4A4A1AEE
:10165000B01A1A4A4A4A1A1AB01A1A4A4A4A1A1A9E
:10166000B01A1A4A4A4A1A1AB01A4A4A4A4A1AB0C8
:10167000B01A4A4A4A4A1AB0B01A4A4A4A4A1AB0F2
:10168000B01A4A4A4A4A1AB0B01A4A4A4A4A1AB0E2
:10169000B01A1A4A4A4A1AB0B01A1A4A4A4A1AB032
:1016A000B01A1A4A4A4A1AB04A4AB0B0B0B0B01A90
:1016B0004A4A4A4AB01A4A4A4A4A4A4AB01A4A4A1E
:1016C0004A4A4A4AB01A4A4A4A4A4A4AB01A4A4A0E
:1016D0004A4A4A4A3F1A4A4A4A4A4A4A3F1A4A4AE0
:1016E0004A4A4A4A4A4A4A4A4A4A4A4A4A4A4A4A5A
:1016F000B01A4A4A4A4A4A4A4A4AB0B0B01AB0B046
:10170000B01AB01A4AB01A4AB01AB01A4AB01A4AF5
:101710003F1A3F1A4A3F1A4A3F1A3F1A4A3F1A4A8B
:101720004A4A4A4A4A4A4A4A4A4A4A4A4A4A4A4A19
:101730004A4A4A4A4A4A4A4A1A4A4AB0B01A4A4A9D
:10174000B01AB01A4AB01A4AB01AB0B0B01A4A4A1F
:101750003F1A3F1A4A4A4A4A3F1A4A3F3F3F1A4AEB
:101760004A4A4A4A4A4A4A4A4A4A4A4A4A4A4A4AD9
:101770004A4A4A4A4A4A4A4A4A4A4A4A4A4A4A4AC9
:101780004A4A4A4A4A4A4A4A4A4A2F2F2F2F2F1377
:101790004A2F2F1313132F2F2F2F13130013130060
:1017A0002F131313131300134A4A4A4A4A4A4A4A48
:1017B0004A4A4A4A4A4A4A4A4A4A4A4A4A4A4A4A89
:1017C0004A4A4A4A4A4A4A4A131313130013130057
:1017D00000131313131300132F2F131313002F2FA2
:1017E000132F2F2F2F2F2F2F4A4A4A4A4A4A4A4A4D
:1017F0004A4A4A4A4A4A4A4A4A4A4A4A4A4A4A4A49
:101800004A4A4A4A4A4A4A4A131313130013130016
:10181000002F132F2F2F00132F2F2F2F2F2F2F2F6E
:101820002F2F2F2F002F2F2F4A4A4A4A4A4A4A4A1F
:101830004A4A4A4A4A4A4A4A4A4A4A4A4A4A4A4A08
:101840004A4A4A4A4A4A4A4A1313131300131300D6
:101850000013132F2F2F00132F2F2F2F2F2F2F2F4A
:101860002F2F2F2F002F2F2F4A4A4A4A4A4A4A4ADF
:101870004A4A4A4A4A4A4A4A4A4A4A4A4A4A4A4AC8
:101880004A4A4A4A4A4A4A4A1313131313134A4A02
:10189000131313130013134A00132F2F2F131313B3
:1018A0002F2F2F13131313134A66661D1D1D1D4A78
:1018B00066661D1D1D1D1D1D4A570D0D0D0D0D4A82
:1018C0004A6513131313134A2F626E73116E626EFF
:1018D000661D1D1D1D1D1D1D4A661D1D1D1D1D4A4C
:1018E0004A4A4A4A4A4A4A4A4A4A0D0D2121212176
:1018F0004A0D0D0D0D0D0D0D0D0D0D0D0D0D0D21C7
:101900000D0DFFFF0D0D0D0D0D0DFFFF0D0D0D0D3F
:101910000D0DFFFFFF0D0D0D4A0D0DFFFFFFFFFF2A
:101920004A4A0D0D0D0D0D0D2121212121212121CD
:1019300021212121212121210D0D0D0D210D0D0D23
:101940000D0D0D0D0D0D0D0D0D0D0D0D0D0D0D0DC7
:101950000D0D0D0D0D0D0D0D0D0D0D0D0D0D0D0DB7
:101960000D0D0D0D0D0D0D0D212121212121212107
:101970002121210D212121210D0D0D0D210D0D0DF7
:101980000D0D0D0D210D0D0D0D0D0D0D0D0D0D0D73
:101990000D0D0D0D0D0D0D0D0D0D0D0D0D0D0D0D77
:1019A0000D0D0D0D0D0D0D0D4A4A4A4A4AFDFFFD64
:1019B0004A4A4A4AFFFD924A4A4A4A4AFD4A4A92DC
:1019C0004A4A4A4AFD9292924A4A4A4A4A4A4A4AEC
:1019D0004A4A4A4A4A4A4A4A4A4A4A4A4A4A4A4A67
:1019E0004A4A4A4A4A4A4A4A212121210D0D4A4A75
:1019F000210D0D0D0D0D0D4A0D210D0D0D0D0D0DB2
:101A00000D0D0D0D0D0D0D0D0D0D0D0D0D0D0D0D06
:101A10000D0D0D0D0D0D0D0D0D0D0D0D0D0D0D4AB9
:101A20000D0D0D0D0D0D4A4AB0B01A4A4A4A1AB0B2
:101A3000B0B01A4A4A4A1AB04A3F1A4A4A1A1AB069
:101A40004A3F1A1A4A1A1AA94A3FB01A1A1AB0A9D2
:101A50004A3F3FB01AB0A94A4A4A3F3F3F3F4A4A2D
:101A60004A4A4A3F3FA94A4AB0B01A4A4A4A1AB0BB
:101A7000B0B01A4A4A1A1AB04A3F1A4A4A1A1AB059
:101A80004A3F1A1A4A1AB0B04A3FB01A1A1AB0B0EE
:101A90004A3F3FB01AB0B0A94A4A3F3F3F3F3F4A92
:101AA0004A4A4A3F3F3FA94A4AB04A4AB04A4A4A8C
:101AB0004A4A4A4A4A4A4A4A4AB01A4AB01AB04AB4
:101AC0004AB01A4AB01AB0B04AB01A4AB01AB01A9C
:101AD0004A3F1A1A3F1A3F1A4A4A3F3F1A4A3F1AC8
:101AE0004A4A4A4A4A4A4A4A4A4A4A4A4A4A4A4A56
:101AF0004A4A4A4A4A4A4A4AB01AB0B01A4A4AB00E
:101B00001AB01A4AB01AB01A4AB01A4AB01AB0B08B
:101B10004A3F3F3F3F1A3F1A4A4A4A4A3F1A1A3F32
:101B20004A4A3F3F1A4A4A1A4A4A4A4A4A4A4A4A8B
:101B30004A4A4A4A4A4A4A4AB01A4AB04AB01A4A33
:101B40004AB01AB0B01A4A4AB01A4AB01A4A4A4AB7
:101B50004A4A4A3F1A4A4A4A3F3F1A3F1A4A4A4AA1
:101B60001A1A1A4A4A4A4A4A2F1313131300131314
:101B70002F001313001313134A131300131313131B
:101B80004A4A1313130013134A4A4A4A4A4A4A4A12
:101B90004A4A4A4A4A4A4A4A4A4A4A4A4A4A4A4AA5
:101BA0004A4A4A4A4A4A4A4A0013130013132F2F3B
:101BB0001313001313131313130013130013130041
:101BC00013131313131300134A4A4A4A4A4A4A4A40
:101BD0004A4A4A4A4A4A4A4A4A4A4A4A4A4A4A4A65
:101BE0004A4A4A4A4A4A4A4A2F2F2F2F2F2F2F2F2D
:101BF0002F2F00132F2F2F2F130013130013130059
:101C000013131313131300134A4A4A4A4A4A4A4AFF
:101C10004A4A4A4A4A4A4A4A4A4A4A4A4A4A4A4A24
:101C20004A4A4A4A4A4A4A4A002F2F2F2F2F2F1337
:101C30002F2F002F1313131313001313001313006C
:101C400013131313131300134A4A4A4A4A4A4A4ABF
:101C50004A4A4A4A4A4A4A4A4A4A4A4A4A4A4A4AE4
:101C60004A4A4A4A4A4A4A4A1300131300131313B2
:101C70000013131313130013131313131313134A23
:101C80001313131313134A4A4A4A4A4A4A4A4A4AFE
:101C90004A4A4A4A4A4A4A4A4A4A4A4A4A4A4A4AA4
:101CA0004A4A4A4A4A4A4A4A4A4A4A4A4A4A4A4A94
:101CB0004A66661D1D1D1D4A66661D1D1D1D1D1DD6
:101CC0004A6513131313134A2F626E73116E626EFB
:101CD000661D1D1D1D1D1D1D4A661D1D1D1D1D4A48
:101CE0004A4A4A4A4A4A4A4A4A4A2F2F2F2F2F1312
:101CF0004A2F2F1313132F2F2F2F131300131300FB
:101D00002F131313131300132F1313131300131391
:101D10002F001313001313134A1313001313131379
:101D20004A4A13131300131313131313001313004E
:101D300000131313131300132F2F131313002F2F3C
:101D4000132F2F2F2F2F2F2F0013130013132F2F8D
:101D5000131300131313131313001313001313009F
:101D6000131313131313001313131313001313007C
:101D7000002F132F2F2F00132F2F2F2F2F2F2F2F09
:101D80002F2F2F2F002F2F2F2F2F2F2F2F2F2F2F92
:101D90002F2F00132FE42F2F130013130013130002
:101DA000131313131313001313131313001313003C
:101DB0000013132F2F2F00132F2F2F2F2F2F2F2FE5
:101DC0002F2F2F2F002F2F2F002F2F2F2F2F2F139D
:101DD0002F2F002F131313131300131300131300CB
:101DE00013131313131300131313131313134A4A68
:101DF000131313130013134A00132F2F2F1313134E
:101E00002F2F2F1313131313130013130013131374
:101E10000013131313130013131313131313134A81
:101E20001313131313134A4A4A4A4A4A4A4A4A4A5C
:101E30004A4A4A4A4A4A4A4A4A4A4A4A4A4A4A4A02
:101E40004A4A4A4A4A4A4A4A4A4A4A4A4A14141494
:101E50004A4A4A1414146E144A4A141414141414DA
:101E60004A141414141414144A4A4A4A4A4A4A4A4C
:101E70004A4A4A4A4A4A4A4A4A4A4A4A4A4A4A4AC2
:101E80004A4A4A4A4A4A4A4A141414141414141462
:101E900014146E1414141414146E1414146E1414F4
:101EA000141414146E1414144A4A4A4A4A4A4A4AE8
:101EB0004A4A4A4A4A4A4A4A4A4A4A4A4A4A4A4A82
:101EC0004A4A4A4A4A4A4A064A4A4A711919191953
:101ED0004A4A4A4A711919194A4A4A4A711919193A
:101EE0004A4A4A4A7119B0194AFFFF4A4A4A4A4ABD
:101EF00006064A4A4A4A4A4AFFFF4A4A4A4A4A4A60
:101F0000064A4A4A4A4A4A4A19191919194A4A4A6A
:101F1000191919194A4A4A4A191919194A4A4A4AA9
:101F2000B019B0194A4A4A4A4A4A4A4A4A4A4A4AA7
:101F30004A4A4A4A4A4A4A4A4A4A4A4A4A4A4A4A01
:101F40004A4A4A4A4A4A4A4A1414144A4A4A4A4A93
:101F5000146E1414144A4A4A14146E1414144A4A7F
:101F6000141414141414144A4A4A4A4A4A4A4A4A4B
:101F70004A4A4A4A4A4A4A4A4A4A4A4A4A4A4A4AC1
:101F80004A4A4A4A4A4A4A4A4A4A6E6E6E6E6E6ED9
:101F90006E6E6E6E6E6E6E6E4A4A6E6E111111111D
:101FA0004A626262621173734A4A4A4A4A4A4A4A18
:101FB0004A4A4A4A4A4A4A4A4A4A4A4A4A4A4A4A81
:101FC0004A4A4A4A4A4A4A4A6E6E6E6E6E6E6E6E51
:101FD0006E6E6E6E6E6E6E6E6E6E111111116E6E95
:101FE00073626262626262624A4A4A4A4A4A4A2F9B
:101FF0004A4A4A4A4A774A2F4A4A4A2F2F774A2F53
:102000004A4A772F2F772F2F4A0D772F2F772F2F91
:102010004A0D770D2F770D2F4A160D0D0D0D0D0D55
:102020004A160D0D0D0D0D0D4A2F4A4A4A4A4A4ACD
:10203000772F4A4A4A2F4A4A772F4A2F4A2F4A4A2D
:10204000772F772F772F774A772F772F772F770D67
:10205000770D0D2F770D770D0D0D0D0D0D0D770DE6
:102060000D0D0D0D0D0D0D0D4A4A4A4A4A4A4A4AB8
:102070004A4A4A4A4A4A4A4A4A4A4A4A4A4A4A4AC0
:102080004A4A4A4A4A4A4A4A6E6E6E6E6E6E4A4AD8
:102090006E6E6E6E6E6E6E6E626E116E6E6E4A4A11
:1020A00011111111626262624A4A4A4A4A4A4A4A14
:1020B0004A66661D1D1D1D4A66661D1D1D1D1D1DD2
:1020C0004A570D0D0D0D0D4A4A6513131313134A8C
:1020D000661D1D1D1D1D1D1D4A661D1D1D1D1D4A44
:1020E0004A4A4A4A4A4A4A4A4A4A6E6E6E6E6E6E78
:1020F0006E6E6E6E6E6E6E6E4A4A6E6E11111111BC
:102100004A62626262117373737311116262626276
:1021100011737373737373734A1111111173111166
:102120004A4A4A11111111116E6E6E6E6E6E6E6E0C
:102130006E6E6E6E6E6E6E6E6E6E111111116E6E33
:10214000736262626262626262627373731111111E
:1021500073737311737373737373111111111111FD
:10216000111111114A4A4A11E4E4E48587858587F3
:102170004A92858785858785924A87858587858563
:1021800092929292924A4A4A4A4A924A924A4A4AB7
:102190004A4A92FD92FDFFFD4A4A9292924A4A4A69
:1021A0004A4A9292924A4A4A8585878585E4E4E4C0
:1021B000858785858785924A8785858785854A9223
:1021C0004A4A4A92929292924A4A4A924A924A4A77
:1021D000FDFDFD92FD924A4A4A4A4A9292924A4A2B
:1021E0004A4A4A9292924A4A6E6E6E6E6E6E4A4A9F
:1021F0006E6E6E6E6E6E6E6E4A6E116E6E6E4A4AC8
:1022000011111111626262621111117373734A73B9
:10221000731111734A737373737373731111111103
:1022200011111111114A4A4A4A1D1D1D1D6E1D1D15
:102230006666666E66666E6627276E2727272727DF
:102240002F2F2F2F2F2F2F2F4A4A4A4A4A4A4A4AC6
:102250004A4A4A4A4A4A4A4A4A4A4A4A4A4A4A4ADE
:102260004A4A4A4A4A4A4A4A1D1D1D1D1D1D1D1D36
:1022700066666E66666E66662727272727276E279F
:102280002F2F2F2F2F2F2F2F4A4A4A4A4A4A4A4A86
:102290004A4A4A4A4A4A4A4A4A4A4A4A4A4A4A4A9E
:1022A0004A4A4A4A4A4A4A4A4A4A4A4A7119B01963
:1022B0004A4A4A4A7119B0194A4A4A4A711919B028
:1022C0004A4A4A4A711919194A4A4A4A4A71191915
:1022D0004A4A4A4A4A7119194A4A4A4A4A711919D4
:1022E0004A4A4A4A4A711919B019B0194A4A4A4A1F
:1022F000B019B0194A4A4A4A19B019194A4A4A4A01
:10230000191919194A4A4A4A1919194A4A4A4A4A84
:102310001919194A4A4A4A4A1919194A4A4A4A4A43
:102320001919194A4A4A4A4A1D1D6E1D6E1D1D4A39
:10233000666E6666666E6666272727272727272725
:102340002F2F2F2F2F2F2F2F4A4A4A4A4A4A4A4AC5
:102350004A4A4A4A4A4A4A4A4A4A4A4A4A4A4A4ADD
:102360004A4A4A4A4A4A4A4A73731111626262628D
:1023700011737373737373734A1111111173111104
:102380004A4A4A11111111114A4A4A4A4A4A4A4ACA
:102390004A4A4A4A4A4A4A4A4A4A4A4A4A4A4A4A9D
:1023A0004A4A4A4A4A4A4A4A62627373731111118D
:1023B000737373117373737373731111111111119B
:1023C000111111114A4A4A114A4A4A4A4A4A4A4A8A
:1023D0004A4A4A4A4A4A4A4A4A4A4A4A4A4A4A4A5D
:1023E0004A4A4A4A4A4A4A4A4A4A0D0D0DFF0DFFD7
:1023F0004A4A0D0D0D3F0D3F4A4A0D0D0D3F3F3F1F
:102400004A4A160D0D2F772F4A4A160D0D772F7752
:102410004A4A160D0D3F3F3F4A4A160D0D0D0D0D50
:102420004A4A4A160D0D0D0D0DFF0DFF0D0D0D4AFB
:102430000D3F0D3F0D0D0D4A3F3F3F3F0D0D0D4A26
:10244000772F772F0D0D0D4A2F772F770D0D0D4A12
:102450003F3F3F3F0D0D0D4A0D0D0D0D0D0D0D4A6A
:102460000D0D0D0D0D0D4A4A1111117373734A7341
:10247000731111734A7373737373737311111111A1
:1024800011111111114A4A4A4A4A4A4A4A4A4A4AC9
:102490004A4A4A4A4A4A4A4A4A4A4A4A4A4A4A4A9C
:1024A0004A4A4A4A4A4A4A4A4A4A4A4A4A4A4A4A8C
:1024B0004A4A4A4A4A4A4A4A4A66661D1D1D1D4AF8
:1024C00066661D1D1D1D1D1D4A6513131313134A3A
:1024D000661D1D1D1D1D1D1D4A661D1D1D1D1D4A40
:1024E0004A4A4A4A4A4A4A4A2F2F2F2F2F2F2F2F24
:1024F0006627272727272727666666662727272731
:102500004A1D6666666666664A1D1D1D1D1D1D1DEB
:102510004A4A1414141414144A4A4A14141414146D
:102520004A4A4A4A141414142F2F2F2F2F2F2F2FBB
:10253000272727272727272727272727272727272B
:1025400066666666666666661D1D1D1D1D1D1D1D73
:10255000141414141414141414141414141414143B
:1025600014141414141414144A4A924A924A4A4AEB
:102570004A4A92FD92FDFDFD4A4A9292924A4A4A87
:102580004A4A9292924A4A4A4A4A924A924A4A4A43
:102590004A4A92FD92FDFDFD4A4A9292924A4A4A67
:1025A0004A4A9292924A4A4A4A4A4A924A924A4A23
:1025B000FDFDFF92FD924A4A4A4A4A9292924A4A45
:1025C0004A4A4A9292924A4A4A4A4A924A924A4A03
:1025D000FFFDFD92FD924A4A4A4A4A9292924A4A25
:1025E0004A4A4A9292924A4A2F2F2F2F2F2F2F2F4B
:1025F000272727272727272727272727666666666F
:102600006666666666661D4A1D1D1D1D1D1D1D4AEA
:102610001414141414144A4A14141414144A4A4A6C
:10262000141414144A4A4A4A4A4A4A4A4A4A4A4AE2
:102630004A4A4A4A4A4A4A4A4A4A4A4A4A4A4A4AFA
:102640004A4A4A4A4A4A4A4A4A4A0D0D2121212108
:102650004A0D0D0D0D0D0D0D0D0D0D0D0D0D0D2159
:102660000D0DFFFF0D0D0D0D4A4A4A4A4A4A4A4ACE
:102670004A4A4A4A4A4A4A4A4A4A4A4A4A4A4A4ABA
:102680004A4A4A4A4A4A4A4A2121212121212121F2
:1026900021212121212121210D0D0D0D210D0D0DB6
:1026A0000D0D0D0D0D0D0D0D4A4A4A4A4A4A4A4A72
:1026B0004A4A4A4A4A4A4A4A4A4A4A4A4A4A4A4A7A
:1026C0004A4A4A4A4A4A4A4A2121212121212121B2
:1026D0002121210D212121210D0D0D0D210D0D0D8A
:1026E0000D0D0D0D210D0D0D4AFFFFFFFFFFFFFF2B
:1026F0004A4A4A4A4A4A4A4A4AF9F9F94AF9F9F920
:102700004A62F9624AF962F94A4AF94A4AF94AF9C7
:102710004A4AF94A4AF94AF94A4AF94A4AF9F9F950
:102720004A4A624A4A6262624A4A4A4A4A4A4A4AA9
:102730004A4A4A4A4A4A4A4A4A4A4A4A4A4A4A4AF9
:102740004A4A4A4A4A4A4A4A212121210D0D4A4A07
:10275000210D0D0D0D0D0D4A0D210D0D0D0D0D0D44
:102760000D0D0D0D0D0D0D0D4A4A4A4A4A4A4A4AB1
:102770004A4A4A4A4A4A4A4A4A4A4A4A4A4A4A4AB9
:102780004A4A4A4A4A4A4A4A2F2F2F2F2F2F2F2F81
:10279000662727272727272766666666272727278E
:1027A0004A1D6666666666664A4A4A4A4A4A4A4A0E
:1027B0004A4A4A4A4A4A4A4A4A4A4A4A4A4A4A4A79
:1027C0004A4A4A4A4A4A4A4A2F2F2F2F2F2F2F2F41
:1027D0002727272727272727272727272727272789
:1027E00066666666666666664A4A4A4A4A4A4A4A69
:1027F0004AFF4A4A4AFF4A4A3F3F3F4A3F3F3F4A11
:102800003F773F4A3F773F4A4A775B4A4A775B4A7E
:102810004A775B4A4A775B4A4A3F5B5B4A3F5B5B6E
:10282000773F3F5B773F3F5B4A4A4A4A4A4A4A4AB8
:102830004AFF4A4A4AFF4A4A3F3F3F4A3F3F3F4AD0
:102840003F773F4A3F773F4A4A775B4A4A775B4A3E
:102850004A775B4A4A775B4A4A3F5B5B4A3F5B5B2E
:10286000773F3F5B773F3F5B4A4A4A4A4A4A4A4A78
:102870004A4A4A4A4A4A4A4A4A4A4A4A4A4A4A4AB8
:102880004A4A4A4A4A4A4A4A2F2F2F2F2F2F2F2F80
:1028900027272727272727272727272766666666CC
:1028A0006666666666661D4A4A4A2F4A774A774ACE
:1028B0004A772F2F777777774A0D0D0D0D0D0D0D78
:1028C0004A0D0D770D770D0D4A0D0D3F3F3F0D0D54
:1028D0004A160D2F2F2F0D0D4A160D0D0D0D0D0D36
:1028E0004A4A4A4A4A4A4A4A4A4A848487858587E4
:1028F0004A848487858587854A84878585878585F9
:102900004A4A9292924A4A4A4A4A924A924A4A4ABF
:102910004A4A92FD92FDFFFD4A4A9292924A4A4AE1
:102920004A4A9292924A4A4A8585878584844A4ACD
:10293000858785858784844A878585878585844AB8
:102940004A4A4A9292924A4A4A4A4A924A924A4A7F
:10295000FDFDFD92FD924A4A4A4A4A9292924A4AA3
:102960004A4A4A9292924A4AE4E4E4E4E4E4E4E41F
:102970004A92924A4A92924A924A4A92924A4A9277
:1029800092929292929292924A4A924A924A4A4AD7
:102990004A4A92FD92FDFDFD4A4A9292924A4A4A63
:1029A0004A4A9292924A4A4AE4E4E4E4E4E4E4E4DF
:1029B0004A92924A4A92924A924A4A92924A4A9237
:1029C00092929292929292924A4A4A924A924A4A97
:1029D000FFFDFD92FD924A4A4A4A4A9292924A4A21
:1029E0004A4A4A9292924A4A4A4A4A4A4A4A4A4A6F
:1029F0004A4A4A4A4A4A4A4A4A4A4A4A4A4A4A4A37
:102A00004A4A4A4A4A4A4A4A4A4A4A4A4A4A4A4A26
:102A10004A4A4A4A4A4A4A4A4A4A4A4A4A4A4A4A16
:102A20004A4A4A4A4A4A4A4A0D0DFFFF0D0D0D0D0A
:102A30000D0DFFFFFF0D0D0D4A0D0DFFFFFFFFFFF9
:102A40004A4A0D0D0D0D0D0D4A4A4A4A4A4A4A4A54
:102A50004A4A4A4A4A4A4A4A4A4A4A4A4A4A4A4AD6
:102A60004A4A4A4A4A4A4A4A0D0D0D0D0D0D0D0DAE
:102A70000D0D0D0D0D0D0D0D0D0D0D0D0D0D0D0D86
:102A80000D0D0D0D0D0D0D0D4A4A4A4A4A4A4A4A8E
:102A90004A4A4A4A4A4A4A4A4A4A4A4A4A4A4A4A96
:102AA0004A4A4A4A4A4A4A4A4A4A4A4A4A4A4A4A86
:102AB0004A4A4A4A4A4A4A4A4A4A4A4A4A4A4A4A76
:102AC0004A4A4A4A4A4A4A4A4A4A4A4A4A4A4A4A66
:102AD0004A4A4A4A4A4A4A4A4A4A4A4A4A4A4A4A56
:102AE0004A4A4A4A4A4A4A4AFFFFFFFFFFFFFFFF9E
:102AF0004A4A4A4A4A4A4A4A4AF9F94A4AF9F9F9CB
:102B00004AF962F94AF962F94AF94AF94AF94AF97D
:102B10004AF94AF94AF94AF94AF9F9624AF9F9F9D6
:102B20004A62624A4A6262620D0D0D0D0D0D0D0D75
:102B30000D0D0D0D0D0D0D0D0D0D0D0D0D0D0D4A88
:102B40000D0D0D0D0D0D4A4A4A4A4A4A4A4A4A4A53
:102B50004A4A4A4A4A4A4A4A4A4A4A4A4A4A4A4AD5
:102B60004A4A4A4A4A4A4A4A4A1D1D1D1D1D1D1D00
:102B70004A4A1414141414144A4A4A141414141407
:102B80004A4A4A4A141414144A4A4A4A4A4A4A4A7D
:102B90004A4A4A4A4A4A4A4A4A4A4A4A4A4A4A4A95
:102BA0004A4A4A4A4A4A4A4A1D1D1D1D1D1D1D1DED
:102BB00014141414141414141414141414141414D5
:102BC00014141414141414144A4A4A4A4A4A4A4A15
:102BD0004A4A4A4A4A4A4A4A4A4A4A4A4A4A4A4A55
:102BE0004A4A4A4A4A4A4A4A773F3F5B773F3F5BF5
:102BF0003F3F3F3F3F3F3F3F4A3F77773F77773FFA
:102C00004A2F3F3F2F3F3F774A3F77773F2F773F0E
:102C10004AFFFFFFFFFFFFFF3F3F3F3F3F3F3F3F79
:102C2000FFFFFFFFFFFFFFFF773F3F5B773F3F5B0C
:102C30003F3F3F3F3F3F3F5B772F3F77773F5B4AC9
:102C40003F3F2F3F3F2F5B4A77773F77773F5B4A86
:102C5000FFFFFFFFFFFF5B5B3F3F3F3F3F3F3F5BB0
:102C6000FFFFFFFFFFFFFF5B1D1D1D1D1D1D1D4AFB
:102C70001414141414144A4A14141414144A4A4A06
:102C8000141414144A4A4A4A4A4A4A4A4A4A4A4A7C
:102C90004A4A4A4A4A4A4A4A4A4A4A4A4A4A4A4A94
:102CA0004A4A4A4A4A4A4A4A4A4A4A4A4A064A4AC8
:102CB0004A4A7119191919194A4A4A711919194AAE
:102CC0004A4A4A7119B0194A4A4A4A7119B0194A0E
:102CD0004A4A4A711919194A4A4A4A711919194A2C
:102CE0004A4A4A4A4A4A4A4A4A4A848487858587E0
:102CF0004A848587858587854A84878585878585F4
:102D00004A929292929292924A4A4A4A4A4A4A4A2B
:102D10004A4A4A4A4A4A4A4A4A4A4A4A4A4A4A4A13
:102D20004A4A4A4A4A4A4A4A8585878585844A4AA0
:102D3000858785858784844A878585878585844AB4
:102D4000929292929292924A4A4A4A4A4A4A4A4AEB
:102D50004A4A4A4A4A4A4A4A4A4A4A4A4A4A4A4AD3
:102D60004A4A4A4A4A4A4A4AE4E4E48587858587CA
:102D70004A92858785858785924A87858587858557
:102D800092929292929292924A4A4A4A4A4A4A4A63
:102D90004A4A4A4A4A4A4A4A4A4A4A4A4A4A4A4A93
:102DA0004A4A4A4A4A4A4A4A8585878585E4E4E48C
:102DB000858785858785924A8785858785854A9217
:102DC00092929292929292924A4A4A4A4A4A4A4A23
:102DD0004A4A4A4A4A4A4A4A4A4A4A4A4A4A4A4A53
:102DE0004A4A4A4A4A4A4A4A4A4A4A4A4A4A4A4A43
:102DF0004A4A4A4A4A4A4A4A4A4A4A4A4A4A4A4A33
:102E00004A4A4A4A4A4A4A4A4A4A4A4A4A4A4A4A22
:103120004A4A4A4A4A4A4A4A4A4A4A71BD4A4A4A65
:103130004A4A4A71BD4A4A4A4A4A4A71BD4A4A4ABB
:103140004A4A4A71BD4A4A4A4A4A4A4A4A4A4A4A45
:103150004A4A4A713F4A4A4A4A4A4A713F4A4A4A97
:103160004A4A4A4A4A4A4A4A4A4A71BD4A714A4AFE
:103170004A4A71BD4A71BD4A4A4A4A4A4A4A4A4A7B
:103180004A4A4A4A4A4A4A4A4A4A4A4A4A4A4A4A9F
:103190004A4A4A4A4A4A4A4A4A4A4A4A4A4A4A4A8F
:1031A0004A4A4A4A4A4A4A4A4A4A4A4A4A4A4A4A7F
:1031B0004A3F3F4A4A3F3F4A3F3F143F143F143F74
:1031C0003F3F4A3F4A3F4A3F3F3F4A3F4A3F3F4ACD
:1031D0003F3F143F143F1414143F3F14143F141482
:1031E0004A4A4A4A4A4A4A4A4A4A4A4A714A4A4A18
:1031F0004A4A4A71BDBDBD4A4A4A4A4ABD4ABD4AC9
:103200004A71BDBDBDBDBD4A4A714A4A3F4A4A4A9C
:103210004A713F3F3F3F3F3F4A4A4A4A3F4A4A4A34
:103220004A4A4A4A4A4A4A4A4A4A4A4A4A4A4A4AFE
:103230004A3F3F3F4A3F4A3F143F1414143F3F3F29
:103240004A3F4A4A4A3F3F3F4A3F3F3F4A3F3F3F4C
:10325000143F1414143F143F143F3F3F143F143FD6
:103260004A4A4A4A4A4A4A4A4A4A4A4A4A4A4A4ABE
:103270004A41414A4A41414A4141144114411441A1
:1032800041414A414A414A4141414A414A41414AF8
:1032900041411441144114141441411414411414B3
:1032A0004A4A4A4A4A4A4A4A4A4A4A4A4A4A4A4A7E
:1032B0004A4141414A414A41144114141441414197
:1032C0004A414A4A4A4141414A4141414A414141B8
:1032D0001441141414411441144141411441144146
:1032E0004A4A4A4A4A4A4A4A4A4A4A4A4A71BD4AA4
:1032F0004A4A4A71BDBD4A4A4A4A71BD4A4A4A4A87
:103300004A4A71BD4A4A4A4A4A4A713F4A4A4A4A67
:103310004A4A4A713F3F4A4A4A4A4A4A4A713F4AE0
:103320004A4A4A4A4A4A4A4A4A71BD4A4A4A4A4A63
:103330004A4A71BDBD4A4A4A4A4A4A4A71BD4A4A46
:103340004A4A4A4A71BD4A4A4A4A4A4A713F4A4A27
:103350004A4A713F3F4A4A4A4A713F4A4A4A4A4AA0
:103360004A4A4A4A4A4A4A4A4A4A4A4A4A4A4A4ABD
:103370004A4A4A4A4A4A4A4A4A4ABD4A4ABD4A4AC7
:103380004A4A71BDBDBD4A4A4A4A4A713F4A4A4A01
:103390004A4A713F3F3F4A4A4A4A3F4A4A3F4A4A9D
:1033A0004A4A4A4A4A4A4A4A4A4A4A4A4A4A4A4A7D
:1033B0004A4A4A71BD4A4A4A4A4A4A71BD4A4A4A39
:1033C0004A71BDBDBDBDBD4A4A713F3F3F3F3F4A07
:1033D0004A4A4A713F4A4A4A4A4A4A713F4A4A4A15
:1033E0004A4A4A4A4A4A4A4A4A14144A4A4A4A4AA9
:1033F0004A14144A4A4A4A4A4A14144A4A4A4A4A05
:103400004A14144A4A4A4A4A4A14144A4A4A4A4AF4
:103410004A14144A4A4A4A4A4A14144A4A4A4A4AE4
:103420004A14144A4A4A4A4A4A141414144A4A4A40
:103430004A4A1414141414144A4A4A4A1414141408
:103440004A4A4A4A4A14144A4A4A4A4A4A14144AB4
:103450004A4A4A4A4A14144A4A4A4A4A4A14144AA4
:103460004A4A4A4A4A14144A4A4A14141414144A36
:103470001414141414144A4A141414144A4A4A4AC8
:103480004A14144A4A4A4A4A4A14144A4A4A4A4A74
:103490004A14144A4A4A4A4A4A14144A4A4A4A4A64
:1034A0004A14144A4A4A4A4A4A4A4A4A4A14144A54
:1034B0004A4A4A4A4A14144A4A4A4A4A4A14144A44
:1034C0004A4A4A4A4A14144A4A4A4A4A4A14144A34
:1034D0004A4A4A4A4A14144A4A4A4A4A4A14144A24
:1034E0004A4A4A4A4A14144A4A4A71BDBDBDBD4AB5
:1034F0004A71BD4A4A4ABDBD4A71BD4A4ABDBDBDB9
:103500004A71BD4ABD4ABDBD4A713F3F4A4A3F3F2D
:103510004A713F4A4A4A3F3F4A4A713F3F3F3F4A0A
:103520004A4A4A4A4A4A4A4A4A4A4A71BDBD4A4AEE
:103530004A4A71BDBDBD4A4A4A4A4A4ABDBD4A4A85
:103540004A4A4A4ABDBD4A4A4A4A4A4A3F3F4A4A0B
:103550004A4A4A4A3F3F4A4A4A4A713F3F3F3F3FF1
:103560004A4A4A4A4A4A4A4A4A4A4A71BDBDBD4A3B
:103570004A4A714A4A4A71BD4A4A4A4A4A71BD4A50
:103580004A4A4A4A71BD4A4A4A4A4A713F4A4A4AE5
:103590004A4A713F4A4A4A4A4A713F3F3F3F3F3F8A
:1035A0004A4A4A4A4A4A4A4A4A4A71BDBDBDBD4A88
:1035B0004A71BD4A4A4ABDBD4A4A4A4A4A4ABDBD05
:1035C0004A4A4A4ABDBDBD4A4A4A4A4A4A4A3F3F18
:1035D0004A713F4A4A4A3F3F4A4A713F3F3F3F4A4A
:1035E0004A4A4A4A4A4A4A4A4A4A4A4A71BD4A4AA1
:1035F0004A4A4A71BDBD4A4A4A4A71BD4ABD4A4A11
:103600004A71BD4A4ABD4A4A4A713F3F3F3F3F3F28
:103610004A4A4A4A4A3F4A4A4A4A4A4A713F3F4A04
:103620004A4A4A4A4A4A4A4A4A7171BDBDBDBDBD6D
:103630004A71BD4A4A4A4A4A4A71BD4A4A4A4A4AB6
:103640004A71BDBDBDBDBD4A4A4A4A4A4A713F3F63
:103650004A4A4A4A4A713F3F4A713F3F3F3F3F4AC9
:103660004A4A4A4A4A4A4A4A4A4A4A4A71BDBDBD3A
:103670004A4A4A71BDBD4A4A4A4A71BDBD4A4A4A90
:103680004A71BDBDBDBDBD4A4A713F4A4A4A3F3F2E
:103690004A713F4A4A4A3F3F4A4A713F3F3F3F4A89
:1036A0004A4A4A4A4A4A4A4A4A71BDBDBDBDBDBDA1
:1036B0004A4A4A4A4A4ABDBD4A4A4A4A4A4ABDBD9E
:1036C0004A4A4A4A4A71BD4A4A4A4A71713F4A4A7D
:1036D0004A4A713F4A4A4A4A4A4A713F4A4A4A4A12
:1036E0004A4A4A4A4A4A4A4A4A4A71BDBDBDBD4A47
:1036F0004A71BD4A4A4ABDBD4A71BD4A4A4ABDBD2A
:103700004A4ABDBDBDBDBD4A4A713F4A4A4A3F3FD4
:103710004A713F4A4A4A3F3F4A4A713F3F3F3F4A08
:103720004A4A4A4A4A4A4A4A4A4A71BDBDBDBD4A06
:103730004A71BD4A4A4ABDBD4A71BD4A4A4ABDBDE9
:103740004A4A71BDBDBDBDBD4A4A4A4A4A3F3F4A89
:103750004A4A4A4A3F3F4A4A4A4A713F3F4A4A4ACE
:103760004A4A4A4A4A4A4A4A4A4A4A4A4A4A4A4AB9
:103770004A4A71BD4A4A4A4A4A4A71BD4A4A4A4A75
:103780004A4A4A4A4A4A4A4A4A4A713F4A4A4A4A7D
:103790004A4A713F4A4A4A4A4A4A4A4A4A4A4A4A6D
:1037A0004A4A4A4A4A4A4A4A4A4A4A4A4A4A4A4A79
:1037B0004A4A4A4A4A4A4A4A4A4A4A4A4A4A4A4A69
:1037C0004A4A4A4A4A4A4A4A4A4A4A4A4A4A4A4A59
:1037D0004A4A4A4A4A4A4A4A4A4ADEE44A4ADEE4ED
:1037E0004A4ADCDC4A4ADCDC4A4A4A4A4A4A4A4AF1
:1037F0001414141414141414141414141414141489
:103800004A4A4A4A4A4A4A4A4A4A4A4A4A4A4A4A18
:103810004A4A4A4A4A4A4A4A4A4A4A4A4A4A4A4A08
:103820004A4A4A4A4A4A4A4A4A4A4A4A4A4A4A4AF8
:103830004A4A4A4A4A4A4A4A4A4A4A4A4A4A4A4AE8
:103840004A4A4A4A4A4A4A4A4A4A4A4A4A4A4A4AD8
:103850001414141414141414141414141414141428
:103860004A4A4A4A4A4A4A4A4A4A4A4A4A4A4A4AB8
:103870004A4A4A4A4A4A4A4A4A4A4A4A4ABD4A4A35
:103880004A4A4A4A4ABDBD4A4A713F3F3F3F3F3FCD
:103890004A4A4A4A4A3F3F4A4A4A4A4A4A3F4A4AA9
:1038A0004A4A4A4A4A4A4A4A4A4A71BDBDBD4A4AF8
:1038B0004A71BD4A4A71BD4A4A4A4A4A71BDBD4A27
:1038C0004A4A4A71BD4A4A4A4A4A4A4A4A4A4A4ABE
:1038D0004A4A4A713F4A4A4A4A4A4A713F4A4A4A10
:1038E0004A4A4A4A4A4A4A4A4A4A71BDBDBD4A4AB8
:1038F0004A714A4A4A4ABD4A714A4ABDBD4A4ABD0E
:10390000714A4A4A4ABD4ABD714A4A4A4A3F4A3FF9
:10391000714A4A3F3F4A4A3F4A3F4A4A4A4A3F4A17
:103920004A4A3F3F3F3F4A4A4A4A4A4A4A4A4A4A23
:103930004A4A71BDBDBDBD4A4A71BD4A4A4ABDBD74
:103940004A71BDBDBDBDBDBD4A713F4A4A4A3F3FF8
:103950004A713F4A4A4A3F3F4A713F4A4A4A3F3FBB
:103960004A4A4A4A4A4A4A4A4A4A4A4A4A4A4A4AB7
:103970004A71BDBDBDBDBD4A4A71BD4A4A4ABDBDC1
:103980004A71BD4A4A4ABDBD4A71BDBDBDBDBD4AB1
:103990004A713F4A4A4A3F3F4A713F3F3F3F3F4A91
:1039A0004A4A4A4A4A4A4A4A4A4A71BDBDBDBD4A84
:1039B0004A71BD4A4A4ABDBD4A71BD4A4A4A4A4A4D
:1039C0004A71BD4A4A4A4A4A4A713F4A4A4A4A4AA1
:1039D0004A713F4A4A4A3F3F4A4A713F3F3F3F4A46
:1039E0004A4A4A4A4A4A4A4A4A4A4A4A4A4A4A4A37
:1039F0004A4A4A4A4A4A4A4A4A71BDBDBDBDBD4AC1
:103A00004A71BD4A4A4ABDBD4A71BD4A4A4ABDBD16
:103A10004A713F4A4A4A3F3F4A713F3F3F3F3F4A10
:103A20004A4A4A4A4A4A4A4A4A4A4A4A4A4A4A4AF6
:103A30004A71BDBDBDBDBDBD4A71BD4A4A4A4A4A73
:103A40004A71BDBDBDBD4A4A4A713F4A4A4A4A4AC7
:103A50004A713F4A4A4A4A4A4A713F3F3F3F3F3FC5
:103A60004A4A4A4A4A4A4A4A4A4A4A4A4A4A4A4AB6
:103A70004A71BDBDBDBDBDBD4A71BD4A4A4A4A4A33
:103A80004A71BD4A4A4A4A4A4A71BDBDBDBD4A4A09
:103A90004A713F4A4A4A4A4A4A713F4A4A4A4A4A4E
:103AA0004A4A4A4A4A4A4A4A4A4A71BDBDBDBD4A83
:103AB0004A71BD4A4A4ABDBD4A71BD4A4A4A4A4A4C
:103AC0004A71BD4ABDBDBDBD4A713F4A4A4A3F3FEA
:103AD0004A713F4A4A4A3F3F4A4A713F3F3F3F4A45
:103AE0004A4A4A4A4A4A4A4A4A4A4A4A4A4A4A4A36
:103AF0004A4A4A4A4A4A4A4A4A71BD4A4A4ABDBDA6
:103B00004A71BD4A4A4ABDBD4A71BDBDBDBDBDBDBC
:103B10004A713F4A4A4A3F3F4A713F4A4A4A3F3FF9
:103B20004A4A4A4A4A4A4A4A4A4A4A4A4A4A4A4AF5
:103B30004A71BDBDBDBDBD4A4A4A4A71BD4A4A4AE5
:103B40004A4A4A71BD4A4A4A4A4A4A713F4A4A4A1F
:103B50004A4A4A713F4A4A4A4A713F3F3F3F3F4AB9
:103B60004A4A4A4A4A4A4A4A4A4A4A4A4A4A4A4AB5
:103B70004A4A4A4A71BDBDBD4A4A4A4A4A4A71BD8B
:103B80004A4A4A4A4A4A71BD4A4A4A4A4A4A713FDF
:103B90004A713F4A4A4A713F4A4A3F3F3F3F3F4A84
:103BA0004A4A4A4A4A4A4A4A4A71BD4A4A4A71BD41
:103BB0004A71BD4A4A71BD4A4A71BD4A71BD4A4AFD
:103BC0004A71BDBDBD4A4A4A4A713F4A3F3F4A4ACF
:103BD0004A713F4A4A3F3F4A4A713F4A4A4A3F3F39
:103BE0004A4A4A4A4A4A4A4A4A4A4A4A4A4A4A4A35
:103BF0004A71BD4A4A4A4A4A4A71BD4A4A4A4A4AF1
:103C00004A71BD4A4A4A4A4A4A713F4A4A4A4A4A5E
:103C10004A713F4A4A4A3F3F4A713F3F3F3F3F3F19
:103C20004A4A4A4A4A4A4A4A4A4A4A4A4A4A4A4AF4
:103C30004A71BD4A4A4ABDBD4A71BDBD4ABDBDBDFE
:103C40004A71BDBDBDBDBDBD4A71BD4ABD4ABDBD08
:103C50004A713F4A4A4A3F3F4A713F4A4A4A3F3FB8
:103C60004A4A4A4A4A4A4A4A4A71BD4A4A4ABDBD34
:103C70004A71BDBD4A4ABDBD4A71BDBDBD4ABDBD4B
:103C80004A71BD4ABDBDBDBD4A713F4A4A3F3F3F33
:103C90004A713F4A4A4A3F3F4A713F4A4A4A3F3F78
:103CA0004A4A4A4A4A4A4A4A4A4A4A4A4A4A4A4A74
:103CB0004A4A71BDBDBDBD4A4A71BD4A4A4ABDBDF1
:103CC0004A71BD4A4A4ABDBD4A713F4A4A4A3F3FCE
:103CD0004A713F4A4A4A3F3F4A4A713F3F3F3F4A43
:103CE0004A4A4A4A4A4A4A4A4A4A4A4A4A4A4A4A34
:103CF0004A71BDBDBDBDBD4A4A71BD4A4A4ABDBD3E
:103D00004A71BD4A4A4ABDBD4A71BDBDBDBDBD4A2D
:103D10004A713F4A4A4A4A4A4A713F4A4A4A4A4ACB
:103D20004A4A4A4A4A4A4A4A4A4A71BDBDBDBD4A00
:103D30004A71BD4A4A4ABDBD4A71BD4A4A4ABDBDE3
:103D40004A71BD4A4A4ABDBD4A713F4ABD4A3F3FDA
:103D50004A713F4A4A3F3F3F4A4A3F3F3F3F3F4AFF
:103D60004A4A4A4A4A4A3F3F4A71BDBDBDBDBD4A63
:103D70004A71BD4A4A4ABDBD4A71BD4A4A4ABDBDA3
:103D80004A71BDBDBDBDBD4A4A713F4A3F3F4A4A27
:103D90004A713F4A4A3F3F4A4A713F4A4A4A3F3F77
:103DA0004A4A4A4A4A4A4A4A4A4A71BDBDBDBD4A80
:103DB0004A71BD4A4A4ABDBD4A71BD4A4A4A4A4A49
:103DC0004A4ABDBDBDBDBD4A4A4A4A4A4A4A3F3F2A
:103DD0004A713F4A4A4A3F3F4A4A3F3F3F3F3F4A74
:103DE0004A4A4A4A4A4A4A4A4A4A4A4A4A4A4A4A33
:103DF0004A4A4A4A4A4A4A4A4A71BDBDBDBDBD4ABD
:103E00004A714A71BD4ABD4A4A4A4A713F4A4A4AC2
:103E10004A4A4A713F4A4A4A4A4A4A713F4A4A4ACA
:103E20004A4A4A4A4A4A4A4A4A4A4A4A4A4A4A4AF2
:103E30004A4A4A4A4A4A4A4A4A71BD4A4A4ABDBD62
:103E40004A71BD4A4A4ABDBD4A713F4A4A4A3F3F4C
:103E50004A713F4A4A4A3F3F4A4A3F3F3F3F3F4AF3
:103E60004A4A4A4A4A4A4A4A4A71BD4A4A4ABDBD32
:103E70004A71BD4A4A4ABDBD4A71BD4A4A4ABDBDA2
:103E80004A4A71BD4ABDBD4A4A4A713F4A3F3F4A0C
:103E90004A4A4A713F3F4A4A4A4A4A713F3F4A4A60
:103EA0004A4A4A4A4A4A4A4A4A4A4A4A4A4A4A4A72
:103EB0004A4A4A4A4A4A4A4A4A71BD4A4A4ABDBDE2
:103EC0004A71BD4ABD4ABDBD4A713F4A3F4A3F3F64
:103ED0004A713F3F3F3F3F3F4A4A713F3F3F3F4A62
:103EE0004A4A4A4A4A4A4A4A4A71BD4A4A4ABDBDB2
:103EF0004A71BDBD4ABDBDBD4A4A71BDBDBDBD4AC9
:103F00004A4A4A71BDBD4A4A4A4A713F3F3F3F4A09
:103F10004A713F3F4A3F3F3F4A713F4A4A4A3F3F0B
:103F20004A4A4A4A4A4A4A4A4A4A4A4A4A4A4A4AF1
:103F30004A71BD4A4ABDBD4A4A71BD4A4ABDBD4AE1
:103F40004A71BDBDBDBDBD4A4A4A71BDBDBD4A4AEB
:103F50004A4A4A713F4A4A4A4A4A4A713F4A4A4A89
:103F60004A4A4A4A4A4A4A4A4A71BDBDBDBDBDBDD8
:103F70004A71BD4A4A71BDBD4A4A4A4A71BD4A4A60
:103F80004A4A4A71BD4A4A4A4A4A713F4A4A4A4ADB
:103F90004A713F4A4A4A3F3F4A713F3F3F3F3F3F96
:103FA0004A4A4A4A4A4A4A4A4A4A4A4A4A4A4A4A71
:103FB0004A4A4A4A4A4A4A4A4A4A4A4A4A4A4A4A61
:103FC0004A4A4A4A4A4A4A4A4A4A4A4A4A4A4A4A51
:103FD0004A4A4A4A4A4A4A4A4A4A4A4A4A4A4A4A41
:103FE0004A4A4A4A4A4A4A4A4A4A4A4A4A4A4A4A31
:103FF0004A4A4A4A4A4A4A4A4A4A4A4A4A4A4A4A21
:104000004A4A4A4A4A4A4A4A4A4A4A4A4A4A4A4A10
:104010004A4A4A4A4A4A4A4A4A4A4A4A4A4A4A4A00
:104020004A4A4A4A4A4A4A4A4A4A4A4A4A4A4A4AF0
:104030004A4A4A4A4A4A4A4A4A4A4A4A4A4A4A4AE0
:104040004A4A4A4A4A4A4A4A4A4A4A4A4A4A4A4AD0
:104050004A4A4A4A4A4A4A4A4A4A4A4A4A4A4A4AC0
:104060004A4A4A4A4A4A4A4A4A4A4A4A4A4A4A4AB0
:104070004A4A4A4A4A4A4A4A4A4A4A4A4A4A4A4AA0
:104080004A4A4A4A4A4A4A4A4A4A4A4A4A4A4A4A90
:104090004A4A4A4A4A4A4A4A4A4A4A4A4A4A4A4A80
:1040A0004A4A4A4A4A4A4A4A4A4A4A4A4A4A4A4A70
:1040B0004A4A4A4A4A4A4A4A4A4A4A4A4A4A4A4A60
:1040C0004A4A4A4A4A4A4A4A4A4A4A4A4A4A4A4A50
:1040D0004A4A4A4A4A4A4A4A4A4A4A4A4A4A4A4A40
:1040E0004A4A4A4A4A4A4A4A66666666070746078D
:1040F0006613660707070707666607070746070789
:1041000066070707070707070707070746070707A1
:104110001746464617464646661746176617461719
:104120006666176666661766070707074607070786
:1041300007070707070707070707070746070707D0
:1041400007070707070707070707070746070707C0
:1041500017464646174646469A1746179A17461771
:104160009A9A179A9A9A179A070746076666666692
:1041700007070707076666660707074607076666B5
:104180000707070707070766070707074607070721
:104190001746464617464646661746176617461799
:1041A00066661766136617666666666666666666A0
:1041B000666666131313131366666666666666277D
:1041C000666666666666666666666666666666668F
:1041D000661366662727272766662F2F2F2F2F2F18
:1041E000666666666666666666666666666666666F
:1041F00013136666666666662727272727272766BE
:1042000066666666666666661313131313131313E6
:1042100027272727666666662F2F666666136666FB
:1042200066666666666666664A4A4A4A4A4A4A4A0E
:104230004A4A4A4A4A4A4A4A4A4A4A4A4A4A4A4ADE
:104240004A4A4A4A4A4A4A4A4A4A4A4A4A4A4A4ACE
:104250004A4A4A4A4A4A4A4A4A4A4A4A4A4A4A4ABE
:104260004A4A4A4A4A4A4A4A4A4A4A4A4A4A4A4AAE
:1044E0004A4A4A4A4A4A4A4A9A9A9A9A9A9A9A9AAC
:1044F0009A9A9AFDFDFD9A9A9A9A9AFD9AFD9A9A2D
:104500009A9A9A9AFD9A9A9A9A9A9A9A549A9A9AEE
:104510009A9A9A9A549A9A9A9A9A9A9A9A9A9A9A41
:1045200053535353535353539A9A9A9A9A9A9A9A23
:104530009A9A9A9A9A9A9A9A9A9A9A9A9A9A9A9ADB
:104540009A9A9A9A9A9A9A9A9A9A9A9A9A9A9A9ACB
:104550009A9A9A9A9A9A9A9A9A9A9A9A9A9A9A9ABB
:1045600053535353535353539A9A9A9A9A9A9A9AE3
:104570009A9A9A9A9A9A9A9A9A9A9A9A9A9A9A9A9B
:104580009A9A9A9A9A9A9A9A9A9A9A9A9A9A9A9A8B
:104590009A9A9A9A9A9A9A9A9A9A9A9A9A9A9A9A7B
:1045A0009A9A9A9A9A9A9A9A1313131313131313A3
:1045B00013131313494949491313494949494949AF
:1045C000134949131313131349491313130000001C
:1045D00013131300000000004A1300000000FFF452
:1045E0004A000000F4F4F4FF13131313131313130E
:1045F000494949491313131349494949494913136F
:1046000013131313134949130000001313134949DB
:104610000000000000131313F4FF00000000134A11
:10462000F4F4F4F40000004A1313131313131313D8
:10463000131313131313131313131313131313134A
:10464000131313131313131313131313131313133A
:104650004A4A4A4A4A4A4A4A4A4A4A4A4A4A4A4ABA
:104660004A4A4A4A4A4A4A4A4A4A4A4A4A4A4A4AAA
:1048E0004A4A4A4A4A4A4A4A66666666666666149A
:1048F00066661366666614656666666666141414F4
:104900006666666666666666666666666666666647
:1049100066666666666666666666131313131366D6
:10492000666666666666666665656565656565652F
:1049300065656565656565651414141414141414AF
:1049400066666666666666662727272727272727FF
:104950001313131366666666666666666666666643
:104960006666666666666666146666666666666639
:104970006514666666666666141414666666666620
:10498000666666666613666666666666666666661A
:1049900066666666666666661313131313136666A9
:1049A00066666666666666664A000000F4FFF4F4B2
:1049B0004A0000F4F4FFF4994A0000F4FFF49999D6
:1049C0004A0000F4F4F4FF994A000000F4F4F4F40F
:1049D0004A000000F4FFF4F44A4A00000000FFF42B
:1049E0004A4A4A4A00000000F4F4FFF40000004A7A
:1049F00099F4FFF4F400004A9999F4FFF400004A96
:104A000099F4F4F4F400004AF4FFF4F40000004ACE
:104A1000F4F4FFF40000004AFFF4000000004A4AEA
:104A2000000000004A4A4A4A4A4A4A4A4A4A4A4A0E
:104A30004A4A4A4A4A4A4A4A4A4A4A4A4A4A4A4AD6
:104A40004A4A4A4A4A4A4A4A4A4A4A4A4A4A4A4AC6
:104A50004A4A4A4A4A4A4A4A4A4A4A4A4A4A4A4AB6
:104A60004A4A4A4A4A4A4A4A4A4A4A4A4A4A4A4AA6
:104CE0004A4A4A4A4A4A4A4AFE0507090B0DFFFF4B
:104CF00006FF0F13FFFFFFFF08FFFF10FFFFFFFF7F
:104D00000AFFFFFF1114FFFF0CFFFFFFFF12FFFF61
:104D10000EFFFFFFFFFFFFFFFD1516171819FFFF1E
:104D2000FFFFFFFFFFFFFFFF5051515154000101F2
:104D30000104606162616410111211147071727368
:104D400074202122232480818181843031313134C7
:104D500090919191944041414144757676767925C0
:104D600026262629858686868935363636399596CD
:104D70009796994546464649A5A6A6A6A9555656CC
:104D800056595A5B5C5D5E0A0B0C5D0E6A6B6C6D6E
:104D90006E1A1B1C1D1E7A7B7B7B7E2A2B2B2B2ED7
:104DA0008A8B8B8B8E3A3B3B3B3E9A9B9B9B9E4ACE
:104DB0004B4B4B4EAAABABABAE5A5B5B5B5E050697
:104DC00007060971717171711516171819717171D2
:104DD0007171252627282971717171713536363622
:104DE0003971717171710001020304717171717116
:104DF000101112131471717171710A0B0B0B0E717A
:104E0000717171711A1B1C1B1E71717171712A2BCA
:104E10002C2D2E71717171713A3B3B3B3C7171715C
:104E200071714A4B4B4B4C71717171710C058D8DC9
:104E30008D8D8D8D76778D8D8D8D7C050670707046
:104E400000047070707F7C1516171819202407084D
:104E5000097F7D8C8C8C8C7C40447F8C8C7E7F7019
:104E60007070707D8C8C7E70707C0C05DDDDDDDDFE
:104E7000DDDDC6C7DDDDDDDDCC5556C0C0C050541C
:104E8000C0C0C0CFCC65666768697074575859CF89
:104E9000CDDCDCDCDCCC9094CFDCDCCECFC0C0C081
:104EA000C0CDDCDCCEC0C0CC0C05DDDDDDDDDDDD64
:104EB000C6C7DDDDDDDDCCC0C0C0C0C0C0C0C0C065
:104EC000C0CFCCC0C0C0C0C0C0C0C0C0C0CFCDDC8F
:104ED000DCDCDCCCC0C0CFDCDCCECFC0C0C0C0CD01
:104EE000DCDCCEC0C0CC100EB3B4B3B4B3B4B3B436
:104EF000B3B4B3B4B3B4B3B4B4B3B4B3B0B1B1B185
:104F0000B1B1B1B1B1B1B2B4B3B4B3B4B3C2C2C24E
:104F1000C2C2C2C2C2C2B3B4B3B4B3B4B3C2C2C2D7
:104F2000C2C2C2C2C2C2B3B4B4B3B4B3B4C2C2C2C6
:104F3000C2C2C2C2C2C2B4B3B3B4B3B4B3C2C2C2B7
:104F4000C2C2C2C2C2C2B3B4B4B3B4B3B4C2C2C2A6
:104F5000C2C2C2C2C2C2B4B3B3B4B3B4B3C1C1C19A
:104F6000C1C1C1C1C1C1B3B4B4B3B4B3D0D1D1D143
:104F7000D1D1D1D1D1D1D2B3B3B4B3B4B3B4B3B42A
:104F8000B3B4B3B4B3B4B3B4B4B3B4B3B4B3B4B3E9
:104F9000B4B3B4B3B4B3B4B3B3B4B3B4B3B4B3B4D9
:104FA000B3B4B3B4B3B4B3B47070707DC5C5C3C487
:104FB000C3C4C5C57E7070707070707F7070D3D4BC
:104FC000D3D470707C707070FEFEFFFFFFFEFFFF99
:104FD000FEFEFEFFFFFFFFFFFEFEFEFFFFFFFFFFE7
:104FE000FEFEFEB7A3B7B7B7FEFEB7B7B7B7B7B702
:104FF000FEFEFEB7B7B7B7B7FEFEFE5DB7B7B7B7F1
:10500000FEFEFFFFFFFFFFFFFFFFFFFFFFFFFEFEB4
:10501000FFFFFFFFFFFEFEFEFFFFFFFFFFFEFEFEA6
:10502000B7B7F6F6F6F6FEFEB7B7B7F6B7B7FEFEB9
:10503000B7B7B7B7B7FFFFFEB7B7FFFFFFFFFFFF79
:10504000FFFFFFFFFFFFFFFFFEFEFEFFFEFFFFFE75
:10505000FEFEFEFFFFFFFFFFFEFEFEFEFFFFFFFF67
:10506000FEFEFEF6F6B7B7B7FEFEFEB7B7B7A3B7BC
:10507000FEFEFEB7B7B7B7B7FEFEFEFEB7B7B75D29
:10508000FEFEFEFFFFFFB7B7FFFFFEFFFFFEFEFEC7
:10509000FFFFFFFFFFFEFEFEFFFFFFFFFEFEFEFE27
:1050A000B7B7B7F6F6FEB7B7B7A3B7B7B7FEFFFF08
:1050B000B7B7B7B7B7FEFFFF5DB7B7B7FEFEFFFFE5
:1050C000B7B7FFFFFFFFFFFEFEFEFEFFFEFFFFFE86
:1050D000FEFEFEFFFFFFFFFFFEFEFEFEFFFFFFFFE7
:1050E000FEFEFEF6FFFFFFFFFEFEFEB7F6F6F6F64B
:1050F000B7B7FEB7B7B7B7B7FFFFFEFEB7FFFFFF03
:10510000FEFFFFFFFFFFFFFFFEFEFEFFFFFEFFFFB4
:10511000FEFEFEFFFFFFFFFFFEFEFEFEFFFFFFFFA6
:10512000FEFEFEF6FFFFFFFFB7B7FEB7F6F6F6F698
:10513000FFFFFEB7B7B7B7B7FFFFFEFEB7FFFFFF32
:10514000FEFFFFFFFFFFFFFFFEFEFEFFFFFEFFFF74
:10515000FEFEFEFFFFFFFFFFFEFEFEFEFFFFFFFF66
:10516000B7B7FEF6FFFFFFFFFFFFFEB7F6F6F6F656
:10517000FFFFFEB7B7B7B7B7FEFFFFFEB7FFFFFFF2
:10518000FEFEFFFFFFFFFFFFFF00FFFFFF00FFFF2F
:105190006EFFFF2F2FFFFF2F6E2F2F00002F2F2FBF
:1051A0006E2F2F2F2F2F2F2F6E6E2F2F2F272F2F5A
:1051B000FE6E276E6E2727FEFE2727FEFE27272777
:1051C000272727FEFEFEFEFEFE00FFFFFFFFFFFF7C
:1051D000FEFFFFFFFFFFFFFFFE00FFFFFFFFFFB728
:1051E000FEFEFFFFFFFFB7B7FEFEFFFFFFFFFFFF63
:1051F000FEFEFEFEFEFFFFFEFEFEFEFEFFFF00FEC9
:10520000FEFE0000000000FEFFFFFFFFFFFFFFFFAC
:10521000FFA4A4FFFFFFFFFFA4A4FFFFFFFFFFFE0B
:10522000A4FFFFFFFFFFFFFEFFFFFFFFFFFFFEFEEC
:10523000FEFEFEFEFFFFFFFEFEFEFEFEFEFFFF0087
:10524000FEFEFEFE00000000FEFFFFFFFFFFFFFF6F
:10525000FFFFFFFFFFFF00FFFFFFFFFFFFFFFFFF5D
:10526000FFFFFFFFFFFF00FFB7B7FEFFFFFFFFFFDE
:10527000FEFEFEFEFFFFFFFEFEFEFEFEFEFFFFFE49
:10528000FEFEFEFE000000FEFFFFFFFFFFFFFFFE31
:10529000FF00FFFFFFFFFEFEFFFFFFFFFFFFFEFE21
:1052A000FF00FFFFFFFFFEFEFFFFFFFFFFFEFEFE12
:1052B000FEFFFFFFFEFEFEFEFEFFFFFEFEFEFEFE09
:1052C000FE000000FEFEFEFEFEFEFFFFFFFFFFFFF2
:1052D000FEFEFFFFFFFFFFFFFEFEFEFFFFFFFFFFE3
:1052E000FEFEFEFFFFFFFFFFFEFEFEFEFFFFFFFFD5
:1052F000FEFEFEFEFEFFFFFEFEFEFEFEFEFFFFFECA
:10530000FEFEFEFE000000FEFEFEFFFFFFFFFFFFB1
:10531000FEFEFFFFFFFFFFFFFEFEFFFFFFFFFFFFA1
:10532000FEFEFEFFFFFFFFFFFEFEFEFFFFFFFFFF93
:10533000FEFEFEFEFEFFFFFEFEFEFEFE000000FE85
:10534000FEFEFEFEFEFEFEFEFEFEFEFFFFFFFFFF78
:10535000FEFEFEFFFFFFFFFFFEFEFEFEFFFFFFFF64
:10536000FEFEFEFFFFFFFFFFFEFEFEFEFEFFFFFE56
:10537000FEFEFEFE000000FEFEFEFEFEFEFEFEFE47
:10538000FEFEFEFEFEFEFEFEFF00FFFFFF00FFFF33
:105390006EFFFF2F2FFFFF2F6E2F2F00002F2F2FBD
:1053A0006E2F2F2F2F2F2F2F6E6E2F2F2F2F2F2F50
:1053B000FE6E276E6E272FFEFE2727FEFE2727FE96
:1053C000272727FEFE272727FE00FFFFFFFFFFFFFF
:1053D000FEFFFFFFFFFFA4A4FE00FFFFFFFFFFA4EF
:1053E000FEFEFFFFFFFFFFFFFEFEFEFFFFFFFFFFD2
:1053F000FEFEFEFEFEFFFFFFFEFEFEFEFFFF00FEC6
:10540000FEFEFE00000000FEFFFFFFFFFFFFFFFFAC
:10541000FFFFFFFFFFFFFFFEA4B7FFFFFFFFFFFE41
:10542000A4B7B7FFFFFFFEFEFFFFFFFFFFFEFEFE7C
:10543000FFFFFFFFFEFEFEFEFEFEFFFFFF00FEFE83
:10544000FE0000000000FEFEFE00FFFFFFFFFFFF6A
:10545000FEFFFFFFFFFFFFFFFE00FFFFFFFFFFFF5D
:10546000FEFEFEFFFFFFFFB7FEFEFEFEFFFFFFFF9B
:10547000FEFEFEFEFEFEFFFFFEFEFEFEFEFEFEFF49
:10548000FEFEFEFEFEFE0000FFFFFFFFFFFFFFFF30
:10549000F6FFFFFFFFFFFFFFF6FFFFFFFFFFFFFE2F
:1054A000B7FFFFFFFFFFFFFEFFFFFFFFFFFFFEFE57
:1054B000FFFFFEFEFEFEFEFEFFFF00FEFEFEFEFE06
:1054C000000000FEFEFEFEFEFEFEFEFEFEFEFEFEF6
:1054D000FEFEFEFEFEFE0B14FEFEFEFEFE14141487
:1054E000FEFEFEFEFEFE1414FEFEFEFEFEFEFEFFAF
:1054F000FEFEFEFEFEFEFF00FEFEFEFEFEFEFEFFC8
:10550000FEFEFEFEFEFEFEFEFEFEFEFEFEFEFEFEBB
:10551000140BFEFEFEFEFEFE14140BFEFEFEFEFE4F
:105520001414140BFEFEFEFEFF1414140BFEFEFEFC
:10553000FFFF14140B0BFEFEFF141414140BFEFEDD
:1055400014141414140BFEFEFEFEFEFE14FEFEFEEA
:10555000FEFEFE1414FEFEFEFE141414141414FEBB
:1055600025252525252525256E2F252525252F2F84
:105570006EFFFF2F2FFFFF2FFF00FFFFFF00FFFF3A
:105580006EFFFF2F2FFFFF2FFEFEFEFEFEFEFEFE34
:10559000FEFEFEFEFEFEFEFEFEFEFEFE14FEFEFE15
:1055A000FEFEFE1414FEFEFEFE141414141414FE6B
:1055B00025252525252525256E2F252525252F2F34
:1055C0006EFFFF2F2FFFFF2FFEFEFEFEFEFEFFFFF2
:1055D000FEFEFEFEFEFFFFFFFEFEFEFE2F2F2FFF54
:1055E000FEFEFE2F3F2F2F2FFEFEFE2F003F2F2F00
:1055F000FEFE2F2F003F2F2FFEFE2F2F3F2F2F2F8E
:10560000FEFE2F2F2F2F2F2FFFFFFEFEFEFEFEFE92
:10561000FFFFFFFEFEFEFEFEFFFFFFFFFEFEFEFEA3
:10562000FFFFFFFFFFFEFEFE3FFFFFFFFFFEFEFE50
:105630003FFFFFFFFFFFFEFE3FFFFFFFFFFFFEFEFE
:105640003FFFFFFFFFFFFEFEFEFEFEFEFEFEFFFF32
:10565000FEFEFEFEFEFFFFFFFEFEFEFEFFFFFFFF63
:10566000FEFEFEFEFFFFFFFFFEFEFEFFFFFFFFFF51
:10567000FEFEFEFFFFFFFFFFFEFEFFFFFFFFFFFF3F
:10568000FEFEFFFFFFFFFFFFFEFE6EFEFEFEFE1DA5
:1056900066FEFEFEFEFEFEFEFEFEFEFE66FE6EFEEA
:1056A000FEFE1DFEFEFEFEFEFEFEFEFEFEFEFE6693
:1056B0006EFEFEFE66FEFEFEFEFEFE1DFEFEFEFE13
:1056C000FE66FEFEFEFE1DFEFEFEFEFEFEFEFEFE73
:1056D000FEFEFEFEFEFEFE14FEFEFEFEFEFE2F2F72
:1056E000FEFEFEFEFEFE1414FEFEFEFEFE1414146C
:1056F000FEFEFEFE0B141414FEFEFEFE0B0B0B0B47
:10570000FEFEFEFEFE060606142F1414140BFEFE0B
:105710002F2F14140B0BFEFE2F14140B0BFEFEFE8A
:1057200014140B0BFEFEFEFE140B0BFEFEFEFEFE23
:10573000060BFEFEFEFEFEFE06FEFEFEFEFEFEFE6C
:1057400006FEFEFEFEFEFEFE6E2F2F2F2F2F2F2FAA
:105750006E2F2F00002F2F2F6E2F2F2F2F2F2F2F39
:105760006E2F2F2F2F2F2F2F6E6E2F2F2F2F2FFEBD
:10577000FE6E276E6E276EFEFE2727FEFE2727FE93
:10578000272727FEFE272727FF00FFFFFF00FFFF39
:105790006EFFFF2F2FFFFF2F6E2F2F00002F2F2FB9
:1057A0006E2F2F2F2F2F2F2F6E6E272F2F2F2F2F54
:1057B000FE27276E6E272FFE272727FEFE2727FEB0
:1057C000FEFEFEFEFE272727FEFE2F2F2F2F2F3F48
:1057D000FEFE2F2F2F2F3FFFFEFEFFFFFFFFFFFFDD
:1057E000FEFEFEFFFFFFFFFFFEFEFEFFFFFFFFFFCF
:1057F000FEFEFEFEFFFF6EFFFEFEFEFEFEFF6EFFE4
:10580000FEFEFE6E6E6EFE6EFFFFFFFFFFFFFEFEF2
:10581000FFFFFFFFFFFFFEFEFFFFFFFFFFFFFEFE9C
:10582000FFFFFFFFFFFFFEFEFFFFFFFFFFFEFEFE8D
:10583000FFFFFF6EFEFEFEFEFFFFFE6EFEFEFEFEA3
:10584000FE6E6EFE6EFEFEFEFEFEFFFFFFFFFFFF22
:10585000FEFEFFFFFFFFFFFFFEFEFFFFFFFFFFFF5C
:10586000FEFEFEFFFFFFFFFFFEFEFEFFFFFFFFFF4E
:10587000FEFEFEFEFFFFFFFFFEFEFEFEFE6EFFFFD2
:10588000FEFEFEFE6EFE6EFEFFFFFFFFFFFFFEFE52
:10589000FFFFFFFFFFFFFEFEFFFFFFFFFFFFFEFE1C
:1058A000FFFFFFFFFFFFFEFEFFFFFFFFFFFEFEFE0D
:1058B000FFFF6EFFFEFEFEFEFF6EFE6EFEFEFEFEB4
:1058C000FEFEFEFEFEFEFEFEFEFEFEFEFEFE0B14D5
:1058D000FEFEFEFEFE141414FEFEFEFEFEFE14147A
:1058E000FEFEFEFEFEFEFEFFFEFEFEFEFEFEFF00D4
:1058F000FEFEFEFEFEFEFEFFFEFEFEFEFEFEFEFEC7
:10590000FEFEFEFEFEFEFEFE140BFEFEFEFEFEFE94
:1059100014140BFEFEFEFEFE1414140BFEFEFEFE1F
:10592000FF1414140BFEFEFEFFFF14140BFEFEFE0C
:10593000FF1414140BFEFEFE141414140BFEFEFED2
:10594000141414140BFEFEFEFEFE0B0B0B0BFEFEDE
:10595000FE0B0B0B0B0B0BFE0B0B0B0B0B0B0B0BB1
:10596000140B0B0B0B0B0B14140B0B0B0B0B0B1463
:10597000FE140B0B0B0B14FEFE140B0B0B0B14FE87
:10598000FE140B0B0B0B14FEFEFE3FFEFE3FFEFE55
:10599000FEFEFEFEFEFE3FFEFEFEFE3FFEFEFEFEA5
:1059A000FEFEFEFE14FEFEFEFEFEFE1414FEFEFED5
:1059B000FE141414141414FE25252525252525254B
:1059C0006EFF002F2F00FF2FFEFE2F2F2F2F2F3FB8
:1059D000FEFE2F2F2F2F3FFFFEFEFFFFFFFFFFFFDB
:1059E000FEFEFEFFFFFFFFFFFEFEFEFFFFFFFFFFCD
:1059F000FEFE6EFEFF6EFFFFFEFEFE6E6EFEFFFF02
:105A0000FEFEFEFE6EFEFEFEFFFFFFFFFFFFFEFE40
:105A1000FFFFFFFFFFFFFEFEFFFFFFFFFFFFFEFE9A
:105A2000FFFFFFFFFFFFFEFEFFFFFF6EFFFE6EFEAC
:105A3000FFFFFF6E6E6EFEFEFFFFFEFE6EFEFEFEC1
:105A4000FEFEFE6EFEFEFEFEFEFEFEFEFEFEFEFE06
:105A5000FEFEFEFEFEFEFE14FEFEFEFEFEFE2F2FEE
:105A6000FEFEFEFEFEFE1414FEFEFEFEFE141414E8
:105A7000FEFEFEFE0B061414FEFEFEFE0B060B0BD6
:105A8000FEFEFE060606FEFE142F14140BFEFEFE9E
:105A90002F2F14140BFEFEFE2F14140B0BFEFEFE14
:105AA00014140B0BFEFEFEFE140B0B06FEFEFEFE98
:105AB0000B0BFE0606FEFEFE0BFE0606FEFEFEFEBF
:105AC000FE0606FEFEFEFEFEFEFEFEFEFEFEFEFEE6
:105AD000FEFEFEFEFEFEFE14FEFEFEFEFEFE2F2F6E
:105AE000FEFEFEFEFEFE1414FEFEFEFEFE14141468
:105AF000FE0606FE0B141414FEFE0606060B0B0B28
:105B0000FEFEFE06FEFEFEFE142F14140BFEFEFE2D
:105B10002F2F14140BFEFEFE2F14140B0BFEFEFE93
:105B200014140B0BFEFEFEFE140B0BFEFEFEFEFE1F
:105B30000B0B06FEFEFEFEFE0BFE06FEFEFEFEFE4E
:105B4000060606FEFEFEFEFEFE140B0B0B0B14FEFD
:105B5000FE0B0B0B0B0B0B14140B0B0B0B0B0B1487
:105B60000B0B0B0B0B0B0B0BFE0B0B0B0B0B0BFE9F
:105B7000060614141414FEFE060606FEFE060606AD
:105B8000FEFEFEFEFE060606FFFF00FFFF00FFFF13
:105B90006EFFFF2F2FFFFF2F6E2F2F00002F2F2FB5
:105BA0006E6E272F2F272F2FFE27276E6E2727FE9B
:105BB000272727FEFE272727FEFEFEFEFEFEFEFE0F
:105BC000FEFEFEFEFEFEFEFEFEFEFEFEFEFEFDFEF6
:105BD000FEFEFEFEFEFDFDFEFEFEFEFEFED4FDFE12
:105BE000FEFEFEFEFEFEFDFEFEFEFEFEFEFEFDFED7
:105BF000FEFEFEFEFEFDFDFDFEFEFEFEFED4D4D446
:105C0000FEFEFEFEFEFEFEFEFEFEFEFEFEFEFDFEB5
:105C1000FEFEFEFEFEFDD4FDFEFEFEFEFED4FEFDFB
:105C2000FEFEFEFEFEFEFDFEFEFEFEFEFEFDFEFE96
:105C3000FEFEFEFEFEFDFDFDFEFEFEFEFED4D4D405
:105C4000FEFEFEFEFEFEFEFEFEFDFDFDFEFEFDFE78
:105C5000FEFDFEFEFEFDD4FDFEFDFDFEFEFDFEFD95
:105C6000FED4D4FDFEFDFEFDFEFEFEFDFEFDFEFDAE
:105C7000FEFDFDFEFED4FDD4FED4D4FEFEFED4FE19
:105C8000FEFEFEFEFEFEFEFEFEFEFDFEFEFEFDFE36
:105C9000FEFDD4FDFEFDD4FDFEFDFEFDFEFDFEFD80
:105CA000FEFDFEFDFEFDFEFDFEFDFEFDFEFDFEFD1C
:105CB000FED4FDD4FED4FDD4FEFED4FEFEFED4FE02
:105CC000FEFEFEFEFEFEFEFEFEFEFDFEFEFEFEFEF5
:105CD000FEFDD4FDFEFEFEFEFEFDFEFDFEFEFEFE12
:105CE000FEFDFEFDFEFEFEFEFEFDFEFDFEFEFEFED8
:105CF000FED4FDD4FEFEFEFEFEFED4FEFEFEFEFE43
:105D0000FEFEFEFEFEFEFEFEFEFEFEFEFEFEFEFEB3
:105D1000FEFEFEFEFEFEFEFEFEFEFEFEFEFEFEFEA3
:105D2000FEFEFEFEFEFEFEFEFEFEFEFEFEFEFEFE93
:105D3000FEFEFEFEFEFEFEFEFEFEFEFEFEFEFEFE83
:105D4000FEFEFEFEFEFEFEFEFEFEFEFEFEFEFEFE73
:105D5000FEFEFEFEFEFEFEFEFEFEFEFEFEFEFEFE63
:105D6000FEFEFEFEFEFEFEFEFEFEFEFEFEFEFEFE53
:105D7000FEFEFEFEFEFEFEFEFEFEFEFEFEFEFEFE43
:105D8000FEFEFEFEFEFEFEFE4F4F4F4F4F4F4F4FAB
:105D90004FFFFFFFFFFFFF4F4FFFFFFFFF4FFF4F83
:105DA0004FFFFFFF4FFFFF4F4FFFFF4FFFFFFF4F23
:105DB0004FFF4FFFFFFFFF4F4FFFFFFFFFFFFF4F63
:105DC0004F4F4F4F4F4F4F4F363636360001080971
:105DD00000011213000110110001121304840C8C35
:105DE00004850C8D04860C8E04850C8D04840C8C2B
:105DF00005840D8C06840E8C05840D8C02820A8A23
:105E000002030A0B83038B0B83828B8A18192021D0
:105E10001819282118192829181920291A9A22A294
:105E20001A9A22231A9AA3231A9AA3A214151C1DA4
:105E300024252C2D24252A2D24252C2B24252A2BE2
:105E400024252C2D24252A2D24252C2B262E262EC8
:105E500026AE26AE161E171F170F1707FF3F0F039C
:105E60000102030000910F08920B0592140592089D
:105E70000C920B14920F14920C1493D9E9904902CE
:105E80005E00147E00103E000C6900077707086969
:105E900000036915046C0705641305000000E400A5
:105EA00003E50007E4000CC40010E20703E2070565
:105EB000E10707E40708C4070CF80714E40E08E438
:105EC0000E0CC40E10F81514E31505E41508C415DE
:105ED0000CC41C04E41C0CC41C1000000087090046
:105EE00086021B85021384020F83020B8202068145
:105EF000020286091B85091384090F83090B810996
:105F00000786101B85101383100F82100B8110075A
:105F100086171B85171380170F83170B80170781B0
:105F200017038800008917008A001B00000000C0CA
:105F30000000C10100C20200B0076400B2076400A3
:105F4000B107642CFF06015307B007640090474275
:105F500000B207640092474200B1076406904540D2
:105F600000924540069044400092444007904540CE
:105F700000924540069048470092484700913939C1
:105F80000D3C2B0D904A4200924A4200913C2B0658
:105F900090483F0092483F0790473F0092473F009C
:105FA000913C2A0690483F0092483F06904C48009A
:105FB000924C48009139390D3C2B0D904D42009286
:105FC0004D4200913C2B06904C3F00924C3F079075
:105FD0004B3F00924B3F00913C2B06904C3F009270
:105FE0004C3F079053460092534600913939069032
:105FF0005140009251400690504000925040009114
:106000003C2A07905140009251400690534500921F
:106010005345009139390790514000925140069004
:1060200050400092504000913C2B0690514000920D
:1060300051400790544800925448009139390D3C22
:106040002A0C9051440092514400913C2A0D9054E6
:10605000410092544100913C2A0A904F3F00924FD8
:106060003F0190513F0092513F0290535000925394
:1060700050009134410D90514000924E36009140B5
:10608000350D904F4500924C3A009140350C90519F
:106090004000924E36009140350A904F4100924F99
:1060A000410190514100925141029053520092534C
:1060B00052009134420D90514200924E380091406E
:1060C000340D904F4500924C3A009140340C905161
:1060D0004100924E37009140340A904F4000924F59
:1060E0004002905140009251400190534F00925312
:1060F0004F009134430D90514400924E390091402D
:10610000340D904F4500924C3A00912F340D904E33
:106110004200924B3800913B340C904C4500924C1D
:1061200045009134391A904C38009248380D904D02
:106130003800924A380D904F4200924C4200913004
:106140003B0C904F3900924C3900913C350D9051E9
:1061500040009251400091343B07904F3900924FDC
:106160003906904D3900924D390091403906904CD6
:106170003900924C3907904A4100924741009137CB
:106180003C0D92433B0C904C38009248380D904D9A
:106190003800924A380D904F4200924C42009130A4
:1061A0003B0D904F3900924C3900913C350D905188
:1061B00040009251400091343B06904F3900924F7D
:1061C0003906904D3900924D390091403907904C75
:1061D0003900924C3906904A4100924A41004741A9
:1061E0000091373C1A904838009245380C904A3854
:1061F000009247380D904C420092484200912D3B4E
:106200000D904C3900924839009139350D904D4030
:1062100000924D400091303B06904C3900924C3931
:1062200007904A3900924A3900913C390690483922
:106230000092483906904741009244410091343C15
:106240000D92403B0D904838009245380D904A38E9
:10625000009247380D904C420092484200912D3BED
:106260000C904C3900924839009139350D904D40D1
:1062700000924D400091303B07904C3900924C39D0
:1062800006904A3900924A3900913C3906904839C3
:106290000092483907904741009244410091343CB4
:1062A0001990473800924738079045380092453892
:1062B000069044380092443807904538009245389B
:1062C0000690483B0092483B009139350D402F0D18
:1062D000904A3E00924A3E0091402F069048390075
:1062E00092483906904739009247390091402F076C
:1062F0009048390092483906904C4200924C420036
:106300009139360D40300D904D3F00924D3F009138
:10631000403006904C3A00924C3A06904B3A00922C
:106320004B3A0091403007904C3A00924C3A06901C
:10633000534600925346009139380790513F0092DE
:10634000513F0690503F0092503F009140310690DF
:10635000513F0092513F079053470092534700919D
:1063600039390690514000925140079050400092B8
:1063700050400091403406905140009251400690A8
:10638000544C0092544C009135390D3F330D9051CF
:106390003E0092513E00913F2B0D90533E00925390
:1063A0003E00913F270D9054460092544600913490
:1063B0002E0C90533E0092533E0091402A0D905176
:1063C0003E0092513E0091322A0D90503E00925074
:1063D0003E00913B2A0D9051470092514700913069
:1063E0002F0D904C4000924C40009139270C3229DF
:1063F00001904D4000924D400C904A4000924A401E
:1064000000913B290D90484A0092484A009139304A
:106410000D39290D904740009247400091382903DB
:106420009048390092483903904739009247390320
:106430009048390092483903904739009247390013
:106440009138290290483900924839039047390021
:1064500092473902904540009245400390473900E9
:10646000924739039045410092454100912D2E1AE3
:1064700090553C0092553C06905634009256340696
:10648000905534009255340790533400925334069B
:1064900090513A0092513A009136320790533200AF
:1064A000925332069051320092513200913D2506AE
:1064B0009050320092503207904E3800924E380081
:1064C000913D2506905132009251320790502E0096
:1064D00092502E00913D2506904E2E00924E2E0693
:1064E000904D3A00924D3A0091383207904E2F006D
:1064F000924E2F069050310092503100913B1E0772
:10650000904D2E00924D2E06904938009249380049
:10651000913B1E06904B2F00924B2F07904D32005F
:10652000924D3200913B1E0690492F0092492F0751
:10653000904E3800924E380091363206904D2F0022
