:100000000C94B6140C945A150C945A150C945A1559
:100010000C945A150C945A150C945A150C945A15A4
:100020000C945A150C945A150C945A150C945A1594
:100030000C945A150C948A170C945A150C945A1552
:100040000C945A150C945A150C945A150C945A1574
:100050000C945A150C945A150C945A150C945A1564
:100060000C945A150C945A150C945A150C945A1554
:100070005A5501200101003808000000000000006E
:100080000000000000000000000000000000000070
:100090004F205D20F620AC24962460206F207E2027
:1000A0007C248C209A2000020800085504085A007D
:1000B00000F8000990000A1E32050000FF00000051
:1000C000A60000000000000000000000000000008A
:1000D0000000000000000000000000000000000020
:1000E0000000000000000000000000000000000010
:1000F0000000000000000000000000000000000000
:1001000000000000000000000000000000000000EF
:1001100000000000000000000000000000000000DF
:100120000000000000490000000000495252000099
:10013000004952531C25004952522425251B525276
:100140005C2D2D1C121200000000000000000000B9
:1001500000004049494900404949525B5B5B4A52B3
:10016000525B1C1C13125B1C241C12090909241B62
:1001700012090909090A0A0A0A0A0A0A0A130A0AD2
:10018000120A0A12130A0000000000000000925236
:1001900052525252524913121309001C1B130A12D5
:1001A00012401B65641C090A0009241B1C6512000F
:1001B00000251C1C1C1C010025241C1C1C1C0024CC
:1001C000252424241C1C00000000000000004940DD
:1001D00000000000000052494900000000001C5BC4
:1001E0004A48000000001C25524900000000652418
:1001F00064490000000065256449000000006D2E80
:100200005C490000000000000000000040520000B7
:1002100000000049525C00000000535224250000F9
:1002200000535225252500004A5225251B000000B9
:100230005B251300001B005B53000A1C3737095B6A
:100240001C657F372E2E522E2E1C131312002E25C6
:100250001B13120000121C1C12000012251C12009D
:1002600000122E371C1300132E37361C131B373782
:100270002E2E25131C1C2E2E2E2E1B1C1C1C6E6EAF
:100280006E1C1C1C1C1C09131312121313001313D5
:100290001313131C0009131313131C01003713133A
:1002A000131C13002E2E1B1B1C1C001C772E1B1B4B
:1002B0002500137F251C1C1C010A37241C1C1C1341
:1002C0000A2E25250900132E2425252525252E2532
:1002D00025252525252525252D2E251B1C1C2E2EC7
:1002E000251C13251B13251C1C1C1C0109521C1C3E
:1002F0001300011C5B5C0A000165775C1B00016E4A
:100300007F6E521B00006D1C5249000000001C1340
:100310005300000000001C524A00000000005B5B1C
:100320000000000000005C00000000000000000071
:1003300000000000000000000000000000000000BD
:10034000000000000000135B7F776E6E6E6E136519
:1003500077766E6E6E6E1B65777676766E771B5B44
:10036000BF76B676767609136DBFB7B6B765001B54
:10037000125C76BF766D0000121B125B5B5C0000A6
:100380000000090A12136E77241C1C1C1C1C772504
:100390001C1C1C1C24256E1C1C1C2425251B1C1C21
:1003A000242525130000646D6D1B00096EBF6D5B75
:1003B00009126EBF6D5B5B125B645B121312131B41
:1003C0001212090100001C242E1C0900096E2524AC
:1003D000010009767F7F000012777F7F641264BF7F
:1003E000BF775B121B09BF6D5B121B090000121364
:1003F0001B090000000009000000000000000000D0
:100400000000000000007F7F5313130000006412FF
:100410001B01000000001B12000000000000000093
:1004200000000000000000000000000000000000CC
:1004300000000000000000000000000000000000BC
:100440000000000000000000000000000000260086
:100450000000260026262F0000002F000000370095
:10046000000037000000FF000000FF000000BF0098
:100470000000BF0000BF3700003700003700002633
:1004800026000000262600000000000000002626AE
:1004900026002626262600002F002F000000003709
:1004A000000037000000FF000000FFFFFFFF00001A
:1004B0000000BF00000000000000370000002626FA
:1004C0002600262626260000000000000000260048
:1004D00026262626000000002F0000002F00000026
:1004E0003700000037000000FFFFFFFF00000000A2
:1004F000BF000000BF0000003700000037002600EA
:100500002626262600000000000000000000000053
:10051000262626002600002F00002F002F0037007F
:10052000000037000037FF000000FF000000BF00A0
:100530000000BF0000BF370000370000370026264C
:10054000260000002600000000000000000000005F
:1005500026000000000000002F000000000000370F
:10056000000000000000FF0000000000000000BFCD
:100570000000000000000000370000000000000044
:100580002600000000000000000000000000000045
:10059000000000000000000000000000000000005B
:1005A0000000000000E400000000099BEDF60000E0
:1005B000009BA4ADBFBF00529BA4767F7FB75B9B1F
:1005C0006D777F766EB7000000000000000000002D
:1005D00000005BB6F6F6005BF6FFFFFFFFBFF6FF1D
:1005E000FFFFFFBFBFAEFFBFFFFFFFB7AD65BFBFE0
:1005F000FFFFB7B6AD65B7BFFFFFBFB7AE6EB7BF02
:10060000FFFFBFB7B7650000000000000000F6F66E
:10061000EDEDADA4A49BB66D6D5C526E6564656531
:10062000655265766D255C5C52536E24656E65522D
:10063000526E252524255B52772D25252524526EC3
:100640006E2D2525252500000000000000009B4997
:10065000000000000000A49B920000000000256440
:10066000934900000000652E9B52000000006D259C
:100670006552000000006D2D6552000000006E2ED6
:10068000645200000000000000000000495B000010
:100690000000004A5B65000000005B9B6D2D0000C0
:1006A000005B5B2D2E250000525B2E2E1C090001E5
:1006B0005B2D1C01091C005C5B014A65777F4A5B6E
:1006C0001C6E7F7777769B77776D656E6EA4776EFD
:1006D0006565655BA4B725255C52526DBFBF1309E4
:1006E00049647FBFBFBF095C7F7FBFBFB7BF7F7F4C
:1006F000777F7FB7BFBF77777F7F6EB7BFBF777FCB
:100700007F6E77BFBFBFB6FFFFFFBFBFB75BBFFF47
:10071000FFFFBFBFA464BFFFFFFFBFADA47FBFFF4C
:10072000FFFFBFA4BF7FFFFFFFBFADBFBFBFFFFF86
:10073000FFB6BFBFBF77FFFFF7BFBFBF7777FFFF32
:10074000FFBFBFBF64526D7F6E2E2D2D256E7F764D
:100750006E6E6E2E2565777777762E1C25247F7733
:100760006E251C251C1B776525251C090A5B6E6EF2
:100770001C09492564645B494A6E7F645C005377B9
:10078000BF775B5C00006E255B4A000000001C1B0D
:100790005B0000000000245B5300000000005B5C75
:1007A00000000000000064000000000000000000E5
:1007B0000000000000000000000000000000000039
:1007C0000000000000005B5C7FBF777677775C6D90
:1007D0007FB7777777775C6D7FBF777777BF5C641C
:1007E000BFBFBFBFBF7F0A5C6EBFBFBFBF76006524
:1007F000646DBFBFBFBF00005B6D646DADB6000030
:100800000000125B646D777F6E6E77BFBFBF7F762F
:100810006D7677BFBFBF776D6E767FBFBFBF6D6EE2
:10082000767FBFB7ADF676BFBF76A4ADFFFFBFB68C
:1008300064ADFFFFFFFFB6ADBFFFFFFFFFF6ADB634
:10084000AD645B520000FFFFBFBFAD5B64BFFFFF45
:10085000B6ADADBFFFBFFFF6FFFFFFFFBF64FFFFF9
:10086000FFFFBFB6765BFFFFFFBFBF5B0000FFFF70
:10087000FF5C00000000A400000000000000000079
:10088000000000000000BFBF645C5C0000006E5C04
:100890006549000000006D5B0000000000000000E2
:1008A0000000000000000000000000000000000048
:1008B0000000000000000000000000000000000038
:1008C0000000000000000504000102030405060703
:1008D00008090A0B0C0D000E0F101112050300136E
:1008E0001415161718191A1B1C1D1E1F000040880E
:1008F00091D2E4ADB5B6BEBFFF000000000000001D
:1009000000000000000000000000000000000000E7
:1009100000000000000000000000000000000000D7
:1009200000000000000000000000000000000000C7
:10093000000000000000000000FFFFFFFFFFFFFFBE
:10094000FFFFFFFFFFFFFFFFFFFFFFFFFFFFFFFFB7
:10095000FFFFFFFF00FFFFFFFFFFFFFFFFFFFFFFA6
:10096000FFFFFFFFFFFFFFFFFFFFFFFFFFFFFFFF97
:10097000FFFFFFFFFFFFFFFFFF0002040606040268
:100980000000020406060402000002040606040237
:100990000000020406060402000002040606040227
:1009A0000000020406060402000002040606040217
:1009B000000002040606040200FFFFFFFFFFFFFF26
:1009C000FFFFFFFFFFFFFFFFFFFFFFFFFFFFFFFF37
:1009D000FFF8F8F8F8F8F8F8F8F8F8F8F8F8F8F890
:1009E000F8FFFFFFFFFFFFFFFFFFFFFFFFFFFFFF1E
:1009F000FFFFFFFFFFFFFFFFFF0000000000000000
:100A000000020202020202020204040404040404BA
:100A10000406060606060606060606060606060678
:100A20000604040404040404040202020202020292
:100A300002000000000000000000000000000000B4
:100A40000000020202020202020002040404040482
:100A50000400020406060606060002040606060650
:100A6000060002040606040404000204060604024A
:100A7000020002040606040200000000000000005C
:100A8000000202020202020200040404040404023E
:100A9000000606060606040200060606060604020E
:100AA000000404040606040200020204060604020E
:100AB0000000020406060402000002040606040206
:100AC00000000204060604020200020406060404F2
:100AD00004000204060606060600020406060606D0
:100AE00006000204040404040400020202020202DA
:100AF00002000000000000000000020406060402DC
:100B000000020204060604020004040406060402AD
:100B1000000606060606040200060606060604028D
:100B2000000404040404040200020202020202029D
:100B3000000000000000000000FEFEFEFE27273738
:100B400037FEFE272737373737FE27373737373710
:100B500037FE27373737373737273737373737377E
:100B60003727373737373737373737373737373725
:100B700037373737373737373737372727FEFEFED0
:100B8000FE373737372727FEFE37373737373727D0
:100B9000FE37373737373727FE3737373737373767
:100BA00027373737373737372737373737373737F5
:100BB00037373737373737373737373737373737C5
:100BC00037373737373737373727373737373737C5
:100BD000372737373737373737FE273737373737FE
:100BE00037FE27373737373737FEFE272737373770
:100BF00037FEFEFEFE272737373737373737373789
:100C00003737373737373737373737373737373774
:100C10002737373737373737273737373737372794
:100C2000FE37373737373727FE373737372727FE2F
:100C3000FE37372727FEFEFEFEFEFEFEFEE0E0F05A
:100C4000F0FEFEE0E0F0F0F0F0FEE0F0F0F0F0F0AA
:100C5000F0FEE0F0F0F0F0F0F0E0F0F0F0F0F0F0A6
:100C6000F0E0F0F0F0F0F0D0E0F0F0F0F0F0D0E0F4
:100C7000E0F0F0F0F0F0E0E0E0F0F0E0E0FEFEFEAA
:100C8000FEF0F0F0F0E0E0FEFEF0F0F0F0F0F0E06A
:100C9000FEF0F0F0F0F0F0E0FEF0F0F0F0F0F0F048
:100CA000E0E0D0F0F0F0F0F0E0E0E0D0F0F0F0F0D4
:100CB000F0E0E0E0F0F0F0F0F0F0F0F0F0F0E0E084
:100CC000E0F0F0F0F0F0D0E0E0E0F0F0F0F0F0D0A4
:100CD000E0E0F0F0F0F0F0F0F0FEE0F0F0F0F0F036
:100CE000F0FEE0F0F0F0F0F0F0FEFEE0E0F0F0F00A
:100CF000F0FEFEFEFEE0E0F0F0E0E0E0F0F0F0F00C
:100D0000F0E0E0D0F0F0F0F0F0E0D0F0F0F0F0F053
:100D1000E0F0F0F0F0F0F0F0E0F0F0F0F0F0F0E003
:100D2000FEF0F0F0F0F0F0E0FEF0F0F0F0E0E0FEC9
:100D3000FEF0F0E0E0FEFEFEFEFFFFFFFFFFFFFF24
:100D4000FFFFFFFFFFFFFFFFFFFFFFFFFFFFFFFFB3
:100D5000FFFFFFFF00FFFFFFFFFFFFFFFFFFFFFFA2
:100D6000FFFFFFFFFFFFFFFFFFFFFFFFFFFFFFFF93
:100D7000FFF8F8F8F8F8F8F8F8F8F8F8F8F8F8F8EC
:100D8000F8FFFFFFFFFFFFFFFFFFFFFFFFFFFFFF7A
:100D9000FFFFFFFF00FFFFFFFFFFFFFFFFFFFFFF62
:100DA000FFFFFFFFFFFFFFFFFFFFFFFFFFFFFFFF53
:100DB000FFFFFFFFFFFFFFFFFFFFFFFFFFFFFFFF43
:100DC000FFFFFFFFFFFFFFFFFFFFFFFFFFFFFFFF33
:100DD000FFFFFFFF00FFFFF8F8FFFFFFFFFFFFF837
:100DE000F8FFFFFFFFFFFFF8F8FFFFFFFFFFFFF82F
:100DF000F8FFFFFFFFFFFFF8F8FFFFFFFFFFFFFF18
:100E0000FFFFFFFFFFFFFFFFFFFFFFFFFFFFFFFFF2
:100E1000FFF8F8FF00FFFFFFFFF8F8FFFFFFFFFFFD
:100E2000FFF8F8FFFFFFFFFFFFF8F8FFFFFFFFFFEE
:100E3000FFF8F8FFFFFFFFFFFFFFFFFFFFFFFFF8D7
:100E4000F8FFFFFFFFFFFFF8F8FFFFFFFFFFFFF8CE
:100E5000F8FFFFFF00FFFFF8F8FFFFFFFFFFFFF8BD
:100E6000F8FFFFFFFFFFFFF8F8FFFFFFFFFFFFF8AE
:100E7000F8FFFFFFFFFFFFF8F8F8F8FFFFFFFFFFA5
:100E8000FFF8F8FFFFFFFFFFFFF8F8FFFFFFFFFF8E
:100E9000FFF8F8FF00FFFFFFFFF8F8FFFFFFFFFF7D
:100EA000FFF8F8FFFFFFFFFFFFF8F8FFFFFFFFFF6E
:100EB000FFF8F8FFFFFFFFFFFFFFFFFFFFFFFFF857
:100EC000F8FFFFFFFFFFFFF8F8FFFFFFFFFFFFF84E
:100ED000F8FFFFFF00FFFFF8F8FFFFFFFFFFFFF83D
:100EE000F8FFFFFFFFFFFFFFFFFFFFFFFFFFFFFF19
:100EF000FFFFFFFFFFFFFFFFFFF8F8FFFFFFFFFF10
:100F0000FFF8F8FFFFFFFFFFFFF8F8FFFFFFFFFF0D
:100F1000FFF8F8FF00FFFFFFFFF8F8FFFFFFFFFFFC
:100F2000FFFFFFFFFFFFFFFFFFFFFFFFFFFFFFFFD1
:100F3000FFFFFFFFFFFFFFFFFF00000000000000BA
:100F400000000000000000000000000000000000A1
:100F50000000000000000000000000000000000091
:100F60000000000000000000000000000000000081
:100F70000000000000000000000000FBFBFB000080
:100F8000000000FBFBFB0000000000B8B8B8000048
:100F90000000007070000000000000707000000091
:100FA0000000000000000000000000202000000001
:100FB0000000000000000000000000FB00FB00003B
:100FC000000000FB00FB0000000000B800B80000BB
:100FD0000000000000000000000000000000000011
:100FE0000000000000000000000000000000000001
:100FF00000000000000000000000FB000000FB00FB
:1010000000FBFBFBFBFBFBFB0000B8000000B80093
:101010000000700000007000000070000000700010
:1010200000202020202020200000200000002000A0
:10103000000000000000000000000000FB000000B5
:101040000000FBFBFBFBFBFB00B80000B80000004E
:101050000000707070707000000000007000007080
:1010600000202020202020000000000020000000A0
:10107000000000000000000000FBFB00000000007A
:1010800000FBFB0000FB000000000000B8000000B7
:101090000000007000000000000070000000000070
:1010A00000200000202000000000000020200000A0
:1010B0000000000000000000000000FBFB0000003A
:1010C0000000FB0000FB00000000B8B800B8000002
:1010D0000000707070000000007000007070007000
:1010E0000020000000202000000020202020002000
:1010F00000000000000000000000FBFB00000000FA
:101100000000FBFB00000000000000B80000000031
:10111000000070000000000000000000000000005F
:1011200000000000000000000000000000000000BF
:1011300000000000000000000000000000FBFB00B9
:1011400000000000FB000000000000B800000000EC
:1011500000000070000000000000007000000000AF
:10116000000000002000000000000000002020001F
:101170000000000000000000000000FBFB00000079
:101180000000000000FB0000000000000000B800AC
:10119000000000000000700000000000000070006F
:1011A00000000000002000000000002020000000DF
:1011B000000000000000000000000000000000002F
:1011C00000000000FB0000000000B800B800B800FC
:1011D000000000707070000000007000700070006F
:1011E00000000000200000000000000000000000DF
:1011F00000000000000000000000000000000000EF
:1012000000000000FB00000000000000B80000002B
:10121000000070707070700000000000700000002E
:10122000000000002000000000000000000000009E
:1012300000000000000000000000000000000000AE
:10124000000000000000000000000000000000009E
:1012500000000000000000000000007070000000AE
:1012600000000020200000000000202000000000FE
:10127000000000000000000000000000000000006E
:10128000000000000000000000000000000000005E
:10129000000070707070700000000000000000001E
:1012A000000000000000000000000000000000003E
:1012B000000000000000000000000000000000002E
:1012C000000000000000000000000000000000001E
:1012D000000000000000000000000000000000000E
:1012E000000000202000000000000020200000007E
:1012F000000000000000000000000000000000FBF3
:10130000000000000000FB000000000000B800002A
:1013100000000000700000000000007000000000ED
:10132000000020000000000000200000000000007D
:101330000000000000000000000000FFFFFF0000B0
:101340000000FF0000FFFF0000ADAD000000ADADEC
:1013500000ADAD000000ADAD005B5B0000005B5B6D
:1013600000005B5B00005B000000005B5B5B00005B
:10137000000000000000000000000000FFFF00006F
:10138000000000FFFFFF000000000000ADAD000006
:1013900000000000ADAD0000000000005B5B00003D
:1013A000000000005B5B000000005B5B5B5B5B5B65
:1013B00000000000000000000000FFFFFFFFFF0032
:1013C00000FFFF000000FFFF0000000000FFFFFF24
:1013D000000000ADADADAD000000ADADADAD0000A5
:1013E000005B5B5B00000000005B5B5B5B5B5B5B6F
:1013F00000000000000000000000FFFFFFFFFFFFF3
:101400000000000000FFFF0000000000ADAD000084
:10141000000000ADADADAD000000000000005B5B62
:10142000005B5B0000005B5B00005B5B5B5B5B0089
:10143000000000000000000000000000FFFFFF00AF
:10144000000000FFFFFFFF000000ADAD00ADAD00EC
:1014500000ADAD0000ADAD00005B5B5B5B5B5B5B5B
:1014600000000000005B5B0000000000005B5B0010
:10147000000000000000000000FFFFFFFFFFFF0072
:1014800000FFFF000000000000ADADADADADAD0050
:10149000000000000000ADAD0000000000005B5B3C
:1014A000005B5B0000005B5B00005B5B5B5B5B0009
:1014B0000000000000000000000000FFFFFFFF0030
:1014C0000000FFFF0000000000ADAD0000000000C4
:1014D00000ADADADADADAD00005B5B0000005B5B92
:1014E000005B5B0000005B5B00005B5B5B5B5B00C9
:1014F000000000000000000000FFFFFFFFFFFFFFF3
:1015000000FFFF000000FFFF0000000000ADAD0085
:1015100000000000ADAD00000000005B5B000000BB
:101520000000005B5B0000000000005B5B0000004F
:1015300000000000000000000000FFFFFFFF0000AF
:1015400000FFFF000000FF0000ADADAD0000AD00EA
:101550000000ADADADAD0000005B00005B5B5B5B10
:10156000005B000000005B5B00005B5B5B5B5B00A3
:1015700000000000000000000000FFFFFFFFFF0070
:1015800000FFFF000000FFFF00ADAD000000ADADAB
:101590000000ADADADADADAD0000000000005B5B87
:1015A00000000000005B5B0000005B5B5B5B000019
:1015B000000000000000000000000000000000002B
:1015C000000000FBFB000000000000B8B8000000B5
:1015D000000000000000000000000070700000002B
:1015E00000000020200000000000000000000000BB
:1015F00000000000000000000000000000000000EB
:10160000000000FBFB000000000000B8B800000074
:1016100000000000000000000000007070000000EA
:10162000000000202000000000002020000000003A
:1016300000000000000000000000000000FB0000AF
:1016400000000000FB000000000000B800000000E7
:1016500000007000000000000000007000000000AA
:10166000000000002000000000000000002000003A
:10167000000000000000000000000000000000006A
:1016800000000000000000000000B8B8B8B8B800C2
:10169000000000000000000000007070707070001A
:1016A000000000000000000000000000000000003A
:1016B0000000000000000000000000FB000000002F
:1016C00000000000FB0000000000000000B8000067
:1016D000000000000000700000000000007000002A
:1016E00000000000200000000000002000000000BA
:1016F00000000000000000000000FBFBFBFBFB0003
:1017000000FBFBFBFBFBFBFB00B8B8000000B8B81C
:101710000000000000707000000000707070000099
:101720000000000000000000000000202020000059
:101730000000000000000000000000FBFBFB0000B8
:101740000000FB000000FB0000B80000B800B8007B
:101750000070007000707000007000007070000079
:1017600000002000000000000000002020202000D9
:101770000000000000000000000000FBFBFB000078
:101780000000FBFB00FBFB0000B8B8000000B8B88D
:101790000070700000007070007070707070707079
:1017A0000020200000002020002020000000202039
:1017B000000000000000000000FBFBFBFBFBFB0047
:1017C00000FBFB000000FBFB00B8B8000000B8B84D
:1017D00000707070707070000070700000007070A9
:1017E00000202000000020200020202020202000B9
:1017F0000000000000000000000000FBFBFBFB00FD
:101800000000FBFB0000FBFB00B8B800000000007C
:101810000070700000000000007070000000000008
:1018200000002020000020200000002020202000B8
:10183000000000000000000000FBFBFBFBFB0000C1
:1018400000FBFB0000FBFB0000B8B8000000B8B8CC
:101850000070700000007070007070000000707008
:101860000020200000202000002020202020000058
:10187000000000000000000000FBFBFBFBFBFBFB8B
:1018800000FBFB000000000000B8B80000000000F2
:1018900000707070707070000070700000000000C8
:1018A0000020200000000000002020202020202018
:1018B000000000000000000000FBFBFBFBFBFBFB4B
:1018C00000FBFB000000000000B8B80000000000B2
:1018D0000070707070707000007070000000000088
:1018E0000020200000000000002020000000000078
:1018F0000000000000000000000000FBFBFBFBFB01
:101900000000FBFB0000000000B8B8000000000071
:1019100000707000007070700070700000007070D7
:101920000000202000002020000000202020202097
:10193000000000000000000000FBFB000000FBFBBB
:1019400000FBFB000000FBFB00B8B8000000B8B8CB
:1019500000707070707070700070700000007070B7
:101960000020200000002020002020000000202077
:1019700000000000000000000000FBFBFBFBFBFB85
:1019800000000000FBFB000000000000B8B80000F1
:101990000000000070700000000000007070000087
:1019A0000000000020200000000020202020202037
:1019B000000000000000000000000000FBFBFBFB3B
:1019C0000000000000FBFB000000000000B8B800B1
:1019D0000000000000707000000000000070700047
:1019E0000020000000202000000020202020000017
:1019F000000000000000000000FBFB000000FBFBFB
:101A000000FBFB0000FBFB0000B8B800B8B800000A
:101A100000707070700000000070707070700000D6
:101A20000020200020202000002020000020202076
:101A300000000000000000000000FBFB00000000B0
:101A40000000FBFB000000000000B8B80000000030
:101A500000007070000000000000707000000000C6
:101A60000000202000000000000020202020202076
:101A7000000000000000000000FBFB000000FBFB7A
:101A800000FBFBFB00FBFBFB00B8B8B8B8B8B8B86C
:101A90000070707070707070007070007000707006
:101AA0000020200000002020002020000000202036
:101AB000000000000000000000FBFB000000FBFB3A
:101AC00000FBFBFB0000FBFB00B8B8B8B800B8B8DF
:101AD0000070707070707070007070007070707056
:101AE00000202000002020200020200000002020D6
:101AF00000000000000000000000FBFBFBFBFB00FF
:101B000000FBFB000000FBFB00B8B8000000B8B809
:101B10000070700000007070007070000000707045
:101B20000020200000002020000020202020200095
:101B3000000000000000000000FBFBFBFBFBFB00C3
:101B400000FBFB000000FBFB00B8B8000000B8B8C9
:101B50000070700000007070007070707070700025
:101B600000202000000000000020200000000000F5
:101B700000000000000000000000FBFBFBFBFB007E
:101B800000FBFB000000FBFB00B8B8000000B8B889
:101B900000707000000070700070700070707070E5
:101BA0000020200000202000000020202020002015
:101BB000000000000000000000FBFBFBFBFBFB0043
:101BC00000FBFB000000FBFB00B8B8000000B8B849
:101BD00000707000007070700070707070700000A5
:101BE00000202000202020000020200000202020B5
:101BF00000000000000000000000FBFBFBFB0000F9
:101C000000FBFB0000FBFB0000B8B8000000000078
:101C100000007070707070000000000000007070B4
:101C20000020200000002020000020202020200094
:101C300000000000000000000000FBFBFBFBFBFBC2
:101C400000000000FBFB000000000000B8B800002E
:101C500000000000707000000000000070700000C4
:101C600000000000202000000000000020200000F4
:101C7000000000000000000000FBFB000000FBFB78
:101C800000FBFB000000FBFB00B8B8000000B8B888
:101C900000707000000070700070700000007070C4
:101CA0000020200000002020000020202020200014
:101CB000000000000000000000FBFB000000FBFB38
:101CC00000FBFB000000FBFB00B8B8000000B8B848
:101CD0000070707000707070000070707070700034
:101CE0000000002020200000000000002000000074
:101CF000000000000000000000FBFB000000FBFBF8
:101D000000FBFB000000FBFB00B8B800B800B8B84F
:101D100000707070707070700070707070707070A3
:101D20000020202000202020002020000000202073
:101D3000000000000000000000FBFB000000FBFBB7
:101D400000FBFBFB00FBFBFB0000B8B8B8B8B80019
:101D50000000007070700000000070707070700003
:101D60000020202000202020002020000000202033
:101D700000000000000000000000FBFB0000FBFB77
:101D80000000FBFB0000FBFB0000B8B80000B8B887
:101D900000000070707070000000000070700000A3
:101DA00000000000202000000000000020200000B3
:101DB000000000000000000000FBFBFBFBFBFBFB46
:101DC0000000000000FBFBFB00000000B8B8B800FA
:101DD0000000007070700000000070707000000063
:101DE00000202020000000000020202020202020B3
:101DF0000000000000000000000000FBFBFBFB00F7
:101E0000000000FBFB000000000000B8B80000006C
:101E10000000007070000000000000707000000002
:101E200000000020200000000000002020202000F2
:101E30000000000000000000000000FFFFFFFF00A6
:101E40000000FF00000000FF00FF0000FFFF000097
:101E5000FFFF00FF00000000FFFF00FF0000000088
:101E6000FFFF0000FFFF0000FF00FF00000000FF79
:101E7000000000FFFFFFFF00000000FBFBFBFB007A
:101E80000000000000FBFB000000000000B8B800EC
:101E90000000000000707000000000000070700082
:101EA0000000000000202000000000202020200072
:101EB0000000000000000000000000FB0000000027
:101EC0000000B800B80000000070000000700000C2
:101ED0000000000000000000000000000000000002
:101EE00000000000000000000000000000000000F2
:101EF00000000000000000000000000000000000E2
:101F000000000000000000000000000000000000D1
:101F100000000000000000000000000000000000C1
:101F200000000000000000000020202020202020D1
:101F30000000000000000000001E001C0000000067
:101F40000000000000000000000500040004000480
:101F50000004000400010001000100010001000173
:101F60000004000400040004000400060000000057
:101F70000000000000000000000000000000000061
:101F80000000000000020001000100010015000136
:101F90000001000100010001000100010001001624
:101FA000000100010001000200000000000000002C
:101FB0000000000000000000000000000000000021
:101FC00000020001000100010015000100010001F4
:101FD00000010001000100010001001600010001E4
:101FE00000010002000000000000000000000000EE
:101FF00000000000000000000000000000020001DE
:1020000000010001001500010001000100010001B4
:1020100000010001000100160001000100010002A2
:1020200000000000000000000000000000000000B0
:10203000000000000000000000020001000100019B
:102040000015000100010001000100010001000174
:102050000001001600010001000100020000000064
:102060000000000000000000000000000000000070
:102070000000000000020001000100010015000145
:102080000001000100010001000100010001001633
:10209000000100010001000200000000000000003B
:1020A0000000000000000000000000000000000030
:1020B00000020001000100010017000300030003FB
:1020C00000030003000300030003001800010001E7
:1020D00000010002000000000000000000000000FD
:1020E00000000000000000000000000000020001ED
:1020F00000010001000100010001000100010001D8
:1021000000010001000100010001000100010002C6
:1021100000000000000000000000000000000000BF
:1021200000000000000000000002000100010001AA
:102130000001000100010001000100010001000197
:102140000001000100010001000100020000000088
:10215000000000000000000000000000000000007F
:102160000000000000020001000100010001000168
:102170000001000100010001000100010001000157
:10218000000100010001000200000000000000004A
:10219000000000000000000000000000000000003F
:1021A0000002000100010001000100010001000126
:1021B0000001000100010001000100010001000117
:1021C000000100020000000000000000000000000C
:1021D00000000000000000000000000000020001FC
:1021E00000010001000100010001000100010001E7
:1021F00000010001000100010001000100010002D6
:1022000000000000000000000000000000000000CE
:1022100000000000000000000002000100010001B9
:1022200000010001000100010001000100010001A6
:102230000001000100010001000100020000000097
:10224000000000000000000000000000000000008E
:102250000000000000020011001100110011001127
:1022600000110011001100110011001100110011E6
:102270000011001100110002000000000000000029
:10228000000000000000000000000000000000004E
:1022900000020012001200120012001200120012BE
:1022A000001200120012001200120012001200129E
:1022B000001200020000000000000000000000000A
:1022C000000000000000000000000000000200010B
:1022D00000010001000100010001000100010001F6
:1022E00000010001000100010001000100010002E5
:1022F00000000000000000000000000000000000DE
:1023000000000000000000000002000100010001C8
:1023100000010001000100010001000100010001B5
:1023200000010001000100010001000200000000A6
:10233000000000000000000000000000000000009D
:102340000000000000020001000100010001000186
:102350000001000100010001000100010001000175
:102360000001000100010002000000000000000068
:10237000000000000000000000000000000000005D
:102380000002000100010001000100010001000144
:102390000001000100010001000100010001000135
:1023A000000100020000000000000000000000002A
:1023B000000000000000000000000000000200011A
:1023C0000001000100010001000100010001000105
:1023D00000010001000100010001000100010002F4
:1023E00000000000000000000000000000000000ED
:1023F00000000000000000000002000100010001D8
:1024000000010001000100010001000100010001C4
:1024100000010001000100010001000200000000B5
:1024200000000000000000000000000000000000AC
:102430000000000000020001000100010013000381
:102440000003000300030003000300030003001463
:102450000001000100010002000000000000000077
:10246000000000000000000000000000000000006C
:10247000000200010001000100150001000100013F
:10248000000100010001000100010016000100012F
:102490000001000200000000000000000000000039
:1024A0000000000000000000000000000002000129
:1024B0000001000100150001000100010001000100
:1024C00000010001000100160001000100010002EE
:1024D00000000000000000000000000000000000FC
:1024E00000000000000000000002000100010001E7
:1024F00000150001000100010001000100010001C0
:1025000000010016000100010001000200000000AF
:1025100000000000000000000000000000000000BB
:102520000000000000020001000100010015000190
:10253000000100010001000100010001000100167E
:102540000001000100010002000000000000000086
:10255000000000000000000000000000000000007B
:10256000000200010001000100150001000100014E
:10257000000100010001000100010016000100013E
:102580000001000200000000000000000000000048
:102590000000000000000000000000000007000430
:1025A0000004000400040004000100010001000117
:1025B00000010001000400040004000400040008FD
:1025C00000000000000000000000000000090005FD
:1025D00000050004000600000002000000050004E1
:1025E00000000002000000020000000200000002E3
:1025F00000000002000200040002000000020000CF
:1026000000020004000000020000000200000002BE
:1026100000000002000000020002000000020000B2
:102620000002000000020000000200170005000286
:102630000000000200000005000400060000000584
:10264000000400040000000200000000000000057B
:10265000000400040000000200000002000200006C
:102660000002000000020000000200000002000062
:102670000000000000020000000200000002000054
:10268000000000000002000000020002000400023E
:102690000000000200000002000000020000000034
:1026A000000000020004000000000002000400001E
:1026B0000000000700040008000200000002000003
:1026C0000002000000020000000200000000000004
:1026D00000020000000200000002000000000000F4
:1026E00000000002000000020000000200000007DD
:1026F00000040008000000070004000400000002BD
:1027000000000002000000070004000400000000B8
:10271000000200000002020D0E0F100202090A0B57
:102720000C0400050005000400040006000200007F
:102730000000000200020000000000020002000091
:102740000000000200070004000400080004000567
:102750000000000000000002000000000000000275
:102760000000000000000002000000000000000265
:102770000000000000000002000400050004000446
:102780000004000600000000000000020005000434
:102790000004000800020000000000000007000420
:1027A0000004000400040005000400040004000606
:1027B000000000000000000200000004000400020D
:1027C00000000000000000020004000400040008F3
:1027D00000040005000200000000000000020000EC
:1027E00000000002000700040004000200000000D6
:1027F00000000002000000000000000200040005CC
:1028000000050004000400040002000000000000B5
:1028100000070004000400060000000000000002A1
:102820000004000400040008000400050005000482
:10283000000400000002000000000000000200048C
:10284000000400060002000000000002000700046F
:102850000004000800040005000400040004000651
:102860000000000000000002000000000000000264
:102870000000000000000002000000000000000254
:10288000000002040007700000D800083C010500A9
:1028900000FF0001030000F64B010302050000FFEA
:1028A0000002080000D80008500007F005040200EC
:1028B00007F00504020007F00503020007F0050316
:1028C000020007F00507F00507F000FF00071E00F3
:1028D000000F0002000008280103020103020103A7
:1028E00002010302010302010302010302010302C8
:1028F00001030201030201030201050000FF0000C1
:102900000081280000000000000092280000000064
:10291000000000A02800000000000000CC280000FB
:102920000000203220504C4159455253003E322085
:10293000504C4159455253002048415244003E48B2
:10294000415244002045415359003E4541535900EE
:10295000203120504C41594552003E3120504C41CD
:1029600059455200425920475341000011241FBECF
:10297000CFEFD0E1DEBFCDBF14BE88E10FB6F89433
:1029800080936000109260000FBE12E0A0E0B1E002
:10299000E8EAF5E602C005900D92A432B107D9F736
:1029A0001FE0A0E4B2E001C01D92A336B107E1F739
:1029B0000E941620882311F40E942C20F894E2EA49
:1029C000FCE080E881939EE0EE3AF907D9F782EACD
:1029D0009CE09093AF0E8093AE0E1092B00E1092CA
:1029E000B40E1092BE0E1092C80E1092D20E91E04C
:1029F0009093D40E9093D50E9093D30E10928100A5
:102A000015BC8FEF87B984B980E98AB98BB18C6125
:102A10008BB98CE081B98BEF82B910927A0C86E089
:102A200080937B0C80EE8093870C84E18093860CEE
:102A3000109285001092840083E0809389008DE8D5
:102A40008093880089E08093810082E080936F000A
:102A500082E484BD17BC95BD83E88093B0001092DA
:102A6000B3009093B10081E185B91092930C10925C
:102A70007E0C10927F0C10928E0C10928D0C109286
:102A8000920C1092910C1092A00C9093B30E0E9495
:102A9000CA1F80E00E94AB1F80FF03C084E00E9439
:102AA000A81F0E948A2B78940E94952C0E94963130
:102AB0000C94D2320C94000009E00A95F1F700C0A2
:102AC000E9E0FCE0C0E4D2E02091550F0027A081AE
:102AD000B181AC0FBD1F1C911283021708F4102F97
:102AE0001C9333960395093190F30AE216E01A9588
:102AF000F1F70A95D9F7C0E4D2E000EEA02E6627E0
:102B000078E02CD237E23A95F1F70E94BB153BE012
:102B10003A95F1F700C0AA9489F06395C89568309A
:102B200029F0C895C895C8950000EBCF662700240A
:102B30003EE1C30FD01DC8950000E3CF35E03A95C4
:102B4000F1F700C00BD211240E94002B11E000917C
:102B50007D0C012700937D0C20917E0C002309F051
:102B6000212720937E0CE1E0E0937C0CE2E0E093EF
:102B7000360011240895DE01679F00000091880C43
:102B80001091890C00541640000D111D180109EC1C
:102B900015E0000D111D280130E41EE12D912931B1
:102BA0006FB660FA239FA1010EF4A201040E151E58
:102BB000F001F6F0059108B92D91059108B9239F10
:102BC000059108B929316FB6059108B908F4A20139
:102BD000059108B960FA040E059108B9151E1A95F9
:102BE000059108B9059139F1F00108B91EF700C047
:102BF000019108B92D910191000008B9239F01911D
:102C0000000008B929316FB660FA019108B90EF0D9
:102C1000A1010191040E08B9151E00C0019108B967
:102C2000000000C0019108B901911A9521F0F0014E
:102C300008B906F6DDCF08B90027C895000008B925
:102C400005E00A95F1F7089520E4E091880CF091F1
:102C5000890C8951829FE00DF11DA9ECB5E0629FBE
:102C6000A00DB11D002405900D9205900D920590C8
:102C70000D9205900D9205900D9205900D92059084
:102C80000D9205900D9205900D9205900D92059074
:102C90000D9205900D9205900D9205900D92059064
:102CA0000D9205900D9205900D9205900D92059054
:102CB0000D9205900D9205900D9205900D92059044
:102CC0000D9205900D9205900D9205900D92059034
:102CD0000D9205900D9205900D9205900D92059024
:102CE0000D9205900D9205900D9205900D92059014
:102CF0000D9205900D9205900D9205900D92059004
:102D00000D9205900D9205900D9205900D920590F3
:102D10000D9205900D9205900D9205900D920590E3
:102D20000D9205900D9205900D9205900D920590D3
:102D30000D9205900D9205900D9205900D920590C3
:102D40000D9205900D9205900D9205900D920590B3
:102D50000D9205900D9205900D9205900D920590A3
:102D60000D9205900D92112408950F931F9395E0F5
:102D7000899FE8E8F5E0E00DF11D048182819381EF
:102D8000E0E48E9FD0019E9FB00D98E0099FE4E59E
:102D9000FCE00024E10DF01D00801180F001EA0F3D
:102DA000FB1FA9ECB5E090E4699FA00DB11D1124B3
:102DB000403051F4A20FB11D822F122F00FF11C01D
:102DC000379610E1121B0DC088E0821B00FD04C085
:102DD000182FE80FF11D05C018E0120FE20FF11DCA
:102DE0003197503031F498E0939FA00DB11D932F8F
:102DF00006C098E0931B58E0599FE00DF11D112487
:102E00003EEFE89400FD689458E0591B48E0481BE9
:102E10003EF0259123132C9311964A95D1F707C0C4
:102E20002491319723132C9311964A95C9F7E10FFA
:102E3000F11DA80FB11D5A9549F711241F910F914B
:102E40000895BC17D317E117251728980E943A193F
:102E5000EBE0EA95F1F700C0E7E0E0938900EBE1F1
:102E6000E0938800E0E0F6E0D1D0289AE0FF30D08F
:102E7000E0FF2DC02F933F934F935F936F937F930A
:102E80008F939F93AF93BF9378941124E091800C1C
:102E9000F091810CE115F10509F009950E940520DA
:102EA0000E94A72D0E9460181124E091820CF091DD
:102EB000830CE115F10509F00995BF91AF919F9140
:102EC0008F917F916F915F914F913F912F910895D5
:102ED000EF93FDEF0090840CF019E0917B0CEF175D
:102EE000B8F4FDEF0090840CF0190090850CF019F7
:102EF000EF1770F0EDE1FF2700800F92EA95E1F700
:102F00000E945C15E1E0FF270F900192EE31E0F3A3
:102F1000EF910895FF93EF93EFB7EF93E091840063
:102F2000EE50F1E0EF1700F0F395FA30D8F305D04A
:102F3000EF91EFBFEF91FF9118950F921F92E2E48E
:102F4000FEE200907A0C000C1124E00DF11D0590BA
:102F50001490F00109951F900F90089528980E94F1
:102F60003A19E5E1EA95F1F7E0917B0CEA95E093F7
:102F70007B0C289A00C0089528980E945C19289A12
:102F80000000E1E0F6E042D0E3E0E0938900EDE804
:102F9000E0938800F091860CF093840CF091870CFC
:102FA000F093850C089528980E945C19E9EA0000C6
:102FB000EA95E9F700C00000F6E0E2E027D0289AA1
:102FC000089528980E945C19289A0000E3E0FDEF1C
:102FD0001DD0E0917B0CE53091F4E0917D0CE13067
:102FE0000000F091930C19F4F091930CF195E3E04B
:102FF000E0938900EDE8EF0FE09388000895E3E0A7
:10300000E0938900EDE8E0938800089500907B0C40
:103010000A9410905F0011FC0F2E00927B0C009020
:103020007A0C11FC0E2E00927A0CE0E011FCE1E02B
:10303000089599277727833008F00895E8E0FAE4A7
:10304000660F771FE60FF71FA591B491E4EBFEE042
:103050002AE0289FE00DF11DA183B2831124089579
:103060009091D30E9170880F892B8093D30E089581
:1030700099277727E4EBFEE02AE0289FE00DF11D79
:103080006E3F31F46091D30E6E7F6093D30E0BC010
:103090006F3F31F46091D30E6E6F6093D30E03C017
:1030A0007CE4760F75831124089599277727E4EB44
:1030B000FEE02AE0289FE00DF11D608311240895B1
:1030C000E091B30EE0FD0E94A3210090B00E00201D
:1030D00019F4A2EABCE002C0A8EABDE021E00226A1
:1030E0000092B00E22E02093B10EE091B30EE0FF0B
:1030F00008952F923F924F925F926F927F928F929C
:103100009F92AF92BF92CF92DF92EF92FF920F9376
:103110001F93CF93DF935091D20E6091D40E709194
:10312000D50E8091D60E2090B50E3090B60E409000
:10313000B80E5090B90E6090B70E1091B40E70900A
:10314000BF0E8090C00E9090C10EA090C20EB090A5
:10315000C30E2091BE0EC090C90ED090CA0EE09052
:10316000CC0EF090CD0E0091CB0E3091C80E9FEF9B
:10317000620C431CF2014491410300240008C12D5C
:10318000D02D970CA81CF50144914203002400089F
:10319000C10DD01D0C0DED1CF7014491430300241B
:1031A0000008C10DD01D8A956AF44091D30E842F7A
:1031B0008695062E0694062600FA7695679576F98A
:1031C00040FF66F940E860FD4FE745030024000832
:1031D000C10DD01D0024C038D0050CF0CFE70A94F3
:1031E000C038D0050CF4C0E8C058CD939A9509F0CA
:1031F000BFCF4091B10E4A954093B10E97E009F0D0
:10320000B7CF6092B70E4092B80E9092C10EA092C6
:10321000C20E0093CB0EE092CC0E6093D40E70934E
:10322000D50E8093D60EDF91CF911F910F91FF9015
:10323000EF90DF90CF90BF90AF909F908F907F9056
:103240006F905F904F903F902F900895E091AE0E59
:10325000F091AF0E019100000093B3000EE0EE3A42
:10326000F00702EA1CE008F0F801E093AE0EF093DC
:10327000AF0E08950C943C190C943E190F931F93B4
:103280002F93E091AE0EF091AF0E01910093B30039
:103290000EE0EE3AF00708F400C010F0E2EAFCE0BD
:1032A000E093AE0EF093AF0E26E02A95F1F700C042
:1032B0002F911F910F9108950000E0917B0CE0FF8A
:1032C000DDCFE1E1EA95F1F700C00895EF92FF92BA
:1032D0000F931F937B018C0120E030E040E05FE41E
:1032E0000E94661C88238CF0C801B70120E030E002
:1032F00040E05FE40E94DE1A0E94241D9B01AC01A5
:10330000205030404040504806C0C801B7010E94DC
:10331000241D9B01AC01B901CA011F910F91FF90BF
:10332000EF900895A0E0B0E0E8E9F9E10C949B3259
:10333000DC012B01FA019C91923008F439C1EB01B8
:103340008881823008F433C1943069F4843009F004
:103350002FC111969C9111978981981709F428C162
:10336000ABE1B1E025C1843009F421C18230A9F478
:10337000923009F01DC19A01AD0188E0EA0109907F
:10338000AE01E90109929E018150C1F7E2018981F4
:1033900011969C918923818308C1923009F407C159
:1033A00012962D903C901397EB018A819B81149685
:1033B000AD90BD90CD90DC901797EC80FD800E8194
:1033C0001F819101281B390BB90137FF04C0662703
:1033D0007727621B730B603271050CF061C0121607
:1033E00013066CF537014801062E04C096948794A5
:1033F000779467940A94D2F721E030E040E050E0FF
:1034000004C0220F331F441F551F6A95D2F7215065
:103410003040404050402E213F2140235123211570
:1034200031054105510521F021E030E040E050E058
:1034300079018A01E628F728082919293CC0232B9D
:10344000D1F1260E371E35014601062E04C0969492
:103450008794779467940A94D2F721E030E040E0B3
:1034600050E004C0220F331F441F551F6A95D2F746
:1034700021503040404050402A213B214C215D21C9
:10348000211531054105510521F021E030E040E0F2
:1034900050E059016A01A628B728C828D9280BC0CE
:1034A000821593052CF01C01AA24BB24650103C0DE
:1034B000EE24FF24870111969C91D20111968C91E4
:1034C000981709F445C0992339F0A80197012A19E2
:1034D0003B094C095D0906C0A60195012E193F095B
:1034E000400B510B57FD08C0118233822282248386
:1034F0003583468357831DC081E0818333822282D6
:1035000088279927DC01821B930BA40BB50B8483BE
:103510009583A683B7830DC0220F331F441F551F09
:1035200024833583468357838281938101979383D4
:1035300082832481358146815781DA01C90101974F
:10354000A109B1098F5F9F4FAF4FBF4328F30BC055
:10355000918333822282EA0CFB1C0C1D1D1DE48228
:10356000F5820683178383E0808324813581468139
:10357000578157FF1AC0C901AA2797FDA095BA2FF6
:1035800081709070A070B0705695479537952795CB
:10359000822B932BA42BB52B84839583A683B7838F
:1035A00082819381019693838283DF0101C0D201DE
:1035B000CD01CDB7DEB7E2E10C94B732A0E2B0E0C6
:1035C000E4EEFAE10C94A73269837A838B839C83BF
:1035D0002D833E834F835887E9E0EE2EF12CEC0ECD
:1035E000FD1ECE010196B7010E949C1E8E010F5E4A
:1035F0001F4FCE010596B8010E949C1E8A8991E05A
:1036000089278A8BC701B801AE01475E5F4F0E94D0
:1036100092190E94C71DA096E6E00C94C332A0E266
:10362000B0E0E5E1FBE10C94A73269837A838B83F8
:103630009C832D833E834F835887F9E0EF2EF12C36
:10364000EC0EFD1ECE010196B7010E949C1E8E015C
:103650000F5E1F4FCE010596B8010E949C1EC70148
:10366000B801AE01475E5F4F0E9492190E94C71DCC
:10367000A096E6E00C94C332A0E2B0E0E2E4FBE105
:103680000C949B3269837A838B839C832D833E8346
:103690004F835887CE010196BE01675F7F4F0E941E
:1036A0009C1ECE010596BE016F5E7F4F0E949C1E40
:1036B0009985923088F089898230C8F0943019F465
:1036C000823051F404C0843029F4923081F48BE1CB
:1036D00091E0C6C0923049F420E09A858A89981317
:1036E00021E02A87CE010996BBC0823049F420E050
:1036F0009A858A89981321E02A8BCE014196B0C021
:103700002D843E844F8458886D887E888F88988C5D
:10371000EE24FF248701AA24BB24650140E050E089
:1037200060E070E0E0E0F0E0C10181709070892B12
:10373000E9F0E60CF71C081D191D9A01AB012A0DD2
:103740003B1D4C1D5D1D80E090E0A0E0B0E0E61464
:10375000F7040805190520F481E090E0A0E0B0E04E
:10376000BA01A901480F591F6A1F7B1FAA0CBB1C75
:10377000CC1CDD1C97FE08C081E090E0A0E0B0E02A
:10378000A82AB92ACA2ADB2A3196E032F10549F083
:10379000660C771C881C991C569447943794279480
:1037A000C3CFFA85EA892B893C898B859C85280FB4
:1037B000391F2E5F3F4F17C0CA0181709070892B4F
:1037C00061F016950795F794E79480E090E0A0E00B
:1037D000B0E8E82AF92A0A2B1B2B769567955795AE
:1037E00047952F5F3F4F77FDE7CF0CC0440F551F24
:1037F000661F771F17FD4160EE0CFF1C001F111F95
:1038000021503040403090E0590790E0690790E443
:10381000790760F32B8F3C8FDB01CA018F779070A3
:10382000A070B07080349105A105B10561F447FD29
:103830000AC0E114F1040105110529F0405C5F4F55
:103840006F4F7F4F40781A8EFE1711F081E08A8FFC
:103850004D8F5E8F6F8F78A383E0898FCE0149965D
:103860000E94C71DA096E2E10C94B732A8E1B0E037
:10387000ECE3FCE10C94A73269837A838B839C830D
:103880002D833E834F83588789E0E82EF12CEC0E80
:10389000FD1ECE010196B7010E949C1E8E010F5E97
:1038A0001F4FCE010596B8010E949C1E898582306B
:1038B00040F08989823028F0C701B8010E94141FA6
:1038C00001C08FEF6896E6E00C94C332A8E1B0E047
:1038D000ECE6FCE10C94A73269837A838B839C83AA
:1038E0002D833E834F83588789E0E82EF12CEC0E20
:1038F000FD1ECE010196B7010E949C1E8E010F5E37
:103900001F4FCE010596B8010E949C1E898582300A
:1039100040F08989823028F0C701B8010E94141F45
:1039200001C08FEF6896E6E00C94C332A8E1B0E0E6
:10393000ECE9FCE10C94A73269837A838B839C8346
:103940002D833E834F83588789E0E82EF12CEC0EBF
:10395000FD1ECE010196B7010E949C1E8E010F5ED6
:103960001F4FCE010596B8010E949C1E89858230AA
:1039700040F08989823028F0C701B8010E94141FE5
:1039800001C081E06896E6E00C94C332A8E0B0E0A4
:10399000ECECFCE10C94A4329B01AC0183E0898344
:1039A000DA01C9018827B7FD83959927AA27BB2784
:1039B000B82E211531054105510519F482E089839E
:1039C0003AC08823A9F0203080E0380780E048071B
:1039D00080E8580729F460E070E080E09FEC30C098
:1039E000EE24FF248701E21AF30A040B150B02C030
:1039F00079018A018EE1C82ED12CDC82CB82ED8246
:103A0000FE820F831887C801B7010E94781D0197B5
:103A10001816190684F4082E04C0EE0CFF1C001FB3
:103A2000111F0A94D2F7ED82FE820F831887C81AFD
:103A3000D90ADC82CB82BA82CE0101960E94C71DD0
:103A40002896E9E00C94C032ACE0B0E0EAE2FDE197
:103A50000C94AB3269837A838B839C83CE0101966D
:103A6000BE016B5F7F4F0E949C1E8D81823061F191
:103A7000823050F1843021F48E81882351F12EC0A0
:103A80002F81388537FD20C06E812F3131051CF024
:103A90006623F9F023C08EE190E0821B930B298509
:103AA0003A854B855C8504C0569547953795279593
:103AB0008A95D2F76623B1F05095409530952195BF
:103AC0003F4F4F4F5F4F0EC020E030E040E050E0EE
:103AD00009C02FEF3FEF4FEF5FE704C020E030E079
:103AE00040E050E8B901CA012C96E2E00C94C732DC
:103AF000EF92FF920F931F937B018C0180E0E816F9
:103B000080E0F80681E0080780E0180788F48FEF6E
:103B1000E816F1040105110531F028F088E090E085
:103B2000A0E0B0E017C080E090E0A0E0B0E012C0FC
:103B300080E0E81680E0F80680E0080781E01807DA
:103B400028F088E190E0A0E0B0E004C080E190E0DF
:103B5000A0E0B0E020E230E040E050E0281B390B6C
:103B60004A0B5B0B04C016950795F794E7948A956A
:103B7000D2F7F701ED5DFE4F8081281B3109410925
:103B80005109C9011F910F91FF90EF900895DF92A5
:103B9000EF92FF920F931F93FC01E480F580068162
:103BA0001781D1808081823048F480E090E0A0E1EC
:103BB000B0E0E82AF92A0A2B1B2BA5C0843009F4AF
:103BC0009FC0823021F4EE24FF24870105C0E11458
:103BD000F1040105110519F4E0E0F0E096C06281FE
:103BE00073819FEF623879070CF05BC022E83FEFEA
:103BF000261B370B2A3131052CF020E030E040E065
:103C000050E02AC0B801A701022E04C0769567953E
:103C1000579547950A94D2F781E090E0A0E0B0E094
:103C200004C0880F991FAA1FBB1F2A95D2F70197BE
:103C3000A109B1098E219F21A023B1230097A105DD
:103C4000B10521F081E090E0A0E0B0E09A01AB0185
:103C5000282B392B4A2B5B2BDA01C9018F77907007
:103C6000A070B07080349105A105B10539F427FF2B
:103C700009C0205C3F4F4F4F5F4F04C0215C3F4F56
:103C80004F4F5F4FE0E0F0E02030A0E03A07A0E0C7
:103C90004A07A0E45A0710F0E1E0F0E079018A0158
:103CA00027C06038710564F5FB01E158FF4FD8016A
:103CB000C7018F779070A070B07080349105A10516
:103CC000B10539F4E7FE0DC080E490E0A0E0B0E07B
:103CD00004C08FE390E0A0E0B0E0E80EF91E0A1FF8
:103CE0001B1F17FF05C016950795F794E7943196AB
:103CF00087E016950795F794E7948A95D1F705C064
:103D0000EE24FF248701EFEFF0E06E2F6795662722
:103D10006795902F9F77D794DD24D7948E2F869523
:103D2000492F462B582F5D29B701CA011F910F91CA
:103D3000FF90EF90DF900895FC01DB0140815181FD
:103D40002281622F6F7770E0221F2227221F93812A
:103D5000892F880F822B282F30E0991F9927991FD0
:103D600011969C93119721153105A9F5411551051F
:103D70006105710511F482E037C082E89FEF139668
:103D80009C938E9312979A01AB0167E0220F331F29
:103D9000441F551F6A95D1F783E08C930DC0220F05
:103DA000331F441F551F12968D919C9113970197B5
:103DB00013969C938E931297203080E0380780E012
:103DC000480780E4580758F314962D933D934D937C
:103DD0005C93179708952F3F310579F441155105EC
:103DE0006105710519F484E08C93089564FF03C0A4
:103DF00081E08C9312C01C9210C02F573040139654
:103E00003C932E93129783E08C9387E0440F551FC9
:103E1000661F771F8A95D1F7706414964D935D9352
:103E20006D937C93179708951F93DC01FB019C9180
:103E3000923008F447C08081823008F443C0943047
:103E400051F411961C91843099F58181682F70E0AE
:103E5000611B71093FC0843021F0923031F482300F
:103E6000B9F18181882389F12DC011961C91119798
:103E70008230F1F081811817D9F412962D913C917E
:103E80001397828193818217930794F0281739073B
:103E9000BCF014968D919D910D90BC91A02D248124
:103EA000358146815781281739074A075B0718F47F
:103EB000112341F00AC082179307A407B50740F405
:103EC000112319F061E070E005C06FEF7FEF02C0D1
:103ED00060E070E0CB011F9108958093540C9093A3
:103EE000550C0895E8E4F3E0A0E4B2E069E16D93D5
:103EF0003197E9F711240895992777272EE1629FDA
:103F0000080E191EA0E4B2E0A00DB11D475E4C934F
:103F10001124089599272EE1629F080E191EA0E42E
:103F2000B2E0A00DB11D50918A0C450F4C931124A5
:103F3000089580938A0C08958093880C9093890C3F
:103F4000089580917C0C0895112410927C0C0895A2
:103F50008093930C0895882329F480918B0C909181
:103F60008C0C089580918F0C9091900C0895F99984
:103F7000FECF92BD81BD60BDF894FA9AF99A78940B
:103F80000895F999FECF92BD81BDF894F89A80B555
:103F900078940895129AC895C895129820E030E058
:103FA00080E090E040E036952795969587951398A8
:103FB000C895C895009B3068019B9068139AC89576
:103FC000C8954F5F403179F730938C0C20938B0C60
:103FD0009093900C80938F0C80918B0C90918C0C13
:103FE0000F9731F080918F0C9091900C0F9761F4A6
:103FF00028E088E190E00FB6F894A89580936000DF
:104000000FBE20936000FFCF08951092E80E009934
:1040100003C081E08093E80E019905C08091E80E0D
:1040200082608093E80E0E94CA1F08951F9380E06B
:1040300090E00E94C11F182F81E090E00E94C11FF4
:1040400090E0382F20E0210F311D2A55354509F425
:1040500091E0892F1F910895CF93DF93C0E0D0E0C6
:10406000FE01E059FF4FE491CE016E2F0E94B71F71
:104070002196C032D105A1F7C0E2D0E0CE016FEFAA
:104080000E94B71FCE0101966FEF0E94B71FA09646
:1040900088E0C030D80791F7DF91CF91089590E084
:1040A00026E130E0829FF001839FF00D929FF00D9A
:1040B0001124E551F14F628708956093D30E08955E
:1040C00090E026E130E0829FF001839FF00D929F07
:1040D000F00D1124E551F14F13861182089590E0FF
:1040E00026E130E0829FF001839FF00D929FF00D5A
:1040F0001124E551F14F81E0838B089590E026E192
:1041000030E0829FF001839FF00D929FF00D11240B
:10411000E551F14F6187089590E026E130E0829FFC
:10412000F001839FF00D929FF00D1124E551F14FA6
:104130006483089590E026E130E0829FF001839F40
:10414000F00D929FF00D1124E551F14F6583089514
:104150009093460F8093450F8FE680934B0F1092FC
:10416000A10CEBEEFEE021E08FEF98E120831086BA
:104170008683878314861182958376963FE0E334A5
:10418000F307A1F70895DC01ED91FC911197AF01C0
:104190004F5F5F4F11965C934E93E4912E2F30E06A
:1041A000E7FF13C02F7730703695322F22273795CF
:1041B0002795FA014F5F5F4FE4918E2F8F77280F7D
:1041C000311DE7FDF1CF4D935C93C9010895FC01CA
:1041D000108A12869FEF91876087138A118A81E087
:1041E0008387128A14829683428308950E94381826
:1041F0000895EF92FF920F931F93CF93DF93182FA1
:10420000062FF42EE22EC82FD0E086E190E0C89F62
:10421000F001C99FF00DD89FF00D1124E551F14F29
:104220008385882321F08181882309F085C0EE20D1
:1042300091F486E190E0C89FF001C99FF00DD89FEE
:10424000F00D1124E551F14F138A8285882309F07E
:1042500073C0108671C0133059F481E091E09093DF
:10426000D50E8093D40E81E08093D30E0F2D08C01D
:10427000812F60E00E943818812F6F2D0E9419183D
:104280000F3799F486E190E0C89FF001C99FF00DC7
:10429000D89FF00D1124E551F14F8091480F878789
:1042A00089E49FE0958B848B30C089E0089FC00132
:1042B0001124E091450FF091460FE80FF91F339656
:1042C000459154914115510571F486E190E0C89FE4
:1042D000F001C99FF00DD89FF00D1124E551F14F69
:1042E000158A148A12C0FA01249186E190E0C89FD1
:1042F000F001C99FF00DD89FF00D1124E551F14F49
:1043000027874F5F5F4F558B448B86E190E0C89FB6
:10431000F001C99FF00DD89FF00D1124E551F14F28
:104320000487118286E1189FC00111248551914FA5
:104330006E2D4F2D0E94E720DF91CF911F910F919D
:10434000FF90EF900895CF92DF92FF920F931F930B
:10435000CF93DF93E4EFFEE08181282F332727FD01
:1043600030958081280F311D2F3F310519F014F051
:104370002FEF30E0C90137FF02C080E090E080837A
:1043800076964FE0EC34F40739F78091A10C88233E
:1043900009F028C144C1E0914E0FF0914F0F9F01E9
:1043A0002F5F3F4F30934F0F20934E0F44914F3F5D
:1043B00069F5A9014F5F5F4F50934F0F40934E0F28
:1043C000F90184918F3219F41092A10C19C1863031
:1043D00009F0FBC0FA013196CF01019690934F0F7F
:1043E00080934E0FE491E33529F49093520F80931C
:1043F000510FEBC0E53409F0E8C08091510F909166
:10440000520F90934F0F80934E0FDFC047FF02C0B3
:104410004093470F542F5F70842F90E0807F9070FF
:10442000803B910531F1803C910581F18039910506
:1044300009F043C0C9010196F90144910196909396
:104440004F0F80934E0F0197FC012491852F90E030
:104450008C9FF0018D9FF00D9C9FF00D1124E55174
:10446000F14F8081882309F4B0C0220F852F648525
:1044700053C0C9010196F9014491019690934F0FE1
:1044800080934E0F0197FC01249153C02F5F3F4F43
:1044900030934F0F20934E0F21503040F90124915B
:1044A000852F90E08C9FF0018D9FF00D9C9FF00D6B
:1044B0001124E551F14F248788C08091470F582F70
:1044C0005F7090E0807F9070803B910541F1803C6F
:1044D000910509F46EC08039910509F076C02F5F0F
:1044E0003F4F30934F0F20934E0F21503040F90132
:1044F0002491852F90E08C9FD0018D9FB00D9C9FC3
:10450000B00D1124A551B14F8C91882309F45DC0E1
:10451000220F852F1C966C910E94F92056C02F5FA8
:104520003F4F30934F0F20934E0F21503040F901F1
:104530002491473071F4852F90E08C9FF0018D9F7E
:10454000F00D9C9FF00D1124E551F14F220F2783B0
:104550003CC04B3071F4852F90E08C9FF0018D9F13
:10456000F00D9C9FF00D1124E551F14F220F268391
:104570002CC04C3571F4852F90E08C9FF0018D9FFD
:10458000F00D9C9FF00D1124E551F14F220F248373
:104590001CC04436D1F4852F90E08C9FF0018D9F94
:1045A000F00D9C9FF00D1124E551F14F220F258352
:1045B0000CC0852F90E08C9FF0018D9FF00D9C9F8B
:1045C000F00D1124E551F14F44878EE49FE00E94E5
:1045D000C32090934D0F80934C0F1092440F109274
:1045E000430F02C0C6E1D0E06091430F7091440FC9
:1045F00080914C0F90914D0F6817790709F4CBCE3D
:104600006F5F7F4F7093440F6093430F8091490F0A
:1046100090914A0F019690934A0F8093490F04EBB3
:104620001EE0CCEEDEE0FF24BFEFCB2ED12C8A893A
:10463000882309F05EC08B899C89892B09F456C0B8
:104640009F858E85981708F04CC050C08B852B89AC
:104650003C898F37E9F4D9018D91BC8BAB8B8F3FAF
:1046600001F1F90161811196BC8BAB8BE82FF0E071
:10467000EE0FFF1FE057FF4F0190F081E02D8F2DCF
:104680000995EB89FC8981918E87FC8BEB8B28C087
:10469000A9014F5F5F4F5C8B4B8BF90184918F3F7A
:1046A00021F418821C8A1B8A21C04F5F5F4F5C8BEC
:1046B0004B8B41505040FA01649190E0880F991F54
:1046C00080579F4FFC01259134918F2DF901099559
:1046D000EB89FC893196FC8BEB8B3197E491EE876B
:1046E0001F869F858E85981709F4B0CF8F858F5FC1
:1046F0008F878A85882319F420E030E06BC0888991
:104700008F3F11F08F5F888B9F81992309F45CC0E4
:104710002885222309F458C08E81882309F454C0C7
:1047200040914B0F442309F44FC0899FC0011124CD
:1047300080509F4F892F992730E0B901869F9001C3
:10474000879F300D969F300D112420503F4F232F0F
:1047500033278D8190E0FC012E9FC0012F9F900D8B
:104760003E9F900D112480509F4F892F9927242F11
:1047700030E0AC01429FC001439F900D529F900DCD
:10478000112480509F4F292F33278B818823F1F0EC
:10479000EA81F0E0E050F44BE491E058E89FC0017A
:1047A000112480509F4F892F9927B601681B790BE0
:1047B000629FC001639F900D729F900D11248050E5
:1047C0009F4F292F332702C020E030E08A819C814F
:1047D000890F8A83F8012083F394065F1F4F669642
:1047E000F4E0FF1609F023CFDF91CF911F910F91D5
:1047F000FF90DF90CF900895EF92FF920F931F9359
:10480000CF93DF93382F89E0389FC0011124C091E6
:10481000450FD091460FC80FD91FCE010396FC015A
:10482000A591B491FE0184918150823010F413E07F
:104830001DC08091020F8823B1F080910E0F831765
:1048400011F4442381F48091180F882371F0809132
:10485000240F831711F4442341F49091120F809197
:10486000280F891710F411E001C012E0E12EFF2497
:10487000FD01249186E190E0E89EE001E99ED00DE3
:10488000F89ED00D1124C551D14F2F871196BD8BA5
:10489000AC8B3D8701E0098386E1189FC00111249C
:1048A0008551914F40E50E94E720133049F481E0A3
:1048B00091E09093D50E8093D40E0093D30E15C043
:1048C0008BE090E0E89EF001E99EF00DF89EF00D7F
:1048D0001124EE0FFF1FE351F14F812F60810E94E1
:1048E0001918812F6A890E943818DF91CF911F9182
:1048F0000F91FF90EF900895FF920F931F93082F51
:10490000F62E0E94191810E08BE090E0089FF0014D
:10491000099FF00D189FF00D1124EE0FFF1FE351BA
:10492000F14FF0821F910F91FF900895962F482F1D
:1049300050E02BE030E0429FF001439FF00D529F8A
:10494000F00D1124EE0FFF1FE351F14F6081691B41
:1049500060830E9419180895482F50E02BE030E042
:10496000429FF001439FF00D529FF00D1124EE0F76
:10497000FF1FE351F14F9081690F60830E94191866
:10498000089500000000000000000000000000008A
:104990000000000000000000000000000000000017
:1049A0000000000000000000000000000000000007
:1049B00000000000000000000000000000000000F7
:1049C00000000000000000000000000000000000E7
:1049D00000000000000000000000000000000000D7
:1049E00000000000000000000000000000000000C7
:1049F00000000000000000000000000000000000B7
:104A000080E08093B30E0895220024002600280041
:104A10002B002D0030003300360039003D004000EF
:104A2000440048004C00510056005B0060006600E6
:104A30006C00730079008100880090009900A2004A
:104A4000AC00B600C100CC00D800E500F3000101C5
:104A5000100121013201440157016C0181019801CB
:104A6000B001CA01E501020221024102640288028A
:104A7000AE02D7020303300361039403CB030504A2
:104A800042048304C70410055D05AF0505066106F1
:104A9000C206290796070908830805098E09200A16
:104AA000BA0A5D0B0A0CC10C840D510E2B0F1210AB
:104AB00007110A121D1340147415BA16141883191D
:104AC000071BA31C571E24200E22142439267F28DE
:104AD000E82A752D293006330F364539AD3C49405B
:104AE0001B442848734CFE50CF55EA5A51600C665F
:104AF0001D6C8B725A79928037885090E598FDA191
:104B00009FABD3B5A3C00000000000000000000070
:104B10000000000000000000000000000000000095
:104B20000000000000000000000000000000000085
:104B30000000000000000000000000000000000075
:104B40000000000000000000000000000000000065
:104B50000000000000000000000000000000000055
:104B60000000000000000000000000000000000045
:104B70000000000000000000000000000000000035
:104B80000000000000000000000000000000000025
:104B90000000000000000000000000000000000015
:104BA0000000000000000000000000000000000005
:104BB00000000000000000000000000000000000F5
:104BC00000000000000000000000000000000000E5
:104BD00000000000000000000000000000000000D5
:104BE00000000000000000000000000000000000C5
:104BF00000000000000000000000000000000000B5
:104C0000000306090C101316191C1F2225282B2E31
:104C1000313336393C3F414447494C4E5153555846
:104C20005A5C5E60626466686A6B6D6F7071737403
:104C3000757678797A7A7B7C7D7D7E7E7E7F7F7FBC
:104C40007F7F7F7F7E7E7E7D7D7C7B7A7A797876A2
:104C500075747371706F6D6B6A68666462605E5CB8
:104C60005A585553514E4C494744413F3C393633CD
:104C7000312E2B2825221F1C191613100C09060390
:104C800000FDFAF7F4F0EDEAE7E4E1DEDBD8D5D297
:104C9000CFCDCAC7C4C1BFBCB9B7B4B2AFADABA862
:104CA000A6A4A2A09E9C9A9896959391908F8D8C85
:104CB0008B8A8887868685848383828282818181AC
:104CC0008181818182828283838485868687888AA6
:104CD0008B8C8D8F9091939596989A9C9EA0A2A470
:104CE000A6A8ABADAFB2B4B7B9BCBFC1C4C7CACD3B
:104CF000CFD2D5D8DBDEE1E4E7EAEDF0F4F7FAFD58
:104D0000808182838485868788898A8B8C8D8E8F2B
:104D1000909192939495969798999A9B9C9D9E9F1B
:104D2000A0A1A2A3A4A5A6A7A8A9AAABACADAEAF0B
:104D3000B0B1B2B3B4B5B6B7B8B9BABBBCBDBEBFFB
:104D4000C0C1C2C3C4C5C6C7C8C9CACBCCCDCECFEB
:104D5000D0D1D2D3D4D5D6D7D8D9DADBDCDDDEDFDB
:104D6000E0E1E2E3E4E5E6E7E8E9EAEBECEDEEEFCB
:104D7000F0F1F2F3F4F5F6F7F8F9FAFBFCFDFEFFBB
:104D8000000102030405060708090A0B0C0D0E0FAB
:104D9000101112131415161718191A1B1C1D1E1F9B
:104DA000202122232425262728292A2B2C2D2E2F8B
:104DB000303132333435363738393A3B3C3D3E3F7B
:104DC000404142434445464748494A4B4C4D4E4F6B
:104DD000505152535455565758595A5B5C5D5E5F5B
:104DE000606162636465666768696A6B6C6D6E6F4B
:104DF000707172737475767778797A7B7C7D7E7F3B
:104E000000020406080A0C0E10121416181A1C1EB2
:104E100020222426282A2C2E30323436383A3C3EA2
:104E200040424446484A4C4E50525456585A5C5E92
:104E300060626466686A6C6E70727476787A7C7E82
:104E40007F7D7B79777573716F6D6B696765636162
:104E50005F5D5B59575553514F4D4B494745434152
:104E60003F3D3B39373533312F2D2B292725232142
:104E70001F1D1B19171513110F0D0B090705030132
:104E8000FFFDFBF9F7F5F3F1EFEDEBE9E7E5E3E122
:104E9000DFDDDBD9D7D5D3D1CFCDCBC9C7C5C3C112
:104EA000BFBDBBB9B7B5B3B1AFADABA9A7A5A3A102
:104EB0009F9D9B99979593918F8D8B8987858381F2
:104EC00080828486888A8C8E90929496989A9C9EF2
:104ED000A0A2A4A6A8AAACAEB0B2B4B6B8BABCBEE2
:104EE000C0C2C4C6C8CACCCED0D2D4D6D8DADCDED2
:104EF000E0E2E4E6E8EAECEEF0F2F4F6F8FAFCFEC2
:104F00007F7F7F7F7F7F7F7F7F7F7F7F7F7F7F7FB1
:104F10007F7F7F7F7F7F7F7F7F7F7F7F7F7F7F7FA1
:104F20007F7F7F7F7F7F7F7F7F7F7F7F7F7F7F7F91
:104F30007F7F7F7F7F7F7F7F7F7F7F7F7F7F7F7F81
:105200000309131E28313A40464C5054585B5E61E6
:10521000636567696B6C6E6F7071727374757677A6
:10522000777879797A7A7B7B7C7C7C7D7D7D7E7ECC
:105230007E7E7F7F7F7F7F7F7F7F7F7F7F7F7F7F80
:105240007F7F7F7F7F7F7F7F7F7F7F7F7F7E7E7E71
:105250007E7D7D7D7C7C7C7B7B7A7A7979787777A3
:10526000767574737271706F6E6C6B69676563616C
:105270005E5B5854504C46403A31281E13090300D7
:10528000C6CCD5DBDFE3E5E7E9EAEBECEDEEEFEFEB
:10529000F0F0F0F1F1F1F1F2F2F2F2F2F2F2F2F3F7
:1052A000F3F3F3F3F3F3F3F3F3F3F3F3F3F3F3F3CE
:1052B000F3F3F3F3F3F3F3F3F3F3F3F3F3F3F3F3BE
:1052C000F3F3F3F3F3F3F3F3F3F3F3F3F3F3F3F3AE
:1052D000F3F3F3F3F3F3F3F3F3F3F3F3F3F3F3F39E
:1052E000F2F2F2F2F2F2F2F2F1F1F1F1F0F0F0EFAB
:1052F000EFEEEDECEBEAE9E7E5E3DFDBD5CCC6006A
:1053000000283D42302D2C2B2C2D2E2F30323335C2
:1053100037393B3D3F414345484A4C4E5053555722
:10532000595B5D5F61636567696B6C6E7071737407
:10533000757778797A7B7C7D7D7E7E7F7F7F7F7FAE
:105340007F7F7F7F7F7F7E7E7D7D7C7B7A79787794
:1053500075747371706E6C6B69676563615F5D5BBB
:1053600059575553504E4C4A484543413F3D3B39B0
:1053700037353332302F2E2D2C2B2C2D30423D281B
:1053800000E9E5FED4D7D7D7D6D4D2D0CECCCAC880
:10539000C6C3C1BFBDBAB8B6B4B1AFADABA9A7A5BE
:1053A000A3A19F9E9C9A999795949391908F8D8C91
:1053B0008B8A898888878685858484848383838390
:1053C0008383838383848484858586878888898A88
:1053D0008B8C8D8F909193949597999A9C9E9FA179
:1053E000A3A5A7A9ABADAFB1B4B6B8BABDBFC1C391
:1053F000C6C8CACCCED0D2D4D6D7D7D7D4FEE5E94A
:10540000F9F8F9F5EBE1DDDEE0E2E4E5E6E5E4E21A
:10541000DED9D2CAC1B7ACA299918A868381808035
:105420008182838586888A8C8D8F909293959697BA
:1054300098999A9B9B9C9D9D9D9E9E9E9F9F9F9FA2
:105440009F9F9F9E9E9E9D9D9D9C9B9B9A9998979A
:1054500096959392908F8D8C8A88868583828180A1
:10546000808183868A9199A2ACB7C1CAD2D9DEE283
:10547000E4E5E6E5E4E2E0DEDDE1EBF5F9F8F9008C
:105480000708070B151F2322201E1C1B1A1B1C1E9E
:1054900022272E363F49545E676F767A7E7F7F7F64
:1054A0007F7E7D7B7A7876747371706E6D6B6A69BE
:1054B00068676665656464636362626261616161B5
:1054C000616161626262636363646565666768699E
:1054D0006A6B6D6E7071737476787A7B7D7E7F7F78
:1054E0007F7F7E7A766F675E54493F362E27221E75
:1054F0001C1B1A1B1C1E2022231F150B070807004C
:105500001F313D444E5354565A5F64696E74767928
:105510007C7F7F7F7F7F7F7F7F7F7F7F7F7F7F7F9E
:105520007F7F7F7F7F7F7F7F7F7F7F7F7F7F7F7F8B
:105530007F7F7F7F7F7F7F7F7F7F7F7F7F7F7F7F7B
:105540007F7F7F7F7F7F7F7F7F7F7F7F7F7F7F7F6B
:105550007F7F7F7F7F7F7F7F7F7F7F7F7F7F7F7F5B
:105560007F7F7F7F7F7F7F7F7F7F7F7F7F7F7F7F4B
:105570007F7F7F7F7F7F7F7F7F7F7F7C7871684C9D
:105580002C1C120C0A0B0A05FDF3E9DFD4CAC0B7C4
:10559000AEA69E97918B8685828080808080808059
:1055A00080808080808080808080808080808080FB
:1055B00080808080808080808080808080808080EB
:1055C00080808080808080808080808080808080DB
:1055D00080808080808080808080808080808080CB
:1055E00080808080808080808080808080808080BB
:1055F000808080808087919DACC4CBD4DDF2FAFAA4
:105600003091550F20E010C0822F90E0FC01EE0F8A
:10561000FF1FE80FF91FE75FF34FA081B181A05C86
:10562000BD4F82818C932F5F231770F30895809371
:10563000000108950F931F93CF93DF93182FFB0161
:10564000B49131960491CB2FD0E0BF016F5F7F4FB3
:10565000A0E019C0FA01249190E0FC01EE0FFF1FB9
:10566000EE0FFF1FE80FF91FE857FA4F228313824E
:105670003F5F4F5F5F4F832F810F3B1758F31B0F27
:10568000AF5F6C0F7D1FA01718F4AB0130E0F3CFB4
:10569000DF91CF911F910F910895DF92EF92FF92CA
:1056A0000F931F93CF93DF93182FD62E622F70E0A6
:1056B000A0E0B0E0E42EFF241BC090E0FC01EE0F60
:1056C000FF1FEE0FFF1FE80FF91FE857FA4F508337
:1056D000C13ED10514F0218301C041833F5F585F73
:1056E000832F810F361748F3160F7F5F485F189698
:1056F000701740F4242F205E5D2D30E0ED01CE0DBB
:10570000DF1DEECFDF91CF911F910F91FF90EF90B2
:10571000DF900895E8E8F5E080EF8083359695E026
:10572000E93CF907D1F708951F93CF93DF93FA016E
:10573000749131961491C72FD0E0AF014F5F5F4F46
:105740009EE1699F90011124280F311D60E00CC07B
:105750008491875E8D939F5F31969717C8F36F5F33
:105760004C0F5D1F225E3F4F611730F4D901A05CE2
:10577000BD4FFA0190E0F1CFDF91CF911F910895D5
:10578000982F882319F48FEF87B9089581E08093CB
:10579000580F8093540F9093530F1092570F80938C
:1057A000560F662321F08091560F8823E1F7089564
:1057B000982F882311F417B808958CE08093580F20
:1057C0008FEF8093540F9093530F1092570F81E0F7
:1057D0008093560F662321F08091560F8823E1F7BE
:1057E00008958091560F8823F9F08091570F8823F0
:1057F000C1F48091530F8093570F8091580FE82F79
:10580000F0E0E451F74FE491E7B99091540F980F0D
:105810009093580F992311F09D3031F41092560F48
:10582000089581508093570F08950F931F93CF933E
:10583000DF938C01C0E0D0E007C00E94A11F882345
:10584000E1F30E94A41F2196C017D107B4F3DF91A2
:10585000CF911F910F910895FF920F931F93CF93B4
:10586000DF938C01F62EEA01FE0144912196442338
:1058700049F0802F0F5F1F4F4F7747506F2D0E94C9
:105880008A1FF2CFDF91CF911F910F91FF90089562
:105890007F928F929F92AF92BF92CF92DF92EF92C0
:1058A000FF920F931F93CF93DF93782E862EEA01FA
:1058B000FA01C590D490FA013296A590B49000E018
:1058C00016C0FC01EE0DFF1D3296EE0FFF1FEC0F10
:1058D000FD1F45915491812F870D692D0E947C1FDA
:1058E0001F5F812F90E08C159D055CF30F5F802F6B
:1058F00090E08A159B055CF48C9D70018D9DF00CE9
:105900009C9DF00C112410E0902E980CEACFDF91B2
:10591000CF911F910F91FF90EF90DF90CF90BF90AC
:10592000AF909F908F907F9008950F931F938DEB72
:1059300090E00E94A82086EC90E00E949C1F0E94AC
:10594000721F8FE090E00E94152C80E06FEF41E025
:105950000E94FC2306EC18E08DE06CE0A8010E9498
:10596000942B83E090E00E94152C8DE06CE04CEDD0
:1059700058E00E94942B82E090E00E94152C8DE06C
:105980006CE0A8010E94942B81E490E00E94152C09
:105990000E94721F84E190E00E94152C1F910F91CC
:1059A00008952F923F924F925F926F927F928F92C3
:1059B0009F92AF92BF92CF92DF92EF92FF920F939E
:1059C0001F93DF93CF9300D00F92CDB7DEB7109225
:1059D000550F80910001882309F4A3C0A8E88A2EFE
:1059E000A5E09A2E7724F4018081803F09F47AC0E3
:1059F0009181F82FF695F695F695F983282F277063
:105A000019F0F2E02F2E02C022242394392F36956C
:105A100036953695892F877019F0E2E06E2E02C018
:105A200066246394B82EAA242501420E511CC32E6D
:105A3000EE24FF244DC02BE12C1510F09C2D01C04D
:105A4000932D4DE14D1510F08D2D02C08D2D8E51F1
:105A5000EEE19E9F90011124280F311D8901005C09
:105A60001D4FF80160816931F0F04091550F4931C7
:105A700000F5842F90E0FC01EE0FFF1FE80FF91FE7
:105A8000E75FF34F318320836283862F642F0E9468
:105A900024166091550FF80160836F5F6093550F76
:105AA0006150693130F4872D4A815B8192010E94F7
:105AB000B5168A819B8101969B838A83D394821534
:105AC00008F4B9CF0894E11CF11CC394E61450F417
:105AD00080E09E2D9C013B832A83D98064EE362E84
:105AE0003C0CA9CF7394E5E0F0E08E0E9F1EFDE024
:105AF0007F1609F078CF3091550F20E010C0822F2B
:105B000090E0FC01EE0FFF1FE80FF91FE75FF34F76
:105B1000A081B181A05CBD4F82818C932F5F231740
:105B200070F30F900F900F90CF91DF911F910F9115
:105B3000FF90EF90DF90CF90BF90AF909F908F90AD
:105B40007F906F905F904F903F902F9008950E94AC
:105B5000F12B0E94D12C08950F931F93DF93CF93C5
:105B6000CDB7DEB760970FB6F894DEBF0FBECDBFDE
:105B7000DE011196EBE0F1E080E101900D928150A1
:105B8000E1F78091DC0E873021F08091DD0E8730C7
:105B9000E1F480E00E94172B80E090E0A0E0B0E00C
:105BA0008093E00E9093E10EA093E20EB093E30E8B
:105BB0008093E40E9093E50EA093E60EB093E70E6B
:105BC00081E0809301018093DF0EE091DC0EF0E034
:105BD000EE0FFF1F8E010F5F1F4FE00FF11F40817F
:105BE000518181E061E00E94482C8091DD0E90E0BF
:105BF000880F991F080F191FF8014081518189E111
:105C000066E10E94482C60960FB6F894DEBF0FBE86
:105C1000CDBFCF91DF911F910F91089582E061E098
:105C20000E94D82B109202010E94721F80E060E057
:105C300049E35FE10E94482C81E00E94172B1092FB
:105C4000DC0E1092DD0E80E090E0A0E0B0E08093EA
:105C5000E00E9093E10EA093E20EB093E30E8093DA
:105C6000E40E9093E50EA093E60EB093E70E10922B
:105C7000DF0E80E780935B0F80935D0F88EC80934D
:105C80005C0F89E080935E0F82E060E00E94C02B91
:105C900008950F9385E060915B0F40915C0F22E0C7
:105CA00002E00E944D2B89E060915D0F40915E0FF4
:105CB00022E00E944D2B81E060915F0F4091600FC8
:105CC00022E00E944D2B0F9108956F927F928F9248
:105CD0009F92AF92BF92CF92DF92EF92FF920F937B
:105CE0001F938091DE0E882381F080E090E0A0EC8D
:105CF000BFEB8093E40E9093E50EA093E60EB09375
:105D0000E70E1092DE0E109201016090E00E70908E
:105D1000E10E8090E20E9090E30EC401B301209159
:105D20000701309108014091090150910A010E9438
:105D30000F1B7B018C016093070170930801809316
:105D4000090190930A01609103017091040180910F
:105D50000501909106012091E40E3091E50E4091ED
:105D6000E60E5091E70E0E940F1B5B016C016093E1
:105D70000301709304018093050190930601C8010B
:105D8000B7010E946619162F60935F0FC601B50117
:105D90000E9466196093600F812F89538F3638F106
