:100000000C9456290C94F0290C94F0290C94F029A6
:100010000C94F0290C94F0290C94F0290C94F029FC
:100020000C94F0290C94F0290C94F0290C94F029EC
:100030000C94F0290C944E2B0C94F0290C94F0297C
:100040000C94F0290C94F0290C94F0290C94F029CC
:100050000C94F0290C94F0290C94F0290C94F029BC
:100060000C94F0290C94F0290C94F0290C94F029AC
:100070005A5501200101003808000000000000006E
:100080000000000000000000000000000000000070
:10009000C533D333513487377137D633E533F4332F
:1000A00057370234103400E008B9199100E008B95C
:1000B000159F00E008B9080E191E00E008B9F90103
:1000C0004A9500E008B909F0F00100E008B9099488
:1000D00000E008B9199100E008B9159F00E008B9DF
:1000E000080E191E00E008B9F9014A9500E008B9A8
:1000F00009F0F00100E008B9099400E008B919918D
:1001000000E008B9159F00E008B9080E191E00E0CC
:1001100008B9F9014A9500E008B909F0F00100E0DA
:1001200008B9099400E008B9199100E008B9159FD1
:1001300000E008B9080E191E00E008B9F9014A9557
:1001400000E008B909F0F00100E008B9099400E006
:1001500008B9199100E008B9159F00E008B9080E28
:10016000191E00E008B9F9014A9500E008B909F044
:10017000F00100E008B9099400E008B9199100E025
:1001800008B9159F00E008B9080E191E00E008B96B
:10019000F9014A9500E008B909F0F00100E008B95A
:1001A000099400E008B9199100E008B9159F00E032
:1001B00008B9080E191E00E008B9F9014A9500E0D7
:1001C00008B909F0F00100E008B9099400E008B9A5
:1001D000199100E008B9159F00E008B9080E191E32
:1001E00000E008B9F9014A9500E008B909F0F0010A
:1001F00000E008B9099400E008B9199100E008B9D5
:10020000159F0FEF08B9080E191E00E008B9F90193
:100210004A9500E008B909F0F00100E008B9099436
:1002200000E008B919910FEF08B9159F0FEF08B951
:10023000080E191E0FEF08B9F9014A9500E008B938
:1002400009F0F00100E008B9099400E008B919913B
:100250000FEF08B9159F0FEF08B9080E191E0FEF21
:1002600008B9F9014A9500E008B909F0F00100E089
:1002700008B9099400E008B9199100E008B9159F80
:100280000FEF08B9080E191E00E008B9F9014A95E8
:1002900000E008B909F0F00100E008B9099400E0B5
:1002A00008B9199100E008B9159F0FEF08B9080EB9
:1002B000191E00E008B9F9014A9500E008B909F0F3
:1002C000F00100E008B9099400E008B9199100E0D4
:1002D00008B9159F00E008B9080E191E00E008B91A
:1002E000F9014A9500E008B909F0F00100E008B909
:1002F000099400E008B9199100E008B9159F0FEFC3
:1003000008B9080E191E00E008B9F9014A9500E085
:1003100008B909F0F00100E008B9099400E008B953
:10032000199100E008B9159F00E008B9080E191EE0
:1003300000E008B9F9014A9500E008B909F0F001B8
:1003400000E008B909940FEF08B919910FEF08B947
:10035000159F00E008B9080E191E0FEF08B9F90142
:100360004A950FEF08B909F0F00100E008B90994C7
:100370000FEF08B919910FEF08B9159F00E008B900
:10038000080E191E0FEF08B9F9014A950FEF08B9C9
:1003900009F0F00100E008B909940FEF08B91991CC
:1003A00000E008B9159F00E008B9080E191E0FEF0C
:1003B00008B9F9014A9500E008B909F0F00100E038
:1003C00008B9099400E008B9199100E008B9159F2F
:1003D00000E008B9080E191E00E008B9F9014A95B5
:1003E00000E008B909F0F00100E008B9099400E064
:1003F00008B9199100E008B9159F00E008B9080E86
:10040000191E00E008B9F9014A9500E008B909F0A1
:10041000F00100E008B9099400E008B9199100E082
:1004200008B9159F00E008B9080E191E00E008B9C8
:10043000F9014A9500E008B909F0F00100E008B9B7
:10044000099400E008B9199100E008B9159F00E08F
:1004500008B9080E191E00E008B9F9014A9500E034
:1004600008B909F0F00100E008B9099400E008B902
:10047000199100E008B9159F00E008B9080E191E8F
:1004800000E008B9F9014A9500E008B909F0F00167
:1004900000E008B9099400E008B9199100E008B932
:1004A000159F00E008B9080E191E00E008B9F9010F
:1004B0004A9500E008B909F0F00100E008B9099494
:1004C00000E008B919910FEF08B9159F00E008B9CD
:1004D000080E191E0FEF08B9F9014A9500E008B996
:1004E00009F0F00100E008B909940FEF08B919917B
:1004F0000FEF08B9159F0FEF08B9080E191E0FEF7F
:1005000008B9F9014A950FEF08B909F0F00100E0C8
:1005100008B9099400E008B919910FEF08B9159FBF
:1005200000E008B9080E191E0FEF08B9F9014A9545
:1005300000E008B909F0F00100E008B9099400E012
:1005400008B919910FEF08B9159F00E008B9080E16
:10055000191E0FEF08B9F9014A9500E008B909F032
:10056000F00100E008B909940FEF08B919910FEFF5
:1005700008B9159F0FEF08B9080E191E0FEF08B93B
:10058000F9014A950FEF08B909F0F00100E008B948
:10059000099400E008B919910FEF08B9159F00E020
:1005A00008B9080E191E0FEF08B9F9014A9500E0C5
:1005B00008B909F0F00100E008B9099400E008B9B1
:1005C000199100E008B9159F00E008B9080E191E3E
:1005D00000E008B9F9014A9500E008B909F0F00116
:1005E00000E008B9099400E008B919910FEF08B9C3
:1005F000159F00E008B9080E191E00E008B9F901BE
:100600004A9500E008B909F0F00100E008B9099442
:1006100000E008B919910FEF08B9159F0FEF08B95D
:10062000080E191E0FEF08B9F9014A9500E008B944
:1006300009F0F00100E008B909940FEF08B9199129
:1006400000E008B9159F00E008B9080E191E00E087
:1006500008B9F9014A9500E008B909F0F00100E095
:1006600008B9099400E008B919910FEF08B9159F6E
:100670000FEF08B9080E191E00E008B9F9014A95F4
:1006800000E008B909F0F00100E008B9099400E0C1
:1006900008B9199100E008B9159F00E008B9080EE3
:1006A000191E0FEF08B9F9014A9500E008B909F0E1
:1006B000F00100E008B909940FEF08B919910FEFA4
:1006C00008B9159F0FEF08B9080E191E00E008B908
:1006D000F9014A9500E008B909F0F00100E008B915
:1006E000099400E008B9199100E008B9159F0FEFCF
:1006F00008B9080E191E00E008B9F9014A9500E092
:1007000008B909F0F00100E008B9099400E008B95F
:10071000199100E008B9159F00E008B9080E191EEC
:1007200000E008B9F9014A9500E008B909F0F001C4
:1007300000E008B909940FEF08B919910FEF08B953
:10074000159F00E008B9080E191E00E008B9F9016C
:100750004A950FEF08B909F0F00100E008B90994D3
:100760000FEF08B919910FEF08B9159F00E008B90C
:10077000080E191E00E008B9F9014A950FEF08B9F3
:1007800009F0F00100E008B9099400E008B91991F6
:1007900000E008B9159F00E008B9080E191E0FEF18
:1007A00008B9F9014A9500E008B909F0F00100E044
:1007B00008B9099400E008B9199100E008B9159F3B
:1007C0000FEF08B9080E191E00E008B9F9014A95A3
:1007D00000E008B909F0F00100E008B9099400E070
:1007E00008B919910FEF08B9159F00E008B9080E74
:1007F000191E00E008B9F9014A9500E008B909F0AE
:10080000F00100E008B909940FEF08B9199100E070
:1008100008B9159F00E008B9080E191E0FEF08B9B6
:10082000F9014A950FEF08B909F0F00100E008B9A5
:1008300009940FEF08B9199100E008B9159F00E07D
:1008400008B9080E191E0FEF08B9F9014A950FEF04
:1008500008B909F0F00100E008B9099400E008B90E
:10086000199100E008B9159F00E008B9080E191E9B
:1008700000E008B9F9014A9500E008B909F0F00173
:1008800000E008B9099400E008B919910FEF08B920
:10089000159F00E008B9080E191E00E008B9F9011B
:1008A0004A9500E008B909F0F00100E008B90994A0
:1008B0000FEF08B9199100E008B9159F0FEF08B9BB
:1008C000080E191E00E008B9F9014A9500E008B9C0
:1008D00009F0F00100E008B909940FEF08B9199187
:1008E00000E008B9159F0FEF08B9080E191E00E0C7
:1008F00008B9F9014A9500E008B909F0F00100E0F3
:1009000008B9099400E008B919910FEF08B9159FCB
:1009100000E008B9080E191E00E008B9F9014A956F
:1009200000E008B909F0F00100E008B909940FEF00
:1009300008B9199100E008B9159F0FEF08B9080E22
:10094000191E00E008B9F9014A950FEF08B909F03E
:10095000F00100E008B909940FEF08B9199100E01F
:1009600008B9159F00E008B9080E191E0FEF08B965
:10097000F9014A9500E008B909F0F00100E008B972
:10098000099400E008B919910FEF08B9159F0FEF0E
:1009900008B9080E191E00E008B9F9014A950FEFD1
:1009A00008B909F0F00100E008B9099400E008B9BD
:1009B000199100E008B9159F00E008B9080E191E4A
:1009C00000E008B9F9014A9500E008B909F0F00122
:1009D00000E008B9099400E008B919910FEF08B9CF
:1009E000159F0FEF08B9080E191E00E008B9F901AC
:1009F0004A9500E008B909F0F00100E008B909944F
:100A000000E008B919910FEF08B9159F0FEF08B969
:100A1000080E191E00E008B9F9014A9500E008B96E
:100A200009F0F00100E008B9099400E008B9199153
:100A30000FEF08B9159F00E008B9080E191E00E075
:100A400008B9F9014A9500E008B909F0F00100E0A1
:100A500008B9099400E008B9199100E008B9159F98
:100A600000E008B9080E191E00E008B9F9014A951E
:100A700000E008B909F0F00100E008B9099400E0CD
:100A800008B9199100E008B9159F00E008B9080EEF
:100A9000191E00E008B9F9014A9500E008B909F00B
:100AA000F00100E008B9099400E008B9199100E0EC
:100AB00008B9159F00E008B9080E191E00E008B932
:100AC000F9014A9500E008B909F0F00100E008B921
:100AD000099400E008B9199100E008B9159F00E0F9
:100AE00008B9080E191E00E008B9F9014A9500E09E
:100AF00008B909F0F00100E008B9099400E008B96C
:100B0000199100E008B9159F00E008B9080E191EF8
:100B100000E008B9F9014A9500E008B909F0F001D0
:100B200000E008B9099400E008B9199100E008B99B
:100B3000159F0FEF08B9080E191E00E008B9F9015A
:100B40004A9500E008B909F0F00100E008B90994FD
:100B500000E008B919910FEF08B9159F00E008B936
:100B6000080E191E00E008B9F9014A9500E008B91D
:100B700009F0F00100E008B9099400E008B9199102
:100B80000FEF08B9159F00E008B9080E191E00E024
:100B900008B9F9014A9500E008B909F0F00100E050
:100BA00008B9099400E008B919910FEF08B9159F29
:100BB00000E008B9080E191E00E008B9F9014A95CD
:100BC00000E008B909F0F00100E008B9099400E07C
:100BD00008B919910FEF08B9159F00E008B9080E80
:100BE000191E00E008B9F9014A9500E008B909F0BA
:100BF000F00100E008B9099400E008B919910FEF7D
:100C000008B9159F00E008B9080E191E00E008B9E0
:100C1000F9014A9500E008B909F0F00100E008B9CF
:100C2000099400E008B9199100E008B9159F0FEF89
:100C300008B9080E191E00E008B9F9014A9500E04C
:100C400008B909F0F00100E008B9099400E008B91A
:100C5000199100E008B9159F00E008B9080E191EA7
:100C600000E008B9F9014A9500E008B909F0F0017F
:100C700000E008B9099400E008B919910FEF08B92C
:100C8000159F00E008B9080E191E00E008B9F90127
:100C90004A9500E008B909F0F00100E008B90994AC
:100CA00000E008B9199100E008B9159F0FEF08B9E5
:100CB000080E191E00E008B9F9014A9500E008B9CC
:100CC00009F0F00100E008B9099400E008B91991B1
:100CD00000E008B9159F0FEF08B9080E191E00E0D3
:100CE00008B9F9014A9500E008B909F0F00100E0FF
:100CF00008B9099400E008B9199100E008B9159FF6
:100D00000FEF08B9080E191E00E008B9F9014A955D
:100D100000E008B909F0F00100E008B9099400E02A
:100D200008B9199100E008B9159F0FEF08B9080E2E
:100D3000191E00E008B9F9014A9500E008B909F068
:100D4000F00100E008B9099400E008B9199100E049
:100D500008B9159F0FEF08B9080E191E00E008B971
:100D6000F9014A9500E008B909F0F00100E008B97E
:100D7000099400E008B919910FEF08B9159F00E038
:100D800008B9080E191E00E008B9F9014A9500E0FB
:100D900008B909F0F00100E008B9099400E008B9C9
:100DA000199100E008B9159F00E008B9080E191E56
:100DB00000E008B9F9014A9500E008B909F0F0012E
:100DC00000E008B9099400E008B9199100E008B9F9
:100DD000159F00E008B9080E191E00E008B9F901D6
:100DE0004A9500E008B909F0F00100E008B909945B
:100DF00000E008B919910FEF08B9159F00E008B994
:100E0000080E191E0FEF08B9F9014A9500E008B95C
:100E100009F0F00100E008B9099400E008B919915F
:100E20000FEF08B9159F0FEF08B9080E191E0FEF45
:100E300008B9F9014A9500E008B909F0F00100E0AD
:100E400008B909940FEF08B919910FEF08B9159F68
:100E50000FEF08B9080E191E0FEF08B9F9014A95EE
:100E60000FEF08B909F0F00100E008B9099400E0BB
:100E700008B919910FEF08B9159F0FEF08B9080EBF
:100E8000191E0FEF08B9F9014A9500E008B909F0F9
:100E9000F00100E008B9099400E008B919910FEFDA
:100EA00008B9159F00E008B9080E191E0FEF08B920
:100EB000F9014A9500E008B909F0F00100E008B92D
:100EC000099400E008B9199100E008B9159F00E005
:100ED00008B9080E191E00E008B9F9014A9500E0AA
:100EE00008B909F0F00100E008B9099400E008B978
:100EF000199100E008B9159F00E008B9080E191E05
:100F000000E008B9F9014A9500E008B909F0F001DC
:100F100000E008B9099400E008B9199100E008B9A7
:100F2000159F00E008B9080E191E00E008B9F90184
:100F30004A9500E008B909F0F00100E008B9099409
:100F400000E008B9199100E008B9159F0FEF08B942
:100F5000080E191E00E008B9F9014A9500E008B929
:100F600009F0F00100E008B9099400E008B919910E
:100F700000E008B9159F0FEF08B9080E191E00E030
:100F800008B9F9014A9500E008B909F0F00100E05C
:100F900008B909940FEF08B919910FEF08B9159F17
:100FA0000FEF08B9080E191E0FEF08B9F9014A959D
:100FB0000FEF08B909F0F00100E008B9099400E06A
:100FC00008B9199100E008B9159F0FEF08B9080E8C
:100FD000191E00E008B9F9014A9500E008B909F0C6
:100FE000F00100E008B9099400E008B9199100E0A7
:100FF00008B9159F0FEF08B9080E191E00E008B9CF
:10100000F9014A9500E008B909F0F00100E008B9DB
:10101000099400E008B9199100E008B9159F00E0B3
:1010200008B9080E191E00E008B9F9014A9500E058
:1010300008B909F0F00100E008B9099400E008B926
:10104000199100E008B9159F00E008B9080E191EB3
:1010500000E008B9F9014A9500E008B909F0F0018B
:1010600000E008B9099400E008B9199100E008B956
:10107000159F00E008B9080E191E00E008B9F90133
:101080004A9500E008B909F0F00100E008B90994B8
:1010900000E008B9199100E008B9159F00E008B90F
:1010A000080E191E00E008B9F9014A9500E008B9D8
:1010B00009F0F00100E008B9099400E008B91991BD
:1010C00000E008B9159F00E008B9080E191E00E0FD
:1010D00008B9F9014A9500E008B909F0F00100E00B
:1010E00008B9099400E008B9199100E008B9159F02
:1010F00000E008B9080E191E00E008B9F9014A9588
:1011000000E008B909F0F00100E008B9099400E036
:1011100008B9199100E008B9159F00E008B9080E58
:10112000191E00E008B9F9014A9500E008B909F074
:10113000F00100E008B9099400E008B919910FEF37
:1011400008B9159F0FEF08B9080E191E00E008B97D
:10115000F9014A9500E008B909F0F00100E008B98A
:10116000099400E008B919910FEF08B9159F0FEF26
:1011700008B9080E191E00E008B9F9014A9500E007
:1011800008B909F0F00100E008B9099400E008B9D5
:1011900019910FEF08B9159F00E008B9080E191E44
:1011A00000E008B9F9014A9500E008B909F0F0013A
:1011B00000E008B9099400E008B9199100E008B905
:1011C000159F00E008B9080E191E00E008B9F901E2
:1011D0004A9500E008B909F0F00100E008B9099467
:1011E00000E008B9199100E008B9159F00E008B9BE
:1011F000080E191E00E008B9F9014A9500E008B987
:1012000009F0F00100E008B9099400E008B919916B
:1012100000E008B9159F00E008B9080E191E00E0AB
:1012200008B9F9014A9500E008B909F0F00100E0B9
:1012300008B909940FEF08B919910FEF08B9159F74
:101240000FEF08B9080E191E0FEF08B9F9014A95FA
:101250000FEF08B909F0F00100E008B9099400E0C7
:1012600008B9199100E008B9159F00E008B9080E07
:10127000191E00E008B9F9014A9500E008B909F023
:10128000F00100E008B9099400E008B9199100E004
:1012900008B9159F00E008B9080E191E00E008B94A
:1012A000F9014A9500E008B909F0F00100E008B939
:1012B000099400E008B9199100E008B9159F00E011
:1012C00008B9080E191E00E008B9F9014A9500E0B6
:1012D00008B909F0F00100E008B9099400E008B984
:1012E000199100E008B9159F00E008B9080E191E11
:1012F00000E008B9F9014A9500E008B909F0F001E9
:1013000000E008B9099400E008B9199100E008B9B3
:10131000159F00E008B9080E191E00E008B9F90190
:101320004A9500E008B909F0F00100E008B9099415
:1013300000E008B9199100E008B9159F00E008B96C
:10134000080E191E00E008B9F9014A9500E008B935
:1013500009F0F00100E008B9099400E008B919911A
:1013600000E008B9159F00E008B9080E191E00E05A
:1013700008B9F9014A9500E008B909F0F00100E068
:1013800008B9099400E008B9199100E008B9159F5F
:1013900000E008B9080E191E00E008B9F9014A95E5
:1013A00000E008B909F0F00100E008B9099400E094
:1013B00008B9199100E008B9159F00E008B9080EB6
:1013C000191E00E008B9F9014A9500E008B909F0D2
:1013D000F00100E008B9099400E008B919910FEF95
:1013E00008B9159F0FEF08B9080E191E00E008B9DB
:1013F000F9014A9500E008B909F0F00100E008B9E8
:10140000099400E008B919910FEF08B9159F0FEF83
:1014100008B9080E191E00E008B9F9014A9500E064
:1014200008B909F0F00100E008B9099400E008B932
:10143000199100E008B9159F00E008B9080E191EBF
:1014400000E008B9F9014A9500E008B909F0F00197
:1014500000E008B9099400E008B9199100E008B962
:10146000159F00E008B9080E191E00E008B9F9013F
:101470004A9500E008B909F0F00100E008B90994C4
:1014800000E008B9199100E008B9159F00E008B91B
:10149000080E191E00E008B9F9014A950FEF08B9C6
:1014A00009F0F00100E008B9099400E008B91991C9
:1014B00000E008B9159F00E008B9080E191E0FEFEB
:1014C00008B9F9014A9500E008B909F0F00100E017
:1014D00008B9099400E008B9199100E008B9159F0E
:1014E0000FEF08B9080E191E00E008B9F9014A9576
:1014F00000E008B909F0F00100E008B9099400E043
:1015000008B919910FEF08B9159F00E008B9080E46
:10151000191E00E008B9F9014A9500E008B909F080
:10152000F00100E008B909940FEF08B9199100E043
:1015300008B9159F00E008B9080E191E00E008B9A7
:10154000F9014A9500E008B909F0F00100E008B996
:10155000099400E008B9199100E008B9159F00E06E
:1015600008B9080E191E00E008B9F9014A9500E013
:1015700008B909F0F00100E008B9099400E008B9E1
:10158000199100E008B9159F00E008B9080E191E6E
:1015900000E008B9F9014A9500E008B909F0F00146
:1015A00000E008B9099400E008B919910FE208B900
:1015B000159F0FE208B9080E191E0FE208B9F901CC
:1015C0004A9500E008B909F0F00100E008B9099473
:1015D0000FE208B9199100E008B9159F00E008B9B9
:1015E000080E191E00E008B9F9014A950FE208B982
:1015F00009F0F00100E008B909940FE208B9199167
:1016000000E008B9159F00E008B9080E191E0FE2A6
:1016100008B9F9014A950FE208B909F0F00100E0B4
:1016200008B909940FE208B9199100E008B9159FAB
:101630000FE208B9080E191E00E008B9F9014A9531
:101640000FE208B909F0F00100E008B909940FE2CF
:1016500008B919910FE208B9159F00E008B9080E02
:10166000191E00E008B9F9014A950FE208B909F01E
:10167000F00100E008B909940FE208B9199100E0FF
:1016800008B9159F00E008B9080E191E00E008B956
:10169000F9014A950FE208B909F0F00100E008B934
:1016A000099400E008B919910FE208B9159F0FE2FB
:1016B00008B9080E191E0FE208B9F9014A9500E0B1
:1016C00008B909F0F00100E008B9099400E008B990
:1016D000199100E008B9159F00E008B9080E191E1D
:1016E00000E008B9F9014A9500E008B909F0F001F5
:1016F00000E008B9099400E008B9199100E008B9C0
:10170000159F0FE208B9080E191E00E008B9F9018B
:101710004A9500E008B909F0F00100E008B9099421
:1017200000E008B919910FE208B9159F0FE208B956
:10173000080E191E00E008B9F9014A9500E008B941
:1017400009F0F00100E008B9099400E008B9199126
:1017500000E008B9159F0FE208B9080E191E00E055
:1017600008B9F9014A9500E008B909F0F00100E074
:1017700008B9099400E008B9199100E008B9159F6B
:101780000FE208B9080E191E00E008B9F9014A95E0
:1017900000E008B909F0F00100E008B9099400E0A0
:1017A00008B9199100E008B9159F0FE208B9080EB1
:1017B000191E00E008B9F9014A9500E008B909F0DE
:1017C000F00100E008B9099400E008B9199100E0BF
:1017D00008B9159F0FE208B9080E191E00E008B9F4
:1017E000F9014A9500E008B909F0F00100E008B9F4
:1017F000099400E008B919910FE208B9159F0FE2AA
:1018000008B9080E191E0FE208B9F9014A9500E05F
:1018100008B909F0F00100E008B9099400E008B93E
:10182000199100E008B9159F00E008B9080E191ECB
:1018300000E008B9F9014A9500E008B909F0F001A3
:1018400000E008B9099400E008B919910FE208B95D
:10185000159F0FE208B9080E191E0FE208B9F90129
:101860004A9500E008B909F0F00100E008B90994D0
:101870000FE208B9199100E008B9159F00E008B916
:10188000080E191E00E008B9F9014A950FE208B9DF
:1018900009F0F00100E008B9099400E008B91991D5
:1018A00000E008B9159F00E008B9080E191E00E015
:1018B00008B9F9014A950FE208B909F0F00100E012
:1018C00008B9099400E008B9199100E008B9159F1A
:1018D0000FE208B9080E191E0FE208B9F9014A957E
:1018E00000E008B909F0F00100E008B9099400E04F
:1018F00008B919910FE208B9159F00E008B9080E60
:10190000191E00E008B9F9014A9500E008B909F08C
:10191000F00100E008B909940FE208B9199100E05C
:1019200008B9159F00E008B9080E191E00E008B9B3
:10193000F9014A9500E008B909F0F00100E008B9A2
:1019400009940FE208B919910FE208B9159F0FE247
:1019500008B9080E191E0FE208B9F9014A950FE2FD
:1019600008B909F0F00100E008B9099400E008B9ED
:10197000199100E008B9159F00E008B9080E191E7A
:1019800000E008B9F9014A9500E008B909F0F00152
:1019900000E008B9099400E008B919910FE208B90C
:1019A000159F0FE208B9080E191E0FE208B9F901D8
:1019B0004A9500E008B909F0F00100E008B909947F
:1019C0000FE208B9199100E008B9159F00E008B9C5
:1019D000080E191E00E008B9F9014A950FE208B98E
:1019E00009F0F00100E008B9099400E008B9199184
:1019F00000E008B9159F00E008B9080E191E00E0C4
:101A000008B9F9014A950FE208B909F0F00100E0C0
:101A100008B9099400E008B919910FE208B9159FB7
:101A20000FE208B9080E191E0FE208B9F9014A952C
:101A300000E008B909F0F00100E008B9099400E0FD
:101A400008B9199100E008B9159F00E008B9080E1F
:101A5000191E00E008B9F9014A950FE208B909F02A
:101A6000F00100E008B909940FE208B9199100E00B
:101A700008B9159F00E008B9080E191E00E008B962
:101A8000F9014A950FE208B909F0F00100E008B940
:101A9000099400E008B919910FE208B9159F0FE207
:101AA00008B9080E191E0FE208B9F9014A9500E0BD
:101AB00008B909F0F00100E008B9099400E008B99C
:101AC000199100E008B9159F00E008B9080E191E29
:101AD00000E008B9F9014A9500E008B909F0F00101
:101AE00000E008B9099400E008B9199100E008B9CC
:101AF000159F00E008B9080E191E0FE208B9F90198
:101B00004A9500E008B909F0F00100E008B909942D
:101B100000E008B9199100E008B9159F0FE208B973
:101B2000080E191E0FE208B9F9014A9500E008B93C
:101B300009F0F00100E008B9099400E008B9199132
:101B40000FE208B9159F00E008B9080E191E0FE250
:101B500008B9F9014A9500E008B909F0F00100E080
:101B600008B909940FE208B9199100E008B9159F66
:101B700000E008B9080E191E0FE208B9F9014A95EC
:101B800000E008B909F0F00100E008B909940FE29B
:101B900008B919910FE208B9159F0FE208B9080EAC
:101BA000191E0FE208B9F9014A950FE208B909F0C8
:101BB000F00100E008B9099400E008B9199100E0CB
:101BC00008B9159F00E008B9080E191E0FE208B900
:101BD000F9014A9500E008B909F0F00100E008B900
:101BE000099400E008B9199100E008B9159F00E0D8
:101BF00008B9080E191E0FE208B9F9014A9500E06C
:101C000008B909F0F00100E008B9099400E008B94A
:101C1000199100E008B9159F00E008B9080E191ED7
:101C200000E008B9F9014A9500E008B909F0F001AF
:101C300000E008B909940FE208B919910FE208B958
:101C4000159F0FE208B9080E191E0FE208B9F90135
:101C50004A950FE208B909F0F00100E008B90994CB
:101C60000FE208B9199100E008B9159F00E008B922
:101C7000080E191E00E008B9F9014A9500E008B9FC
:101C800009F0F00100E008B909940FE208B91991D0
:101C900000E008B9159F00E008B9080E191E00E021
:101CA00008B9F9014A9500E008B909F0F00100E02F
:101CB00008B909940FE208B919910FE208B9159F04
:101CC0000FE208B9080E191E0FE208B9F9014A958A
:101CD00000E008B909F0F00100E008B9099400E05B
:101CE00008B9199100E008B9159F00E008B9080E7D
:101CF000191E00E008B9F9014A950FE208B909F088
:101D0000F00100E008B909940FE208B9199100E068
:101D100008B9159F00E008B9080E191E00E008B9BF
:101D2000F9014A950FE208B909F0F00100E008B99D
:101D3000099400E008B919910FE208B9159F0FE264
:101D400008B9080E191E0FE208B9F9014A9500E01A
:101D500008B909F0F00100E008B9099400E008B9F9
:101D6000199100E008B9159F00E008B9080E191E86
:101D700000E008B9F9014A9500E008B909F0F0015E
:101D800000E008B9099400E008B9199100E008B929
:101D9000159F0FE208B9080E191E0FE208B9F901E4
:101DA0004A9500E008B909F0F00100E008B909948B
:101DB00000E008B919910FE208B9159F00E008B9D1
:101DC000080E191E00E008B9F9014A9500E008B9AB
:101DD00009F0F00100E008B909940FE208B919917F
:101DE00000E008B9159F00E008B9080E191E00E0D0
:101DF00008B9F9014A9500E008B909F0F00100E0DE
:101E000008B909940FE208B919910FE208B9159FB2
:101E10000FE208B9080E191E0FE208B9F9014A9538
:101E200000E008B909F0F00100E008B909940FE2F8
:101E300008B9199100E008B9159F00E008B9080E2B
:101E4000191E00E008B9F9014A950FE208B909F036
:101E5000F00100E008B909940FE208B9199100E017
:101E600008B9159F00E008B9080E191E00E008B96E
:101E7000F9014A950FE208B909F0F00100E008B94C
:101E8000099400E008B919910FE208B9159F0FE213
:101E900008B9080E191E0FE208B9F9014A9500E0C9
:101EA00008B909F0F00100E008B9099400E008B9A8
:101EB000199100E008B9159F00E008B9080E191E35
:101EC00000E008B9F9014A9500E008B909F0F0010D
:101ED00000E008B909940FE208B919910FE208B9B6
:101EE000159F0FE208B9080E191E0FE208B9F90193
:101EF0004A950FE208B909F0F00100E008B9099429
:101F000000E008B9199100E008B9159F00E008B990
:101F1000080E191E00E008B9F9014A950FE208B948
:101F200009F0F00100E008B9099400E008B919913E
:101F300000E008B9159F00E008B9080E191E0FE26D
:101F400008B9F9014A9500E008B909F0F00100E08C
:101F500008B9099400E008B9199100E008B9159F83
:101F60000FE208B9080E191E00E008B9F9014A95F8
:101F700000E008B909F0F00100E008B9099400E0B8
:101F800008B919910FE208B9159F00E008B9080EC9
:101F9000191E00E008B9F9014A9500E008B909F0F6
:101FA000F00100E008B9099400E008B919910FE2C6
:101FB00008B9159F00E008B9080E191E00E008B91D
:101FC000F9014A9500E008B909F0F00100E008B90C
:101FD000099400E008B919910FE208B9159F00E0D3
:101FE00008B9080E191E00E008B9F9014A9500E089
:101FF00008B909F0F00100E008B9099400E008B957
:10200000199100E008B9159F00E008B9080E191EE3
:1020100000E008B9F9014A9500E008B909F0F001BB
:1020200000E008B9099400E008B919910FE208B975
:10203000159F0FE208B9080E191E0FE208B9F90141
:102040004A9500E008B909F0F00100E008B90994E8
:102050000FE208B9199100E008B9159F00E008B92E
:10206000080E191E00E008B9F9014A950FE208B9F7
:1020700009F0F00100E008B909940FE208B91991DC
:1020800000E008B9159F00E008B9080E191E00E02D
:1020900008B9F9014A950FE208B909F0F00100E02A
:1020A00008B9099400E008B919910FE208B9159F21
:1020B0000FE208B9080E191E0FE208B9F9014A9596
:1020C00000E008B909F0F00100E008B909940FE256
:1020D00008B9199100E008B9159F00E008B9080E89
:1020E000191E00E008B9F9014A950FE208B909F094
:1020F000F00100E008B909940FE208B9199100E075
:1021000008B9159F00E008B9080E191E00E008B9CB
:10211000F9014A950FE208B909F0F00100E008B9A9
:10212000099400E008B919910FE208B9159F0FE270
:1021300008B9080E191E0FE208B9F9014A9500E026
:1021400008B909F0F00100E008B9099400E008B905
:10215000199100E008B9159F00E008B9080E191E92
:1021600000E008B9F9014A9500E008B909F0F0016A
:1021700000E008B9099400E008B919910FE208B924
:10218000159F0FE208B9080E191E0FE208B9F901F0
:102190004A9500E008B909F0F00100E008B9099497
:1021A0000FE208B9199100E008B9159F00E008B9DD
:1021B000080E191E00E008B9F9014A950FE208B9A6
:1021C00009F0F00100E008B909940FE208B919918B
:1021D00000E008B9159F00E008B9080E191E00E0DC
:1021E00008B9F9014A950FE208B909F0F00100E0D9
:1021F00008B9099400E008B919910FE208B9159FD0
:102200000FE208B9080E191E0FE208B9F9014A9544
:102210000FE208B909F0F00100E008B9099400E004
:1022200008B9199100E008B9159F00E008B9080E37
:10223000191E00E008B9F9014A950FE208B909F042
:10224000F00100E008B9099400E008B9199100E034
:1022500008B9159F00E008B9080E191E0FE208B969
:10226000F9014A9500E008B909F0F00100E008B969
:10227000099400E008B919910FE208B9159F0FE21F
:1022800008B9080E191E00E008B9F9014A9500E0E6
:1022900008B909F0F00100E008B9099400E008B9B4
:1022A000199100E008B9159F00E008B9080E191E41
:1022B00000E008B9F9014A9500E008B909F0F00119
:1022C00000E008B9099400E008B9199100E008B9E4
:1022D000159F00E008B9080E191E00E008B9F901C1
:1022E0004A9500E008B909F0F00100E008B9099446
:1022F00000E008B9199100E008B9159F00E008B99D
:10230000080E191E00E008B9F9014A9500E008B965
:1023100009F0F00100E008B9099400E008B919914A
:102320000FEF08B9159F0FEF08B9080E191E00E04E
:1023300008B9F9014A9500E008B909F0F00100E098
:1023400008B9099400E008B919910FEF08B9159F71
:102350000FEF08B9080E191E00E008B9F9014A95F7
:1023600000E008B909F0F00100E008B9099400E0C4
:1023700008B9199100E008B9159F00E008B9080EE6
:10238000191E00E008B9F9014A9500E008B909F002
:10239000F00100E008B9099400E008B919910FEFC5
:1023A00008B9159F0FEF08B9080E191E00E008B90B
:1023B000F9014A9500E008B909F0F00100E008B918
:1023C000099400E008B919910FEF08B9159F0FEFB4
:1023D00008B9080E191E00E008B9F9014A9500E095
:1023E00008B909F0F00100E008B9099400E008B963
:1023F000199100E008B9159F00E008B9080E191EF0
:1024000000E008B9F9014A9500E008B909F0F001C7
:1024100000E008B9099400E008B9199100E008B992
:10242000159F00E008B9080E191E00E008B9F9016F
:102430004A9500E008B909F0F00100E008B90994F4
:1024400000E008B9199100E008B9159F00E008B94B
:10245000080E191E00E008B9F9014A9500E008B914
:1024600009F0F00100E008B9099400E008B91991F9
:102470000FEF08B9159F0FEF08B9080E191E00E0FD
:1024800008B9F9014A9500E008B909F0F00100E047
:1024900008B9099400E008B919910FEF08B9159F20
:1024A0000FEF08B9080E191E00E008B9F9014A95A6
:1024B00000E008B909F0F00100E008B9099400E073
:1024C00008B9199100E008B9159F00E008B9080E95
:1024D000191E00E008B9F9014A9500E008B909F0B1
:1024E000F00100E008B9099400E008B919910FEF74
:1024F00008B9159F0FEF08B9080E191E00E008B9BA
:10250000F9014A9500E008B909F0F00100E008B9C6
:10251000099400E008B919910FEF08B9159F0FEF62
:1025200008B9080E191E00E008B9F9014A9500E043
:1025300008B909F0F00100E008B9099400E008B911
:1025400019910FEF08B9159F00E008B9080E191E80
:1025500000E008B9F9014A9500E008B909F0F00176
:1025600000E008B9099400E008B9199100E008B941
:10257000159F00E008B9080E191E00E008B9F9011E
:102580004A950FEF08B909F0F00100E008B9099485
:1025900000E008B9199100E008B9159F00E008B9FA
:1025A000080E191E0FEF08B9F9014A9500E008B9A5
:1025B00009F0F00100E008B9099400E008B91991A8
:1025C00000E008B9159F0FEF08B9080E191E00E0CA
:1025D00008B9F9014A9500E008B909F0F00100E0F6
:1025E00008B9099400E008B919910FEF08B9159FCF
:1025F00000E008B9080E191E00E008B9F9014A9573
:1026000000E008B909F0F00100E008B9099400E021
:1026100008B9199100E008B9159F0FEF08B9080E25
:10262000191E00E008B9F9014A9500E008B909F05F
:10263000F00100E008B9099400E008B9199100E040
:1026400008B9159F00E008B9080E191E0FEF08B968
:10265000F9014A9500E008B909F0F00100E008B975
:10266000099400E008B9199100E008B9159F00E04D
:1026700008B9080E191E00E008B9F9014A950FEFD4
:1026800008B909F0F00100E008B9099400E008B9C0
:10269000199100E008B9159F00E008B9080E191E4D
:1026A00000E008B9F9014A9500E008B909F0F00125
:1026B00000E008B9099400E008B9199100E008B9F0
:1026C000159F00E008B9080E191E00E008B9F901CD
:1026D0004A9500E008B909F0F00100E008B9099452
:1026E00000E008B9199100E008B9159F00E008B9A9
:1026F000080E191E00E008B9F9014A9500E008B972
:1027000009F0F00100E008B909940FEF08B9199138
:102710000FEF08B9159F0FEF08B9080E191E0FEF3C
:1027200008B9F9014A950FEF08B909F0F00100E086
:1027300008B9099400E008B9199100E008B9159F9B
:1027400000E008B9080E191E00E008B9F9014A9521
:1027500000E008B909F0F00100E008B9099400E0D0
:1027600008B9199100E008B9159F00E008B9080EF2
:10277000191E00E008B9F9014A9500E008B909F00E
:10278000F00100E008B909940FEF08B919910FEFB3
:1027900008B9159F0FEF08B9080E191E0FEF08B9F9
:1027A000F9014A950FEF08B909F0F00100E008B906
:1027B000099400E008B9199100E008B9159F00E0FC
:1027C00008B9080E191E00E008B9F9014A9500E0A1
:1027D00008B909F0F00100E008B9099400E008B96F
:1027E000199100E008B9159F00E008B9080E191EFC
:1027F00000E008B9F9014A9500E008B909F0F001D4
:1028000000E008B9099400E008B919910FEF08B980
:10281000159F00E008B9080E191E00E008B9F9017B
:102820004A9500E008B909F0F00100E008B9099400
:1028300000E008B9199100E008B9159F0FEF08B939
:10284000080E191E00E008B9F9014A9500E008B920
:1028500009F0F00100E008B9099400E008B9199105
:1028600000E008B9159F00E008B9080E191E0FEF27
:1028700008B9F9014A9500E008B909F0F00100E053
:1028800008B9099400E008B9199100E008B9159F4A
:1028900000E008B9080E191E00E008B9F9014A95D0
:1028A0000FEF08B909F0F00100E008B9099400E061
:1028B00008B9199100E008B9159F00E008B9080EA1
:1028C000191E0FEF08B9F9014A9500E008B909F09F
:1028D000F00100E008B9099400E008B9199100E09E
:1028E00008B9159F0FEF08B9080E191E00E008B9C6
:1028F000F9014A9500E008B909F0F00100E008B9D3
:10290000099400E008B919910FEF08B9159F00E08C
:1029100008B9080E191E00E008B9F9014A9500E04F
:1029200008B909F0F00100E008B9099400E008B91D
:10293000199100E008B9159F00E008B9080E191EAA
:1029400000E008B9F9014A9500E008B909F0F00182
:1029500000E008B9099400E008B919910FEF08B92F
:10296000159F0FEF08B9080E191E0FEF08B9F901EE
:102970004A9500E008B909F0F00100E008B90994AF
:102980000FEF08B9199100E008B9159F00E008B9E8
:10299000080E191E00E008B9F9014A950FEF08B9B1
:1029A00009F0F00100E008B9099400E008B91991B4
:1029B00000E008B9159F00E008B9080E191E00E0F4
:1029C00008B9F9014A950FEF08B909F0F00100E0E4
:1029D00008B9099400E008B9199100E008B9159FF9
:1029E0000FEF08B9080E191E0FEF08B9F9014A9543
:1029F00000E008B909F0F00100E008B9099400E02E
:102A000008B9199100E008B9159F0FEF08B9080E31
:102A1000191E00E008B9F9014A9500E008B909F06B
:102A2000F00100E008B9099400E008B9199100E04C
:102A300008B9159F00E008B9080E191E00E008B992
:102A4000F9014A9500E008B909F0F00100E008B981
:102A5000099400E008B9199100E008B9159F0FEF3B
:102A600008B9080E191E00E008B9F9014A9500E0FE
:102A700008B909F0F00100E008B9099400E008B9CC
:102A8000199100E008B9159F00E008B9080E191E59
:102A900000E008B9F9014A9500E008B909F0F00131
:102AA00000E008B9099400E008B919910FEF08B9DE
:102AB000159F0FEF08B9080E191E0FEF08B9F9019D
:102AC0004A9500E008B909F0F00100E008B909945E
:102AD0000FEF08B9199100E008B9159F00E008B997
:102AE000080E191E00E008B9F9014A950FEF08B960
:102AF00009F0F00100E008B909940FEF08B9199145
:102B000000E008B9159F0FEF08B9080E191E0FEF66
:102B100008B9F9014A950FEF08B909F0F00100E092
:102B200008B909940FEF08B9199100E008B9159F89
:102B30000FEF08B9080E191E00E008B9F9014A950F
:102B40000FEF08B909F0F00100E008B909940FEFA0
:102B500008B9199100E008B9159F0FEF08B9080EE0
:102B6000191E0FEF08B9F9014A950FEF08B909F0DE
:102B7000F00100E008B909940FEF08B9199100E0DD
:102B800008B9159F00E008B9080E191E00E008B941
:102B9000F9014A9500E008B909F0F00100E008B930
:102BA000099400E008B919910FEF08B9159F0FEFCC
:102BB00008B9080E191E0FEF08B9F9014A9500E08F
:102BC00008B909F0F00100E008B9099400E008B97B
:102BD000199100E008B9159F00E008B9080E191E08
:102BE00000E008B9F9014A9500E008B909F0F001E0
:102BF00000E008B9099400E008B919910FEF08B98D
:102C0000159F0FEF08B9080E191E0FEF08B9F9014B
:102C10004A9500E008B909F0F00100E008B909940C
:102C20000FEF08B9199100E008B9159F00E008B945
:102C3000080E191E00E008B9F9014A950FEF08B90E
:102C400009F0F00100E008B909940FEF08B91991F3
:102C500000E008B9159F00E008B9080E191E00E051
:102C600008B9F9014A950FEF08B909F0F00100E041
:102C700008B909940FEF08B9199100E008B9159F38
:102C800000E008B9080E191E00E008B9F9014A95DC
:102C90000FEF08B909F0F00100E008B909940FEF4F
:102CA00008B919910FEF08B9159F0FEF08B9080E71
:102CB000191E0FEF08B9F9014A950FEF08B909F08D
:102CC000F00100E008B909940FEF08B9199100E08C
:102CD00008B9159F00E008B9080E191E00E008B9F0
:102CE000F9014A950FEF08B909F0F00100E008B9C1
:102CF00009940FEF08B9199100E008B9159F00E099
:102D000008B9080E191E00E008B9F9014A950FEF3D
:102D100008B909F0F00100E008B9099400E008B929
:102D2000199100E008B9159F00E008B9080E191EB6
:102D300000E008B9F9014A9500E008B909F0F0018E
:102D400000E008B909940FEF08B919910FEF08B91D
:102D5000159F0FEF08B9080E191E0FEF08B9F901FA
:102D60004A9500E008B909F0F00100E008B90994BB
:102D70000FEF08B9199100E008B9159F00E008B9F4
:102D8000080E191E00E008B9F9014A950FEF08B9BD
:102D900009F0F00100E008B909940FEF08B91991A2
:102DA00000E008B9159F00E008B9080E191E00E000
:102DB00008B9F9014A950FEF08B909F0F00100E0F0
:102DC00008B909940FEF08B919910FEF08B9159FC9
:102DD0000FEF08B9080E191E0FEF08B9F9014A954F
:102DE00000E008B909F0F00100E008B909940FEF1C
:102DF00008B9199100E008B9159F00E008B9080E5C
:102E0000191E00E008B9F9014A950FEF08B909F059
:102E1000F00100E008B909940FEF08B9199100E03A
:102E200008B9159F00E008B9080E191E00E008B99E
:102E3000F9014A950FEF08B909F0F00100E008B96F
:102E400009940FEF08B919910FEF08B9159F0FEF0B
:102E500008B9080E191E0FEF08B9F9014A9500E0EC
:102E600008B909F0F00100E008B9099400E008B9D8
:102E7000199100E008B9159F00E008B9080E191E65
:102E800000E008B9F9014A9500E008B909F0F0013D
:102E900000E008B9099400E008B919910FEF08B9EA
:102EA000159F0FEF08B9080E191E0FEF08B9F901A9
:102EB0004A9500E008B909F0F00100E008B909946A
:102EC0000FEF08B9199100E008B9159F00E008B9A3
:102ED000080E191E00E008B9F9014A950FEF08B96C
:102EE00009F0F00100E008B909940FEF08B9199151
:102EF00000E008B9159F00E008B9080E191E00E0AF
:102F000008B9F9014A9500E008B909F0F00100E0BC
:102F100008B909940FEF08B9199100E008B9159F95
:102F200000E008B9080E191E00E008B9F9014A9539
:102F300000E008B909F0F00100E008B909940FEFCA
:102F400008B9199100E008B9159F00E008B9080E0A
:102F5000191E00E008B9F9014A9500E008B909F026
:102F6000F00100E008B909940FEF08B9199100E0E9
:102F700008B9159F00E008B9080E191E00E008B94D
:102F8000F9014A950FEF08B909F0F00100E008B91E
:102F9000099400E008B919910FEF08B9159F0FEFD8
:102FA00008B9080E191E0FEF08B9F9014A9500E09B
:102FB00008B909F0F00100E008B9099400E008B987
:102FC000199100E008B9159F00E008B9080E191E14
:102FD00000E008B9F9014A9500E008B909F0F001EC
:102FE00000E008B909940FEF08B919910FEF08B97B
:102FF000159F0FEF08B9080E191E0FEF08B9F90158
:103000004A9500E008B909F0F00100E008B9099418
:103010000FEF08B9199100E008B9159F00E008B951
:10302000080E191E00E008B9F9014A950FEF08B91A
:1030300009F0F00100E008B909940FEF08B91991FF
:1030400000E008B9159F00E008B9080E191E00E05D
:1030500008B9F9014A950FEF08B909F0F00100E04D
:1030600008B909940FEF08B9199100E008B9159F44
:1030700000E008B9080E191E00E008B9F9014A95E8
:103080000FEF08B909F0F00100E008B909940FEF5B
:1030900008B9199100E008B9159F00E008B9080EB9
:1030A000191E00E008B9F9014A950FEF08B909F0B7
:1030B000F00100E008B909940FEF08B9199100E098
:1030C00008B9159F00E008B9080E191E00E008B9FC
:1030D000F9014A950FEF08B909F0F00100E008B9CD
:1030E00009940FEF08B919910FEF08B9159F0FEF69
:1030F00008B9080E191E0FEF08B9F9014A9500E04A
:1031000008B909F0F00100E008B9099400E008B935
:10311000199100E008B9159F00E008B9080E191EC2
:1031200000E008B9F9014A9500E008B909F0F0019A
:1031300000E008B909940FEF08B919910FEF08B929
:10314000159F0FEF08B9080E191E0FEF08B9F90106
:103150004A950FEF08B909F0F00100E008B90994A9
:103160000FEF08B9199100E008B9159F00E008B900
:10317000080E191E00E008B9F9014A9500E008B9E7
:1031800009F0F00100E008B909940FEF08B91991AE
:1031900000E008B9159F00E008B9080E191E00E00C
:1031A00008B9F9014A9500E008B909F0F00100E01A
:1031B00008B909940FEF08B919910FEF08B9159FD5
:1031C0000FEF08B9080E191E0FEF08B9F9014A955B
:1031D00000E008B909F0F00100E008B909940FEF28
:1031E00008B9199100E008B9159F00E008B9080E68
:1031F000191E00E008B9F9014A9500E008B909F084
:10320000F00100E008B909940FEF08B9199100E046
:1032100008B9159F00E008B9080E191E00E008B9AA
:10322000F9014A9500E008B909F0F00100E008B999
:1032300009940FEF08B919910FEF08B9159F0FEF17
:1032400008B9080E191E0FEF08B9F9014A950FEFDA
:1032500008B909F0F00100E008B9099400E008B9E4
:10326000199100E008B9159F00E008B9080E191E71
:1032700000E008B9F9014A9500E008B909F0F00149
:1032800000E008B909940FEF08B919910FEF08B9D8
:10329000159F0FEF08B9080E191E0FEF08B9F901B5
:1032A0004A950FEF08B909F0F00100E008B9099458
:1032B0000FEF08B9199100E008B9159F00E008B9AF
:1032C000080E191E00E008B9F9014A9500E008B996
:1032D00009F0F00100E008B909940FEF08B919915D
:1032E00000E008B9159F00E008B9080E191E00E0BB
:1032F00008B9F9014A9500E008B909F0F00100E0C9
:1033000008B909940FEF08B919910FEF08B9159F83
:103310000FEF08B9080E191E0FEF08B9F9014A9509
:1033200000E008B909F0F00100E008B909940FEFD6
:1033300008B9199100E008B9159F00E008B9080E16
:10334000191E00E008B9F9014A9500E008B909F032
:10335000F00100E008B909940FEF08B9199100E0F5
:1033600008B9159F00E008B9080E191E00E008B959
:10337000F9014A9500E008B909F0F00100E008B948
:1033800009940FEF08B9199100E008B9159F00E002
:1033900008B9080E191E00E008B9F9014A9500E0C5
:1033A00008B909F0F00100E008B9099400E008B993
:1033B000199100E008B9159F00E008B9080E191E20
:1033C00000E008B9F9014A9500E008B909F0F001F8
:1033D00000E008B9099400E008B919910FEF08B9A5
:1033E000159F0FEF08B9080E191E0FEF08B9F90164
:1033F0004A9500E008B909F0F00100E008B9099425
:103400000FEF08B9199100E008B9159F00E008B95D
:10341000080E191E00E008B9F9014A950FEF08B926
:1034200009F0F00100E008B909940FEF08B919910B
:1034300000E008B9159F00E008B9080E191E00E069
:1034400008B9F9014A9500E008B909F0F00100E077
:1034500008B909940FEF08B9199100E008B9159F50
:103460000FEF08B9080E191E0FEF08B9F9014A95B8
:103470000FEF08B909F0F00100E008B909940FEF67
:1034800008B9199100E008B9159F00E008B9080EC5
:10349000191E00E008B9F9014A950FEF08B909F0C3
:1034A000F00100E008B909940FEF08B9199100E0A4
:1034B00008B9159F00E008B9080E191E00E008B908
:1034C000F9014A950FEF08B909F0F00100E008B9D9
:1034D000099400E008B919910FEF08B9159F0FEF93
:1034E00008B9080E191E0FEF08B9F9014A950FEF38
:1034F00008B909F0F00100E008B9099400E008B942
:10350000199100E008B9159F00E008B9080E191ECE
:1035100000E008B9F9014A9500E008B909F0F001A6
:1035200000E008B909940FEF08B9199100E008B953
:10353000159F00E008B9080E191E00E008B9F9014E
:103540004A950FEF08B909F0F00100E008B90994B5
:103550000FEF08B9199100E008B9159F00E008B90C
:10356000080E191E00E008B9F9014A950FEF08B9D5
:1035700009F0F00100E008B909940FEF08B91991BA
:1035800000E008B9159F00E008B9080E191E00E018
:1035900008B9F9014A950FEF08B909F0F00100E008
:1035A00008B909940FEF08B919910FEF08B9159FE1
:1035B0000FEF08B9080E191E0FEF08B9F9014A9567
:1035C0000FEF08B909F0F00100E008B909940FEF16
:1035D00008B9199100E008B9159F00E008B9080E74
:1035E000191E00E008B9F9014A950FEF08B909F072
:1035F000F00100E008B909940FEF08B9199100E053
:1036000008B9159F00E008B9080E191E00E008B9B6
:10361000F9014A950FEF08B909F0F00100E008B987
:1036200009940FEF08B9199100E008B9159F00E05F
:1036300008B9080E191E00E008B9F9014A950FEF04
:1036400008B909F0F00100E008B9099400E008B9F0
:10365000199100E008B9159F00E008B9080E191E7D
:1036600000E008B9F9014A9500E008B909F0F00155
:1036700000E008B9099400E008B919910FEF08B902
:10368000159F0FEF08B9080E191E0FEF08B9F901C1
:103690004A9500E008B909F0F00100E008B9099482
:1036A00000E008B9199100E008B9159F0FEF08B9BB
:1036B000080E191E00E008B9F9014A9500E008B9A2
:1036C00009F0F00100E008B9099400E008B9199187
:1036D00000E008B9159F0FEF08B9080E191E00E0A9
:1036E00008B9F9014A9500E008B909F0F00100E0D5
:1036F00008B9099400E008B9199100E008B9159FCC
:103700000FEF08B9080E191E00E008B9F9014A9533
:1037100000E008B909F0F00100E008B9099400E000
:1037200008B9199100E008B9159F0FEF08B9080E04
:10373000191E00E008B9F9014A9500E008B909F03E
:10374000F00100E008B9099400E008B9199100E01F
:1037500008B9159F0FEF08B9080E191E00E008B947
:10376000F9014A9500E008B909F0F00100E008B954
:10377000099400E008B919910FEF08B9159F0FEFF0
:1037800008B9080E191E0FEF08B9F9014A9500E0B3
:1037900008B909F0F00100E008B9099400E008B99F
:1037A000199100E008B9159F00E008B9080E191E2C
:1037B00000E008B9F9014A9500E008B909F0F00104
:1037C00000E008B9099400E008B9199100E008B9CF
:1037D000159F00E008B9080E191E00E008B9F901AC
:1037E0004A950FEF08B909F0F00100E008B9099413
:1037F00000E008B9199100E008B9159F00E008B988
:10380000080E191E00E008B9F9014A950FEF08B932
:1038100009F0F00100E008B9099400E008B9199135
:1038200000E008B9159F00E008B9080E191E00E075
:1038300008B9F9014A950FEF08B909F0F00100E065
:1038400008B9099400E008B9199100E008B9159F7A
:1038500000E008B9080E191E00E008B9F9014A9500
:103860000FEF08B909F0F00100E008B909940FEF73
:1038700008B9199100E008B9159F00E008B9080ED1
:10388000191E00E008B9F9014A950FEF08B909F0CF
:10389000F00100E008B909940FEF08B9199100E0B0
:1038A00008B9159F00E008B9080E191E00E008B914
:1038B000F9014A950FEF08B909F0F00100E008B9E5
:1038C000099400E008B919910FEF08B9159F0FEF9F
:1038D00008B9080E191E0FEF08B9F9014A9500E062
:1038E00008B909F0F00100E008B9099400E008B94E
:1038F000199100E008B9159F00E008B9080E191EDB
:1039000000E008B9F9014A9500E008B909F0F001B2
:1039100000E008B909940FEF08B9199100E008B95F
:10392000159F00E008B9080E191E00E008B9F9015A
:103930004A950FEF08B909F0F00100E008B90994C1
:103940000FEF08B9199100E008B9159F00E008B918
:10395000080E191E0FEF08B9F9014A9500E008B9E1
:1039600009F0F00100E008B909940FEF08B91991C6
:1039700000E008B9159F0FEF08B9080E191E00E006
:1039800008B9F9014A9500E008B909F0F00100E032
:1039900008B909940FEF08B919910FEF08B9159FED
:1039A00000E008B9080E191E00E008B9F9014A95AF
:1039B00000E008B909F0F00100E008B909940FEF40
:1039C00008B9199100E008B9159F0FEF08B9080E62
:1039D000191E00E008B9F9014A9500E008B909F09C
:1039E000F00100E008B909940FEF08B9199100E05F
:1039F00008B9159F00E008B9080E191E0FEF08B9A5
:103A0000F9014A9500E008B909F0F00100E008B9B1
:103A100009940FEF08B9199100E008B9159F00E06B
:103A200008B9080E191E00E008B9F9014A950FEF10
:103A300008B909F0F00100E008B9099400E008B9FC
:103A4000199100E008B9159F00E008B9080E191E89
:103A500000E008B9F9014A9500E008B909F0F00161
:103A600000E008B909940FEF08B9199100E008B90E
:103A7000159F00E008B9080E191E00E008B9F90109
:103A80004A9500E008B909F0F00100E008B909948E
:103A90000FEF08B9199100E008B9159F00E008B9C7
:103AA000080E191E00E008B9F9014A9500E008B9AE
:103AB00009F0F00100E008B909940FEF08B9199175
:103AC00000E008B9159F00E008B9080E191E00E0D3
:103AD00008B9F9014A9500E008B909F0F00100E0E1
:103AE00008B909940FEF08B9199100E008B9159FBA
:103AF00000E008B9080E191E00E008B9F9014A955E
:103B000000E008B909F0F00100E008B909940FEFEE
:103B100008B9199100E008B9159F00E008B9080E2E
:103B2000191E00E008B9F9014A9500E008B909F04A
:103B3000F00100E008B909940FEF08B9199100E00D
:103B400008B9159F00E008B9080E191E00E008B971
:103B5000F9014A9500E008B909F0F00100E008B960
:103B600009940FEF08B919910FEF08B9159F0FEFDE
:103B700008B9080E191E0FEF08B9F9014A950FEFA1
:103B800008B909F0F00100E008B9099400E008B9AB
:103B9000199100E008B9159F00E008B9080E191E38
:103BA00000E008B9F9014A9500E008B909F0F00110
:103BB00000E008B909940FEF08B9199100E008B9BD
:103BC000159F00E008B9080E191E00E008B9F901B8
:103BD0004A950FEF08B909F0F00100E008B909941F
:103BE0000FEF08B919910FEF08B9159F00E008B958
:103BF000080E191E0FEF08B9F9014A950FEF08B921
:103C000009F0F00100E008B909940FEF08B9199123
:103C100000E008B9159F0FEF08B9080E191E00E063
:103C200008B9F9014A950FEF08B909F0F00100E071
:103C300008B909940FEF08B9199100E008B9159F68
:103C400000E008B9080E191E00E008B9F9014A950C
:103C50000FEF08B909F0F00100E008B909940FEF7F
:103C600008B9199100E008B9159F00E008B9080EDD
:103C7000191E00E008B9F9014A950FEF08B909F0DB
:103C8000F00100E008B909940FEF08B9199100E0BC
:103C900008B9159F00E008B9080E191E00E008B920
:103CA000F9014A950FEF08B909F0F00100E008B9F1
:103CB00009940FEF08B9199100E008B9159F00E0C9
:103CC00008B9080E191E00E008B9F9014A950FEF6E
:103CD00008B909F0F00100E008B9099400E008B95A
:103CE000199100E008B9159F00E008B9080E191EE7
:103CF00000E008B9F9014A9500E008B909F0F001BF
:103D000000E008B909940FEF08B9199100E008B96B
:103D1000159F00E008B9080E191E00E008B9F90166
:103D20004A950FEF08B909F0F00100E008B90994CD
:103D30000FEF08B919910FEF08B9159F00E008B906
:103D4000080E191E00E008B9F9014A950FEF08B9ED
:103D500009F0F00100E008B909940FEF08B91991D2
:103D600000E008B9159F0FEF08B9080E191E00E012
:103D700008B9F9014A950FEF08B909F0F00100E020
:103D800008B909940FEF08B9199100E008B9159F17
:103D900000E008B9080E191E0FEF08B9F9014A959D
:103DA0000FEF08B909F0F00100E008B909940FEF2E
:103DB00008B9199100E008B9159F00E008B9080E8C
:103DC000191E00E008B9F9014A950FEF08B909F08A
:103DD000F00100E008B909940FEF08B9199100E06B
:103DE00008B9159F00E008B9080E191E00E008B9CF
:103DF000F9014A950FEF08B909F0F00100E008B9A0
:103E000009940FEF08B9199100E008B9159F00E077
:103E100008B9080E191E00E008B9F9014A950FEF1C
:103E200008B909F0F00100E008B9099400E008B908
:103E3000199100E008B9159F00E008B9080E191E95
:103E400000E008B9F9014A9500E008B909F0F0016D
:103E500000E008B9099400E008B919910FEF08B91A
:103E6000159F0FEF08B9080E191E0FEF08B9F901D9
:103E70004A9500E008B909F0F00100E008B909949A
:103E80000FEF08B9199100E008B9159F00E008B9D3
:103E9000080E191E00E008B9F9014A950FEF08B99C
:103EA00009F0F00100E008B909940FEF08B9199181
:103EB00000E008B9159F00E008B9080E191E00E0DF
:103EC00008B9F9014A950FEF08B909F0F00100E0CF
:103ED00008B909940FEF08B9199100E008B9159FC6
:103EE00000E008B9080E191E00E008B9F9014A956A
:103EF0000FEF08B909F0F00100E008B909940FEFDD
:103F000008B9199100E008B9159F00E008B9080E3A
:103F1000191E00E008B9F9014A950FEF08B909F038
:103F2000F00100E008B909940FEF08B9199100E019
:103F300008B9159F00E008B9080E191E00E008B97D
:103F4000F9014A950FEF08B909F0F00100E008B94E
:103F5000099400E008B919910FEF08B9159F0FEF08
:103F600008B9080E191E0FEF08B9F9014A9500E0CB
:103F700008B909F0F00100E008B9099400E008B9B7
:103F8000199100E008B9159F00E008B9080E191E44
:103F900000E008B9F9014A9500E008B909F0F0011C
:103FA00000E008B909940FEF08B919910FEF08B9AB
:103FB000159F0FEF08B9080E191E0FEF08B9F90188
:103FC0004A9500E008B909F0F00100E008B9099449
:103FD0000FEF08B9199100E008B9159F00E008B982
:103FE000080E191E00E008B9F9014A950FEF08B94B
:103FF00009F0F00100E008B909940FEF08B9199130
:1040000000E008B9159F00E008B9080E191E00E08D
:1040100008B9F9014A950FEF08B909F0F00100E07D
:1040200008B909940FEF08B919910FEF08B9159F56
:104030000FEF08B9080E191E0FEF08B9F9014A95DC
:1040400000E008B909F0F00100E008B909940FEFA9
:1040500008B9199100E008B9159F00E008B9080EE9
:10406000191E00E008B9F9014A9500E008B909F005
:10407000F00100E008B909940FEF08B9199100E0C8
:1040800008B9159F00E008B9080E191E00E008B92C
:10409000F9014A9500E008B909F0F00100E008B91B
:1040A00009940FEF08B9199100E008B9159F00E0D5
:1040B00008B9080E191E00E008B9F9014A9500E098
:1040C00008B909F0F00100E008B9099400E008B966
:1040D000199100E008B9159F00E008B9080E191EF3
:1040E00000E008B9F9014A9500E008B909F0F001CB
:1040F00000E008B9099400E008B919910FEF08B978
:10410000159F0FEF08B9080E191E0FEF08B9F90136
:104110004A9500E008B909F0F00100E008B90994F7
:104120000FEF08B9199100E008B9159F00E008B930
:10413000080E191E00E008B9F9014A950FEF08B9F9
:1041400009F0F00100E008B909940FEF08B91991DE
:1041500000E008B9159F00E008B9080E191E00E03C
:1041600008B9F9014A950FEF08B909F0F00100E02C
:1041700008B909940FEF08B9199100E008B9159F23
:1041800000E008B9080E191E00E008B9F9014A95C7
:104190000FEF08B909F0F00100E008B909940FEF3A
:1041A00008B9199100E008B9159F0FEF08B9080E7A
:1041B000191E00E008B9F9014A950FEF08B909F096
:1041C000F00100E008B909940FEF08B9199100E077
:1041D00008B9159F00E008B9080E191E0FEF08B9BD
:1041E000F9014A9500E008B909F0F00100E008B9CA
:1041F000099400E008B919910FEF08B9159F0FEF66
:1042000008B9080E191E00E008B9F9014A950FEF28
:1042100008B909F0F00100E008B9099400E008B914
:10422000199100E008B9159F00E008B9080E191EA1
:1042300000E008B9F9014A9500E008B909F0F00179
:1042400000E008B909940FEF08B919910FEF08B908
:10425000159F0FEF08B9080E191E0FEF08B9F901E5
:104260004A9500E008B909F0F00100E008B90994A6
:104270000FEF08B9199100E008B9159F00E008B9DF
:10428000080E191E00E008B9F9014A950FEF08B9A8
:1042900009F0F00100E008B909940FEF08B919918D
:1042A00000E008B9159F00E008B9080E191E00E0EB
:1042B00008B9F9014A950FEF08B909F0F00100E0DB
:1042C00008B909940FEF08B919910FEF08B9159FB4
:1042D0000FEF08B9080E191E0FEF08B9F9014A953A
:1042E00000E008B909F0F00100E008B909940FEF07
:1042F00008B9199100E008B9159F00E008B9080E47
:10430000191E0FEF08B9F9014A9500E008B909F044
:10431000F00100E008B909940FEF08B9199100E025
:1043200008B9159F00E008B9080E191E00E008B989
:10433000F9014A950FEF08B909F0F00100E008B95A
:1043400009940FEF08B9199100E008B9159F00E032
:1043500008B9080E191E00E008B9F9014A950FEFD7
:1043600008B909F0F00100E008B9099400E008B9C3
:10437000199100E008B9159F00E008B9080E191E50
:1043800000E008B9F9014A9500E008B909F0F00128
:1043900000E008B9099400E008B919910FEF08B9D5
:1043A000159F0FEF08B9080E191E0FEF08B9F90194
:1043B0004A9500E008B909F0F00100E008B9099455
:1043C0000FEF08B9199100E008B9159F00E008B98E
:1043D000080E191E00E008B9F9014A950FEF08B957
:1043E00009F0F00100E008B909940FEF08B919913C
:1043F00000E008B9159F00E008B9080E191E00E09A
:1044000008B9F9014A9500E008B909F0F00100E0A7
:1044100008B9099400E008B919910FEF08B9159F80
:104420000FEF08B9080E191E0FEF08B9F9014A95E8
:1044300000E008B909F0F00100E008B9099400E0D3
:1044400008B9199100E008B9159F00E008B9080EF5
:10445000191E00E008B9F9014A950FEF08B909F0F3
:10446000F00100E008B909940FEF08B9199100E0D4
:1044700008B9159F00E008B9080E191E00E008B938
:10448000F9014A950FEF08B909F0F00100E008B909
:10449000099400E008B919910FEF08B9159F0FEFC3
:1044A00008B9080E191E0FEF08B9F9014A9500E086
:1044B00008B909F0F00100E008B9099400E008B972
:1044C000199100E008B9159F00E008B9080E191EFF
:1044D00000E008B9F9014A9500E008B909F0F001D7
:1044E00000E008B909940FEF08B919910FEF08B966
:1044F000159F0FEF08B9080E191E0FEF08B9F90143
:104500004A950FEF08B909F0F00100E008B90994E5
:1045100000E008B9199100E008B9159F0FEF08B93C
:10452000080E191E00E008B9F9014A9500E008B923
:1045300009F0F00100E008B9099400E008B9199108
:1045400000E008B9159F0FEF08B9080E191E00E02A
:1045500008B9F9014A9500E008B909F0F00100E056
:1045600008B9099400E008B9199100E008B9159F4D
:104570000FEF08B9080E191E00E008B9F9014A95B5
:1045800000E008B909F0F00100E008B9099400E082
:1045900008B9199100E008B9159F0FEF08B9080E86
:1045A000191E00E008B9F9014A9500E008B909F0C0
:1045B000F00100E008B9099400E008B9199100E0A1
:1045C00008B9159F0FEF08B9080E191E00E008B9C9
:1045D000F9014A9500E008B909F0F00100E008B9D6
:1045E000099400E008B9199100E008B9159F0FEF90
:1045F00008B9080E191E00E008B9F9014A9500E053
:1046000008B909F0F00100E008B9099400E008B920
:10461000199100E008B9159F00E008B9080E191EAD
:1046200000E008B9F9014A9500E008B909F0F00185
:1046300000E008B909940FEF08B9199100E008B932
:10464000159F00E008B9080E191E00E008B9F9012D
:104650004A950FEF08B909F0F00100E008B9099494
:104660000FEF08B9199100E008B9159F00E008B9EB
:10467000080E191E00E008B9F9014A950FEF08B9B4
:1046800009F0F00100E008B909940FEF08B9199199
:1046900000E008B9159F00E008B9080E191E00E0F7
:1046A00008B9F9014A950FEF08B909F0F00100E0E7
:1046B00008B909940FEF08B9199100E008B9159FDE
:1046C00000E008B9080E191E00E008B9F9014A9582
:1046D0000FEF08B909F0F00100E008B909940FEFF5
:1046E00008B9199100E008B9159F00E008B9080E53
:1046F000191E00E008B9F9014A950FEF08B909F051
:10470000F00100E008B909940FEF08B9199100E031
:1047100008B9159F00E008B9080E191E00E008B995
:10472000F9014A950FEF08B909F0F00100E008B966
:10473000099400E008B919910FEF08B9159F0FEF20
:1047400008B9080E191E0FEF08B9F9014A9500E0E3
:1047500008B909F0F00100E008B9099400E008B9CF
:10476000199100E008B9159F00E008B9080E191E5C
:1047700000E008B9F9014A9500E008B909F0F00134
:1047800000E008B909940FEF08B9199100E008B9E1
:10479000159F00E008B9080E191E00E008B9F901DC
:1047A0004A950FEF08B909F0F00100E008B9099443
:1047B0000FEF08B9199100E008B9159F00E008B99A
:1047C000080E191E00E008B9F9014A950FEF08B963
:1047D00009F0F00100E008B909940FEF08B9199148
:1047E00000E008B9159F00E008B9080E191E00E0A6
:1047F00008B9F9014A950FEF08B909F0F00100E096
:1048000008B909940FEF08B9199100E008B9159F8C
:1048100000E008B9080E191E00E008B9F9014A9530
:104820000FEF08B909F0F00100E008B909940FEFA3
:1048300008B9199100E008B9159F00E008B9080E01
:10484000191E00E008B9F9014A950FEF08B909F0FF
:10485000F00100E008B9099400E008B919910FEFE0
:1048600008B9159F00E008B9080E191E0FEF08B926
:10487000F9014A9500E008B909F0F00100E008B933
:10488000099400E008B9199100E008B9159F0FEFED
:1048900008B9080E191E00E008B9F9014A9500E0B0
:1048A00008B909F0F00100E008B9099400E008B97E
:1048B000199100E008B9159F00E008B9080E191E0B
:1048C00000E008B9F9014A9500E008B909F0F001E3
:1048D00000E008B909940FEF08B9199100E008B990
:1048E000159F00E008B9080E191E00E008B9F9018B
:1048F0004A950FEF08B909F0F00100E008B90994F2
:104900000FEF08B9199100E008B9159F00E008B948
:10491000080E191E00E008B9F9014A950FEF08B911
:1049200009F0F00100E008B909940FEF08B91991F6
:1049300000E008B9159F0FEF08B9080E191E00E036
:1049400008B9F9014A950FEF08B909F0F00100E044
:1049500008B909940FEF08B9199100E008B9159F3B
:104960000FEF08B9080E191E00E008B9F9014A95C1
:104970000FEF08B909F0F00100E008B909940FEF52
:1049800008B9199100E008B9159F0FEF08B9080E92
:10499000191E00E008B9F9014A950FEF08B909F0AE
:1049A000F00100E008B909940FEF08B9199100E08F
:1049B00008B9159F0FEF08B9080E191E00E008B9D5
:1049C000F9014A950FEF08B909F0F00100E008B9C4
:1049D000099400E008B919910FEF08B9159F00E09C
:1049E00008B9080E191E0FEF08B9F9014A9500E041
:1049F00008B909F0F00100E008B9099400E008B92D
:104A0000199100E008B9159F00E008B9080E191EB9
:104A100000E008B9F9014A9500E008B909F0F00191
:104A200000E008B909940FEF08B9199100E008B93E
:104A3000159F00E008B9080E191E00E008B9F90139
:104A40004A950FEF08B909F0F00100E008B90994A0
:104A50000FEF08B9199100E008B9159F00E008B9F7
:104A6000080E191E00E008B9F9014A950FEF08B9C0
:104A700009F0F00100E008B9099400E008B91991C3
:104A80000FEF08B9159F00E008B9080E191E0FEFC7
:104A900008B9F9014A9500E008B909F0F00100E011
:104AA00008B9099400E008B9199100E008B9159F08
:104AB0000FEF08B9080E191E00E008B9F9014A9570
:104AC00000E008B909F0F00100E008B9099400E03D
:104AD00008B919910FEF08B9159F00E008B9080E41
:104AE000191E0FEF08B9F9014A9500E008B909F05D
:104AF000F00100E008B909940FEF08B9199100E03E
:104B000008B9159F00E008B9080E191E00E008B9A1
:104B1000F9014A950FEF08B909F0F00100E008B972
:104B200009940FEF08B9199100E008B9159F00E04A
:104B300008B9080E191E00E008B9F9014A950FEFEF
:104B400008B909F0F00100E008B9099400E008B9DB
:104B5000199100E008B9159F00E008B9080E191E68
:104B600000E008B9F9014A9500E008B909F0F00140
:104B700000E008B909940FEF08B9199100E008B9ED
:104B8000159F00E008B9080E191E00E008B9F901E8
:104B90004A950FEF08B909F0F00100E008B909944F
:104BA0000FEF08B9199100E008B9159F00E008B9A6
:104BB000080E191E00E008B9F9014A950FEF08B96F
:104BC00009F0F00100E008B909940FEF08B9199154
:104BD00000E008B9159F00E008B9080E191E00E0B2
:104BE00008B9F9014A950FEF08B909F0F00100E0A2
:104BF00008B9099400E008B919910FEF08B9159F99
:104C000000E008B9080E191E0FEF08B9F9014A951E
:104C100000E008B909F0F00100E008B9099400E0EB
:104C200008B9199100E008B9159F0FEF08B9080EEF
:104C3000191E00E008B9F9014A9500E008B909F029
:104C4000F00100E008B9099400E008B9199100E00A
:104C500008B9159F0FEF08B9080E191E00E008B932
:104C6000F9014A9500E008B909F0F00100E008B93F
:104C7000099400E008B9199100E008B9159F0FEFF9
:104C800008B9080E191E00E008B9F9014A9500E0BC
:104C900008B909F0F00100E008B9099400E008B98A
:104CA000199100E008B9159F00E008B9080E191E17
:104CB00000E008B9F9014A9500E008B909F0F001EF
:104CC00000E008B909940FEF08B919910FEF08B97E
:104CD000159F0FEF08B9080E191E0FEF08B9F9015B
:104CE0004A9500E008B909F0F00100E008B909941C
:104CF00000E008B9199100E008B9159F00E008B973
:104D0000080E191E0FEF08B9F9014A9500E008B91D
:104D100009F0F00100E008B9099400E008B9199120
:104D200000E008B9159F0FEF08B9080E191E00E042
:104D300008B9F9014A9500E008B909F0F00100E06E
:104D400008B9099400E008B919910FEF08B9159F47
:104D500000E008B9080E191E00E008B9F9014A95EB
:104D600000E008B909F0F00100E008B909940FEF7C
:104D700008B9199100E008B9159F00E008B9080EBC
:104D8000191E00E008B9F9014A9500E008B909F0D8
:104D9000F00100E008B909940FEF08B9199100E09B
:104DA00008B9159F00E008B9080E191E00E008B9FF
:104DB000F9014A9500E008B909F0F00100E008B9EE
:104DC00009940FEF08B919910FEF08B9159F0FEF6C
:104DD00008B9080E191E0FEF08B9F9014A9500E04D
:104DE00008B909F0F00100E008B9099400E008B939
:104DF000199100E008B9159F00E008B9080E191EC6
:104E000000E008B9F9014A9500E008B909F0F0019D
:104E100000E008B9099400E008B9199100E008B968
:104E2000159F0FEF08B9080E191E0FEF08B9F90109
:104E30004A9500E008B909F0F00100E008B90994CA
:104E400000E008B919910FEF08B9159F00E008B903
:104E5000080E191E00E008B9F9014A9500E008B9EA
:104E600009F0F00100E008B9099400E008B91991CF
:104E70000FEF08B9159F00E008B9080E191E00E0F1
:104E800008B9F9014A9500E008B909F0F00100E01D
:104E900008B909940FEF08B919910FEF08B9159FD8
:104EA00000E008B9080E191E00E008B9F9014A959A
:104EB00000E008B909F0F00100E008B9099400E049
:104EC00008B919910FEF08B9159F00E008B9080E4D
:104ED000191E00E008B9F9014A9500E008B909F087
:104EE000F00100E008B9099400E008B919910FEF4A
:104EF00008B9159F00E008B9080E191E00E008B9AE
:104F0000F9014A9500E008B909F0F00100E008B99C
:104F1000099400E008B9199100E008B9159F0FEF56
:104F200008B9080E191E0FEF08B9F9014A9500E0FB
:104F300008B909F0F00100E008B9099400E008B9E7
:104F4000199100E008B9159F00E008B9080E191E74
:104F500000E008B9F9014A9500E008B909F0F0014C
:104F600000E008B9099400E008B9199100E008B917
:104F7000159F0FEF08B9080E191E0FEF08B9F901B8
:104F80004A9500E008B909F0F00100E008B9099479
:104F900000E008B919910FEF08B9159F00E008B9B2
:104FA000080E191E00E008B9F9014A950FEF08B97B
:104FB00009F0F00100E008B909940FEF08B9199160
:104FC00000E008B9159F0FEF08B9080E191E0FEF82
:104FD00008B9F9014A9500E008B909F0F0010FEFAE
:104FE00008B909940FEF08B9199100E008B9159FA5
:104FF0000FEF08B9080E191E00E008B9F9014A952B
:1050000000E008B909F0F0010FEF08B909940FEFBB
:1050100008B9199100E008B9159F0FEF08B9080EFB
:10502000191E0FEF08B9F9014A9500E008B909F017
:10503000F0010FEF08B9099400E008B919910FEFDA
:1050400008B9159F00E008B9080E191E00E008B95C
:10505000F9014A950FEF08B909F0F00100E008B92D
:10506000099400E008B9199100E008B9159F0FEF05
:1050700008B9080E191E0FEF08B9F9014A9500E0AA
:1050800008B909F0F00100E008B9099400E008B996
:10509000199100E008B9159F00E008B9080E191E23
:1050A00000E008B9F9014A9500E008B909F0F001FB
:1050B00000E008B9099400E008B919910FEF08B9A8
:1050C000159F0FEF08B9080E191E00E008B9F90185
:1050D0004A9500E008B909F0F00100E008B9099428
:1050E00000E008B9199100E008B9159F00E008B97F
:1050F000080E191E0FEF08B9F9014A9500E008B92A
:1051000009F0F00100E008B9099400E008B919912C
:1051100000E008B9159F00E008B9080E191E0FEF4E
:1051200008B9F9014A9500E008B909F0F00100E07A
:1051300008B9099400E008B9199100E008B9159F71
:1051400000E008B9080E191E0FEF08B9F9014A95D9
:105150000FEF08B909F0F00100E008B9099400E088
:1051600008B9199100E008B9159F00E008B9080EC8
:10517000191E0FEF08B9F9014A9500E008B909F0C6
:10518000F00100E008B9099400E008B9199100E0C5
:1051900008B9159F00E008B9080E191E0FEF08B9ED
:1051A000F9014A9500E008B909F0F00100E008B9FA
:1051B000099400E008B919910FEF08B9159F0FEF96
:1051C00008B9080E191E00E008B9F9014A9500E077
:1051D00008B909F0F00100E008B9099400E008B945
:1051E000199100E008B9159F00E008B9080E191ED2
:1051F00000E008B9F9014A9500E008B909F0F001AA
:1052000000E008B909943031323334353637383953
:105210003031323334353637383930313233343552
:105220003637383930313233343536373839303132
:105230003233343536373839303132333435363726
:1052400038390048494748205245534F4C55544936
:105250004F4E204D4F44452044454D4F2036305849
:105260003238202D203658382054494C45530030D0
:1052700031323334353637383930313233343536EC
:1052800037383930313233343536373839303132D6
:1052900033343536373839303132333435363738C0
:1052A00039303132333435363738390011241FBEA6
:1052B000CFEFD0E1DEBFCDBF14BE88E10FB6F894CA
:1052C00080936000109260000FBE11E0A0E0B1E09A
:1052D000E8EBFFE602C005900D92A030B107D9F7C8
:1052E0001AE0A0E0B1E001C01D92AC34B107E1F7D3
:1052F0000E948C33882311F40E94A233F894E8EAC8
:10530000F7E080E8819399E0E43BF907D9F788EA70
:1053100097E09093B5098093B4091092B609109262
:10532000B9091092C3091092CD091092D70991E0E2
:105330009093D9099093DA099093D809109281003B
:1053400015BC8FEF87B984B988E98AB95C9A8CE07B
:1053500081B98BEF82B91092900786E08093910714
:10536000109285001092840083E0809389008DE87C
:105370008093880089E08093810082E080936F00B1
:1053800082E484BD17BC95BD83E88093B000109281
:10539000B3009093B10081E185B91092A5071092F6
:1053A0009407109295071092A00710929F071092F1
:1053B000A4071092A3071092A6070E94403380E032
:1053C0000E94213380FF03C084E00E941E330E94AC
:1053D000BA3778940E949D370E94BD370C94DA3713
:1053E0000C940000EFEC00C000C0EA95E1F700C0AB
:1053F00000C00000C0E0D1E000EEA02E662772D110
:1054000039E23A95F1F70E942D2A30E13A95F1F709
:105410000000AA9489F0C8956395683029F0C89572
:10542000C895C8950000EBCF662700243CE3C30F66
:10543000D01DC8950000E3CF35E03A95F1F700C0E4
:1054400051D111E000919307012700939307109326
:105450009207E2E0E09336000895CF93DF9323E4D0
:105460003AE258EA75E180919A0790919B079695E8
:105470008795679F800D911D4991459F080E191EC4
:10548000F0014CE30994002708B9DF91CF9108950A
:1054900001E008B9199102E008B9159F03E008B9C5
:1054A000080E191E04E008B9F9014A9505E008B98B
:1054B00009F0F00106E008B9099401E008B9199172
:1054C00002E008B9159F03E008B9080E191E04E0B0
:1054D00008B9F9014A9505E008B911F0F00106E0B4
:1054E00008B9099401E008B9199102E008B9159FBB
:1054F00003E008B9080E191E04E008B9F9014A953D
:1055000005E008B911F0F00106E008B9099401E0DE
:1055100008B9199102E008B9159F03E008B9080E0F
:10552000191E04E008B9F9014A9505E008B911F01F
:10553000F00106E008B9099401E008B9199102E008
:1055400008B9159F03E008B9080E191E04E008B950
:10555000F9014A9505E008B911F0F00106E008B933
:10556000099401E008B9199102E008B9159F03E018
:1055700008B9080E191E04E008B9F9014A9505E0BA
:1055800008B911F0F00106E008B9099401E008B982
:10559000199102E008B9159F03E008B9080E191E19
:1055A00004E008B9F9014A9505E008B911F0F001E5
:1055B00006E008B9099401E008B9199102E008B9B8
:1055C000159F03E008B9080E191E04E008B9F90197
:1055D0004A9505E008B911F0F00106E008B9099410
:1055E000802B8F2B9D2BF42A28980E941A2DEBE0FC
:1055F000EA95F1F700C0E7E0E0938900EBE1E09382
:105600008800E0E0F6E0BED0289AE0FF30D0E0FF6E
:105610002DC02F933F934F935F936F937F938F93FF
:105620009F93AF93BF9378941124E0919607F091E4
:105630009707E115F10509F009950E949C370E9432
:105640007B330E94472C1124E0919807F091990731
:10565000E115F10509F00995BF91AF919F918F91E7
:105660007F916F915F914F913F912F910895EF93AB
:10567000E0919107E93E80F4E93070F0EDE1FF2719
:1056800000800F92EA95E1F70E94F229E1E0FF27FE
:105690000F900192EE31E0F3EF910895FF93EF93B5
:1056A000EFB7EF93E0918400EE50F1E0EF1700F0D8
:1056B000F395FA30D8F305D0EF91EFBFEF91FF915A
:1056C00018950F921F92E0EEF5E500909007000C00
:1056D0001124E00DF11D05901490F00109951F9023
:1056E0000F90089528980E941A2DE5E1EA95F1F7A8
:1056F000E0919107EA95E0939107289A00C00895F8
:1057000028980E943C2D289A0000E1E0F6E03AD06B
:10571000E3E0E0938900EDE8E0938800089528989D
:105720000E943C2DE9EA0000EA95E9F700C000007C
:10573000F6E0E2E027D0289A089528980E943C2DB0
:10574000289A0000E3E0FDEF1DD0E0919107E530DD
:1057500091F4E0919307E1300000F091A50719F46E
:10576000F091A507F195E3E0E0938900EDE8EF0FF4
:10577000E09388000895E3E0E0938900EDE8E0938A
:1057800088000895009091070A9410905F0011FC22
:105790000F2E009291070090900711FC0E2E0092A0
:1057A0009007E0E011FCE1E0089500000000000037
:1057B00000000000000000000000000000000000E9
:1057C00000000000000000000000000000000000D9
:1057D00000000000000000000000000000000000C9
:1057E00000000000000000000000000000000000B9
:1057F00000000000000000000000000000000000A9
:1058000099277727833008F00895ECE8FAE5660FCA
:10581000771FE60FF71FA591B491E9EBF9E02AE0B5
:10582000289FE00DF11DA183B2831124089590916A
:10583000D8099170880F892B8093D80908959927EA
:105840007727E9EBF9E02AE0289FE00DF11D6E3F94
:1058500031F46091D8096E7F6093D8090BC06F3F17
:1058600031F46091D8096E6F6093D80903C07CE56C
:10587000760F75831124089599277727E9EBF9E0CE
:105880002AE0289FE00DF11D6083112408950E94F5
:10589000FE340090B609002019F4A8EAB7E002C06F
:1058A000AEEAB8E021E002260092B60922E0209399
:1058B000B7092F923F924F925F926F927F928F9291
:1058C0009F92AF92BF92CF92DF92EF92FF920F938F
:1058D0001F93CF93DF935091D7096091D9097091AD
:1058E000DA098091DB092090BA093090BB09409019
:1058F000BD095090BE096090BC091091B909709023
:10590000C4098090C5099090C609A090C709B090BD
:10591000C8092091C309C090CE09D090CF09E0906A
:10592000D109F090D2090091D0093091CD099FEFB3
:10593000620C431CF2014491410300240008C12D74
:10594000D02D970CA81CF5014491420300240008B7
:10595000C10DD01D0C0DED1CF70144914303002433
:105960000008C10DD01D8A956AF44091D809842F92
:105970008695062E0694062600FA7695679576F9A2
:1059800040FF66F940E860FD4FE74503002400084A
:10599000C10DD01D0024C038D0050CF0CFE70A940B
:1059A000C038D0050CF4C0E8C058CD939A9509F0E2
:1059B000BFCF4091B7094A954093B70997E009F0E6
:1059C000B7CF6092BC094092BD099092C609A092DF
:1059D000C7090093D009E092D1096093D909709367
:1059E000DA098093DB09DF91CF911F910F91FF902E
:1059F000EF90DF90CF90BF90AF909F908F907F906F
:105A00006F905F904F903F902F900895E091B40970
:105A1000F091B509019100000093B30009E0E43B67
:105A2000F00708EA17E008F0F801E093B409F093F2
:105A3000B50908950C941C2D0C941E2D0F931F93E3
:105A40002F93E091B409F091B50901910093B3004F
:105A500009E0E43BF00708F400C010F0E8EAF7E0E2
:105A6000E093B409F093B50926E02A95F1F700C058
:105A70002F911F910F9108950000E0919107E0FF91
:105A8000DDCFE1E1EA95F1F700C00895220024009E
:105A9000260028002B002D0030003300360039008E
:105AA0003D004000440048004C00510056005B009F
:105AB000600066006C00730079008100880090002F
:105AC0009900A200AC00B600C100CC00D800E500EF
:105AD000F3000101100121013201440157016C0161
