:100000000C9402130C947E130C947E130C947E13A8
:100010000C947E130C947E130C947E130C947E131C
:100020000C947E130C947E130C947E130C947E130C
:100030000C947E130C9453150C9493150C947E130E
:100040000C947E130C947E130C947E130C947E13EC
:100050000C947E130C947E130C947E130C947E13DC
:100060000C947E130C947E130C947E130C947E13CC
:100070008100450027FF24FF2A902B1C210C22FB26
:10008000850084008903888D81096F0244424700FE
:100090004501B083B300B10125118A4F8B035A5536
:1000A00001200101003808000000000000000000ED
:1000B00000000000000000000000000000004418E4
:1000C0004718CC18C418BD18501855185A18A41839
:1000D0005D1860186318A11800408891D2E4ADB58E
:1000E000B6BEBFFF5468616E6B7320666F7220707E
:1000F0006C6179696E672100536F72727920746840
:1001000069732067616D6520697320696E636F6D27
:10011000706C6574652E004F727978204C6F2D4697
:10012000692C206F72797864657369676E6C61629F
:100130002E636F6D003B323031332042656E747236
:100140006963697479004573636170652046726FF5
:100150006D0050726573732053746172742100478F
:100160006F6C643A004B6579733A004C6966653A86
:1001700000FE202B2B20FEFEFEFEFE202B2B20FE61
:10018000FEFEFE20007700FEFEFEFE6F77776FFE1C
:10019000FEFE20202B2B20FEFEFE206F1C1F136F67
:1001A000FEFEFE202B2B20FEFEFEFEFE13FE13FEA7
:1001B000FEFE202B2B20FEFEFEFEFE202B2B20FE23
:1001C000FEFEFE20007700FEFEFEFE6F77776FFEDC
:1001D000FEFE20202B2B206FFEFE6F131F1C132012
:1001E000FEFEFE202B2B20FEFEFE13FEFEFEFE1367
:1001F000FEFE202B2B20FEFEFEFEFE202B2B20FEE3
:10020000FEFEFE20007700FEFEFEFE6F77776FFE9B
:10021000FEFEFE206F2B20FEFEFEFE2020131FFEA2
:10022000FEFEFE202B2B20FEFEFE13FEFEFEFE1326
:10023000FEFEFEFEFEFEFEFEFEFEFEFEFEFEFEFEDE
:10024000FEFEFEFEFEFEFEFEFEFEFEFEFEFEFEFECE
:10025000FEFEFEFEFEFEFEFEFEFEFEFEFEFEFEFEBE
:10026000FEFEFEFEFEFEFEFEFEFEFEFEFEFEFEFEAE
:10027000FEFEFEFEFE5656FE00FEFEFE565656568C
:1002800000FEFEFE563F563F00FEFEFE56565656F8
:10029000FEFEFE565656565656FE56FE565656FE0E
:1002A00056FEFEFE565656FEFEFEFE56FEFE56FE5E
:1002B000FEFEFEADFFFFFEFEFEFEADFFFFFFFFFEFA
:1002C000FEFEADFF00FF00FEFEFEFEFEFF00FFFE95
:1002D000FEFEADFFFFFFFFADFEADFE5BFFFF5BFE71
:1002E000ADFEFEADFFFFFEFEFEFEADFEFEFEADFE70
:1002F000FEFEFEFEFEFEFEFEFEFEFEFEFEFEFEFE1E
:10030000FEFEFEFEFEFEFF6FFEFEFEFEFEFFFEFE9A
:10031000FEFFFFFFADFFFEFEFEFEFFADFFFFFEFE98
:10032000FEFEFEFFFFFEFEFEFEFEFEFE6FFEFEFE7A
:10033000FEFEFEFFFEFFFEFEFEFEFF00FF00FFFED4
:10034000FEFF005B00005BFFFEFF000000005BFFA4
:10035000FEFEFF00005BFFFEFEFEFEFF5BFFFEFEFB
:10036000FEFEFEFEFFFEFEFEFEFEFEFEFEFEFEFEAC
:10037000FEFEFEFEFEFEFEFEFEFEFEFEFEFEFEFE9D
:10038000FE37FEFE3737FEFEFEFEFE372737FEFE47
:1003900037FE3727372737FEFE37373727372737D8
:1003A000FE0000000000000000FE0000000000FE53
:1003B000FEFEFEFFFEFFFEFEFEFEFF06FF06FFFE48
:1003C000FEFF0647060604FFFEFF0606060604FFBC
:1003D000FEFEFF060604FFFEFEFEFEFF04FFFEFE1D
:1003E000FEFEFEFEFFFEFEFEFEFEFEFEFEFEFEFE2C
:1003F000FEFEFEFEFEFEFEFEFEFEFEF5F5FFF5FE37
:10040000FEFEFEFEF5F5FEFEFEFEFEF5ADFFF5FE80
:10041000FEFEF5040D060DF5FEFEF504040D04F5D3
:10042000FEFEFEF5F5F5F5FEFEFEFEFEFEFEFEFE10
:10043000FEFEFE1D1D1D1DFEFEFEFE1D3737011DAD
:10044000FEFEFE372737371D1DFE37273727371D9E
:100450000A1D1D1D1D1D1D1D1D1D0A0A6E0A0A1DDA
:10046000FE1D0A0A0A0A0A1DFE1D1D1D1D1D1DFE78
:10047000FEFEFEFEFEFEFEFEFEFE1D1D1D1D1DFE01
:10048000FE1D1D0A0A0A0A1DFE1D0A0A0A0A0A1D85
:100490001D1D1D1D1D1D1D1D1D1D0A0A6E0A0A1D87
:1004A000FE1D0A0A0A0A0A1DFE1D1D1D1D1D1DFE38
:1004B000FEFEFEFE2737FEFEFEFEFE27FEFE37FE98
:1004C000FEFEFE27FEFE27FEFEFEFEFE2727FEFEA8
:1004D000FEFEFEFEFE27FEFEFEFEFEFE2727FEFEC1
:1004E000FEFEFEFEFE27FEFEFEFEFE272727FEFE88
:1004F000FE000000000000000000000000000000FE
:1005000000000000000000000000000000000000EB
:1005100000000000000000000000000000000000DB
:1005200000000000000000000000000000000000CB
:100530000001010101010101010A0A0A0A0A0A0A6D
:100540000A01010101010101010A0A0A0A0A0A0A53
:100550000A01010101010101010A0A0A0A0A0A0A43
:100560000A01010101010101010A0A0A0A0A0A0A33
:100570000A0101010101010101015353010153531A
:100580000101535301015353010101010101010113
:100590000101010101010101010153530101535303
:1005A00001015353010153530101010101010101F3
:1005B00001530A0101530A01010A0A01010A0A0151
:1005C000010101530A0101530A01010A0A01010A4A
:1005D0000A530A0101530A01010A0A01010A0A0128
:1005E000010101530A0101530A01010A0A01010A2A
:1005F0000A00000065650000000065650A0B65657E
:1006000000650A0B0A0B0A0B65ADAD0B0A0B0A0B52
:100610000A0B0A0B0A0BAD0B0AADAD0B0A0B0A0B4A
:100620000A0B0A0B0A0B0A0B0A0B0A0B0A0B0A0B22
:100630000A0A0A0A0A0A0A0A0A0A00000000010B4A
:100640000A0A000000015C0B0A0A0000010B5C0BA7
:100650000A0A00015C0B5C0B0A0A010B5C0B5C0BC9
:100660000A0A5C0B5C0B5C0B0A0A0A0A0A0A0A0AF1
:100670000A5C0C0C0C0C0C0C5C0C0C0C0C0C0C0C1C
:100680000C0C0C0C0C0C0C0C0C5C0C0C0C0C0C0C5A
:100690005C0B0B0B0B0B0B0B0B0B0000000000009B
:1006A0000B0B0000000000000B0B0000000000001E
:1006B0000B65656565656565655C5C5C5C5C5C5C83
:1006C0005C5CBC072A456E545C5CBC072A456E54D2
:1006D0005C5C5C5C5C5C5C5C5C5C05D2371061BC47
:1006E0005C5C05D2371061BC5C5C5C5C5C5C5C5C37
:1006F0005C0065656565656500656565656565657D
:10070000650A6565656565650A520A0B0B0B0B0A80
:10071000520A52A4A4A4A4520A0A0A0B0B0B0B0AF5
:100720000A520A0B0B0B0B0A520A52A4A4A4A4529D
:100730000A00005C5C5C5C0000005C5C65655C5C05
:10074000000A5C656565655C0A5C5C656565655CA1
:100750005C5C6565656565655C5C6565656565656D
:100760005C5C6565656565655C5C6565656565655D
:100770005C5C6565656565655C5C5C656565655C5F
:100780005C0A5C656565655C0A0B5C5C65655C5C68
:100790000B0B0A5C5C5C5C0A0B0A0B0B0B0A0A0B6A
:1007A0000A0A0B0A0A0B0B0A0B000A0B0B0A0A0BAC
:1007B00009005C6565656565655C5C6565656565C5
:1007C000655C5C6565656565650A5C5C5C5C5C5C7C
:1007D0005C0B0A0B0A0A0B0A0A0B0B0A0B0B0A0B1F
:1007E0000B0A0B0B0A0A0B0A0A090A0A0B0B0A0B63
:1007F0000B65656565656565656565656565656503
:100800006565656565656565656565656565656598
:100810006565656565656565656565656565656588
:100820006565656565656565656565656565656578
:100830006565656565656565656565656565656568
:100840006565656565656565655C5C5C5C5C5C5C97
:100850005C0A0A0B0B0A0B0A0B0B0B0A0B0B0A0B9D
:100860000B0A0A0B0A0A0B0B0A0B0B0A0B0B0A0BDF
:100870000B6565656565655C006565656565655CF9
:100880005C6565656565655C5C5C5C5C5C5C5C5C72
:100890000A0B0A0A0B0B0B0B0B0A0B0B0A0B0B0AAE
:1008A0000B0B0B0A0B0B0A0B0A0A0B0B0B0A0B0B9D
:1008B00000005C5C5C5C5C5C005C5C656565655C68
:1008C0005C5C6565656565655C5C5C656565655C0E
:1008D0005C0A5C5C5C5C5C5C0B0B0B0A0B0B0A0B34
:1008E0000A0B0A0B0A0A0B0B0B000B0A0B0B0B0A69
:1008F0000009090909090909091212121212121232
:10090000120909090909090909121212121212120F
:1009100012090909090909090912121212121212FF
:1009200012090909090909090912121212121212EF
:1009300012090909090909090909121209091212FA
:1009400009091212090912120909090909090909F3
:1009500009090909090909090909121209091212E3
:1009600009091212090912120909090909090909D3
:100970000919120909191209091212090912120991
:10098000090909191209091912090912120909128A
:100990001219120909191209091212090912120968
:1009A000090909191209091912090912120909126A
:1009B00012FFFFFF0000000000FF00000000000029
:1009C00000FF00000000000000FF00000000000029
:1009D00000FFFF0000FFFFFF00FF00000000FF001E
:1009E00000FF0000000000FF00FFFFFF00FFFFFF0F
:1009F00000000000000000000000000000000000F7
:100A000000000000000000000000000000000000E6
:100A10000000FFFF00FFFF0000FF0000000000FFDC
:100A200000FF000000FFFF000000FFFF00FFFFFFCE
:100A300000000000000000000000000000000000B6
:100A400000000000000000000000000000000000A6
:100A500000FFFF000000FFFF00FF00FF00FFFFFF9F
:100A600000FFFF0000FF000000FF00000000FFFF8C
:100A70000000000000000000000000000000000076
:100A8000000000FFFF0000000000FF000000000069
:100A90000000FFFF0000FFFF0000FF0000FF00005C
:100AA0000000FF0000FF0000FF00FF0000FF00004B
:100AB0000000000000000000000000000000000036
:100AC0000000000000000000000000000000000026
:100AD000000000000000000000FF0000FFFFFFFF1B
:100AE0000000FF00FF00FF00FFFF0000FF00FF000D
:100AF000FF1919101910102319102323102319237B
:100B00001019231010231023191010191019191976
:100B10002323101019101910192310191019232349
:100B2000231919102319192319192323191019230B
:100B30002310191010101919101910231919101059
:100B40001910191923192323102310231010192306
:100B50001910191019191010101910231010231042
:100B60001910101923231919101019191010101920
:100B700010192323191919101019102310102319F3
:100B800010101910191023231910192323191910E3
:100B900019191019231910101019102310101919F0
:100BA00010101919102323192319101919102310C3
:100BB000230000000000000000FFFFFFFFFF000017
:100BC00000FF00000000FF0000FF00000000FF0029
:100BD00000FF00000000FF00FFFF00000000FF001A
:100BE000FFFF00000000FF00FFFFFFFFFFFF00000E
:100BF00000000000000000000000000000000000F5
:100C000000000000000000000000000000000000E4
:100C1000000000FF00FF0000000000FF00FFFFFFDA
:100C2000000000FF00FF0000FFFFFF0000FF0000CA
:100C3000FF000000000000000000000000000000B5
:100C4000000000FFFF0000000000FF0000FF0000A8
:100C50000000FF0000FF0000FF0000FFFF0000FF9A
:100C6000FF00000000FF00FF000000FFFF00000089
:100C7000FF00000000000000000000000000000075
:100C80000000000000000000000000000000000064
:100C900000FF0000FFFF0000FFFF00FF0000FF005B
:100CA000FF0000FF0000FF00FFFF0000FFFF00004B
:100CB000FF00000000000000000000000000000035
:100CC000000000000000FFFF0000000000FF000027
:100CD000FF00000000000000FFFFFF00000000FF19
:100CE000000000FF0000FF00000000FF00FFFFFF0A
:100CF000FFFFFFFFFFFFFFFFFFFFFFFFFFFFFFFF04
:100D0000FFFFFFFFFFFFFFFFFFFFFFFFFFFFFFFFF3
:100D1000FFFFFFFFFFFFFFFFFFFFFFFFFFFFFFFFE3
:100D2000FFFFFFFFFFFFFFFFFFFFFFFFFFFFFFFFD3
:100D3000FFFF00000000000000FFFF0000000000B7
:100D400000FFFFFF0000000000FFFFFFFF000000AA
:100D500000FFFFFFFFFF000000FFFFFFFFFFFF009E
:100D600000FFFFFFFFFFFFFF00FFFFFFFFFFFFFF91
:100D7000FF00000000000000FF000000000000FF76
:100D8000FF0000000000FFFFFF00000000FFFFFF6A
:100D9000FF000000FFFFFFFFFF0000FFFFFFFFFF5E
:100DA000FF00FFFFFFFFFFFFFFFFFFFFFFFFFFFF52
:100DB000FFFFFFFFFFFFFFFFFFFFFFFFFFFFFFFF43
:100DC00000FFFFFFFFFFFF0000FFFFFFFFFF00002E
:100DD00000FFFFFFFF00000000FFFFFF000000001A
:100DE00000FFFF000000000000FF00000000000006
:100DF00000FFFFFFFFFFFFFFFF00FFFFFFFFFFFF01
:100E0000FF0001FFFFFFFFFFFF000000FFFFFFFFEC
:100E1000FF00000000FFFFFFFF0000000000FFFFD9
:100E2000FF000000000000FFFF00000000000000C5
:100E3000FF00000000000000000000ADADADADAD52
:100E4000AD00AD00201D37373700AD1D37373737C0
:100E50003700AD1D1D37371D1D00AD1D1D1D1D1D8E
:100E60003700AD001D1D1D373700AD00001D1D37BB
:100E7000370000000000000000ADADADADADADAD80
:100E8000AD37373737373737371D1D1D37373737CA
:100E9000371D373737373737373737373737371D16
:100EA0003737373737371D1D37373737371D1D373A
:100EB000370000000000000000ADADADADADAD00ED
:100EC0000037371D002029AD00373737002020AD0F
:100ED000003737371D0020AD003737371D0020ADF4
:100EE000003737371D1D00AD00371D1D1D1D00AD1E
:100EF00000ADADADADADADADADA3A3A3A3A3A3A315
:100F0000AD525252525252A3AD525252525252A369
:100F1000AD525252525252A3AD525252525252A359
:100F2000AD525252525252A3AD525252525252A349
:100F3000AD000000000000000052525252525252C6
:100F400052ADADADADADADADADA3A3A3A3A3A3A372
:100F5000A352525252525252525252525252525220
:100F6000525252525252525252000000000000009F
:100F70000000525252A3AD520000525252A3AD5241
:100F80000000525252A3AD520000525252A3AD5231
:100F90000000525252A3AD520000525252A3AD5221
:100FA0000000525252A3AD520000525252A3AD5211
:100FB000000000FF00FF00000000FF06FF06FF002A
:100FC00000FF0647060604FF00FF0606060604FFAC
:100FD0000000FF060604FF00000000FF04FF000001
:100FE00000000000FF000000000000000000000002
:100FF000000000FF00FF00000000FF00FF00FF00F6
:1010000000FF005B00005BFF00FF000000005BFFD3
:101010000000FF00005BFF00000000FF5BFF00001E
:1010200000000000FF0000000000000000000000C1
:101030000000AD1D1D1D37373700AD001D1D1D37CC
:101040003700AD00001D1D1D1D00AD0000001D1D61
:101050001D00ADB7B70000000000AD2E2E006F657B
:10106000FD00AD2E00136FB7FD00AD00006F13B78C
:10107000B737371D1D1D1D1D1D1D1D1D00001D1D0C
:101080001D1D1D00656F6F1D0000006F6F6F6F00ED
:10109000000000006F6F0000009100656F6F00FDA1
:1010A00091EB006FB7B765FDEBB72EB7B7B7B726B3
:1010B000261D1D1D1D1D00AD001D1D1D1D1D00AD8E
:1010C0000000001D1D1D00AD00000000000000AD6F
:1010D0000000262600B7B7AD00002626002626AD64
:1010E00000002613130026AD002626132F0000ADA6
:1010F0000065656565656565656565656565656505
:10110000656565656565656565656565656565658F
:10111000650A0B0A0B0B0A0B0B0B0A0B0B0A0B0ACB
:101120000A0A0B0B0B0B0A0B0B0A0B0A0A0A0B0A17
:101130000B000000000000000000000000000000A4
:1011400000005200000000000000005200000000FB
:1011500000000052520000000000000000000000EB
:101160000000000000000000001900000000000066
:101170000009091A1A1A1A09091265231A231A1AD8
:10118000121A231A231A1A1A1A1A1A231A1A1A1AAC
:101190001A101A1A1A1A1A1A101210101010101007
:1011A000120909090B0B09090912120B5C5C0B12DD
:1011B000120000000000000000000000000000001D
:1011C0000000000000005200000000000052520029
:1011D0000000000000525200000000000052000019
:1011E00000000000000000000000000000000000FF
:1011F00000000000000000000013131300B7B70048
:101200000013131300B7B700000000000000000037
:101210000000000000656565000000000065656570
:1012200000000000000000000000000000000000BE
:101230000000AD00002F13B7B700AD00002F136FF3
:10124000B700AD0000136F136F00AD0000006F001A
:101250001300AD00000000200000AD000020202998
:10126000290000ADADADADADAD0000000000000047
:1012700000B7B7B70065262626B7B7B7B726262624
:1012800026B7B7651313132626656FB7B7B726269B
:1012900065001365656565130000656526262600F3
:1012A00000ADADADADADADADAD00000000000000D6
:1012B000002626132F0000AD002626132F0000ADB8
:1012C00000260026650000AD00130026000000ADDA
:1012D00000200000000000AD00202020200000AD14
:1012E00000ADADADADADAD000000000000000000F0
:1012F00000655C1D271F0000000A0B03003700007B
:1013000000A4AD6E5300000000F5010000000000D5
:1013100000060D040000000000FF47000000000070
:1013200000000000000000000000000000000000BD
:101330000010212A000000001A5969730000000003
:1013400019196123350000001000000000000000A2
:101350000800000000000000000000000000000085
:10136000000000000000000000000000000000007D
:1013700000000000000000000052520000000000C9
:10138000005200520000520000005200525252001F
:1013900000000052005200000000000000000000A9
:1013A000000000000000000000000000000000003D
:1013B0000000FFFFFFFFFFFFFFFFAD5B5B5B5B5BC1
:1013C0005BFF5B5BFFFF5B5BFFFF5BFF5B5B5BFFF1
:1013D0005BFF5BFF5B5B5BFF5BFF5B5BFFFF5B5B85
:1013E000FFFFAD5B5B5B5B5B5B00FFFFFFFFFFFF36
:1013F000FFFFFFFFFFFFFFFFFF52000000000000A4
:1014000000FF5200FFFF0000FF5B5B52FF00FF0088
:10141000005B5B5BFFFF000000FF5B52FFFFFF0014
:10142000005B52000000000000FFFFFFFFFFFFFF16
:10143000FFFFFFFFFFFFFFFFFF00000000000000B5
:101440000000FF0000FF0000FFFF000000FFFF00A2
:10145000FFFF00FF00FF00FFFFFF000000FF000094
:10146000FF0000000000000000FFFFFFFFFFFFFF84
:10147000FFFFFFFFFFFFFFFFFF0000000000000075
:10148000000000FFFF0000000000FF00000000005F
:10149000FF00FF000000FF00000000FFFF00000051
:1014A000FF0000000000000000FFFFFFFFFFFFFF44
:1014B000FFFFFFFFFFFFFFFF000000000000000034
:1014C000FFFFFF0000FF0000FF000000FF00FF0023
:1014D000FFFFFF00FFFFFF00FFFFFF00FF00FF0017
:1014E000FF00000000000000FFFFFFFFFFFFFFFF05
:1014F0000000FFFFFF00000000FF000000FF0000F1
:1015000000FF00FF00FF000000FF00FF00FF0000E1
:1015100000FF000000FF00000000FFFFFF000000D0
:1015200000000000000000000000000000000000BB
:10153000000000FF000000000000FFFF00000000AE
:10154000000000FF00000000000000FF000000009D
:10155000000000FF000000000000FFFFFF0000008F
:10156000000000000000000000000000000000007B
:101570000000FFFFFF00000000FF000000FF000070
:101580000000000000FF00000000FFFFFF0000005F
:1015900000FF00000000000000FFFFFFFFFF000051
:1015A000000000000000000000000000000000003B
:1015B00000FFFFFFFFFF00000000000000FF000031
:1015C000000000FFFF0000000000000000FF00001E
:1015D00000FF000000FF00000000FFFFFF00000010
:1015E00000000000000000000000000000000000FB
:1015F00000000000FF000000000000FFFF000000EE
:101600000000FF00FF00000000FFFFFFFFFF0000E1
:1016100000000000FF00000000000000FF000000CC
:1016200000000000000000000000000000000000BA
:1016300000FFFFFFFFFF000000FF000000000000B0
:101640000000FFFFFF0000000000000000FF00009E
:1016500000FF000000FF00000000FFFFFF0000008F
:10166000000000000000000000000000000000007A
:10167000000000FFFF0000000000FF00000000006D
:101680000000FFFFFF00000000FF000000FF00005F
:1016900000FF000000FF00000000FFFFFF0000004F
:1016A000000000000000000000000000000000003A
:1016B00000FFFFFFFFFF000000FF000000FF000031
:1016C00000000000FF000000000000FF000000001C
:1016D000000000FF00000000000000FF000000000C
:1016E00000000000000000000000000000000000FA
:1016F0000000FFFFFF00000000FF000000FF0000EF
:101700000000FFFFFF00000000FF000000FF0000DE
:1017100000FF000000FF00000000FFFFFF000000CE
:1017200000000000000000000000000000000000B9
:101730000000FFFFFF00000000FF000000FF0000AE
:1017400000FF000000FF00000000FFFFFFFF00009F
:101750000000000000FF00000000FFFFFF0000008D
:101760000000000000000000000000000000000079
:101770000000000000000000000000000000000069
:101780000000FF000000000000000000000000005A
:1017900000000000000000000000FF00000000004A
:1017A0000000000000000000000000000000000039
:1017B000000000FFFFFF00000000FF000000FF002E
:1017C00000FF0000FFFF00FF00FF00FF000000FF20
:1017D00000FF0000FFFF00FF0000FF000000FF000F
:1017E000000000FFFFFF00000000000000000000FC
:1017F00000000000000000000000000000000000E9
:1018000000000000000000000000000000000000D8
:1018100000000000000000000000FF0000000000C9
:101820000000FF00000000000000000000000000B9
:1018300000000000000000000000000000000000A8
:10184000000000000000000000FFFFFFFFFF00009D
:101850000000000000000000000000000000000088
:101860000000000000000000000000000000000078
:101870000000000000000000000000000000000068
:101880000000000000000000000000000000000058
:1018900000000000000000000000FF000000000049
:1018A0000000000000000000000000000000000038
:1018B000000000FF00000000000000FF000000002A
:1018C000000000FF00000000000000FF000000001A
:1018D0000000000000000000000000FF0000000009
:1018E00000000000000000000000000000000000F8
:1018F0000000FFFFFF00000000FF000000FF0000ED
:1019000000FF000000FF000000FFFFFFFFFF0000DE
:1019100000FF000000FF000000FF000000FF0000CB
:1019200000000000000000000000000000000000B7
:1019300000FFFFFF0000000000FF0000FF000000AC
:1019400000FFFFFF0000000000FF0000FF0000009C
:1019500000FF000000FF000000FFFFFFFF0000008D
:101960000000000000000000000000000000000077
:101970000000FFFFFF00000000FF000000FF00006C
:1019800000FF00000000000000FF00000000000059
:1019900000FF000000FF00000000FFFFFF0000004C
:1019A0000000000000000000000000000000000037
:1019B00000FFFFFFFF0000000000FF0000FF00002D
:1019C0000000FF0000FF00000000FF0000FF00001B
:1019D0000000FF0000FF000000FFFFFFFF0000000D
:1019E00000000000000000000000000000000000F7
:1019F00000FFFFFFFFFF000000FF000000000000ED
:101A000000FFFFFF0000000000FF000000000000DA
:101A100000FF00000000000000FFFFFFFFFF0000CC
:101A200000000000000000000000000000000000B6
:101A300000FFFFFFFFFF000000FF000000000000AC
:101A400000FF00000000000000FFFFFF000000009A
:101A500000FF00000000000000FF00000000000088
:101A60000000000000000000000000000000000076
:101A70000000FFFFFF00000000FF000000FF00006B
:101A800000FF00000000000000FF00FFFFFF00005B
:101A900000FF000000FF00000000FFFFFF0000004B
:101AA0000000000000000000000000000000000036
:101AB00000FF000000FF000000FF000000FF00002A
:101AC00000FFFFFFFFFF000000FF000000FF00001D
:101AD00000FF000000FF000000FF000000FF00000A
:101AE00000000000000000000000000000000000F6
:101AF0000000FFFFFF000000000000FF00000000EA
:101B0000000000FF00000000000000FF00000000D7
:101B1000000000FF000000000000FFFFFF000000C9
:101B200000000000000000000000000000000000B5
:101B3000000000FFFFFF00000000000000FF0000A9
:101B40000000000000FF00000000000000FF000097
:101B500000FF000000FF00000000FFFFFF0000008A
:101B60000000000000000000000000000000000075
:101B700000FF000000FF000000FF0000FF00000069
:101B800000FF00FF0000000000FFFFFF000000005A
:101B900000FF0000FF00000000FF000000FF000049
:101BA0000000000000000000000000000000000035
:101BB00000FF00000000000000FF00000000000027
:101BC00000FF00000000000000FF00000000000017
:101BD00000FF00000000000000FFFFFFFFFF00000B
:101BE00000000000000000000000000000000000F5
:101BF00000FFFF00FFFF000000FF00FF00FF0000EC
:101C000000FF00FF00FF000000FF000000FF0000D9
:101C100000FF000000FF000000FF000000FF0000C8
:101C200000000000000000000000000000000000B4
:101C300000FFFF0000FF000000FF00FF00FF0000AA
:101C400000FF00FF00FF000000FF0000FFFF00009A
:101C500000FF0000FFFF000000FF000000FF000089
:101C60000000000000000000000000000000000074
:101C70000000FFFFFF00000000FF000000FF000069
:101C800000FF000000FF000000FF000000FF000058
:101C900000FF000000FF00000000FFFFFF00000049
:101CA0000000000000000000000000000000000034
:101CB00000FFFFFFFF00000000FF000000FF00002A
:101CC00000FF000000FF000000FFFFFFFF0000001A
:101CD00000FF00000000000000FF00000000000006
:101CE00000000000000000000000000000000000F4
:101CF0000000FFFFFF00000000FF000000FF0000E9
:101D000000FF000000FF000000FF00FF00FF0000D8
:101D100000FF0000FF0000000000FFFF00FF0000C8
:101D200000000000000000000000000000000000B3
:101D300000FFFFFFFF00000000FF000000FF0000A9
:101D400000FF000000FF000000FFFFFFFF00000099
:101D500000FF00FF0000000000FF0000FFFF000088
:101D60000000000000000000000000000000000073
:101D70000000FFFFFF00000000FF00000000000067
:101D80000000FFFFFF0000000000000000FF000057
:101D90000000000000FF000000FFFFFFFF00000048
:101DA0000000000000000000000000000000000033
:101DB00000FFFFFFFFFF0000000000FF0000000029
:101DC000000000FF00000000000000FF0000000015
:101DD000000000FF00000000000000FF0000000005
:101DE00000000000000000000000000000000000F3
:101DF00000FF000000FF000000FF000000FF0000E7
:101E000000FF000000FF000000FF000000FF0000D6
:101E100000FF000000FF00000000FFFFFFFF0000C8
:101E200000000000000000000000000000000000B2
:101E300000FF000000FF000000FF000000FF0000A6
:101E400000FF000000FF00000000FF00FF00000096
:101E50000000FF00FF000000000000FF0000000085
:101E60000000000000000000000000000000000072
:101E700000FF000000FF000000FF000000FF000066
:101E800000FF00FF00FF000000FF00FF00FF000058
:101E900000FF00FF00FF000000FFFF00FFFF000049
:101EA0000000000000000000000000000000000032
:101EB00000FF000000FF00000000FF00FF00000026
:101EC000000000FF000000000000FF00FF00000015
:101ED00000FF000000FF000000FF000000FF000006
:101EE00000000000000000000000000000000000F2
:101EF00000FF000000FF000000FF000000FF0000E6
:101F00000000FFFFFF000000000000FF00000000D5
:101F1000000000FF00000000000000FF00000000C3
:101F200000000000000000000000000000000000B1
:101F300000FFFFFFFFFF000000000000FF000000A7
:101F4000000000FF000000000000FF000000000093
:101F500000FF00000000000000FFFFFFFFFF000087
:101F60000000000000000000000000000000000071
:101F70000000000000000000000000000000000061
:101F80000000FFFFFFFF000000FF000000FF000057
:101F900000FF0000FFFF00000000FFFF00FF000047
:101FA0000000000000000000000000000000000031
:101FB00000FF00000000000000FF00000000000023
:101FC00000FFFFFFFF00000000FF000000FF000017
:101FD00000FF000000FF000000FFFFFFFF00000007
:101FE00000000000000000000000000000000000F1
:101FF00000000000000000000000000000000000E1
:102000000000FFFFFFFF000000FF000000000000D5
:1020100000FF0000000000000000FFFFFFFF0000C5
:1020200000000000000000000000000000000000B0
:102030000000000000FF00000000000000FF0000A2
:102040000000FFFFFFFF000000FF000000FF000096
:1020500000FF000000FF00000000FFFFFFFF000086
:102060000000000000000000000000000000000070
:102070000000000000000000000000000000000060
:102080000000FFFFFF00000000FF0000FFFF000056
:1020900000FFFFFF000000000000FFFFFFFF000047
:1020A0000000000000000000000000000000000030
:1020B000000000FFFF0000000000FF0000FF000024
:1020C0000000FF00000000000000FF000000000012
:1020D00000FFFFFF000000000000FF000000000004
:1020E0000000FF00000000000000FF0000000000F2
:1020F00000000000000000000000000000000000E0
:102100000000FFFFFFFF000000FF000000FF0000D5
:1021100000FF000000FF00000000FFFFFFFF0000C5
:102120000000000000FF00000000FFFFFF000000B3
:1021300000FF00000000000000FF000000000000A1
:1021400000FFFFFFFF00000000FF000000FF000095
:1021500000FF000000FF000000FF000000FF000083
:10216000000000000000000000000000000000006F
:10217000000000FF00000000000000000000000060
:102180000000FFFF00000000000000FF0000000052
:10219000000000FF000000000000FFFFFF00000043
:1021A000000000000000000000000000000000002F
:1021B00000000000FF000000000000000000000020
:1021C000000000FFFF00000000000000FF00000012
:1021D00000000000FF00000000000000FF00000001
:1021E00000000000FF0000000000FFFF00000000F2
:1021F00000FF00000000000000FF000000000000E1
:1022000000FF0000FFFF000000FF00FF00000000D3
:1022100000FFFFFF0000000000FF0000FFFF0000C4
:1022200000000000000000000000000000000000AE
:1022300000FFFF00000000000000FF0000000000A1
:102240000000FF00000000000000FF000000000090
:102250000000FF00000000000000FFFFFF00000082
:10226000000000000000000000000000000000006E
:10227000000000000000000000000000000000005E
:1022800000FFFFFFFF00000000FF00FF00FF000055
:1022900000FF00FF00FF000000FF00FF00FF000044
:1022A000000000000000000000000000000000002E
:1022B000000000000000000000000000000000001E
:1022C00000FFFFFFFF00000000FF000000FF000014
:1022D00000FF000000FF000000FF000000FF000002
:1022E00000000000000000000000000000000000EE
:1022F00000000000000000000000000000000000DE
:102300000000FFFFFF00000000FF000000FF0000D2
:1023100000FF000000FF00000000FFFFFF000000C2
:1023200000000000000000000000000000000000AD
:10233000000000000000000000000000000000009D
:1023400000FFFFFFFF00000000FF000000FF000093
:1023500000FF000000FF000000FFFFFFFF00000083
:1023600000FF00000000000000FF0000000000006F
:10237000000000000000000000000000000000005D
:102380000000FFFFFFFF000000FF000000FF000053
:1023900000FF000000FF00000000FFFFFFFF000043
:1023A0000000000000FF00000000000000FF00002F
:1023B000000000000000000000000000000000001D
:1023C00000FF00FFFFFF000000FFFF000000000013
:1023D00000FF00000000000000FF000000000000FF
:1023E00000000000000000000000000000000000ED
:1023F00000000000000000000000000000000000DD
:102400000000FFFFFFFF000000FFFFFFFF000000D4
:102410000000000000FF000000FFFFFFFF000000C1
:1024200000000000000000000000000000000000AC
:102430000000FF00000000000000FF00000000009E
:1024400000FFFFFFFF0000000000FF000000000091
:102450000000FF0000FF0000000000FFFF00000080
:10246000000000000000000000000000000000006C
:10247000000000000000000000000000000000005C
:1024800000FF000000FF000000FF000000FF000050
:1024900000FF000000FF00000000FFFFFFFF000042
:1024A000000000000000000000000000000000002C
:1024B000000000000000000000000000000000001C
:1024C00000FF000000FF000000FF000000FF000010
:1024D0000000FF00FF000000000000FF00000000FF
:1024E00000000000000000000000000000000000EC
:1024F00000000000000000000000000000000000DC
:1025000000FF000000FF000000FF00FF00FF0000D0
:1025100000FF00FF00FF000000FFFF00FFFF0000C2
:1025200000000000000000000000000000000000AB
:10253000000000000000000000000000000000009B
:1025400000FFFF0000FF0000000000FFFF00000090
:102550000000FFFF0000000000FF0000FFFF000080
:10256000000000000000000000000000000000006B
:10257000000000000000000000000000000000005B
:1025800000FF000000FF000000FF000000FF00004F
:1025900000FF000000FF00000000FFFFFFFF000041
:1025A0000000000000FF00000000FFFFFF0000002F
:1025B000000000000000000000000000000000001B
:1025C00000FFFFFFFFFF0000000000FFFF00000012
:1025D0000000FF000000000000FFFFFFFFFF000001
:1025E00000000000000000000000000000000000EB
:1025F0000005013B3C3D3E3F03032526272D2E2FA2
:102600003536370011241FBECFEFD0E1DEBFCDBF7E
:1026100014BE88E10FB6F8948093600010926000B9
:102620000FBE11E0A0E0B1E0ECEAFEE502C00590CB
:102630000D92A630B107D9F71BE0A0E2B1E001C0CE
:102640001D92A136B107E1F70E942F18811102C037
:102650000E940D18F894E1E4F8E080E881939AE094
:10266000ED34F907D9F781E498E090934E0A80930E
:102670004D0A10924F0A81E08093660A8093670AA0
:102680008093650A1092520A1092580A10925E0ABC
:102690001092640A10920E081092100892E1909322
:1026A0000F0890EE909318089093160894E1909379
:1026B00017089093150810921C0810921B0810928E
:1026C000200810921F088093510A0E947D2280E00A
:1026D00090E0FC01EE0FFF1FE059FF4F2591349170
:1026E000F901FF27308301968731910591F778949E
:1026F0000E947C220E942D2E0C94542F0C940000DA
:102700000CE00A95F1F7ECEDF7E0C0E2D1E02091A2
:102710005D0B0027A081B181AC0FBD1F1C911283FE
:10272000021708F4102F1C93339603950C3090F386
:1027300001E316E01A95F1F70A95D9F720900C08F5
:1027400030900D08009108081091090868013801BF
:102750008CE1C0E2D1E04E01002430910B08303012
:1027600009F0C4EA09F0D4E009F0832F09F061010F
:1027700000EEA02E662778E07ED236E23A95F1F799
:1027800000000E94F2133FE03A95F1F700000000CC
:10279000AA94A9F06395C895683031F033E03A9572
:1027A000F1F700000000E8CF662700243EE1C30FE8
:1027B000D01D8A9509F4E40109F46301DDCF36E008
:1027C0003A95F1F758D211240E948021E091100827
:1027D00042E0E160E427E0931008E2E0E093360095
:1027E00011240895DE01679F860100501340000DFB
:1027F000111D18010CED14E0000D111D280130E42D
:102800001EE12D91239FA1012C3008F4A201040E9A
:10281000151EF0012C30F0F0059108B92D910591AD
:1028200008B9239F059108B92C300000059108B91B
:1028300008F4A201059108B9040E151E059108B906
:102840002C301A95059108B9059131F1F00108B9BC
:1028500018F700C0019108B92D910191000008B945
:10286000239F0191000008B92C3000C0019108B9E4
:1028700008F0A1010191040E08B9151E00C00191D4
:1028800008B92C3000C0019108B901911A9521F0C6
:10289000F00108B908F6DECF08B90027C895000096
:1028A00008B9089520E4E0910808F09109088C50D7
:1028B000829FE00DF11DACEDB4E0629FA00DB11D53
:1028C000002405900D9205900D9205900D920590B3
:1028D0000D9205900D9205900D9205900D92059028
:1028E0000D9205900D9205900D9205900D92059018
:1028F0000D9205900D9205900D9205900D92059008
:102900000D9205900D9205900D9205900D920590F7
:102910000D9205900D9205900D9205900D920590E7
:102920000D9205900D9205900D9205900D920590D7
:102930000D9205900D9205900D9205900D920590C7
:102940000D9205900D9205900D9205900D920590B7
:102950000D9205900D9205900D9205900D920590A7
:102960000D9205900D9205900D9205900D92059097
:102970000D9205900D9205900D9205900D92059087
:102980000D9205900D9205900D9205900D92059077
:102990000D9205900D9205900D9205900D92059067
:1029A0000D9205900D9205900D9205900D92059057
:1029B0000D9205900D9205900D9205900D92059047
:1029C0000D92112408950F931F93CF93DF9394E0FA
:1029D000899FE4EAF4E0E00DF11D03818281E0E4E7
:1029E0008E9FD00198E0099FC0E0D8E00024C10D7F
:1029F000D01DE881F981EA0FFB1FACEDB4E090E453
:102A0000699FA00DB11D1124DD27403051F4A20FA4
:102A1000B11D822FC22F00FF11C03796C0E1C21B2B
:102A20000DC088E0821B00FD04C0C82FE80FF11D17
:102A300005C0C8E0C20FE20FF11D3197503041F4DC
:102A400098E0939FA00DB11D932F01FDF8960AC049
:102A500098E0931B632F6A9501FF692F58E0569FFA
:102A6000E00DF11D6FEF7FEF00FF61E000FF7727C2
:102A700001FD609711243EEF58E0591B48E0481BC8
:102A8000249123132C931196E60FF71F4A95C1F753
:102A9000EC0FFD1FA80FB11D5A9581F7DF91CF9163
:102AA0001F910F9108950F921F92EF93FF93EFB72D
:102AB000EF93E0918400E251F1E0EF1700F0F3951D
:102AC000FA30D8F30C946415E0910F08EA95E0937E
:102AD0000F08F0910E08F0FD57C0EC3098F0F3E0CD
:102AE000F0938900FDE8F0938800E0FB289826F435
:102AF000E1E00E94FE16B8C0E5E1EA95F1F70000BA
:102B0000289AB2C0E63038F100C000C02898E0FB37
:102B1000E4E016F40E94FE16E4E0E0933600E6E0FE
:102B2000E0936F00A1C0EF93EFB7EF93E0918400C3
:102B3000ED55E13000F0E23000F0E33000F0E43039
:102B400000F0E53000F0289AE2E0E0936F00EF91AA
:102B5000EFBFEF91189500C0E0FB289826F4E1E064
:102B60000E94FE1605C0E5E1EA95F1F70000289AFB
:102B7000E0910F08E03009F077C0EDEFE0930F0827
:102B8000E1E0E0930E0870C0E7E0E0938900EBE13C
:102B9000E093880000C02898E2E000C00E94FE1682
:102BA000FDEF00901508F019E0910F08EF17E0F421
:102BB000FDEF00901508F01900901608F019EF17B6
:102BC00098F0EDE1FF2700800F92EA95E1F70FE121
:102BD0000A95F1F7000000000E948013E1E0FF2752
:102BE0000F900192EE31E0F3E0910F08E03009F030
:102BF0003BC02F933F934F935F936F937F938F933C
:102C00009F93AF93BF9378941124EE27E0930E081F
:102C1000E2E1E0930F08F0911708F0931508F091A6
:102C20001808F0931608E0911108F0911208E115C8
:102C3000F10509F009950E94FD170E9457230E9493
:102C400046161124E0911308F0911408E115F105DE
:102C500009F00995BF91AF919F918F917F916F91ED
:102C60005F914F913F912F91EF91EFBFFF91EF91C6
:102C70001F900F9018952898E2E000C00E94FE1661
:102C8000E0910F08EA95E0930F080895E091510A4A
:102C9000E0FD0E94831900904F0A002019F4A1E47E
:102CA000B8E002C0A7E4B9E021E0022600924F0A92
:102CB00022E02093500AE091510AE0FF08952F92FC
:102CC0003F924F925F926F927F928F929F92AF92BC
:102CD000BF92CF92DF92EF92FF920F931F93CF9309
:102CE000DF932090530A3090540A4090560A509037
:102CF000570A6090550A1091520A7090590A8090B4
:102D00005A0A90905B0AA0905C0AB0905D0A2091EC
:102D1000580AC0905F0AD090600AE090620AF09072
:102D2000630A0091610A30915E0A9FEF620C431CB6
:102D3000F201449141030008C12DD02D970CA81C2D
:102D4000F501449142030008C10DD01D0C0DED1C8E
:102D5000F701449143030008C10DD01D0024C03881
:102D6000D0050CF0CFE70A94C038D0050CF4C0E8C9
:102D7000C058CD939A9509F0D9CF4091500A4A9501
:102D80004093500A97E009F0D1CF6092550A4092E3
:102D9000560A90925B0AA0925C0A0093610AE09244
:102DA000620A6093660A7093670A8093680ADF91EB
:102DB000CF911F910F91FF90EF90DF90CF90BF9038
:102DC000AF909F908F907F906F905F904F903F90CB
:102DD0002F900895E0914D0AF0914E0A0191000064
:102DE0000093B3000AE0ED34F00701E418E008F0C6
:102DF000F801E0934D0AF0934E0A08950F931F9344
:102E00002F93EF93E0914D0AF0914E0A01910093B8
:102E1000B3000AE0ED34F00701E418E008F0F8012F
:102E2000E0934D0AF0934E0AE8E0EA95F1F7EF914E
:102E30002F911F910F91E0FD289AE0FF01C00895A6
:102E4000F4E1FA95F1F700C0E1FD289AE1FF00C036
:102E5000089599277727833008F00895E8E0F7E38D
:102E6000660F771FE60FF71FA591B491E2E5FAE030
:102E700026E0289FE00DF11DA183B283112408955F
:102E80009091650A9170880F892B8093650A089547
:102E900099277727E2E5FAE026E0289FE00DF11D6B
:102EA0006E3F31F46091650A6E7F6093650A0BC0D6
:102EB0006F3F31F46091650A6E6F6093650A03C0DD
:102EC00079E3760F75831124089599277727E2E532
:102ED000FAE026E0289FE00DF11D6083112408959B
:102EE00080930008909301080895E4E8F3E0A0E2DD
:102EF000B1E06CE06D933197E9F7112408959927BB
:102F000077272EE1629F080E191EA0E2B1E0A00D06
:102F1000B11D445F4C931124089580930808909349
:102F20000908089580911008817008952091100873
:102F30002E7F209310080895882329F48091190882
:102F400090911A08089580911D0890911E08089587
:102F5000F999FECF92BD81BD60BDF894FA9AF99AB5
:102F600078940895F999FECF92BD81BDF894F89AAE
:102F700080B57894089528E088E190E00FB6F89441
:102F8000A895809360000FBE20936000FFCF129A37
:102F9000C895C895C895C895129840E180E090E022
:102FA00020E030E03695279596958795C895C89589
:102FB000C895C8951398009B3068019B9068139A38
:102FC000C895C895C895C895415061F730931A08BF
:102FD0002093190890931E0880931D08809119086A
:102FE00090911A080F9731F080911D0890911E085A
:102FF0000F9711F40E94BB1708951092F30A0099DD
:1030000003C081E08093F30A019905C08091F30A1F
:1030100082608093F30A0C94C717CF93DF93C0E0CC
:10302000D0E0FE01E256FF4F6491CE010E94A81746
:103030002196C032D105A9F7C0E2D0E06FEFCE01F2
:103040000E94A8176FEFCE0101960E94A817A096C4
:10305000C11588E0D80791F7DF91CF910895CF93FC
:1030600080E090E00E94B217C82F81E090E00E94BB
:10307000B217382F20E02C0F311D81E02A3535455D
:1030800009F080E0CF910895FC014587089581E023
:1030900091E09093670A8093660A4093650A0895C9
:1030A000FC0120812F7520830895FC01208120647C
:1030B00020830895FC0144870895FC014783089507
:1030C000FC01408708951F93CF93DF93EC01162FE7
:1030D000298130E0C901880F991F885F984CFC0155
:1030E000A591B491F901E40FF11D47FDFA95EE0F9A
:1030F000FF1FE85FF84C859194918A1B9B0B6091B0
:10310000FB0A70E00E94822E6115710511F461E0E6
:1031100070E086E0189FF0011124EE5AF54F2181EE
:103120003281260F371F328321837B836A83888114
:10313000886088838981840F8C83DF91CF911F9170
:1031400008954093FB0A08950F931F93CF93DF9345
:103150001F92CDB7DEB78C01862F642F49830E9462
:1031600029174981F80141838081877F80830F90EF
:10317000DF91CF911F910F910895FC01862F6181FE
:10318000641B61830C942917FC01862F9181490FE0
:103190004183642F0C942917862F642F0C944817B1
:1031A000DC01ED91FC911197AF014F5F5F4F1196DC
:1031B0005C934E93249127FD02C030E013C02F771B
:1031C00030E03695322F222737952795FA014F5F49
:1031D0005F4FE4918E2F8F77280F311DE7FDF1CFE0
:1031E0004D935C93C9010895FF920F931F93CF9362
:1031F000DF93082F162F86E1089FE0011124CA50A3
:10320000D54F8881F82EFF1CFF24FF1C1A8A1D86CB
:103210009FEF9C874B871B8A877B806288831F82F6
:1032200099872983033069F4F11001C0122F81E0DE
:1032300091E09093670A8093660A81E08093650A23
:1032400008C0622F802F0E94291760E0802F0E9403
:103250004817FF2011F01F8701C01E87E091500B17
:10326000F091510B89E0189FE00DF11D1124339668
:1032700085919491009719F41D8A1C8A06C0FC015F
:103280002491298B01969D8B8C8BDF91CF911F917F
:103290000F91FF900895322FA82FB0E096E1899FFB
:1032A000F0011124EA50F54F908195FF02C097FD7F
:1032B00029C0311119C086E18A9FF0018B9FF00D62
:1032C0001124EA50F54F8585811102C096FF1386BF
:1032D00086E18A9FF0018B9FF00D1124EA50F54F93
:1032E00080818F7B8083089526E12A9FF0012B9FA8
:1032F000F00D1124EA50F54F9F779083242F432F30
:103300000C94F4180895AF92BF92CF92DF92EF928F
:10331000FF920F931F93CF93DF93C3E5DAE020E092
:1033200030E006E1029FD001039FB00D1124AA50A6
:10333000B54F1D968C911D978823A9F01C964C9132
:103340001C97992787FD9095840F911D8F3F9105BC
:1033500019F014F08FEF90E097FF02C080E090E04A
:103360001C968C931C971C9113FF24C012966D9190
:103370007C91139788819981860F971F9983888301
:103380001496EC911497F0E0EE0FFF1FE85FF84CF5
:10339000459154911616170624F48417950730F4B6
:1033A00009C0672B39F04817590720F05983488323
:1033B000177F1C932F5F3F4F26962430310509F06D
:1033C000B1CF809140088111B5C0C6C02091570B84
:1033D0003091580BB9016F5F7F4F7093580B60931A
:1033E000570BF90144914F3F69F5A9014E5F5F4FBB
:1033F0005093580B4093570BFB0164916F3219F4B3
:1034000010924008A4C0663009F087C0C901049634
:103410009093580B8093570BF901339624912335E1
:1034200029F490935A0B8093590B77C0253409F0F7
:1034300074C08091590B90915A0B9093580B8093C4
:10344000570B6BC047FD4093520B9091520B892F45
:103450008F7047FF08C02E5F3F4F3093580B20936B
:10346000570BFB014491907F903BE9F0903C09F4AD
:103470004EC0903909F051C0E091570BF091580BB4
:103480009F012F5F3F4F3093580B2093570B249190
:10349000220FC89FD0011124AA50B54F1E966C91DF
:1034A0000E944B193AC0E091570BF091580B9F01C5
:1034B0002F5F3F4F3093580B2093570B9491473019
:1034C00041F4C89FF0011124EA50F54F990F9287FB
:1034D00024C04B3041F4C89FF0011124EA50F54F4D
:1034E000990F91871AC04C3541F4C89FF0011124FF
:1034F000EA50F54F990F978310C0443671F4C89F76
:10350000F0011124EA50F54F990F908706C0C89F2B
:10351000F0011124EA50F54F468787E59BE00E94B1
:10352000D0189093550B8093540B10924F0B109220
:103530004E0B01C0C6E180914E0B90914F0B209134
:10354000540B3091550B8217930709F43FCF019626
:1035500090934F0B80934E0BE2E5EE2EEAE0FE2EA9
:1035600000E010E0F6E1BF2ECC24CA94D12CA02EAE
:10357000B09EE001B19ED00D1124CA50D54F888174
:1035800086FD3CC08C899D89892B09F434C09A89B9
:103590008989981760F52FC0EC89FD89AF014F5FCD
:1035A0005F4F5D8B4C8B24912F3F31F488818F7757
:1035B00088831D8A1C8A1FC0CF0102969D8B8C8B2D
:1035C000FA014491E22FF0E0EE0FFF1FE254FF4FAB
:1035D000259134916A2DCE01F9010995EC89FD8977
:1035E000CF0101969D8B8C8BE491E98B1A8A9A8985
:1035F0008989981789F28A898F5F8A8B888185FFEC
:103600005EC09B899F3F11F09F5F9B8B87FD02C02F
:103610008A8501C08FEF2B85222309F449C05C8580
:10362000552309F445C0882309F442C04091530B47
:10363000442309F43DC0289F900111243395232F82
:103640003327529FC001539F900D11249395892FCA
:1036500099275985589F9001599F300D1124339512
:10366000232F3327429FC001439F900D1124939530
:10367000892F99272F812223E9F0EE81F0E0E05095
:10368000F74CE491E0582E9FF0011124F395EF2FB1
:10369000FF27A6014E1B5F0B489F9001499F300DED
:1036A000589F300D1124C9019395892F992702C085
:1036B00080E090E02E813885230F2E8302C080E0C9
:1036C00090E0F70180830F5F1F4FF6E0EF0EF11CD3
:1036D0000430110509F04BCFDF91CF911F910F916D
:1036E000FF90EF90DF90CF90BF90AF9008950000D3
:1036F00000000000000000000000000000000000CA
:1037000080E08093510A08952200240026002800BA
:103710002B002D0030003300360039003D00400002
:10372000440048004C00510056005B0060006600F9
:103730006C00730079008100880090009900A2005D
:10374000AC00B600C100CC00D800E500F3000101D8
:10375000100121013201440157016C0181019801DE
:10376000B001CA01E501020221024102640288029D
:10377000AE02D7020303300361039403CB030504B5
:1037800042048304C70410055D05AF050506610604
:10379000C206290796070908830805098E09200A29
:1037A000BA0A5D0B0A0CC10C840D510E2B0F1210BE
:1037B00007110A121D1340147415BA161418831930
:1037C000071BA31C571E24200E22142439267F28F1
:1037D000E82A752D293006330F364539AD3C49406E
:1037E0001B442848734CFE50CF55EA5A51600C6672
:1037F0001D6C8B725A79928037885090E598FDA1A4
:103800009FABD3B5A3C00000000000000000000083
:1038100000000000000000000000000000000000A8
:103820000000000000000000000000000000000098
:103830000000000000000000000000000000000088
:103840000000000000000000000000000000000078
:103850000000000000000000000000000000000068
:103860000000000000000000000000000000000058
:103870000000000000000000000000000000000048
:103880000000000000000000000000000000000038
:103890000000000000000000000000000000000028
:1038A0000000000000000000000000000000000018
:1038B0000000000000000000000000000000000008
:1038C00000000000000000000000000000000000F8
:1038D00000000000000000000000000000000000E8
:1038E00000000000000000000000000000000000D8
:1038F00000000000000000000000000000000000C8
:10390000000306090C101316191C1F2225282B2E44
:10391000313336393C3F414447494C4E5153555859
:103920005A5C5E60626466686A6B6D6F7071737416
:10393000757678797A7A7B7C7D7D7E7E7E7F7F7FCF
:103940007F7F7F7F7E7E7E7D7D7C7B7A7A797876B5
:1039500075747371706F6D6B6A68666462605E5CCB
:103960005A585553514E4C494744413F3C393633E0
:10397000312E2B2825221F1C191613100C090603A3
:1039800000FDFAF7F4F0EDEAE7E4E1DEDBD8D5D2AA
:10399000CFCDCAC7C4C1BFBCB9B7B4B2AFADABA875
:1039A000A6A4A2A09E9C9A9896959391908F8D8C98
:1039B0008B8A8887868685848383828282818181BF
:1039C0008181818182828283838485868687888AB9
:1039D0008B8C8D8F9091939596989A9C9EA0A2A483
:1039E000A6A8ABADAFB2B4B7B9BCBFC1C4C7CACD4E
:1039F000CFD2D5D8DBDEE1E4E7EAEDF0F4F7FAFD6B
:103A0000808182838485868788898A8B8C8D8E8F3E
:103A1000909192939495969798999A9B9C9D9E9F2E
:103A2000A0A1A2A3A4A5A6A7A8A9AAABACADAEAF1E
:103A3000B0B1B2B3B4B5B6B7B8B9BABBBCBDBEBF0E
:103A4000C0C1C2C3C4C5C6C7C8C9CACBCCCDCECFFE
:103A5000D0D1D2D3D4D5D6D7D8D9DADBDCDDDEDFEE
:103A6000E0E1E2E3E4E5E6E7E8E9EAEBECEDEEEFDE
:103A7000F0F1F2F3F4F5F6F7F8F9FAFBFCFDFEFFCE
:103A8000000102030405060708090A0B0C0D0E0FBE
:103A9000101112131415161718191A1B1C1D1E1FAE
:103AA000202122232425262728292A2B2C2D2E2F9E
:103AB000303132333435363738393A3B3C3D3E3F8E
:103AC000404142434445464748494A4B4C4D4E4F7E
:103AD000505152535455565758595A5B5C5D5E5F6E
:103AE000606162636465666768696A6B6C6D6E6F5E
:103AF000707172737475767778797A7B7C7D7E7F4E
:103B000000020406080A0C0E10121416181A1C1EC5
:103B100020222426282A2C2E30323436383A3C3EB5
:103B200040424446484A4C4E50525456585A5C5EA5
:103B300060626466686A6C6E70727476787A7C7E95
:103B40007F7D7B79777573716F6D6B696765636175
:103B50005F5D5B59575553514F4D4B494745434165
:103B60003F3D3B39373533312F2D2B292725232155
:103B70001F1D1B19171513110F0D0B090705030145
:103B8000FFFDFBF9F7F5F3F1EFEDEBE9E7E5E3E135
:103B9000DFDDDBD9D7D5D3D1CFCDCBC9C7C5C3C125
:103BA000BFBDBBB9B7B5B3B1AFADABA9A7A5A3A115
:103BB0009F9D9B99979593918F8D8B898785838105
:103BC00080828486888A8C8E90929496989A9C9E05
:103BD000A0A2A4A6A8AAACAEB0B2B4B6B8BABCBEF5
:103BE000C0C2C4C6C8CACCCED0D2D4D6D8DADCDEE5
:103BF000E0E2E4E6E8EAECEEF0F2F4F6F8FAFCFED5
:103C00007F7F7F7F7F7F7F7F7F7F7F7F7F7F7F7FC4
:103C10007F7F7F7F7F7F7F7F7F7F7F7F7F7F7F7FB4
:103C20007F7F7F7F7F7F7F7F7F7F7F7F7F7F7F7FA4
:103C30007F7F7F7F7F7F7F7F7F7F7F7F7F7F7F7F94
:103F00000309131E28313A40464C5054585B5E61F9
:103F1000636567696B6C6E6F7071727374757677B9
:103F2000777879797A7A7B7B7C7C7C7D7D7D7E7EDF
:103F30007E7E7F7F7F7F7F7F7F7F7F7F7F7F7F7F93
:103F40007F7F7F7F7F7F7F7F7F7F7F7F7F7E7E7E84
:103F50007E7D7D7D7C7C7C7B7B7A7A7979787777B6
:103F6000767574737271706F6E6C6B69676563617F
:103F70005E5B5854504C46403A31281E13090300EA
:103F8000C6CCD5DBDFE3E5E7E9EAEBECEDEEEFEFFE
:103F9000F0F0F0F1F1F1F1F2F2F2F2F2F2F2F2F30A
:103FA000F3F3F3F3F3F3F3F3F3F3F3F3F3F3F3F3E1
:103FB000F3F3F3F3F3F3F3F3F3F3F3F3F3F3F3F3D1
:103FC000F3F3F3F3F3F3F3F3F3F3F3F3F3F3F3F3C1
:103FD000F3F3F3F3F3F3F3F3F3F3F3F3F3F3F3F3B1
:103FE000F2F2F2F2F2F2F2F2F1F1F1F1F0F0F0EFBE
:103FF000EFEEEDECEBEAE9E7E5E3DFDBD5CCC6007D
:1040000000283D42302D2C2B2C2D2E2F30323335D5
:1040100037393B3D3F414345484A4C4E5053555735
:10402000595B5D5F61636567696B6C6E707173741A
:10403000757778797A7B7C7D7D7E7E7F7F7F7F7FC1
:104040007F7F7F7F7F7F7E7E7D7D7C7B7A797877A7
:1040500075747371706E6C6B69676563615F5D5BCE
:1040600059575553504E4C4A484543413F3D3B39C3
:1040700037353332302F2E2D2C2B2C2D30423D282E
:1040800000E9E5FED4D7D7D7D6D4D2D0CECCCAC893
:10409000C6C3C1BFBDBAB8B6B4B1AFADABA9A7A5D1
:1040A000A3A19F9E9C9A999795949391908F8D8CA4
:1040B0008B8A8988888786858584848483838383A3
:1040C0008383838383848484858586878888898A9B
:1040D0008B8C8D8F909193949597999A9C9E9FA18C
:1040E000A3A5A7A9ABADAFB1B4B6B8BABDBFC1C3A4
:1040F000C6C8CACCCED0D2D4D6D7D7D7D4FEE5E95D
:10410000F9F8F9F5EBE1DDDEE0E2E4E5E6E5E4E22D
:10411000DED9D2CAC1B7ACA299918A868381808048
:104120008182838586888A8C8D8F909293959697CD
:1041300098999A9B9B9C9D9D9D9E9E9E9F9F9F9FB5
:104140009F9F9F9E9E9E9D9D9D9C9B9B9A999897AD
:1041500096959392908F8D8C8A88868583828180B4
:10416000808183868A9199A2ACB7C1CAD2D9DEE296
:10417000E4E5E6E5E4E2E0DEDDE1EBF5F9F8F9009F
:104180000708070B151F2322201E1C1B1A1B1C1EB1
:1041900022272E363F49545E676F767A7E7F7F7F77
:1041A0007F7E7D7B7A7876747371706E6D6B6A69D1
:1041B00068676665656464636362626261616161C8
:1041C00061616162626263636364656566676869B1
:1041D0006A6B6D6E7071737476787A7B7D7E7F7F8B
:1041E0007F7F7E7A766F675E54493F362E27221E88
:1041F0001C1B1A1B1C1E2022231F150B070807005F
:104200001F313D444E5354565A5F64696E7476793B
:104210007C7F7F7F7F7F7F7F7F7F7F7F7F7F7F7FB1
:104220007F7F7F7F7F7F7F7F7F7F7F7F7F7F7F7F9E
:104230007F7F7F7F7F7F7F7F7F7F7F7F7F7F7F7F8E
:104240007F7F7F7F7F7F7F7F7F7F7F7F7F7F7F7F7E
:104250007F7F7F7F7F7F7F7F7F7F7F7F7F7F7F7F6E
:104260007F7F7F7F7F7F7F7F7F7F7F7F7F7F7F7F5E
:104270007F7F7F7F7F7F7F7F7F7F7F7C7871684CB0
:104280002C1C120C0A0B0A05FDF3E9DFD4CAC0B7D7
:10429000AEA69E97918B868582808080808080806C
:1042A000808080808080808080808080808080800E
:1042B00080808080808080808080808080808080FE
:1042C00080808080808080808080808080808080EE
:1042D00080808080808080808080808080808080DE
:1042E00080808080808080808080808080808080CE
:1042F000808080808087919DACC4CBD4DDF2FAFAB7
:1043000090915D0BEEEDF7E080E00BC02081DF01C6
:1043100012970D90BC91A02DA05EBE4F2C938F5F85
:1043200033968913F3CF08958093000108952F9257
:104330003F924F925F926F927F928F929F92AF9235
:10434000BF92CF92DF92EF92FF920F931F93CF9382
:10435000DF93CDB7DEB727970FB6F894DEBF0FBE59
:10436000CDBF10925D0B80910001882309F4ABC092
:1043700055EAE52E54E0F52E612CF70131972081A6
:10438000203F09F47FC0F7013081832F90E0922E07
:10439000969496949694277019F4F1E0F98302C0EC
:1043A00042E0498343E0969587954A95E1F7882E48
:1043B000832F877011F491E001C092E09A83582E08
:1043C000412C1201220E311C00E010E0982D9E516C
:1043D0009D8322EE722E790C46C09E81892F890D15
:1043E0008E3110F0872D890F9601280F311DF901AC
:1043F000E05EFE4FFC83EB8380818C30E8F06091BF
:104400005D0B6C3010F5462F50E0FA01EE0FFF1FE8
:10441000E40FF51FE452F84F3183208382830E941A
:10442000521480915D0BEB81FC818083982F9F5FFC
:1044300090935D0B8C3048F44E815F814A0D5B1D7B
:104440009101682F862D0E94E3148E819F81019631
:104450009F838E839981891708F4BFCF0F5F1F4F09
:104460009A81091778F4802F880D8E3110F08D8194
:10447000800FEEE18E9F60011124B02EAA241F82CE
:104480001E82ABCF6394F4E0EF0EF11C4EE0641299
:1044900074CF27960FB6F894DEBF0FBECDBFDF9165
:1044A000CF911F910F91FF90EF90DF90CF90BF9031
:1044B000AF909F908F907F906F905F904F903F90C4
:1044C0002F900C94802127960FB6F894DEBF0FBE74
:1044D000CDBFDF91CF911F910F91FF90EF90DF90B3
:1044E000CF90BF90AF909F908F907F906F905F9094
:1044F0004F903F902F9008950895E4EAF4E080EF04
:104500008083349694E0EC3DF907D1F708956F92DB
:104510007F928F929F92AF92BF92CF92DF92EF9253
:10452000FF920F931F93CF93DF93882E762EEA018D
:10453000FA01A49031969490EA2CF12CB12C1AC077
:10454000F601E00FF11F449150E0662D880D0E94A6
:104550007F170F5F1F4F08C000E010E06E01F2E010
:10456000CF0ED11C6B2C670C802F0A1548F3B39427
:10457000CE0DDF1DB910F0CFDF91CF911F910F91BC
:10458000FF90EF90DF90CF90BF90AF909F908F9073
:104590007F906F9008957F928F929F92AF92BF927B
:1045A000CF92DF92EF92FF920F931F93CF93DF93FF
:1045B000982E862E6A015901C0E0D0E012C0A801F1
:1045C000672D892D8E0D0E947F178FEFE81AF80A4C
:1045D00004C0E12CF12C7C2E780CEC14FD047CF34F
:1045E0002196CA15DB05ACF3DF91CF911F910F9196
:1045F000FF90EF90DF90CF90BF90AF909F908F9003
:104600007F9008950F931F93CF93DF938C01C0E0A9
:10461000D0E007C00E9492178823E1F30E9496170A
:104620002196C017D107B4F3DF91CF911F910F915D
:10463000089580935B0B10925F0B81E080935E0B7B
:10464000662321F080915E0B8111FCCF08958111CA
:1046500003C08FEF87B9089591E09093600B90931A
:104660005C0B0C94192380915E0B8823F9F08091E8
:104670005F0B811118C080915B0B80935F0B909151
:10468000600BE92FF0E0E952FF4FE491E7B9809128
:104690005C0B890F8093600B882311F08D3031F40F
:1046A00010925E0B0895815080935F0B08950E94D5
:1046B00033230C9497211F93CF93DF931F92CDB791
:1046C000DEB7182F69830E94092F698170E0611B92
:1046D00071096F5F7F4F0E94822E810F0F90DF91D3
:1046E000CF911F910895372F480F290F483024F09C
:1046F0006F5F842F885007C047FF04C06150842F2C
:10470000885F01C0842F28302CF0732F7F5F922F99
:104710009850089527FF05C0732F7150922F985F0E
:104720000895922F0895CF93572FC92F432F70E0EC
:10473000E22FF0E0DF011196A617B7070CF447C08F
:10474000DF0111976A177B070CF441C0252F30E079
:1047500050E0DA011196A217B307CCF1DA011197F4
:104760002A173B07A4F1A3E0660F771FAA95E1F78C
:10477000680F711D87FD7A956C5F7F4FB3E0EE0F78
:10478000FF1FBA95E1F7CF01059768177907F8F091
:104790003D96E617F707D8F083E0220F331F8A957E
:1047A000E1F72C0F311DC7FD3A952C5F3F4F93E089
:1047B000440F551F9A95E1F7CA0105972817390745
:1047C00030F0435F5F4F81E04217530708F480E009
:1047D000CF9108951F93CF93DF93D82F162FC42F17
:1047E000403291F1842F80538B3048F4C05F4C2FBE
:1047F00050E070E08D2F90E00E947F171AC0842F48
:104800008A53823098F0825F833010F4C05E11C00A
:10481000413271F0842F81548A3110F4C15F09C094
:10482000842F81568A3128F4C75F03C0CBE401C0CE
:10483000CFE44C2F50E0612F70E08D2F90E0DF919E
:10484000CF911F910C947F17DF91CF911F91089505
:10485000FF920F931F93CF93DF93F82E062FEA0159
:1048600010E0812F8F0DFE01E10FF11D1F5F4491BC
:10487000442321F0602F0E94EA23F3CFDF91CF91F0
:104880001F910F91FF9008950E94751781EF94E09A
:104890000E948D1781E791E00E94701781E00E94CD
:1048A00094210E94E6280E944D290C9451290F93CF
:1048B0001F9300E010E02CE130E04EE150E060E0BA
:1048C00070E080E090E00E94CB221F910F9108954C
:1048D0000E94E6280E944D290C946A29CF93C2E0D9
:1048E0004AE250E06C2F81E00E947F17CF5FCB310E
:1048F000B9F7C2E04AE250E06C2F8BE10E947F17CB
:10490000CF5FCB31B9F748E250E061E081E00E942F
:104910007F1748E250E061E08BE10E947F1748E298
:1049200050E065E081E00E947F1748E250E065E0DA
:104930008BE10E947F1748E250E06AE181E00E942B
:104940007F1748E250E06AE18BE10E947F17C2E0E6
:1049500049E250E061E08C2F0E947F17CF5FCB319E
:10496000B9F7C2E049E250E065E08C2F0E947F1762
:10497000CF5FCB31B9F7C2E049E250E06AE18C2F5A
:104980000E947F17CF5FCB31B9F748EF55E262E065
:1049900088E1CF910C948722CF93DF934BE651E0CF
:1049A00062E082E00E94282445E651E063E082E074
:1049B0000E9428244FE551E064E082E00E94282410
:1049C000C7E010C00E9470298D1720F04BE250E024
:1049D00062E004C06C2F65504CE250E08C2F0E94C6
:1049E0007F17CF5FDC2FD7500E947129D81750F363
:1049F000DF91CF910C946E240E94572448EF50E031
:104A00006EE080E00E94282444EE50E06FE085E0F4
:104A10000C9428240E947429853011F40C94FC24F1
:104A20000E940A290E944A29813079F40E94682450
:104A30000E94372A62E080E00E945B2390E00E949F
:104A4000CE2B0E949A2A0C944C2A0895CF9360E0B2
:104A500084E00E942723C1E049E250E062E08C2F0D
:104A60000E947F1749E250E06DE08C2F0E947F1773
:104A7000CF5FCD3189F748E250E062E080E00E94EC
:104A80007F1748E250E062E08DE10E947F1748E224
:104A900050E06DE080E00E947F1748E250E06DE05A
:104AA0008DE10E947F17C3E04AE250E06C2F80E066
:104AB0000E947F174AE250E06C2F8DE10E947F1721
:104AC000CF5FCD3089F746E451E065E085E00E9494
:104AD000282442E551E062E188E00E94282445E371
:104AE00051E069E180E00E94282447E151E06AE159
:104AF00080E00E94282441EF55E269E188E10E94AC
:104B0000872240E250E064E081E00E947F1740E2AB
:104B100050E064E082E00E947F1741E250E064E0F0
:104B200083E00E947F17C5E040E250E06C2F81E0F7
:104B30000E947F1740E250E06C2F83E00E947F17B5
:104B4000CF5FC93089F740E250E069E081E00E9420
:104B50007F1740E250E069E082E00E947F1743E265
:104B600050E069E083E00E947F1740E250E067E098
:104B700085E00E947F1740E250E067E087E00E94F6
:104B80007F1740E250E068E085E00E947F1740E236
:104B900050E068E087E00E947F1744E250E069E05F
:104BA00085E00E947F1740E250E069E086E00E94C5
:104BB0007F1740E250E069E087E00E947F1741E202
:104BC00050E067E089E00E947F1740E250E067E034
:104BD0008AE00E947F1741E250E067E08BE00E948C
:104BE0007F1740E250E068E089E00E947F1740E2D2
:104BF00050E069E089E00E947F1740E250E068E001
:104C00008BE00E947F1740E250E069E08BE00E9459
:104C10007F1741E250E067E089E10E947F1740E2A0
:104C200050E067E08AE10E947F1741E250E067E0D0
:104C30008BE10E947F1740E250E068E089E10E942A
:104C40007F1740E250E069E089E10E947F1740E26F
:104C500050E068E08BE10E947F1740E250E069E09D
:104C60008BE10E947F1742E250E067E08DE00E94F6
:104C70007F1740E250E067E08EE00E947F1740E23D
:104C800050E067E08FE00E947F1740E250E068E06C
:104C90008DE00E947F1740E250E068E08FE00E94C4
:104CA0007F1744E250E069E08DE00E947F1740E208
:104CB00050E069E08EE00E947F1740E250E069E03A
:104CC0008FE00E947F1740E250E06AE08FE00E9490
:104CD0007F1744E250E06BE08DE00E947F1740E2D6
:104CE00050E06BE08EE00E947F1743E250E06BE003
:104CF0008FE00E947F1740E250E067E081E10E9470
:104D00007F1740E250E067E082E10E947F1743E2B4
:104D100050E067E083E10E947F1740E250E068E0E6
:104D200081E10E947F1741E250E068E082E10E9449
:104D30007F1740E250E069E081E10E947F1740E286
:104D400050E069E082E10E947F1743E250E069E0B1
:104D500083E10E947F1742E250E067E085E10E9414
:104D60007F1740E250E067E086E10E947F1741E252
:104D700050E067E087E10E947F1740E250E068E082
:104D800085E10E947F1740E250E068E087E10E94E1
:104D90007F1744E250E069E085E10E947F1740E21E
:104DA00050E069E086E10E947F1743E250E069E04D
:104DB00087E1CF910C947F17892B11F410926F0A21
:104DC000089584E090E090936D0A80936C0A0895B2
:104DD00081E090E090936D0A80936C0A08951F9390
:104DE000CF93DF9381E00E94622AEB01162F1F5FB1
:104DF0006D2F812F0E94722A813009F408C01C2F68
:104E000011506D2F812F0E94722A813011F4612F71
:104E100013C01D2F1F5F612F8C2F0E94722A8130BB
:104E200019F46C2F712F0CC0D1506D2F8C2F0E9454
:104E3000722A813019F46C2F7D2F02C060E070E07F
:104E400080E090E0DF91CF911F9108950E94EF26BE
:104E50000E94992981E090E090936D0A80936C0AFA
:104E6000089581E090E00E94CE2D813091F40E945F
:104E70008729811108C00E947729833050F40E944D
:104E800077298F5F04C080E00E948B2981E00E9417
:104E90007C2983E090E00E94CE2D813091F40E9425
:104EA0008729823041F40E947729833050F40E9490
:104EB00077298F5F04C082E00E948B2981E00E94E5
:104EC0007C2984E090E00E94CE2D813091F40E94F4
:104ED0008729833041F40E947729833050F40E945F
:104EE00077298F5F04C083E00E948B2981E00E94B4
:104EF0007C2982E090E00E94CE2D813091F40E94C6
:104F00008729813041F40E947729833050F40E9430
:104F100077298F5F04C081E00E948B2981E00E9485
:104F20007C2980E090E00E94CE2D813059F40E94CF
:104F30007729811104C084E00E948B2903C081502D
:104F40000E947C2982E090E090936D0A80936C0A25
:104F500008950E94922928E0629F800D1124885EA6
:104F60008093A40488E0789F900D1124985C90931E
:104F7000A5040E948729843019F41092A60408958C
:104F80000E948729823019F481E08093A7040E944F
:104F90008729833011F41092A7048091750A982F05
:104FA0009F5F9093750A63E00E94622E91110DC07D
:104FB0008091700AE82FE370F0E0EF58F54F908190
:104FC0009093A6048F5F8093700A08954F925F922A
:104FD0006F927F928F929F92AF92BF92CF92DF9209
:104FE000EF92FF920F931F93CF93DF931F92CDB752
:104FF000DEB70E949229162F472E582E692E0E9446
:105000009229962E772E882E80E099830E94622A1C
:105010006B01E82E0E9487299981833069F40E94F0
:10502000772920E0482F612F742D852D962D0E9421
:105030007323962E772E882E092FF82CB72CA92CA7
:1050400099830E9487299981823091F40E9477295F
:10505000482F419520E0612F742D852D962D0E94BB
:105060007323962E772E882E092FF82EB72EA62E74
:1050700099830E9487299981811112C00E94772902
:10508000282F219540E0612F742D852D962D0E94AB
:105090007323962E772E882E092FF82EB72EA62E44
:1050A00099830E9487299981813089F40E94772908
:1050B000282F40E0612F742D852D962D0E9473239B
:1050C000962E772E882E092FF82EB72EA62E4E2D2F
:1050D0009601692D772D882D0E949323813019F434
:1050E00080936F0A61C0642D812F81500E94722AC3
:1050F000813091F0492D50E0212F30E021503109CD
:105100004217530749F4A92CA39484E00E948B29E9
:1051100080E00E947C29F12C642D812F8F5F0E94FA
:10512000722A813059F0A11209C01F143CF484E0A6
:105130000E948B2980E00E947C29F12C642D615013
:10514000812F0E94722A813091F0472D50E0242D4A
:1051500030E0215031094217530749F4B72CB3947A
:1051600084E00E948B2980E00E947C2900E0642D6D
:105170006F5F812F0E94722A813059F0B41009C0EC
:1051800010163CF484E00E948B2980E00E947C2968
:1051900000E0B5018F2D902F0E94992983E090E0C7
:1051A00090936D0A80936C0A0F90DF91CF911F91BD
:1051B0000F91FF90EF90DF90CF90BF90AF909F90B6
:1051C0008F907F906F905F904F90089585E090E072
:1051D00090936B0A80936A0A10926D0A10926C0A7F
:1051E00010926E0A10926F0A1092A60480EF8093BC
:1051F000A4048093A5041092A7041092700A81E081
:105200008093710A1092720A82E08093730A10925E
:10521000740A0895CF93DF9380916E0A8130B9F5B7
:10522000C0916C0AD0916D0A80916A0A90916B0AC4
:105230008C179D0739F0CE010E94DC26D0936B0AB3
:10524000C0936A0A80916A0A90916B0A8230910534
:1052500091F028F4009749F00197A9F409C0833030
:10526000910561F0049779F40CC00E9426270BC0C9
:105270000E94312708C00E94E62705C00E94E1264F
:1052800002C00E94E826DF91CF910C94A927DF91FC
:10529000CF91089580916F0A089581E080936E0AFE
:1052A000089583E08093760A8093770A1092780AB3
:1052B00010927A0A1092790A10927B0A84E0809305
:1052C0007C0A10927D0A10927E0A10927F0A109238
:1052D000800A0895EBE7FAE080818F5F808308956C
:1052E00008958091770A089580917B0A08958091AE
:1052F0007C0A82958F700895ECE7FAE020E1829FA6
:10530000C001112490819F70982B90830895809103
:105310007C0A8F700895ECE7FAE09081907F982BDB
:1053200090830895EDE7FAE0608171818281938135
:10533000089560937D0A70937E0A80937F0A90930C
:10534000800A0895282F237030E0220F331FA3E036
:10535000B0E0022E01C0AA0F0A94EAF7A095869544
:10536000869592E1899FF0011124E60FF11DEF5718
:10537000F54F8081A823022E01C0440F0A94EAF75A
:10538000A42BA08308956F927F928F929F92AF92E9
:10539000BF92CF92DF92EF92FF920F931F93CF9322
:1053A000DF9300D0CDB7DEB7B82EA62E481B261B44
:1053B000141624F0411104C090E003C091E001C034
:1053C0009FEF121624F0211104C050E003C051E0F9
:1053D00001C05FEFE42FFF27E7FDF095F7FF03C063
:1053E000F195E195F1099E2E332727FD309537FF82
:1053F00003C0319521953109822E122F29150CF405
:10540000192DE12CF12CC12CD12C612E772467FCB5
:1054100070948FEF681A780A16C0402F6A2D8B2D72
:105420005A8399830E94A229D90CC80C5A81998168
:105430001D1514F4D11AB90E1C1514F4C11AA50EB9
:10544000EFEFEE1AFE0A6E147F043CF70F900F90F8
:10545000DF91CF911F910F91FF90EF90DF90CF9050
:10546000BF90AF909F908F907F906F90089521E8AC
:105470003AE00EC0F901E80FF91F1082019682315F
:105480009105C1F72E5E3F4F8AE02D3E380719F097
:1054900080E090E0EFCF08954091EF0A6091EE0A2E
:1054A000695F8091ED0A50E08D5F0E947F17409107
:1054B000F20A6091F10A695F8091F00A50E08D5F15
:1054C0000C947F17813039F46091ED0A7091EE0AE7
:1054D0008091EF0A08956091F00A7091F10A80912D
:1054E000F20A0895883120F5623110F5482F437093
:1054F00050E0440F551F23E030E0042E02C0220F7D
:10550000331F0A94E2F78695869592E1899FF00110
:105510001124E60FF11DEF57F54F808190E028230D
:10552000392302C0369527954A95E2F7822F0895D0
:1055300080E008950F931F93CF93DF9363E081E0A2
:105540000E945B23082FD7E020C0612F8C2F83504F
:105550000E94722A823039F0833041F0813049F460
:10556000402F50E008C04CE050E005C04DE050E056
:1055700002C040E050E06D2F8C2F0E947F17CF5F5C
:10558000CB3119F7DF5FD93121F01D2F1750C3E060
:10559000DCCFDF91CF911F910F9108951F93CF938F
:1055A000DF93162F882321F126C06D2F8C2F0E94A8
:1055B000722A823019F4111104C00BC0833089F4AF
:1055C000FACF67E083E00E945B238C0F8093ED0AA3
:1055D00028C067E083E00E945B238C0F8093F00A71
:1055E0002AC0CF5FC83109F7DF5FD23111F481C023
:1055F000D0E0C0E0DACF813049F525C06D2F8C2F87
:105600000E94722A823019F4111104C00DC0833037
:10561000A9F4FACF64E081E00E945B23C81BC09329
:10562000ED0AD093EE0A4BC064E081E00E945B2358
:10563000C81BC093F00AD093F10A4EC0C150F1F6D6
:10564000D15011F456C0D1E1C7E1D8CF8330F9F47D
:105650001BC06C2F8D2F0E94722A823019F41111F9
:1056600004C008C0833059F4FACFD093ED0A66E045
:1056700083E020C0D093F00A66E083E028C0C150E8
:1056800041F7D15011F435C0D7E1C1E1E2CF82300A
:1056900081F52CC06C2F8D2F0E94722A8C3019F44A
:1056A000111104C010C08330D9F4FACFD093ED0AA1
:1056B00064E082E00E945B23C81BC093EE0A84E092
:1056C0008093EF0A16C0D093F00A64E082E00E9453
:1056D0005B23C81BC093F10A84E08093F20A09C0DF
:1056E000C150C1F6DF5FD83111F403C0D0E0C1E191
:1056F000D1CFDF91CF911F910895FF920F931F9308
:10570000CF93DF93182FD62FC82F01C0C02F41E0B1
:105710006D2F8C2F0E94A2290C2F01506D2F802FEE
:105720000E94722A882391F301C0102F41E06D2F4F
:10573000812F0E94A229012F0F5F083118F56D2FCC
:10574000802F0E94722A882381F31CC0D11107C0C8
:105750006F2D8C2F0E94722A811112C00DC0602FF4
:105760008C2F0E94722A811104C0602F8C2F0E94FE
:105770007D2BD13128F4ECCF6F2D8C2F0E947D2B07
:10578000CF5F04C00D2F0150FD2EF3941C17F0F6CF
:10579000DF91CF911F910F91FF9008954F925F92EB
:1057A0006F927F928F929F92AF92BF92CF92DF9231
:1057B000EF92FF920F931F93CF93DF93811118C144
:1057C00061E00E945B23982E61E080E00E945B23F1
:1057D000C82E6EE089E00E945B23182F6FE08AE0FC
:1057E0000E945B23D82EE82FF0E051E1E52EF12C4A
:1057F000C7018E1B9F0BBD2C989EB00C1124C2E1DB
:10580000D0E0CE018E1B9F0B989E802C112402E0CD
:105810002B2D40E0682D80E00E94C3292B2D412FC5
:10582000682D812F0E94C329412F415003E0282D6C
:10583000682D81E00E94C3292B2D412F6B2D80E024
:105840000E94C3297D2C7694B12EB694BE016719AF
:105850007109969E602D11246F5F8B2D0E947D2B08
:1058600065E1611B86E00E945B23A82E60E189E070
:105870000E945B23682EE82FF0E0EE1AFF0ACE9C10
:10588000800D1124E82ECE018E1B9F0BC89E502C3C
:10589000112468E1462EF42CFA1802E02E2D4F2D2B
:1058A000652D8F2D0E94C3292E2D47E1652D87E19F
:1058B0000E94C32903E0252D46E1652D89E18A195F
:1058C0000E94C3292E2D47E16E2D8F2D0E94C329E2
:1058D0006694C619D109CC9E602D11246F5F8A2D64
:1058E0008695481A842D0E947D2B9C101AC0870C27
:1058F000682D6150262F4F2D812F0E94C32901E072
:10590000282D4F2D682D812F0E94C329682D6F5F90
:1059100047E14A1903E0262F812F8F5F0E94C32998
:1059200014C1CB2DC15091102DC002E020E14C2FAD
:105930006D2D8C2F0E94C32903E021E14F2D61E1E1
:105940008C2F0E94C329CE5F01E020E14C2F6D2DEA
:105950008B2D0E94C32920E14F2D60E18B2D0E94E9
:10596000C32902E02FE04C2F6D2D8C2F0E94C329FC
:1059700003E02FE04F2D6FE08C2F0E94C32961E0E0
:1059800080E0B5C0D1E1DD1902E020E04C2F6D2FA1
:105990008C2F0E94C32903E020E04F2D60E08B2D67
:1059A0000E94C32962E16D1901E021E04B2D8B2D8E
:1059B0000E94C32921E04F2D61E08B2D0E94C32955
:1059C0008B2D8F5F02E022E0482F6D2F0E94C329AC
:1059D00047E14A1903E022E062E08B2D8E5F0E94CE
:1059E000C32961E083E00E94CE2A60E082E0B3C078
:1059F000813009F04AC067E182E10E945B23C82F31
:105A000061E18EE00E945B23D82F63E080E00E947A
:105A10005B23D82E8D2F869539E0F32EF80ED9E032
:105A2000D81BC6951CE01C1B02E02F2D412F6D2FAB
:105A3000812F0E94C3294CE0E42EEC0E2F2D4E2D19
:105A40006D2F8E2D0E94C32903E02F2D4E2D6F2D1B
:105A5000812F0E94C3294C2F455F2D2F6D2F8DE084
:105A60008C1B0E94C32969E08CE00E947D2B63E0BF
:105A700080E00E945B23C82FD816C9F361E08D2D0A
:105A80000E94CE2A60E08C2F66C0823009F075C07B
:105A900061E080E00E945B236BE081112DC088E013
:105AA0000E945B238695D82FD75FC9E0C81B02E010
:105AB0002D2F40E06C2F80E00E94C3292D2F47E15D
:105AC0006C2F87E10E94C32903E02D2F47E16D2F42
:105AD00080E00E94C3292C2F46E16C2F81E00E94B8
:105AE000C32969E08CE00E947D2B61E082E00E9486
:105AF000CE2A60E083E02FC088E00E945B23D82F8D
:105B0000D695CCE0CD1B02E020E14C2F60E08C2F3D
:105B10000E94C3291D2F145F20E1412F60E0812FD7
:105B20000E94C3294D2F455F03E020E060E08DE037
:105B30008D1B0E94C32921E1412F61E18C2F0E941E
:105B4000C32969E08CE00E947D2B61E080E00E9427
:105B5000CE2A60E081E0DF91CF911F910F91FF90FD
:105B6000EF90DF90CF90BF90AF909F908F907F90FD
:105B70006F905F904F900C94CE2ADF91CF911F9140
:105B80000F91FF90EF90DF90CF90BF90AF909F90DC
:105B90008F907F906F905F904F900895CF93DF9399
:105BA000EC0180E00E949C17C130D10531F4E4E0A3
:105BB00096958795EA95E1F708C0C330D10541F481
:105BC00076E0969587957A95E1F7282F217041C068
:105BD000C430D10531F4880F892F881F990B919516
:105BE000F4CFC230D10531F455E0969587955A959A
:105BF000E1F7EBCFC530D10511F4292FE7CFC6303F
:105C0000D10509F4E2CFC730D10521F491FB222759
:105C100020F91FC0C830D10519F496958795D5CFC6
:105C2000CB30D10529F49695879596958795CDCF5C
:105C3000CC30D10531F423E0969587952A95E1F78C
:105C4000C4CFCD2B29F421E0892B19F020E001C02D
:105C500001C0822FDF91CF9108950E9475170E9495
:105C600044240E942625C0E001C0CF5F8CE090E074
:105C70000E94CE2D8130C9F78C2F90E00E940E2F0C
:105C80000E9457240E94CC2481E090E00E940223CD
:105C90000E940A258CE090E00E94CE2D8130A1F771
:105CA0000E94372A0E949A2A62E080E00E945B23C9
:105CB00090E00E94CE2B0E949A2A0E944C2A0E94B9
:105CC0006824E2CF991B79E004C0991F961708F069
:105CD000961B881F7A95C9F780950895AA1BBB1B50
:105CE00051E107C0AA1FBB1FA617B70710F0A61BDC
:105CF000B70B881F991F5A95A9F780959095BC01FD
:105D0000CD01089597FB072E16F4009407D077FD78
:105D100009D00E946E2E07FC05D03EF49095819527
:105D20009F4F0895709561957F4F0895A1E21A2EB7
:105D3000AA1BBB1BFD010DC0AA1FBB1FEE1FFF1F2F
:105D4000A217B307E407F50720F0A21BB30BE40B7F
:105D5000F50B661F771F881F991F1A9469F76095C6
:105D60007095809590959B01AC01BD01CF01089580
:105D70008F929F92AF92BF92CF92DF92EF92FF925B
:105D8000CF93DF93EC01688179818A819B816115D2
:105D900071058105910521F464E279ED8BE597E0C9
