:100000000C94C8480C943C490C943C490C943C49D1
:100010000C943C490C943C490C943C490C943C494C
:100020000C943C490C943C490C943C490C943C493C
:100030000C943C490C9499490C94D9490C943C4932
:100040000C943C490C943C490C943C490C943C491C
:100050000C943C490C943C490C943C490C943C490C
:100060000C943C490C943C490C943C490C943C49FC
:100070005A5501200101003808000000000000006E
:100080000000000000000000000000000000000070
:100090008100450027FF24FF2A902B1C210C22FB06
:1000A000850084008903888D81096F0244424700DE
:1000B0004501B083B300B10125118A4F8B03AD4DCB
:1000C000B04D7F4ECC51C451B14DB64DBB4DB25128
:1000D000BE4DC14DC44D084E00020800085504082D
:1000E0005A0000F8000990000A1E32050000FF00C7
:1000F0000000D80000000000000000000000000028
:1001000000000000000000000000000000000000EF
:1001100000000000000000000000000000000000DF
:1001200000000000000000000000000000000000CF
:1001300000000000000000000000000000000000BF
:10014000000000000000000000000049000000491D
:100150005252000052525C2D0000000000000000CE
:1001600000000000000000000040000000494A526A
:10017000004952525B1C52531C25241B2425251B6D
:100180000A0A2D1C12120A0A0000000000000000DA
:10019000404949494949525B5B5B525B1C1C131245
:1001A000241C1209090912090909090A0A0A0A0A7A
:1001B0000A13120A0A12130A0000000000009252E9
:1001C0005252525213121309001C0A1212401B659C
:1001D000090A0009241B120000251C1C010025240B
:1001E0001C1C002425242424000000000000524987
:1001F000494000001B1352494900641C1C5B4A48DB
:100200001C651C2552491C1C652464491C1C652561
:1002100064491C1C6D2E5C490000000000000000B9
:100220000000004900000000535200000053522516
:1002300000004A52252500005B251300005B530097
:100240000A1C095B1C657F374052522E2E1C525CE3
:100250002E251B1324251C1C12002525120000121C
:100260001B0000132E37001B37372E2E37372E2E4C
:100270002E2E2E2E6E6E6E1C1313120009131200FA
:10028000001213130012251C13132E371C13131303
:10029000361C131B1B1B25131C1C1B1B1B1C1C1C93
:1002A0001C1C1C1C1C1C1C131312121313001313F4
:1002B000131C000913131C010037131C13002E2EEE
:1002C0001C1C001C772E2500137F251C010A3724D7
:1002D0001C1C0A2E25250900132E242525252E2534
:1002E0002525252525252D2E251B2E2E251C1325C0
:1002F000251C1C1C1C011C1C1300011C0A00016590
:10030000775C016E7F6E521B25256D1C5249252599
:100310001C1353001C1C1C524A001B135B5B000087
:1003200009525C0000005B5C000000001B00000044
:100330000000000000000000135B7F776E6E136505
:1003400077766E6E1B65777676761B5BBF76B676B4
:1003500009136DBFB7B6001B125C76BF0000121BFD
:10036000125B00000000090A6E6E6E77241C6E6E30
:1003700077251C1C6E776E1C1C1C76761C1C242595
:10038000B765646D6D1B766D6D5B09125B5C5B120E
:100390005B641213131B12121C1C1C1C1C241C1C3F
:1003A000242525242425251B00002513000064BFD7
:1003B00000096EBFBF6D6EBF6D5B12135B1213122F
:1003C00009000901000000002E1C0900096E01004F
:1003D00009767F7F12777F7F6412BF775B121B09DC
:1003E0005B121B0900001B09000000000000000058
:1003F00000000000000000007F7F53131300641210
:100400001B0100001B1200000000000000000000A3
:1004100000000000000000000000000000000000DC
:1004200000000000000000000000000000002600A6
:10043000000026002F0000002F00370000003700CA
:10044000FF000000FF00BF000000BF0037000037C2
:100450000000002626000000000000000000262604
:1004600026262600000000002F00000000370000B4
:100470000000FF00000000BF000000003700000087
:100480000000262626262600000000000000262662
:10049000262626002F000000000037000000000084
:1004A000FFFFFFFF0000BF0000000000370000005A
:1004B0000000262626262600000000000000262632
:1004C000262600002F0000002F0037000000370014
:1004D000FFFFFFFF0000BF000000BF00370000006B
:1004E000370026262626000000000000000000003D
:1004F00026262600002F00002F00370000003700BE
:10050000FF000000FF00BF000000BF003700003701
:100510000000262626000000000000000000260043
:10052000000026002F0000002F00003700370000D9
:100530000000FF00000000BF00BF00003700000007
:100540003700260000002600000000000000000028
:10055000000000000000000000000000000000009B
:1005600000000000000000000000009B000000529E
:100570009BA400005B9B6D77000000000000000062
:100580000000000000000000005B000000E4F6FF37
:10059000099BEDF6FFBFA4ADBFBFBFBF767F7FB79E
:1005A000B7BF7F766EB7B7BF000000000000000045
:1005B0005BB6F6F6F6FFFFFFFFBFFFFFFFBFBFAE64
:1005C000FFFFFFB7AD65FFFFB7B6AD65FFFFBFB774
:1005D000AE6EFFFFBFB7B765000000000000F6F683
:1005E000EDEDADA4B66D6D5C526E656565526576D8
:1005F0005C5C52536E246552526E25255B52772DFA
:100600002525526E6E2D2525000000000000A49BBC
:100610009B4900006564A49B92006D252564934965
:10062000656E652E9B5224256D25655225246D2D02
:10063000655225256E2E6452000000000000000067
:100640000000004A000000005B9B0000005B5B2D87
:100650000000525B2E2E00015B2D1C01005C5B0133
:100660004A654A5B1C6E7F77495B9B77776D5B655C
:10067000776E65656D2D25255C522E25130949641D
:100680001C09095C7F7F091C7F7F777F777F7777E5
:100690007F7F7776777F7F6E656E6EA4B6FF655B32
:1006A000A4B7BFFF526DBFBFBFFF7FBFBFBFBFFFBC
:1006B000BFBFB7BFFFFF7FB7BFBFFFFF6EB7BFBFF3
:1006C000FFFF77BFBFBFFFFFFFFFBFBFB75BFFFFEE
:1006D000BFBFA464FFFFBFADA47FFFFFBFA4BF7F68
:1006E000FFBFADBFBFBFFFB6BFBFBF77F7BFBFBFC5
:1006F0007777FFBFBFBF64526D7F6E2E2D2D7F7643
:100700006E6E6E2E777777762E1C7F776E251C2582
:10071000776525251C096E6E1C0949255B494A6EC3
:100720007F645377BF775B5C256E6E255B4A2565DA
:100730001C1B5B002524245B53001C1B5B5C00001E
:100740000A5B640000006464000000005C000000BC
:1007500000000000000000005B5C7FBF77765C6DEE
:100760007FB777775C6D7FBF77775C64BFBFBFBFB4
:100770000A5C6EBFBFBF0065646DBFBF00005B6DEC
:10078000646D00000000125B7777777F6E6E77777D
:100790007F766D7677BF776D6E76BF7F6D6E767F75
:1007A000BF7676BFBF76BFBFBFB664ADADB6B6ADE0
:1007B000BFFF646DADB6AD6477BFBFBFFFFF77BF4E
:1007C000BFBFFFFF7FBFBFBFFFF6BFB7ADF6FFFFE5
:1007D000A4ADFFFFFFFFFFFFFFFFFFFFFFFFFFF6DF
:1007E000A4005B5200000000BFBFAD5B64BFB6ADAC
:1007F000ADBFFFBFFFFFFFFFBF64FFFFBFB6765B6C
:10080000FFBFBF5B0000FF5C0000000000000000B5
:100810000000000000000000BFBF645C5C006E5C74
:10082000654900006D5B0000000000000000000052
:1008300000000000000000000000000000000000B8
:10084000000000000000000006000400000001009D
:10085000020003000400050006000700080009006C
:100860000A000B000C000D000E000F00100000002D
:1008700011001200130014001500160006000300FA
:1008800000001700180019001A001B001C001D00B2
:100890001E001F002000210022002300240025004C
:1008A0002600000000408891D2E4ADB5B6BEBFFF7F
:1008B0003230313320444F4D494E494B20274B496C
:1008C0004C4F27204B52495354454E005448452025
:1008D000555A45424F58205355424D4152494E4575
:1008E0002053494D554C4154494F4E0042454152C9
:1008F000494E473A00535441525400544152472EF6
:10090000444953542E3A0053455420444953542EDD
:100910003A004C4556454C004252494546494E47DF
:10092000004845414C54480053434F52450047410D
:100930004D45204F564552212100505245535320DA
:10094000535441525400524144415200534849507B
:10095000533A00444946464943554C543A20454190
:10096000535920202000444946464943554C543AA7
:100970002041564552414745004449464649435562
:100980004C543A20484152442020200047414D45D4
:100990002053504545443A20534C4F5720200047A0
:1009A000414D452053504545443A204E4F524D410C
:1009B0004C0047414D452053504545443A2046415F
:1009C000535420200000B0075A00B1076500C20050
:1009D00000B2076500C30100B3075001C2180092BE
:1009E00030760CC3190293247610C1180291377621
:1009F00020370004387622C01802903F7681269274
:100A0000300007913800079324000092307612904E
:100A10003F0000932476129136761F360005377614
:100A200024903E7681229230001293240000913768
:100A3000000092307612903E000093247612913698
:100A4000761F360005377624903D7681229230005D
:100A500012932400009137000092307612903D00EE
:100A600000932476129135761F3500053776249051
:100A70003C7681223C0009923000099324000090CA
:100A80003F7B0092307B1293247B1F903F00053EFA
:100A90007B0E3E00043C7B0E3C00043E7B0E3E0081
:100AA000043F7B0E3F0004437B0F932400039043DD
:100AB00000009230000090467B00923E7B09932B11
:100AC0007B2D90460000457B0F450003437B11437F
:100AD0000001457B0E450004467B0D9137000290D6
:100AE000460002923E0000904A7B05913E76003E11
:100AF000760C932B0001904A00004D5C00923A7BEB
:100B000009932E766A913E00093E0009904D000936
:100B1000932E0005923A000090417B0091397600B7
:100B200092327B0993267B2890410005407B0F4041
:100B300000033E7B0D3E0005407B0D400005417BE0
:100B40000F410003457B0C93260001923200029076
:100B5000450003487B0092407B09932D7B2B9048F6
:100B60000002477B0E470004457B0F450003477B8F
:100B70000E470004487B0E48000491390000904C59
:100B80007B0992400009904C0000932D0000904397
:100B90006A00913C760092307B1293247B6C9043E8
:100BA000000492300005913C00099324000092302B
:100BB0007912932479129137791F370005387924F7
:100BC000903F7981259230000F93240000913800E6
:100BD0000092307912903F00009324791291367977
:100BE0001F360004377924903E7981279230000D1A
:100BF000913700009230790193240011903E00005B
:100C00009324791291367920360004377924903D67
:100C10007981269230000C932400029137000092D3
:100C2000307912903D000093247912913579203566
:100C30000004377924903C79813093240004923069
:100C4000000091370000903C0000FF2F00000000E2
:100C50000000000000000000000000000000000094
:100C60000000000000000000000000000000000084
:100C7000000000000000000000000000000000FF75
:100C800000000000FFFFFF000000FFFFFF0000006A
:100C900000FF0000000000FF000000000000000056
:100CA000000000FF000000000000000000FFFF0047
:100CB000FFFF00FFFF00FFFF00FF0000FF0000003C
:100CC0000000000000000000000000000000000024
:100CD0000000000000000000000000000000000014
:100CE00000000000FF00FF0000FFFFFFFFFF00000B
:100CF000FF00FF000000FF00FF0000FFFFFFFFFFFD
:100D00000000FF00FF000000000000000000FF00E6
:100D100000000000FFFFFF0000FF000000000000D7
:100D2000FFFF000000000000FF0000FFFFFF0000C9
:100D3000000000FF000000000000000000FFFF00B6
:100D400000FF00FFFF0000FF00000000FF000000A8
:100D500000FF00000000FF00000000FF0000FFFF98
:100D600000FF0000FFFF0000000000000000FF0087
:100D7000000000FF00FF000000FF00FF0000000077
:100D8000FF00000000FF00FF00FF00FF0000FF0069
:100D90000000FFFF00FF0000000000000000FFFF58
:100DA00000000000FFFF00000000FF000000000046
:100DB0000000000000000000000000000000000033
:100DC000000000000000000000000000000000FF24
:100DD00000000000FF0000000000FF000000000015
:100DE000FF0000000000FF0000000000FF00000006
:100DF000000000FF00000000000000000000FF00F5
:100E00000000000000FF0000000000FF00000000E4
:100E100000FF0000000000FF0000000000FF0000D5
:100E20000000FF00000000000000000000000000C3
:100E300000000000FF00FF000000FFFFFF0000FFB8
:100E4000FFFFFFFF0000FFFFFF000000FF00FF00AB
:100E50000000000000000000000000000000000092
:100E60000000000000FF0000000000FF000000FF85
:100E7000FFFFFFFF000000FF0000000000FF000078
:100E80000000000000000000000000000000000062
:100E90000000000000000000000000000000000052
:100EA000000000000000000000000000FFFF000044
:100EB0000000FFFF00000000FF0000000000000035
:100EC000000000000000000000000000000000FF23
:100ED000FFFFFFFF00000000000000000000000016
:100EE0000000000000000000000000000000000002
:100EF00000000000000000000000000000000000F2
:100F0000000000000000000000000000FFFF0000E3
:100F10000000FFFF000000000000000000000000D3
:100F200000000000000000FF00000000FF000000C3
:100F300000FF00000000FF00000000FF00000000B4
:100F400000000000000000000000000000002F2F43
:100F50002F00002F0000002F002F00002F2F002F48
:100F6000002F002F002F2F00002F002F0000002F38
:100F700000002F2F2F000000000000000000002FB5
:100F8000000000002F2F00000000002F00000000D4
:100F9000002F00000000002F00000000002F0000C4
:100FA00000002F2F2F0000000000000000002F2F56
:100FB0002F00002F0000002F00000000002F000075
:100FC000002F2F0000002F000000002F0000000065
:100FD000002F2F2F2F2F00000000000000002F2FC8
:100FE0002F00002F0000002F00000000002F000045
:100FF0002F2F2F0000000000002F002F0000002FD7
:1010000000002F2F2F000000000000000000000053
:101010002F000000002F2F0000002F002F00002FB6
:1010200000002F00002F2F2F2F2F000000002F0077
:10103000000000002F00000000000000002F2F2FF4
:101040002F2F002F00000000002F00000000002FB5
:101050002F2F2F0000000000002F002F0000002F76
:1010600000002F2F2F000000000000000000002FC4
:101070002F0000002F000000002F00000000002FB4
:101080002F2F2F00002F0000002F002F0000002F17
:1010900000002F2F2F00000000000000002F2F2F36
:1010A0002F2F00000000002F000000002F00000084
:1010B000002F000000002F00000000002F000000A3
:1010C00000002F00000000000000000000002F2F93
:1010D0002F00002F0000002F002F0000002F000025
:1010E0002F2F2F00002F0000002F002F0000002FB7
:1010F00000002F2F2F0000000000000000002F2F05
:101100002F00002F0000002F002F0000002F0000F4
:101110002F2F2F2F00000000002F000000002F00B5
:1011200000002F2F00000000000000000000000061
:1011300000000000000000000000FFFF00000000B1
:10114000FFFF00000000000000000000FFFF0000A3
:101150000000FFFF00000000000000000000000091
:1011600000000000000000000000FFFF0000000081
:10117000FFFF00000000000000000000FFFF000073
:101180000000FFFF00000000FF0000000000000062
:1011900000FF00000000FF00000000FF0000000052
:1011A000FF000000000000FF000000000000FF0042
:1011B0000000000000FF0000000000000000000030
:1011C000000000000000000000FFFFFFFFFF000024
:1011D0000000000000000000000000FFFFFFFFFF14
:1011E0000000000000000000000000000000FF0000
:1011F0000000000000FF000000000000FF000000F1
:10120000000000FF00000000FF00000000FF0000E1
:101210000000FF0000000000000000000000FFFFD1
:10122000FF0000FF000000FF0000000000FF0000C2
:1012300000FFFF00000000FF0000000000000000B1
:10124000000000FF00000000000000000000FFFFA1
:10125000FF0000FF000000FF00FF00FFFFFF00FF96
:1012600000FF00FF00FF00FFFFFF00FF0000000085
:101270000000FFFFFF000000000000000000FFFF73
:10128000FF0000FF000000FF00FF000000FF00FF64
:10129000000000FF00FFFFFFFFFF00FF000000FF56
:1012A00000FF000000FF00000000000000FFFFFF43
:1012B000FF0000FF000000FF00FF000000FF00FF34
:1012C000FFFFFF0000FF000000FF00FF000000FF25
:1012D00000FFFFFFFF000000000000000000FFFF14
:1012E000FF0000FF000000FF00FF0000000000FF03
:1012F0000000000000FF0000000000FF000000FFF1
:101300000000FFFFFF0000000000000000FFFFFFE3
:10131000FF0000FF000000FF00FF000000FF00FFD3
:10132000000000FF00FF000000FF00FF000000FFC2
:1013300000FFFFFFFF0000000000000000FFFFFFB4
:10134000FFFF00FF0000000000FF0000000000FFA2
:10135000FFFFFF0000FF0000000000FF0000000092
:1013600000FFFFFFFFFF00000000000000FFFFFF85
:10137000FFFF00FF0000000000FF0000000000FF72
:10138000FFFFFF0000FF0000000000FF0000000062
:1013900000FF000000000000000000000000FFFF50
:1013A000FF0000FF000000FF00FF0000000000FF42
:1013B00000FFFFFF00FF000000FF00FF000000FF34
:1013C0000000FFFFFFFF00000000000000FF000022
:1013D00000FF00FF000000FF00FF000000FF00FF13
:1013E000FFFFFFFF00FF000000FF00FF000000FF05
:1013F00000FF000000FF0000000000000000FFFFF1
:10140000FF00000000FF0000000000FF00000000DF
:1014100000FF0000000000FF0000000000FF0000CF
:101420000000FFFFFF0000000000000000000000BF
:1014300000FF0000000000FF0000000000FF0000AF
:10144000000000FF00FF000000FF00FF000000FFA1
:101450000000FFFFFF0000000000000000FF000090
:1014600000FF00FF0000FF0000FF00FF000000FF82
:10147000FF00000000FF00FF000000FF0000FF0071
:1014800000FF000000FF00000000000000FF00005F
:10149000000000FF0000000000FF0000000000FF4F
:1014A0000000000000FF0000000000FF000000003E
:1014B00000FFFFFFFFFF00000000000000FF000032
:1014C00000FF00FFFF00FFFF00FF00FF00FF00FF25
:1014D000000000FF00FF000000FF00FF000000FF11
:1014E00000FF000000FF00000000000000FF0000FF
:1014F00000FF00FFFF0000FF00FF00FF00FF00FFF4
:101500000000FFFF00FF000000FF00FF000000FFE1
:1015100000FF000000FF0000000000000000FFFFCF
:10152000FF0000FF000000FF00FF000000FF00FFC1
:10153000000000FF00FF000000FF00FF000000FFB0
:101540000000FFFFFF0000000000000000FFFFFFA1
:10155000FF0000FF000000FF00FF000000FF00FF91
:10156000FFFFFF0000FF0000000000FF0000000080
:1015700000FF000000000000000000000000FFFF6E
:10158000FF0000FF000000FF00FF000000FF00FF61
:10159000000000FF00FF00FF00FF00FF0000FF0051
:1015A0000000FFFF00FF00000000000000FFFFFF41
:1015B000FF0000FF000000FF00FF000000FF00FF31
:1015C000FFFFFF0000FF0000FF0000FF000000FF22
:1015D00000FF000000FF0000000000000000FFFF0F
:1015E000FF0000FF000000FF00FF000000000000FF
:1015F000FFFFFF000000000000FF00FF000000FFF1
:101600000000FFFFFF0000000000000000FFFFFFE0
:10161000FFFF000000FF0000000000FF00000000CE
:1016200000FF0000000000FF0000000000FF0000BD
:10163000000000FF000000000000000000FF0000AC
:1016400000FF00FF000000FF00FF000000FF00FFA0
:10165000000000FF00FF000000FF00FF000000FF8F
:101660000000FFFFFF0000000000000000FF00007E
:1016700000FF00FF000000FF00FF000000FF00FF70
:10168000000000FF00FF000000FF0000FF00FF005F
:10169000000000FF000000000000000000FF00004C
:1016A00000FF00FF000000FF00FF00FF00FF00FF41
:1016B00000FF00FF00FF00FF00FF00FF00FF00FF32
:1016C0000000FF00FF0000000000000000FF00001D
:1016D00000FF00FF000000FF0000FF00FF0000000F
:1016E00000FF00000000FF00FF0000FF000000FFFF
:1016F00000FF000000FF00000000000000FF0000ED
:1017000000FF00FF000000FF00FF000000FF0000DE
:10171000FF00FF00000000FF0000000000FF0000CD
:10172000000000FF000000000000000000FFFFFFBD
:10173000FF0000000000FF00000000FF00000000AC
:10174000FF00000000FF0000000000FF000000009C
:1017500000FFFFFFFF00000000000000000000FF8E
:10176000FF000000FF0000000000FF00000000FF7D
:10177000FF0000000000FF0000000000FF0000006C
:10178000000000FFFF00000000000000000000FF5C
:10179000FF000000FF0000FF00FF00FFFF00FFFF51
:1017A00000FF0000FFFF00FFFF00FF00FF0000FF41
:1017B000000000FFFF000000000000000000FFFF2D
:1017C000000000000000FF0000000000FF0000001B
:1017D0000000FFFF00000000FF0000000000FF000D
:1017E0000000FFFF00000000000000000028001CB7
:1017F00000190019001900190019001900430044CC
:10180000004500460047004800490049004A004B97
:10181000004B004C004D004D004D004E004B004B66
:101820000049004900490049004F0047005000515D
:10183000005200530019001900190019001900196D
:10184000001900190054005500560057004D004D76
:10185000004D004D004D004D004D004D004D004D20
:1018600000580059005A005B005C005B005D004DB1
:10187000004D004D004D004D004D004D004D004D00
:10188000004D004D005E005F005300190019001963
:10189000001900600061004D004D004D004D004DED
:1018A000004D004D004D004D004D004D00620063A5
:1018B0000064006500650065006500650066006302
:1018C0000067004D004D004D004D004D004D004D96
:1018D000004D004D004D004D006800190019001921
:1018E00000190069004D004D006A006B006C006D2E
:1018F000006E006F0070007100720073007300735F
:101900000073007300740075007600730073007339
:1019100000730077007200780079007A007B007C09
:10192000007D007E007F004D008000190019001925
:101930000019006900810082008300840084008413
:101940000084008400850086008700880089008A62
:10195000008B008C008D008E0086008F009000911F
:101960000087008700870092009300840084008431
:1019700000840094001900950096001900190019C0
:10198000001900970098005300190099009A009BD5
:1019900000840084009C0087008700870087008700
:1019A00000870087009D009E0087008700870087D2
:1019B000008700870087008700930084009F00A0B5
:1019C00000A100A2001900A300A400190019001929
:1019D00000190019001900A500A600A700A800A979
:1019E00000AA00AB00AC00AD00AE00AE00AE00AE91
:1019F00000AE00AE00AF00B000AD00AE00AE00AE75
:101A000000AE00AE00AE00B100B2001900B300B4E9
:101A100000B500B600B700B8001900190019001988
:101A200000B900BA00BA00BA00BA00BA00BA00BBE6
:101A300000BC00BD00BE00BF008700870087008794
:101A4000008700870087008700870087008700875E
:101A500000870087008700C000C100C200C300C427
:101A600000C400C400C400C400C400C500C60019FE
:101A70000024001900190019001900190019001993
:101A8000001900C700C800C90087008700870087C9
:101A900000CA00CB00CC00CD00CE00CF008700876D
:101AA00000870087008700D000D100D200190019FC
:101AB0000019001900190019001900D300D40019E9
:101AC0000024001900190019001900190019001943
:101AD000001900C700D500D600D700D700D700D71F
:101AE00000D700D700D700D700D700D700D700D73E
:101AF00000D700D700D700D800D900D200190019AC
:101B00000019001900190019001900D300D4001998
:101B100000240019001900190019001900190019F2
:101B2000001900C700DA00DB00DC00DD00DE00DFAA
:101B300000E000E100E200E300E000E100E400E595
:101B400000E500E500E500E600E700D20019001915
:101B50000019001900190019001900D300D4001948
:101B600000240019001900190019001900190019A2
:101B7000001900C700DA00E80001000100010001BF
:101B8000000100010001000100010001000100014D
:101B900000010001000100E900E700D2001900196E
:101BA0000019001900190019001900D300D40019F8
:101BB0000024001900190019001900190019001952
:101BC000001900C700DA00EA00010001000100016D
:101BD00000010001000100010001000100010001FD
:101BE00000010001000100E900E700D2001900191E
:101BF0000019001900190019001900D300D40019A8
:101C000000EB00EC00EC00EC00EC00EC00EC00EC75
:101C100000EC00ED00DA00EE00010001000100011F
:101C200000010001000100010001000100010001AC
:101C300000010001000100E900E700EF00EC00EC0A
:101C400000EC00EC00EC00EC00EC00F000F10019FE
:101C500000190019001900190019001900190019BC
:101C600000F200F200F300F40001000100010001A5
:101C7000000100010001000100010001000100015C
:101C800000010001000100E900F500F600F600F790
:101C9000001900190019001900190019001900197C
:101CA0000019001900190019001900F800F900FACC
:101CB0000087008700FB00EE00000000000000002D
:101CC0000000000000000000000000000000000014
:101CD00000000000000000E900FC0087008700878A
:101CE00000FD00FE00190019001900190019001963
:101CF0000019001900190019001900D30087008786
:101D00000087008700FB00EE0000000000000000DC
:101D100000000000000000000000000000000000C3
:101D200000000000000000E900FC00870087008739
:101D3000008700FF00190019001900190019001987
:101D40000019000001010101010101020187008762
:101D50000087008700FB00E8000000000000000092
:101D60000000000000000000000000000000000073
:101D700000000000000000E900FC008700870087E9
:101D8000008700030101010101010104011900198B
:101D900000190005010501050105010601870087FD
:101DA0000087008700FB00E8000000000000000042
:101DB0000000000000000000000000000000000023
:101DC00000000000000000E900FC00870087008799
:101DD000008700070105010501050105011900192A
:101DE00000190008010901090109010A010B018715
:101DF0000087000C010D010E010F010F010F010FF3
:101E0000010F010F010F010F010F010F010F010F52
:101E1000010F010F010F011001110112018700874D
:101E20000013011401090109010901150119001923
:101E300000190019001900190019001900160117DE
:101E400001170117011701180121002100210021AC
:101E5000002100210021002100210021002100217A
:101E60000021002100210019011701170117011796
:101E7000011A011900190019001900190019001997
:101E800000B900BA00BA00BA00BA00BA00BA00BA83
:101E900000BA00BA00BA00BA00BA00BA00BA00BA72
:101EA00000BA00BA00BA00BA00BA00BA00BA00BA62
:101EB00000BA00BA00BA00BA00BA00BA00BA00BA52
:101EC00000BA00BA00BA00BA00BA00BA001B011981
:101ED000002400190019001900190019001900192F
:101EE000001900190019001900190019001900192A
:101EF000001900190019001900190019001900191A
:101F00000019001900190019001900190019001909
:101F1000001900190019001900190019001C0119F5
:101F200000240019001900190019001900190019DE
:101F300000190019001900190019001900190019D9
:101F400000190019001900190019001900190019C9
:101F500000190019001900190019001900190019B9
:101F6000001900190019001900190019001C0119A5
:101F7000002400190019001900190019001900198E
:101F80000019001900190019001900190019001989
:101F90000019001900190019001900190019001979
:101FA0000019001900190019001900190019001969
:101FB000001900190019001900190019001C011955
:101FC000001D011E011E011E011E011E011E011E1B
:101FD000011E011E011E011E011E011E011E011E09
:101FE000011E011E011E011E011E011E011E011EF9
:101FF000011E011E011E011E011E011E011E011EE9
:10200000011E011E011E011E011E011E011F0119DC
:1020100000190019001900190019001900190019F8
:1020200000190019001900190019001900190019E8
:1020300000190019001900190019001900190019D8
:1020400000190019001900190019001900190019C8
:1020500000190019001900190019001900190019B8
:1020600000190019001900190019001900190019A8
:102070000019001900190019001900190019001998
:102080000019001900190019001900190019001988
:102090000019001900190019001900190019001978
:1020A0000019001900190019001900190019001968
:1020B000002100090019002001210122012301242F
:1020C00001250126012701280129012A012B012CC4
:1020D000012D012E012F0130013101320133013474
:1020E000013501360137013801390139013A013B27
:1020F000013C013D013E0119003F01400141014207
:102100000143014401450146014701480149014A93
:10211000014B0100004C01000000004D01000000D7
:10212000004E014F0150015101520153015401551C
:102130000156015701580159015B015C015D010025
:10214000005E015F0160016101620163016401657C
:102150000166016701680169016A01000000000071
:102160000000006B016C016D01190019006E016F18
:10217000017001710172017301740119007501761A
:102180000100007701780179017A017B017C017DF2
:10219000017E017F01800181018201830100000035
:1021A0000000000000840185018601190019001952
:1021B0000019001900190087018801890119008B95
:1021C000018C0100008D018E018F0190019101921F
:1021D0000193019401950196019701980100000077
:1021E000000000000084019901190019001900196C
:1021F0000019001900190019009A019B019C01198E
:10220000009E019F01A001A101A201A301A401A5BB
:1022100001A601A701A801A901AA01AB01AC01AD6A
:1022200001AE01AF01B001B101B201B3011900B4B7
:1022300001B501B60119001900190019001900199A
:10224000001900B701B801B901BA01BB01BC01BD59
:1022500001BE01BF01C001BF01C101C201BF01C375
:1022600001C401C501C601C701C801C901CA01CB2A
:1022700001CC01CD01CE01CF01D001D101D201D3DA
:1022800001D401D601D701D801D901DA01DB01DC83
:1022900001DD01DE01DF01E001E101E201E301E432
:1022A00001E501E601E701E801E901EA01EB01ECE2
:1022B00001ED01EE01EF01F001F101F201F301F492
:1022C00001F501F601F801F901FA01FB01FC01FD3C
:1022D00001FE01FF010002010202020302040205E5
:1022E0000206020702080209020A0200000B020CA1
:1022F000020D020E020F021002110212021302144A
:102300000215021602170203000200190019001933
:102310000019001900190003000200190019001922
:102320000019001900190003000200190019001912
:102330000019001900190003000200190019001902
:1023400000190019001900484848484848484848BA
:1023500048484848484848484848484848484848FD
:1023600048484848484848484848484848484848ED
:1023700048484848484848F4F4F4F4F4F4F4F4F4D1
:10238000F4F4F4F4F4F4F4F4F4F4F4F4F4F4F4F40D
:10239000F4F4F4F4F4F4F4F4F4F4F4F4F4F4F4F4FD
:1023A000F4F4F4F4F4F4F4ADAD09090000AD09045B
:1023B0000E0607AD01060606070901070F0F0FAD50
:1023C0000106070F0FAD00030E0E0FADAD01020B9E
:1023D0000BADAD0900090909ADADADADAD0301AD62
:1023E000ADADAD0D0101ADADAD4E0100ADADAD4E2C
:1023F0000100ADADAD0A09ADADADAD0000ADADAD07
:10240000AD09ADADADADADADAD09090000AD090192
:102410000B0B0CAD010B0B0B0C09010C0C0C0CADD8
:10242000010B0C0C0CAD00010B0B0CADAD0101014F
:1024300001ADAD0900090909ADADADADAD0101AD0D
:10244000ADADAD0B0101ADADAD4B0100ADADAD4BD3
:102450000100ADADAD0109ADADADAD0000ADADADAF
:10246000AD09ADADADADADF4F4F4F4F4F4F4F4F4C1
:10247000F4120AF4F4125B5B5BF4F4F45B5B5B1242
:102480001212121212F4125B5B5B5BF4F4125B5BD0
:102490005BF4F4F412125BF4F4F4F4F4F4F4F4F4F2
:1024A000F4F4125BF4F4F4F4125BF4F4F4125B123F
:1024B00012121212125B5B5B5B5B5B5B5B5B5B5BD9
:1024C0005B5B5B5B5B5B5B125B5B5BF4F45B5B5B73
:1024D0005B5B5B00005B5B00005B5B125B5B5B124A
:1024E00012121212125B5B5B5B5B5B5B5B5B5B5BA9
:1024F0005B5B5B5B5B5B5BF4F4F4F4F4F4F4F4F4CB
:10250000F4F4F45B5B5BF4F4F45B12125BF4F4122E
:1025100012121212F45B5B5B5B12F45B5B5B12F4F6
:10252000F45B5B12F4F4F4F4125B5B5BF4F4F4120E
:102530005BF4F4F41200005BF4F4125B5B5BF412E6
:102540001212121212125B5B5B5B5B125B5B5B5BDA
:102550005BF4125B5B5BF4F45B5BF45BF4F4F45BE5
:10256000F40F0F5BF4F40F0F1F5BF4F4121F2F1224
:1025700012125B1F3F5B5B5B5B0F1F5B5B5B0F5B69
:102580005B5B5B5B5B5B5B125B5B5BF4F45B0F5BFE
:102590005BF45B1F1F0F00005B3F3F1F0F5B5B3F48
:1025A0002F1F1212122F1F0F5B5B5B5B0F5B5B5BBE
:1025B0005B5B5B5B5B5B5B5BF4F4F40FF4F40FF46D
:1025C000F40F0F5BF40F0F0F1FF4F4F40F1F2F1213
:1025D000120F0F1F3F5B5B0F1F2F3F5B0F0F1F2F54
:1025E0001F5B5B5B5B0F0F125B5B0FF4F41F1F0F36
:1025F0000F0F5B2F3F1F0F00003F3F2F1F0F5B3F51
:102600003F1F1F0F123F2F1F0F0F0F2F1F0F0F5BAB
:102610005B0F5B5B0F5B5BF4125B5B5BF4F4F412D0
:102620005B0F0FF40F0F1F0FF4F4121F3F1FF41274
:10263000123F3F0F12120F5B1F0F5B125B5B5B5B66
:102640005BF4125B5B5BF4F4120F5B5BF4F40F0F53
:102650000F0F0F0F0F1F1F0FF4F41F3F3F1FF41238
:102660001F1F3F1F0F0F0F1F1F0F0F120F0F0F0FF7
:102670005BF4120F5B5BF448484848889848484828
:102680008898A848484888984848488898A848485A
:102690008898A848484888984848488898A848484A
:1026A0004898A848484848988848484848489888DA
:1026B00048484848988848484848A898884848481A
:1026C00048A8988848484848988848484848A8985A
:1026D0008848484848A898ADAD09090000AD0931BF
:1026E00034343DAD013434343D09013D3D3D3DAD13
:1026F00001343D3D3DAD003134343DADAD013131AE
:1027000031ADAD0900090909ADADADADAD3101ADDA
:10271000ADADAD343101ADADAD343100ADADAD34A5
:102720003100ADADAD3109ADADADAD0000ADADAD7C
:10273000AD09ADADADADADADAD09090000AD091050
:10274000222828AD0122222228090128282828AD84
:102750000122282828AD0010222228ADAD0110103A
:1027600010ADAD0900090909ADADADADAD0101ADCB
:10277000ADADAD281001ADADAD101000ADADAD10DB
:102780001000ADADAD1009ADADADAD0000ADADAD5E
:10279000AD09ADADADADAD000000000000280028D2
:1027A00028282822282222222222222222222222F1
:1027B00021222222222100212121210000000000CB
:1027C0000000000000000000000000000028282891
:1027D0000000002222222800002222222228002299
:1027E0002222210000212121000000000000000021
:1027F00000000000000000000000000000000000D9
:1028000000000000000000000000000000000000C8
:1028100000000000000000000000000000000000B8
:1028200000000000000000484828224848482822AC
:1028300022224848482822484848484848484848AA
:102840004848484848484848484848484848484808
:10285000484848484848484848282248484848285E
:102860002248484828222222484828222222482852
:102870002222222222482822222248484848484828
:102880004848484848484848482822484848282254
:102890002222484828222222482822222222222894
:1028A00022222222222822222222222822222222FC
:1028B00022482822222248005B5B5B5B5B5BADAD5C
:1028C000ADADAD5BAD00ADAD005BADADAD00005BE2
:1028D000ADAD0000005BAD000000005BAD0000008E
:1028E000005BAD000000005B5B5B5B5B00ADADAD12
:1028F000ADAD5B00ADAD00AD5B0000ADADAD5B005F
:102900000000ADAD5B00000000AD5B00000000AD5D
:102910005B00000000AD5B5BAD000000005BAD0044
:102920000000005BAD000000005BADAD0000005B8F
:10293000ADADAD00005BAD00ADAD005BADADADAD1F
:10294000AD005B5B5B5B5B00000000AD5B0000000B
:1029500000AD5B00000000AD5B000000ADAD5B00B2
:1029600000ADADAD5B00ADAD00AD5BADADADADAD42
:102970005B5B5B5B5B5B005B5B5B5B5B5BADADAD0C
:10298000ADADAD0000000000000000000000000040
:102990000000000000000000000000000000000037
:1029A0000000000000000000000000000000000027
:1029B0000000000000000000000000000000000017
:1029C0000000000000000000000000ADADADADADA6
:1029D000AD5B5B5B5B5B5B5BAD000000005BAD0018
:1029E0000000005BAD000000005BAD000000005B7C
:1029F000AD000000005BAD000000005BAD0000001A
:102A0000005BAD0000000000000000AD5B000000B6
:102A100000AD5B00000000AD5B00000000AD5B009E
:102A2000000000AD5B00000000AD5B00000000ADE9
:102A30005B00000000AD5BF4F4F4F4F4F4F4F4F49F
:102A4000FFFFFFF4FFFFFFF6F6FFFFF6FFFFFFFFBC
:102A5000FFFFF6FFFFF4FFFFFFFFFFF4F4FFF4F4C6
:102A6000FFF4F4F4F4F4F4F4F4F4F4F4F4FFFFF405
:102A7000F4FFFFFFFFFFFFF6FFFFF6FFF6FFFFF695
:102A8000FFFFF6FFFFFFFFFFFFFFF6FFF4F4F4FF89
:102A9000FFF4F4F4F4F4F4F4F4F4F4F4F4FFF4FFD5
:102AA000F4F4F4FFFFFFFFF4F4F6FFF6FFFFF4FF8A
:102AB000FFFFFFFFF4FFFFF6FFF4F4FFF4F4F4F47C
:102AC000F4F4F4F4F4F4F4F4F4F4F4F4F4F4F4F4C6
:102AD000F4F4F4F4F4F4F4F4F4F4F4F4F4F4F4F4B6
:102AE000F4F4F4F4F4F4F4125A5A5AF4125B5B5B03
:102AF0005BF4125B5B5B5BF4F4F4F4F4F4F4F4F475
:102B0000F4F412F4F4F4F4125BF4F4F4F4125BF45D
:102B1000F4F4F4125B5A5A5A5A5B5A5B5A5B5B5B89
:102B20005B5B5B5B5B5B5BF4F4F4F4F4F412F4F476
:102B3000F4F4F45B5BF4F4F4F45B5BF4F4F4F45B52
:102B40005BF4F4F4F45A5A5A5A5A5A5B5B5B5A5B78
:102B50005B5B5B5A5B5B5BF4F4F4F4F4F4F4F4F465
:102B6000F4F4F4F4F4F4F4F4F4F4F4F4F4F4F4F425
:102B7000F4F4F4F4F45A5A5AF4F4F45B5A5B5BF448
:102B8000F45A5A5B5BF4F4F4F4F4F4F4F4F4F45B04
:102B90005BF4F4F4F4125BF4F4F4F4125BF4F4F484
:102BA000F4125BF4F4F45A5B5B12F45A5B5B5B5B0C
:102BB000125A5B5B5B5B12F4F4F4F4F4F4F4F45B30
:102BC000F40F0FF45BF40F0F1FF4F4F4F41F2FF461
:102BD000F45BF41F3F5A5A5A5A0F1F5B5B5B0F5B43
:102BE0005B5B5B5B5B5B5BF4F4F4F4F4F45B0FF452
:102BF000F45BF41F1F0FF4F4F43F3F1F0FF45B3F2F
:102C00002F1F5B5BF42F1F0F5B5B5A5B0F5B5B5BE4
:102C10005B5B5B5A5B5B5BF4F4F4F40FF4F45BF422
:102C2000F40F0F5BF40F0F0F1F5BF4F40F1F2FF463
:102C3000F40F0F1F3F5A5A0F1F2F3F5B0F0F1F2F0D
:102C40001F5B5B5B5B0F0FF4F4F40FF4F41F1F0FBB
:102C50000F0FF42F3F1F0FF4F43F3F2F1F0FF43FD0
:102C60003F1F1F0FF43F2F1F0F0F0F2F1F0F0F5B63
:102C70005B0F5B5A0F5B5BF4F4F4F4F4F4F4125B57
:102C80005B12F4F4F4125B0F0FF40F0F1F0FF4F448
:102C9000F41F3F1FF4F45A3F3F0FF45A0F5B1F0F0E
:102CA000125A5B5B5B5B12F4F40FF4F4F4F40F0F55
:102CB0000F0F0F0F0F1F1F0FF4F41F3F3F1FF4F4F0
:102CC0001F1F3F1F0F0F0F1F1F0F0F5B0F0F0F0F48
:102CD000125B5B0F5B5B12484848484848484848CD
:102CE0004848E2484898E298984848484848484840
:102CF0004848484848484848484848484848484854
:102D000048484848484848484848484848E2E2480F
:102D10004848484848484848484848484848484833
:102D20004848E2E2484848989898484848484848FF
:102D300048F4F4F4F4F4F44848E2E24848484848D7
:102D400048489848484848484848484848484848B3
:102D500048484848484848484848484848F4F4489B
:102D600048F4F4484848484848484848489848483B
:102D700048484848484848484848484848484848D3
:102D800048484848484848484848484848484848C3
:102D9000484848484848F448484848484848484807
:102DA0004848484848484848489898E29848484819
:102DB0004848484848484848484848484848484893
:102DC00048F4F448484848484848484848484898DB
:102DD00098984848484848484848484848484848D3
:102DE0004848484848484848484848484848F4F40B
:102DF000F4484848484848484848484848484848A7
:102E0000484848484848E2E248484848484848480E
:102E10009898984848484848484848F4F4F448483E
:102E200048484848484848484848E2E248484848EE
:102E30004898984848484848484848484848484872
:102E400048484848984848484848484848484848B2
:102E500048484848484848484848484848984848A2
:102E6000484848484848484848484848484848E248
:102E70009848484848484848484848484848484882
:102E800048484848484848484848484848484848C2
:102E9000484848484848E2E298484848484848482E
:102EA000484848484848484848484848F4F4F4F4F2
:102EB0004848484848484848484848484848484892
:102EC0004848489848484848484848484848484832
:102ED0004848484848484848484848484848484872
:102EE0004848484848F4F4484848484848484898BA
:102EF000E2984848484848484848E2E24848484834
:102F00004848484848484848484848484848484841
:102F100048F4484848484848484848484848484885
:102F200048484848484848484848484848484898D1
:102F300098484848484848484848484848484848C1
:102F40004848484848484848484848484848989861
:102F5000E2484848484848484848484848989848B7
:102F6000484848484848484848F4F4484848484889
:102F70004848484848484848484848484848E24837
:102F800048484848484848484848484848484848C1
:102F90004848484848F4F4F4F4F448484848484855
:102FA0004848484848484800000000002800000001
:102FB0000000280000000028280000000028002849
:102FC0000000282800002800280000002800280011
:102FD00000000028000000000000000000000000C9
:102FE00000000000000000000000000000000000E1
:102FF00000000000000000000000000000000000D1
:10300000000000090909090000000000000000009C
:1030100000000000000000000000000000000000B0
:10302000000000000000000000000909090909096A
:103030000909090909090900000000000000000051
:103040000000000000000000000000000000000080
:1030500000000909090909090909090909090909F2
:103060000909090909090900000000000000000021
:10307000000000000000000000000000000009093E
:1030800009090909090909090909090909090909B0
:1030900009090909090909000000000000000000F1
:1030A00000000000000000000009090909090909E1
:1030B0000909090909090909090909090909090980
:1030C00009090909090909000000000000000000C1
:1030D0000000000000000909090909090909090996
:1030E0000909090909090909090909090909090950
:1030F0000909090909090900000000000000000091
:10310000000000090909090909090909090909094A
:10311000090909090909090909090909090909091F
:103120000909090909090900000000000000000060
:103130000000090909090909090909090909090911
:1031400009090909090909090909090909090909EF
:103150000909090909090900000000000009090915
:1031600009090909090909090909090909090909CF
:1031700009090909090909090909090909090909BF
:1031800009090909090909000909090909090909B8
:10319000090909090909090909090909090909099F
:1031A000090909090909090909090909090909098F
:1031B000090909090909090909090909090909097F
:1031C000090909090909090909090909090909096F
:1031D000090909090909090909090909090909095F
:1031E0000909090909090909090909090009090958
:1031F000090909090909090909090909090909093F
:10320000090909090909090909090909090909092E
:10321000090909090909090000000000000000006F
:103220000000000900000000000909090909090956
:1032300009090909090909090909090909090909FE
:10324000090909090909090000000000000000003F
:10325000000000000000000000090000000000095C
:1032600009090909000909090909090909090909D7
:10327000090909090909090000000000000000000F
:10328000000000000000000000000000000000003E
:1032900000000000000909090900000909090909DD
:1032A00009090909090909000000000000000000DF
:1032B000000000000000000000000000000000000E
:1032C00000000000000000000000000909000000EC
:1032D00000090909090909000000000000000000B8
:1032E00000000000000000000000000000000000DE
:1032F00000000000000000000000000000000000CE
:1033000000090900000000000000000000000000AB
:1033100000000000000000000000000000000000AD
:10332000000000000000000000000000000000009D
:103330000900000000090900000000000000000072
:103340000000000000000000000000000000090074
:1033500000000909090009090909090909090909F8
:10336000090909090909090000000000000000001E
:1033700009090900090909090909090909090909C6
:1033800009090909090909090909090909090909AD
:1033900009090909090909000009090909090909AF
:1033A000090909090909090909090909090909098D
:1033B000090909090909090909090909090909097D
:1033C000090909090909090909090101090909097D
:1033D000010109090909010109090909010109098D
:1033E000090901010909090901010909090901017D
:1033F0000909090901010109090909090909090955
:10340000090909090909090909090909090909092C
:10341000090909090909090909090909090909091C
:10342000090101010101010101090901010101096C
:103430000901010101090901010101090901010154
:10344000010909010101010909090901010909012C
:103450000101010909010101010101010109090934
:103460000909090909090909090101010101010104
:1034700001010101010909090909090909090909E4
:10348000090101010101010101090901010101090C
:1034900009010101010909010101010909010101F4
:1034A00001090901010101090901010101090901DC
:1034B00001010109090101010909090909010109BC
:1034C000090909090909090909010909090909017C
:1034D0000109090909010109090909010109090984
:1034E0000901090909090909000000000009090981
:1034F0000000000909090909000909090909090960
:10350000090909090909090909090909090909092B
:10351000090909090909090000000000000000006C
:103520000000000000000000000900000000000989
:10353000090900000009090909090009090909091F
:10354000090909090909090000000000000000003C
:10355000000000000000000000000000000000006B
:103560000000000000000000000009000000000052
:10357000090000000000090000090909090000090C
:1035800009090900090909090900090909090909BD
:10359000090909090909090909090909090909099B
:1035A000090909090909090909090909090909098B
:1035B000090909090909090909090909090909097B
:1035C000090909090909090909090909090909096B
:1035D00009090909ADADAD0909090909090909096F
:1035E000090909090909090909090909090909094B
:1035F000090909090909090909090909090909093B
:1036000009ADADADADADAD09090909090909090952
:10361000090909090909090909090909090909091A
:10362000090909090909090909090909095B5B5B14
:103630005BADADADADADAD090909090909090909D0
:1036400009090909090909090909090909090909EA
:1036500009090909090909090909095B5B5B5B5B40
:103660005BADADADADADAD090909090909090909A0
:1036700009090909090909090909090909090909BA
:1036800009090909090909090909095B5B5B0909B4
:1036900009ADADADADADAD090909090909090909C2
:1036A000090909090909090909090909090909098A
:1036B000090909090909090909090909090909097A
:1036C00009ADADAD090909090900000000090909A2
:1036D00000000009090900000009090909000009A2
:1036E000090909090009090909090009090909095C
:1036F0000009090909090000000000000900000094
:10370000000009000000000009000000000009009E
:103710000000000009000000000009000000000097
:103720000900000000000909090909090909090936
:1037300009090909090909090909090909090909F9
:1037400009090909090909090909090909090909E9
:103750000909090900095B09090909090909090990
:1037600009090909090909090909090909090909C9
:10377000090909090909095B5B5B5B5B5B5B5B5BD7
:103780005B5B5B5B5B5B5B0909090909090909096B
:103790000909090909090909090909090909090999
:1037A00009090909095B5B5B5B5B5B5B5B5B5B5B03
:1037B0005B5B5B5B5B5B5B0909090909090909093B
:1037C00009090909090909090909090909095B0917
:1037D0005B5B5B5B5B5B5B5B5B5B5B5B5B5B5B5B39
:1037E0005B5B5B5B5B5B5B0909090909090909090B
:1037F000090909095B5B5B5B5B5B5B5B5B5B5B5B61
:103800005B5B5B5B5B5B5B5B5B5B5B5B5B5B5B5B08
:103810005B5B5B5B5B5B5B09090909090909095B88
:103820005B5B5B5B5B5B5B5B5B5B5B5B5B5B5B5BE8
:103830005B5B5B5B5B5B5B5B5B5B5B5B5B5B5B5BD8
:103840005B5B5B5B5B5B5B09090909095B5B5B5B62
:103850005B5B5B5B5B5B5B5B5B5B5B5B5B5B5B5BB8
:103860005B5B5BADAD5B5B5BADAD5B5B5BADAD5BBC
:10387000AD5B5BAD5BADAD5B5B5B5B5B5B5B5B5B50
:103880005B5BAD5B5B5BADADADADADADADADADAD02
:10389000ADADADADAD5B5B5B5B5B5BADADADADAD44
:1038A000AD09ADADADADAD5B5B5B5B5B5BADADADD8
:1038B000ADADADADADADADADADADADADADADADAD38
:1038C000ADADADADAD5B5B5B5B5B5BADADADADAD14
:1038D000ADADADADADADADADADADADADADADADAD18
:1038E000ADADADADADADADADADADADADADADADAD08
:1038F000ADADADADAD5B5B5B5B5B5BADADADADADE4
:10390000ADADADADADADADADADADADADADADADADE7
:10391000ADADADADADADADADADADADADADADADADD7
:10392000ADADADADAD5B5B5B5B5B5BADADADAD5B05
:103930005BADAD09ADAD5BADADADADADADADADADFF
:10394000ADADADADADADADADADADADADADADADADA7
:10395000ADADADADADADADAD5B5B5B5BAD5B5B5BD5
:10396000AD5BAD5B5BADADADADADADADADADADAD7D
:10397000ADADADADADADADADADADADADADADADAD77
:10398000ADADADADAD5B5B5B5B5B5BADADADADAD53
:10399000AD09ADADADADADADADADADAD5BADADAD4D
:1039A000ADADADADADADADADADADADADADADADAD47
:1039B000ADADADADAD5B5B5B5B5B5BADADADADAD23
:1039C000ADADADADADADAD5B5B5B5B5B5B5B5B5B09
:1039D0005B5B5BADAD5B5B5B5BADADADADAD5BADA7
:1039E000ADADADADAD5B5B5B5B5B5BADADADADADF3
:1039F000ADADADADAD09AD0909090909095B5B5B69
:103A00005B5B5B5B5B5B5B5B5B5B5B5B5B5B5BADB4
:103A10005B5B5B5B5BADAD5B5B5B5B5BADAD5B5BAE
:103A20005BAD5BADAC5B5B0909090909095B5B5BDD
:103A30005B5B5B5B5B5B5B5B5B5B5B5B5B5B5B5BD6
:103A40005B5B5B5B5B5B5B5B5B5B5B5B5B5B5B5BC6
:103A50005B5B5B5B5B5B5B0909090909095B5B5BA2
:103A60000909095B5B5B5B5B095B5B5B5B5B5B5BEE
:103A70005B5B5B5B5B5B5B5B5B5B5B5B5B5B5B5B96
:103A80005B5B5B5B5B5B5B09090909090909090968
:103A90000909090909090909095B5B5B0909095B4E
:103AA0005B5B5B5B5B5B5B5B5B5B5B5B5B5B5B5B66
:103AB0005B5B5B5B5B5B5B09090909090909090938
:103AC0000909090909090909090909090909095B14
:103AD0005B5B5B5B5B5B5B5B5B5B5B5B5B5B5B5B36
:103AE0005B5B5B5B5B5B5B09090909090909090908
:103AF0000909090909090909090909090909095BE4
:103B00005B090909095B5B5B5B09095B5B5B5B5BF1
:103B1000095B5B5B5B5B0009090909090909090984
:103B20000909090909090909090909090909090905
:103B300009090909090909090909090009090909FE
:103B40000900000009090909090909090009090909
:103B500009090009090909090009090909090009F0
:103B600009090909000909090909000909090909D7
:103B700000090909090900090909090909090909C7
:103B800009090909090909090909090909090909A5
:103B900009090909000909090000000909000000D4
:103BA00000090000000000090909090909090909BB
:103BB00009000009090000000000000000000000EA
:103BC00000000000000000000000000000000000F5
:103BD0000000000000000009000000005B00000081
:103BE00000005B00000000005B00000000005B00C4
:103BF000000000005B00000000005B00000000000F
:103C00005B0000000000005B5B5B5B5B5B5B5B5B26
:103C10005B5B5B5B5B5B5B5B5B5B5B5B5B5B5B5BF4
:103C20005B5B5B5B5B5B5B5B5B5B5B5B5B5B5B5BE4
:103C30005B5B5B5B5B5B5B5B5BAD5BAD095B5BAD30
:103C40005BADAD5B5BAD5BADAD5B5BAD5BADAD5B34
:103C50005BAD5BADAD5B5BAD5BADAD5B5BAD5BAD24
:103C6000AD5B5BAD5BADAD0909ADADADAD09ADAD66
:103C7000ADADADADADADADADADADADADADADADAD74
:103C8000ADADADADADADADADADADADADADADADAD64
:103C9000ADADADADADADADADADADADADADADADAD54
:103CA000ADADADADADADADADADADADADADADADAD44
:103CB000ADADADADADADADADADADADADADADADAD34
:103CC000ADADADADADADADADADADADADADADADAD24
:103CD000ADAD01ADADADADAD01ADADADADAD01AD18
:103CE000ADADADAD01ADADADADAD01ADADADADAD5C
:103CF00001ADADADADADADADADADADADAD0101ADF8
:103D0000ADADADADAD01ADAD01ADAD01AD01AD013F
:103D100001ADAD0101ADAD01AD01ADADAD01AD0187
:103D2000ADADADADADADADADADADADADAD01ADAD6F
:103D300001ADADAD01AD01ADADAD01AD0101AD0167
:103D400001AD01AD01AD01AD01ADADAD01AD01AD57
:103D5000ADADADADADADADADADADADADAD01AD01EB
:103D600001010101AD01ADAD0101AD01ADADAD018F
:103D7000AD01AD010101AD01ADAD0101AD0101012B
:103D800001ADADADADADADADADADADADADAD010167
:103D900001ADADAD01ADADADADAD01ADADADADAD57
:103DA0000101ADADADAD01ADADADADAD010101AD4B
:103DB000ADADADADADADADAD090909AD5BADAD0915
:103DC000ADAD5BADADADADAD5BADADADADAD5BAD19
:103DD000ADADADAD5BADADADADAD5BADADADADADB7
:103DE0005BADADADADAD5B5BAD5B5BAD095BAD5BE5
:103DF0005BADAD5BAD5B5BADAD5BAD5B5BADAD5B83
:103E0000AD5B5BADAD5BAD5B5BADAD5BAD5B5BAD72
:103E1000AD5BAD5B5BADADADADADADADADADAD0174
:103E20000101ADADAD01ADAD01ADAD01ADAD01ADCA
:103E3000AD01ADAD01ADAD01ADAD01ADAD01010166
:103E4000ADADADADADADADADADADADADADAD01AD4E
:103E500001ADADAD01AD01ADADAD01ADAD01ADADEE
:103E600001ADAD01ADAD01ADADAD01AD01ADADADDE
:103E700001ADADADADADADADADADADADADAD01ADCA
:103E8000010101AD01AD01ADAD01ADAD01ADAD01C2
:103E9000ADAD0101ADADADAD01ADADADADAD0101AE
:103EA00001ADADADADADADADADAD090909ADADADDA
:103EB000AD09ADADADADADADADADADADADADADADD6
:103EC000ADADADADADADADADADADADADADADADAD22
:103ED000ADADADADADADADAD5BADAC5B5BAD5BAD5B
:103EE000AC5B5BAD5BADAC5B5BAD5BADAC5B5BAD95
:103EF0005BADAC5B5BAD5BADAC5B5BAD5BADAC5B85
:103F00005BAD5BADAC5B5B5B5B5B5B5B005B5B5B67
:103F10005B5B005B5B5B5B5B005B5B5B5B5B005B02
:103F20005B5B5B5B005B5B5B5B5B005B5B5B5B00F2
:103F3000005B5B5B00000009090909090900000931
:103F4000090909000000000909000000000009003B
:103F50000000000000000000000000000000000061
:103F60000000000000000009090909090009090909
:103F700009090009090909090009090909090000D5
:103F800009090909000000090909000000000909E0
:103F90000000000009090000000000000900000006
:103FA00000000900000000000900000000000900F6
:103FB0000000000000000000000000000000000001
:103FC00000000000000000090000000000090000DF
:103FD00000000009000000000009090000000009BD
:103FE0000909000000090909090000000909090977
:103FF00000000000000909005B5B5B5B5B00005B8D
:104000005B5B5B000000005B5B00000000000000E9
:1040100000000000000000000000000000000000A0
:10402000000000000000005B5B5B5B5B5B5B5B5B5D
:104030005B5B5B5B5B5B5B5B5B5B5B5B5B5B5B002B
:10404000005B5B5B5B0000005B5B5B0000000000F3
:10405000000000000000005B5B5B5B5B5B5B5B5B2D
:104060005B5B5B5B5B5B5B5B5B5B5B5B5B5B5B5BA0
:104070005B5B5B5B5B5B5B5B5B5B5B5B5B5B5B5B90
:104080005B0000005B5B5B5B5BAD5BADAD5B5BAD49
:104090005BADAD5B5BAD5BADAD5B5BAD5BADAD5BE0
:1040A0005BAD5BADAD5B5BAD5BADAD5B5BAD5BADD0
:1040B000AD5B5BAD5BADADADADADADAD5BADADAD78
:1040C000ADAD5BADADADADAD5BADADADADAD5BAD16
:1040D000ADADADAD5BADADADADAD5BADADADADADB4
:1040E0005BADADADADAD5B5BAD5B5BADAD5BAD5B3E
:1040F0005BADAD5BAD5B5BADAD5BAD5B5BADAD5B80
:10410000AD5B5BADAD5BAD5B5BADAD5BAD5B5BAD6F
:10411000AD5BAD5B5BADAD5B5B5B5B5B5B5B5B5BA7
:104120005B5B5B5B5B5B5B5B5B5B5B5B5B5B5B5BDF
:104130005B5B5B5B5B5B5B5B5B5B5B5B5B5B5B5BCF
:104140005B5B5B000000005B5B5B5B5B5B5B5B5B2B
:104150005B5B5B5B5B5B5B5B5B5B5B5B5B5B5B5BAF
:104160005B5B5B5B5B5B5B5B5B00005B00000000C1
:10417000000000000000005B5B5B5B5B5B5B5B5B0C
:104180005B5B5B5B5B5B5B00005B5B000000005BA1
:10419000000000000000000000000000000000001F
:1041A000000000000000005B5B0000000000000059
:1041B00000000000000000000000000000000000FF
:1041C00000000000000000000000000000000000EF
:1041D00000000000000000000000000000000000DF
:1041E00000000000000000000000000000000000CF
:1041F000000000000000000000000900000909099B
:104200000900090909000000000009090000000078
:10421000090900000009090900000909090000094D
:104220000909090000090909000000000000000058
:10423000000000000000000909090000000000095A
:104240000909090000000009090000000000000041
:10425000000000000000000000000000000000005E
:104260000000000000000000000000000009000045
:1042700000000009090900000000000909090900FF
:10428000000000090900000000000000000000001C
:10429000000000000000000000000000000000001E
:1042A0000000000000000000000000000000000905
:1042B00009090900000000090909090000000000BF
:1042C00009000000000000000000000000000000E5
:1042D00000000000000000000000000000000000DE
:1042E00000000000000000000000000909090000B3
:1042F00000000000090909000000000000000000A3
:1043000000000000000000000000000000000000AD
:10431000000000000000000000000000000000009D
:104320000009000000000000005B5B5B5B00000018
:10433000000000000000000000000000000000007D
:10434000000000000000000000000000000000006D
:10435000000000000000005B5B5B5B5B5B0000003B
:10436000000000000000000000000000000000004D
:10437000000000000000000000000000000000003D
:10438000000000000000005B5BAD5BADAD005BAD0D
:104390005BADAD005BAD5BAD09005BAD5BADAD0092
:1043A0005BAD5B5BAD005BADAD5B5B005BADADADD5
:1043B000AD005BADAD5B5BADADADADADAD09ADAD74
:1043C000ADADAD0909ADADADAD09ADADADADADAD09
:1043D000ADADADADAD5B5B5B5B5B5BADADADADADF9
:1043E000AD5B5B5B5B5B5BADADADADADADADADADE9
:1043F000ADADADADADADADADADADADADADADADADED
:10440000ADADADADAD5B5B5B5B5B5BADADADADADC8
:10441000AD5B5B5B5B5B5BADADADADAD5BADAD09AE
:10442000ADAD5BAD090909AD5BADAD09ADAD5BAD42
:10443000ADADAD5B5B5B5B5B5B5BADADADADADADEA
:10444000AD5B5B5B5B5B5B5BAD5B5BADAD5BAD5B22
:104450005BADAD5BAD5B5BAD095BAD5B5BADADAD6E
:10446000ADAD5B5BADADADADAD5B5BADADADADADC4
:10447000AD5B5B5B5B5B5BADADADADADADADADAD58
:10448000AD09ADADADAD090909ADADADAD09ADAD90
:10449000ADADADADAD5B5B5B5B5B5BADADADADAD38
:1044A000AD5B5B5B5B5B5BAD5BADAC0000AD5BAD27
:1044B000AC0000AD5BADAC0000AD5BADAC00005B33
:1044C0005BADAC00005BADADAC0000ADADADAC0024
:1044D000005BADADAC00000000000000000000007B
:1044E00000000000000000000000000000000000CC
:1044F00000000000000000000000000000000000BC
:1045000000000000000009000000000000000000A2
:10451000000000000000000000000000000000009B
:104520000000000000000000000000000000090979
:104530000909090900000000000000000000000057
:10454000000000000000000000000000000000006B
:10455000000000090900090909090009000000001C
:10456000000000000000000000000000000000004B
:1045700000000000000000090909090909090909EA
:104580000900000000000000000000000000000022
:1045900000000000000000000000090909000909EE
:1045A00009090909090000000000000000000000DE
:1045B00000000000000000000000000000000000FB
:1045C00000000000000000090900000000000000D9
:1045D00000000000000000000000000000000000DB
:1045E00000000000000000000000000000000000CB
:1045F00000000000000000000000000000000000BB
:1046000000000000000000000000000000000000AA
:1046100000000000AD00000000AD5B00000000AD38
:104620005B00000000AD5B00000000000000000027
:10463000000000000000000000000000000000ADCD
:10464000ADADADADAD5B5B5B5B5B5B0000000000E7
:104650000000000000000000090909090000000036
:10466000000909000000000000000000000000AD8B
:10467000ADADADADAD5B5B5B5B5B5B0000000000B7
:10468000000000000000000000000000000909090F
:10469000090909000000000000000000000000AD52
:1046A000ADADADADAD5B5B5B5B5B5B000000000087
:1046B00000000000000000000000000000090909DF
:1046C000090909000000000000000000000000AD22
:1046D000ADADAD00005B5B5B5BAD000000005BADB2
:1046E000000000005BAD00005BAD5B5BAD095BAD46
:1046F0005BADAD005BAD5BAD09005BAD5BADAD002F
:104700005BAD5BADAD005BAD5BADAD005BAD5BAD1F
:10471000AD005BAD5BADADADADADADADAD09ADADBE
:10472000ADADAD0909ADADADAD09ADADADADADADA5
:10473000ADADADADADADADADADADADADADADADADA9
:10474000ADADADADADADADADADADADADADADADAD99
:10475000AD09ADADADAD090909ADADADAD09ADADBD
:10476000ADADADADADADADADADADADADADADADAD79
:10477000ADADADADADADAD5B5BADAC0909AD5BADA8
:10478000AC0000AD5BADAC0000AD5BADAC0000AD0E
:104790005BADAC0000AD5BADAC0000AD5BADAC00A3
:1047A00000AD5BADAC000009090909090900000072
:1047B00000000000000000000000ADADADADADADEB
:1047C0005B5B5B5B5BAD5B00000000AD5B00000012
:1047D00000AD5B000000000909090909090000009B
:1047E000000000000000000000ADADADADADAD5B60
:1047F0005B5B5B5B5B0000000000000000000000F2
:1048000000000000000000000000000000000000A8
:10481000000000000000000000ADADADADADAD5B2F
:104820005B5B5B5B5B0000000000000000000000C1
:104830000000000000000000000000000000000078
:10484000000000000000000000ADADADADADAD5BFF
:104850005B5B5B5B5B00000000005B000000000036
:104860005B00000000005B00000000000000000092
:10487000000000000000000000000000000000AD8B
:104880000000000000AD0000000000AD00000000CE
:1048900000AD00000000000000005BAD0000000063
:1048A0005BAD000000005BAD000000005BAD0000F0
:1048B00000005BAD000000005BAD000000005BADE0
:1048C000000000005BAD00005BAD5BADAD005BAD1B
:1048D0005BADAD005BAD5BADAD005BAD5BADAD00A9
:1048E0005BAD5BADAD005BAD5BADAD005BAD5BAD3E
:1048F00009005BAD5BADADADADADADADADADADADDD
:10490000ADADADADADADADADADADADADADADADADD7
:10491000ADADADADAD09ADADADADAD0909ADADADB3
:10492000AD09ADADADADADADADADADADADADADAD5B
:10493000AD0101ADADADAD01ADADADADAD01ADAD57
:10494000ADADAD01ADADADADAD01ADADADADAD019B
:1049500001ADADADADADADADADADADADAD01ADADDF
:10496000ADAD01AD01ADAD01ADAD01AD01ADADADD3
:1049700001AD010101AD01AD01ADAD01ADAD01ADC7
:10498000ADADADADADADADADADADADADADADAD0103
:10499000ADAD0101AD01ADAD0101AD0101AD010153
:1049A000AD01AD010101AD01ADAD0101AD01ADAD97
:1049B00001ADADADADADADADADADADADADAD01012B
:1049C0000101ADAD01ADAD01ADAD01ADADADADAD73
:1049D00001AD0101ADAD01ADAD01ADAD0101010113
:1049E000ADADADADADADADADADADADADAD010101FB
:1049F000AD010101ADADAD01AD01ADADAD01AD019B
:104A000001ADAD010101ADADAD01AD010101AD01E2
:104A1000ADADADADADADADADADADADADAD01ADAD72
:104A2000ADADADAD01ADADADADAD01ADADADAD01BA
:104A3000ADADADADADAD01ADADADADAD01ADADADFE
:104A4000ADADADADADADADADADADADADADADADAD96
:104A5000ADADADADADADADADADADADADADADADAD86
:104A6000ADADADADADADADADAD09ADADADAD090962
:104A700009ADADADAD09ADAD5BADAC0000AD5BADAD
:104A8000AC0000AD5BADAC0000AD5BADAC0000AD0B
:104A90005BADAC0000AD5BADAC0000AD5BADAC00A0
:104AA00000AD5BADAC0000AD5B00000000AD5B0095
:104AB000000000AD5B00000000AD5B00000000AD39
:104AC0005B00000000AD5B00000000AD5B0000007B
:104AD00000AD5B0000000000000000005B00000073
:104AE00000005B00000000005B00000000005B00B5
:104AF000000000005B00000000005B000000000000
:104B00005B00000000005BAD0000000000AD000095
:104B1000000000AD0000000000AD0000000000AD8E
:104B20000000000000AD0000000000AD000000002B
:104B300000AD0000000000005BAD5B5BAD005BAD55
:104B4000AD5B5B005BADADADAD005BADADADAD00E4
:104B50005BADADADAD005BADADADAD005BADADADD5
:104B6000A4005BADADADA4ADADADADADAD5B5B5B7C
:104B70005B5B5BADADADADADADADADACACACACAD5F
:104B80005B5B5B5B5B5BADADADADAD5BADADADAD93
:104B9000AD5BADADADADADADADADADADAD5B5B5B8D
:104BA0005B5B5BADADADADADADACACACACACAC5B83
:104BB0005B5B5B5B5BADADADADADADADADADADADBF
:104BC000ADADADADADADADADADADADADAD5B5B5B0B
:104BD0005B5B5BADADADADADADACACACADADAD5B50
:104BE0005B5B5B5BADADADADADAD5BADADADADAD8F
:104BF0005BADADADADAD5B5B5BADAC00005BADADDA
:104C0000AC0000ADADADAC0000ADADADAC0000ADE5
:104C1000ADADAC0000ACADADAC0000ACADADAC002A
:104C200000ACADADAC0000005BADADADA4005BADC4
:104C3000ADADA4005BADADADA4005BADADADA4006A
:104C40005BADADADA4005BADADADA4005BADADADF6
:104C5000A4005BADADADA45BADADADADAD5BADAD39
:104C6000AD07075BADADADADAD5BADADAD07075B02
:104C7000ADADAD07075BADADADADAD5BADADADAD54
:104C8000AD5BADADADAD5BADADADADADAD0707AD44
:104C9000070707AD07AD07ADAD07ADAD07ADAD0774
:104CA00007AD070707ADADADADADAD646464646439
:104CB000645B5B5B5B5B5BADADADADADAD0707ADA5
:104CC000ADADADAD07ADADADADAD07ADADADAD0706
:104CD00007ADADADADADADADADADAD646464646417
:104CE000645B5B5B5B5B5BADADADADADADADADAD29
:104CF000ADADAD0707AD07ADADAD0707ADADAD07C8
:104D000007AD07ADADADADADADADAD64646464648C
:104D1000645B5B5B5B5B5BADADADADADADADADADF8
:104D2000ADAD00ADADADADAD00ADADADADAD00ADBA
:104D3000ADADADAD00ADADADADADAD6464646464BD
:104D4000645B5B5B5B5B5BADADADADADAD000000CF
:104D5000000000AD00AD00AD00ADADADADADADAD91
:104D6000ADADADADADADADADADADAD6464646464E0
:104D7000645B5B5B5B5B5BADADADADADAD0000009F
:104D8000000000AD00AD00AD00AD00ADADADADAD0E
:104D900000ADADADADADADADADADAD64646464645D
:104DA000645B5B5B5B5B5BADADADADADAD0000006F
:104DB000000000AD00AD00AD00ADADAD00ADADADDE
:104DC000ADAD00ADADADADADADADAD64646464642D
:104DD000645B5B5B5B5B5BADADADADADAD0000003F
:104DE000000000AD07AD00AD00AD07ADADAD00AD4D
:104DF00007ADADAD00AD07ADADADAD646464646449
:104E0000645B5B5B5B5B5BADADADADADAD0000000E
:104E100000ADADAD00AD00ADADADADAD00ADADAD76
:104E2000ADAD00ADADADADADADADAD6464646464CC
:104E3000645B5B5B5B5B5BADADADADADADADADADD7
:104E4000ADADADADADADADADADADADADADADADAD92
:104E5000ADADADADADADADADADADAD6464646464EF
:104E6000645B5B5B5B5B5BADADADADAD5BADADADF9
:104E7000ADAD5BADADADADAD5BADADADADAD5BAD58
:104E8000ADADADAD5BADADADADAD5BADADADADADF6
:104E90005B5BADADADAD5BACADADAC0000ACADAD95
:104EA000AC0000ACADADAC0000ACADADAC0000AC46
:104EB000ADADAC0000ACADADAC0000ACADADAC0088
:104EC00000ACADADAC00005BADADADA4A35BADADD2
:104ED000ADA4A35BADADADA4A35BADADADA4A35B31
:104EE000ADADADA4A35BADADADA4A35BADADADA4C5
:104EF000A35BADADADA4A35B64ADADAD5B5B64ADD9
:104F0000ADAD5B5B64ADADAD5B5B64ADADAD5B5B4F
:104F100064ADADAD5B5B64ADADAD5B5B64ADADADE4
:104F20005B5B64ADADAD5B5BADADADA4A35BADADA7
:104F3000ADA4A35BADADADA4A35BADADADA4A35BD0
:104F4000ADADADA4A35BADADADA4A35BADADADA464
:104F5000A35B000000A4A300000000AD5B00000004
:104F600000AD5B00000000AD5B00000000AD5B0029
:104F7000000000AD5B00000000AD5B00000000AD74
:104F80005B0000000000AD00000000000000000019
:104F90000000000000000000000000000000000011
:104FA00000000000000000000000005B5B5B5B5B3A
:104FB0005BADADADADADAD0000005BAD0000000080
:104FC0005BAD000000005BAD000000005BAD0000C9
:104FD00000005BAD000000005BAD005B5B5B5BADA8
:104FE00000ADADADAD00005B00ADADA4A35B0000B6
:104FF000ADA4A35B00ADADA4A35B0000ADA4A35B17
:1050000000ADADA4A35B0000ADA4A35B00ADADA457
:10501000A35B000000A4A3AD5B00000000AD5B003B
:10502000000000AD5B00000000AD5B00000000ADC3
:105030005B00000000AD5B00000000AD5B5B5B5BF4
:105040005B00ADADADADAD00000000005B00000049
:1050500000005B00000000005B00000000005B003F
:10506000000000005B00000000005B5B5B5B5B5BC3
:105070005BADADADADADADAD0000000000AD00006D
:10508000000000AD0000000000AD0000000000AD19
:105090000000000000AD0000000000AD00000000B6
:1050A0000000000000000000000000000000000000
:1050B00000000000000000000000000000000000F0
:1050C00000000000000000000000000000000000E0
:1050D000005B5B5B5B5B5B005BADADADA4005BADA0
:1050E000ADADA4005BADADADA4005BADADADA400B6
:1050F0005BADADADA4005B5B5B5B5B005BADADAD81
:10510000A45BADADADADA45B00ADADA4A35B0000F1
:10511000ADA4A35B00ADADA4A35B0000ADA4A35BF5
:1051200000ADADA4A35B0000ADA4A35B00ADADA436
:10513000A35B000707A4A3ACADADAC0000ACADAD64
:10514000AC0000ACADADAC0000ACADADAC00005BF4
:105150005B5BAC0000ACADADAC0000ACADADACACDD
:10516000ACACADADADADAD00000000000000000086
:10517000000000000000000000000000000000002F
:105180000000000000000000000000ACACACACACC3
:10519000ACADADADADADAD00000000000000000055
:1051A00000000000000000000000000000000000FF
:1051B00000000000000000000000000000000000EF
:1051C00000ACACACACACAC000000000000000000D7
:1051D00000000000000000000000000000000000CF
:1051E000000000005B00000000005B000000000009
:1051F0005B00000000005B000000000000000000F9
:105200005B5BAD005B5BADADAD5B5BADADADADAD67
:10521000ADADADADADADADAD09ADADADAD0909094E
:10522000ADADADAD09ADAD5B5B5B5B5B5BADADAD3E
:10523000ADADADADADADADADADADADADADADADAD9E
:10524000ADADADADADADADADADADADADADADADAD8E
:10525000ADADADADADADADADADADADADA4ADADAD87
:10526000ADADA4ADADADADADA4ADADADADADA4AD89
:10527000ADADADADA4ADADADADADA4ADADADADAD70
:10528000A4ADADADADADA4ACADADADADADACADAD62
:10529000ADADADACADADADADADACADADADADADAC41
:1052A000ADADADADADACADADADADADACADADADAD30
:1052B000ADACADADADADADACACAC000000ADADAD29
:1052C000ACAC00ADADADADADACADADAD09ADADAD62
:1052D000AD090909ADADADAD09ADADADADADADAD8E
:1052E000ADADADADADADAD00000000000000000003
:1052F000000000000000000000AC00000000005BA7
:1053000000000000005B00000000005B00000000E7
:10531000005B00000000005B00000000005B00007C
:105320000000005B00000000005B00000000005B6C
:1053300000000000005B00000000005B00000000B7
:10534000005B000000000000000000000000000002
:10535000000000000000000000005B5B5B5B5B0185
:1053600001010101015B5B5B5B5B5B0909090909E9
:10537000095B5B5B5B5B5B00000000000000000002
:105380000000000000000000005B5B5B5B5B5B01FA
:1053900001010101015B5B5B5B5B5B0909090909B9
:1053A000095B5B5B5B5B5B00000000005B00000077
:1053B00000005B00000000005B5B5B5B5B5B5B0114
:1053C000010101015B5B5B5B5B5B5B09090909092F
:1053D0005B5B5B5B5B5B5B5B00000000005B00009A
:1053E0000000005B00000000005B5B5B5B5B5B5BE5
:1053F00001010101015B5B5B5B5B5B5B0909090907
:10540000095B5B5B5B5B5B00000000000000000071
:105410000000000000000000005B5B5B5B5B0001C4
:1054200001010101015B5B5B5B5B5B090909090928
:10543000095B5B5B5B5B5B0808080808085B5B5B00
:105440005B5B5B5B5B5B5B5B5B5B5B5B5B5B5B08FF
:1054500008080808085B5B5B5B5B5B0909090909D5
:10546000095B5B5B5B5B5B08080808085B5B5B5B7D
:105470005B5B5B5B5B5B5B5B5B5B5B5B5B5B5B08CF
:10548000080808085B5B5B5B5B5B5B090909090952
:105490005B5B5B5B5B5B5B5B08080808085B5B5BFB
:1054A0005B5B5B5B5B5B5B5B5B5B5B5B5B5B5B5B4C
:1054B00008080808085B5B5B5B5B5B5B0909090923
:1054C000095B5B5B5B5B5B010101010101005B5BF5
:1054D0005B5B5B00000000000000000000000000BB
:1054E00000000000000000000000000000000000BC
:1054F000000000000000000101010101015B5B5B95
:105500005B5B5B000000000000000000000000008A
:10551000000000000000000000000000000000008B
:105520000000000000000001010101015B5B5B5B0A
:105530005B5B5B00000000005B00000000005B00A4
:10554000000000005B00000000005B0000000000A5
:105550005B000000000000ADADADADADADADADADDB
:10556000ADADADADADADADADADADADADADADADAD6B
:10557000ADADADADADADADAD09ADADADAD090909EB
:10558000ADADADAD09ADADADAD000000ADAD000050
:10559000A400000000A4A4A40000A4A4A4A4A40047
:1055A00000A4A4A400AD0000A40000ADAD00000064
:1055B000ADADADADADADADADADADADADA4ADADAD24
:1055C000ADADA400ADADADADA400ADADADADA4002D
:1055D000ADADADADA4ADADADADADA4ADADADADAD0D
:1055E000A4ADADADADADAD5BADADADADA35BADADA2
:1055F000ADADAD5BADADADADAD5BADADADADAD5BD1
:10560000ADADADADAD5BADADADADAD5BADADADAD6E
:10561000AD5BADADADADADA3A3A3A3A3A3A4A4A463
:10562000A4A4A4ADADADADADADADADADADADADADC5
:10563000ADADADADADADADADADADADADADADADAD9A
:10564000ADADADADADADADA3ADADADAD5BADADADE6
:10565000ADAD5BADADADADAD5BADADADADAD5BAD70
:10566000ADADADAD5BADADADADAD5BADADADADAD0E
:105670005BADADADADAD5BACADADADAD00ACADADAD
:10568000AD0000ACADAD0000A4ACADAD00A4A4ACC9
:10569000ADAD0000A4ACADADAD0000ACADADADADF9
:1056A00000ACADADADADAD0000ADADADADA4000095
:1056B000ADADADA4A40000ADADA4A4A400ADADA457
:1056C000A40000ADADA40000ADADAD0000ADADAD2A
:1056D000ADADADADADADADADADADADADADADADADFA
:1056E000ADADADADADADADADADADADADADADADADEA
:1056F000ADADADADADADAD09ADADADAD090909AD6A
:10570000ADADAD09ADADAD5B01010101015B5B5B11
:105710005B5B5B5B00000000005B00000000005B67
:1057200000000000005B00000000005B00000000C3
:10573000000000000000000101010101015B5B5B52
:105740005B5B0000000000000000000000000000A3
:105750000000000000000000000000000000000049
:105760000000000000000000ADADADADAD0000AD2B
:10577000ADADAD0000000000000000000000000022
:105780000000000000000000000000000000000019
:1057900000000000000000ADADADADADADADADADF4
:1057A000ADADAD00000000000000000000000000F2
:1057B00000000000000000000000000000000000E9
:1057C00000000000000000AD5B5B5B5B5BADADAD5E
:1057D000ADADAD00000000000000000000000000C2
:1057E00000000000000000000000000000000000B9
:1057F000000000000000005B5B5B5B5BADADADAD2E
:10580000ADADAD0000000000000000000000000091
:105810000000000000000000000000000000000088
:1058200000000000000000ADADADADAD00ADADAD10
:10583000AD000000000000000000000000000000BB
:105840000000000000000000000000000000000058
:105850000000000000000000000000000000000048
:10586000000000000000000000000000000000AD8B
:10587000AD000000005B5BAD000000005BAD000010
:1058800000005BAD000000005BAD000000005BAD00
:10589000000000005BAD000000005BAD00000000F8
:1058A0005BAD000000005BAD000000005BAD0000E0
:1058B00000005BAD00000000000000AD5B000000D8
:1058C00000AD5B00000000AD5B0000000000AD001B
:1058D00000000000000000000000000000000000C8
:1058E00000000000000000000000000000000000B8
:1058F0000000005B5B5B5B5B5BADADADADADAD0078
:105900000000000000000000000000000000000097
:1059100000000000000000005BAD000000005BAD77
:105920000000005B5BAD000000ADAD0000000000BA
:105930000000000000000000000000000000000067
:105940000000000000000000000000000000000057
:105950000000000000000000000000000000000047
:1059600000000000000000000048480000000000A7
:105970000000000000000000000000000000000027
:105980000000000000000000000000000000000017
:105990000000000000484848484848000000000057
:1059A0000048484848484800000000000000000047
:1059B00000000000000000000000000000000000E7
:1059C0000000484848484848000000004848484807
:1059D0004848000000000000000000000000000037
:1059E0000000000000000000000000000000484827
:1059F00048484848480000000000004848484848D7
:105A0000480000000000000000000000000000004E
:105A1000000000000000000000484848484848488E
:105A200048484848480000000000004848484848A6
:105A300048004848484848000000000000000000B6
:105A4000000000000000000000480000000048487E
:105A50004848484848000048484848484848484856
:105A6000484848484848480000000000000000003E
:105A7000000000000000000000484848484848482E
:105A80004848484848484848484848484848484896
:105A9000484848484848480000000000000000000E
:105AA00000000000000000000048484848484848FE
:105AB00048484848484848484848480000585858C6
:105AC000584848585848580000000000000000009E
:105AD00000000000000000000000000048484848A6
