:100000000C94F2310C945E320C945E320C945E329D
:100010000C945E320C945E320C945E320C945E3220
:100020000C945E320C945E320C945E320C945E3210
:100030000C945E320C9434340C9474340C945E3210
:100040000C945E320C945E320C945E320C945E32F0
:100050000C945E320C945E320C945E320C945E32E0
:100060000C945E320C945E320C945E320C945E32D0
:100070005A5501200101003808000000000000006E
:100080000000000000000000000000000000000070
:100090008100450027FF24FF2A902B1C210C22FB06
:1000A000850084008903888D81096F0244424700DE
:1000B0004501B083B300B10125118A4F8B03D836B7
:1000C000DB36E436E936F236FA36FF3604370737E0
:1000D00019371C371F37633700408891D2E4ADB51C
:1000E000B6BEBFFFA65B5B5B5B5B5B045B5B00005C
:1000F00000005B5B5B00FE0000E9005B5B0000074B
:100100001F00005B5B00003F6800005B5B00950028
:100110000091005B5B5B000000005B5BD95B5B5B9D
:100120005B5B5B35FFFFFFFFFFFFFFFFFFFFFFFF95
:10013000FFFFFFFFFFFFFFFFFFFFFFFFFFFFFFFFCF
:10014000FFFFFFFFFFFFFFFFFFFFFFFFFFFFFFFFBF
:10015000FFFFFFFFFFFFFFFFFFFFFFFFFFFFFFFFAF
:10016000FFFFFFFF19191900B70000B71919191976
:100170000000B719191919190000B719B719191979
:100180000000B719B719191900B719191919191950
:1001900000B719191919191900B7191919191919C5
:1001A00000B7191919190000B700191919191919E7
:1001B000000000B7191919190000190019191919A7
:1001C0001900190019191919190019001919191903
:1001D00019191900191919B7B70000B71919B71962
:1001E000191900B7D9D9D9D9D9D9D9D9D9D9D9D9FA
:1001F000D9D9D9D9D9D919D9D9D9D9D9D9D9D9D92F
:10020000D9D9D9D9D9D9D9D9D9D9D9D9D9D9D9D95E
:10021000D9D9D9D919D9D9D9D9D9D9D9D9D9D9D90E
:10022000D9D9D9D91919190000B7191919191900EB
:1002300000B71919B719000000B70019B71900B7AE
:10024000B7B700001900B719191919191900B7190A
:100250001919190019B719191919191900B719B766
:100260001919B7001919B719191919001919B71956
:10027000191919001900B719191900001900B7192F
:10028000191900B70000B719191900B70000B719FC
:10029000191900B70000001919000000B70000B7D5
:1002A000B70000B7D9D9D9D9D9D9D9D9D9D9D9D9B4
:1002B00019D9D9D9D9D9D9D9D9D9D9D9D9D9D9D96E
:1002C000D9D9D9D9D9D9D9D9D9D9D9D9D9D9D9195E
:1002D000D9D9D9D9D9D9D9D9D9D9D9D9D9D9D9D98E
:1002E000D9D9D9D9B719191919191900B71919195B
:1002F00019191919B719000019191919B7B71919C6
:1003000000191919B719191900191919B719191953
:1003100000191919B719191900191919B719191943
:10032000001919190000B719190000000000B719C9
:10033000191900000000B719191900000000B719B9
:10034000191900B70000B719191900B70000B7193B
:100350000000B7B700000000B7B7B7B70000B7B7E5
:10036000B7B7B7B719191919B719191919191919E7
:10037000B719191919191900B719191919191900E3
:10038000B719191919191900B719191919191900D3
:10039000B719191900190000B7191919B700000089
:1003A000B7191919000000B719190000191900B779
:1003B00019191900191900B719191900191900B7D5
:1003C00019191919191900B719191919191900B793
:1003D0001919191919190000B71919191919000053
:1003E00000B7191900000000000000000000000024
:1003F00000000000000000000000000000000000FD
:1004000000000000000000000000000000000000EC
:1004100000000000000000000000000000000000DC
:1004200000000000B719191900191900B719191996
:100430000019190000B719190019190000B7191986
:100440000019190000B719190019000000B71900A8
:10045000000000B70000B7B7B7B7B7B7B7B7B7B7BF
:10046000B7B7B7B700B7B7B7B7B7B7B700B7B7B78A
:10047000B7B7B7B700B7B7B7B7B7B7B700B7B7B77A
:10048000B7B7B7B7B7B7B7B7B7B7B7B7B7B7B7B7FC
:10049000B7B7B7B7B7B7B7B7B7B7B7B7B7B7B7B7EC
:1004A000B7B7B7B7B7B7B70000191919B7B7B7B724
:1004B00000190019B7B7B7B7B7000000B7B7B7B79B
:1004C000B7B7B7B7B7B7B7B7B7B7B7B7B7B7B7B7BC
:1004D000B7B7B7B7B7B7B7B7B7B7B7B7B7B7B7B7AC
:1004E000B7B7B7B71919000000B7191919000000FC
:1004F00000B719190000000000B71919000000002A
:1005000000B71919B7B7B7B700B71919B7B7B7B761
:10051000B7001919B7B7B7B7B7001919B7B7B7B751
:10052000B7B70000B7B7B7B7B7B7B7B7B7B7B7B7C9
:10053000B7B7B7B7B7B7B7B7B7B7B7B7B7B7B7B74B
:10054000B7B7B7B7B7B7B7B7B7B7B7B7B7B7B7B73B
:10055000B7B7B7B7B7B7B7B7B7B7B7B7B7B7B7B72B
:10056000B7B7B7B7B7B7B7B7B7B7B7B7B7B7B7B71B
:10057000B7B7B7B7B7B7B7B7B7B7B7B7B7B7B7B70B
:10058000B7B7B7B7B7B7B7B7B7B70000B7B7B7B769
:10059000B7B71900B7B7B7B7B7191900B7B7B7B733
:1005A000B7191900B7B719190000B7B7B719191952
:1005B000190000B719191919191900B7B71919191C
:1005C00019190000B719191919190000B7191919C3
:1005D00019000000B7191919191900000019191983
:1005E000191900B7B7B7B7B7B7B7B7B7B7B7B7192C
:1005F00000B7B7B7B7B719191900B7B7B7191919AD
:10060000191900B700191919191900B7B7191919CB
:1006100019191900B719191919191900B719191940
:1006200019190000B7B7B7B7B7B7B7B7B7B7B7B704
:10063000B7B7B7B7B7B7B7B7B7B7B7B7B7B7B7B74A
:10064000B7B7B7B7B7B7B7B7B7B7B7B7B7B7B7B73A
:10065000B7B7B7B719B7B7B7B7B7B7B71919000072
:1006600000B7B7B7B7B7191900B7B7B7B71919199E
:100670001900B7B7B719B7191900001919B719191F
:100680001900B71919B719191900B71919B7191994
:1006900000B719191919191900B7191919191919C0
:1006A00000B71919B7B7B7B7B7B7B7B7B7B7B7B7CD
:1006B000B7B7B7B719190000B7B7B7B719191919EC
:1006C00000B7B7B7191919190000B7B719191919CF
:1006D0001900B7B700191919190000B70019190046
:1006E000000000B7B7B7B7B7B7B7B7B7B7B7B7B7BF
:1006F000B7B7B700B7B7B7B7B7000000B7B7B7001D
:10070000000000D9B7B7B7B700D9D919B7B7B70044
:1007100000D9D9D9B7B70000D9D9D9D9B7B700D935
:10072000D9D9D9D9B70000B7B70000000000000040
:100730000000000000D9D9000000D9D9D9D9D9D9F1
:10074000D9D9D919D9D9D9D9D9D9D9D9D9D9D9D9D9
:1007500019D9D9D9D9D9D9D9D9D9D9D9D9D9D9D9C9
:10076000D9D9D9D900B7B7B7B7B7B7B7000000B76D
:10077000B7B7B7B7D90000000000B7B7D9D9D9D9F2
:1007800000B7B7B7D9D9D9D9B7B7B7B7D9D919D960
:10079000B7B7B7B7D9D9D9D90000B7B7D9D9D9D947
:1007A000D9D900B7B7B7B7B7B7B7B7B7B7B7B7B74C
:1007B000B7B7D9D9B7B7B7B7B7D91919B7B7B7B79F
:1007C000B7D91919B7B7B7D9D9191919B7B7D919E5
:1007D00019191919B7B7D900D91919D9B7B7D90043
:1007E000D91919D9B7B7B7B7B7D9D9D9D9D9D9D9A3
:1007F000D9D9191919191919190019191919191902
:100800001919000019D9D9D9D9D91919D91919190A
:1008100019190019191919191919001900000000DE
:1008200000000019D9D9D9B7B7B7B7B7191919D96D
:10083000D9D9D9D9191919001919191900000000A5
:10084000191919191919D9D9D9D9D91919D9191998
:100850001919190019D919191919191919D90000D3
:1008600000000000B7B7B7B7B7B7B7B7D9D9B7B7B0
:10087000B7B7B7B7190000B7B7B7B7B7191900B707
:10088000B7B7B7B71919000000B7B7B719191919D1
:100890000000B7B700191900D900B7B7001919003F
:1008A000D900B7B7B7B7B7B7B7B7B7B7B7B7B7B76D
:1008B000B7D9D9D900B7B7D9D919191900B7D919E2
:1008C0001919191900B7D91919D9D9D919D9191953
:1008D000D9190000191919D919190000191919D9AC
:1008E00019191919B7B7B7B7B7B7B7B7D9D9D9B7AA
:1008F000B7B7B7D91919190000B7B7D91919191904
:100900001900B7D9D9D9D9191900B7D900001900D8
:1009100019190019000019190019191919191919AB
:1009200000191919B7B7B70000191900B7B7191985
:1009300000191900B719191919191900B719191936
:1009400000191900B719191900190000B719191958
:100950000019000019191919191900001919191984
:100960001919000019191919191919B7191919198B
:10097000191919B719191919191900B7B719191926
:100980001919000000191919191900001919191954
:100990001919000000191919190000B700190000F1
:1009A000191900B719191919191900B719191919AD
:1009B000190000B719191919190000B7B719191931
:1009C000191900000019191919191900B7B70000F1
:1009D0001919190019191919001900001919190004
:1009E00000191900190019191900B7B7191919199F
:1009F0001900B7B719191919191900B7B719191921
:100A0000191900B7B7191919191900B7B719191910
:100A1000190000B7B7000019190000B7B7000000AF
:100A20001900B7B7B719191900B71919B719191952
:100A300000B71919B719191900B71919191919197E
:100A40000019191919191919001919191919191948
:100A500019191919B71919191919001900000000E5
:100A60000000000000191900190000B7000019006B
:100A7000190000B700001900190000B7190019008B
:100A8000000000B719191900001900B7190000007B
:100A90001919B7B719190000000000000000000084
:100AA0000000B7B7B7B700D9D919D9D9B70000D95D
:100AB000D9D9D9D9B700D9D9D9D9D9D9B7D9D91983
:100AC000D9D9D9D9B7D9D9D9D9D9D9D9B7D9D9D9DA
:100AD000D9D919D9B7D919D9D9D9D9D9B7D9D9D94A
:100AE000D9D9D9D919D9D9D9D9D9D900D9D9D9D90F
:100AF00019D9D900D9D9D9D9D9D9D900D9D9D9D9D8
:100B0000D9D9D9B7D9D9D919D9D9D9B7D9D9D9D959
:100B1000D9D9B7B7D9D9D9D9D9D9B7B7D9D9D9D9CD
:100B2000D9D9B7B7B7B719191919B7B7B719191963
:100B3000191919B7191919191919B7001919191902
:100B40001919B700191919191919B700191919190B
:100B500019B70000B719B7B7B70000B7B7B70000AB
:100B60000000B7B7B7B7D900D91919D9B7B7D900A5
:100B7000D91919D9B7B7D900D9191919B7B7D900DF
:100B8000D9191919B7B7D91919191919B7B7D9191D
:100B900019191919B7D9191919191919D9191919A7
:100BA000191919B71919000000191900191919197B
:100BB0001919190000000000000000191919B7B731
:100BC000B7B7B7B719B7191900000000B70019195E
:100BD00000000000B700001900000000000000192C
:100BE0000000000019D919000000191919D91919A4
:100BF000191919191919000000000000B7B7B7B783
:100C0000B7B71919000000001919B7190000000042
:100C1000191900B700000000190000B7000000001B
:100C20001900000000191900D900B7B70019190000
:100C3000D900B7B719191900D900B7B71919190090
:100C4000D900B7B7191919191900B7B71919D9D98E
:100C50000000B7B719D91919190000B7B7D9191970
:100C600019000000191919D91919D9D919191919FF
:100C700000D9001919191919D91900191919B7B773
:100C8000B7B7B71919B71919001919B7B700191952
:100C900000001900B7000019000000000000001952
:100CA00000000000D9D91919001919191900D90023
:100CB00019191919190019D91919191919B7B7B723
:100CC000B7B71919B71919001919B7190019000080
:100CD000191900B700000000190000B7000000005B
:100CE00019000000B7B71900B7191919B7B70000F4
:100CF00019190000B7B7B71919D90000B7B7B71954
:100D000019D9D9D919191919191900191900191945
:100D100000190000191919191919001919191919A7
:100D20001919001919B71900B7D9B7B7191900005F
:100D3000B7D9B7B7D91919B7B7D9B7B7D91919B733
:100D4000B7D9B7B719191900B7D9B7B70000001943
:100D500000D9B7B71919191919D900B719191900F4
:100D6000191900B7191919191919191900000000D2
:100D700000000000B7191919191900B7B719191986
:100D8000191900B7B7B719191900B7B7B7B7B71915
:100D900000B7B7B7B7B7B71900B7B7B7B7191919C9
:100DA000190000B7D9191919191919B7D919191929
:100DB000191919B7D9001919191919B7D9D9000072
:100DC000000000B7D919D9D9D9D9D9B7D90019197B
:100DD000191919B7D9001919191919B7D9D9000052
:100DE000000000B7D919D91900191900D919D91952
:100DF00000191900D919D9190000190000000000C4
:100E000000D91900D9D9D9D9D9191900D91919195D
:100E100019001900D919191919001900000000004A
:100E200000D91900D9D9D9D9D9D9D919D919D9D924
:100E3000D9D9D9D9D9D9D9D9D9D9D9D9D9D9D9D922
:100E4000D9D9D9D9B7D9D919D9D9D9D9B7D9D9D916
:100E5000D9D9D9D9B7D9D9D9D9D9D9D9B7D9D9D946
:100E6000D9D9D9D9D9D9D9D919D900B7D9D9D9D9AD
:100E7000D9D900B7D9D9D9D9D9D900B7D9D9D9D9D8
:100E8000D9D900B7D9D9D9D9D9D900B7D9D9D91988
:100E9000D9D900B7D9D9D9D9D9D90000D9D9D9D96F
:100EA000D9D9D900191919191919001919191919A4
:100EB000191900D919191919191900191919191914
:100EC000191900D919001919001900191919191936
:100ED000191900B7B7000000000000000000000072
:100EE0000000000019191900191900B7D9191900C3
:100EF000191900B7D9D9D9D900D900B7D9191919F1
:100F000000D900B71919000000D900B7B7001919A6
:100F100019D9B7B70019191919D900B7000000007D
:100F200000000000B7D9D9D9D9D9D9B7D919191919
:100F300019191900D919191919191900D9191919D3
:100F400019191900D919191919191900D9191919C3
:100F500019191900D91919191919190000000000D7
:100F600000000000D900D9D9D9D9D9B7D9001919A9
:100F7000191919B7D9001919191919B7D9D90000B0
:100F8000000000B7D919D9D9D9D9D9B7D9191919A0
:100F9000191919B700191919191919B70000000002
:100FA00000000000D9D9D9D9D9191900D9191919AE
:100FB00019001900D91919191900190000000000A9
:100FC00000D91900D9D9D9D9D9191900D91919199C
:100FD00019191900D9191919191919000000000057
:100FE00000000000B700001919191919B700D9D964
:100FF000D9D9D9D9B700D9D9D9D9D9D9B700D9D957
:10100000D9D9D9D9B700001919191919B700D9D9DF
:10101000D9D9D9D9B700D9D9D9D9D9D9B700D9D936
:10102000D9D9D9D9191919191919B700D9D9D9D9AB
:10103000D9D9B700D9D9D9D9D9D9B700D9D9D9D916
:10104000D9D9B700191919191919B700D9D9D9D986
:10105000D9D9B700D9D9D9D9D9D9B700D9D9D9D9F6
:10106000D9D9B700B7D9D919D9D9D9D9B7B7D9D911
:10107000D9D9D9D9B7B7B7B7D9D9D9D9B7B7B7B7F0
:10108000B7D9D9D9B7B7B7B700D9D9D9B7B7B70092
:1010900000D9D9D9B7B7B7B7B7B7D9D9B7B7B7B7ED
:1010A000B7B7B7B7D9D9D9D9D9D9D919D9D9D9D9F8
:1010B000D9D9D9D919D9D9D9D9D9D9D9D9D9D9D960
:1010C000D9D9D9D9D9D9D9D9D9D9D9D9D9D9D9D990
:1010D000D9D9D9D919D9D919D9B7D9D9D9D9B7D944
:1010E000B7B7B7B7D9D9D9D9D9D9D9B7D919D9D9DA
:1010F000D919D9B7D9D9D9D9D9D9B7B7D9D9D9D986
:10110000B7B7B7B7D9D9D9D900B7B7B719D9D9D9D6
:101110000000B7B7D9D9D9B7B7B7B7B7B7B7B7B767
:10112000B7B7B7B7D9D9D9D9D919D9D9B7D9B7B7DD
:10113000D9D9D9D9B7B7B7B7D9D9D9D9B7B7B7B72F
:10114000B7B7D9D9B7B7B7B7B7B7D919B7B7B7B767
:10115000B7B7D9D9B7B7B7B7B7B7D9D9B7B7B7B797
:10116000B7B7B7D9D9D9D919D9D9D9D9D9D9D9D915
:10117000D9D9B7B7D9D9D9D9D9B7B7B7D919D9B76B
:10118000B7B7B7B7D9D9D900B7B7B7B7D9D9D90091
:1011900000B7B7B7D9D9D900B7B7B7B719D9D9B741
:1011A000B7B7B7B7B7B7B7B7B7B700D9B7B7B7B764
:1011B000B70000D9B7B7B7B7B7B7B7B7B7B7B7B70B
:1011C000B7B7B7B7B7B7B7B7B7B7B7B7B7B7B7B7AF
:1011D000B7B7B7B7B7B7B7B7B7B7B7B7B7B7B7B79F
:1011E000B7B7B7B7D9B7B7B7B7B7B7B7D9B7B7B74B
:1011F000B7B7B7B7D9B7B7B7B7B7B7B7B7B7B7B75D
:10120000B7B7B7B7B7B7B7B7B7B7B7B7B7B7B7B76E
:10121000B7B7B7B7B7B7B7B7B7B7B7B7B7B7B7B75E
:10122000B7B7B7B7D9B7D9D9D9D9D9D9D9B7D9D9FA
:10123000D900D9D9B7B7D9D9B700D9D91919D9D9B6
:10124000B7D9B7D9B719B7D919B7B7D9B719B7B780
:10125000B7B719B7B7B7B7D9B7B7B7B7B7D9B7D956
:10126000B7B7D9B719D9D900D9D9D9D919D9D90086
:10127000D919D9D91919D9D9D919D9B719B7D919A2
:10128000D9B7B7B7B719D9B7D9D9B719B719B7B740
:10129000D9B7B719B7D9B7B7D9D9D9B7D9D9B7D96C
:1012A000D9B7D9B7D9D9B7D9D9B7D9B7D9D9D9D958
:1012B000D9D9D9B7D9D9D900D9B7D9D9D9D9D90094
:1012C000D9B7D9D9D9D9B7D9D9B7D9D9D9D9D9D9F4
:1012D000D9D9D9D9D9D9D9D9D9D9D9D9D9D9D9D97E
:1012E000D9D9D9D9D900D900D9B7D9B7D900D9D93D
:1012F000D9B7D9D9D900D9D9D9D9D9D9D9D9D9D959
:10130000D9D9D9D9D9D9D9D9D9D9D9D9B7D9D9D96F
:10131000D9D9D9B7D9D9D9D9D9D9D9D9D9D9D9D95F
:10132000D9D9D9D9B719B7B7B7D9D9B7B7191919F9
:10133000D9D9D9D9B719191919B7B7B7B700191920
:1013400019B7B7B7B7D9D9D9191919B7D9D9D9D9B7
:10135000D9191919B7B7D9D900191919B7B7B7B722
:1013600000001919B7B7B719B7B7B7B7B7B7B719F3
:1013700019000000B7B7B71919191900B7B7B7198D
:1013800000191919B7B7B70000191919B7B7B7007D
:10139000191919191919B70019001919191919006A
:1013A00019001919B7B7B7B7B7B700B7B7B7B7B715
:1013B000B70000B70000B7B7000000B7000000009A
:1013C000000000000000000000000000000000001D
:1013D000001900001919000019000000191900195E
:1013E00019000000B700000000B7B7B70000000008
:1013F0000000B7B70000000019000000190000004D
:1014000019000000191919191919000019191919C9
:10141000191919001919191900191919191919196E
:1014200000191919B7000000000000B70000000003
:1014300000000000000000000000000000000000AC
:101440000000000000000000001919190000001938
:101450001919191900001900191919191919190060
:1014600019191900B7B7B7B7B7000019B7B7B7B7A9
:10147000B7B70019B7B7B7B7B7B70000B7B7B7B7BF
:10148000B7B7B700B7B7B7B7B7B7B700B7B7B7B75A
:10149000B7D9D9D9B7B7B7B7D9D9D9D9B7B7B7B7EE
:1014A000B7B7D9D919191919190019191900191922
:1014B0000019191919001919190019190000001932
:1014C000190019190000000019001919D9D90000D4
:1014D00000001919D9D9000000191919D900000004
:1014E0000019191900191919190000000019191902
:1014F0000000000019191919000000001919191924
:101500000000001919001919190000191900190013
:1015100019000019190019001900001919001919EA
:1015200000000019191919000000191919191900DA
:10153000B700191919191900B7001919191919192A
:10154000001919191919191919191919191919003D
:101550000019000019000000001900001900000027
:10156000000000001919000000191900191900B72E
:1015700000191900191900B70019190019191900D3
:10158000191919001919191919191900000019192F
:1015900019191900000000001900191900000000B5
:1015A00000001900B7B7000019190019B7B70000FB
:1015B00019190019B7B7000019190019B7B71900A0
:1015C00019190019B7B7190019190019B7B7190077
:1015D00019190019B7B7190019190019B7B7190067
:1015E0001919001919001919000019001900191901
:1015F0000000190019000019000019001900001955
:101600000000190019000019190000001900001944
:101610001919000019000019001900191900001902
:1016200000190019B7B7B7B7B7B71900B7B7B7B749
:10163000B7190000B7B7B719191900B7B7B719002C
:101640001900D9D9B719001900D9D9B7191900004B
:1016500000B7B7B719001900B7B7B7B7000019003E
:10166000B7B7B7B7B719190019000019B7190000B3
:1016700019001919B719001919001919B719001902
:1016800019001919B7190019191919191919001977
:101690000019191919191919001919191919B7B7B0
:1016A0001919B71919001919001900191900190089
:1016B0000019000019001900191900001919190062
:1016C0001900000019191919191900001900191920
:1016D0001900001919190000000000191919191929
:1016E00019000019001900B7B7B7B7B7000000B765
:1016F000B7B7B7B71900B7B7B7B7B7B71900B7B724
:10170000B7B7B7B70000B7B7B7B7B7B7000000B7FC
:10171000B7B7B7B7000000B7B7B7B7B70019000041
:10172000B7B7B7B7FFFFFF005B00005BFFFFFFFF2E
:1017300000005BFFFFFFFFFF00005BFF5BFFFFFFA1
:1017400000005BFF5BFFFFFF005BFFFFFFFFFFFF92
:10175000005BFFFFFFFFFFFF005BFFFFFFFFFFFFDF
:10176000005BFFFFFFFF00005B00FFFFFFFFFFFFCD
:101770000000005BFFFFFFFF0000FF00FFFFFFFF17
:10178000FF00FF00FFFFFFFFFF00FF00FFFFFFFF65
:10179000FFFFFF00FFFFFF5B5B00005BFFFF5BFFE6
:1017A000FFFF005B5B5B5B5B5B5B5B5B5B5B5B5B9C
:1017B000FF5BFF005B5BFF5BFFFFFFFF5B5BFFFF10
:1017C00000FFFFFF5BFFFFFFFFFFFFFF5BFFFFFF70
:1017D000FFFF00FFFFFFFFFFFFFFFFFFFFFF00FF17
:1017E000FFFFFFFF5B5B5B5B5B5B5B5B00005B5B6F
:1017F0005B5B5B5BFF000000005B5B5BFFFF00006F
:10180000FF005B5BFFFFFF0000005B5BFFFF00FF73
:101810000000005BFFFF000000005B5BFFFFFF00BC
:101820000000005BB7B7B7B7B7B7B7B7B7B7B7B7C9
:1018300019B71900B7B719B719191919B7B719197D
:1018400000191919B719191919191919B7191919E5
:10185000191900191919191919191919191900192A
:1018600019191919B7B7B7B7B7B7B7B70000B7B7EE
:10187000B7B7B7B71900000000B7B7B7191900001C
:101880001900B7B7191919000000B7B719190019CD
:10189000000000B7191900000000B7B719191900A6
:1018A000000000B7FFFFFF00005BFFFFFFFFFF002E
:1018B000005BFFFF5BFF0000005B00FF5BFF005B66
:1018C0005B5B0000FF005BFFFFFFFFFFFF005BFFB4
:1018D000FFFFFF00FF5BFFFFFFFFFFFF005BFF5B02
:1018E000FFFF5B00FFFF5BFFFFFFFF00FFFF5BFFF2
:1018F000FFFFFF00FF005BFFFFFF0000FF005BFF3B
:10190000FFFF005B00005BFFFFFF005B00005BFF71
:10191000FFFF005B000000FFFF0000005B00005BBA
:101920005B00005B5BFFFFFFFFFFFFFFFFFFFFFFB1
:1019300000FFFFFFFFFFFFFFFFFFFFFFFFFF00FFB5
:10194000FFFFFFFF5BFFFFFFFFFFFF005B5B5BFF36
:10195000FFD9FFD95B5B5B5B00D9D9D95B5B5B00CF
:101960000000000000FFFF0000FF005BFFFFFF0022
:101970000000005BFF00000000005B5BFFFF00FF5A
:1019800000005B5B00000000005B5B5B0000FF5B36
:101990005B5B5B5BD9D90000000000000000000029
:1019A00000005B5BB71919191919191919191919B7
:1019B00000191919191919191919191919190019C9
:1019C00019191919B719191919191900B7B7B71928
:1019D00019D919D9B7B7B7B700D9D9D9B7B7B70097
:1019E0000000000000191900001900B719191900AA
:1019F000000000B7190000000000B7B7191900195E
:101A00000000B7B70000000000B7B7B7000019B773
:101A1000B7B7B7B7D9D90000000000000000000038
:101A20000000B7B75BFFFFFFFFFFFF005BFFFFFF9B
:101A3000FFFFFFFF5BFF0000FFFFFFFF5B5BFFFFA0
:101A400000FFFFFF5BFFFFFF00FFFFFF5BFFFFFFEC
:101A500000FFFFFF5BFFFFFF00FFFFFF5BFFFFFFDC
:101A600000FFFFFF00005BFFFF00000000005BFFC6
:101A7000FFFF000000005BFFFFFF000000005BFFB6
:101A8000FFFF005B00005BFFFFFF005B00005BFFF0
:101A900000005B5B000000005B5B5B5B00005B5B6E
:101AA0005B5B5B5B5B5B5B5B5B5B5B5B5B5B5B5B86
:101AB0005B5B5B5B5B5B5B5B5B5B5B5B5B5B5B5B76
:101AC0005B5B5B5B5B5B5B5B5B5B5B5B5B5B5B5B66
:101AD0005B5B5B5B5B5B5B5B5B5B5B5B5B5B5B5B56
:101AE0005B5B5B5BB7B7B7B7B7B7B7B7B7B7B7B7F6
:101AF000B7B7B7B7B7B719B7B7B7B7B7B7B7B7B714
:101B0000B7B719B7B7B7B7B7B7B7B7B7B719B7B7A1
:101B1000B7B7B7B7B7B7B7B7B7B7B7B7B7B7B7B755
:101B200019B7B7B7B7B7B7B7B7B7B719B7B7B7B781
:101B300019B7B7B7B7B7B7B7B7B7B7B7B7B7B7B7D3
:101B4000B7B7B7B7B719B7B7B7B7B7B7B7B7B7B7C3
:101B5000B719B7B7B7B7B7B7B7B7B7B7B7B7B7B7B3
:101B6000B7B7B7B75BFFFFFF00FFFF005BFFFFFFEB
:101B700000FFFF00005BFFFF00FFFF00005BFFFFB7
:101B800000FFFF00005BFFFF00FF0000005BFF00A5
:101B90000000005B00005B5B5B5B5B5B5B5B5B5B5C
:101BA0005B5B5B5B005B5B5B5B5B5B5B005B5B5B3B
:101BB0005B5B5B5B005B5B5B5B5B5B5B005B5B5B2B
:101BC0005B5B5B5B5B5B5B5B5B5B5B5B5B5B5B5B65
:101BD0005B5B5B5B5B5B5B5B5B5B5B5B5B5B5B5B55
:101BE0005B5B5B5BB7B7B7B7B7B7B7B7B7B7B7B7F5
:101BF000B7B7B719B7B719B7B7B7B7B7B7B7B7B7B1
:101C0000B7B7B7B7B7B7B7B7B7B7B7B719B7B7B702
:101C1000B7B719B7B7B7B7B7B7B7B7B7B7B7B71990
:101C2000B7B7B7B7B7B7B719B7B7B7B7B7B7B7B7E2
:101C3000B7B7B7B7B7B7B7B7B7B7B7B7B7B7B7B734
:101C4000B7B719B7B7B7B719B7B7B7B7B7B7B7B760
:101C5000B7B7B7B7B7B7B7B7B7B7B7B7B719B7B7B2
:101C6000B7B7B7B75B5B5B5B5B5BFFFF5B5B5B5B0C
:101C70005BFFFFFF5B5B5B5BFFFFFFFF5B5B5BFF94
:101C8000FFFFD9D95B5BFFFFFFFFD9D95B5BFFFF8C
:101C9000D9D9D9D95B5BFFFFD9D9D9D95B5BFFFF14
:101CA0000000D9D9FF5B5B5B5B5B5B5BFFD95B5B78
:101CB0005B5B5B5BFFFFD95B5B5B5B5B00FFFFD943
:101CC0005B5B5B5B00FFFFFFD95B5B5BD9D900FF10
:101CD000D95B5B5BD9D900FFD95B5B5B000000FF80
:101CE000D95B5B5B5B5B5B5B5B5B5B5B5B5B5B5BC6
:101CF0005B5BD9D95B5B5B5B5BD9FFFF5B5B5B5B72
:101D00005BD9FFFF5B5B5BD9D9FFFFFF5B5BD9FF53
:101D1000FFFFFFFF5B5BD900D9FFFFD95B5BD900F9
:101D2000D9FFFFD95B5B5B5B5B5B5B5B5B5B5B5BBF
:101D30005BD9D9D9005B5BD9D9FFFFFF005BD9FF25
:101D4000FFFFFFFF005BD9FFFFD9D9D9FFD9FFFF04
:101D5000D9FF0000FFFFFFD9FFFF0000FFFFFFD901
:101D6000FFFFFFFF5B5B5B5B5B5B5B5BD9D9D95BB9
:101D70005B5B5BD9FFFFFF00005B5BD9FFFFFFFFF1
:101D8000FF005BD9D9D9D9FFFF005BD90000FF0064
:101D9000FFFF00FF0000FFFF00FFFFFFFFFFFFFF4F
:101DA00000FFFFFF5B5B5B5B5B5B5B5BD9D95B5BF6
:101DB0005B5B5B5BFF00005B5B5B5B5BFFFF005B98
:101DC0005B5B5B5BFFFF0000005B5B5BFFFFFFFF9C
:101DD00000005B5B00FFFF00D9005B5B00FFFF00C2
:101DE000D9005B5BD9D9FFFFFFFFD9D9D900FFFF2D
:101DF000FFFFD9D9D900FFFFFFFFFF00D900FFFF88
:101E0000FFFFFFFFD9D9D9D9D9D9D9D9FFFFFFFF12
:101E1000FFFFFFFFFFFFFFFFFFFFFFFF00000000CE
:101E20000000000000FFFFFFD9D9D95B00FFFFFFD2
:101E3000D900D90000FFFFFFD900D900FFFFFFFF45
:101E4000D900D900D9D9D9D9D9D9D900FFFFFFFFF5
:101E5000FFFFFF00FFFFFFFFFFFFFF00000000008C
:101E6000000000005B5BFFFFFFFF5B5B5BFFFFFFB2
:101E7000FFFFFF5BFFFFFFFFFFFF5B00FFFFFFFFB9
:101E8000FFFF5B00FFFFFFFFFFFF5B00FFFFFFFFA8
:101E9000FF5B00005BFF5B5B5B00005B5B5B00006C
:101EA00000005B5B5B5BD900D9FFFFD95B5BD900AE
:101EB000D9FFFFD95B5BD900D9FFFFFF5B5BD9007E
:101EC000D9FFFFFF5B5BD9FFFFFFFFFF5B5BD9FF24
:101ED000FFFFFFFF5BD9FFFFFFFFFFFFD9FFFFFF02
:101EE000FFFFFF5BFFFFFFD9FFFFD9D9FFFFFFFF18
:101EF00000D900FFFFFFFFFFD9FF00FFFFFF5B5B83
:101F00005B5B5BFFFF5BFFFF00FFFF5B5B00FFFFB7
:101F10000000FF005B0000FF00000000000000FF69
:101F200000000000D9D9FFFF00FFFFFFFF00D9002C
:101F3000FFFFFFFFFF00FFD9FFFFFFFFFF5B5B5BC2
:101F40005B5BFFFF5BFFFF00FFFF5BFF00FF00002D
:101F5000FFFF005B00000000FF00005B00000000CE
:101F6000FF00000000FFFF00D9005B5B00FFFF00E7
:101F7000D9005B5BFFFFFF00D9005B5BFFFFFF0049
:101F8000D9005B5BFFFFFFFFFF005B5BFFFFD9D961
:101F900000005B5BFFD9FFFFFF00005B5BD9FFFF29
:101FA000FF0000005B5BFF005BFFFFFF5B5B00006F
:101FB000FFFF00005B5B5BFFFFD900005B5B5BFF2B
:101FC000FFD9D9D9FFFFFFFFFFFF00FFFF00FFFF91
:101FD00000FF0000FFFFFFFFFFFF00FFFFFFFFFF0D
:101FE000FFFF00FFFF5BFF005BD95B5BFFFF0000B3
:101FF0005BD95B5BD9FFFF5B5BD95B5BD9FFFF5BA9
:102000005BD95B5BFFFFFF005BD95B5B000000FF00
:1020100000D95B5BFFFFFFFFFFD9005BFFFFFF0005
:10202000FFFF005BFFFFFFFFFFFFFFFF000000005F
:10203000000000005BFFFFFFFFFF005B5BFFFFFF97
:10204000FFFF005B5B5BFFFFFF005B5B5B5B5BFFBE
:10205000005B5B5B5B5B5BFF005B5B5B5BFFFFFFF6
:10206000FF00005BD9FFFFFFFFFFFF5BD9FFFFFF12
:10207000FFFFFF5BD900FFFFFFFFFF5BD9D9000027
:102080000000005BD9FFD9D9D9D9D95BD900FFFFAE
:10209000FFFFFF5BD900FFFFFFFFFF5BD9D9000007
:1020A0000000005BD9FFD9FF00FFFF00D9FFD9FF77
:1020B00000FFFF00D9FFD9FF0000FF000000000073
:1020C00000D9FF00D9D9D9D9D9FFFF00D9FFFFFF27
:1020D000FF00FF00D9FFFFFFFF00FF00000000002E
:1020E00000D9FF00FFFFFFFFFFFF00FFFFFFFFFF23
:1020F000FFFF00D9FFFFFFFFFFFF00FFFFFFFFFF14
:10210000FFFF00D9FF00FFFF00FF00FFFFFFFFFF01
:10211000FFFF005B5B00000000000000000000000B
:1021200000000000FFFFFF00FFFF005BD9FFFF0082
:10213000FFFF005BD9D9D9D900D9005BD9FFFFFFD8
:1021400000D9005BFFFF000000D9005B5B00FFFFD0
:10215000FFD95B5B00FFFFFFFFD9005B00000000C1
:10216000000000005BD9D9D9D9D9D95BD9FFFFFFCD
:10217000FFFFFF00D9FFFFFFFFFFFF00D9FFFFFFB9
:10218000FFFFFF00D9FFFFFFFFFFFF00D9FFFFFFA9
:10219000FFFFFF00D9FFFFFFFFFFFF00000000006F
:1021A00000000000D900D9D9D9D9D95BD900FFFFE7
:1021B000FFFFFF5BD900FFFFFFFFFF5BD9D90000E6
:1021C0000000005BD9FFD9D9D9D9D95BD9FFFFFF6E
:1021D000FFFFFF5B00FFFFFFFFFFFF5B0000000052
:1021E00000000000D9D9D9D9D9FFFF00D9FFFFFFDE
:1021F000FF00FF00D9FFFFFFFF00FF00000000000D
:1022000000D9FF00D9D9D9D9D9FFFF00D9FFFFFFE5
:10221000FFFFFF00D9FFFFFFFFFFFF0000000000EE
:1022200000000000B7B7B7B7B7B7B7B7B7B7B7B71A
:10223000B7B7B7B7B7B7B7B7B7B7B7B7B7B7B7B72E
:10224000B7B7B7B700B7B7B7B7B7B7B700B7B7B78C
:10225000B7B7B7B700B7B7B7B7B7B7B7D900B7B75A
:10226000B7B7B7B7D900B7B7B7B7B7B7D900B7B728
:10227000B7B7B7B7D900B7B7B7B7B7B719D900006D
:10228000B7B7B7B7D9D9D900B7B7B7B7D9D9D90080
:102290000000B7B7D919D900000000B7D9D9D9D9EA
:1022A000D9D900005B5BFFFF00005B5B5BFFFFFFBA
:1022B000FF00005BFFFFFFFFFFFF005B5BFFFFFF17
:1022C000FFFF00005BFFFFFFFFFF00005BFFFFFF62
:1022D000FF0000005BFFFFFFFFFF000000FFFFFFAC
:1022E000FFFF005B5B5B5B5B5B5B5B5B5B5B5BFFAD
:1022F000005B5B5B5B5BFFFFFF005B5B5BFFFFFF0C
:10230000FFFF005B00FFFFFFFFFF005B5BFFFFFFC6
:10231000FFFFFF005BFFFFFFFFFFFF005BFFFFFF13
:10232000FFFF00005B0000FFFFFFFFFF5B00D9D94C
:10233000D9D9D9D95B00D9D9D9D9D9D95B00D9D9BB
:10234000D9D9D9D95B0000FFFFFFFFFF5B00D9D9C6
:10235000D9D9D9D95B00D9D9D9D9D9D95B00D9D99B
:10236000D9D9D9D9FFFFFFFFFFFF5B00D9D9D9D950
:10237000D9D95B00D9D9D9D9D9D95B00D9D9D9D97B
:10238000D9D95B00FFFFFFFFFFFF5B00D9D9D9D987
:10239000D9D95B00D9D9D9D9D9D95B00D9D9D9D95B
:1023A000D9D95B00FFFFFFFFFFFFFF5BFFFFFFFFD0
:1023B000FFFFFF5BFFFFFFFFFFFF005B5BFFFFFF18
:1023C000FFFF000000FFFFFFFFFF0000FFFFFFFF18
:1023D000FFFF000000FFFFFFFF00005B00FF0000A9
:1023E000FFFF005BFFFFFFFFFFFF005BFFFFFFFF43
:1023F000FF00005BFFFFFFFFFF00005B5BFFFFFFD5
:10240000FFFF000000FFFFFFFFFFFF005B5B00001E
:10241000FFFFFF00FFFFFFFF00FF0000FFFFFF00C7
:1024200000FFFF00FFFFFFFF5BFFFFFFFFFFFFFF5E
:102430005BFFFFFFFFFFFF005BFFFFFFFFFFFF00F2
:102440005BFFFFFFFFFFFF005BFFFFFFFFFFFF00E2
:102450005BFFFFFF00FF00005BFFFFFF5B00000072
:102460005BFFFFFF0000005BFFFF0000FFFF005B62
:10247000FFFFFF00FFFF005BFFFFFF00FFFF005BB0
:10248000FFFFFFFFFFFF005BFFFFFFFFFFFF005BA2
:10249000FFFFFFFFFFFF00005BFFFFFFFFFF0000EC
:1024A000005BFFFF5B5B5B0000FFFFFF5B5B5B5B59
:1024B00000FF00FF5B5B5B5B5B0000005B5B5B5BEB
:1024C0005B5B5B5B5B5B5B5B5B5B5B5B5B5B5B5B5C
:1024D0005B5B5B5B5B5B5B5B5B5B5B5B5B5B5B5B4C
:1024E0005B5B5B5BFFFF0000005BFFFFFF0000002A
:1024F000005BFFFF00000000005BFFFF000000002A
:10250000005BFFFF5B5B5B5B005BFFFF5B5B5B5B41
:102510005B00FFFF5B5B5B5B5B00FFFF5B5B5B5B31
:102520005B5B000019191919191919D91900191922
:102530001900190019191919191919001919191956
:10254000191919001919191919191900191919192D
:10255000191919001919191919191900191919191D
:10256000191919001919191919191900191919190D
:1025700019191900191919191919190019191919FD
:102580001919190019191919191919001900191906
:10259000190019001919191919191900D900000081
:1025A000000000005B5B5B5B5B5B5B5B5B5B5B5BE7
:1025B0005B5B5B5B5B5B5B5B5B5B5B5B5B5B5B5B6B
:1025C0005B5B5B5B5B5B5B5B5B5B00005B5B5B5B11
:1025D0005B5BFF005B5B5B5B5BFFFF005B5B5B5B15
:1025E0005BFFFF005B5B5B5B5B5B5B5B5B5B5B5B4E
:1025F0005B5B5B5B5B5B5B5B5B5B5B5B5B5B5B5B2B
:102600005B5B5B5B5B5B5B5B5B5B5B5B5B5B5B5B1A
:102610005B5B5B5BFF5B5B5B5B5B5B5BFFFF0000D4
:10262000005B5B5B5B5B5B0000FFFF005B5BFFFFD6
:1026300000FFFF005BFFFFFFFFFFFF005BFFFFFFEF
:1026400000FFFF005BFFFFFF00FF00005BFFFFFFDD
:1026500000FF0000FFFFFFFFFFFF0000FFFFFFFF85
:10266000FFFF0000FF00FFFFFF005B5BFFFFFFFFBE
:10267000FF005B5BFFFFFFFFFFFF005B5BFFFFFFF8
:10268000FFFF005B5BFFFFFFFFFF005B5BFFFFFFE8
:10269000FF00005B5B0000FFFF00005B5B000000D1
:1026A000FF005B5BB7B7B7B7B7B7B7B7B7B7B7B7E1
:1026B000B7B7B7B7B7B7B7B7B7B7B7B7B7B7B7B7AA
:1026C000B7B7B7B7B7B7B7B7B7B7B7B7B7B7B7B79A
:1026D000B7B7B7B7B7B7B7B7B7B7B700B7B7B7B741
:1026E000B7B700D9B7B7B7B7B7B7B7D9B7B7B7B7ED
:1026F000B7B700D9B7B7B7B7B700D9D9B7B7B7B772
:10270000B700D919B7B7B7B7B700D9D9B7B700006D
:1027100000D9D9D9B7B7B70000D9D9D9000000D9A5
:10272000D9D9D919FEFEFEFEFEFEFEFEFEFEFEFE1D
:10273000FEFEFEFEFEFEFEFEFEFEFEFEFEFEFEFEB9
:10274000FEFEFEFEFEFEFEFEFEFEFEFEFEFEFEFEA9
:10275000FEFEFEFEFEFEFEFEFEFEFEFEFEFEFEFE99
:10276000FEFEFEFEFEFE00FEFEFEFEFEFEFE00FE85
:10277000FEFEFEFEFEFE00FEFEFEFEFEFEFE00FE75
:10278000FEFEFEFEFEFE00FEFEFEFEFEFEFEFEFE67
:10279000FEFEFEFEFEFE00FEFEFEFEFEFEFEFEFE57
:1027A000FEFEFEFEFE00FE00FEFEFEFEFE00FE0041
:1027B000FEFEFEFEFEFEFEFEFEFEFEFEFEFEFEFE39
:1027C000FEFEFEFEFEFEFEFEFEFEFEFEFEFEFEFE29
:1027D000FEFEFEFEFEFEFEFEFEFEFEFEFEFEFEFE19
:1027E000FEFEFEFEFEFE00FE00FEFEFE00000000FD
:1027F00000FEFEFEFE00FE00FEFEFEFE00000000EB
:1028000000FEFEFE00FE00FEFEFEFEFEFEFEFEFEE2
:10281000FEFEFEFEFEFEFEFEFEFEFEFEFEFEFEFED8
:10282000FEFEFEFEFE000000FEFEFEFE00FE00FEBE
:1028300000FEFEFE00FE00FEFEFEFEFEFE000000AC
:10284000FEFEFEFEFEFE00FE00FEFEFE00FE00FEA0
:1028500000FEFEFEFE000000FEFEFEFEFEFE00FE8E
:10286000FEFEFEFEFE00000000FEFEFE00FE00FE7C
:1028700000FEFEFE00FE0000FEFEFEFEFE0000006A
:1028800000FEFEFEFEFE0000FE00FEFEFE00FE005C
:10289000FE00FEFEFE00FEFE00FEFEFEFEFEFEFE52
:1028A000FEFEFEFEFEFE00FEFEFEFEFEFE00FE0042
:1028B000FEFEFEFEFEFE00FEFEFEFEFEFE00F6003A
:1028C000FE00FEFE00F6FEF600FEFEFE00FEFEFE30
:1028D00000FEFEFEFE000000FE00FEFEFEFEFEFE0E
:1028E000FEFEFEFEFEFE00FEFEFEFEFEFEFE00FE04
:1028F000FEFEFEFEFEFEFEFEFEFEFEFEFEFEFEFEF8
:10290000FEFEFEFEFEFEFEFEFEFEFEFEFEFEFEFEE7
:10291000FEFEFEFEFEFEFEFEFEFEFEFEFEFEFEFED7
:10292000FEFEFEFEFEFEFE00FEFEFEFEFEFE00FEC3
:10293000FEFEFEFEFE00FEFEFEFEFEFEFE00FEFEB3
:10294000FEFEFEFEFE00FEFEFEFEFEFEFE00FEFEA3
:10295000FEFEFEFEFEFE00FEFEFEFEFEFEFEFE0093
:10296000FEFEFEFEFE00FEFEFEFEFEFEFEFE00FE83
:10297000FEFEFEFEFEFEFE00FEFEFEFEFEFEFE0073
:10298000FEFEFEFEFEFEFE00FEFEFEFEFEFEFE0063
:10299000FEFEFEFEFEFE00FEFEFEFEFEFE00FEFE53
:1029A000FEFEFEFEFEFE00FEFEFEFEFE00FE00FE41
:1029B00000FEFEFEFE000000FEFEFEFEFE00FE002B
:1029C000FEFEFEFE00FEFEFE00FEFEFEFEFEFEFE23
:1029D000FEFEFEFEFEFEFEFEFEFEFEFEFEFEFEFE17
:1029E000FEFEFEFEFEFEFEFEFEFEFEFEFEFE00FE05
:1029F000FEFEFEFEFEFE00FEFEFEFEFE00000000ED
:102A000000FEFEFEFEFE00FEFEFEFEFEFEFE00FEE0
:102A1000FEFEFEFEFEFEFEFEFEFEFEFEFEFEFEFED6
:102A2000FEFEFEFEFEFEFEFEFEFEFEFEFEFEFEFEC6
:102A3000FEFEFEFEFEFEFEFEFEFEFEFEFEFEFEFEB6
:102A4000FEFEFEFEFEFEFEFEFEFEFEFEFEFE00FEA4
:102A5000FEFEFEFEFEFE00FEFEFEFEFEFE00FEFE92
:102A6000FEFEFEFEFEFEFEFEFEFEFEFEFEFEFEFE86
:102A7000FEFEFEFEFEFEFEFEFEFEFEFEFE00000070
:102A800000FEFEFEFEFEFEFEFEFEFEFEFEFEFEFE64
:102A9000FEFEFEFEFEFEFEFEFEFEFEFEFEFEFEFE56
:102AA000FEFEFEFEFEFEFEFEFEFEFEFEFEFEFEFE46
:102AB000FEFEFEFEFEFEFEFEFEFEFEFEFEFEFEFE36
:102AC000FEFEFEFEFEFEFEFEFEFEFEFEFEFEFEFE26
:102AD000FEFEFEFEFEFE00FEFEFEFEFEFEFEFEFE14
:102AE000FEFEFEFEFEFEFEFE00FEFEFEFEFEFEFE04
:102AF00000FEFEFEFEFEFE00FEFEFEFEFEFEFE00F0
:102B0000FEFEFEFEFEFE00FEFEFEFEFEFEFE00FEE1
:102B1000FEFEFEFEFE00FEFEFEFEFEFEFE00FEFED1
:102B2000FEFEFEFEFE000000FEFEFEFE00FEFEFEBD
:102B300000FEFEFE00FEFE0000FEFEFE00FE00FEA9
:102B400000FEFEFE0000FEFE00FEFEFE00FEFEFE9B
:102B500000FEFEFEFE000000FEFEFEFEFEFEFEFE8D
:102B6000FEFEFEFEFEFE00FEFEFEFEFEFE0000FE7F
:102B7000FEFEFEFEFEFE00FEFEFEFEFEFEFE00FE71
:102B8000FEFEFEFEFEFE00FEFEFEFEFEFEFE00FE61
:102B9000FEFEFEFEFEFE00FEFEFEFEFEFEFEFEFE53
:102BA000FEFEFEFEFE000000FEFEFEFE00FEFEFE3D
:102BB00000FEFEFEFEFEFEFE00FEFEFEFEFEFE002F
:102BC000FEFEFEFEFEFE00FEFEFEFEFEFE00FEFE21
:102BD000FEFEFEFE0000000000FEFEFEFEFEFEFE0B
:102BE000FEFEFEFE0000000000FEFEFEFEFEFE00F9
:102BF000FEFEFEFEFEFE00FEFEFEFEFEFE000000ED
:102C0000FEFEFEFEFEFEFEFE00FEFEFE00FEFEFEE0
:102C100000FEFEFEFE000000FEFEFEFEFEFEFEFECC
:102C2000FEFEFEFEFEFEFE00FEFEFEFEFEFE0000BE
:102C3000FEFEFEFEFE00FE00FEFEFEFE00FEFE00AC
:102C4000FEFEFEFE0000000000FEFEFEFEFEFE0098
:102C5000FEFEFEFEFEFEFE00FEFEFEFEFEFEFEFE92
:102C6000FEFEFEFE0000000000FEFEFE00FEFEFE78
:102C7000FEFEFEFE00000000FEFEFEFEFEFEFEFE6C
:102C800000FEFEFEFEFEFEFE00FEFEFE00FEFEFE5E
:102C900000FEFEFEFE000000FEFEFEFEFEFEFEFE4C
:102CA000FEFEFEFEFEFE0000FEFEFEFEFE00FEFE3E
:102CB000FEFEFEFE00FEFEFEFEFEFEFE000000002A
:102CC000FEFEFEFE00FEFEFE00FEFEFE00FEFEFE1E
:102CD00000FEFEFEFE000000FEFEFEFEFEFEFEFE0C
:102CE000FEFEFEFE0000000000FEFEFEFEFEFEFEFA
:102CF00000FEFEFEFEFEFE00FEFEFEFEFEFEFE00EE
:102D0000FEFEFEFEFEFE00FEFEFEFEFEFEFE00FEDF
:102D1000FEFEFEFEFEFE00FEFEFEFEFEFEFEFEFED1
:102D2000FEFEFEFEFE000000FEFEFEFE00FEFEFEBB
:102D300000FEFEFE00FEFEFE00FEFEFEFE000000A7
:102D4000FEFEFEFE00FEFEFE00FEFEFE00FEFEFE9D
:102D500000FEFEFEFE000000FEFEFEFEFEFEFEFE8B
:102D6000FEFEFEFEFE000000FEFEFEFE00FEFEFE7B
:102D700000FEFEFE00FEFEFE00FEFEFEFE00000067
:102D800000FEFEFEFEFEFEFE00FEFEFEFEFEFE005D
:102D9000FEFEFEFEFE0000FEFEFEFEFEFEFEFEFE4F
:102DA000FEFEFEFEFEFEFEFEFEFEFEFEFEFEFEFE43
:102DB000FEFEFEFEFEFE00FEFEFEFEFEFEFEFEFE31
:102DC000FEFEFEFEFEFEFEFEFEFEFEFEFEFEFEFE23
:102DD000FEFEFEFEFEFE00FEFEFEFEFEFEFEFEFE11
:102DE000FEFEFEFEFEFEFEFEFEFEFEFEFEFEFEFE03
:102DF000FEFEFEFEFEFE00FEFEFEFEFEFEFEFEFEF1
:102E0000FEFEFEFEFEFEFEFEFEFEFEFEFEFE00FEE0
:102E1000FEFEFEFEFEFE00FEFEFEFEFEFE00FEFECE
:102E2000FEFEFEFEFEFEFEFEFEFEFEFEFEFEFE00C0
:102E3000FEFEFEFEFEFE00FEFEFEFEFEFE00FEFEAE
:102E4000FEFEFEFEFEFE00FEFEFEFEFEFEFEFE009E
:102E5000FEFEFEFEFEFEFEFEFEFEFEFEFEFEFEFE92
:102E6000FEFEFEFEFEFEFEFEFEFEFEFEFEFEFEFE82
:102E7000FEFEFEFE0000000000FEFEFEFEFEFEFE68
:102E8000FEFEFEFE0000000000FEFEFEFEFEFEFE58
:102E9000FEFEFEFEFEFEFEFEFEFEFEFEFEFEFEFE52
:102EA000FEFEFEFEFEFEFEFEFEFEFEFEFE00FEFE40
:102EB000FEFEFEFEFEFE00FEFEFEFEFEFEFEFE002E
:102EC000FEFEFEFEFEFE00FEFEFEFEFEFE00FEFE1E
:102ED000FEFEFEFEFEFEFEFEFEFEFEFEFEFEFEFE12
:102EE000FEFEFEFEFEFE0000FEFEFEFEFE00FEFEFC
:102EF00000FEFEFEFEFEFEFE00FEFEFEFEFEFE00EC
:102F0000FEFEFEFEFEFE00FEFEFEFEFEFEFEFEFEDF
:102F1000FEFEFEFEFEFE00FEFEFEFEFEFEFEFEFECF
:102F2000FEFEFEFEFEFE0000FEFEFEFEFE00FEFEBB
:102F300000FEFEFE00FE0000FE00FEFE0000FE00A1
:102F4000FE00FEFE0000FE00FE00FEFE00FE000091
:102F500000FEFEFEFE00FEFEFEFEFEFEFEFE000089
:102F6000FEFEFEFEFEFE00FEFEFEFEFEFEFE00FE7D
:102F7000FEFEFEFEFE00FE00FEFEFEFEFE00FE0069
:102F8000FEFEFEFE0000000000FEFEFE00FEFEFE55
:102F900000FEFEFE00FEFEFE00FEFEFEFEFEFEFE4B
:102FA000FEFEFEFE00000000FEFEFEFE00FEFEFE37
:102FB00000FEFEFE00FEFEFE00FEFEFE0000000023
:102FC000FEFEFEFE00FEFEFE00FEFEFE00FEFEFE1B
:102FD00000FEFEFE00000000FEFEFEFEFEFEFEFE07
:102FE000FEFEFEFEFE000000FEFEFEFE00FEFEFEF9
:102FF00000FEFEFE00FEFEFEFEFEFEFE00FEFEFEEB
:10300000FEFEFEFE00FEFEFEFEFEFEFE00FEFEFEDC
:1030100000FEFEFEFE000000FEFEFEFEFEFEFEFEC8
:10302000FEFEFEFE000000FEFEFEFEFE00FEFE00B6
:10303000FEFEFEFE00FEFEFE00FEFEFE00FEFEFEAA
:1030400000FEFEFE00FEFEFE00FEFEFE00FEFE0096
:10305000FEFEFEFE000000FEFEFEFEFEFEFEFEFE8A
:10306000FEFEFEFEFE00000000FEFEFEFE00FEFE76
:10307000FEFEFEFEFE00FEFEFEFEFEFEFE00000068
:10308000FEFEFEFEFE00FEFEFEFEFEFEFE00FEFE5C
:10309000FEFEFEFEFE00000000FEFEFEFEFEFEFE48
:1030A000FEFEFEFEFE00000000FEFEFEFE00FEFE36
:1030B000FEFEFEFEFE00FEFEFEFEFEFEFE00000028
:1030C000FEFEFEFEFE00FEFEFEFEFEFEFE00FEFE1C
:1030D000FEFEFEFEFE00FEFEFEFEFEFEFEFEFEFE0E
:1030E000FEFEFEFEFE000000FEFEFEFE00FEFEFEF8
:1030F00000FEFEFE00FEFEFEFEFEFEFE00FEFE00E8
:1031000000FEFEFE00FEFEFE00FEFEFE00FEFEFED7
:1031100000FEFEFEFE000000FEFEFEFEFEFEFEFEC7
:10312000FEFEFEFE00FEFEFE00FEFEFE00FEFEFEB9
:1031300000FEFEFE00FEFEFE00FEFEFE00000000A1
:1031400000FEFEFE00FEFEFE00FEFEFE00FEFEFE97
:1031500000FEFEFE00FEFEFE00FEFEFEFEFEFEFE89
:10316000FEFEFEFEFEFE00FEFEFEFEFEFEFE00FE7B
:10317000FEFEFEFEFEFE00FEFEFEFEFEFEFE00FE6B
:10318000FEFEFEFEFEFE00FEFEFEFEFEFEFE00FE5B
:10319000FEFEFEFEFEFE00FEFEFEFEFEFEFEFEFE4D
:1031A000FEFEFEFEFEFEFEFE00FEFEFEFEFEFEFE3D
:1031B00000FEFEFEFEFEFEFE00FEFEFEFEFEFEFE2B
:1031C00000FEFEFE00FEFEFE00FEFEFE00FEFEFE17
:1031D00000FEFEFEFE000000FEFEFEFEFEFEFEFE07
:1031E000FEFEFEFE00FEFEFE00FEFEFE00FEFE00F7
:1031F000FEFEFEFE00FE00FEFEFEFEFE0000FEFEE7
:10320000FEFEFEFE00FE00FEFEFEFEFE00FEFE00D6
:10321000FEFEFEFE00FEFEFE00FEFEFEFEFEFEFECA
:10322000FEFEFEFEFE00FEFEFEFEFEFEFE00FEFEBA
:10323000FEFEFEFEFE00FEFEFEFEFEFEFE00FEFEAA
:10324000FEFEFEFEFE00FEFEFEFEFEFEFE00FEFE9A
:10325000FEFEFEFEFE00000000FEFEFEFEFEFEFE86
:10326000FEFEFEFE00FEFEFE00FEFEFE0000FE0074
:1032700000FEFEFE00FE00FE00FEFEFE00FEFEFE64
:1032800000FEFEFE00FEFEFE00FEFEFE00FEFEFE56
:1032900000FEFEFE00FEFEFE00FEFEFEFEFEFEFE48
:1032A000FEFEFEFE0000FEFE00FEFEFE0000FEFE34
:1032B00000FEFEFE00FE00FE00FEFEFE00FE00FE22
:1032C00000FEFEFE00FEFE0000FEFEFE00FEFE0012
:1032D00000FEFEFE00FEFEFE00FEFEFEFEFEFEFE08
:1032E000FEFEFEFEFE000000FEFEFEFE00FEFEFEF6
:1032F00000FEFEFE00FEFEFE00FEFEFE00FEFEFEE6
:1033000000FEFEFE00FEFEFE00FEFEFE00FEFEFED5
:1033100000FEFEFEFE000000FEFEFEFEFEFEFEFEC5
:10332000FEFEFEFE00000000FEFEFEFE00FEFEFEB3
:1033300000FEFEFE00FEFEFE00FEFEFE000000009F
:10334000FEFEFEFE00FEFEFEFEFEFEFE00FEFEFE99
:10335000FEFEFEFE00FEFEFEFEFEFEFEFEFEFEFE8B
:10336000FEFEFEFEFE000000FEFEFEFE00FEFEFE75
:1033700000FEFEFE00FEFEFE00FEFEFE00FEFEFE65
:1033800000FEFEFE00FEFEFE00FEFEFE00FE00FE53
:1033900000FEFEFEFE000000FEFEFEFEFEFEFE0043
:1033A000FEFEFEFE00000000FEFEFEFE00FEFEFE33
:1033B00000FEFEFE00FEFEFE00FEFEFE000000001F
:1033C000FEFEFEFE00FE00FEFEFEFEFE00FEFE0015
:1033D000FEFEFEFE00FEFEFE00FEFEFEFEFEFEFE09
:1033E000FEFEFEFEFE000000FEFEFEFE00FEFEFEF5
:1033F00000FEFEFE00FEFEFEFEFEFEFEFE000000E3
:10340000FEFEFEFEFEFEFEFE00FEFEFE00FEFEFED8
:1034100000FEFEFEFE000000FEFEFEFEFEFEFEFEC4
:10342000FEFEFEFE0000000000FEFEFEFEFE00FEB0
:10343000FEFEFEFEFEFE00FEFEFEFEFEFEFE00FEA8
:10344000FEFEFEFEFEFE00FEFEFEFEFEFEFE00FE98
:10345000FEFEFEFEFEFE00FEFEFEFEFEFEFEFEFE8A
:10346000FEFEFEFE00FEFEFE00FEFEFE00FEFEFE76
:1034700000FEFEFE00FEFEFE00FEFEFE00FEFEFE64
:1034800000FEFEFE00FEFEFE00FEFEFE00FEFEFE54
:1034900000FEFEFEFE000000FEFEFEFEFEFEFEFE44
:1034A000FEFEFEFE00FEFEFE00FEFEFE00FEFEFE36
:1034B00000FEFEFE00FEFEFE00FEFEFEFE00FE0022
:1034C000FEFEFEFEFE00FE00FEFEFEFEFEFE00FE16
:1034D000FEFEFEFEFEFE00FEFEFEFEFEFEFEFEFE0A
:1034E000FEFEFEFE00FEFEFE00FEFEFE00FEFEFEF6
:1034F00000FEFEFE00FE00FE00FEFEFE00FE00FEE0
:1035000000FEFEFEFE00FE00FEFEFEFEFE00FE00D1
:10351000FEFEFEFEFE00FE00FEFEFEFEFEFEFEFEC7
:10352000FEFEFEFE00FEFEFE00FEFEFE00FEFEFEB5
:1035300000FEFEFEFE00FE00FEFEFEFEFEFE00FEA3
:10354000FEFEFEFEFE00FE00FEFEFEFE00FEFEFE95
:1035500000FEFEFE00FEFEFE00FEFEFEFEFEFEFE85
:10356000FEFEFEFE00FEFEFE00FEFEFE00FEFEFE75
:1035700000FEFEFEFE00FE00FEFEFEFEFEFE00FE63
:10358000FEFEFEFEFEFE00FEFEFEFEFEFEFE00FE57
:10359000FEFEFEFEFEFE00FEFEFEFEFEFEFEFEFE49
:1035A000FEFEFEFEFE00000000FEFEFEFEFEFEFE33
:1035B00000FEFEFEFEFEFE00FEFEFEFEFEFE00FE25
:1035C000FEFEFEFEFE00FEFEFEFEFEFEFE00FEFE17
:1035D000FEFEFEFEFE00000000FEFEFEFEFEFEFE03
:1035E000FEFEFEFEFEFE0000FEFEFEFEFEFE00FEF5
:1035F000FEFEFEFEFEFE00FEFEFEFEFEFEFE00FEE7
:10360000FEFEFEFEFEFE00FEFEFEFEFEFEFE00FED6
:10361000FEFEFEFEFEFE00FEFEFEFEFEFEFE0000C4
:10362000FEFEFEFEFE00FEFEFEFEFEFEFE00FEFEB6
:10363000FEFEFEFEFEFE00FEFEFEFEFEFEFE00FEA6
:10364000FEFEFEFEFEFEFE00FEFEFEFEFEFEFE0096
:10365000FEFEFEFEFEFEFEFE00FEFEFEFEFEFEFE88
:1036600000FEFEFEFE0000FEFEFEFEFEFEFE00FE72
:10367000FEFEFEFEFEFE00FEFEFEFEFEFEFE00FE66
:10368000FEFEFEFEFEFE00FEFEFEFEFEFEFE00FE56
:10369000FEFEFEFEFEFE00FEFEFEFEFEFE0000FE44
:1036A000FEFEFEFEFEFE00FEFEFEFEFEFE00FE0034
:1036B000FEFEFEFEFEFEFEFEFEFEFEFEFEFEFEFE2A
:1036C000FEFEFEFEFEFEFEFEFEFEFEFEFEFEFEFE1A
:1036D000FEFEFEFEFEFEFEFEFEFEFEFEFEFEFEFE0A
:1036E000FEFEFEFEFEFEFEFEFEFEFEFEFEFEFEFEFA
:1036F000FEFEFEFEFEFEFEFEFEFEFEFEFEFEFEFEEA
:10370000FEFEFEFEFEFEFEFEFEFEFEFEFEFEFEFED9
:10371000FEFEFEFEFEFEFEFEFEFEFEFE00000000C1
:103720000000FEFEFEFE0000FEFEFEFEFE00FEFEAF
:10373000FEFEFEFEFE00FEFEFEFEFEFE000000FEA1
:10374000FEFEFEFEFE00FEFEFEFEFEFEFE00FEFE95
:1037500000FEFEFE00000000FEFEFEFEFEFEFEFE7F
:10376000FEFEFEFEFEFEFEFEFEFEFEFEFEFEFEFE79
:10377000FEFEFEFEFEFE0000FEFEFEFEFEFEFEFE65
:1037800000FEFEFEFEFE000000FEFEFEFE00FEFE4F
:1037900000FEFEFEFEFE000000FEFEFEFEFEFEFE41
:1037A000FEFEFEFEFE00FEFEFEFEFEFEFE00FEFE35
:1037B000FEFEFEFEFE000000FEFEFEFEFE00FEFE21
:1037C00000FEFEFEFE00FEFE00FEFEFEFE00FEFE11
:1037D00000FEFEFEFE000000FEFEFEFEFEFEFEFE01
:1037E000FEFEFEFEFEFEFEFEFEFEFEFEFEFEFEFEF9
:1037F000FEFEFEFEFEFE0000FEFEFEFEFE00FEFEE3
:1038000000FEFEFEFE00FEFEFEFEFEFEFE00FEFED2
:1038100000FEFEFEFEFE0000FEFEFEFEFEFEFEFEC2
:10382000FEFEFEFEFEFEFEFE00FEFEFEFEFEFEFEB6
:1038300000FEFEFEFEFE000000FEFEFEFE00FEFE9E
:1038400000FEFEFEFE00FEFE00FEFEFEFE00FEFE90
:1038500000FEFEFEFEFE000000FEFEFEFEFEFEFE80
:10386000FEFEFEFEFEFEFEFEFEFEFEFEFEFEFEFE78
:10387000FEFEFEFEFEFE0000FEFEFEFEFE00FEFE62
:1038800000FEFEFEFE00000000FEFEFEFE00FEFE4C
:10389000FEFEFEFEFEFE0000FEFEFEFEFEFEFEFE44
:1038A000FEFEFEFEFEFEFE0000FEFEFEFEFE00FE32
:1038B000FEFEFEFEFE000000FEFEFEFEFEFE00FE20
:1038C000FEFEFEFEFEFE00FEFEFEFEFEFEFE00FE14
:1038D000FEFEFEFEFEFE00FEFEFEFEFEFEFEFEFE06
:1038E000FEFEFEFEFEFEFEFEFEFEFEFEFEFEFEFEF8
:1038F000FEFEFEFEFEFE000000FEFEFEFE00FEFEE0
:1039000000FEFEFEFE00FEFE00FEFEFEFEFE0000CD
:1039100000FEFEFEFEFEFEFE00FEFEFEFEFE0000BF
:10392000FEFEFEFEFE00FEFEFEFEFEFEFE00FEFEB3
:10393000FEFEFEFEFE000000FEFEFEFEFE00FEFE9F
:1039400000FEFEFEFE00FEFE00FEFEFEFE00FEFE8F
:1039500000FEFEFEFE00FEFE00FEFEFEFEFEFEFE81
:10396000FEFEFEFEFEFE00FEFEFEFEFEFEFEFEFE75
:10397000FEFEFEFEFEFE00FEFEFEFEFEFEFE00FE63
:10398000FEFEFEFEFEFE00FEFEFEFEFEFEFE00FE53
:10399000FEFEFEFEFEFE00FEFEFEFEFEFEFEFEFE45
:1039A000FEFEFEFEFEFEFE00FEFEFEFEFEFEFEFE35
:1039B000FEFEFEFEFEFEFE00FEFEFEFEFEFEFE0023
:1039C000FEFEFEFEFEFEFE00FEFEFEFEFEFEFE0013
:1039D000FEFEFEFEFEFEFE00FEFEFEFEFE0000FE01
:1039E000FEFEFEFEFE00FEFEFEFEFEFEFE00FEFEF3
:1039F000FEFEFEFEFE00FEFE00FEFEFEFE00FE00DF
:103A0000FEFEFEFEFE0000FEFEFEFEFEFE00FE00CE
:103A1000FEFEFEFEFE00FEFE00FEFEFEFEFEFEFEC2
:103A2000FEFEFEFEFEFE00FEFEFEFEFEFEFE00FEB2
:103A3000FEFEFEFEFEFE00FEFEFEFEFEFEFE00FEA2
:103A4000FEFEFEFEFEFE00FEFEFEFEFEFEFE00FE92
:103A5000FEFEFEFEFEFEFE00FEFEFEFEFEFEFEFE84
:103A6000FEFEFEFEFEFEFEFEFEFEFEFEFEFEFEFE76
:103A7000FEFEFEFE0000FE00FEFEFEFE00FE00FE5C
:103A800000FEFEFE00FE00FE00FEFEFE00FE00FE4A
:103A900000FEFEFE00FE00FE00FEFEFEFEFEFEFE3E
:103AA000FEFEFEFEFEFEFEFEFEFEFEFEFEFEFEFE36
:103AB000FEFEFEFEFE000000FEFEFEFEFE00FEFE1E
:103AC00000FEFEFEFE00FEFE00FEFEFEFE00FEFE0E
:103AD00000FEFEFEFE00FEFE00FEFEFEFEFEFEFE00
:103AE000FEFEFEFEFEFEFEFEFEFEFEFEFEFEFEFEF6
:103AF000FEFEFEFEFEFE0000FEFEFEFEFE00FEFEE0
:103B000000FEFEFEFE00FEFE00FEFEFEFE00FEFECD
:103B100000FEFEFEFEFE0000FEFEFEFEFEFEFEFEBF
:103B2000FEFEFEFEFEFEFEFEFEFEFEFEFEFEFEFEB5
:103B3000FEFEFEFEFE000000FEFEFEFEFE00FEFE9D
:103B400000FEFEFEFE00FEFE00FEFEFEFE00000089
:103B5000FEFEFEFEFE00FEFEFEFEFEFEFE00FEFE81
:103B6000FEFEFEFEFEFEFEFEFEFEFEFEFEFEFEFE75
:103B7000FEFEFEFEFEFE000000FEFEFEFE00FEFE5D
:103B800000FEFEFEFE00FEFE00FEFEFEFEFE00004B
:103B900000FEFEFEFEFEFEFE00FEFEFEFEFEFEFE41
:103BA00000FEFEFEFEFEFEFEFEFEFEFEFEFEFEFE33
:103BB000FEFEFEFEFE00FE0000FEFEFEFE0000FE1B
:103BC000FEFEFEFEFE00FEFEFEFEFEFEFE00FEFE11
:103BD000FEFEFEFEFE00FEFEFEFEFEFEFEFEFEFE03
:103BE000FEFEFEFEFEFEFEFEFEFEFEFEFEFEFEFEF5
:103BF000FEFEFEFEFEFE000000FEFEFEFE00FEFEDD
:103C0000FEFEFEFEFEFE0000FEFEFEFEFEFEFEFED0
:103C100000FEFEFEFE000000FEFEFEFEFEFEFEFEBC
:103C2000FEFEFEFEFEFE00FEFEFEFEFEFEFE00FEB0
:103C3000FEFEFEFEFE000000FEFEFEFEFEFE00FE9C
:103C4000FEFEFEFEFEFE00FEFEFEFEFEFEFE00FE90
:103C5000FEFEFEFEFEFEFE00FEFEFEFEFEFEFEFE82
:103C6000FEFEFEFEFEFEFEFEFEFEFEFEFEFEFEFE74
:103C7000FEFEFEFEFE00FEFE00FEFEFEFE00FEFE5E
:103C800000FEFEFEFE00FEFE00FEFEFEFE00FEFE4C
:103C900000FEFEFEFEFE0000FEFEFEFEFEFEFEFE3E
:103CA000FEFEFEFEFEFEFEFEFEFEFEFEFEFEFEFE34
:103CB000FEFEFEFE00FEFEFE00FEFEFEFE00FE001C
:103CC000FEFEFEFEFE00FE00FEFEFEFEFEFE00FE0E
:103CD000FEFEFEFEFEFE00FEFEFEFEFEFEFEFEFE02
:103CE000FEFEFEFEFEFEFEFEFEFEFEFEFEFEFEFEF4
:103CF000FEFEFEFE00FEFEFE00FEFEFE00FEFEFEDE
:103D000000FEFEFE00FE00FE00FEFEFEFE00FE00C7
:103D1000FEFEFEFEFE00FE00FEFEFEFEFEFEFEFEBF
:103D2000FEFEFEFEFEFEFEFEFEFEFEFEFEFEFEFEB3
:103D3000FEFEFEFE00FEFEFE00FEFEFEFE00FE009B
:103D4000FEFEFEFEFEFE00FEFEFEFEFEFE00FE008D
:103D5000FEFEFEFE00FEFEFE00FEFEFEFEFEFEFE7F
:103D6000FEFEFEFEFEFEFEFEFEFEFEFEFEFEFEFE73
:103D7000FEFEFEFE00FEFEFE00FEFEFEFE00FE005B
:103D8000FEFEFEFEFE00FE00FEFEFEFEFEFE00FE4D
:103D9000FEFEFEFEFEFE00FEFEFEFEFE0000FEFE3D
:103DA000FEFEFEFEFEFEFEFEFEFEFEFEFEFEFEFE33
:103DB000FEFEFEFEFE00000000FEFEFEFEFEFE0019
:103DC000FEFEFEFEFEFE00FEFEFEFEFEFE00FEFE0F
:103DD000FEFEFEFEFE00000000FEFEFEFEFEFEFEFB
:103DE000FEFEFEFEFEFEFE00FEFEFEFEFEFE00FEEF
:103DF000FEFEFEFEFEFE00FEFEFEFEFEFE00FEFEDF
:103E0000FEFEFEFEFEFE00FEFEFEFEFEFEFE00FECE
:103E1000FEFEFEFEFEFE00FEFEFEFEFEFEFEFE00BE
:103E2000FEFEFEFEFEFE00FEFEFEFEFEFEFE00FEAE
:103E3000FEFEFEFEFEFE00FEFEFEFEFEFEFEFEFEA0
:103E4000FEFEFEFEFEFEFEFEFEFEFEFEFEFE00FE90
:103E5000FEFEFEFEFEFE00FEFEFEFEFEFEFE00FE7E
:103E6000FEFEFEFEFE00FEFEFEFEFEFEFEFE00FE6E
:103E7000FEFEFEFEFEFE00FEFEFEFEFEFEFEFE005E
:103E8000FEFEFEFEFEFE00FEFEFEFEFEFEFE00FE4E
:103E9000FEFEFEFEFEFE00FEFEFEFEFEFE00FEFE3E
:103EA000FEFEFEFEFE0000FE00FEFEFE00FE000026
:103EB000FEFEFEFEFEFEFEFEFEFEFEFEFEFEFEFE22
:103EC000FEFEFEFEFEFEFEFEFEFEFEFEFEFEFEFE12
:103ED000FEFEFEFEFEFEFEFEFEFEFEFEFEFEFEFE02
:103EE000FEFEFEFEFEFE0000FEFEFEFEFE00FEFEEC
:103EF00000FEFEFE00FE0000FE00FEFE0000FEFED4
:103F0000FE00FEFE0000FEFEFE00FEFE00FE0000C3
:103F1000FE00FEFEFE00FEFE00FEFEFEFEFE0000B7
:103F2000FEFEFEFEFFFFFFFFFFFFFFFFFFFFFFFFA5
:103F3000FFFFFFFFFFFFFFFFFFFFFFFFFFFFFFFF91
:103F4000FFFFFFFFFFFFFFFFFFFFFFFFFFFFFFFF81
:103F5000FFFFFFFFFFFFFFFFFFFFFFFFFFFFFFFF71
:103F6000FFFFFFFF02020000000002020102111227
:103F70000202232431320202030413140202252612
:103F80003334020205061516020205063536020212
:103F9000070817180202072737380202090A191AF8
:103FA00002020B0C1B1C02020D0E1D1E02020F1042
:103FB0001F2002022829393A0202282A393B02022C
:103FC0002D2E3E3F02022B2C3C3D0202404151521D
:103FD0000202626374750202424353540202646532
:103FE00076770202444555560202666778790202E6
:103FF00046475758020268697A7B02024849595A73
:1040000002026A6B7C7D02024A4B5B0002026C6D0D
:104010007E7F0202004C5C5D02026E6F80810201B5
:104020004D4E02015E5F02027071828302024F50A8
:104030006061020272738485FEFEFEFEFEFEFEFEDD
:10404000FEFEFEFEFEFEFEFEFEFEFEFEFEFEFEFE90
:10405000FEFEFEFEFEFEFEFEFEFEFEFEFEFEFEFE80
:10406000FEFEFEFEFEFEFEFEFEFEFEFEFEFEFEFE70
:10407000FEFEFEFEFEFEFEFEFEFEFEFEFE3D3D3DA3
:10408000FEFEFEFE3D3D3D3DFEFE67FE3D1E1E1E4C
:10409000FEFE67FE1E1E1E1EFEFE67671E673D6754
:1040A000FEFE67671E671E67FEFEFE67676767673F
:1040B000FEFEFE3D3D67671E3D3D3DFEFEFEFEFEF3
:1040C0003D3D3D3DFEFEFEFE1E1E1E3DFE67FEFE0C
:1040D0001E1E1E1EFE67FEFE673D671E6767FEFE14
:1040E000671E671E6767FEFE67676767671EFEFEDF
:1040F0001E67673D3D1EFEFEFEFEFEFEFEFE3D3DD2
:10410000FEFEFE1E1E1E1E3DFEFE1E1E1E1E1E1E50
:10411000FEFEFE1E1E1E1E1E1EFEFE673D67671E65
:104120001E6767671E67671E1EFEFE676767676715
:104130001EFEFE676767673D3D3DFEFEFEFEFEFE1E
:104140003D3D3D3DFEFEFEFE3D3D673D3D3DFEFEEF
:104150001E67673D3D3D3DFE6767673D3DFE3DFE99
:1041600067671E1E3DFEFEFE671E1E1EFEFEFEFE55
:104170003D3D3DFEFEFEFEFEFEFEFE3D3D3D3D3D67
:10418000FEFE3D3D3D3D3D3D67FE3D3D3D3D3D3DF2
:10419000673D3D3D3D3D3D3D671E3D3D3D3D3D3D1A
:1041A00067671E1E3D3D3D3DFE671E1E1E3D3D1EBA
:1041B000FE1E3D1E1E1E1E1E3DFEFEFEFEFEFEFEE1
:1041C0003D3DFEFEFEFEFEFE3D3DFE67FEFEFEFEAA
:1041D0003D3D3D67FEFEFEFE3D3D1E67FEFEFEFED2
:1041E0001E1E6767FEFEFEFE1E1E67FEFEFEFEFE34
:1041F0001E3D1EFEFEFEFEFEFEFEFEFEFE3D3D3DA3
:10420000FEFEFE3D3D3D3D3DFE3D3D3D673D3D1ECF
:104210003D3D3D3D67671E1E3DFE3D3D6767671E98
:10422000FEFE3D1E1E67671EFEFEFE1E1E1E67670B
:10423000FEFEFEFE3D3D3D3D3DFEFEFEFEFEFEFE63
:104240001E1E1E1EFEFEFEFE1E1E1E1E1EFEFEFE6E
:104250001E1E1E1EFEFEFEFE67673D67FEFEFEFE84
:1042600067671E676767FEFE67676767FE1EFEFE7D
:1042700067676767FE1EFEFEFEFEFE1E1EFE3D3DDC
:10428000FEFE1E271E3D3D3DFE1E1E273D3D1E1E01
:104290001E1E27273D1E1E1E1E1E27271E273D27CA
:1042A000271E1E271E271E27FE271E1E3D27271EF0
:1042B000FEFE271E3D3D271E3D3D3DFEFEFEFEFE51
:1042C0003D3D3D3DFEFEFEFE1E1E3D3D3DFEFEFE15
:1042D0001E1E1E3D3DFE27FE273D1E1E3D2727FEBE
:1042E000271E271E3D27FEFE1E27272727FEFEFE30
:1042F0001E27271E1EFEFEFEFEFEFEFEFEFE3D3DAE
:10430000FEFEFE1E1E1E1E3DFEFE1E1E1E1E1E1E4E
:10431000FEFEFE1E1E1E1E1EFEFEFE273D27271E43
:10432000FE2727271E27271EFEFEFE2727272727D3
:10433000FEFE27272727273D3D3DFEFEFEFEFEFE13
:104340003D3D3D3DFEFEFEFE3D3D273D3DFEFEFE6C
:104350001E27273D3DFEFEFE2727273D3D3DFEFE55
:1043600027271E1E3D3D3DFE271E1E1EFEFE3DFE56
:104370003D3D3D3DFEFEFEFEFEFEFE1E3D3D3D3D45
:10438000FE27FE3D3D3D3D3DFE271E3D3D3D3D3D65
:10439000FE27273D3D3D3D3DFE1E271E3D3D3D3D4B
:1043A000FE1E271E1E3D3D3DFE1E1E3D1E1E3D1EC9
:1043B000FE1E1E3D3D1E1E1E3DFEFEFEFEFEFEFEC0
:1043C0003D3DFEFEFEFEFEFE3D3D3DFEFEFEFEFED2
:1043D0003D3D3DFE27FEFEFE3D3D1E2727FEFEFE27
:1043E0001E1E1E27FEFEFE271E1E3D27FEFE271E4A
:1043F0001E3D1E1E1E271E1EFEFEFEFEFEFE3D3D37
:10440000FEFEFEFE3D3D3D3DFEFEFE3D3D273D3DAB
:10441000FEFEFE3D3D27271EFEFE3D3D3D27272794
:10442000FE3D3D3D1E1E2727FE3DFEFE1E1E1E2795
:10443000FEFEFEFE3D3D3D3D3D3DFEFEFEFEFEFE22
:104440003D1E1E1E1EFEFEFE1E1E1E1E1E1EFEFE0D
:104450001E1E1E1E1EFEFEFE1E27273D27FEFEFE02
:104460001E27271E272727FE2727272727FEFEFE92
:104470003D2727272727FEFEFE1E1E1E1E1E6767DE
:104480001E1E671E1E1E1E3D1E6767671E1E671EC0
:104490001E1E671E1E1E673D1E1E671E1E1E671EF9
:1044A0001E1E1E1E1E1E673DFE67676767671EFE97
:1044B000FEFEFEFE1E1E1EFE67673D3D1E1E1EFE0C
:1044C0003D3D3D3D671E1EFE1E3D3D6767671EFE6E
:1044D0001E1E1E1E676767FE1E3D3D3D3D67FEFEBC
:1044E0003D3D3D3DFEFEFEFEFE1E1E1EFEFEFEFE90
:1044F000FEFEFEFEFEFEFEFE1E671E1E1E3D3D3D36
:104500001E671E1E3D3D3D671EFE1E1E3D3D3D6756
:104510001EFEFEFE1E3D3D3D1EFEFEFE1E1E1E1E1E
:10452000FEFEFEFE3D3D3D3DFEFEFEFEFEFEFE1E8F
:10453000FEFEFEFEFEFE1E1E3D3D3D3D1EFEFEFE3F
:1045400067673D1E1E1EFEFE67671E1E1E1EFEFEC8
:1045500067671E1E1E1EFEFE3D3D1E1E3DFEFEFE2C
:104560003D3D3D3D3D3DFEFE1E1E1EFEFEFEFEFE91
:104570001E1E1EFEFEFEFEFE1E1E3D3D3D3D3D3D41
:104580001E1E3D3D3D3D3D3DFE1E1E3D3D3D3D3D16
:10459000FE3D3D1E1E1E1E1EFE3D3D3D3D3D3D3D64
:1045A000FE1E1E1E3D3D3D3DFE1E1E1E1EFEFE1E2F
:1045B000FEFE1E1EFEFEFEFE3D1E1EFEFEFEFEFE5C
:1045C0003D1E1E67FEFEFEFE3D1E1E67FEFEFEFE3B
:1045D0001E3D6767FEFEFEFE3D3D3DFEFEFEFEFE0D
:1045E0003D1EFEFEFEFEFEFE1EFEFEFEFEFEFEFE6C
:1045F000FEFEFEFEFEFEFEFEFEFE3D1E1E3D3D6775
:10460000FEFE1E1E1E1E1E67FE3D1E1E1E1E1E6779
:10461000FE3D3D1E1E1E1E3D1E1E3D3D3D3D3D1EE2
:104620001E1E1E3D3D3D3D3DFE1E1E1EFEFEFEFEAF
:10463000FEFEFEFEFEFEFEFE67671E1E671EFEFEFF
:1046400067673D1E671EFEFE673D3D1EFE1EFEFEA9
:104650003D3D1EFEFE1EFEFE1E1E1E3DFE1EFEFEFD
:104660003D3D3D1E1EFEFEFEFE1E1E1EFEFEFEFE0D
:10467000FEFEFEFEFEFEFEFEFEFEFE273D3D3D274B
:10468000FEFEFEFE1E3D3D3DFEFEFEFE3D1E3D1EAF
:10469000FEFEFEFE3D3D1E1EFEFEFE1E1E3D3D1E9E
:1046A000FEFE1E1E1EFE3D3DFEFEFEFEFEFEFEFE4C
:1046B000FEFEFEFEFEFEFEFE27271E1E1E1EFEFE48
:1046C0003D3D1E1E1E1EFEFE1E1E1E1E1E3DFEFE2D
:1046D0003D1E1E1E3D3DFEFE1E27271E3D3D1EFEAD
:1046E0002727273D3D1E1E1E272727FE1E1E1E1E96
:1046F000FEFEFEFEFEFEFEFEFEFE2727271E1E1EFF
:10470000FEFEFE27271E1E1EFEFEFEFE3D1E1E1E78
:10471000FEFEFE1E1E3D3D3DFEFEFE1E1E1E1E1E1C
:10472000FEFE1E1E3D3D3D3DFE1E1E1E1EFEFEFEED
:10473000FEFEFEFEFEFEFEFE1E1E1E3D3DFEFEFEBB
:104740001E1E1E1E3DFEFEFE1E1E1E1E3D3DFEFECC
:104750001E1E1E3D3D3D3DFE3D3D3D3D3D3D1E1E63
:104760003D3D3D3D3D1E1E1EFEFEFEFE1E1E1EFE6E
:10477000FEFEFEFEFEFEFEFEFEFE1E3D3D3D3D3DFE
:10478000FEFE1E3D3D3D3D3DFEFE3D1E3D3D3D3D93
:10479000FE1E3D3D1E1E1E1E1E1E3D3D3D3D3D3D61
:1047A0001E1E1EFEFEFEFE3DFEFEFEFEFEFEFEFE8A
:1047B000FEFEFEFEFEFEFEFE3D3D1E1E271E1E1ED2
:1047C0003D3D1E271E1E1E1E3D3D271E1E1E1EFE9B
:1047D0001E1E1E271E1EFEFE3D3D3D3D27FEFEFE0B
:1047E0003D3D3D1E1EFEFEFEFEFE1E1E1E1EFEFE6C
:1047F000FEFE1E1E1E1EFEFEFEFEFE3D3D1E1E1E7B
:10480000FEFEFE3D1E1E1E1EFEFE3D3D1E1E1E1E0B
:10481000FE3D3D3D3D1E1E1E1E1E3D3D3D3D3D3DA2
:104820001E1E1E3D3D3D3D3DFE1E1E1EFEFEFEFEAD
:10483000FEFEFEFEFEFEFEFE1E1E1E272727FEFEBD
:104840001E1E1E2727FEFEFE1E1E1E3DFEFEFEFE37
:104850003D3D3D1E1EFEFEFE1E1E1E1E1EFEFEFEDB
:104860003D3D3D3D1E1EFEFEFEFEFE1E1E1E1EFEAC
:10487000FEFEFEFEFEFEFEFE005B5B0407071F3F22
:10488000005B5B0407071F3F005B5B0407071F3FDC
:10489000005B5B0407071F3F005B5B0407071F3FCC
:1048A000005B5B0407071F3F005B5B0407071F3FBC
:1048B000005B5B0407071F3F3F68E9E99195959509
:1048C0003F68E9E9919595953F68E9E99195959556
:1048D0003F68E9E9919595953F68E9E99195959546
:1048E0003F68E9E9919595953F68E9E99195959536
:1048F0003F68E9E991959595FEFEFEFEFE3D3D3D42
:10490000FEFEFEFE3D3D3D3DFEFE67FE3D1E1E1EC3
:10491000FEFE67FE1E1E1E1EFEFE67671E673D67CB
:10492000FEFE67671E671E67FEFEFE6767676767B6
:10493000FEFEFEFE3D67671E3D3D3DFEFEFEFEFEA9
:104940003D3D3D3DFEFEFEFE1E1E1E3DFE67FEFE83
:104950001E1E1E1EFE67FEFE673D671E6767FEFE8B
:10496000671E671E6767FEFE67676767671EFEFE56
:104970001E67673D1E1EFEFEFEFEFEFEFEFEFEFEE6
:10498000FEFEFEFEFE3D3D3DFEFE1E1E1E1E3D3D8C
:10499000FE1E1E1E1E1E1E3DFEFE1E1E1E1E1E1E78
:1049A000FEFE673D67671E676767671E67671E676E
:1049B0001EFE676767676767FEFEFEFEFEFEFEFE81
:1049C0003DFEFEFEFEFEFEFE3D3D3DFEFEFEFEFE0B
:1049D0003D673D3D3DFEFEFE67673D3D3D3DFEFEC4
:1049E00067673D3DFE3DFEFE671E1E3DFEFEFEFE70
:1049F0001E1E1EFEFEFEFEFE3DFEFEFEFEFEFEFE38
:104A00001E1E1E1EFEFEFEFE1E1E1E1E1EFEFEFEA6
:104A10001E1E1E1EFEFEFEFE67673D67FEFE1EFE9C
:104A200067671E6767671EFE67676767FEFE1EFE95
:104A300067676767FEFE1EFEFE2727FEFEFE3D3D02
:104A4000FE272727FE3D1E1EFE1E1EFE3D1E1E1EAD
:104A5000FE1E1E271E273D27FE1E1E2727271E2758
:104A6000FEFE1E1E27272727FEFE1E1E1E27271EB0
:104A7000FEFE1E1E1E3D271E3D3D3DFEFEFEFEFEB1
:104A80003D3D3D3DFEFEFEFE1E1E1E3DFE27FEFE82
:104A90001E1E1E1EFE27FEFE273D271E2727FEFE8A
:104AA000271E271E2727FEFE27272727271EFEFE55
:104AB0001E27273D1E1EFEFE3D3DFEFEFE2727FE55
:104AC0001E1E3DFE272727FE1E1E1E3DFE1E1EFE2D
:104AD000273D271E271E1EFE271E2727271E1EFED8
:104AE000272727271E1EFEFE1E27271E1E1EFEFE30
:104AF0001E273D1E1E1EFEFEFEFEFEFEFEFEFFFEED
:104B0000FEFEFEFEFEFEFEFEFEFEFEFEFFFEFEFEC4
:104B1000FEFEFFFEFEFEFEFEFEFEFEFEFEFEFFFFB2
:104B2000FEFEFEFFFEFEFEFEFEFEFFFEFEFEFEFEA3
:104B3000FEFEFEFEFFFEFFFEFEFFFEFEFEFEFEFE92
:104B4000FEFEFEFEFEFEFEFEFEFEFEFFFEFEFEFE84
:104B5000FEFEFEFEFEFFFEFEFFFFFEFEFEFEFEFE72
:104B6000FEFEFEFEFFFEFEFEFEFEFEFEFEFFFEFE63
:104B7000FEFFFEFFFEFEFEFEFEFEFEFEFEFFFFFF50
:104B8000FEFEFEFEFFFFFFFFFEFEFFFFFFFFFFFF3B
:104B9000FEFFFFFFE0FFFFFFFEFFFFE0FFFFFFFF65
:104BA000FEFFFFE0FFFFFFFFFFFFFFE0FFFFFFFF54
:104BB000FFFFFFFFE0FFFFFFFFFFFFFEFEFEFEFE29
:104BC000FFFFFFFFFEFEFEFEFFFFFFFFFFFFFEFEFB
:104BD000FFFFFFE0FFFFFFFEFFFFFFFFE0FFFFFE25
:104BE000FFFFFFFFE0FFFFFEFFFFFFFFE0FFFFFF14
:104BF000FFFFFFE0FFFFFFFFFFADAD5DA6A62FB7F4
:104C0000FFADAD5DA6A62FB7FFADAD5DA6A62FB7D4
:104C1000FFADAD5DA6A62FB7FFADAD5DA6A62FB7C4
:104C2000FFADAD5DA6A62FB7FFADAD5DA6A62FB7B4
:104C3000FFADAD5DA6A62FB7B735F4F4A3F6F6F633
:104C4000B735F4F4A3F6F6F6B735F4F4A3F6F6F6B2
:104C5000B735F4F4A3F6F6F6B735F4F4A3F6F6F6A2
:104C6000B735F4F4A3F6F6F6B735F4F4A3F6F6F692
:104C7000B735F4F4A3F6F6F6FEFE1E1E1E1E1E67E2
:104C8000FE1E1E671E1E1E1EFE1E6767671E1E6717
:104C9000FE1E1E671E1E1E67FE1E1E671E1E1E6750
:104CA000FE1E1E1E1E1E1E67FEFE6767676767FEEE
:104CB000FEFEFEFEFEFEFEFE67673D3D3D67FEFE1C
:104CC0003D3D3D3D3D67FEFE1E1E3D3D1EFEFEFE82
:104CD0003D1E1E1E3DFEFEFE1E1E3D3D3DFEFEFE19
:104CE0003D3D3D1EFEFEFEFEFE1E1E1EFEFEFEFEA7
:104CF000FE1E1E1EFEFEFEFE1EFE676767673D3D32
:104D00001E671E1E6767673D1E671E3D6767671E3D
:104D10001EFE1E3D3D67671E1EFEFE1E3D3D3D1EE6
:104D20001EFE3D1E1E1E1E3DFE1E1E3D3D3D3D3D0A
:104D3000FEFE1E1E1EFEFEFE3D3DFEFEFEFEFEFEB5
:104D40003D1E1E3DFEFEFEFE1E1E1E1EFEFEFEFE45
:104D50001E1E1E1E3DFEFEFE1E1E1E3D3DFEFEFED6
:104D60003D3D3D3D1E1EFEFE3D3D3D1E1E1EFEFE0A
:104D7000FEFE1E1E1EFEFEFEFE1E1E3D3D3D3D3D78
:104D8000671E1E3D3D3D3D3D671E1E3D3D3D3D3D7B
:104D900067673D1E1E1E1E1EFE3D3D3D3D3D3D3DC9
:104DA000FEFE1E3D3D3D3D3DFEFEFE1E1EFEFE1E68
:104DB000FEFEFEFEFEFEFEFE3D3D1E1EFEFEFEFE55
:104DC0003D3D1E1EFEFEFEFE3D1E1EFEFEFEFEFEC6
:104DD0001E3D3DFEFEFEFEFE3D3D3DFEFEFEFEFE98
:104DE0001E1E1EFEFEFEFEFE1E1E1EFEFEFEFEFE23
:104DF0001E1EFEFEFEFEFEFEFEFE1E3D3D3D3D3D38
:104E0000FE1E1E1E3D676767FE1E1E1E1E6767672D
:104E1000FE1E1E1E1E67673DFEFE3D1E1E3D3D1E04
:104E2000FE3D3D3D3D3D3D3DFEFEFEFE1E1E1E1E69
:104E3000FEFEFEFE1E1E1E1E3D3D1E1E1E671EFEAB
:104E40003D3D3D1E1E671EFE3D3D3D1E1EFE1EFEDF
:104E50003D3D1EFEFEFE1EFE1E1E1EFEFEFE1EFE34
:104E60003D3D3DFEFEFEFEFEFEFEFEFEFEFEFEFEA5
:104E70001EFEFEFEFEFEFEFEFEFEFE1E3D3D3D3D16
:104E8000FEFEFE1E3D3D3D3DFEFEFE3D3D3D1E1E29
:104E9000FEFEFE1E1E1E1E3DFEFEFE3D3D3D1E1E76
:104EA000FEFEFE3D3D3D3D3DFEFEFEFE1E1E1EFE87
:104EB000FEFEFEFE1E1E1EFE27273D3D3D27FEFE7A
:104EC0003D3D3D3D3D27FEFE1E1E3D3D1EFEFEFEC0
:104ED0003D1E1E1E3DFEFEFE1E1E3D3D3DFEFEFE17
:104EE0003D3D3D1EFEFEFEFEFE1E1E1EFEFEFEFEA5
:104EF000FE1E1E1EFEFEFEFE3D3D3D3D1EFEFEFE56
:104F00003D3D3D3D1EFEFEFE1E1E3D3D3DFEFEFEA8
:104F10003D1E1E1E1EFEFEFE1E1E3D3D3DFEFEFEF5
:104F20003D3D3D3D3DFEFEFEFE1E1E1EFEFEFEFE06
:104F3000FE1E1E1EFEFEFEFEFFFEFEFEFEFEFEFE30
:104F4000FEFEFEFEFFFEFEFFFEFEFFFEFEFEFEFE7E
:104F5000FEFEFEFEFEFEFEFFFEFEFFFEFEFEFEFE6F
:104F6000FEFEFEFEFEFFFEFEFEFEFEFEFEFEFEFF5F
:104F7000FEFEFEFEFEFFFFFEFEFEFEFEFEFEFEFF4E
:104F8000FFFEFEFFFEFEFEFEFEFEFEFEFEFFFEFE3E
:104F9000FFFEFEFEFEFEFEFEFEFEFEFEFEFFFEFE2F
:104FA000FEFEFFFEFEFEFEFEFFFEFEFEFEFEFEFE1F
:104FB000FEFFFFFEFEFEFEFEFFFFFFFFFFFFFFFF07
:104FC000FFFFFFFFFFFFFFFFFEFFFFFFFFFFFFFFF2
:104FD000FEFFE0FFFFE0FFFFFEFEE0FFFFE0E0FF7F
:104FE000FEFEE0FFFFFFE0E0FEFEFEE0FFFFFFFF52
:104FF000FEFEFEFEFFFFFFFEFFFFFFFFFFFFFFFFC6
:10500000FFFFFFFFFFFFFFFFFFFFFFFFFFFFFFFEB1
:10501000FFFFE0FFFFE0FFFEFFE0E0FFFFE0FEFE3E
:10502000E0E0FFFFFFE0FEFEFFFFFFFFE0FEFEFE11
:10503000FEFFFFFFFEFEFEFEFEFE17FEFEFE17FE5B
:10504000FEFE17FEFEFEFE17FEFEFEFEFE17FE171C
:10505000FEFE27FEFE171717FEFEFE17FE17171798
:10506000FE17FE1717FE1717FE1717171727171724
:1050700017FE171717171717FEFEFEFEFEFEFEFEA1
:10508000FEFE17FE27FEFEFE17FEFE17FE17FEFEB3
:105090001717FE17FE17FEFE17171717FEFEFEFE68
:1050A00017271717FE1727FE17172717171717FEAB
:1050B00027172717171717FEFEFEFEFEFEFEFEFE41
:1050C000FEFEFEFEFE1717271717FE1717271717E6
:1050D000FE17171717171717FEFE1717171727179B
:1050E0001717171727171717FE171717FFFF171789
:1050F000FEFE17FFFF17FFFFFEFEFEFEFEFEFEFE9A
:10510000271717FEFEFEFEFE1717271717FE1717A5
:1051100017171717171717FE172717171717FEFE5A
:1051200017171727171717171717FFFF171717FE48
:10513000FFFF17FFFF17FEFEFEFEFEFEFEFE17FE40
:10514000FEFEFEFEFEFE1717FEFEFE17FEFE171702
:10515000FEFEFE17171717FFFE17FEFE17FFFFFFD5
:10516000FE1717FE17FF1717FE171717FF1717174A
:10517000FE171717FFFFFFFFFEFE17FEFE17FEFECE
:10518000FE1717FE1717FEFE1717171717FEFEFE5E
:10519000FF1717171717FEFEFFFF27171717FEFE3B
:1051A00017FF1717172717FEFF171727171717FED1
:1051B000FF171717171727FEFEFEFEFEFEFEFEFE68
:1051C000FEFEFEFE17171717FEFEFEFEFE17171750
:1051D000FEFE1717FEFE1717FEFEFE171717FFFF3E
:1051E000FEFEFE17FFFF17FF17171717FF1717FF12
:1051F000FE1717FFFF1717FFFEFEFEFEFEFEFEFE68
:1052000017171717FEFEFEFE171717FEFEFEFEFE0F
:105210001717FEFE1717FEFEFFFF171717FEFEFEFD
:10522000FF17FFFF17FEFEFEFF1717FF17171717D1
:10523000FF1717FFFF1717FEFE17FEFE17FEFEFEF5
:10524000FE1717FE1717FE17FEFE1717171717176B
:10525000FE1717171717FFFFFE17171727FFFFFF78
:105260001727171717FF1717171717271717FF17DE
:10527000271717171717FFFF17FEFEFEFEFEFEFE8D
:1052800017FEFEFEFEFEFEFE17FEFE17FEFEFEFEF3
:1052900017171717FEFEFEFEFFFF17FEFE17FEFE96
:1052A00017FF17FE1717FEFE1717FF171717FEFE3B
:1052B000FFFFFF171717FEFEFEFEFEFEFE3D3D3D03
:1052C000FEFEFEFEFE272727FEFEFEFEFE3D3D3DC6
:1052D000FEFEFE3DFE272727FEFEFE3D3D3D3D3DF9
:1052E000FEFEFEFEFE1F1F1FFEFEFEFEFE1F1F1F18
:1052F000FEFEFEFEFE1F1F1FFEFEFEFEFEFEFEFE6B
:10530000FEFEFEFEFEFEFEFEFEFEFEFEFEFEFEFEBD
:10531000FE3DFEFEFEFEFEFE3D3DFEFEFEFEFEFEF0
:10532000FEFEFEFEFEFEFEFEFEFEFEFEFEFEFEFE9D
:10533000FEFEFEFEFEFEFEFEFE1FFEFEFEFEFEFE6C
:105340001F1F1FFEFEFEFEFE1F1F1FFEFEFEFEFEB7
:105350001F1F1FFEFEFEFEFE1F1F1FFEFEFEFEFEA7
:105360001F1F1FFEFEFEFEFE1F1F1FFEFEFEFEFE97
:105370001F1F1FFEFEFEFEFEFEFEFEFE81FE81FEE4
:10538000FEFEFE8181FEE081FEFE81818181E08161
:10539000FEFE818181818181FE8181818181818186
:1053A000FE818181818181818181FE81FE81818176
:1053B00081FEFEFEFEFE81FEFE81FE81FEFEFEFE01
:1053C00081E0FE8181FEFEFE81E081818181FEFE21
:1053D000818181818181FEFE81818181818181FE46
:1053E00081818181818181FE818181FE81FE818136
:1053F000FE81FEFEFEFEFE81FEFEFEFEFEFEFEFEC7
:10540000FEFEFEFEFEFEFEFEFEFEFEFEFEFEFEFEBC
:10541000FEFEFEFFFEFEFEFEFEFEFEFEFEFEFEFFAA
:10542000FEFEFEFEFEFFFEE0FEFEFEFEFEFEFEFFB8
:10543000FEFEFEFEFFE0FFE0FEFEFEFEFEFEFEFEC6
:10544000FEFEFEFEFEFEFEFEFEFEFEFEFEFEFEFE7C
:10545000FEFEFEFFFEFEFEFEFEFEFEFEFEFEFEFE6B
:10546000FEFFFEFEFEFEFEFEFEFEFEFEFEFEFEFE5B
:10547000FFE0FFFEFEFEFEFE17FE171717172717A9
:10548000171717171727172717171717272727274C
:10549000FE1717272727FF27FE17172727FFFFFFCE
:1054A000FEFE17172727FFFFFEFE171717272727D0
:1054B000FEFEFEFE1717171727172727171717FEC9
:1054C000272727272717FE17FF272717271717171D
:1054D000FF27FF2727171717FFFF2727171717FE85
:1054E000FFFF2727171717FE272717171717FEFE87
:1054F000171717FEFEFEFEFEFE1717FFFF1717FF1A
:1055000017171717FF1717FFFEFEFE17FFFF17FFEE
:10551000FEFEFE171717FFFFFEFE1717FEFE1717FA
:10552000FEFEFEFEFE171717FEFEFEFE17171717EC
:10553000FEFEFEFEFEFEFEFEFF1717FFFF1717FE24
:10554000FF1717FF17171717FF17FFFF17FEFEFEAE
:10555000FFFF171717FEFEFE1717FEFE1717FEFEBA
:10556000171717FEFEFEFEFE17171717FEFEFEFEAC
:10557000FEFEFEFEFEFEFEFEFE171717FFFFFFFFFC
:10558000FE171717FF171717FE1717FE17FF171726
:10559000FE17FEFE17FFFFFFFEFEFE17171717FF91
:1055A000FEFEFE17FEFE1717FEFEFEFEFEFE17179E
:1055B000FEFEFEFEFEFE17FEFF171717171727FE4B
:1055C000FF171727171717FE17FF1717172717FEAD
:1055D000FFFF27171717FEFEFF1717171717FEFEF7
:1055E0001717171717FEFEFEFE1717FE1717FEFEFA
:1055F000FEFE17FEFE17FEFEFEFE17FFFF17FFFF63
:10560000FE171717FFFF1717171717172717171763
:10561000FEFE171717172717FE1717171717171755
:105620001717FE1717271717FEFEFEFEFE17172780
:10563000FEFEFEFEFEFEFEFEFFFF17FFFF17FEFE54
:105640001717FFFF171717FE171717271717171723
:10565000172717171717FEFE17171717171717FE15
:105660001717271717FE1717271717FEFEFEFEFE40
:10567000FEFEFEFEFEFEFEFE271717171717FFFFA2
:10568000171717271717FF171727171717FF1717BA
:10569000FE17171727FFFFFFFE1717171717FFFF34
:1056A000FEFE171717171717FE1717FE1717FE1707
:1056B000FE17FEFE17FEFEFEFFFFFF171717FEFE8A
:1056C0001717FF171717FEFE17FF17FE1717FEFE17
:1056D000FFFF17FEFE17FEFE17171717FEFEFEFE52
:1056E00017FEFE17FEFEFEFE17FEFEFEFEFEFEFE8F
:1056F00017FEFEFEFEFEFEFEFEFEFEFEFE1F1F1F4E
:10570000FEFEFEFEFE1F1F1FFEFEFEFEFE1F1F1FF3
:10571000FEFEFEFEFE1F1F1FFEFEFEFEFE1F1F1FE3
:10572000FEFEFEFEFE1F1F1FFEFEFEFEFE1F1F1FD3
:10573000FEFEFEFEFEFE1FFEFEFEFEFEFEFEFEFE68
:10574000FEFEFEFEFEFEFEFEFEFEFEFEFEFEFEFE79
:10575000FEFEFEFEFEFE3D3DFEFEFEFEFEFE3DFEAC
:10576000FEFEFEFEFEFEFEFEFEFEFEFEFEFEFEFE59
:10577000FEFEFEFEFEFEFEFE1F1F1FFEFEFEFEFEE6
:105780001F1F1FFEFEFEFEFE1F1F1FFEFEFEFEFE73
:105790003D3D3D3D3DFEFEFE272727FE3DFEFEFE34
:1057A0003D3D3DFEFEFEFEFE272727FEFEFEFEFEE1
:1057B0003D3D3DFEFEFEFEFEFEFEFEFEFE8181FE46
:1057C000FEFEFEFEFE81E081FEFEFEFE8181E081A6
:1057D000FEFEFEFE81818181FEFEFE81818181814E
:1057E000FEFEFEFE818181FEFEFEFEFE8181FEFE4A
:1057F000FEFEFEFEFE81FEFEFE8181FEFEFEFEFE40
:1058000081E081FEFEFEFEFE81E08181FEFEFEFE65
:1058100081818181FEFEFEFE8181818181FEFEFE0D
:10582000FE818181FEFEFEFEFEFE8181FEFEFEFE09
:10583000FEFE81FEFEFEFEFEFEFEFEFEFFE0FFE03F
:10584000FEFEFEFEFEFEFEFFFEFEFEFEFEFFFEE094
:10585000FEFEFEFEFEFEFEFFFEFEFEFFFEFEFEFE66
:10586000FEFEFEFEFEFEFEFEFEFEFEFEFEFEFEFE58
:10587000FEFEFEFEFEFEFEFEFFE0FFFEFEFEFEFE64
:10588000FEFEFEFEFEFEFEFEFEFFFEFEFEFEFEFE37
:10589000FEFEFEFEFEFEFEFEFEFEFEFFFEFEFEFE27
:1058A000FEFEFEFEFEFEFEFEFEFEFEFEFEFEFEFE18
:1058B000FEFEFEFEFEFEFEFEFEFEFEFEFEFEFEFE08
:1058C000FEFEFE27FE17FEFEFEFE17FE17FEFE176B
:1058D000FEFE17FE17FE1717FEFEFEFE1717171720
:1058E000FE2717FE17172717FE1717171727171763
:1058F000FE17171717271727FE17FEFEFE17FEFEC7
:1059000017FEFEFEFE17FEFE17FE17FEFEFEFEFE53
:10591000171717FEFE27FEFE171717FE17FEFEFECF
:105920001717FE1717FE17FE17172717171717FE5B
:10593000171717171717FE17FEFEFEFEFE1717277D
:10594000FEFEFE1717271717171717171717171722
:10595000FE17171717172717FEFE17172717171702
:1059600017171717FFFF1717FE1717FFFF17FFFF70
:10597000FEFE17FFFF1717FF271717FEFEFEFEFE9E
:105980001717271717FEFEFE1717171717171717E2
:1059900017271717171717FE171717271717FEFEC2
:1059A0001717FFFF17171717FFFF17FFFF1717FE30
:1059B000FF1717FFFF17FEFEFEFEFEFEFEFEFEFEB9
:1059C000FEFEFEFEFEFE1717FEFEFEFEFEFEFE17AC
:1059D000FEFEFEFE1717171717FEFEFE1717FFFF36
:1059E00017FEFEFEFE17FF171717171717FF1717DB
:1059F0001717171717FFFFFFFEFE17FEFE17FEFE15
:105A0000FE1717FE1717FEFE171717171717FEFEBC
:105A1000FFFF1717171717FEFFFFFF27171717FEB0
:105A20001717FF171717271717FF17172717171716
:105A3000FFFF171717171727FEFEFEFE171717177A
:105A4000FEFEFEFEFEFE1717FEFEFEFEFEFE171712
:105A5000FEFEFEFEFEFE1717FEFEFE1717FE1717D0
:105A6000FEFEFE171717FFFFFE17FE17FFFF17FFBB
:105A7000FE171717FF1717FF17171717FEFEFEFE63
:105A80001717FEFEFEFEFEFE1717FEFEFEFEFEFED2
:105A90001717FEFEFEFEFEFE1717FE1717FEFEFE90
:105AA000FFFF171717FEFEFEFF17FFFF17FE17FE7B
:105AB000FF1717FF171717FEFE17FEFE17FEFEFE55
:105AC000FE1717FE1717FE17FE17171717171717CA
:105AD0001717171717FFFF1717171727FFFFFFFFD6
