:100000000C9412230C948A230C948A230C948A2334
:100010000C948A230C948A230C948A230C948A23AC
:100020000C948A230C948A230C948A230C948A239C
:100030000C948A230C94E9230C9429240C948A238D
:100040000C948A230C948A230C948A230C948A237C
:100050000C948A230C948A230C948A230C948A236C
:100060000C948A230C948A230C948A230C948A235C
:100070005A5501200101003808000000000000006E
:100080000000000000000000000000000000000070
:100090008100450027FF24FF2A902B1C210C22FB06
:1000A000850084008903888D81096F0244424700DE
:1000B0004501B083B300B10125118A4F8B031D2781
:1000C0002027E82AD927D12729272E273327C227F7
:1000D000362739273C2780270002080008550408E6
:1000E0005A0000F8000990000A1E32050000FF00C7
:1000F0000000D80000000000000000000000000028
:1001000000000000000000000000000000000000EF
:1001100000000000000000000000000000000000DF
:1001200000000000000000000000000000000000CF
:1001300000000000000000000000000000000000BF
:10014000000000000000000000000049000000491D
:100150005252000052525C2D0000000000000000CE
:1001600000000000000000000040000000494A526A
:10017000004952525B1C52531C25241B2425251B6D
:100180000A0A2D1C12120A0A0000000000000000DA
:10019000404949494949525B5B5B525B1C1C131245
:1001A000241C1209090912090909090A0A0A0A0A7A
:1001B0000A13120A0A12130A0000000000009252E9
:1001C0005252525213121309001C0A1212401B659C
:1001D000090A0009241B120000251C1C010025240B
:1001E0001C1C002425242424000000000000524987
:1001F000494000001B1352494900641C1C5B4A48DB
:100200001C651C2552491C1C652464491C1C652561
:1002100064491C1C6D2E5C490000000000000000B9
:100220000000004900000000535200000053522516
:1002300000004A52252500005B251300005B530097
:100240000A1C095B1C657F374052522E2E1C525CE3
:100250002E251B1324251C1C12002525120000121C
:100260001B0000132E37001B37372E2E37372E2E4C
:100270002E2E2E2E6E6E6E1C1313120009131200FA
:10028000001213130012251C13132E371C13131303
:10029000361C131B1B1B25131C1C1B1B1B1C1C1C93
:1002A0001C1C1C1C1C1C1C131312121313001313F4
:1002B000131C000913131C010037131C13002E2EEE
:1002C0001C1C001C772E2500137F251C010A3724D7
:1002D0001C1C0A2E25250900132E242525252E2534
:1002E0002525252525252D2E251B2E2E251C1325C0
:1002F000251C1C1C1C011C1C1300011C0A00016590
:10030000775C016E7F6E521B25256D1C5249252599
:100310001C1353001C1C1C524A001B135B5B000087
:1003200009525C0000005B5C000000001B00000044
:100330000000000000000000135B7F776E6E136505
:1003400077766E6E1B65777676761B5BBF76B676B4
:1003500009136DBFB7B6001B125C76BF0000121BFD
:10036000125B00000000090A6E6E6E77241C6E6E30
:1003700077251C1C6E776E1C1C1C76761C1C242595
:10038000B765646D6D1B766D6D5B09125B5C5B120E
:100390005B641213131B12121C1C1C1C1C241C1C3F
:1003A000242525242425251B00002513000064BFD7
:1003B00000096EBFBF6D6EBF6D5B12135B1213122F
:1003C00009000901000000002E1C0900096E01004F
:1003D00009767F7F12777F7F6412BF775B121B09DC
:1003E0005B121B0900001B09000000000000000058
:1003F00000000000000000007F7F53131300641210
:100400001B0100001B1200000000000000000000A3
:1004100000000000000000000000000000000000DC
:1004200000000000000000000000000000002600A6
:10043000000026002F0000002F00370000003700CA
:10044000FF000000FF00BF000000BF0037000037C2
:100450000000002626000000000000000000262604
:1004600026262600000000002F00000000370000B4
:100470000000FF00000000BF000000003700000087
:100480000000262626262600000000000000262662
:10049000262626002F000000000037000000000084
:1004A000FFFFFFFF0000BF0000000000370000005A
:1004B0000000262626262600000000000000262632
:1004C000262600002F0000002F0037000000370014
:1004D000FFFFFFFF0000BF000000BF00370000006B
:1004E000370026262626000000000000000000003D
:1004F00026262600002F00002F00370000003700BE
:10050000FF000000FF00BF000000BF003700003701
:100510000000262626000000000000000000260043
:10052000000026002F0000002F00003700370000D9
:100530000000FF00000000BF00BF00003700000007
:100540003700260000002600000000000000000028
:10055000000000000000000000000000000000009B
:1005600000000000000000000000009B000000529E
:100570009BA400005B9B6D77000000000000000062
:100580000000000000000000005B000000E4F6FF37
:10059000099BEDF6FFBFA4ADBFBFBFBF767F7FB79E
:1005A000B7BF7F766EB7B7BF000000000000000045
:1005B0005BB6F6F6F6FFFFFFFFBFFFFFFFBFBFAE64
:1005C000FFFFFFB7AD65FFFFB7B6AD65FFFFBFB774
:1005D000AE6EFFFFBFB7B765000000000000F6F683
:1005E000EDEDADA4B66D6D5C526E656565526576D8
:1005F0005C5C52536E246552526E25255B52772DFA
:100600002525526E6E2D2525000000000000A49BBC
:100610009B4900006564A49B92006D252564934965
:10062000656E652E9B5224256D25655225246D2D02
:10063000655225256E2E6452000000000000000067
:100640000000004A000000005B9B0000005B5B2D87
:100650000000525B2E2E00015B2D1C01005C5B0133
:100660004A654A5B1C6E7F77495B9B77776D5B655C
:10067000776E65656D2D25255C522E25130949641D
:100680001C09095C7F7F091C7F7F777F777F7777E5
:100690007F7F7776777F7F6E656E6EA4B6FF655B32
:1006A000A4B7BFFF526DBFBFBFFF7FBFBFBFBFFFBC
:1006B000BFBFB7BFFFFF7FB7BFBFFFFF6EB7BFBFF3
:1006C000FFFF77BFBFBFFFFFFFFFBFBFB75BFFFFEE
:1006D000BFBFA464FFFFBFADA47FFFFFBFA4BF7F68
:1006E000FFBFADBFBFBFFFB6BFBFBF77F7BFBFBFC5
:1006F0007777FFBFBFBF64526D7F6E2E2D2D7F7643
:100700006E6E6E2E777777762E1C7F776E251C2582
:10071000776525251C096E6E1C0949255B494A6EC3
:100720007F645377BF775B5C256E6E255B4A2565DA
:100730001C1B5B002524245B53001C1B5B5C00001E
:100740000A5B640000006464000000005C000000BC
:1007500000000000000000005B5C7FBF77765C6DEE
:100760007FB777775C6D7FBF77775C64BFBFBFBFB4
:100770000A5C6EBFBFBF0065646DBFBF00005B6DEC
:10078000646D00000000125B7777777F6E6E77777D
:100790007F766D7677BF776D6E76BF7F6D6E767F75
:1007A000BF7676BFBF76BFBFBFB664ADADB6B6ADE0
:1007B000BFFF646DADB6AD6477BFBFBFFFFF77BF4E
:1007C000BFBFFFFF7FBFBFBFFFF6BFB7ADF6FFFFE5
:1007D000A4ADFFFFFFFFFFFFFFFFFFFFFFFFFFF6DF
:1007E000A4005B5200000000BFBFAD5B64BFB6ADAC
:1007F000ADBFFFBFFFFFFFFFBF64FFFFBFB6765B6C
:10080000FFBFBF5B0000FF5C0000000000000000B5
:100810000000000000000000BFBF645C5C006E5C74
:10082000654900006D5B0000000000000000000052
:1008300000000000000000000000000000000000B8
:10084000000000000000000006000400000001009D
:10085000020003000400050006000700080009006C
:100860000A000B000C000D000E000F00100000002D
:1008700011001200130014001500160006000300FA
:1008800000001700180019001A001B001C001D00B2
:100890001E001F002000210022002300240025004C
:1008A0002600000000408891D2E4ADB5B6BEBFFF7F
:1008B0000000000000000000000000000000000038
:1008C0000000000000000000000000000000000028
:1008D0000000000000000000000000000000000018
:1008E000FFFFFFFFFFFFFFFFFFFFFFFFFFFFFFFF18
:1008F000FFFFFFFFFFFFFFFFFFFFFFFFFFFFFFFF08
:10090000FFFFFFFFFFFFFFFFFFFFFFFFFFFFFFFFF7
:10091000C7C7C7C7C7C7C7C7C7C7C7C7C7C7F7F707
:10092000C7C7C7C7F7F7C7C7C7C7F7F7C7C7C7C797
:10093000F7F7C7C7C7C7F7F7C7C7C70C0C0C0CC773
:10094000C70C0C0C0CC7C7C70C0CC7C7C7C79F9FE9
:10095000C7C7C79F00009FC79F9F00009F9FC79F5B
:1009600000009FC7C7C79F9FC7C7C7C7C7C7C7C71D
:100970000601010203040000000000000000000066
:100980000000000000000000000000000000000067
:100990000000000000000000000000000000000057
:1009A0000000000000000000FF00000000FFFFFF4B
:1009B000000000FFFFFF00000000FF00000000003B
:1009C000FF0000000000000000000000FF00000029
:1009D000000000000000FFFF00FFFF00FFFF00FF1E
:1009E000FF00FF0000FF000000000000000000000A
:1009F00000000000000000000000000000000000F7
:100A000000000000000000000000000000FF00FFE8
:100A10000000FFFFFFFFFF0000FF00FF000000FFDE
:100A200000FF0000FFFFFFFFFF0000FF00FF0000CE
:100A300000000000000000FF0000000000FFFFFFBA
:100A40000000FF000000000000FFFF0000000000A9
:100A500000FF0000FFFFFF0000000000FF0000009B
:100A6000000000000000FFFF0000FF00FFFF00008B
:100A7000FF00000000FF00000000FF00000000FF7A
:100A800000000000FF0000FFFF00FF0000FFFF006C
:100A900000000000000000FF00000000FF00FF0059
:100AA0000000FF00FF00000000FF00000000FF004A
:100AB000FF00FF00FF0000FF000000FFFF00FF003D
:100AC00000000000000000FFFF00000000FFFF002A
:100AD000000000FF00000000000000000000000017
:100AE0000000000000000000000000000000000006
:100AF0000000000000000000FF00000000FF0000F8
:100B0000000000FF0000000000FF0000000000FFE8
:100B10000000000000FF000000000000FF000000D7
:100B200000000000000000FF000000000000FF00C7
:100B300000000000FF0000000000FF0000000000B7
:100B4000FF0000000000FF00000000FF00000000A8
:100B500000000000000000000000000000FF00FF97
:100B6000000000FFFFFF0000FFFFFFFFFF0000FF8E
:100B7000FFFF000000FF00FF000000000000000079
:100B80000000000000000000000000000000FF0066
:100B900000000000FF000000FFFFFFFFFF0000005B
:100BA000FF0000000000FF00000000000000000047
:100BB0000000000000000000000000000000000035
:100BC0000000000000000000000000000000000025
:100BD0000000000000FFFF00000000FFFF00000019
:100BE00000FF000000000000000000000000000006
:100BF0000000000000000000FFFFFFFFFF000000FA
:100C000000000000000000000000000000000000E4
:100C100000000000000000000000000000000000D4
:100C200000000000000000000000000000000000C4
:100C30000000000000FFFF00000000FFFF000000B8
:100C400000000000000000000000000000000000A4
:100C5000FF00000000FF00000000FF00000000FF98
:100C600000000000FF000000000000000000000085
:100C7000000000000000002F2F2F00002F000000B8
:100C80002F002F00002F2F002F002F002F002F2FBD
:100C900000002F002F0000002F00002F2F2F00003A
:100CA00000000000000000002F000000002F2F00B7
:100CB000000000002F00000000002F0000000000D6
:100CC0002F00000000002F000000002F2F2F000039
:100CD000000000000000002F2F2F00002F00000058
:100CE0002F00000000002F0000002F2F0000002F19
:100CF000000000002F00000000002F2F2F2F2F00DA
:100D0000000000000000002F2F2F00002F00000027
:100D10002F00000000002F00002F2F2F00000000E8
:100D200000002F002F0000002F00002F2F2F0000A9
:100D30000000000000000000002F000000002F2F26
:100D40000000002F002F00002F00002F00002F2F89
:100D50002F2F2F000000002F00000000002F0000A8
:100D60000000000000002F2F2F2F2F002F00000069
:100D700000002F00000000002F2F2F2F0000000088
:100D800000002F002F0000002F00002F2F2F000049
:100D900000000000000000002F2F0000002F0000C6
:100DA00000002F00000000002F2F2F2F00002F0029
:100DB00000002F002F0000002F00002F2F2F000019
:100DC0000000000000002F2F2F2F2F000000000038
:100DD0002F000000002F000000002F000000002F57
:100DE00000000000002F00000000002F00000000A5
:100DF000000000000000002F2F2F00002F00000037
:100E00002F002F0000002F00002F2F2F00002F0099
:100E100000002F002F0000002F00002F2F2F0000B8
:100E2000000000000000002F2F2F00002F00000006
:100E30002F002F0000002F00002F2F2F2F00000069
:100E400000002F000000002F0000002F2F000000E6
:100E50000000000000000000000000000000000092
:100E6000000000FFFF00000000FFFF000000000086
:100E70000000000000FFFF00000000FFFF00000076
:100E80000000000000000000000000000000000062
:100E9000000000FFFF00000000FFFF000000000056
:100EA0000000000000FFFF00000000FFFF00000046
:100EB00000FF0000000000000000FF00000000FF35
:100EC00000000000FF00000000FF00000000000024
:100ED000FF000000000000FF000000000000FF0015
:100EE0000000000000000000000000000000000002
:100EF0000000FFFFFFFFFF000000000000000000F7
:100F000000000000FFFFFFFFFF00000000000000E6
:100F100000000000000000FF000000000000FF00D3
:100F20000000000000FF000000000000FF000000C3
:100F300000FF00000000FF00000000FF00000000B4
:100F400000000000000000FFFFFF0000FF000000A5
:100F5000FF0000000000FF000000FFFF0000000095
:100F6000FF0000000000000000000000FF00000083
:100F700000000000000000FFFFFF0000FF00000075
:100F8000FF00FF00FFFFFF00FF00FF00FF00FF006A
:100F9000FFFFFF00FF000000000000FFFFFF000058
:100FA00000000000000000FFFFFF0000FF00000045
:100FB000FF00FF000000FF00FF000000FF00FFFF38
:100FC000FFFFFF00FF000000FF00FF000000FF0028
:100FD000000000000000FFFFFFFF0000FF00000016
:100FE000FF00FF000000FF00FFFFFFFF0000FF0009
:100FF0000000FF00FF000000FF00FFFFFFFF0000F8
:1010000000000000000000FFFFFF0000FF000000E4
:10101000FF00FF0000000000FF0000000000FF00D4
:1010200000000000FF000000FF0000FFFFFF0000C5
:10103000000000000000FFFFFFFF0000FF000000B5
:10104000FF00FF000000FF00FF000000FF00FF00A6
:101050000000FF00FF000000FF00FFFFFFFF000097
:10106000000000000000FFFFFFFFFF00FF00000086
:101070000000FF0000000000FFFFFFFF0000FF0076
:1010800000000000FF0000000000FFFFFFFFFF0066
:10109000000000000000FFFFFFFFFF00FF00000056
:1010A0000000FF0000000000FFFFFFFF0000FF0046
:1010B00000000000FF0000000000FF000000000032
:1010C00000000000000000FFFFFF0000FF00000024
:1010D000FF00FF0000000000FF00FFFFFF00FF0017
:1010E0000000FF00FF000000FF0000FFFFFFFF0007
:1010F000000000000000FF000000FF00FF000000F3
:10110000FF00FF000000FF00FFFFFFFFFF00FF00E8
:101110000000FF00FF000000FF00FF000000FF00D4
:1011200000000000000000FFFFFF00000000FF00C3
:1011300000000000FF0000000000FF0000000000B1
:10114000FF0000000000FF00000000FFFFFF0000A4
:1011500000000000000000000000FF000000000090
:10116000FF0000000000FF0000000000FF00FF0083
:101170000000FF00FF000000FF0000FFFFFF000075
:10118000000000000000FF000000FF00FF0000FF63
:101190000000FF00FF000000FFFF00000000FF0054
:1011A000FF000000FF0000FF0000FF000000FF0044
:1011B000000000000000FF0000000000FF00000031
:1011C0000000FF0000000000FF0000000000FF0022
:1011D00000000000FF0000000000FFFFFFFFFF0015
:1011E000000000000000FF000000FF00FFFF00FF04
:1011F000FF00FF00FF00FF00FF000000FF00FF00F6
:101200000000FF00FF000000FF00FF000000FF00E3
:10121000000000000000FF000000FF00FFFF0000D2
:10122000FF00FF00FF00FF00FF0000FFFF00FF00C6
:101230000000FF00FF000000FF00FF000000FF00B3
:1012400000000000000000FFFFFF0000FF000000A2
:10125000FF00FF000000FF00FF000000FF00FF0094
:101260000000FF00FF000000FF0000FFFFFF000084
:10127000000000000000FFFFFFFF0000FF00000073
:10128000FF00FF000000FF00FFFFFFFF0000FF0066
:1012900000000000FF0000000000FF000000000050
:1012A00000000000000000FFFFFF0000FF00000042
:1012B000FF00FF000000FF00FF000000FF00FF0034
:1012C000FF00FF00FF0000FF000000FFFF00FF0025
:1012D000000000000000FFFFFFFF0000FF00000013
:1012E000FF00FF000000FF00FFFFFFFF0000FF0006
:1012F00000FF0000FF000000FF00FF000000FF00F3
:1013000000000000000000FFFFFF0000FF000000E1
:10131000FF00FF000000000000FFFFFF00000000D2
:101320000000FF00FF000000FF0000FFFFFF0000C3
:10133000000000000000FFFFFFFFFF000000FF00B3
:1013400000000000FF0000000000FF00000000009F
:10135000FF0000000000FF0000000000FF00000090
:10136000000000000000FF000000FF00FF00000080
:10137000FF00FF000000FF00FF000000FF00FF0073
:101380000000FF00FF000000FF0000FFFFFF000063
:10139000000000000000FF000000FF00FF00000050
:1013A000FF00FF000000FF00FF000000FF00FF0043
:1013B0000000FF0000FF00FF00000000FF00000031
:1013C000000000000000FF000000FF00FF00000020
:1013D000FF00FF00FF00FF00FF00FF00FF00FF0015
:1013E000FF00FF00FF00FF00FF0000FF00FF000004
:1013F000000000000000FF000000FF00FF000000F0
:10140000FF0000FF00FF00000000FF00000000FFE1
:1014100000FF0000FF000000FF00FF000000FF00D1
:10142000000000000000FF000000FF00FF000000BF
:10143000FF00FF000000FF0000FF00FF00000000B1
:10144000FF0000000000FF0000000000FF0000009F
:10145000000000000000FFFFFFFF0000000000FF91
:1014600000000000FF00000000FF00000000FF007F
:1014700000000000FF0000000000FFFFFFFF000071
:101480000000000000000000FFFF000000FF00005F
:10149000000000FF00000000FFFF0000000000FF50
:1014A0000000000000FF000000000000FFFF00003F
:1014B0000000000000000000FFFF000000FF00002F
:1014C000FF00FF00FFFF00FFFF00FF0000FFFF0025
:1014D000FFFF00FF00FF0000FF000000FFFF000013
:1014E00000000000000000FFFF000000000000FFFF
:1014F0000000000000FF0000000000FFFF000000EF
:1015000000FF0000000000FF000000FFFF000000DF
:1015100000000000000000000000000000000000CB
:1015200000000000000000000000000000000000BB
:1015300000000000000000000000000000000000AB
:10154000000000000000A4000000000000A4A4A40B
:10155000A4A400A4A4A4A4A400A4A4A4A4A400A437
:10156000A4A4A4A400A4A4A4A4A400A4A4A4A4A483
:1015700000A4A4A4A4A40101010101A4A4A4A4A4FE
:10158000A401A4A4A4A4A401A4A4A4A4A401A4A404
:10159000A4A4A401A4A4A4A4A401A4A4A4A4A401F4
:1015A000A4A4A4A4A4013030202038383030202056
:1015B000383830302020383830302020383830303B
:1015C000202038383030202038383030202038384B
:1015D00030302020383807070707070700000000D1
:1015E00000000707000707070707000707070000B5
:1015F00000000000000E0E0E0E00000E0E0E0E007B
:10160000000000000000D8D8D807D8D8D8D80707DD
:1016100007D8D80707070707D8D8E7E7E7D8D8D803
:10162000D8E7D8D8D8D83F3F0000D8D83F003FD817
:10163000D8D83F3F3FD8D8D8D8D8D8D8D8D80000A5
:101640000000D8003F3F3F3F003F3F3F3F3F003F4C
:101650003F3F3F3FD8003F3F3F3FD8D8000000000A
:10166000D8D8D8D80000D8D8D8D8D8D8000000000A
:10167000D8D83F3F3F3F00D83F3F3F3F3F003F3F2D
:101680003F3F3F003F3F3F3F00D800000000D8D819
:101690000000D8D8D8D8D8D807D8D8D8D8070707BE
:1016A000D8D80707070707D8D8040404D8D8D8D84B
:1016B00004D8D8D800003F3FD8D8D83F003FD8D86A
:1016C000D83F3F3FD8D8D8D83F3F3FD8D8D83F3F62
:1016D0003FD8D8D83F3F3FD8D8D8D8C0D8D8D8D806
:1016E000D8C0D8D8D8D8D8C0D8D8D8D8D8FFD8D883
:1016F000D8D8D8FFFFD8D83F3F3FD8D8D83F3F3FB2
:10170000D8D8D83F3F3FD8D8D8D8C0D8D8D8D8D83C
:10171000C0D8D8D8D8D8C0D8D8D8D8D8FFD8D8D852
:10172000D8FFFFD8D8D8A40000000000A4A407A4C4
:10173000A4A4A4A4A407A4A4A4A4A4070707A4A4DD
:1017400007070707A4A4A4070707A4A4A407A4A441
:10175000A4A407A4A4A40101010101A4A4A4A407B2
:10176000A4A4A40707A4A4A407070707A4A4070721
:1017700007A4A4A4070707A4A4A407A40707A4A474
:10178000A4A4A407A4A4D8D8D8D8D8D8D8D8D8D8AE
:10179000D8D8D8D8D8D8D8D8D8D8D8D8D8D8D8D8C9
:1017A000D8D8D8D8D8D8D8D8D8D8D8D8D8D8D8D8B9
:1017B000D8D8D8D8D8D800F8F8F8F8F800FFFFFF44
:1017C000FFFF00FFFFFFFFFF00FFFFFFFFFF00FF26
:1017D000FFFFFFFFD800FFFFFFFFD8D80000FFFF8B
:1017E000D8D8D8D80000F8F8F8F8F8F8FFFFFFFFCD
:1017F000FFFFFFFFFFFFFFFFFFFFFFFFFFFFFFFFF9
:10180000FFFFFFFFFFFFFFFFFFFFFFFFFFFFFFFFE8
:10181000000000000000F8F8F8F8F800FFFFFFFFF4
:10182000FF00FFFFFFFFFF00FFFFFFFFFF00FFFFC5
:10183000FFFFFF00FFFFFFFF00D8FFFF0000D8D829
:101840000000D8D8D8D8D8D8D8D80000D8D8000028
:10185000FFFFD800FFFFFFFF00FFFFFFFFFF00FFBC
:10186000FFFFFFFF00FFFFFFFFFF00FFFFFFFFFF86
:1018700000F8F8F8F8F8000000000000FFFFFFFF94
:10188000FFFFFFFFFFFFFFFFFFFFFFFFFFFFFFFF68
:10189000FFFFFFFFFFFFFFFFFFFFFFFFFFFFFFFF58
:1018A000F8F8F8F8F8F80000D8D8D8D8FFFF00000A
:1018B000D8D8FFFFFFFF00D8FFFFFFFFFF00FFFFAB
:1018C000FFFFFF00FFFFFFFFFF00FFFFFFFFFF0025
:1018D000F8F8F8F8F800D8D80707D8D8D8D8000012
:1018E000D8D8D8D80000D8D8D8D80000D8D8D8D8D8
:1018F0000000D8D8D8D80000D8D8D800FFFF00D82A
:1019000000FFFFFFFF00D8D8D8D8D800D8D8D8D843
:1019100000FFD8D8D8D800FFD8D8D8D800FFD8D85A
:10192000D800FFFFD80000FFFFFF00FFFFFFFFFF11
:1019300000FFFFFFFFFF00D8D8D8D8D8FF00D8D8C5
:10194000D8D8FF00D8D8D8D8FF00D8D8D8D8FF002A
:1019500000D8D8D8FFFFFF0000D8FFFFFFFFFF002F
:10196000FFFFFFFFFF00D8D8D8D8D8D8D8D8D8D80C
:10197000D8D8D8D8D8D8D8D8D8D8D8D8D8D8A4A44F
:10198000A4A4A4A4FFFFFFFFFFFFFFFFFFFFFFFFD3
:10199000A4A4A4A4A4A4D8D80000D8D8D800070729
:1019A00000D8000707070700000707070700000720
:1019B00007070700D800000000D8D800070700D8A4
:1019C000D800070700D807D83F3FD807D8072727F0
:1019D00007D8D827FF3F27D807273FFF2707072724
:1019E000FF3F270707273FFF2707D807272707D8E5
:1019F000D8D80707D8D8D830D8D830D8D8D83030A9
:101A0000D8D8D8D80000D8D8D830303030D83030F6
:101A100030303030303030303030D830303030D876
:101A2000D8D83030D8D8D8FFFFD8D8FFFFFFFFFF75
:101A3000FFFFFFFFFFFFFFFFD8FFFFFFFFFFD8D82B
:101A4000FFFFFFFFD8FFFFFFFFFFFFFFFFFFFFFFCD
:101A5000D8FFFFD8FFD8D8FFFFD8D8D8FFFFFFFFA7
:101A6000D8D8FFFFFFFFFFFFFFFFFFFFFFD8FFFFFB
:101A7000FFFFFFD8FFFFFFFFFFD8FFD8FFFFD8FF12
:101A8000D8D8D8D8D8D8FFFF98FFFFFFE8F8F8F8E3
:101A9000F898E898E898E8E898E898E8E8E8FBFF1C
:101AA000FBFBFFFBFF98F0F0FFFFE8E8FFFFE8E833
:101AB000FFFF9898FFFF00D83F3FD800D83F3F3F37
:101AC0003FD8D83FF7F73FD8D83FF7F73FD8F73F91
:101AD00028283FF7D8D82828D8D8D828282828D880
:101AE000D8F7D8D8F7D8D8D83F3FD8D8D8D8EFEF3C
:101AF000D8D8D800000000D800D80000D80000D8FE
:101B00000000D800D8D80202D8D8D802D8D802D835
:101B1000D8FFD8D8FFD8D83FD8D83FD8073FD8D893
:101B20003F07D81F3F3F1FD8D807070707D8D80758
:101B3000272707D8072707072707D80E07070ED834
:101B4000073F0E0E3F07D81FD8D81FD8071FD8D879
:101B50001F07D83F1F1F3FD8D8073F3F07D8071F91
:101B60001F1F1F071F1F07071F1F073F2F2F3F079D
:101B7000073F2F2F3F07D8D8D8D8D8D8D8D8D8D80B
:101B8000D8D87F7FD8D8D8D87F7F7FD8D8D87F7F44
:101B90007F7FD8D8D87F7F7F7FFFD8D87F7F7FFF98
:101BA000D8D8D8FFFFFF0000000000FF00000000B1
:101BB000FFFF000000FFFFFF0707FFFFFFFF070712
:101BC000FFFFFFFF000000FFFFFF00000000FFFF1E
:101BD0000000000000FFFF0000000000FFFF000009
:101BE0000000FFFFFF000000FFFFFFFF0707FFFFF0
:101BF000FFFF0707FFFFFF000000FFFF00000000DE
:101C0000FF000000000038383838383838383838A5
:101C10003838383838383838383838383838383844
:101C20003838383838383838383838383838383834
:101C3000383838383838070707070707070707070E
:101C40000707070707070707070707070707070724
:101C50000707070707070707070707070707070714
:101C6000070707070707FFC0E8FFFFE8F8FFC0E81E
:101C7000F8FFE8F8E8F8E8E8E8C8F8C8E8C8C8F8FD
:101C8000C8F8C8E8F8E8C0E8E8F8FFFFF8F8FFFF90
:101C9000C0E8FFFFE8C03030200738383030070791
:101CA00007383007070707073030E7E7E7383030F5
:101CB00020E7383830303F3F000030303F003F38B9
:101CC00030303F3F3F38303020203838303000004F
:101CD000000030003F3F3F3F003F3F3F3F3F003F5E
:101CE0003F3F3F3F30003F3F3F3F3030000000006C
:101CF0003030202000003030202038380000000034
:101D000038383F3F3F3F00383F3F3F3F3F003F3F76
:101D10003F3F3F003F3F3F3F003800000000383862
:101D200000002020383830300720383830070707C7
:101D300038380707070707383004040438383030CC
:101D40000420383800003F3F3838303F003F3838F3
:101D5000303F3F3F383830303F3F3F3830303F3FF3
:101D60003F3830303F3F3F38303020C03838303097
:101D700020C03838303020C03838303020FF383874
:101D8000303020FFFF38303F3F3F3838303F3F3F53
:101D90003838303F3F3F38383030C0203838303066
:101DA000C02038383030C02038383030FF20383844
:101DB00030FFFF20383830302020383830300000F5
:101DC000000030003F3F3F3F003F3F3F3F3F003F6D
:101DD0003F3F3F3F30003F3F3F3F3030000000007B
:101DE000303020002D2D3030202038380000000009
:101DF00038383F3F3F3F00383F3F3F3F3F003F3F86
:101E00003F3F3F003F3F3F3F003800000000383871
:101E10002D2D00203838303020002D2D303020205E
:101E2000002D30302020380030302020383830303D
:101E300020203838303020203838303020203838D2
:101E40003030202038382D2D002038382D0020202B
:101E500038380030202038383030202038383030C2
:101E600020203838303020203838303020203838A2
:101E70003030202038380000000000000606070738
:101E80000606000000000000070705050707000020
:101E90000000000005050606050500000000000022
:101EA00007070D0D07070000000000008888EAEA18
:101EB0008888000000000000EAEA8888EAEA00005A
:101EC00000000000D8D84040D8D800000000000032
:101ED0004040D8D840400000000000000003030349
:101EE00003000003FAFA03000003FAFA03000003F8
:101EF000030303000003037F030000030303030045
:101F0000000303030300FEFE3131FEFEFE313131DA
:101F100031FE313131313131FE31313131FE31314A
:101F200031313131FE31040431FEFEFE0404FEFE87
:101F3000FEFE0404FEFED81FD8D81FD8071FD8D82D
:101F40001F07D83F1F1F3FD8D8073F3F07D8071F9D
:101F50001F1F1F071F1F07071F1F073F2F2F3F07A9
:101F6000073F2F2F3F0700000000000000F8F8F89F
:101F7000F80000F8F8F8F80000F8F8F8F80000F8B1
:101F8000F8F8F80000F8F8F8F80000F8F8F8F800A9
:101F9000000000000000D8D8D8D8D8D8D8D8D8D8D1
:101FA000D8D8D8D8D8D8D8D8D8D8D8D8D8D8D8D8B1
:101FB000D8D8D8D8D8D8D8D8D8D8D8D8D8D8D8D8A1
:101FC000D8D8D8D8D8D800D83F3FD80000D8EFEF1D
:101FD000D800D800000000D8D8D80000D8D8D8D869
:101FE0000000D8D8D8D80202D8D8D802D8D802D879
:101FF000D8FFD8D8FFD8D8D8D8D8D8D8D8D8D8D813
:10200000D8D8D8D8FFFFD8D8D8FFF7F7FFD8D8FF4F
:10201000F7F7FFD8D8D8FFFFD8D8D8FFFFFFFFD8F1
:10202000D8D8FFFFD8D8D8D83F3FD8D8D83F3F3FDF
:102030003FD8D83FF7F73FD8D83FF7F73FD8F73F1B
:1020400028283FF7D8D82828D8D8D828282828D80A
:10205000D8F7D8D8F7D8D8D8D8D8D8D8D8D8D8FC9E
:10206000FC07D8D8FCFCFC07D807070707070707B9
:1020700007070707D80707070707D8D8070707077D
:10208000D8D8D8D8D8D8D8D8D8D8D8D80707070714
:10209000070707FC0707FC070707070707070707E6
:1020A000000000000707000000000707000000070D
:1020B000D8D80000D8D8D8D8D8D8D80707D8D8D8F2
:1020C00007070707070707070707070707D80707CF
:1020D00007073F3F070707D8D8D80707D8D8D8D869
:1020E000D8D8D8D8D8D8D8D8D8D83F3FD8D8D83F3B
:1020F0003F3FD8D83F3F3F3FD8D83F3F3F3F3F3F8C
:102100003F3F3F3FD8D83F3F3F3FD8D8D83F3F3FE2
:10211000D8D8D8D83F3FD830D8D830D8D8D8303011
:10212000D8D8D8D80000D8D8D830303030D83030CF
:1021300030303030303030303030D830303030D84F
:10214000D8D83030D8D8D8D83F3FD8D8D8D8EFEF63
:10215000D8D8D800000000D800D80000D80000D897
:102160000000D800D8D80202D8D8D802D8D802D8CF
:10217000D8FFD8D8FFD800D83F3FD800D83F3F3F3E
:102180003FD8D83FF7F73FD8D83FF7F73FD8F73FCA
:1021900028283FF7D8D82828D8D8D828282828D8B9
:1021A000D8F7D8D8F7D8D8D83131D8D8D8313131B4
:1021B00031D8313131313131D831313131D831311A
:1021C00031313131D831040431D8D8D80404D8D8C9
:1021D000D8D80404D8D807D83F3FD807D80727272E
:1021E00007D8D827FF3F27D807273FFF270707270C
:1021F000FF3F270707273FFF2707D807272707D8CD
:10220000D8D80707D8D80002020008460009900075
:102210000A600000F4000402020308010402010441
:102220000201040201040201040201040201040289
:10223000010402010402010402010402010402017A
:10224000040201040201050000FF0002030000FC7B
:10225000000828010405010404010403010402012B
:102260000401000204000990000A60020401020453
:10227000010204010204010204010204010204013A
:102280000204010204010204010204010204010229
:10229000040102050000FF00020100084B00041ABF
:1022A00001030301030301030301041001050000FE
:1022B000FF00020100084B00041D0103030103039A
:1022C00001030301040D01050000FF0002030000EB
:1022D000F0000832010405010404010403010402B2
:1022E000010401000204000990000A6001040101D8
:1022F00004010104010104010104010104010104BC
:1023000001010401010401010401010401010401AE
:1023100001040101050000FF00020000083C000369
:102320000202040202030202030202030202040286
:102330000204020204020203020203020203020276
:102340000402020402020402020302020302020364
:102350000202040202040202040202030202030255
:102360000203020204020204020204020203020245
:102370000302020302020402020402020402020334
:102380000202030202030202040202040202040225
:102390000203020203020203020204020204020216
:1023A0000402020302020302020302020402020404
:1023B00002020402020302020302020302020402F6
:1023C00002040202040202030202030202030202E6
:1023D00004020204020204020203020203020203D4
:1023E00002020402020402020402020302020302C5
:1023F0000203020204020204020204020000FF02BD
:1024000003020203020203020204020204020204A3
:102410000202030202030202030202040202040295
:102420000204020203020203020203020204020285
:102430000402020402020302020302020302020473
:102440000202040202040202030202030202030265
:102450000204020204020204020203020203020254
:102460000302020402020402020402020302020343
:102470000202030202040202040202040202030234
:102480000203020203020204020204020204020224
:102490000302020302020302020402020402020413
:1024A0000202030202030202030202040202040205
:1024B00002040202030202030202030202040202F5
:1024C00004020204020203020203020203020204E3
:1024D000020204020204020000FC020302020302E0
:1024E00002040202040202030202030202040202C4
:1024F00004020203020203020204020204020203B3
:1025000002020302020402020402020302020302A4
:102510000204020204020203020203020204020293
:10252000040203050000FF00020200083603030452
:10253000020304020408030304020304020500006A
:10254000FF00083C1E040C1E030C1E040C1E030C92
:102550001E040C1E050000FF000000062200000003
:10256000000000004A220000000000000097220046
:10257000000000000000B12200000000000000CBBD
:1025800022000000000000001823000000000000EE
:102590000027250000000000000041250000000089
:1025A00012000D0000000000000001000200030006
:1025B0000400050006000700080009000A000000EA
:1025C00000000000000000000000000000000B0000
:1025D0000C000D000E000F00100010001100120082
:1025E0001300140015000000000000000000160099
:1025F0001700180019001A001B001C001D001E0007
:102600001F002000210022002300240025000000DC
:10261000000026002700280029002A002B002C009B
:10262000000000002D002E002F003000310032008D
:102630003300000000003400350036003700380059
:1026400000000000000000000000000039003A0017
:102650003B0010003C003D003E003F0040004100B8
:102660004200000000000000000000000000000028
:102670000000430044004500460047004800490070
:102680004A004B00000000000000000000000000B5
:1026900000000000000000004C004D004E004F0004
:1026A0005000510052005300540000000000000090
:1026B0000000000000000000000055005600570018
:1026C000580059005A005B005C005D005E005F002E
:1026D0000000000000000000000000006000610039
:1026E0006200630064006500000066006700680027
:1026F00069006A006B006C00000000006D006E0055
:102700006F00700071007200730000000000740020
:102710007500000076007700780079007A007B0071
:102720007C007D007E007F00800081008200000030
:102730000000000000008300840085008600870000
:1027400010001000880089008A008B008C000000B7
:10275000000000000000000000008D008E008F00CF
:102760009000910092009300940095009600000064
:102770000000000000000000000000000000000059
:102780000000000000000000000000000000000049
:102790000000000000000000000000000000000039
:1027A0000000000000000000000000000000000029
:1027B0000000000000000000000000000000000019
:1027C0000000000000000000000000000000000009
:1027D00000000000000A131C0000000000000000C0
:1027E00000000000000000000000000000000000E9
:1027F000000000000000000000000000090A0901BC
:1028000000011D1D6566651C000000000000000041
:1028100000000000000000000000000000000000B8
:10282000000000000000000000000000000009009F
:10283000090A131313131313000000000000000013
:102840000000000000000000000000000000000088
:102850000000000000000000000000000A0A0A66F4
:102860006F6F1C1D6F6F6F6600000000000000009E
:10287000000000000000000001650000000A666F13
:102880000009656F6F6F00666F6F6F666F66651327
:10289000000166130001020400000000000A0000AD
:1028A00009136E6F666F66266F6F6F6E6F6F666669
:1028B0006F651D65130A1C0A0A0001010203040565
:1028C00004040404040404040A0A090000006F6EEE
:1028D00066655C006F6F6E6E6E6E6666266E6E6EFF
:1028E0000A0A1365656F010100000A650404040407
:1028F0005602040404040404000000000000000068
:10290000000000006E665C0000006F6E6F6F5C0977
:102910006E6E6E6E6E6E656E6F6E6E6F010013651D
:10292000666F04020100131C00000000000000009C
:102930000000000000000000000000000000000097
:102940005C00000000006F650A0000006F6E6F6F92
:1029500065656E6F6E6E6E6F000000000000000017
:102960000000000000000000000000000000000067
:102970000000000000000000000000000A0000004D
:10298000000065130A0000000000136F6F6F000065
:10299000132626260000006F2626000000666F6FB3
:1029A000000000000A6F0000000000650000000049
:1029B000000A0000000000002626266F6F2626660B
:1029C0001C661D662613010A0A0A2626000001015C
:1029D00026262613000426262626520226262626EA
:1029E0006500001326262665266F26266F26666656
:1029F00066661D1D0A0A0A0A0A0101010101020296
:102A00000404040404040304040404040204040489
:102A100004040A01040404046F6F6F2666131C1378
:102A20000A00010301010103030403030304040476
:102A30000404040404040404040404040404040456
:102A400004040404040404040A0002030504030447
:102A50000404040404040404040404040404040436
:102A60000404040404040404040404040404040426
:102A70000404040404040404040404040404040416
:102A80000404040404040404040404040404040406
:102A900004040404040404040404040404040404F6
:102AA00004040404040404040404030200000404F1
:102AB00004040504040404040404040404040404D5
:102AC00004040404040404040404040404040404C6
:102AD000040404040404040413266F6E6E6E0200E2
:102AE0000013656E040302000A13040404030101C9
:102AF0000404040404040404040404040404040496
:102B000004040404040404046F6F6E130A096E6F56
:102B10006F6E6F6F656565266F6F00090A13651C20
:102B20000504030303020404040404040404040469
:102B300004040404040404040009000000006F6F8E
:102B40006F6F6F6E6F6F6F6E6F6E65651C6565651D
:102B500002020200000A04040300136E0403010AC7
:102B60006F6E0300136F6F6E0000000000006F6F48
:102B70006F6E6F136E6E6E6E6E6E6E6E6E6E6E1329
:102B80006E6E6E6E65006E6E6E650A006F6E6E0A1A
:102B900000006E6552000000000000000000000010
:102BA0000000000000000000000000000066266534
:102BB00000000066266F00000A66262600000A66EE
:102BC000260A00000A66660A0000000000000000F5
:102BD000000000000000000000000A0000000000EB
:102BE000665C00000000266665000000136F666FDB
:102BF000130A00136F262666000000000000000084
:102C000000000000000000000000000000000000C4
:102C100000000000000000000000000000000000B4
:102C20000000090000000000000126262626000002
:102C300013262626000000136F2600000000136FE5
:102C400000000000002600000000000A0000000054
:102C500000000000000000006600040404046F0A85
:102C60000304040426660104040426261300030456
:102C70006F6F2600000466266F130A0200666F2637
:102C8000260A000A2626261D04040404040404045B
:102C900004040404040404040404040404030201FA
:102CA00005040201000A030200131366131C6F6F70
:102CB0006E6F66266F6F266F040404040404040418
:102CC000040404030404030302010009131365262A
:102CD0001365266E6F6F266F6F6F6F6F6F6F6F6606
:102CE000130A6F650A0A00000404040403030303C3
:102CF00002020201000000090A0A266F6F6F6F6F5F
:102D00006F6E6F6F6E266E6F6F6F6F6F0A000000D1
:102D1000000000000000000003030404040401019B
:102D2000020202030A0A0A0909006E6F6F6F6E6FD2
:102D30006F6F6F6E6E6F6F6F6F6F6F6F0000000160
:102D4000090A000000000000040404040404030352
:102D5000040404040101020303046F6665131309EC
:102D60006F6E6E6F65656E6E6E6F6E6F0A13666E58
:102D70006F6E0000005C656604040404040404042F
:102D80000404040404040404040401020304040409
:102D90001300000203046E65130001026F6E6E6F74
:102DA00065656F6E6E6F6E6E0404040404020404A5
:102DB0000404030004040404010A04040402136E5E
:102DC000040403006E6E0404010A6E6E0000136EAC
:102DD0006E6E6513266E6E6F00136E6E6E6E096FEB
:102DE0006E6E6E6E656E6E6E6E6E6E6E6E6F0A00DD
:102DF0006E6E6F6500006E6E6E0000006F0A000060
:102E000000006500000000006F5200000000130089
:102E100000000000000000000000000000000000B2
:102E200000000000000000000000000000000000A2
:102E30000000000000000000000000000000000092
:102E40000000000000000000000000000000000082
:102E50000000000000000000000000000000000072
:102E60000A6E00000013656E000000000000000004
:102E70000000000000000000000000000000000052
:102E80000013651300000A6F6F6E00006E6E6F6EA8
:102E900000006E65656F000000000A6666010000B4
:102EA0000A66260000000A66660000000A66260020
:102EB0000000006626000000006666000000006654
:102EC0002600000000662600000A0A26266F000081
:102ED0000000666F000000000913000101000000FF
:102EE00000020300000000030404030000030404C4
:102EF0000403000404040404650000000000666F7D
:102F0000660000006F266F6513001C6F266F660A4F
:102F100009136F6F261D0000001D6F260000000AB8
:102F2000132603000000011D000000000000000047
:102F30000000000000000000000000000000000091
:102F400001000000000026260A00001326261D139B
:102F50000A26262626261D2600006F6F262600003C
:102F60000A26262600001D26262600006F26266635
:102F70000065262666006626000000002626000062
:102F800000006626000000006F6F6F6F26136F6FE2
:102F9000130000000000000000000000000000001E
:102FA0000000000000000000000000000000000021
:102FB0000000000000000000130A000000000000F4
:102FC0000000000000000000000000000000000001
:102FD00000000000000000000000000000000000F1
:102FE000000000000000000000000000000A0000D7
:102FF00000000000000000000000000000000000D1
:1030000000000000000000000000000000000000C0
:103010000000000000000000656F6F6E6E6E000023
:1030200009136F6E0000000013650000000000002F
:103030000000000000000000000000000000000090
:1030400000000000000000006F6E6E6F6E136E6E69
:103050006E6E5C006E6E6E6E0000656F6E6E0A00C6
:1030600000136F6E6E00000000656E6E00000009B8
:103070006E6E000000006F6E000000000000000097
:103080000000000000000000000000000000000040
:103090000000000000006500000000006E0A000053
:1030A0000A136E6E130A6E6E00000000000000002E
:1030B0000000000000000000006500000013656EC5
:1030C00000000A6E6E6E656E6E6E6E65266E6E6FB9
:1030D00066096E6F6E1300000000136E6E6E656EF3
:1030E0006E6E6F136E6E6E6E13006E6E6E0A09005A
:1030F0006E6E0A00000009000000010400000003D9
:1031000004040000030404046E0A136F00000A00A4
:10311000136E01000000656E0A000000666E0A0072
:1031200000006E6E0A0001016E6E13000101266E32
:1031300013000100266F650000000A6666000000AB
:1031400013662600000066666F00000066261D00FC
:10315000000A66260A00006666655200666666001A
:10316000000266261C000004000504040404000597
:103170000404040400040404040401040404040416
:103180000304040404040404040404040404040400
:1031900004040404040404040404030000000404FC
:1031A00004030000040404040300040404040100F4
:1031B00004040402000004040400000004040300EA
:1031C000000A0404010000660A1D262626260000C7
:1031D0006626266500006626260000652626000075
:1031E0000A26266600006626260A0000262600001B
:1031F000000026260000000066000000000000001D
:1032000000000000000000000000000000000000BE
:1032100000000000000000000000000000000000AE
:103220000000000000000000000000000065000039
:10323000000000000000000000000000000000008E
:10324000000000000000000000000000000000007E
:1032500000000000000000006F6E6E6E6E6F656E05
:103260006E6E6E6E006F6E6F66520009656E6E66F2
:1032700000000A6E6E6E000000266F6E00000000F7
:103280006E6E000000006E6E6E09000000010A0004
:103290000000010400000002030400000004040414
:1032A0000000000304046500000104046E01000036
:1032B00001566E13000000040300656E65000300F4
:1032C000136E6E010300136E6F0A0400016F6E6EC1
:1032D0000400006F6E6F0400006F6E6E0400000A41
:1032E0006F6E040000006E6F000000000000000020
:1032F00000000000000000000000000000000000CE
:103300000000000000005200000000006500000006
:1033100000006E5C000000000000000000140000CF
:10332000000000660000000066660000001366668C
:103330000000006F6666000013666613000A66668A
:10334000665200666666660066660A000002666689
:10335000000000526600000000FF0A00005200FF5B
:103360000000005400FF0000010300FF0000030301
:1033700000FF0000040300FF0254025403025252F3
:1033800052525252FFFFFFFFFFFFFFFFFFFFFFFF01
:10339000FFFFFFFFFFFFFFFFFFFFFFFFFFFFFFFF3D
:1033A000FFFFFF5200FFFFFF03040000002601049F
:1033B0000000002601020000656F010000096F2671
:1033C000000000136F6600000066266500000026FE
:1033D00026000000006F2600261300000000660093
:1033E00000000000000000000000000000000000DD
:1033F00000000000000000000000000000000000CD
:10340000000000000000000000000000136E00003B
:103410000000016E00000000000900000000000034
:10342000000000000000000000000000000000009C
:1034300000000000000000006E6E0A0000046E6EC6
:103440005C0000036E6E6F0000006E6E6E00000088
:103450006F6F6E0A5200136E6E6500000A6E6F6E1B
:103460000000096E6E6F0A000404040404040303E0
:10347000030303030300FFFFFFFF0300FFFFFFFF42
:103480005400FFFFFFFF0052FFFFFFFF0052FFFF4E
:10349000FFFF0000FFFFFFFF04010000136F0303A5
:1034A0000000001CFF5201000000FFFF520000005E
:1034B000FFFFFF000000FFFFFF000000FFFFFF0015
:1034C0000100FFFFFF5203006E6E000000006E6EF1
:1034D000000000006F6E65000000656F6E00000068
:1034E000136F6E0A0000000A6E6E0A0000006E6F15
:1034F000130000006F6E6E000026666666000026F0
:10350000661D1D000066661D5C000166661D0A00E2
:1035100001661D660A0000662666130000662666C0
:103520001D000066266626000001040404FF000258
:10353000040404FF0003040404FF0004040404FF63
:103540000003040404FF0003040404FF0002040455
:1035500004FF0000040200FFFF5200FFFFFFFF52C4
:1035600000ADADADFF5252520101FFFFFFFF02045B
:10357000FFADADAD0204FF5252520204FF00020340
:103580000304FF5252030404000000266F000000F1
:10359000006F6F00000000266F00000000266F0023
:1035A000000000266F00000000266F0000000026CB
:1035B0006F000000006F2600006E6E6E1300006E3C
:1035C0006E6E6500006E6F6E6500006F6E6E65005A
:1035D000006E6E6E6500006E6E6E6500006E6E6F42
:1035E0006500006E6E6E5C0000035BFFFF5200031F
:1035F0005BFFFF5200555BFFFF5200035BFFFF5272
:1036000000035BFFFF520003ADFFFF520055ADFF0B
:10361000FF520054ADFFFF0000FFFF52040301FF03
:10362000FF00040401FFFF00040401FFFF00040485
:1036300001FFFF00040401FFFF00040453FFFF002B
:10364000040400FFFF0004010000136E6E00000080
:103650000A6E6E0A0000006E6E0A0000006E6E13A5
:103660000000006E6E650000006E6E6500000A6E60
:103670006E5C0000656E6E0A0066266666000013CA
:103680006F66660A00001366662600000A666666B4
:103690000000006F66660000006666660000000AB3
:1036A00066260000000013660000040200FF000010
:1036B000030252FF0000000252FF0000000152FF0F
:1036C0000A00000052FF6652000052FF66660000CA
:1036D0000002662600000004FFFFFF030404FFFF52
:1036E000FF030404FFFFFF030404FFFFFF030404C0
:1036F000FFFFFF030404FFFFFF03040402020203B1
:1037000004040404040404040000006F26520000B2
:10371000006F26130200001D266603000013266FAB
:103720000300000A6F6F040100001D6F0404000015
:103730000A2604050000002600000000000000002A
:103740000000000000000000000000000000000079
:10375000000000000000090000000000660A0000F0
:1037600000006F13000000000000000000000000D7
:103770000000000000000000000000000000000049
:103780000000000000000000000000000000000039
:10379000096500000000136E096E6E6F0A000A6E64
:1037A0006E6E5200656E6E5C00006E6E6E0A0000FA
:1037B0006E6E6E0000006E6E6E0000006E6E650034
:1037C00000026F6E0A0000030052ADFFFF5200526C
:1037D000FFFFFFAD005BFFFFFFFF005BFFFFFFFF91
:1037E000015BFFFFFFFF015BFFFFFFFF0152ADAD7C
:1037F000ADAD02535353535352FFFF000300ADFFCF
:10380000FF000100FFFFFF000000FFFFFF000000BE
:10381000FFFFFF000000FFFFAD000000AD00000053
:103820000A6E02000000656E00006F6E6F000000FF
:103830006E6F6F0000656E6E0A00136F6E6500009C
:103840006E6E6E0A00006F6E6E0000006E6E0A00F3
:1038500000006E6E00000000000000000A2600005C
:103860000000001D00000000001300000000000028
:103870000000000000000000000000000000000048
:1038800000000000000000006626130000046666C9
:10389000260000016626260A00006666261C000037
:1038A000662666660A000A26262613000014662687
:1038B00014000000666666000404040404040404A2
:1038C00004040404040404040404050404040404B7
:1038D00004040404040403040404040403040404AA
:1038E0000404020404040404040400000026040484
:1038F0000300000A040404000000040404010000A2
:103900000404040402000404040302000404030188
:1039100000000302000000132626000000002626F7
:10392000130000002626660A00001D266F660000B0
:10393000001326266500000026266F00000A2626B2
:103940006F65262626266F26000000000000000076
:103950000000000000000000000000000000000067
:103960000000000000000000000000000000000057
:103970000000260A00000000000000000000000017
:103980000000000000000000000000000000000037
:103990000000000000000000000000000000000027
:1039A0000000000000000A6E000000006E6E0000C3
:1039B00000136E6E0000006E6E6E00000A6E6E6E7A
:1039C00000656F6E6E65006E6E6E650A656E6E6E7A
:1039D0000A006E6E6E6E6E656E65000000046F000C
:1039E000000002046E00000003045C0000020404F6
:1039F00000000004040400000304040400000304A5
:103A0000040400000001020403030303030304048D
:103A10000404040404040404040404040404040466
:103A20000404040404040404040404040404040456
:103A30000403040404040403030000006E6E040085
:103A4000006E6E6E0400006E6E6E0300136E6E6E7E
:103A500001016E6E6E0A010A6F6E650000136E6ED4
:103A60000A00001C6E6E00006E6E00000000650013
:103A7000000000000A00000000000000000000003C
:103A80000000000000000000000000000000000036
:103A90000000000000000000000026662600000074
:103AA00066266F00000066262600000014662600C9
:103AB000000014266F0000006626260000006666DF
:103AC0006600000066666600010404040403010445
:103AD00004040201010404020000010101000000CD
:103AE000000000000A1C0000000A66660013666FF2
:103AF0006F6E0A6626266F65010000000A1D000031
:103B0000001C252600006526262665662626260A30
:103B10006626261C1300262666090000650A00009A
:103B2000000000000000000026266F1D2626262625
:103B30005C0A0A6F2613000000130000000000005A
:103B40000000000000000000000000000000000075
:103B50000000000000000000266600000000266F44
:103B6000000000006F2665000000001D6F66660102
:103B70000001262626660000262626660000262648
:103B80002666000A26662666000000000000000087
:103B90000000000000000000000000000000000025
:103BA000000000000000651300000000666F6666FC
:103BB00013006F6666666E6500000000000000007E
:103BC00000000000000000000000000000000000F5
:103BD00000000000000000000000000000000000E5
:103BE00000005C0000000000000000000000000079
:103BF00000000000000000000000000000000000C5
:103C000000000000000000000000000000000000B4
:103C1000000000000000000900000000000000009B
:103C20000000000000000000000000000000000094
:103C30000000000000000000000013650000656E39
:103C40006E6E656E6E6E6F6E00000000656E000039
:103C500000006E6E000000656E6E00136E6E6E00EA
:103C6000656E6E6E0A006E6F6E6E00006F6E6E6E29
:103C700000006F6E6E6E00006E6E6E6E6E6F6E6523
:103C80006E6E6E6E6E090A6E6E6E00000000136E30
:103C900000000000000A000000000000000000001A
:103CA00000000000000000006500000000036E132B
:103CB000000000016E6E650000006E6E6E6E6500A5
:103CC0006E6E6E6E6E650A6E6E6E6E6E0000096EC2
:103CD0006E6E0000000A656E0404040404550304BB
:103CE0000404045401030404040300000103040257
:103CF000000000010303650A000000016E6E65000C
:103D000000006E6E6E650A0000656E6E0000006554
:103D10006E65000000656E650000006E6E5C000060
:103D2000006E6E5C000000656E0A000000656E0AA1
:103D3000000000656E0A000000006F6F650900005A
:103D40006F666626000066666666000065666666E3
:103D50000000006665000000000000000000000098
:103D600000000000000000006626266F0000666F5D
:103D700013000000660A000000000A0000000000B6
:103D80000000000000000000000000000000000033
:103D90000000000000000000000000000000000023
:103DA0000000000A000000000026000000000A26B3
:103DB00000000000262600000A26262600006626AF
:103DC0002626000A2626266600262626261366268E
:103DD000261D0A016F266F0A00032666660001048D
:103DE000262601010404261C010404046F010404B6
:103DF00004041D00040404046F66266F6F2600008F
:103E00001326266F0301000A146F04040300000A3E
:103E10000404040303000404040404040404040468
:103E2000040404040404040466650A0A0000262647
:103E3000262626666F266F6F6F2613666F266F26FF
:103E400000011313666F0404030301010404040456
:103E50000404040404040404000000000000666676
:103E6000666513136F666F666E666F26666F6F66A4
:103E70006F6F6F266F6F00000000000004040402E3
:103E800002010404040404040000000000001313F1
:103E900065656626666F6F666E6E6F6F6F6E6F6FAD
:103EA000666E6F6E6F6F000000000000010202037B
:103EB00003030404040404040000000A6566266E7B
:103EC0006E6E6E6F6F6E6E6E6F6F666F6E6F666525
:103ED0006F665C130000010203030404040404047D
:103EE00004040404040404046F6E6E6F6E6F6E6E3F
:103EF0006F1C00006F130A0001030A000002040493
:103F00000003030404040404040404040404040477
:103F100004040404040404041C6E6E6E65000000B6
:103F2000656E6E6603010A6F6E6E040400136E6E9A
:103F3000040402016E6E040404030A6E0404040403
:103F4000006504040404010A0000000000000A00E7
:103F5000000000006E00000000006E5C0000000029
:103F60006E6E5C0000006E6E6E1300006F6E6E6E03
:103F70000000666F6E6E650000000000006E0000BD
:103F80000000000000000000000000000000000031
:103F90000000000000000000000000000000000021
:103FA00000000000000000006E6E6E6E6E520A652A
:103FB0006E6E6E6E00006E6E6E6E0000096E6E6E3E
:103FC0000000000A656E0000000000000000000014
:103FD000000000000000000000656E0A00006E6531
:103FE0006E0A00006E6E6E0000006E6E6E000000C5
:103FF0006E6E6E0000000A6E6E00000000130A0074
:1040000000000000000000000000000000000000B0
:10401000000000130000000000260000000A6F26C8
:1040200000000026262600000A6F266F0000666E3C
:104030006F26000065262626262626262601262609
:1040400026261C006F2626260002262613000203C1
:1040500026260000000026660A0A0A136F266F6FE4
:104060006F6F26666E66666600040404040402042C
:104070000404040404040404040403030303030306
:10408000000000000001135C131313136F266F264A
:10409000266666666F6F6F26040404040404040435
:1040A00004040404040404040404040404040404D0
:1040B0000101020304040A0A000002046F6F6F2664
:1040C0001C0A6F6F6F6F6F6504040404040404041A
:1040D00004040404040404040404040404040404A0
:1040E0000404040404040404040404040002040496
:1040F00004045C000203040404040404040404042F
:10410000040404040404040404040404040404046F
:10411000040404040404040404040404040404045F
:10412000030304040303000004040404040404045B
:10413000040404040404040404040404040404043F
:1041400004040404030304040301000000090A6ECC
:104150006F6F0A656F6E6E6E04040404040204043B
:104160000404040404040404040404040303030313
:1041700002010100000000090A1313656E6E6E6EE5
:104180006E6E6E6F6E6E6E6500136F6E6E6E0200F9
:10419000136E6E6E0400006E6E6E03030100656E9A
:1041A000000000000A656565656513136E6E6E6E2E
:1041B0006E6E6565656565650000000000006E0057
:1041C000000000006E0A000000006E6E6500000036
:1041D0006E6E6E0000006E6E6E6500006E6E6E6E2E
:1041E0006500656565650A0000000A131313000089
:1041F00000000000000000000000000000000000BF
:1042000000000000000000000000000000000000AE
:1042100000000000000000001313130A0A0A000047
:10422000000000000000000000000000000000008E
:10423000000000000000000000000000000000007E
:1042400000000000000000000A13656666260000FA
:10425000000A0A1C0000000000000000000000002E
:10426000000000000000000000000000000000004E
:1042700000000000000000006F6F6F6E6E6E666FD2
:104280006F6F6F6E00000A65666E0000000A5C6565
:1042900000000000000A0000000000000000000014
:1042A00000000000000000006F13000003046E6FA8
:1042B000650A00026F6F6F6F6F65666F6E6F6E6F6E
:1042C00013656E6E6E6E0000000A1365000000003C
:1042D000000A0000000000000404040404040304B5
:1042E000040404041300000203036F651309005261
:1042F0006E6F6F6613136E6E6E6E6E6E1365656E07
:104300006E6E00000A13136504040404040404041C
:104310000404040303030101095C00000A0A656E3A
:104320005C13666F6F6E6E6E6E6E66656E6E656543
:104330001309135C0A090000040401000A5C03006D
:10434000090A6E6F136E6E666E6F6E6E6E6E6E65C0
:104350006E6F6E65130A6509000000000000000022
:1043600000000000000000006E6E6E6E6E6E6E6EDD
:104370006E6E6E656E651300000013000000000095
:10438000000000000000000000000000000000002D
:1043900000000000000000006E65655C0A00130A62
:1043A000000000000000000000000000000000000D
:1043B00000000000000000000000000000000000FD
:1043C000000000000000000042593A4441564944B0
:1043D00020465241534552005052455353205354A6
:1043E00041525420544F20504C415900524553558E
:1043F0004500464952454D414E0053434F52453AC0
:104400000053415645533A0053504C41543A0054DE
:10441000494D4552200050554D5020505245535360
:1044200000505245535320535441525420544F206E
:10443000554E504155534500215041555345442157
:1044400000352900342900332900322900312900A0
:10445000544F5020484947482053434F524553003A
:10446000524553435545204641494C45442100504F
:104470005245535320535441525420544F205245D7
:104480005455524E20544F2047414D4500434F4D07
:10449000504C4554454420434F4E475241545321BC
:1044A00000524553435545205354414745004F5210
:1044B0002047414D45204F5645522100455854490B
:1044C0004E4755495348204245464F52452054498E
:1044D0004D45522052554E53204F5554005553458B
:1044E00020555020414E4420444F574E20544F20D9
:1044F000434F4E54524F4C20484F53450054415067
:10450000204120414E44204220544F204255494CE6
:104510004420555020505245535355524500505257
:1045200045535320535441525420425554544F4EF6
:1045300021005245534355452053544147452000DF
:10454000505245535320414E5920425554544F4EDA
:1045500020544F2054525920414741494E004E4566
:104560005720484947482053434F52452100544F54
:104570004F204D414E592044454154485320544FFB
:104580002053415645532100594F55204641494C2F
:10459000454420544F20455854494E4755495348A7
:1045A00020464952450047414D45204F564552212E
:1045B00000505245535320414E5920425554544FB8
:1045C0004E20544F2054525920414741494E004EED
:1045D000455720484947482053434F5245210053EF
:1045E000434F524520434F554E544552205749544E
:1045F00048204D41582053434F52452100594F55B3
:104600002046494E49534845442047414D452041A5
:104610004E442042524F4B4500484F4C59204D4F7D
:104620004C59210011241FBECFEFD0E1DEBFCDBF1A
:1046300014BE88E10FB6F894809360001092600079
:104640000FBE11E0A0E0B1E0E2E5FAE802C005909B
:104650000D92A837B107D9F71DE0A8E7B1E001C076
:104660001D92A033B107E1F70E94E426882311F4DC
:104670000E94FA26F894E3E5FAE080E881939CE052
:10468000EF35F907D9F783E59AE09093600C8093B2
:104690005F0C1092610C91E09093780C9093790CE0
:1046A0009093770C1092640C10926A0C1092700C1C
:1046B0001092760C10923E0A82E180933F0A80EEBF
:1046C0008093480A8093460A84E18093470A809346
:1046D000450A10924C0A10924B0A1092500A1092FE
:1046E0004F0A9093630C0E94003120E930E0F901F9
:1046F00085919491FC01F07090832E5F3F4F80E094
:104700002E3B3807A1F778940E944A320E94F54365
:104710000C9427450C94000030EE3A950C949023AD
:10472000E1F70C949323C8E7D1E000EEA02E6627B2
:1047300076E037D13BE23A95F1F70E94C72331E1A9
:104740003A95F1F7AA9489F0C8956395683029F0F5
:1047500033E03A95F1F70000ECCF6627002430E50E
:10476000C30FD01DC8950000E4CF35E03A95F1F7AE
:1047700000C017D111E000913C0A012700933C0AC8
:1047800000FF1093400AE2E0E09336000895DE0156
:104790004D915D91679FC001480F591FFA0128E2B2
:1047A000059108B94D91059108B95D91059108B938
:1047B00000C0059108B9480F591F059108B9059126
:1047C000FA012A9508B961F700C00000002708B96E
:1047D00008950F921F92EF93FF93EFB7EF93E0913D
:1047E0008400E251F1E0EF1700F0F395FA30D8F3CE
:1047F0000C94FA23E0913F0AEA95E0933F0AF09186
:104800003E0AF0FD57C0EC3098F0F3E0F0938900D9
:10481000FDE8F0938800E0FB289826F4E1E00E9490
:10482000B625B8C0E5E1EA95F1F70000289AB2C0D4
:10483000E63038F100C000C02898E0FBE4E016F450
:104840000E94B625E4E0E0933600E6E0E0936F00D6
:10485000A1C0EF93EFB7EF93E0918400ED55E13005
:1048600000F0E23000F0E33000F0E43000F0E5303A
:1048700000F0289AE2E0E0936F00EF91EFBFEF9134
:10488000189500C0E0FB289826F4E1E00E94B625C8
:1048900005C0E5E1EA95F1F70000289AE0913F0AAA
:1048A000E03009F077C0EDEFE0933F0AE1E0E093FC
:1048B0003E0A70C0E7E0E0938900EBE1E0938800F6
:1048C00000C02898E2E000C00E94B625FDEF0090ED
:1048D000450AF019E0913F0AEF17E0F4FDEF009070
:1048E000450AF0190090460AF019EF1798F0EDE12B
:1048F000FF2700800F92EA95E1F70FE10A95F1F7A3
:10490000000000000E948C23E1E0FF270F9001923D
:10491000EE31E0F3E0913F0AE03009F03BC02F9325
:104920003F934F935F936F937F938F939F93AF9337
:10493000BF9378941124EE27E0933E0AE2E1E093DE
:104940003F0AF091470AF093450AF091480AF09324
:10495000460AE091410AF091420AE115F10509F099
:1049600009950E94D3260E9456310E94DC2411240E
:10497000E091430AF091440AE115F10509F0099527
:10498000BF91AF919F918F917F916F915F914F9167
:104990003F912F91EF91EFBFFF91EF911F900F90FB
:1049A00018952898E2E000C00E94B625E0913F0AE1
:1049B000EA95E0933F0A0895E091630CE0FD0E94C0
:1049C00077280090610C002019F4A3E5BAE002C03A
:1049D000A9E5BBE021E002260092610C22E02093D1
:1049E000620CE091630CE0FF08952F923F924F928A
:1049F0005F926F927F928F929F92AF92BF92CF926F
:104A0000DF92EF92FF920F931F93CF93DF9350911A
:104A1000760C6091780C7091790C80917A0C2090D2
:104A2000650C3090660C4090680C5090690C60905A
:104A3000670C1091640C70906B0C80906C0C9090D3
:104A40006D0CA0906E0CB0906F0C20916A0CC09011
:104A5000710CD090720CE090740CF090750C009179
:104A6000730C3091700C9FEF620C431CF201449167
:104A7000410300240008C12DD02D970CA81CF5017E
:104A80004491420300240008C10DD01D0C0DED1C03
:104A9000F7014491430300240008C10DD01D8A95FD
:104AA0006AF44091770C842F8695062E069406268C
:104AB00000FA7695679576F940FF66F940E860FD63
:104AC0004FE7450300240008C10DD01D0024C03865
:104AD000D0050CF0CFE70A94C038D0050CF4C0E83C
:104AE000C058CD939A9509F0BFCF4091620C4A957A
:104AF0004093620C97E009F0B7CF6092670C409248
:104B0000680C90926D0CA0926E0C0093730CE09266
:104B1000740C6093780C7093790C80937A0CDF910D
:104B2000CF911F910F91FF90EF90DF90CF90BF90AA
:104B3000AF909F908F907F906F905F904F903F903D
:104B40002F900895E0915F0CF091600C01910000AE
:104B50000093B3000CE0EF35F00703E51AE008F02E
:104B6000F801E0935F0CF093600C08950F931F938E
:104B70002F93EF93E0915F0CF091600C0191009303
:104B8000B3000CE0EF35F00703E51AE008F0F80198
:104B9000E0935F0CF093600CE8E0EA95F1F7EF9199
:104BA0002F911F910F91E0FD289AE0FF01C0089519
:104BB000F4E1FA95F1F700C0E1FD289AE1FF00C0A9
:104BC000089599277727833008F00895E8E0F6E5FF
:104BD000660F771FE60FF71FA591B491E4E6FCE09E
:104BE00026E0289FE00DF11DA183B28311240895D2
:104BF0009091770C9170880F892B8093770C089592
:104C000099277727E4E6FCE026E0289FE00DF11DD8
:104C10006E3F31F46091770C6E7F6093770C0BC020
:104C20006F3F31F46091770C6E6F6093770C03C027
:104C300078E5760F75831124089599277727E4E6A0
:104C4000FCE026E0289FE00DF11D6083112408950B
:104C5000E0E6F4E0A8E7B1E06091380A7091390A23
:104C60006D937D933197E1F7112408959927552786
:104C700028E2220F629F880F080E191EA8E7B1E0F4
:104C8000A00DB11D6091380A7091390A20E3429F4E
:104C9000600D711D6D937C931124089599277727DA
:104CA00028E2220F629F880F080E191EA8E7B1E0C4
:104CB000A00DB11D60913A0A70913B0A20E3429F1A
:104CC000600D711D529F700D6D937C93112408959A
:104CD0008093380A9093390A089580933A0A909302
:104CE0003B0A08958091400A089511241092400AC9
:104CF0000895882329F48091490A90914A0A0895D9
:104D000080914D0A90914E0A0895F999FECF92BD77
:104D100081BD60BDF894FA9AF99A78940895F9994A
:104D2000FECF92BD81BDF894F89A80B5789408952D
:104D3000129AC895C895129820E030E080E090E083
:104D400040E036952795969587951398C895C89510
:104D5000009B3068019B9068139AC895C8954F5F77
:104D6000403179F730934A0A2093490A90934E0ACA
:104D700080934D0A8091490A90914A0A0F9731F029
:104D800080914D0A90914E0A0F9761F428E088E1D6
:104D900090E00FB6F894A895809360000FBE209322
:104DA0006000FFCF08951092C20C009903C081E00B
:104DB0008093C20C019905C08091C20C82608093DF
:104DC000C20C0E94982608951F9380E090E00E94F4
:104DD0008F26182F81E090E00E948F2690E0382FD8
:104DE00020E0210F311D2A55354509F491E0892F26
:104DF0001F910895CF93DF93C0E0D0E0FE01E0590A
:104E0000FF4FE491CE016E2F0E9485262196C0327D
:104E1000D105A1F7C0E2D0E0CE016FEF0E94852658
:104E2000CE0101966FEF0E948526A09688E0C030E3
:104E3000D80791F7DF91CF910895FC014587089538
:104E400081E091E09093790C8093780C4093770CFB
:104E50000895FC0180818F7580830895FC01808115
:104E6000806480830895FC0144870895FC01478392
:104E70000895FC01408708951F93CF93DF93EC01C1
:104E8000162F898190E0FC01EE0FFF1FE85FF94AC1
:104E900025913491E42FFF27E7FDF095E80FF91FE6
:104EA000EE0FFF1FE85FF94A859194916091CA0C5B
:104EB000821B930B70E00E9420449B0161157105D9
:104EC00011F421E030E0812F90E0FC01EE0FFF1F94
:104ED000E80FF91FEE0FFF1FEC59F34F818192810C
:104EE000820F931F928381833B832A83888188600A
:104EF00088838981840F8C83DF91CF911F910895DE
:104F00004093CA0C08959093200D80931F0D8FE657
:104F10008093240D1092520AE5ECFCE090E18FEFB3
:104F200028E1908313868187828716862087958360
:104F300076963DE0ED31F307A1F70895DC01ED91A0
:104F4000FC911197AF014F5F5F4F11965C934E93A9
:104F5000E4912E2F30E0E7FF13C02F7730703695A5
:104F6000322F222737952795FA014F5F5F4FE49143
:104F70008E2F8F77280F311DE7FDF1CF4D935C9376
:104F8000C9010895FF920F931F938C01862FF42E71
:104F9000642F0E94E125F801F1821F910F91FF908B
:104FA0000895FC01862F6181641B61830E94E125C5
:104FB0000895FC01862F9181490F4183642F0E943F
:104FC000E1250895FF920F931F93CF93DF93182F3E
:104FD000F62E86E1189FE0011124CB53D34F00E059
:104FE000888187FD01E01A8A1D869FEF9C874B8789
:104FF0001B8A88818062877B88831F8299872983A7
:10500000133069F4002309F4F22E81E091E09093CB
:10501000790C8093780C81E08093770C08C0812F05
:10502000622F0E94E125812F60E00E94002600236C
:1050300011F0FF8601C0FE8689E0F89EC0011124B0
:10504000E0911F0DF091200DE80FF91F3396259187
:1050500034912115310519F41D8A1C8A07C0F90104
:105060008491898B2F5F3F4F3D8B2C8BDF91CF91AC
:105070001F910F91FF900895582F742FA82FB0E023
:1050800086E190E0A89FF001A99FF00DB89FF00D78
:105090001124EB53F34F308135FF02C037FD26C09A
:1050A000222391F486E190E0A89FF001A99FF00DE2
:1050B000B89FF00D1124EB53F34F3F7B3083858570
:1050C0008823A1F41386089586E190E0A89FF0015B
:1050D000A99FF00DB89FF00D1124EB53F34F3F77CC
:1050E0003083852F422F272F0E94E2270895AF9209
:1050F000BF92DF92EF92FF920F931F93CF93DF93B4
:10510000A5ECBCE0C5E6DCE01D968C911D978823DC
:10511000B9F0282F332727FD30951C968C911C97CA
:10512000280F311D2F3F310519F014F02FEF30E01B
:10513000C90137FF02C080E090E01C968C931C9759
:105140008C9183FF26C012964D915C911397288114
:105150003981240F351F3983288314968C91149735
:10516000E82FF0E0EE0FFF1FE85FF94A8591949178
:105170001416150624F42817390730F40AC0452BF5
:1051800041F08217930728F0998388838C91877F59
:105190008C93569626964DE0AD31B40709F0B4CF06
:1051A0008091520A882309F0DEC0FAC0E091270DF1
:1051B000F091280DCF0101969093280D8093270D33
:1051C00044914F3F69F5AC014F5F5F4F5093280DFD
:1051D0004093270DFC0184918F3219F41092520AEA
:1051E000D0C0863009F0B2C0FA013196CF010196E5
:1051F0009093280D8093270DE491E33529F4909343
:105200002A0D8093290DA2C0E53409F09FC080913A
:10521000290D90912A0D9093280D8093270D96C00B
:1052200047FF02C04093210D2091210D322F3F7086
:1052300047FF08C001969093280D8093270D019792
:10524000FC014491822F90E0807F9070803B91051B
:1052500031F1803C910509F46DC08039910509F068
:1052600075C0E091270DF091280D3196F093280D2F
:10527000E093270D3197E491832F90E08C9FD0012C
:105280008D9FB00D9C9FB00D1124AB53B34FEE0F0B
:10529000832F1E966C912E2F0E943C2857C0E091C0
:1052A000270DF091280D3196F093280DE093270DEE
:1052B00031972491473071F4832F90E08C9FF00157
:1052C0008D9FF00D9C9FF00D1124EB53F34F220F97
:1052D00022873CC04B3071F4832F90E08C9FF0010B
:1052E0008D9FF00D9C9FF00D1124EB53F34F220F77
:1052F00021872CC04C3571F4832F90E08C9FF001F6
:105300008D9FF00D9C9FF00D1124EB53F34F220F56
:1053100027831CC04436D1F4832F90E08C9FF0018A
:105320008D9FF00D9C9FF00D1124EB53F34F220F36
:1053300020870CC0832F90E08C9FF0018D9FF00D93
:105340009C9FF00D1124EB53F34F468787E29DE0BD
:105350000E949E279093260D8093250D10921E0D7E
:1053600010921D0D02C0C6E1D0E020911D0D3091BC
:105370001E0D8091250D9091260D2817390709F4EF
:1053800015CF2F5F3F4F30931E0D20931D0D809141
:10539000220D9091230D01969093230D8093220D61
:1053A000C5ECDCE004E61CE0FF24EFEFAE2EB12CF0
:1053B000DC2EED2E888186FD3DC08C899D89892B50
:1053C00009F435C09A898989981768F530C0EC8945
:1053D000FD89CF0101969D8B8C8B24912F3F31F459
:1053E00088818F7788831D8A1C8A21C001969D8BB6
:1053F0008C8B0197FC014491822F90E0880F991FBC
:1054000082549F4FFC01259134918D2D9E2D6F2D3F
:10541000F9010995EC89FD893196FD8BEC8B31976B
:10542000E491E98B1A8A9A898989981781F28A8985
:105430008F5F8A8B888185FD03C020E030E06BC0E0
:105440008B898F3F11F08F5F8B8B9B85992309F49C
:105450005CC02C85222309F458C08A85882309F46E
:1054600054C04091240D442309F44FC0899FC001CA
:10547000112480509F4F892F992730E0B901869FD2
:105480009001879F300D969F300D112420503F4F83
:10549000232F3327898590E0FC012E9FC0012F9F89
:1054A000900D3E9F900D112480509F4F892F99277A
:1054B000242F30E0AC01429FC001439F900D529FCA
:1054C000900D112480509F4F292F33278F818823DF
:1054D000F1F0EE81F0E0E050F84AE491E058E89F06
:1054E000C001112480509F4F892F9927B501681B57
:1054F000790B629FC001639F900D729F900D1124E4
:1055000080509F4F292F332702C020E030E08E814A
:105510009885890F8E83F8012083F39466960A5F3D
:105520001F4FF4E0FF1609F043CFDF91CF911F9199
:105530000F91FF90EF90DF90BF90AF900895582F9C
:10554000762F89E0589FC0011124E0911F0DF09142
:10555000200DE80FF91F8491813011F443E021C040
:10556000823011F444E01DC08091DB0C87FF16C02F
:105570008091EA0C851711F4442381F48091F10C99
:1055800087FF0EC08091000D851711F4442341F46C
:105590009091EE0C8091040D891710F441E001C048
:1055A00042E0242F30E086E190E0289FF001299F1F
:1055B000F00D389FF00D1124EB53F34F808180687C
:1055C0008083842F652F472F20E50E94E2270895CE
:1055D000862F642F0E94002608950000000000001E
:1055E00000000000000000000000000000000000BB
:1055F00000000000000000000000000000000000AB
:1056000080E08093630C0895220024002600280087
:105610002B002D0030003300360039003D004000E3
:10562000440048004C00510056005B0060006600DA
:105630006C00730079008100880090009900A2003E
:10564000AC00B600C100CC00D800E500F3000101B9
:10565000100121013201440157016C0181019801BF
:10566000B001CA01E501020221024102640288027E
:10567000AE02D7020303300361039403CB03050496
:1056800042048304C70410055D05AF0505066106E5
:10569000C206290796070908830805098E09200A0A
:1056A000BA0A5D0B0A0CC10C840D510E2B0F12109F
:1056B00007110A121D1340147415BA161418831911
:1056C000071BA31C571E24200E22142439267F28D2
:1056D000E82A752D293006330F364539AD3C49404F
:1056E0001B442848734CFE50CF55EA5A51600C6653
:1056F0001D6C8B725A79928037885090E598FDA185
:105700009FABD3B5A3C00000000000000000000064
:105710000000000000000000000000000000000089
:105720000000000000000000000000000000000079
:105730000000000000000000000000000000000069
:105740000000000000000000000000000000000059
:105750000000000000000000000000000000000049
:105760000000000000000000000000000000000039
:105770000000000000000000000000000000000029
:105780000000000000000000000000000000000019
:105790000000000000000000000000000000000009
:1057A00000000000000000000000000000000000F9
:1057B00000000000000000000000000000000000E9
:1057C00000000000000000000000000000000000D9
:1057D00000000000000000000000000000000000C9
:1057E00000000000000000000000000000000000B9
:1057F00000000000000000000000000000000000A9
:10580000000306090C101316191C1F2225282B2E25
:10581000313336393C3F414447494C4E515355583A
:105820005A5C5E60626466686A6B6D6F70717374F7
:10583000757678797A7A7B7C7D7D7E7E7E7F7F7FB0
:105840007F7F7F7F7E7E7E7D7D7C7B7A7A79787696
:1058500075747371706F6D6B6A68666462605E5CAC
:105860005A585553514E4C494744413F3C393633C1
:10587000312E2B2825221F1C191613100C09060384
:1058800000FDFAF7F4F0EDEAE7E4E1DEDBD8D5D28B
:10589000CFCDCAC7C4C1BFBCB9B7B4B2AFADABA856
:1058A000A6A4A2A09E9C9A9896959391908F8D8C79
:1058B0008B8A8887868685848383828282818181A0
:1058C0008181818182828283838485868687888A9A
:1058D0008B8C8D8F9091939596989A9C9EA0A2A464
:1058E000A6A8ABADAFB2B4B7B9BCBFC1C4C7CACD2F
:1058F000CFD2D5D8DBDEE1E4E7EAEDF0F4F7FAFD4C
:10590000808182838485868788898A8B8C8D8E8F1F
:10591000909192939495969798999A9B9C9D9E9F0F
:10592000A0A1A2A3A4A5A6A7A8A9AAABACADAEAFFF
:10593000B0B1B2B3B4B5B6B7B8B9BABBBCBDBEBFEF
:10594000C0C1C2C3C4C5C6C7C8C9CACBCCCDCECFDF
:10595000D0D1D2D3D4D5D6D7D8D9DADBDCDDDEDFCF
:10596000E0E1E2E3E4E5E6E7E8E9EAEBECEDEEEFBF
:10597000F0F1F2F3F4F5F6F7F8F9FAFBFCFDFEFFAF
:10598000000102030405060708090A0B0C0D0E0F9F
:10599000101112131415161718191A1B1C1D1E1F8F
:1059A000202122232425262728292A2B2C2D2E2F7F
:1059B000303132333435363738393A3B3C3D3E3F6F
:1059C000404142434445464748494A4B4C4D4E4F5F
:1059D000505152535455565758595A5B5C5D5E5F4F
:1059E000606162636465666768696A6B6C6D6E6F3F
:1059F000707172737475767778797A7B7C7D7E7F2F
:105A000000020406080A0C0E10121416181A1C1EA6
:105A100020222426282A2C2E30323436383A3C3E96
:105A200040424446484A4C4E50525456585A5C5E86
:105A300060626466686A6C6E70727476787A7C7E76
:105A40007F7D7B79777573716F6D6B696765636156
:105A50005F5D5B59575553514F4D4B494745434146
:105A60003F3D3B39373533312F2D2B292725232136
:105A70001F1D1B19171513110F0D0B090705030126
:105A8000FFFDFBF9F7F5F3F1EFEDEBE9E7E5E3E116
:105A9000DFDDDBD9D7D5D3D1CFCDCBC9C7C5C3C106
:105AA000BFBDBBB9B7B5B3B1AFADABA9A7A5A3A1F6
:105AB0009F9D9B99979593918F8D8B8987858381E6
:105AC00080828486888A8C8E90929496989A9C9EE6
:105AD000A0A2A4A6A8AAACAEB0B2B4B6B8BABCBED6
