:100000000C94DD500C9481510C9481510C948151CD
:100010000C9481510C9481510C9481510C94815118
:100020000C9481510C9481510C9481510C94815108
:100030000C9481510C941A550C9481510C9481515B
:100040000C9481510C9481510C9481510C948151E8
:100050000C9481510C9481510C9481510C948151D8
:100060000C9481510C9481510C9481510C948151C8
:100070005A5501200101003808000000000000006E
:100080000000000000000000000000000000000070
:100090006E58765879587B58865892589B58A45871
:1000A000AC58BC58C45800408891D2E4ADB5B6BE37
:1000B000BFFF0002090107C00100FC00FF000203AE
:1000C0000107C00100FC00FF00020300000000FF68
:1000D00000020300000000FF0000F10107FF19010A
:1000E000FF03050000FF0002000107FF0000FC0005
:1000F0000850060301060301060301060401060475
:100100000106040100050000FF00020300077F0054
:100110000850010406010406010406010700030754
:100120007F000850010406010406010406010700CF
:10013000030850000720010406010406010406011B
:10014000040601050000FF00020A0007FF0000FC92
:100150000008050007FF04050000FF0000077F00FE
:10016000020A0000FF000843010404010404010422
:10017000040104040104040104040104040104044E
:1001800001040401040402076400083C01040401A2
:10019000040401040401040401040401040401042E
:1001A0000401040401040401040402074600083C9D
:1001B0000104040104040104040104040104040111
:1001C00004040104040104040104040104040207FA
:1001D0002800083C0104040104040104040104048F
:1001E00001040401040401040401040401040401E1
:1001F000040402071400083C01040401040401047F
:1002000004010404010404010404010404010404BD
:1002100001040401040401050000FF000000B20015
:1002200000000000000000BD000000000000000011
:10023000C80000000000000000D000000000000026
:100240000000D80000000000000000E600000000F0
:10025000000000000901000000000000004701004C
:100260000000000000005C010000000000C0010070
:10027000B0077F00902B7600C10000B107640091A9
:10028000477F189026710091457F0D437B06477F7D
:1002900006901F71192B6519217B0091477F074735
:1002A000761290287B0091477B0D477F06437F069F
:1002B000902D6A0D91407F0C90285F191D7B009155
:1002C000477606457B13901D7F0091437F0D437B4E
:1002D0000C9024710091477F0D457F0C90246500A0
:1002E00091437F0D437B06406A0690267B0D913E2D
:1002F0007F0C9021761926760C91477F0D90217600
:100300000091477F0C457F0D902B7B0091477F1913
:1003100090267B0091457F0C437B07477F06901F0B
:100320007B192B7119217F0091477F0C47760D9027
:1003300028650091477F0C477606437F07902D760E
:100340000C91407F0D90287B0C91407F0DFF0601A2
:100350005300901D7F0091437F12437F07901D76CD
:100360000C91437F0C90266500914A7F074A7F12CB
:100370009026760091467F0D457B0C901F7F009163
:10038000437F19901F76191F7F191F7F02020001FA
:100390000809020202030A0B02020E0F15160202DE
:1003A000001C082202021011171802021F20252625
:1003B00002021213191A020227282D2E02021D1EF4
:1003C00023240202292A2F30010104FEFEFEFEFE34
:1003D000FEFEFEFEFEFEFEFEFEFEFEFEFEFEFE003B
:1003E0000000FEFEFE00002E2E2E00FE000000008B
:1003F000000000FE0000000000E9E90000002E00FF
:10040000E9E9E9002E002E00E9E9E9FEFEFEFEFE24
:10041000FEFEFEFEFEFEFEFEFEFEFEFEFE000000F6
:10042000FEFEFE00002E2E2E00FEFE00999900001A
:100430000000FE00E9E900E900000000E9E900E948
:10044000E9000000999900E9E90000FEFEFEFEFEC9
:10045000FEFEFEFEFEFEFEFEFEFEFEFEFEFEFE5268
:100460005252FEFEFE525252525252FE52525252BC
:10047000525252FE525252525252525252525252B0
:100480005252525252525252525252FEFEFEFEFEF0
:10049000FEFEFEFEFEFEFEFEFEFEFEFEFE52525280
:1004A000FEFEFE525252525252FEFE5252525252D0
:1004B0005252FE5252525252525252525252525270
:1004C0005252525252525252525252FE990000000F
:1004D0000099FE992E2E2EB6B6B699002E002E2E1D
:1004E000B6B600002E002E00B6B600002E002E0F6D
:1004F00000B600002E002E2EB6B600992E2E2EB677
:10050000B6B699FE990000000099FEFEFEFEFEFEC2
:10051000FEFEFEFEFEFEFEFEFEFEFEFEFEFEFEFEFB
:10052000FEFEFEFEFEFEFEFEFEFEFEFEFEFEFEFEEB
:10053000FEFEFEFEFEFEFEFEFEFEFEFEFEFEFEFEDB
:10054000FEFEFEFEFEFEFEFEFEFEFEFEFEFEFEFECB
:10055000FEFEFEFEFEFEFEFEFEFEFEFEFEFEFE00B9
:100560000000FEFEFE130A2525250AFE13141414AE
:10057000141414FE14141414E9E91413141414E9D3
:10058000E9E91414141414E9E9E914FEFEFEFEFE70
:10059000FEFEFEFEFEFEFEFEFEFEFEFEFE00000075
:1005A000FEFEFE0A0A2E2E2E0AFEFE13131313134E
:1005B000130AFE0F0F0F14E913130A0F0F0F14E99C
:1005C000E9130A0F0F0F14E9E9131300002E0000BE
:1005D000E9E9E9002E002E00F4E9E90000002E0010
:1005E000E9F4E9FE0000000000E9E9FE0000000077
:1005F000000000FEFE00002E2E0000FEFEFEFE00AB
:100600000000FEFEFEFEFEFEFEFEFE00000000E913
:10061000E9000000999900F4E9000000E9E900E927
:10062000E9000000E9E900E90000000099990000F4
:100630000000FE00002E2E2E00FEFEFEFE0000003A
:10064000FEFEFEFEFEFEFEFEFEFEFE525252525226
:10065000525252525252525252525252525252527A
:10066000525252FE52525252525252FE5252525212
:10067000525252FEFE525252525252FEFEFEFE5252
:100680005252FEFEFEFEFEFEFEFEFE52525252523E
:10069000525252525252525252525252525252523A
:1006A000525252525252525252525252525252522A
:1006B0005252FE525252525252FEFEFEFE525252BE
:1006C000FEFEFEFEFEFEFEFEFEFEFE14141414E907
:1006D000E9E91414661414F4E9E91413146614E92E
:1006E000F4E914FE14141414E9E914FE1314141498
:1006F000141414FEFE131325252513FEFEFEFE0022
:100700000000FEFEFEFEFEFEFEFEFE14141414E9C2
:10071000E91413E3E3E314F4E91413E3E3E314E962
:10072000E91414E3E3E314E9141413141414141473
:100730001413FE131325252513FEFEFEFE000000F4
:10074000FEFEFEFEFEFEFEFEFEFEFEFEFEFEFEFEC9
:10075000FEFEFEFEFEFEFE000000FEFEFE00002E7F
:100760002E2E00FE00000000000000FE0000000031
:1007700000E9E90000002E00E9F4F40000002E007A
:10078000F4F4F4002E002E00F4F4F4FEFEFEFEFE5F
:10079000FEFEFEFEFEFEFEFEFEFEFEFEFE00000073
:1007A000FEFEFE00002E2E2E00FEFE009999000097
:1007B0000000FE00F4F400E900000000F4F400E999
:1007C000E9000000999900E9E90000FEFEFEFEFE46
:1007D000FEFEFEFEFEFEFE000000FEFEFE00002EFF
:1007E0002E2E00FE00000000000000FE00000000B1
:1007F0000099990000002E0099E9E90000002E0000
:10080000E9E9E9002E002E00E9E9E9FEFEFEFEFE20
:10081000FEFEFEFEFE000000FEFEFE00002E2E2E5E
:1008200000FEFE00000000000000FE00999999996A
:1008300000000000F4F400E999000000F4F400E97D
:10084000E9000000999900E9E90000FEFEFEFEFEC5
:10085000FEFEFEFEFEFE002E2E0000FEFE0000004C
:10086000002E00FE000000000000000000002E002E
:1008700000E9E9002E002E00E9E9E900002E000061
:10088000E9E9E9002E002E00F4E9E9FEFEFEFEFE95
:10089000FEFEFEFEFEFEFEFEFEFEFE00002E000040
:1008A000FEFEFE0000992E2E00FEFE00E9E900008B
:1008B0000000FE00E9E900E90000FE0099E900E916
:1008C000E9000000009900E9E90000FEFEFEFEFEDE
:1008D000FEFEFEFEFEFEFEFEFEFEFEFEFE00000032
:1008E000FEFEFE0A0A2E2E2E0AFEFE13131313130B
:1008F000130AFE5F5F5F14E913130A5F5F5F14E979
:10090000E9130A5F5F5F14E9E9131300002E00008A
:10091000F4F4F4002E002E00F4F4F40000002E0095
:10092000E9F4F40000002E00E9F4F4FE00000000F9
:1009300000E9E9FE00000000000000FEFE00002EBD
:100940002E2E00FEFEFEFE000000FE003F3F00E9EE
:10095000E9000000999900F4E9000000F4F400E9CE
:10096000E9000000F4F400E900000000999900009B
:100970000000FE00002E2E2E00FEFEFEFE000000F7
:10098000FEFEFEFEFEFEFEFEFEFEFE00002E00004F
:10099000E9E9E9002E002E00F4E9E90000002E004C
:1009A000E9F4E90000002E0099E9E9FE00000000EA
:1009B000009999FE00000000000000FEFE00002EDD
:1009C0002E2E00FEFEFEFE000000FE00000000E9EC
:1009D000E9000000999900F4E9000000F4F400E94E
:1009E000E9000000F4F400E9990000009999999950
:1009F00000000000000000000000FE00002E2E2E6F
:100A000000FEFEFEFE000000FEFEFEFE00002E00C8
:100A1000E9E9E9FE0000000000F4E9FE0000000042
:100A200000E9E9FEFE00002E2E0000FEFEFEFE00A4
:100A3000000000FEFEFEFEFEFEFEFEFEFEFEFEFED0
:100A4000FEFEFEFEFEFEFEFEFEFEFE00990000E93A
:100A5000E9000000E99900F4E9000000E9E900E993
:100A6000E9000000990000E900000000002E0000ED
:100A70000000000000002E2E0000FEFEFEFE000022
:100A8000FEFEFEFEFEFEFEFEFEFEFE14141414E943
:100A9000E91413D8D8D814F4E91413D8D8D814E921
:100AA000E91414D8D8D814E9141413141414141411
:100AB0001413FE131325252513FEFEFEFE00000071
:100AC000FEFEFEFEFEFEFEFEFEFEFEFEFEFEFEFE46
:100AD000FEFEFEFEFE000000FEFEFEFE002E2E2E9E
:100AE00000FEFE00000000000000FE009999E9E908
:100AF00000000000F4F400F4E9000000F4F400F455
:100B0000F4000000999900F4F40000FEFEFEFEFEE1
:100B1000FEFEFEFEFEFEFEFEFEFEFEFEFEFEFE00F3
:100B20000000FEFEFEFEFE2E2E2E00FE0000FEFE4B
:100B300027270FFE000F00FEFE2727FE000F2E00C6
:100B4000FE0FE9FE2E0F2E00E90F0FFEFEFEFEFE49
:100B5000FEFEFEFEFEFEFEFEFEFEFEFE0F0000009E
:100B6000FEFEFE00002E2E2E000FFE0F0F9900003D
:100B70000000FE2727E9000FFEFEFE00E9E90FFE58
:100B8000E9000000990FFEFE270000FEFEFEFEFEBB
:100B9000FEFEFEFEFEFEFEFEFEFEFEFEFEFEFEFE75
:100BA000FEFEFEFEFEFEFEFEFEFEFEFEFEFEFE0063
:100BB000000000FEFE00002E2E0000FE00000000DF
:100BC00000E9E9FE0000000000F4E9FEFEFEFEFE82
:100BD000FEFEFEFEFEFEFEFEFEFEFEFEFEFE000031
:100BE000FEFEFE0000002E2E0000FE00002E000083
:100BF00000000000990000E900000000E9E900E9B8
:100C0000E9000000E99900F4E90000B0B0B0B0B02C
:100C1000B0B0B0B0B0B0B0B0B0B0B0B0B0B0B0B0D4
:100C2000B0B0B0B0B0B0B0B0B0B0B0B0B0B0B0B0C4
:100C3000B0B0B0B0B0B0B0B0B0B0B0B0B0B0B0B0B4
:100C4000B0B0B0B0B0B0B0B0B0B0B0003F3F00F4A2
:100C5000F4000000999900F4F4000000F4F400F4AA
:100C6000F4000000F4F400F4E90000009999E9E9C7
:100C700000000000000000000000FEFE002E2E2EEE
:100C800000FEFEFEFE000000FEFEFE00000F0F0054
:100C9000E9E9E9002E000F27F40F0F0000002E27CE
:100CA0000F0FE9FE0000FEFEFEE90FFE0000FE0051
:100CB00000000FFEFEFEFE2E2E0000FEFEFE0F00C8
:100CC0000000FEFEFEFEFEFEFEFEFE0F2727FE27B4
:100CD000270000FE999900F4FEFE0000FEFE0FE9D9
:100CE000E90FFE0FE9FEFEE900000000990FFE008B
:100CF0000000FE00002EFE2E00FEFEFEFE00FE00A6
:100D0000FEFEFEFEFEFEFEFEFEFEFEFE00002E00CD
:100D1000E9E9E9002E002E00F4E9E900002E0000C8
:100D2000E9E9E9002E002E00E9E9E90000002E00C3
:100D300000E9E9FE00000000000000FEFE000000E7
:100D4000002E00FEFEFE002E2E000000990000E99D
:100D5000E9000000009900E9E900000099E900E9D4
:100D6000E9000000E9E900E90000FE00E9E900000F
:100D70000000FE0000992E2E00FEFE00002E000056
:100D8000FEFEFEFEFEFEFEFEFEFEFEFEFEFEFEFE83
:100D9000FEFEFEFEFEFEFEFEFEFEFEFEFEFEFEFE73
:100DA000FEFEFEFEFEFEFE2E27FEFEFE0F0FFEFEE8
:100DB00027FE0FFE000F00FEFEFEFEFEFEFEFE0002
:100DC000FE0FFEFE2E0FFEFEFE0FFEFEFEFEFEFEE0
:100DD000FEFEFEFEFEFEFEFEFEFEFEFE0F00FE001E
:100DE000FEFEFEFE002EFE2E27FEFEFE0F99FEFEEC
:100DF000FE27FE2727FE000FFEFEFEFEFEE90FFE89
:100E0000E900FEFE99FEFEFE2700FEFEFEFEFEFE4F
:100E1000FEFEFEFEFEFEFEFEFEFEFEFEFEFEFEFEF2
:100E2000FEFEFEFEFEFEFE2E27FEFEFE0FFEFEFE78
:100E300027FE0FFE00FEFEFEFEFEFEFEFEFEFEFE96
:100E4000FEFEFEFE2E0FFEFEFEFEFEFEFEFEFEFE81
:100E5000FEFEFEFEFEFEFEFEFEFEFEFE0FFEFEFEA1
:100E6000FEFEFEFEFEFEFEFEFEFEFEFE0FFEFEFE91
:100E7000FE27FE27FEFE000FFEFEFEFEFEE9FEFE42
:100E8000E9FEFEFE99FEFEFEFEFEFEFEFEFEFEFEFC
:100E9000FEFEFEFEFEFEFEFEFEFEFEFEFEFEFE0070
:100EA000000000FEFEFEFE002E2E2EFEFEFE00B610
:100EB000002E2EFEFEFE00B6002E2EFEFE00B6B662
:100EC000B6002EFEFE00B6B6B6002EFEFEFEFEFEFC
:100ED000FEFEFEFEFEFEFEFEFEFEFE00000000FE2A
:100EE000FEFEFE2E2EB6B600FEFEFE2E2E2EB6B650
:100EF00000FEFE2E2E2EB6B600FEFE2E062E00B6EC
:100F0000B600FE2E062E00B6B600FE27000F0F001C
:100F1000FEE9E90F2E00FEFEF40F0F0F0FFE2E2745
:100F20000FFEE9FEFEFEFEFEFEFE0FFE0000FE00CE
:100F300000FE0FFEFEFEFE2EFEFE0FFEFEFE0F006A
:100F4000FE00FEFEFEFEFEFEFEFEFE0FFEFEFE2785
:100F5000FEFE0FFEFE0FFEFEFEFE0FFEFEFEFEFE7E
:100F6000E90FFEFEE9FEFEFEFE0000FE990FFE0FF9
:100F70000FFEFEFE0F2EFE2E0FFEFEFEFE00FE27D3
:100F8000FEFEFEFEFEFEFEFEFEFEFE2700FEFE0054
:100F9000FEFEE90FFE00FEFEF4FEFE0FFEFE2EFE3C
:100FA000FEFEE9FEFEFEFEFEFEFE0FFEFEFEFE0063
:100FB000FEFE0FFEFEFEFEFEFEFE0FFEFEFE0F001C
:100FC000FEFEFEFEFEFEFEFEFEFEFE0FFEFEFE2707
:100FD000FEFE0FFEFE0FFEFEFEFEFEFEFEFEFEFE0F
:100FE000E90FFEFEFEFEFEFEFEFEFEFEFE0FFE0F03
:100FF0000FFEFEFE0FFEFEFE0FFEFEFEFE00FE27B3
:10100000FEFEFEFEFEFEFEFEFEFEFEFEFE00B6B68E
:10101000B6002EFEFE00B600B6002EFEFEFE00B6A6
:10102000002E2EFEFEFE00B6002E2EFEFEFEFE0060
:10103000252525FEFEFEFE00000000FEFEFEFEFE53
:10104000FEFEFEFEFEFEFEFEFEFEFE2E2E2525B65A
:10105000B600FE25252E2EB6B600FE2E2E2EB6B6D6
:1010600000FEFE252525B6B600FEFE2525B6B600F7
:10107000FEFEFE00000000FEFEFEFEFEFEFEFEFE88
:10108000FEFEFEFEFEFEFEFEFEFEFE000000000076
:101090000000000000000000000000000000000050
:1010A0000000000000000000000000000000000040
:1010B0000000000000000000000000000000000030
:1010C0000000000000000000000000000000000020
:1010D000000000170000000000000017AD00000035
:1010E00000000017AD0000000000001717AD000061
:1010F0000000000017AD0000000000001717AD0051
:10110000000000001717AD00000000001717AD0029
:1011100000000000171717AD00000000001717AD02
:101120000000000000171717AD0000000017171788
:10113000AD0000000017171717AD000000001717CB
:1011400017AD00000000171717AD001700001717A4
:101150001717AD17AD0017171717AD0017AD1717F5
:101160001717AD0017AD0017171717001717171728
:10117000171717001717171717171700171717172D
:101180001717170017171717171717000000000079
:10119000000000000000000000000000000000004F
:1011A000000000AD00000000009090AD00000000C5
:1011B00000909017AD00000000909017AD00000067
:1011C00000909017AD00909090909000000000006B
:1011D000000000000000000000000000000000000F
:1011E00000000090AD00000000000090AD00000085
:1011F00000000090AD0000000000909090AD000055
:101200000000909090AD00000000900000000000F1
:1012100000000000000000000000000000000000CE
:1012200000000000000000000000000000000000BE
:101230000000009090AD00000000009090AD000014
:101240000000009090AD00000000000000000000D1
:10125000000000000000000000000000000000008E
:10126000000000000000000000000000000000007E
:10127000000000000000000000000000000000006E
:10128000000000000000000D1700000000171717F5
:10129000171717000017171717171700001717173A
:1012A000171717000017171717171700001717172A
:1012B0001717170000001717171717000000171748
:1012C00017171700000017171717171717AD90906B
:1012D0009090901717AD0090909090171717AD90C1
:1012E000909090171717AD0090909017171717ADA3
:1012F00090909017AD1717AD0090901717AD00ADF7
:101300000000AD1717AD0000000000909090909085
:1013100090909090909090909090909090909090CD
:1013200090909090909090909090909090909090BD
:1013300090909090909090909090909090909090AD
:1013400090909090909090ADADADAD9090AD00002C
:10135000000000909090AD00000000909090AD00D3
:10136000000000909090AD00000000909090AD00C3
:10137000000000909090AD000000009090ADAD0096
:10138000000000ADADAD000000000000000000173F
:1013900017170000000000171717170000000017AC
:1013A0001717170000000017171717000000001785
:1013B000171717000000001717171700000000008C
:1013C0001717170000000000AD17170000000000FD
:1013D00000000000000000000000001700000000F6
:1013E000000000171700000000000017171700008A
:1013F000000000171717170000000017171717171E
:101400000000001717171717170000000000171724
:1014100017171700000017171717170000000017FD
:101420001717170000000017171717000000001704
:1014300017171700000000171717170000000017F4
:1014400017171700000000001717171717AD000037
:101450000000001717AD0090900000171717AD900F
:10146000909000171717AD909090AD171717AD001B
:1014700090909017171717AD90909017171717ADFA
:1014800090909017171717AD00909090909090AD96
:1014900000000000ADADADAD000000009090909058
:1014A000000000009090909090909000909090900C
:1014B000909090AD90909090909090AD0090909082
:1014C000909090AD0090909090909000000000005F
:1014D000000000000000000000000000000000000C
:1014E000000000909090AD000000009090909090CF
:1014F000AD00009090909090AD00009090909090F2
:10150000AD0000909090909090AD00000000000021
:1015100000AD1700000000000000AD00000000005A
:1015200000000000000000000000000000000000BB
:1015300000000000000000000000000000000000AB
:101540000000000000000000000000171717171728
:101550001717001717171717171717AD171717179C
:1015600017171700AD1717171717170000AD171724
:10157000171717000000AD17171717000000001706
:1015800017171700000017171717170000000000A3
:1015900017171700000000001717171700000000AA
:1015A000171717171700000017171717171700003E
:1015B0000017171717171700001717171717171700
:1015C000001717171717171717171717171717AD2C
:1015D0000000AD1717171717AD00001717171717CB
:1015E000AD90901717171717AD009017171717170B
:1015F000AD0090171717171717AD90171717171774
:1016000017AD00171717171717AD00AD0000909012
:1016100090909000000000ADADADAD909000000046
:10162000000000909090909090909090909090906A
:1016300090909090909090909090909090909090AA
:10164000909090909090909090909090909090909A
:1016500090AD00AD9090909090AD0000ADADADAD6F
:10166000ADAD0090000000000000009090909090C0
:1016700090AD0090909090909090AD9090909090C0
:101680009090AD90909090909090AD001717171794
:1016900017171717171717171717171717171717DA
:1016A00017171717171717171717AD171717171734
:1016B00017ADAD17171717ADADAD000017ADADAD38
:1016C0000000000000AD00000000001717171717FA
:1016D000171717171717171717171717ADAD17176E
:1016E000171717AD0000AD1717171700000000AD52
:1016F0001717170000000000AD17170000000000CA
:1017000000AD1700000000000000AD1717171717F5
:101710001717AD17171717171717AD17171717172D
:101720001717AD17171717171717AD17171717171D
:101730001717171717171717171717171717171739
:10174000171717171717171717171700ADAD909022
:1017500090909000000000909090AD0000000090EC
:101760009090AD0000000090909090AD000000902F
:10177000909090AD00000090909090AD000000908F
:10178000909090AD0000000090909090909090907C
:101790009090ADAD909090909090AD00ADADAD902B
:1017A0009090AD00000000009090AD9090909090CF
:1017B0009090909090909090909090909090909029
:1017C00090909090909090909090900000000000E9
:1017D0000000000000000000000000000000000009
:1017E0000000000000000000000000AD000000004C
:1017F00000000090AD00000000000090AD0000006F
:1018000000000090AD000000000000000017171756
:10181000171700000D1717171717AD001717171711
:101820001717AD00171717171717AD00171717174A
:10183000171717001717171717171700171717ADD0
:10184000AD171700171717AD0017170017AD0000D9
:10185000000000001717AD0000000000171717ADBB
:101860000000000017171717AD0000AD1717171766
:10187000AD0000AD1717171717AD00AD00171717FC
:1018800017AD00AD0000171717AD00AD17F617F62E
:1018900017F6170017F617F617F6170017F6F6F6ED
:1018A000F6F6F6001717F6F6F6F6F6000017171715
:1018B000171717000017F6F6F6F6F6000017F6F6FB
:1018C000F6F6F60000171717F6F61717AD0000002A
:1018D00000909017AD00000000009017AD000000D0
:1018E0000000001717AD00000000001717AD000042
:1018F0000000901717AD00000090901717AD000082
:10190000009090171717AD000090909090909090D5
:1019100090909090909090909090909090909090C7
:1019200090909000ADADADADADADAD90909090AD5F
:101930000000009081909090909090909090909066
:10194000909090909090909090909090AD0000002A
:1019500000000090AD000000000000ADAD000000F0
:10196000000000AD000000000000000000000000CA
:101970000000009090AD00000000009090AD0000CD
:10198000000000909090AD00000000000D1717AD12
:10199000001717000017171717171700001717174A
:1019A0001717170000001717171717000000171751
:1019B0001717170000000017171717000000000086
:1019C000171717000000000000AD1717AD0017171C
:1019D00017AD0017AD0017171717AD171717171703
:1019E0001717AD17171717171717AD17171717175B
:1019F0001717AD171717171717ADAD1717171717B5
:101A000017AD001717171717ADAD0000001717F621
:101A1000F6F6F600001717F6F6F6F60000001717B0
:101A200017171700000017F6F6171700000017F633
:101A3000F6F6F60000001717F6F6F600001717176F
:101A4000F6F6170000171717171717F61717AD0038
:101A5000009090F61717AD0000909017171717AD6C
:101A600000009017171717AD000090F6F61717AD86
:101A7000000000F6F61717AD00000017171717172C
:101A8000AD00001717171717AD00009090909090B9
:101A90009090909090909090909090909090909046
:101AA000909090909090ADADADADAD909090AD0018
:101AB0000000000090909090900000009090909016
:101AC0009090900090909090909090909090AD0019
:101AD000000000909090AD00000000909090AD004C
:101AE000000000AD9090AD000000000000ADAD0022
:101AF000000000000000000000000090909090ADF9
:101B000000000090909090AD0000000000000000E8
:101B10000000AD0000000000170000000000000001
:101B20001717000000000000171717000000000042
:101B3000171717000000000017171700000000001B
:101B40000017170000000000000017ADADADADADEF
:101B5000AD170000000000001717AD0000000017CF
:101B60001717AD00000017171717171717171717B4
:101B700017171717171717171717171717171717F5
:101B800017171717171717171717AD00001717177D
:101B9000171717000000171717171700000017175F
:101BA00017F6F60000001717F6F6F6AD0000171747
:101BB000F6F617AD0000171717F6F6AD0000001780
:101BC00017F6F6AD00000017171717171717171796
:101BD000AD00001717171717AD0000F617171717E6
:101BE00017AD00F6F617171717AD0017F6171717EA
:101BF00017AD00F6F6F617171717ADF6F6F6171726
:101C00001717AD17171717ADAD17AD00909090903F
:101C100090909000909090909090900090909090E4
:101C20009090900000909090909090000000ADAD4A
:101C3000ADADAD000090909090000000909090901D
:101C4000909090009090909090909090909090AD07
:101C500000000090909090AD0000009090909090C7
:101C6000AD00009090909090AD000090909090907A
:101C7000AD0000ADADADADADAD00009090909090D9
:101C800090AD00909090909090AD0000000000000A
:101C900000000000000000171717170000000017D1
:101CA000171717000000001717171700000000177C
:101CB000171717000000000017171700000000009A
:101CC000171717000000000017171700000000008A
:101CD000000000170D00000000000017171717176D
:101CE0001717171717171717171717171717171784
:101CF0001717171717171717171717171717171774
:101D00001717171717171717171717171717171763
:101D100017ADAD0017171717ADAD00171717171729
:101D2000AD000017171717171717171717171717DB
:101D30001717171717171717171717171717171733
:101D4000171717171717171717171700000000177F
:101D500017F6F6000000001717F6F600000000174F
:101D600017F6F617170000171717F61717AD00002C
:101D70001717F61717AD00001717171717AD000044
:101D80001717F61717AD00001717F6F6F6F6171720
:101D9000AD00ADF6F6F61717AD00001717171717B9
:101DA000AD0000F6F6F6F61717AD00F6F6F6F617E4
:101DB00017AD00171717171717AD00F6F6F6F61739
:101DC00017AD00F6F6F6F6171717AD009090909045
:101DD0009090900090909090909090009090909023
:101DE00090909000909090909090900000909090A3
:101DF000AD90900000909090AD90900000909090E9
:101E0000ADAD900000909090AD009090909090902B
:101E100090AD00909090909090AD009090909090A8
:101E200090AD0090909090909090AD909090909008
:101E30009090AD90ADADAD909090AD909000009031
:101E40009090AD9090909090909090000000000045
:101E50000000000000000000000000000000000082
:101E60000000000000000000000000000000000072
:101E70000000000000000000000000000000000062
:101E8000000000AD000000000000000000000000A5
:101E900000171700000000000017170000000000E6
:101EA00000171700000000000000170000000000ED
:101EB00000001700000000000000170000000000F4
:101EC00000000000000000000000001717ADADADDD
:101ED000ADADAD1717AD00000000001717AD000045
:101EE000000000171717AD00000000171717AD000E
:101EF000000000171717AD0000000017171717ADE7
:101F000000000017171717AD000000ADAD17171729
:101F1000171717000000ADADADADAD00000000001B
:101F200000000000000D17171717170000171717EC
:101F3000171717000D171717171717001717171769
:101F400017171700171717171717171717AD0000D0
:101F50000017F6ADADAD00000017170000AD000092
:101F600000171717AD0000000017171717AD000076
:101F7000001717171717AD0000001717171717AD21
:101F800000001717171717AD000017F617F61717E9
:101F90001717ADF6F6F6F6F61717ADF6F6F6F6F6EF
:101FA0001717AD17171717171717AD171717171795
:101FB00017ADAD1717171717ADAD901717171717E0
:101FC000AD909017171717ADAD909000000090904E
:101FD000AD00900000000090AD00900000000000F7
:101FE000AD00900000000000000000909090000004
:101FF0000000009090909090000000909090909041
:102000009048009090909090909000909090909038
:1020100090909090909090909090909090909090C0
:10202000ADADAD909090ADAD9090900090AD909092
:1020300090909000009090909090900000909090E0
:102040009090900090909090909090AD0000000043
:10205000000000AD00000000000000AD0000000026
:1020600000000090AD000000000000909090AD00D6
:102070000000009090909090AD0000909090909013
:1020800090AD0090909090909090AD000000000076
:102090000000000000000000000000000000000040
:1020A0000000000000000000000000000000000030
:1020B0000000000000000000000000000000000020
:1020C000000017000000000000001717171717ADD9
:1020D0000000000017171717AD000000171717179B
:1020E000AD00000017171717AD00000000171717F5
:1020F00017AD00000017171717AD000D00171717C1
:1021000017AD0017171717171717AD001717171761
:1021100017171700171717ADADADAD001717ADADF9
:102120000000000017171700000000000D17171718
:1021300000000000001717171717170000171717D0
:102140001717170000001717171717171717171764
:10215000AD00171717171717AD0000ADAD171717FC
:1021600017AD00000000171717AD0000000017178B
:1021700017AD00171717171717AD001717171717F1
:1021800017AD00171717171717AD00171717ADADB5
:10219000909090171717AD90909090171717AD90DB
:1021A00090909000ADADAD90909090000000909018
:1021B00090909000000090909090900000004890C7
:1021C000909090000000009090909090909090904F
:1021D00090909090909090909090909090909090FF
:1021E00090909090909090909090909090909090EF
:1021F00090909090ADADAD9090909090AD0000AD6E
:10220000AD909090AD00000000AD90009090909047
:1022100090909090909090909090909090909090BE
:1022200090909090909090909090909090909090AE
:10223000909090909090909090909090909090909E
:10224000ADADAD90909090ADAD000090909090901D
:102250009090AD9090909090909090909090909061
:10226000909090909090909090909090909090906E
:102270009090909090909090909090AD9090909041
:1022800090909000ADAD9090909090000000000074
:10229000000000AD00000000000000AD00000000E4
:1022A00000000090AD00000000000090AD000000B4
:1022B0000000009090AD00000000009090AD000084
:1022C0000000009090AD00000000001717171717CE
:1022D0001717AD17171717171717AD001717171779
:1022E00017171700171717171717170017171717AC
:1022F00017171700001717171717170000171717CA
:1023000017171700001717171717170000001717D0
:102310001717170000000017171717AD000000006F
:10232000171717AD0000000000AD17AD000000004A
:102330000000AD17AD00000017171717AD00000023
:1023400017171717AD0000171717171717171717B5
:1023500017AD00171717171717AD0017171717170F
:10236000ADAD0017171717ADAD0000ADADADADADFC
:102370000000001717171717170000171717171760
:1023800017170017171717171717AD0090000090B1
:102390009090900090AD00909090900090AD00488B
:1023A0009090900090900000909090009090AD00E0
:1023B00090909000009090009090900000909090ED
:1023C000909090000090909090909090AD000000C0
:1023D0000000AD90AD00000000000090AD000000D6
:1023E000000000909090909090909090909090909D
:1023F00090909090909090909090909090909090DD
:10240000909090909090909090909090909090ADAF
:1024100000000090909090AD00000090909090ADE2
:102420000000009090909090AD000090909090905F
:10243000909090909090909090909090909090909C
:102440009090909090909090909090000000AD901F
:1024500090909000000000909090900000000090FC
:1024600090909000000000009090909090000000EC
:10247000909090909090909090909090909090905C
:1024800090909090909090909090909090AD00004F
:10249000000000909090AD00000000909090AD0082
:1024A000000000909090AD00000000909090AD0072
:1024B000000000909090AD00000000909090AD0062
:1024C00000000090909090AD0000000000001717F1
:1024D0001717170000001717171717000000171716
:1024E0001717170000000017171717000000001734
:1024F000171717000000001717171700000000003B
:10250000171717000000000017171717AD00001766
:102510001717171717AD0000171717AD17AD0000E5
:10252000171717AD00AD0000171717AD000000001A
:1025300000171717AD00000000171717AD000000B7
:1025400000001717AD000000000D17171717171719
:102550001717AD1717171717171717171717171775
:1025600017171717ADADAD1717171717AD0000AD3B
:10257000ADADAD17AD00000000000017170D000055
:1025800000000017171717171717170000909090E3
:10259000909090AD00009090909090AD0000909041
:1025A000909090AD00009090909090AD0000909031
:1025B000909090000000909090909000000000900B
:1025C0009090901700000090909090909090909034
:1025D00090909090909090909090909090909090FB
:1025E000909090909090909090909090909090ADCE
:1025F000ADADAD90909090AD000000909090909017
:10260000AD00009090909090AD00009090909090D0
:1026100090909090909090909090909090909090BA
:102620009090909090909090909090ADADAD909053
:10263000909090000000ADADADADAD000000000089
:1026400000000000000000000000009090909090BA
:10265000909090909090909090909090909090907A
:10266000909090909090909090909090909090906A
:10267000909090AD9090909090909000ADADADAD59
:10268000ADAD9000000000000000AD90909090ADC6
:1026900000000090909090AD00000090909090AD60
:1026A00000000090909090AD00000090909090AD50
:1026B00000000090909090AD00000090909090AD40
:1026C000000000ADADADADAD0000000000000000A9
:1026D0001717170000000000001717000000000087
:1026E000001717000000000000171700000000008E
:1026F00000001700000000000000170000000000AC
:1027000000001700000000000000001717AD0000D7
:102710000017171717AD00000017171717AD0000A7
:10272000001717171717AD00000017171717AD0080
:10273000000017171717AD00000000171717AD009E
:1027400000000017171717AD00000017171717170D
:102750001717171717171717171717171717171709
:1027600017171717171717171717171717171717F9
:10277000171717171717ADADADADAD171717AD007C
:10278000000000001717170000000017AD000090B0
:1027900090909017AD00009090909017AD00009031
:1027A0009090901717AD00009090901717AD000013
:1027B000909090ADADAD00009090900000000000B2
:1027C000909090000000000090909090AD909090BC
:1027D000AD000090AD90909090AD0090AD009090C5
:1027E00090AD0090AD00009090AD0090AD00000065
:1027F0009090AD9090AD00000090AD9090AD000035
:102800000090AD9090AD00000000AD000000000011
:1028100000000000000000000000000000000000B8
:10282000000000000000000017171700000000174C
:1028300017171700000017171717170000001717B2
:10284000171717000000171717171717171717ADC7
:1028500000000017171717AD000000001717171713
:10286000AD00001717171717AD0000171717171728
:10287000AD0000171717171717AD00171717171701
:1028800017AD00171717171717AD001717171717DA
:1028900017171717171717171717171717171717C8
:1028A00017171700171717171717170017171717E6
:1028B00017171700171717171717170000ADADAD2B
:1028C0001717170000000000ADADAD17170000008E
:1028D0000090901717170000009090171717AD0081
:1028E000009090171717AD00009090171717AD00C4
:1028F0000000AD17ADADAD17171717ADAD17171712
:10290000171717AD17171717171717909090AD00D7
:10291000000000909090AD00000000909090AD00FD
:10292000000000ADADADAD00000000AD171717AD54
:102930000000001717171717AD0000171717171704
:102940001717AD17171717171717170000000000F4
:102950000000000000000000000000000000000077
:102960000000000000000000000000000000000067
:102970000000000000000000000000000000000057
:1029800000000017AD000000000000000000171755
:102990001717170000001717171717000000171751
:1029A0001717170000001717171717000000171741
:1029B0001717170000001717171717000000171731
:1029C00017171700000017171717171717171717DC
:1029D0001717AD17171717171717AD17171717175B
:1029E0001717AD1717171717171717ADADADAD1789
:1029F000171717AD000000ADADADADAD0000000084
:102A0000000000AD00000000000000000000000019
:102A1000001717000000000000171700000000005A
:102A2000171717AD00000000171717AD00000017AB
:102A3000171717AD00000017171717000000001731
:102A40001717170000000017171717171717171772
:102A50001717171717171717171717171717171706
:102A600017171717171717171717171717171717F6
:102A700017171717171717171717171717171717E6
:102A800017171717171717171717171717AD00006E
:102A9000000000171717AD0000000017171717AD3B
:102AA00000000017171717AD0000001717171717AA
:102AB000AD00001717171717AD00001717171717D6
:102AC00017AD00171717171717AD000000001717DD
:102AD000171717000000001717171700000000173E
:102AE0001717170000000017171717000000000045
:102AF000171717000000000017171700000000004C
:102B00000017170000000000001717AD00000000BC
:102B10000000001700000000000000171717000059
:102B2000000000171717171717171717171717177A
:102B30001717171717171717171717171717171725
:102B4000171717171717171717171700000017175A
:102B50001717170000001717171717001717171761
:102B600017171717171717171717171717171717F5
:102B700017171717171717171717171717171717E5
:102B800017171717171717171717171717171717D5
:102B90001717AD1717171717ADADAD17171717176D
:102BA000AD000017171717ADAD000017171717ADB9
:102BB00000000017171717AD00000017171717AD03
:102BC000000000171717AD00000000AD171717170A
:102BD00017171700171717171717AD00171717171D
:102BE0001717AD00001717171717AD0000171717A5
:102BF00017171700001717171717170000171717C1
:102C00001717170000171717171717171717171782
:102C10001717ADAD171717171717AD0000171717B0
:102C20001717170000001717171717AD0000171711
:102C3000171717AD00001717171717AD0000171754
:102C400017171717AD001717171717000000000008
:102C50000000000000000000000000AD00000000C7
:102C6000000000AD00000000000000AD000000000A
:102C7000000000AD0000000000000017AD000000E3
:102C800000000017AD000000000000000000000080
:102C9000000017000000000000000000000000001D
:102CA0000000000000000000000000000000000024
:102CB0000000000000000000000000000000000014
:102CC0000000000000000000000000171717171791
:102CD000171717171717171717171700171717179B
:102CE00017171700001717171717170000001717E7
:102CF000171717000000000017171700000000004A
:102D00000000000000000000000000171717171750
:102D10001717171717171717171717171717171743
:102D20001717171717171717171717171717171733
:102D300017171717171717171717AD0017171717A4
:102D400017ADAD001717171717AD00171717AD0000
:102D5000000017171717AD000000001717AD00008F
:102D60000000001717AD000000000017AD000000C4
:102D7000000000AD000000000000000000000000A6
:102D800000000000000000000000001717171717D0
:102D900017171717171717171717171717171717C3
:102DA00017171700171717171717170017171717E1
:102DB00017171700171717171717170000171717E8
:102DC000171717000017171717171717AD1717172B
:102DD0001717171717171717171717171717171783
:102DE0001717171717171717171717171717171773
:102DF0001717171717171717171717171717171763
:102E0000171717171717171717171717AD00000001
:102E100000000017AD00000000000017AD0000002A
:102E200000000017AD00000000000017AD0000001A
:102E3000000000ADAD000000000000AD000000008B
:102E4000000000AD000000000000000000000000D5
:102E50000000000000000000000000000000000072
:102E600000170D0000000000000017000000000027
:102E7000000017000000000000000000000000003B
:102E800000000000000000000000000017171717E6
:102E900017AD00001717171717AD00000017171709
:102EA00017AD0017001717171717AD1717171717B4
:102EB0001717AD17171717171717AD171717171776
:102EC0001717AD0017171717171717000017171741
:102ED000171717000000171717171700000017170C
:102EE00017171700000000ADADADAD0000000000E9
:102EF00000000000000000000000000000000000D2
:102F0000000000000000000000000017171717174E
:102F10001717AD171717171717AD0017171717172C
:102F2000AD0000ADADADADAD000000000000000093
:102F30000000000000000000000000000000000091
:102F40000000000000000000000000001717171725
:102F5000171717000017171717171700001717175D
:102F6000171717000000171717171700000017177B
:102F700017ADAD000000001717AD000000000017EE
:102F800017AD0000000000001717ADAD00000000F5
:102F9000000000AD00000000000000AD00000000D7
:102FA00000000017AD00000000000017AD00000099
:102FB00000000000AD000000000000000000000064
:102FC0000000000000000000000000000000000001
:102FD0001717AD00000000000017AD000000000052
:102FE0000017AD0000000000000017000000000006
:102FF00000001700000000000000000000000000BA
:1030000000000000000000000000000000000000C0
:1030100000000000000000000000000000000000B0
:10302000000000AD00000000000000AD0000000046
:1030300000000017AD00000000000017AD00000008
:103040000000000000000000000000000000000080
:103050000000000000000000000000000000000070
:103060000000000000000000000000000000000060
:103070000000000000000000000000000000000050
:103080000000000000000000000000000000000040
:103090000000000000000000000000000000000030
:1030A000000000FFFFFFFF0000FF00FFFFFFFF0029
:1030B00000FF000000000000000000000000000011
:1030C0000000000000000000000000000000000000
:1030D00000000000ADAD00ADAD0000FFFFFFFFFF41
:1030E000FFFF00FFA0A0FFFFA0FF00FFA0A0FFFFC9
:1030F000A0FF00FFFFFFFFFFFFFF0000ADAD00AD31
:10310000AD00000000000000000000004F000000C3
:103110004F00004F4F4F4F4F4F4F00004F000000E8
:103120004F0000004F0000004F0000004F00000063
:103130004F00004F4F4F4F4F4F4F00004F000000C8
:103140004F000000000000000000000000004F00E1
:10315000000000004F4F4F4F4F4F004F00004F00F7
:10316000000000004F4F4F4F4F00000000004F4F36
:103170004F4F004F4F4F4F4F4F00000000004F0088
:1031800000000000000000000000004F4F000000A1
:103190000000004F4F00004F0000000000004F00F3
:1031A00000000000004F0000000000004F00000081
:1031B0000000004F00004F4F0000000000004F4F84
:1031C000000000000000000000000000004F4F0061
:1031D000000000004F00004F000000004F4F004F64
:1031E000000000004F4F4F000000004F00004F4F05
:1031F000004F004F0000004F4F0000004F4F4F4F57
:10320000004F00000000000000000000000000006F
:10321000000000FF00000000000000FFFF000000B1
:1032200000000000FFFF00000000000000FF0000A1
:10323000000000000000000000000000000000008E
:103240000000000000000000000000000000004F2F
:103250004F00000000004F0000000000004F000081
:1032600000000000004F000000000000004F0000C0
:103270000000000000004F00000000000000004FB0
:103280004F0000000000000000000000004F4F0051
:10329000000000000000004F0000000000000000DF
:1032A0004F000000000000004F0000000000000080
:1032B0004F0000000000004F00000000004F4F00D2
:1032C00000000000000000000000000000000000FE
:1032D0000000000000004F00000000004F004F0001
:1032E0004F000000004F4F4F000000004F004F0004
:1032F0004F00000000004F00000000000000000030
:1033000000000000000000000000000000000000BD
:103310000000000000004F000000000000004F000F
:10332000000000004F4F4F4F4F00000000004F00C3
:103330000000000000004F0000000000000000003E
:10334000000000000000000000000000000000007D
:10335000000000000000000000000000000000006D
:103360000000000000000000FFFF0000000000005F
:10337000FFFFFF00000000000000FF000000000051
:10338000000000000000000000000000000000003D
:10339000000000000000FF00000000000000FF002F
:1033A000000000000000FF00000000000000FF001F
:1033B000000000000000FF00000000000000FF000F
:1033C00000000000000000000000000000000000FD
:1033D00000000000000000000000000000000000ED
:1033E0000000000000000000FFFF000000000000DF
:1033F000FFFF0000000000000000000000000000CF
:1034000000000000000000000000000000000000BC
:10341000004F0000000000004F0000000000004FBF
:103420000000000000004F0000000000004F0000FE
:10343000000000004F0000000000004F00000000EE
:10344000000000000000000000000000000000007C
:1034500000000000FFFFFFFFFF0000FFFFFFFFFF76
:10346000FFFF00FF00FF000000FF00FF0000FF0063
:1034700000FF00FFFFFFFFFFFFFF0000FFFFFFFF58
:10348000FF0000000000000000000000000000003D
:10349000000000000000000000FF0000000000002D
:1034A00000FF00FFFFFFFFFFFFFF00FFFFFFFFFF29
:1034B000FFFF000000FF000000FF00000000000010
:1034C00000FF0000000000000000000000000000FD
:1034D00000000000FFFF000000FF00FFFFFFFF00F3
:1034E00000FF00FF0000FF0000FF00FF000000FFE2
:1034F00000FF00FFFF0000FFFFFF0000FF000000D3
:10350000FFFF0000000000000000000000000000BD
:1035100000000000FFFF00FFFF0000FFFFFFFFFFB4
:10352000FFFF00FF0000FF0000FF00FF0000FF00A2
:1035300000FF00FFFF000000FFFF0000FF00000091
:10354000FF0000000000000000000000000000FF7D
:10355000000000FFFFFFFFFFFFFF00FFFFFFFFFF77
:10356000FFFF0000FFFF00FF0000000000FF00FF62
:10357000000000000000FFFF000000000000FFFF4F
:10358000000000000000000000000000000000003B
:10359000000000FF0000FFFFFF0000FF00FFFFFF33
:1035A000FFFF00FF00FF000000FF00FF00FF000022
:1035B00000FF00FFFFFF0000FFFF00FFFFFF000014
:1035C000FF000000000000000000000000000000FC
:1035D00000000000FF0000FFFF0000FFFF00FFFFF2
:1035E000FFFF00FF0000FF0000FF00FF0000FF00E2
:1035F00000FF00FFFFFFFFFFFFFF0000FFFFFFFFD7
:10360000FF000000000000000000000000000000BB
:10361000000000FFFF000000000000FFFFFF0000AF
:10362000000000FF00FFFFFFFFFF00FF0000FFFFA3
:10363000FFFF00FFFF000000000000FFFF00000090
:10364000000000000000000000000000000000007A
:1036500000000000FFFF00FFFF0000FFFFFFFFFF73
:10366000FFFF00FF0000FF0000FF00FF0000FF0061
:1036700000FF00FFFFFFFFFFFFFF0000FFFF00FF55
:10368000FF0000000000000000000000000000003B
:1036900000000000FFFFFFFFFF0000FFFFFFFFFF34
:1036A000FFFF00FF0000FF0000FF00FF0000FF0021
:1036B00000FF00FFFFFFFF00FFFF0000FFFF000013
:1036C000FF000000000000000000000000000000FB
:1036D00000000000004F4F0000000000004F4F00AE
:1036E000000000000000000000000000004F4F003C
:1036F00000000000004F4F0000000000000000002C
:1037000000000000000000000000000000000000B9
:1037100000000000004F4F0000000000004F4F006D
:10372000000000000000000000000000004F4F00FB
:1037300000000000004F4F00000000004F4F00004D
:103740000000000000000000000000000000004F2A
:103750000000000000004F0000000000004F0000CB
:10376000000000004F00000000000000004F0000BB
:103770000000000000004F00000000000000004FAB
:10378000000000000000000000000000004F004F9B
:1037900000000000004F004F00000000004F004FED
:1037A00000000000004F004F00000000004F004FDD
:1037B00000000000004F004F00000000000000006B
:1037C000000000000000000000000000004F0000AA
:1037D0000000000000004F00000000000000004F4B
:1037E00000000000000000004F0000000000004F3B
:1037F0000000000000004F0000000000004F00002B
:1038000000000000000000000000000000000000B8
:1038100000000000FFFF0000000000FFFFFFFF00AE
:10382000000000FF0000FFFF00FF00FF000000FF9E
:1038300000FF00FFFF00000000000000FF0000008C
:10384000000000000000000000000000004F4F4F8B
:10385000000000004F0000004F00004F00004F002C
:103860004F00004F004F004F4F00004F00004F4FE0
:10387000000000004F00000000000000004F4F4F0C
:103880004F000000000000000000000000000000E9
:103890000000000000FFFFFFFFFF0000FFFFFFFF31
:1038A000FFFF00FFFF00FF00000000FFFF00FF0020
:1038B00000000000FFFFFFFFFFFF000000FFFFFF11
:1038C000FFFF0000000000000000000000000000FA
:1038D00000000000FFFF00FFFF0000FFFFFFFFFFF1
:1038E000FFFF00FF0000FF0000FF00FF0000FF00DF
:1038F00000FF00FFFFFFFFFFFFFF00FFFFFFFFFFD5
:10390000FFFF0000000000000000000000000000B9
:1039100000000000FF000000FF0000FFFF000000AB
:10392000FFFF00FF0000000000FF00FF000000009C
:1039300000FF00FFFFFFFFFFFFFF0000FFFFFFFF93
:10394000FF00000000000000000000000000000078
:103950000000000000FFFFFF00000000FFFFFFFF6E
:10396000FF0000FFFF000000FFFF00FF000000005D
:1039700000FF00FFFFFFFFFFFFFF00FFFFFFFFFF54
:10398000FFFF000000000000000000000000000039
:10399000000000FF0000000000FF00FF000000002A
:1039A00000FF00FF0000FF0000FF00FF0000FF001D
:1039B00000FF00FFFFFFFFFFFFFF00FFFFFFFFFF14
:1039C000FFFF0000000000000000000000000000F9
:1039D000000000FF00000000000000FF00000000E9
:1039E000000000FF0000FF00000000FF0000FF00DB
:1039F000000000FFFFFFFFFFFFFF00FFFFFFFFFFD3
:103A0000FFFF0000000000000000000000000000B8
:103A100000000000FF00FFFFFF0000FFFF00FFFFAE
:103A2000FFFF00FF0000FF0000FF00FF000000009C
:103A300000FF00FFFFFFFFFFFFFF0000FFFFFFFF92
:103A4000FF00000000000000000000000000000077
:103A5000000000FFFFFFFFFFFFFF00FFFFFFFFFF72
:103A6000FFFF00000000FF00000000000000FF005A
:103A7000000000FFFFFFFFFFFFFF00FFFFFFFFFF52
:103A8000FFFF000000000000000000000000000038
:103A90000000000000000000000000FF0000000027
:103AA00000FF00FFFFFFFFFFFFFF00FFFFFFFFFF23
:103AB000FFFF00FF0000000000FF0000000000000A
:103AC00000000000000000000000000000000000F6
:103AD000000000FF00000000000000FFFFFFFFFFEC
:103AE000FF0000FFFFFFFFFFFFFF00FF00000000DF
:103AF00000FF000000000000FFFF000000000000C9
:103B0000FF000000000000000000000000000000B6
:103B1000000000FF0000000000FF00FFFF000000A9
:103B2000FFFF0000FFFF00FFFF00000000FFFFFF9E
:103B3000000000FFFFFFFFFFFFFF00FFFFFFFFFF91
:103B4000FFFF000000000000000000000000000077
:103B5000000000000000000000FF00000000000066
:103B600000FF00000000000000FF00000000000057
:103B700000FF00FFFFFFFFFFFFFF00FFFFFFFFFF52
:103B8000FFFF000000000000000000FFFFFFFFFF3C
:103B9000FFFF00FFFFFFFFFFFFFF0000FFFF000030
:103BA0000000000000FFFF0000000000FFFF000019
:103BB000000000FFFFFFFFFFFFFF00FFFFFFFFFF11
:103BC000FFFF0000000000000000000000000000F7
:103BD000000000FFFFFFFFFFFFFF00FFFFFFFFFFF1
:103BE000FFFF000000FFFFFF00000000FFFFFF00DD
:103BF000000000FFFFFFFFFFFFFF00FFFFFFFFFFD1
:103C0000FFFF0000000000000000000000000000B6
:103C100000000000FFFFFFFFFF0000FFFFFFFFFFAE
:103C2000FFFF00FF0000000000FF00FF0000000099
:103C300000FF00FFFFFFFFFFFFFF0000FFFFFFFF90
:103C4000FF00000000000000000000000000000075
:103C500000000000FFFF0000000000FFFFFFFF006A
:103C6000000000FF0000FF00000000FF0000FF0058
:103C7000000000FFFFFFFFFFFFFF00FFFFFFFFFF50
:103C8000FFFF000000000000000000000000000036
:103C900000000000FFFFFFFF00FF00FFFFFFFFFF2E
:103CA000FFFF00FF00000000FFFF00FF000000001A
:103CB000FF0000FFFFFFFFFFFF000000FFFFFFFF0F
:103CC00000000000000000000000000000000000F4
:103CD00000000000FFFF000000FF00FFFFFFFF00EB
:103CE000FFFF00FF0000FFFFFF0000FF0000FFFFDD
:103CF000000000FFFFFFFFFFFFFF00FFFFFFFFFFD0
:103D0000FFFF0000000000000000000000000000B5
:103D100000000000FF0000FFFF0000FFFF00FFFFAA
:103D2000FFFF00FF0000FF0000FF00FF0000FF009A
:103D300000FF00FFFFFFFF00FFFF0000FFFF00008C
:103D4000FF00000000000000000000000000000074
:103D5000000000FF00000000000000FF0000000065
:103D6000000000FFFFFFFFFFFFFF00FFFFFFFFFF5F
:103D7000FFFF00FF00000000000000FF0000000047
:103D80000000000000000000000000000000000033
:103D9000000000FFFFFFFFFFFF0000FFFFFFFFFF2E
:103DA000FFFF00000000000000FF00000000000016
:103DB00000FF00FFFFFFFFFFFFFF00FFFFFFFFFF10
:103DC000FF000000000000000000000000000000F4
:103DD000000000FFFFFFFFFF000000FFFFFFFFFFED
:103DE000FF00000000000000FFFF000000000000D6
:103DF000FFFF00FFFFFFFFFFFF0000FFFFFFFFFFD0
:103E00000000000000000000000000FFFFFFFFFFB7
:103E1000FFFF00FFFFFFFFFFFFFF0000000000FFAC
:103E2000FF0000000000FFFF00000000000000FF96
:103E3000FF0000FFFFFFFFFFFFFF00FFFFFFFFFF8F
:103E4000FFFF000000000000000000000000000074
:103E5000000000FFFF000000FFFF00FFFFFF00FF6A
:103E6000FFFF000000FFFFFF0000000000FFFFFF5A
:103E7000000000FFFFFF00FFFFFF00FFFF0000004A
:103E8000FFFF000000000000000000000000000034
:103E9000000000FFFFFF0000000000FFFFFFFF0029
:103EA000000000000000FFFFFFFF00000000FFFF18
:103EB000FFFF00FFFFFFFF00000000FFFFFF00000B
:103EC00000000000000000000000000000000000F2
:103ED000000000FFFF00000000FF00FFFFFF0000E8
:103EE00000FF00FF00FFFF0000FF00FF0000FFFFDA
:103EF00000FF00FF000000FFFFFF00FF00000000C8
:103F0000FFFF00000000000000000000004F4F4FC6
:103F10004F000000004F4F0000000000004F4F0016
:103F200000000000004F4F0000000000004F4F0055
:103F300000000000004F4F0000000000004F4F4FF6
:103F40004F0000000000000000000000004F4F4F35
:103F50004F0000004F000000004F004F00004F4F87
:103F600000004F4F004F000000004F4F004F000077
:103F700000004F4F00004F4F00004F004F00000067
:103F8000004F0000004F4F4F4F000000004F4F4FB9
:103F90004F0000000000004F4F0000000000004FE5
:103FA0004F0000000000004F4F0000000000004FD5
:103FB0004F0000000000004F4F000000004F4F4F27
:103FC0004F0000000000000000000000004F000053
:103FD000000000004F004F000000004F0000004FA5
:103FE00000000000000000000000000000000000D1
:103FF00000000000000000000000000000000000C1
:1040000000000000000000000000000000000000B0
:1040100000000000000000000000000000000000A0
:104020000000000000000000000000000000000090
:1040300000000000000000000000004F4F4F4F4FF5
:104040004F4F0000000000000000000101000912B5
:104050001213141516170000000018191A1B1C1D46
:104060000000001E1F2021222300000024252627F7
:1040700028290000002A2B2C2D2E2F000030313251
:1040800033343536370038393A3B3C3D3E3F00400B
:10409000414243444546474800494A4B4C4D4E4FE8
:1040A0005000515253545556575800595A5B5C5D55
:1040B000000000005E5F606162630000006465668E
:1040C000676768000000696A6B6C6D6E6F00007056
:1040D000717273747576000000777837797A000012
:1040E0000000007B7C000000000000007D7E0000DE
:1040F00000000905000001000000000000000002AF
:104100000000000000000000030405060000000796
:104110000008090A0B0000000C0D0E0F1011000022
:10412000000000000000000000000000000000008F
:10413000000000000000000000000000000000007F
:10414000000000000000000000000000000000006F
:10415000000000000000000000000000000000005F
:1041600000FFFFFFFFFFFFFFFFFFFFFFFFFFFFFF5E
:10417000FFFFFFFFFFFFFFFFFFFFFFFFFFFFFFFF4F
:10418000FFFFFFFFFFFFFFFFFFFFFFFFFFFFFFFF3F
:10419000FFFFFFFFFFFFFFFFFFFFFFFFFFFFFFFF2F
:1041A000FF29181018291810181829182918291863
:1041B0002910182918101829181810181018101874
:1041C0001029181018291810181829182918291832
:1041D0002910182918101829181810181018101854
:1041E0001073732222227373737373002234227349
:1041F0007373222222223C22737300220022222285
:10420000737300002222220073223C000022342219
:104210002234222273730022227300000000000067
:10422000007300227373222273222222220034227E
:10423000220000222222003C2200220022222222EE
:1042400022730000002222227322223C000000730D
:104250007334222273737300220000000000007385
:104260007373732222227373737373002234227365
:104270007373222222223C22737300220022222204
:10428000737300002222220073223C000022342299
:104290002234222273730022222234222273222209
:1042A00000730022737322227322222222003422FE
:1042B000220000222222003C22002200222222226E
:1042C00022730000002222227322223C000000738D
:1042D0007334222273737300222234222273222227
:1042E0002200ADAD009898989800ADADA4009898C4
:1042F0009800ADADADA400989800ADADADAD0098FF
:104300009800ADADADADA4009800ADADADAD0098D9
:104310009800ADADADA400989800ADADA4009898FC
:10432000989898989898989898989898989898980D
:1043300098989898989898989898989898989898FD
:1043400098989898989898989898989898989898ED
:1043500098989898989898989898989898989898DD
:104360009800A4A4ADADADAD0000A4ADADADADADB4
:1043700000980000ADADADAD0098989800ADADAD22
:104380000098989800ADADAD0098989800ADADAD8F
:1043900000989800A4A4ADAD009800A4ADADADAD5B
:1043A000000000000000000000000000000000000D
:1043B00000000000000000000000000000000000FD
:1043C00000000000000000000000000000000000ED
:1043D000000000000000000000FF00000000005C82
:1043E000000000000000000000000000310000009C
:1043F00000000031313100000000000031183100B0
:104400000000000000313131000000909090310038
:1044100000009090900000000090909090909090FC
:1044200000291810182918101818291829182918DF
:1044300029101829181018291818101810181018F1
:1044400010291810182918101818291829180018D8
:10445000291018291800AD00AD18100000ADADAD41
:10446000002918101829181018182918291829189F
:1044700029101829181018291818101810181018B1
:10448000102918101829181018182918291829186F
:10449000290018291810182918AD00181018000044
:1044A0000000A4ADADADADADAD00ADA4ADADADAD55
:1044B000AD00A4ADADADADADADA4ADADADADADADEB
:1044C000ADADA4ADADADADADADA4ADADADADADAD2E
:1044D000AD00ADA4ADA4ADA4AD650000000000002A
:1044E00000ADADADADADA40073ADADADADA4AD004F
:1044F00073ADADADADADA40000ADADADADADADA492
:1045000000ADADADADADA4AD00ADADADADADADA447
:1045100000A4ADA4ADA4AD00000000000000006543
:1045200065220022227300002200220073737300B0
:104530000073737300222273737373222222342256
:10454000222273002200223C222273000022222217
:10455000227373730000222200737373737300005D
:104560007300222222730000222222343C223400D3
:1045700000737322223C22227373220022222234EF
:1045800022730022222222222273000022002222F1
:104590003473730000220022227373732222737318
:1045A0007300ADAD009898989800ADADA400009848
:1045B0009800ADADADADA4009800ADADADADADA46E
:1045C0000000ADADADADADA40000ADADADADA4008E
:1045D0009800ADADADA400989800ADADAD00989831
:1045E00098989800ADADADAD009800A4A4ADADAD68
:1045F000009800A4ADADADAD00989800A4ADADADF0
:104600000098989800ADADAD0098989800ADADAD0C
:1046100000989800A4ADADAD009800A4ADADADADCF
:10462000000000000000000000000000000000008A
:1046300000000000005C5C000000000000005C5C0A
:10464000000000000000005C0000005C5C5C005C9E
:104650000A005C5C5C5C005C0A005C5C5C5C005CAE
:10466000AE0000000000000000000000000000009C
:104670000000000000000000ED000000000000ED60
:10468000ED000000000000EDEDAEAEAEAE0000AEFD
:10469000ED90AE0AAEAEAEAEAEAE5C0A5CAEAEAE05
:1046A000AE0000000000000000000000000000005C
:1046B00000EDEDEDEDEDEDEDEDEDEDEDEDEDEDED17
:1046C00000ED90909090909000EDEDEDEDEDEDED22
:1046D000EDAEEDEDEDEDEDEDEDAEAEAEAEEDAEED84
:1046E000ED0000000000000000000000000000FFDE
:1046F000FF0000000000FFFFFF0000000000FFFFC0
:10470000FF0000000000FFFFFF000000000000FFAE
:10471000FF0000000000000000000000000000009A
:104720000000FF00005C5C5C0000FF5CAEAEAE0011
:104730000000FF5C90AE5CAEFF00FFAEAE5CAEAEC4
:10474000FF00FF5C90AE5CAEFF00FF5CAEAEAE0063
:104750000000FF00005C5C5C00FF00000000005CEB
:1047600000909090AE90909000FFFF9090909000FD
:104770009037FFFFFF9090AE90FF3737FFFFAEAE50
:10478000AE37FFFFFF9090AE90FFFF9090909000AB
:1047900090909090AE90909000909090909090908B
:1047A000000000ADADADADADADADADADADADADAD40
:1047B000ADADADADADADADADADADADADADADADAD29
:1047C000ADADADADADADADADADADADADADADADAD19
:1047D000ADADADADADADADADADADADADADADADAD09
:1047E000ADADAD000000ADADADADADADADADADAD00
:1047F000ADADADADADADADADADADADADADADADADE9
:10480000ADADADADADADADADADADADADADADADADD8
:10481000ADADADADADADADADADADADADADADADADC8
:10482000AD655C65656565656565656565656565F9
:10483000656565656565655C6565655C656565653A
:10484000656565656565656565656565655C656521
:10485000655C656565656565656565656565656511
:1048600065005C5C5C5C005C0A00005C5C5C005C9D
:104870000A0000000000005C0000000000005C5C1A
:1048800000000000005C5C00000000000000000070
:104890000000000000000000000000000000000018
:1048A0000090AE0AAEAEAEAEAEAEAEAEAE0000AEF4
:1048B000ED000000000000EDED000000000000ED44
:1048C000ED00000000000000ED000000000000000E
:1048D00000000000000000000000000000000000D8
:1048E00000AEEDEDEDEDEDEDEDEDEDEDEDEDEDED24
:1048F000EDED90909090909000EDEDEDEDEDEDED03
:1049000000EDEDEDEDEDEDEDED000000000000003F
:104910000000000000000000000000000000000097
:104920000000000000000000000000000000000087
:1049300000000000FF0000000000000000FF000079
:104940000000FFFF00FF5CAEAEFFFFFF00FF5C90CA
:10495000AEFFFFFF00FFAEAE5CFFFFFF00FF5C900D
:10496000AE000000000000000000000000909090E9
:10497000900000009090909090000000909090AE79
:10498000AEAE0000FFFF9090905CAEFF37FFFFFFE0
:1049900090AEAEFFFF3737FFFF5CAEFF37FFFFFF84
:1049A0009000909090909090900000000000000087
:1049B00000909090000000000090909000909090E7
:1049C0009090900090909090909090AE9090909059
:1049D00090FFAEAEAE909000009090AE9090909010
:1049E00090ADADADADADADADADADADADADADADAD14
:1049F000ADADADADADADADADADADADADADADADADE7
:104A0000ADADADADADADADADADADADADADADADADD6
:104A1000ADADADADADADADADADADADADADADADADC6
:104A2000AD00FFFF00FF5CAEAE00000000FF000025
:104A300000000000FF000000000000000000000077
:104A40000000000000000000000000000000000066
:104A50000000000000000000000000000000000056
:104A600000AE0000FFFF909090000000909090AE8C
:104A7000AE00000090909090900000000090909008
:104A80009000000000000000000000000000000096
:104A90000000000000000000000000000000000016
:104AA00000909000909090909090909000909090B6
:104AB000909090900000AEAE009090909090AE00DC
:104AC00000000000000000000000000000000000E6
:104AD00000000000000000000000000000000000D6
:104AE00000ADADADADADADADADADADADADADADADA3
:104AF000ADADADADADADADADADADADADADADADADE6
:104B0000ADADADADADADADADADADADADADADADADD5
:104B1000ADFFFFFFFFFFFFFFFFFFFFFFFFFFFFFFF7
:104B2000FFADADADADADADADADADADADADADADAD63
:104B3000ADADADADADADADADADADADADADADADADA5
:104B4000ADADADADADADADADADADADADADADADAD95
:104B5000ADFFADADADADADADADFFADADADADADADE1
:104B6000AD656565656565656565656565656565AD
:104B7000656565656565655C6565655C65656565F7
:104B8000656565656565656565656565655C6565DE
:104B9000655C6565656565656565656565656565CE
:104BA0006565650000000000006500A4ADADADAD19
:104BB000AD0000ADA4ADADADAD0000A4ADADADADEB
:104BC000AD00A4ADADADADADAD00ADA4ADADADAD81
:104BD000AD00A4ADADADADADAD0000ADA4ADA4AD27
:104BE000A40000000000000065ADADADADADADA40A
:104BF00000ADADADADADA4AD00ADADADADADADA451
:104C000000ADADADADADADADA4ADADADADADADA493
:104C1000ADADADADADADADADA4ADA4ADA4ADA4ADE8
:104C20000073000000000000000022007373730096
:104C3000007373730022227373737322222234224F
:104C4000222273002200223C222273000022222210
:104C50002273737300002222007373737373000056
:104C60007300000000000000732222343C22340054
:104C700000737322223C22227373220022222234E8
:104C800022730022222222222273000022002222EA
:104C90003473730000220022227373732222737311
:104CA00073ADADADADADADADADADADADADADADAD6E
:104CB000ADADADADADADADADADADADADADADADAD24
:104CC000ADADADADADADADADADADADADADADADAD14
:104CD000ADADADADADADADADADFFFFFFFFFFFFFFC6
:104CE000FFADADADADADADADADADADADADADADADA2
:104CF000ADADADADADADADADADADADADADADADADE4
:104D0000ADADADADADADADADADADADADADADADADD3
:104D1000ADADADADADADADADADFFADADADADADAD71
:104D2000ADFFFFFFFFFFFFFFFFADADADADADADAD23
:104D3000ADADADADADADADADADADADADADADADADA3
:104D4000ADADADADADADADADADADADADADADADAD93
:104D5000ADADADADADADADADADADADADADADADAD83
:104D6000ADFFADADADADADADADADADADADADADAD21
:104D7000ADADADADADADADADADADADADADADADAD63
:104D8000ADADADADADADADADADADADADADADADAD53
:104D9000ADADADADADADADADADADADADADADADAD43
:104DA000ADFFFFFFFFFFFFFFFFFFFFFFFFFFFFFF65
:104DB000FFADADADADADADADADADADADADADADADD1
:104DC000ADADADADADADADADADADADADADADADAD13
:104DD000ADADADADADADADADADADADADADADADAD03
:104DE000ADFFADADADADADADADFFADADADADADAD4F
:104DF000ADADADADADADADADADADADADADADADADE3
:104E0000ADADADADADADADADADADADADADADADADD2
:104E1000ADADADADADADADADADADADADADADADADC2
:104E2000ADADADADADADADADADADADADADADADADB2
:104E3000ADADADADADADADADADADADADADADADADA2
:104E4000ADADADADADADADADADADADADADADADAD92
:104E5000ADADADADADADADADADADADAD000000AD89
:104E6000ADADADADADADADADADADADADADADADAD72
:104E7000ADADADADADADADADADADADADADADADAD62
:104E8000ADADADADADADADADADADADADADADADAD52
:104E9000ADADADADADAD0000ADADADAD0000181820
:104EA0000000000010182900AD1818291829182929
:104EB0000010101829181018291818101810181098
:104EC000182929181018291810181829182918290C
:104ED0001810101829181018291818101810181060
:104EE0001800AD00101829181018002918291829C1
:104EF0001810101829181018291818101810181040
:104F000018292918101829181018182918291829CB
:104F1000181010182918101829181810181018101F
:104F200018292918101829181018182918291829AB
:104F300018101018291810182918181018101810FF
:104F4000182929181018291810181829182918298B
:104F500018101018291810182918181018101810DF
:104F6000181818101829181018292918291829187C
:104F700029181829181018291810101810181018A6
:104F80001018181018291810182929182918291864
:104F90002918182918101829181010181018101886
:104FA000102200222273000022002200737373007B
:104FB00000737373002222737373732222223422CC
:104FC000222273002200223C22227300002222228D
:104FD0002273737300002222000000ADADF6AD52C3
:104FE0005200222222730000222222343C2234006A
:104FF00000737322223C2222737322002222223465
:105000002273002222222222227300002200222266
:1050100034737300002200222273737373730000D1
:10502000730000000000000000000000000000000D
:105030000000000000000000000000000000000070
:105040000000000000000000000000000000000060
:105050000000000000000000000000000000000050
:105060000000000000000000000000000000000040
:10507000000000000000000000FFFFFFFF0000FF35
:1050800000FFFFFFFF0000FF000000000000000025
:105090000000000000000000000000000000000010
:1050A00000000000000000000000ADAD00ADAD004C
:1050B00000FFFFFFFFFFFFFF00FFA0A0FFFFA0FF1B
:1050C00000FFA0A0FFFFA0FF00FFFFFFFFFFFFFF0B
:1050D0000000ADAD00ADAD0000000000000000001C
:1050E00000004F0000004F00004F4F4F4F4F4F4FF9
:1050F00000004F0000004F0000004F0000004F0074
:1051000000004F0000004F00004F4F4F4F4F4F4FD8
:1051100000004F0000004F000000000000000000F1
:10512000000000004F00000000004F4F4F4F4F4F56
:10513000004F00004F00000000004F4F4F4F4F0046
:10514000000000004F4F4F4F004F4F4F4F4F4F0049
:10515000000000004F000000000000000000000000
:10516000004F4F0000000000004F4F00004F0000B4
:10517000000000004F0000000000004F0000000091
:1051800000004F0000000000004F00004F4F0000E3
:10519000000000004F4F0000000000000000000071
:1051A0000000004F4F00000000004F00004F0000C3
:1051B00000004F4F004F000000004F4F4F00000015
:1051C000004F00004F4F004F004F0000004F4F00B6
:1051D00000004F4F4F4F004F000000000000000044
:1051E000000000000000000000FF000000000000C0
:1051F00000FFFF00000000000000FFFF00000000B3
:10520000000000FF0000000000000000000000009F
:10521000000000000000000000000000000000008E
:1052200000000000004F4F00000000004F00000091
:105230000000004F000000000000004F00000000D0
:105240000000004F00000000000000004F000000C0
:1052500000000000004F4F000000000000000000B0
:105260000000004F4F00000000000000004F000051
:105270000000000000004F000000000000004F0090
:105280000000000000004F0000000000004F000080
:105290000000004F4F000000000000000000000070
:1052A0000000000000000000000000004F000000AF
:1052B00000004F004F004F000000004F4F4F000014
:1052C00000004F004F004F00000000004F000000A2
:1052D00000000000000000000000000000000000CE
:1052E0000000000000000000000000004F0000006F
:1052F000000000004F00000000004F4F4F4F4F00D4
:10530000000000004F000000000000004F000000FF
:10531000000000000000000000000000000000008D
:10532000000000000000000000000000000000007D
:105330000000000000000000000000000000FFFF6F
:10534000000000000000FFFFFF0000000000000060
:10535000FF0000000000000000000000000000004E
:10536000000000000000000000000000FF0000003E
:1053700000000000FF00000000000000FF0000002F
:1053800000000000FF00000000000000FF0000001F
:1053900000000000FF00000000000000000000000E
:1053A00000000000000000000000000000000000FD
:1053B0000000000000000000000000000000FFFFEF
:1053C000000000000000FFFF0000000000000000DF
:1053D00000000000000000000000000000000000CD
:1053E000000000000000004F0000000000004F001F
:1053F00000000000004F0000000000004F0000000F
:105400000000004F0000000000004F0000000000FE
:10541000004F00000000000000000000000000003D
:1054200000000000000000000000FFFFFFFFFF0081
:1054300000FFFFFFFFFFFFFF00FF00FF000000FF76
:1054400000FF0000FF0000FF00FFFFFFFFFFFFFF66
:105450000000FFFFFFFFFF00000000000000000051
:10546000000000000000000000000000000000FF3D
:1054700000000000000000FF00FFFFFFFFFFFFFF34
:1054800000FFFFFFFFFFFFFF000000FF000000FF25
:1054900000000000000000FF00000000000000000D
:1054A00000000000000000000000FFFF000000FFFF
:1054B00000FFFFFFFF0000FF00FF0000FF0000FFF4
:1054C00000FF000000FF00FF00FFFF0000FFFFFFE4
:1054D0000000FF000000FFFF0000000000000000CF
:1054E00000000000000000000000FFFF00FFFF00C0
:1054F00000FFFFFFFFFFFFFF00FF0000FF0000FFB6
:1055000000FF0000FF0000FF00FFFF000000FFFFA2
:105510000000FF000000FF0000000000000000008D
:105520000000000000FF000000FFFFFFFFFFFFFF83
:1055300000FFFFFFFFFFFFFF0000FFFF00FF000075
:10554000000000FF00FF000000000000FFFF00005F
:1055500000000000FFFF000000000000000000004D
:10556000000000000000000000FF0000FFFFFF003F
:1055700000FF00FFFFFFFFFF00FF00FF000000FF34
:1055800000FF00FF000000FF00FFFFFF0000FFFF23
:1055900000FFFFFF0000FF0000000000000000000F
:1055A00000000000000000000000FF0000FFFF00FE
:1055B00000FFFF00FFFFFFFF00FF0000FF0000FFF4
:1055C00000FF0000FF0000FF00FFFFFFFFFFFFFFE5
:1055D0000000FFFFFFFFFF000000000000000000D0
:1055E000000000000000000000FFFF0000000000BD
:1055F00000FFFFFF0000000000FF00FFFFFFFFFFB4
:1056000000FF0000FFFFFFFF00FFFF0000000000A1
:1056100000FFFF000000000000000000000000008C
:1056200000000000000000000000FFFF00FFFF007E
:1056300000FFFFFFFFFFFFFF00FF0000FF0000FF74
:1056400000FF0000FF0000FF00FFFFFFFFFFFFFF64
:105650000000FFFF00FFFF0000000000000000004E
:1056600000000000000000000000FFFFFFFFFF003F
:1056700000FFFFFFFFFFFFFF00FF0000FF0000FF34
:1056800000FF0000FF0000FF00FFFFFFFF00FFFF23
:105690000000FFFF0000FF0000000000000000000D
:1056A00000000000000000000000004F4F0000005C
:1056B0000000004F4F00000000000000000000004C
:1056C0000000004F4F0000000000004F4F0000009E
:1056D00000000000000000000000000000000000CA
:1056E00000000000000000000000004F4F0000001C
:1056F0000000004F4F00000000000000000000000C
:105700000000004F4F0000000000004F4F0000005D
:1057100000004F4F000000000000000000000000EB
:1057200000000000004F0000000000004F000000DB
:105730000000004F0000000000004F0000000000CB
:105740000000004F00000000000000004F000000BB
:1057500000000000004F00000000000000000000FA
:105760000000004F004F00000000004F004F0000FD
:105770000000004F004F00000000004F004F0000ED
:105780000000004F004F00000000004F004F0000DD
:105790000000000000000000000000000000000009
:1057A0000000004F00000000000000004F0000005B
:1057B00000000000004F00000000000000004F004B
:1057C00000000000004F0000000000004F0000003B
:1057D0000000004F0000000000000000000000007A
:1057E00000000000000000000000FFFF00000000BB
:1057F00000FFFFFFFF00000000FF0000FFFF00FFB1
:1058000000FF000000FF00FF00FFFF00000000009D
:105810000000FF0000000000000000000000000089
:105820000000004F4F4F000000004F0000004F00ED
:10583000004F00004F004F00004F004F004F4F003F
:10584000004F00004F4F000000004F00000000001C
:105850000000004F4F4F4F0000000000000000000C
:105860000000000000000000000000FFFFFFFFFF3D
:105870000000FFFFFFFFFFFF00FFFF00FF00000031
:1058800000FFFF00FF0000000000FFFFFFFFFFFF21
:10589000000000FFFFFFFFFF00000000000000000D
:1058A00000000000000000000000FFFF00FFFF00FC
:1058B00000FFFFFFFFFFFFFF00FF0000FF0000FFF2
:1058C00000FF0000FF0000FF00FFFFFFFFFFFFFFE2
:1058D00000FFFFFFFFFFFFFF0000000000000000CF
:1058E00000000000000000000000FF000000FF00BA
:1058F00000FFFF000000FFFF00FF0000000000FFAE
:1059000000FF0000000000FF00FFFFFFFFFFFFFFA0
:105910000000FFFFFFFFFF0000000000000000008C
:105920000000000000000000000000FFFFFF00007A
:105930000000FFFFFFFFFF0000FFFF000000FFFF70
:1059400000FF0000000000FF00FFFFFFFFFFFFFF60
:1059500000FFFFFFFFFFFFFF00000000000000004E
:10596000000000000000000000FF0000000000FF39
:1059700000FF0000000000FF00FF0000FF0000FF2C
:1059800000FF0000FF0000FF00FFFFFFFFFFFFFF21
:1059900000FFFFFFFFFFFFFF00000000000000000E
:1059A000000000000000000000FF000000000000F8
:1059B00000FF00000000000000FF0000FF000000EA
:1059C00000FF0000FF00000000FFFFFFFFFFFFFFE0
:1059D00000FFFFFFFFFFFFFF0000000000000000CE
:1059E00000000000000000000000FF00FFFFFF00BB
:1059F00000FFFF00FFFFFFFF00FF0000FF0000FFB0
:105A000000FF0000000000FF00FFFFFFFFFFFFFF9F
:105A10000000FFFFFFFFFF0000000000000000008B
:105A2000000000000000000000FFFFFFFFFFFFFF7D
:105A300000FFFFFFFFFFFFFF00000000FF0000006E
:105A400000000000FF00000000FFFFFFFFFFFFFF5E
:105A500000FFFFFFFFFFFFFF00000000000000004D
:105A60000000000000000000000000000000000036
:105A700000FF0000000000FF00FFFFFFFFFFFFFF2F
:105A800000FFFFFFFFFFFFFF00FF0000000000FF1F
:105A90000000000000000000000000000000000006
:105AA000000000000000000000FF000000000000F7
:105AB00000FFFFFFFFFFFF0000FFFFFFFFFFFFFFF3
:105AC00000FF0000000000FF000000000000FFFFDA
:105AD000000000000000FF000000000000000000C7
