:100000000C94532C0C94F82C0C94F82C0C94F82C85
:100010000C94F82C0C94F82C0C94F82C0C94F82CD0
:100020000C94F82C0C94F82C0C94F82C0C94F82CC0
:100030000C94F82C0C943F2F0C94F82C0C94F82C66
:100040000C94F82C0C94F82C0C94F82C0C94F82CA0
:100050000C94F82C0C94F82C0C94F82C0C94F82C90
:100060000C94F82C0C94F82C0C94F82C0C94F82C80
:100070005A5501200201003808000000000000006D
:100080000000000000F938073991396C3D563D0AEF
:1000900039193928393C3D363944390101400907BD
:1000A000004243444546474849004F50515253543B
:1000B0005556005C5D5E5F60616263696A6B00005B
:1000C000006C6D6E75767778797A7B7C7D85868716
:1000D00088898A8B8C8D9495009697000000000289
:1000E0000298999E9F01044D5A67730107414E5B28
:1000F000687483920107414E5B687484930202A185
:10010000A2A6A702039B9CA3A4A8A90D0700424393
:100110004445464748494A4B4C00004F50515253C2
:1001200054555657585900005C5D5E5F60616263CC
:1001300064656600696A6B0000006C6D6E6F7071BB
:100140007275767778797A7B7C7D7E7F80818586F3
:100150008788898A8B8C8D8E8F9091949500969745
:100160000000000000000000F4F4F4F4F4F4F4F4EF
:10017000F4F4F4F4F4F4F4F4F4F4F4F4F4F4F4F43F
:10018000F4F4F4F4F4F4F4F4F4F4F4F4F4F4F4F42F
:10019000F4F4F4F4F4F4F4F4F4F4F4F4F4F4F4F41F
:1001A000F4F4F4F4F4F4F4F4F4F48C8C8CF4F4F447
:1001B000F4F483838348F4F4F4F483828248F4F4FF
:1001C000F4F4D8824848F4F4F4F4D89248F4F4F4FF
:1001D000F4F4F44848F4F4F4F4F4D8E2F4F4F4F465
:1001E000F4F4F44848F4F4F4F4F48CF48CF4F4F4F7
:1001F000F4F483488348F4F4F4F483488248F4F434
:10020000F4F4F448F448F4F4F4F4F4F4F4F4F4F406
:10021000F4F4F4F4F4F4F4F4F4F4F4F4F4F4F4F49E
:10022000F4F4F4F4F4F4F4F4F48CF4F4F48CF4F45E
:1002300083838383838383F4F48300484883004863
:10024000F48248F4F48248F4F4D848F4F4D848F43A
:10025000D891D891D891D8F4F4E2484848E2484877
:10026000F4F448F4F4F448F4F4F4F48CF4F4F4F40E
:10027000F48383838B8383F483F44883484848481A
:10028000F4D882D88282F4F4F4F448914848D8F43F
:10029000D891D8D8D891F448F4484890484848F4C0
:1002A000F4F4F4F448F4F4F48C8CF4F4F4F4F4F48A
:1002B000838348F483F4F4F4F4004883F448F4F4BA
:1002C000F4F482F448F4F4F4F4D8F448F4F4F4F4D4
:1002D00091F44891D8F4F4F4F448F4D8E148F4F4F3
:1002E000F4F4F4F44848F4F4F4F48C8CF4F4F4F4F6
:1002F000F483F44883F4F4F4F48282F48248F4F44E
:10030000F482DA82F448F4F4D8F448D892F4D8F4B9
:10031000D848F4F4D891F448F490D8E1D848D8F407
:10032000F4F448484848F448F48C8CF4F4F4F4F4B9
:10033000F4838348F4F4F4F4F4F48248F4F4F4F429
:10034000F482F448F4F4F4F4F4F448F4F4F4F4F437
:10035000F4F4F4F4F4F4F4F4F4F4F4F4F4F4F4F45D
:10036000F4F4F4F4F4F4F4F4F4F4F4F48C8CF4F41D
:10037000F4F4F483F44848F4F4F483F448F4F4F423
:10038000F4F48248F4F4F4F4F4F4D848F4F4F4F413
:10039000F4F4F4D8F4F4F4F4F4F4F4F4E2D8F4F467
:1003A000F4F4F4F4F44848F4F4F48C8CF4F4F4F435
:1003B000F4F4F44883F4F4F4F4F4F4F4F483F4F48B
:1003C000F4F4F4F4F48248F4F4F4F4F4F4D848F4D3
:1003D000F4F4F4F491F448F4F4F4D8E2F448F4F4C6
:1003E000F4F4F44800F4F4F4F4F4F4F4F4F4F4F46D
:1003F000F4F4F483F4F4F4F4F482F4824882F4F430
:10040000F4F482DA82F448F4F4D8F49148D8F4F49D
:10041000F4F448D848F448F4F4F4F4F448F4F4F468
:10042000F4F4F4F4F4F4F4F4F4F4F4F4F4F4F4F48C
:10043000F4F4F483F4F4F4F4F4F4F48248F4F4F40B
:10044000F4D882DA8282F4F4F4F44891484848F40B
:10045000F4F4F4D848F4F4F4F4F4F4F448F4F4F4D0
:10046000F4F4F4F4F4F4F4F4F4F4F4F4F4F4F4F44C
:10047000F4F4F4F4F4F4F4F4F4F4F4F4F4F4F4F43C
:10048000F4F4F4F4F4F4F4F4F4F4D882F4F4F4F4BA
:10049000F4F490D848F4F4F4F4D8E10048F4F4F417
:1004A000F4F44800F4F4F4F4F4F4F4F4F4F4F4F4AC
:1004B000F4F4F4F4F4F4F4F4F4F4F4F4F4F4F4F4FC
:1004C000F48282DA8282F4F4F4F44848484848F42A
:1004D000F4F4F4F4F4F4F4F4F4F4F4F4F4F4F4F4DC
:1004E000F4F4F4F4F4F4F4F4F4F4F4F4F4F4F4F4CC
:1004F000F4F4F4F4F4F4F4F4F4F4F4F4F4F4F4F4BC
:10050000F4F4F4F4F4F4F4F4F4F4F4F4F4F4F4F4AB
:10051000F4F491D8F4F4F4F4F4F4D8E148F4F4F4F5
:10052000F4F4F44848F4F4F4F4F4F4F4F4F48CF44B
:10053000F4F4F4F4F483F448F4F4F4F483F448F4B5
:10054000F4F4F482F448F4F4F4F4D8F448F4F4F451
:10055000F491F448F4F4F4F4D8F448F4F4F4F4F432
:10056000F448F4F4F4F4F4F4F4F48C8C8CF4F4F42F
:10057000F483F4488383F4F4828248F4F48282F4AE
:1005800092D848F4F492D848D89148F4F4D89148D5
:10059000F4E2D8F4F4E24848F4F4E1E1E1F448F498
:1005A000F4F4F4484848F4F4F4F4F48C8CF4F4F4DF
:1005B000F4F483838348F4F4F4F4F4828248F4F48A
:1005C000F4F4F492D848F4F4F4F4F4D89148F4F440
:1005D000F4F4F4E2D848F4F4F4E1E1E1E1E1E1F427
:1005E000F4F4484848484848F48C8C8C8C8CF4F4DB
:1005F00083834848488383F4F44848F482828248DD
:10060000F4F482D892D80048F4D891D8910048F4F4
:1006100090E1D8484800F4F4E1E1E0E1E1E1E1F4FF
:10062000F448484848484848F48C8C8C8C8C8CF4AE
:10063000F4F4484883834848F4F4F482824848F448
:10064000F4F4D892D882F4F4F4F4F44848D891F44D
:10065000E1D8F4F4F4D8E248F4E1E1E1E1E148481A
:10066000F4F44848480048F4F4F4F48C8C8CF4F426
:10067000F4F48383838348F4F4828248828248F4CA
:1006800092D8484892D848F4D891D891D891D8F4C3
:10069000F4484848E1D84848F4F4F4F4E1E148F477
:1006A000F4F4F4F4F44848F48C8C8C8C8C8CF4F4D2
:1006B00083834848484848F4828282828283F4F4E3
:1006C000F44848484882D8F4F4F4F4F4F491D84853
:1006D000E1D8F4F4F4E29048F4E1E1E1E1D84848EB
:1006E000F4F44848484848F4F4F48C8C8C8CF4F4C6
:1006F000F4838348484848F482824848F4F4F4F488
:10070000D892D882D882F4F4D891484848D891F445
:10071000E1D848F4F4E1D848F4E1E1E1E1E1484806
:10072000F4F44848484848F48C8C8C8C8C8C8CF4BD
:100730008383484848838348F44848F48282484881
:10074000F4F4F492D84848F4F4F4D8914848F4F416
:10075000F4F4E1D848F4F4F4F4F4E1E148F4F4F406
:10076000F4F4F44848F4F4F4F48C8C8C8CF4F4F441
:10077000838348484883F4F4828282F4F48248F404
:10078000F492D882D8F448F4D8F44891D891D8F4A7
:10079000E248F4F448D8E248F4E1E1E1E1E1484814
:1007A000F4F44848484848F4F48C8C8C8C8CF4F46D
:1007B00083834848488383F4828248F4F4828248E1
:1007C000F492D882D892D848F4F4484848D891484E
:1007D000F4F4F4F4E1D84848F4E1E1E1E14848F404
:1007E000F4F448484800F4F4F4F4F4F4F4F4F4F4C1
:1007F000F4F48383F4F4F4F4F4F4828248F4F4F42B
:10080000F4F4F44848F4F4F4F4F4D891F4F4F4F47F
:10081000F4F4E1D848F4F4F4F4F4F40048F4F4F413
:10082000F4F4F4F4F4F4F4F4F4F4F4F4F4F4F4F488
:10083000F4F48383F4F4F4F4F4F4828248F4F4F4EA
:10084000F4F4F44848F4F4F4F4F4D891F4F4F4F43F
:10085000F4F4E1D848F4F4F4F4E2E10048F4F4F4F8
:10086000F4F44800F4F4F4F4F4F4F4F48CF4F4F450
:10087000F4F4F483F448F4F4F4F482F448F4F4F473
:10088000F4D8F448F4F4F4F4F4F491F4F4F4F4F453
:10089000F4F4F4D8F4F4F4F4F4F4F4F4E1F4F4F447
:1008A000F4F4F4F4F448F4F4F4F4F4F4F4F4F4F4B4
:1008B000F4F4F4F4F4F4F4F4F48282828282F4F432
:1008C000F4F44848484848F4F4D891D891D8F4F45E
:1008D000F4F44848484848F4F4F4F4F4F4F4F4F434
:1008E000F4F4F4F4F4F4F4F4F4F48CF4F4F4F4F430
:1008F000F4F4F483F4F4F4F4F4F4F4F482F4F4F49B
:10090000F4F4F4F4F482F4F4F4F4F4F4D8F448F4E1
:10091000F4F4F4E2F448F4F4F4F4E1F448F4F4F414
:10092000F4F4F448F4F4F4F4F48C8C8C8C8CF4F43B
:1009300083838383838383F4828248484882824806
:10094000F44848F492D84848F4F4D891D84848F488
:10095000F4F4F4484848F4F4F4F4E1E1E1F4F4F494
:10096000F4F4F4484848F4F4F4F48C8C8CF4F4F483
:10097000F483F4484883F4F483F44882F48248F41E
:10098000824882F4DA8248F4D848F491D84848F48E
:10099000F4D8F4F44800F4F4F4F4D8E290D8F4F481
:1009A000F4F4F448484848F4F4F48C8C8CF4F4F4EF
:1009B000F48383488383F4F483824848F48283F485
:1009C000D88248F4F4D88248D892D882D892D848AD
:1009D00091D8484848D89148E2D848F4F4D8E1483A
:1009E000F44848F4F4F448488C8C8C8C8C8CF4F4E7
:1009F00083834848488383F4838248F4F48382489D
:100A000082D88282D8824848D892484848D892F4FE
:100A100091D848F4F491D848D8E190D8E1D8484822
:100A2000F4484848484848F4F4F48C8C8C8CF4F42E
:100A3000F4838348488383F483824848F4F4484825
:100A4000D88248F4F4F4F4F4D89248F4F4F4F4F4CA
:100A5000F491D8F4F4D891F4F4F4E290D8E1484851
:100A6000F4F4F448484800F48C8C8C8C8CF4F4F446
:100A7000838348488383F4F4838248F4F48282F4C5
:100A8000D88248F4F4928248D89248F4F4D8D848EE
:100A900091D848F4D8914848D8E190D8E14848F432
:100AA000F44848484800F4F48C8C8C8C8C8C8CF482
:100AB0008383484848484848838248F4F4F4F4F46F
:100AC000D88282DA8282F4F4D8914848484848F4BF
:100AD00091D848F4F4F4F4F4D8E190D8E1D890F443
:100AE000F4484848484848488C8C8C8C8C8C8CF452
:100AF0008383484848484848838248F4F4F4F4F42F
:100B0000D88282DA8282F4F4D8914848484848F47E
:100B100091D848F4F4F4F4F4D8E148F4F4F4F4F49B
:100B2000F44848F4F4F4F4F4F4F48C8C8C8C8CF4E5
:100B3000F48383484848484883824848F4F4F4F4EE
:100B4000D88248F482D882F4D89248F4F491D848F4
:100B5000F491D8F4F4D89148F4F4E290D8E1D8486C
:100B6000F4F4F448484800488C8CF4F4F48C8CF489
:100B7000838348F4F4838348838248F4F48382486F
:100B800082D882D882D88248D89248484891D8489A
:100B900091D848F4F4D89148E2D848F4F4D8E14820
:100BA000F44848F4F4F44848F48C8C8C8C8C8CF425
:100BB000F4F4488383484848F4F4F4838248F4F416
:100BC000F4F4F4D88248F4F4F4F4F4D89248F4F449
:100BD000F4F4F491D848F4F4F4D8E2D8E190D8F4DD
:100BE000F4F4484848484848F4F4F48C8C8C8CF46D
:100BF000F4F4F4F483834848F4F4F4F4838248F47E
:100C0000F4F4F4F4D88248F4F4F4F4F4D89248F408
:100C1000D8F4F4F491D848F4F4E2D890D84848F4E1
:100C2000F4F448484848F4F48C8CF4F4F48C8CF4D4
:100C3000838348F48383484883824883824848F406
:100C400082D882D84848F4F491D892D882F4F4F447
:100C500091D848D891D8F4F4D89048F4E290D8F4D8
:100C6000F44848F4F4484848F48C8CF4F4F4F4F470
:100C7000F4838348F4F4F4F4F4838248F4F4F4F451
:100C8000F4D88248F4F4F4F4F4D89248F4F4F4F488
:100C9000F491D848F4F4F4F4F4D8E190D8E1D8F41D
:100CA000F4F44848484848488C8CF4F4F48C8CF4AC
:100CB000838383F48383834883828283828382480D
:100CC00082D882DA92D88248D89248D848D89148B7
:100CD00091D848F44891D848E2D848F4F4D8E1488B
:100CE000F44848F4F4F448488C8CF4F4F48C8CF414
:100CF000838383F4F483834883828283F4838248EA
:100D000082DB92D882D8824891D8488291D8924882
:100D1000D89148F4D891D848D8E148F4F4D8E148BB
:100D2000F44848F4F4F44848F48C8C8C8C8CF4F43B
:100D300083834848488383F4838248F4F483824859
:100D4000D88248F4F4D88248D89248F4F4D892482B
:100D500091D848F4F491D848F4E290D8E1D84848C2
:100D6000F4F44848484848F48C8C8C8C8C8CF4F40F
:100D700083834848488383F4838248F4F483824819
:100D8000D88248F4F4D88248D892D88291D848487A
:100D900091D84848480048F4D8E148F4F4F4F4F411
:100DA000F44848F4F4F4F4F4F48C8C8C8C8CF4F463
:100DB00083834848488383F4838248F4F4838248D9
:100DC000D88248F4F4D88248D89248D892D891482A
:100DD00091D848F491D84848F490E2D8904890F4DB
:100DE000F4F448484848F4488C8C8C8C8C8CF4F48F
:100DF00083834848488383F4838248F4F483824899
:100E0000D88248F482D88248D892D892D8484848A4
:100E100091D848D891D8F4F4E2D848F4E290D8F4C4
:100E2000F44848F4F4484848F48C8C8C8CF4F4F47E
:100E3000838348488383F4F4838248F4F44848F475
:100E4000F48282DA8282F4F4F4F4484848D891F4C7
:100E500091D8F4F4F491D848F4E290D8E1D8484815
:100E6000F4F44848484848F4F48C8C8C8C8C8CF40E
:100E7000F4F4488383484848F4F4F4838248F4F453
:100E8000F4F4F4D88248F4F4F4F4F4D89248F4F486
:100E9000F4F4F491D848F4F4F4F4F4E2D848F4F417
:100EA000F4F4F4F44848F4F48C8CF4F4F48C8CF4FA
:100EB000838348F4F4838348838248F4F48382482C
:100EC000D88248F4F4D88248D89248F4F4D89248AA
:100ED00091D848F4F491D848F4E290D8E1D8484841
:100EE000F4F44848484848F48C8CF4F4F48C8CF4BE
:100EF000838348F4F4838348838248F4F4838248EC
:100F000082DA82F482D88248F491D891D89100484C
:100F1000F4F4D891D84800F4F4F4F4D84848F4F440
:100F2000F4F4F4F448F4F4F48C8CF4F4F48C8CF4CD
:100F3000838348F4F483834883824882F48382481D
:100F400082DA82D882D8824891D892D892D89148B1
:100F5000D891D848D891D848D8904848F4D8E14892
:100F6000F44848F4F4F448488C8CF4F4F48C8CF491
:100F7000838383F483838348F4838283828300485A
:100F8000F4F4D882D84800F4F4D892D892D8F4F483
:100F9000D891D848D891D8F4D8904848F4E2D848A5
:100FA000F44848F4F4F44848F48C8CF4F48C8CF451
:100FB000F4838348F4838348F4838248F48382482B
:100FC000F4F4D882D8824848F4F4F491D84848F42C
:100FD000F4F4F4D89148F4F4F4F4F4D8E248F4F4D6
:100FE000F4F4F4F44848F4F48C8C8C8C8C8C8CF4F1
:100FF000F448484883838348F4F4F4838283484860
:10100000F4F482D8824848F4F4D891D84848F4F4EB
:10101000D891D84848F4F4F491E2D890E2D890F40A
:10102000F448484848484848F4F48C8C8C8CF4F4D4
:10103000F4F48383484848F4F4F4838248F4F4F4E5
:10104000F4F4D88248F4F4F4F4F4D89248F4F4F4C4
:10105000F4F491D848F4F4F4F4F4E2D890E2F4F41F
:10106000F4F4F448484848F4F4F48C8C8C8CF4F490
:10107000F483F448484883F483F4488282F4F48289
:10108000824882F44848F482D848D848F4F4F4D826
:101090009148F491D8F4F491F4D8F4F44848D8F491
:1010A000F4F4E1E1E1E1F4F4F4F48C8C8C8CF4F4EC
:1010B000F4F4F448838348F4F4F4F4F4838248F4B9
:1010C000F4F4F4F4D88248F4F4F4F4F4D89248F444
:1010D000F4F4F4F491D848F4F4F4D8E1D89048F456
:1010E000F4F4F448484848F4F4F48CF4F4F4F4F4D8
:1010F000F483F483F4F4F4F483F448F482F4F4F421
:10110000F448F4F4F448F4F4F4F4F4F4F4F4F4F4F7
:10111000F4F4F4F4F4F4F4F4F4F4F4F4F4F4F4F48F
:10112000F4F4F4F4F4F4F4F4F4F4F4F4F4F4F4F47F
:10113000F4F4F4F4F4F4F4F4F4F4F4F4F4F4F4F46F
:10114000F4F4F4F4F4F4F4F4F4F4F4F4F4F4F4F45F
:10115000F4F4F4F4F4F4F4F4D8E290D8E1D890F490
:10116000F4484848484848480A0A0A0A09020A0056
:101170000A0A0A4A0A495200010A090A490A0900E8
:10118000000000000000000102520A000A090A0AD9
:101190000A0A0A010A53090A0A0A0A010A0A0A0A79
:1011A00000000001000000000001000001004800F4
:1011B000004848480001000000000000000049010C
:1011C0000000004801000000014800000000480144
:1011D0000000004800000100004900000148000034
:1011E0000000480000004900F4F4F4F4F4F4F4F4CE
:1011F000F4F4F4F4F4F4F4F4F4F4F4F4F4F4F4F4AF
:10120000F4F4F4F4F4F4F4F4F4F4F4F4F4F4F4F49E
:10121000F4F4F4F4F4F4F448F4F4F4F4F4F4505181
:10122000F4F4F4F4F44898F5F4F4F4F4F4F4F4F485
:10123000F4F4F4F4F4F4F4F4F4F4F4F4F4F4F4F46E
:10124000F4F4F4F4F4F4F4F4F4F4F4F4F4F4F4F45E
:101250004851984848F4F498A2A3A3A348F44848F6
:10126000F5FEFFF5A3480051F4F4F4F4F4F4F4F4BB
:10127000F4F4F4F4F4F4F4F4F4F4F4F4484848F432
:10128000F4F4F451489990F4515199F5EAEA98F43C
:1012900099F5F5F5F5E9EB48EAF5FFF5F4F5EA48D7
:1012A000A3FEFFF5F5F4F551F4F4F4F4F4F4F4F4DA
:1012B000F4F4F4F4F4F4F4F4F4F4F4F4F4F4F4F4EE
:1012C000F4F4F4F4F4F4F4F4F4F4F4F4F4F4F4F4DE
:1012D000F448484848F4F448F4F498984848F4F43A
:1012E000F45098A4EA989948F4F4F4F4F4F4F4F47B
:1012F000F4F4F4F4F4F4F4F4F4F4F448F4F448F406
:10130000F4F448484848F4F4F44899EAADF5A39851
:10131000F45099F5FFFFFEA3F44899F5FFFFF5F5AA
:10132000F451A3FEFFFFFFF5F4F4F4F4F4F4F4F445
:10133000F4F4F4F4F4F4F4F4F448F448514848F4C0
:10134000484848489899484899EBF5F5F4EB98488F
:1013500098F5F5FFF5EA994899A3F5F5F4EA984868
:1013600098EAF5FFF5EA9948F4F4F4F4F4F4F4F4A7
:10137000F4F4F4F4F4F4F4F4F4F4F4F4F448514828
:10138000F4F4F4F448989899F4F4F4F448A3F5FFCD
:1013900048F4F4F4F499FEFFF4F4F4F4F499F4FF4F
:1013A000F4F4F4F4F498F5F5F4F4F4F4F4F4F4F457
:1013B000F4F4F4F4F4F4F4F450484848F4F4F4F495
:1013C000989998F4F4F4F4F4F5EA9948F4F4F4F400
:1013D000FFF59851F4F4F4F4F5EA9848F4F4F4F4D1
:1013E000FFEA9851F4F4F4F4F4F4F4F4F4F4F4F4BB
:1013F000F4F4F4F4F4F4F4F4F4F4F448F4F4F4F459
:10140000F4F44848484848F4F448EAF4F5F4F55050
:101410004851F5FFFFFFF598F498FFF5FFF5FE99A9
:101420004898FFFFF5FFF598F4F4F4F4F4F4F4F4BD
:10143000F4F4F4F4F4F4F451F4F4F4F4F44848A3B8
:10144000F4F4F4F4F4F498F5F4F4F4F4F448A2FFAA
:1014500048F4F4F4F45199FF48F4F4F4F4F498FFE8
:1014600051F4F4F4F44848F5484848F4F4F4F4F43A
:101470009899515048F4F4F4F5F4EB994848F4F491
:10148000F5F5F4F499F4F4F4FFFFF5F59948F4F464
:10149000FFF5FEF49850F4F4F5F5F5F498F4F4F44F
:1014A000FFF5F5EB4848F4F40000000000480000A8
:1014B0004949480100004900000100480000480077
:1014C0004900490001494849490149490101480188
:1014D00048010149494849480149494901490149E7
:1014E00049490149014901490148010049000001F8
:1014F0000000000100014800004900004800000110
:1015000000004801000048000100004801000148B7
:1015100000480100014800000000480000014800A8
:101520004800010048000000F4F4F4F4F448F5FF2A
:10153000F4F4F4F4F448F5FFF4F4F4F44848F5FF57
:10154000F4F4F4F4F448F5F5F4F4F4F4F448F5F5AF
:10155000F4F4F4F44848F5FFF4F4F4F4F448F5F541
:10156000F4F4F4F4F4F4A3FEFFFFFFFFFFF54848A2
:10157000FFFEF5FFFEFFA348FFFFFFFFFFFFF5980B
:10158000FFF5F4F5F5FFF5A3FFF5EAEAEAF5FFF557
:10159000FFFFEBE0EAEAF5FFFFF5EAE09898EAF5ED
:1015A000FFFFF498984899F550EBF5F5FEF4F551E6
:1015B0004898F5FFF5F5EB484898A3F5FEF5F59842
:1015C000984899FFF5F5F498F59999F5F5F5F4989B
:1015D000F5F5EAEAFEF5F599FFF5F5EBF4F5F49883
:1015E000F5FFF5EBF5F5F5EBF45099F5FEF5EB515C
:1015F000484899FFF5F4EA00485099F5F5EBEA48B8
:101600004848E9F5F4EA9800484899F5F4EA980062
:10161000485198F5F5EA9948484899F5F4EA980050
:10162000989899F4F5EA98514899F4FFFEF5FEF57B
:101630004899F5F5F4F5F4F548E9F4FFF5EAF4F521
:101640004899F5F5EBEAEAF54899F5F5EAE098EA04
:1016500048EAF5FEF598989898A3F5F5EA99489820
:1016600098F4F5F5F5985148EAEBF5FFF5EA994855
:10167000F5EAF5F5F4EA9848F5F5EAFEF5EA994851
:10168000FFF4F5F4F4EA9898F5F5F5F5F4EA9848DE
:10169000F5FFF5FFF5EA9948F4F5FFF5F4EA984807
:1016A000EBF5F5FEF5EB9948484848984848EAF5C7
:1016B00000519998504899F550F5F4F5984898A339
:1016C00098F5FFF5EA4848EA48F5FFF5F59848A38C
:1016D00048F5F5FFF5A3EAA30099F5F5FFF5F5F553
:1016E0004899EAFEF5F5FFF5FFF59851F448F4F452
:1016F000F5F4EA4848F4F448FFF5EA9948F4484814
:10170000F5F4EA9848F4F448F4F4EA9848F4F498C4
:10171000FEF5EA9948F45198F5F4EA9848F44899A6
:10172000F5F5EA98F44850A351A3F5F5EBF5F5EA81
:1017300052F5FFEAEAEAF5EB99F4F5EA99EAF5F4ED
:1017400099F5F5EAEAEAF5F5A3FFFFF5FFF5FFF5F0
:10175000F5F5F5FEF5FFFFF5F4FFF5EAF4F4FFF516
:10176000F5F5F5F4EAF4F5F5994848F4F44848EB52
:101770009851F4F4F4F448EAEA9848F4F4F448EAA6
:10178000EB9848F4F4F44899EAEA98F4F4F4F4484D
:10179000F5EBEA48F4F4F448F4F5EAF4F4F4F498D8
:1017A000F5F5F551F4F4F498FEF5F5EB48F4F4F49E
:1017B000EAEBEBEA48F4F4F4EA99EA994848F4F4DD
:1017C0009898489848F4F4F448985150F4F4F4F494
:1017D000E9EBEB99F4F4F4F4EBF5F4EA51F4F4F4F6
:1017E000F4F5F5EB9848F4F44901494949014901F8
:1017F00049494A494A494949494901494A4949499E
:10180000494A4901494A494A49494949494949498D
:101810004A494A494A494A4949494949490149497C
:101820004A494A4949494A49014800490101480190
:10183000000001480000480048010001480000493C
:10184000004800004800010000490001004800492C
:10185000010049004900010000480001004900481A
:101860000100480148000100F4F4F4F4F4F499F59F
:10187000F4F4F4F4F4F499F4F4F4F4F4F4F499F5DD
:10188000F4F4F4F4F4F498EAF4F4F4F4F4F498F4DA
:10189000F4F4F4F4F4F499EAF4F4F4F4F4F4999923
:1018A000F4F4F4F4F4F4F451FFF5EBEA48485199F8
:1018B000F5F5F4EA9848F4F4F5FEF5EA9948F451A0
:1018C000F5F5F4EB9848F4F4F4F5F5EAEA98F4F455
:1018D000EAEBEA989948F4F4999848484848F4F4AF
:1018E000485048F4F4F4F4F4F5F5FFF5F5F5F4EAAE
:1018F0005198EAF5F4F5EA99F45098EAF4EBEB988C
:10190000F4F4489899984800F4F4F4489848484802
:10191000F4F4F4F4F4F4F4F4F4F4F4F4F4F4F4F487
:10192000F4F4F4F4F4F4F4F4994899F5EB98484895
:101930009848E0EB9999480048484999994848489F
:1019400048F448484848F4F4F4F4F4F4F4F4F4F4B3
:10195000F4F4F4F4F4F4F4F4F4F4F4F4F4F4F4F447
:10196000F4F4F4F4F4F4F4F498EAF5F4EA99484859
:1019700098999998999948F4485148519A4848F447
:10198000F4F4F4F4F448F4F4F4F4F4F448F4F4F46F
:10199000F4F4F4F4F4F4F4F4F4F4F4F4F4F4F4F407
:1019A000F4F4F4F4F4F4F4F4EAEBF5F4EAEA994824
:1019B0005198EA999851F4F44898985148F4F4F4FD
:1019C000F4F448F4F4F4F4F4F4F4F4F4F4F4F4F483
:1019D000F4F4F4F4F4F4F4F4F4F4F4F4F4F4F4F4C7
:1019E000F4F4F4F4F4F4F4F4F448EAEAF5F5F5F573
:1019F000F4F44898EAEBEAEAF4F4F4484898999841
:101A0000F4F4F4F4F4484848F4F4F4F4F4F4F4F49A
:101A1000F4F4F4F4F4F4F4F4F4F4F4F4F4F4F4F486
:101A2000F4F4F4F4F4F4F4F4F4A39948F4F451EB7A
:101A3000994848F4F4F499EA9848F4F4F4489899E9
:101A4000F4F4F4F4F4F4F448F4F4F4F4F4F4F4F402
:101A5000F4F4F4F4F4F4F4F4F4F4F4F4F4F4F4F446
:101A6000F4F4F4F4F4F4F4F4F4F5F5EAE0EAF5F55A
:101A7000EBF5EB999898EBF4EAEAEA99489898988C
:101A8000489899484800984848F44848F448F4F47D
:101A9000F4F4F4F4F4F4F4F4F4F4F4F4F4F4F4F406
:101AA000F4F4F4F4F4F4F4F4F4F5EB48F4F4F49806
:101AB000EAEB994848F4F4F499989848F448F4F417
:101AC0004848F4F4F4F4F4F448F4F4F4F4F4F4F4DA
:101AD000F4F4F4F4F4F4F4F4F4F4F4F4F4F4F4F4C6
:101AE000F4F4F4F4F4F4F4F499EAEAEA98F4F4F48B
:101AF000F4484848F4F4F4F451F4F4F4F4F4F4F44D
:101B0000F4F4F4F4F4F4F4F4F4F4F4F4F4F4F4F495
:101B1000F4F4F4F4F4F4F4F4F4F4F4F4F4F4F4F485
:101B2000F4F4F4F4F4F4F4F449494A494A494949CB
:101B30004A4952494A524A4949494A5249494A49F5
:101B4000529B499B4A9B5249494A524952499B4A96
:101B5000524A9B499B4A52499B5249529B529B5223
:101B6000539B9B53499B4A9B4801000001480048F6
:101B700048004900520000010100490049014800A5
:101B800048000148000052000100480001480100DF
:101B9000520001520000480001480048014801007D
:101BA0005200010052004801F4F4F4F4F4F4F4F4A7
:101BB000F4F4F4F4F4F4F4F4F4F449F44949F44991
:101BC000F4E2E1E2E1E1E2E1F4F4E2004949004952
:101BD000F4F4E10000000000F4F4E149010101E146
:101BE000F4F4E2004A4A00E2F4F4F4F4F4F4F4F415
:101BF000F4F4F4F4F4F4F4F4F4F4F4F4F4F4F4F4A5
:101C0000E2F4F4F4F4F4F4F400E1E2E1E2E1E1E21C
:101C10000000000000000000E20000000049490050
:101C2000F4E1E2E14A004A4AF4F4F4F4F4F4F4F49E
:101C3000F4F4F4F4F4F4F4F4F4F4F4F4F4F4F4F464
:101C4000F4F4F4F4F4F4F4F4E1E2F4F4F4F4F4F479
:101C500000E1F4F4F4F4F4F449F4F4F4F4F4F4F4F6
:101C6000004AE2F4F4F4F4F4F4F4F4F4F4F4F4F4E4
:101C7000F4F4F4F4F4F4F4F4F4F4F4F4F4F4F4F424
:101C8000F4F4F4F4F4F4F4F4F4F4F4F4F4F4F4F414
:101C9000F4F4F4F4F4F4F4F4F4F4F4F4F4F4F4F404
:101CA000F449F449F4F449F4F4F4F4F4F4F4F4F4F5
:101CB000F4F4F4F4F4F4F4F4F4F4F4F4F4F4F4F4E4
:101CC000F4F4F4F4F4F4F4F4F4F4F4F4F4F4F4F4D4
:101CD000F4F4F4F4F4F4F4F4F4F4F4F4F4F4F4F4C4
:101CE00049F4F4F4F4F4F4F4F4F4F4F4F4F4F4F45F
:101CF000F4F4F4F4F4F4F4F4F4F4F4F4F4F4F4F4A4
:101D0000F4F4F4F4F4F4F4F4F4F4F4F4F4F4F4F493
:101D1000F4F4F4F4F4F4F4F4F4F4F4F4F4F4F4F483
:101D2000F4F4F449F4E249F4F4F4F4F4F4F4F4F4DB
:101D3000F4F4F4F4F4F4F4F4F4F4F4F4F4F4F4F463
:101D4000F4F4F4F4F4F4F4F4F4F4F4F4F4F4F4F453
:101D5000F4F4F4F4F4F4F4F4F4F4F4F4F4F4F4F443
:101D600049F4F449F449F4F4F4F4F4F4F4F4F4F434
:101D7000F4F4F4F4F4F4F4F4F4F4F4F4F4F4F4F423
:101D8000F4F4F4F4F4F4F4F4F4F4F4F4F4F4F4F413
:101D9000F4F4F4F4F4F4F4F4F4F4F4F4F4F449E2C0
:101DA000F4F4F4F4F4E2E14AF4F4F4F4F4F4F4F4C2
:101DB000F4F4F4F4F4F4F4F4F4F4F4F4F4F4F4F4E3
:101DC000F4F4F4F4F4F4F4F4F4F4F4F4F4F4F4F4D3
:101DD000F4F4F4F4F4F4F4F4E1F4E1E2E2014A019D
:101DE000E2F4E24A4A4B4A4BF4F4F4F4F4F4F4F427
:101DF000F4F4F4F4F4F4F4F4F4F4F4F4F4F4F4F4A3
:101E0000F4F4F4F4F4F4F4F4F4F4F4F4F4F4F4F492
:101E1000F4F4F4F4F4F4F4F4E1F4F4F4E2014A0137
:101E2000E2F4F4F4E14B4A4B9B52499B52529B52D1
:101E3000529B529B529B529B9B52A49B539B529BE7
:101E4000529BA4529B52A452A4529BA4A49BA49B19
:101E5000A4A4A452A452A4A4000000000000000006
:101E60000000000000000000004800520000520086
:101E70000100480100480100005200520052005287
:101E80004801004900014800005200005200015280
:101E9000005201480052000001480052004901521E
:101EA0000052000100520000F4F4E14A4A4A4AE1BB
:101EB000F4F4E24A4B4B4AE2F4E14B024B4B02E2B0
:101EC000F4E2024C02024C02F4E14C034C4C034C91
:101ED000F4E2040404040404F4E10D0D0D0D0D0DF1
:101EE000F4E1160D0D160D0DF4F4F4E1014A4A4A21
:101EF000F4F4F4E14B4A4A4BE1F4E24B4C4B4B4CCB
:101F00004CE2024C024C4C0203034C034C030349C9
:101F100045040404040445E10D0D0D0D0D0D0D0DDA
:101F20000D0D4900490D0D164A4AE1F4F4F4F4F49C
:101F30004A4BE2F4F4F4F4F4024BE2F4F4F4F4491E
:101F40004C00E1F4F4F4E2E100E2F4F4F4E10244E0
:101F5000E2F4F4F4F4E204040DE1F4F4F4E10D0D20
:101F60000D0DE2F4F4E10D0DF4F4F4F4F4F4F4F4F2
:101F7000F4F4F4F449F4F4F4F449E1E14CE149F403
:101F8000E1E14C4C034CE1F4035502025503E2F449
:101F900004040404040404F40D050D0000E2E1F45B
:101FA0000D1600E1E20049F4F4F4F4F4F4F4F4F46E
:101FB000F4F4F4F449F4F4E2F4F4F4E14CE149F417
:101FC000F4F4F44C034CE1F4F4F4F4034503E2F4C8
:101FD000F4F4F404040404F4F4F4E10D050505E15B
:101FE000F4F4E10D160D16E2F4F4F4F4F4F4F4E173
:101FF000E1E2E1E2E2E1E24AE14C024C4C024C4C0B
:10200000E2004C03034C034CF4E20049490345034E
:10201000F4E1E2E1E1040404F4F4F4F4E10D0D0D63
:10202000F4F4F4F4E20D160DE2E1E1E1F4F4E1E29E
:102030004A4B4A4BF4F4E24A024C4C4CF4F4E202B0
:102040004C034CF4F4F4E14C004900E2F4E14C049C
:10205000E2E1E2F4F4E20404E2F4F4F4F4E10D0D5C
:10206000E1F4F4F4F4E1160DE1F4F4F4F4F4F4F42E
:102070004BE2E1E2F4F4F4F44C4C024C4CE1F4F4A5
:1020800003034C034CE2F4F44C4C044C0404E2F41F
:10209000040004040405E1F40DE1E2000D0D0DE17E
:1020A00016E2F4E20D0D16E1F4F4F4E1E24AE1E2A5
:1020B000F4F4E14B4B4B4B4BF4E24C4C024C4C02D6
:1020C000F4E14C034C00034CF44C044504E2490495
:1020D000F4040D0400E1E104F40D0D0DE2F4E10D52
:1020E000F416161616E2E216E1F4F4E1E1E1E2E19B
:1020F0004BE1F4E24B4B4BE14C4CF4F4E14C02E18C
:10210000034CF4F4E1034CE24504E1F4E14504043A
:102110000405E2F4E2000505060DE2F4F4E10D0D1C
:102120001616E1F4F4E21616F4F4F4F4F4E14A4B72
:10213000F4F4F4F4F4E24B4BF4F449E2F4E24C032B
:10214000F4F4E1E1F4E10203E2F4E245E1E2040443
:10215000E1E20404E2E10D0DE10D0D0D0D0D0D0D9B
:10216000E21616490D160D0DE1F4E14B4A4A4B4AB1
:10217000E2F4E24B4B4B4B4BE2F4E203034C004CDA
:10218000E1F4E1030303E200E2F4E2040445E1E2E6
:10219000E1F4E1050504E2E1E1F4E10D0D0DE2F405
:1021A000E2F4E20D0D16E1F44AE2F4F4E24A4B4A9D
:1021B0004BE149F4E14B4B4B4C03E2F4034C034C31
:1021C000034503E245030303450404E10404045604
:1021D000040D040D0D040D00F40D0D0D0D0D0DE19C
:1021E000E20D160D0D160DE2B7676767676717AD4D
:1021F0006717171717170349170303030303014949
:10220000AD49494949494949676717ADB7676767A4
:102210001717034967171717030301491703030328
:1022200049494949AD49494900520052000052000C
:10223000480100524801520000520000520048017B
:10224000520152005200520000520001520052004E
:102250004800520051010052005200015200520049
:102260005200520052005200005200520000520030
:10227000480100524801520000520000520048013B
:10228000A4A4A4A4A4A4A4A4A452A4A452A4A4A4B2
:10229000A4A4A4A4A4A452A4005200015200520079
:1022A0005200520052005200F4E20D0D0D0D1600C6
:1022B000F4E1160D16160DE2F4E1050D050D0DE124
:1022C000F4E20404040404E149E15502555502E234
:1022D000E103034C03034CE1E24B4C4B4C4B024BF0
:1022E000E24A4B4A4B4B4A4B0000E1E2E100161632
:1022F000E1E1F4F4F4E10D0DF4F4F4F4F4F40D0D73
:10230000F4F4F4F4F4F44504F4F449F449E14C4CE5
:10231000E1E2E1E1E14C4C0202024B024B4B4B4C3F
:102320004A4A4B4A4B4A4A491616E1F4F4E2160D62
:102330000D160DE1F4E10D0D0D0D0DE2F4F40D0D92
:10234000040400E2F4F40404034CE2F4F4F4034C57
:102350004C02E1F4F4F44C024B49F4F4F4F4F44B81
:10236000E1F4F4F4F4F4F4E2160DE2E2E1E2E1F473
:102370000D160D0D0D0D16490D0D0D0D0D0D0DE16B
:102380000404E2E2E1E2E1E1034C03E149F4F4F4A4
:102390004C024C4CE1E2F4F44B4B024B4B4BE2F45D
:1023A000E1E2E10049E1F4F4F4F4E20D0D160D0D63
:1023B000F4F4E10D0D0D160DF4F4E20D0D0D0D0DFF
:1023C000F4E14C0404000303F4E203034CE14C4C3D
:1023D000F4E14C4C02E10002F4E2024B49E1E24B31
:1023E000E14B4A4AE2F4E2E2E2F4F4F4E10D0D0DCD
:1023F000E1F4F4F4E20D0D0DE1F4F4F4E10D0D0D52
:1024000045E1F4F4E1450345034CE1F4E2034C03F8
:102410004C02E2F4E14C024C4B49F4E2E24B4B4BF0
:10242000E1F4F4F4E2E1E2E1E2F4F4F4F4E20D0DBB
:10243000E1F4F4F4F4E10D05E2F4F4F4F4E104055C
:10244000E2F4F4F4E1450303E1F4F4F4E2034C03B1
:10245000E2F4F4F4E14B034CE1F4F4F4E2F449F473
:10246000E1F4F4F4F4F4F4F40D00E20D0D0D0DE2DA
:102470000D49E10D05050DE104E10504040DF4E14C
:102480000303030355E2F4F44C4C034CF4F4F4F46A
:10249000034B4C00E1F4F4F44949F4E2F4F4F4F4AD
:1024A000F4F4F4F4F4F4F4F4F40D0D0D0DE1E10D95
:1024B000F40D0D0D0D0D0D0DF4F4050405040405CA
:1024C000F4E100034C030304F4F4E14C024C4C022D
:1024D000F4F4E1000002024BF4F4F4E2E14949F4BF
:1024E000F4F4F4F4F4F4F4F40D0DE2F4F4E1000D7A
:1024F0000D0DF4F4F4F4E10D0405F4F4F4F4E20445
:10250000034CF4F4F4F4E24C4CF4F4F4F4F4F44C2E
:1025100000E1F4F4F4F4F4F4E2F4F4F4F4F4F4E1A7
:10252000F4F4F4F4F4F4F4F40D0D06E1000D0D0DE3
:102530000D0D0DE2E10D0D0D040504F4E20004049F
:10254000034C03F4F4E1494C4C0249F4F4F4E10285
:10255000F4F4E1F4F4F4E100E2E1E2F4F4F4F4E19F
:10256000F4F4F4F4F4F4F4F4E1F4E10D0D00E2F425
:10257000E2F4E20D0DE2F4F4E1F4E10404E1F4F438
:10258000E1F4E14C4CE1F4F4E2F4E20000E2F4F4B2
:10259000E1F4E1E2E1E1F4F4F4F4F4F4F4F4F4F459
:1025A000F4F4F4F4F4F4F4F4E1000D0D0D0D0DE188
:1025B000F4E10D0D0D0D0DE2F4E20004040404E15C
:1025C000F4F4E1494C034CE1F4F4F4E1004900E295
:1025D000F4F4F4E1E2E1E1E1F4F4F4F4F4F4F4F419
:1025E000F4F4F4F4F4F4F4F4005200520052015202
:1025F00052010052000052000052004901510052A5
:10260000005200520001520000520052005200528B
:1026100001005200480001005200015200525200D5
:102620000048005200005200005200520052015275
:102630005201005200005200A4A4A4A4A4A4A4A483
:10264000A4A452A4A452A4A4A4A4A4A4A4A4A45240
:102650000100520048000100520001520052520095
:102660000048005200005200E14A4A4A4A4A4A4A97
:10267000E200490049490049E1E2E1E2E1E1E2E149
:10268000F4F4F4F4F4F4F4F4F4F4F4F4F4F4F4F40A
:10269000F4F4F4F4F4F4F4F4F4F4F4F4F4F4F4F4FA
:1026A000F4F4F4F4F4F4F4F400000000000000E1A9
:1026B000E1E1E2E1E2E1E1F4F4F4F4F4F4F4F4F45D
:1026C000F4F4F4F4F4F4F4F4F4F4F4F4F4F4F4F4CA
:1026D000F4F4F4F4F4F4F4F4F4F4F4F4F4F4F4F4BA
:1026E000F4F4F4F4F4F4F4F4F4F4F4E2E1F4F4F4CF
:1026F000F4F4F4F4F4F4F4F4F4F4F4F4F4F4F4F49A
:10270000F4F4F4F4F4F4F4F4F4F4F4F4F4F4F4F489
:10271000F4F4F4F4F4F4F4F4F4F4F4F4F4F4F4F479
:10272000F4F4F4F4F4F4F4F4E2000000E1F4F4F46A
:10273000E1E2E1E1F4F4F4F4F4F4F4F4F4F4F4F4A4
:10274000F4F4F4F4F4F4F4F4F4F4F4F4F4F4F4F449
:10275000F4F4F4F4F4F4F4F4F4F4F4F4F4F4F4F439
:10276000F4F4F4F4F4F4F4F4B7676767676717AD4B
:1027700014141414141414141400480100480114FF
:102780001401909898989814130048909898981469
:1027900014009898989898131348904898A0981403
:1027A000145D13130B141413B7676767676717ADCE
:1027B000141414141414144900480100480114009E
:1027C00001A0A0A8F8B3140000A0A8A8B3FD144865
:1027D00000A8F8A8B3FF140148A8B1FBB5B61400CF
:1027E0001414141414141400B7676767676717ADDF
:1027F0006717171717170349170303030303014943
:10280000AD49494949494949676717ADB76767679E
:1028100017170349671717170303014917030C0319
:1028200049494949AD49499BABABABABABABAB5BA2
:10283000AB9B9B9B9B9B9B00AB9B9B9B9B9B9B00FE
:10284000AB9B9B9B9B9B9B00AB9B9B9B9B9B9B00EE
:10285000AB9B9B9B9B9B9B00AB9B9B9B9B9B9B00DE
:102860005B0000000000000003030B0302010103F2
:102870000200190303020303030103030303030319
:10288000020103020303030B03020A030200510BBC
:102890000304030303010A03010100010000000017
:1028A0000300120303030303B0F4F4F4F4F4F4F4A8
:1028B000F4F4F4F4F4F4F4F4F4F4F4F4F4F4F4F4D8
:1028C000F4F4F4F4F4F4F4F4F4F4F4F4F4F4F4F4C8
:1028D000F4F4F4F4F4F4F4F4F4F4F4F4F4F4F4F4B8
:1028E000F4F4F4F4F4F4F4F414004801004801148E
:1028F00014019898A0A0A81414009898A0A0A81457
:102900001400A0A0A0A8F8141348A0A0A8A8A81478
:102910001401A0A0A8F8B114141313141314141460
:1029200049014800014800010048010048011448DD
:1029300001A9B6B6B563140100FDB6B5636B14000A
:1029400000F4B56C6261140048B6B4636B181448A7
:1029500001B56B626B1814011414141414141400D0
:102960004800014800004900B7676767676717AD0F
:1029700067171717171703491703030303030149C1
:10298000AD49494949494949676717ADB76767671D
:102990001717034967171717030301491703030C98
:1029A00049494949AD494949F4F4F4F4F4F4F4F4DB
:1029B000F4F4F4F4F4000000F4F4F4F40050505093
:1029C000F4F4F40050506565F4F4F40050506500E0
:1029D000F4F4F40050506565F4F4F4F40050500041
:1029E000F4F4F40000000065F4F4F4F4F4F4F4F406
:1029F0000000F4F4F4F4F4F4505000F4F4F4F4F4BB
:102A000065656500F4F4F4F465006500F4F4F4F42D
:102A100065656500F4F4F4F4005000F40000F4F48B
:102A200065000000656500F4ABABABABABABAB5B7B
:102A3000AB5B485B485B4800AB485B485B485B006E
:102A4000AB5B485B485B4800AB485B485B485B005E
:102A5000AB5B485B485B4800AB485B485B485B004E
:102A60005B000000000000000301020303030303F6
:102A7000E2E20100010101019AFE99D8D840110A51
:102A8000D8D9E0D8E1E2000BE1E2FFFFFF9BD8409C
:102A9000DAFEFFFFFFFE9940DA0000FFFFFF0000B3
:102AA000D9FEFFFFFFFE00FFB7676767676717ADD7
:102AB000671717171717039B17030303030301492E
:102AC000AD49494949494949676717ADB7676767DC
:102AD0001717034967171717030301491703030C57
:102AE00049494949AD494949F4F4006565005065D3
:102AF000F4F4F40065655050F4F4F40000656500EA
:102B0000F4F4F4F400000050F4F4F4F40050000085
:102B1000F4F4F40050505050F4F400505050500071
:102B2000F4000000000000F465000050656500F44A
:102B3000005000505000F4F45050006500F4F4F4DC
:102B400050000000F4F4F4F4005000F4F4F4F4F451
:102B500050505000F4F4F4F45050505000F4F4F499
:102B6000000000000000F4F400B7FF409AE2E2D851
:102B700000FFFFFF0040E2E1405A5101FFFFFF016B
:102B800048020A000000000140014A4A4242014A4C
:102B900098D8E0E098FB98D8D8E0A0FCD898E9FC59
:102BA000E0F0E8D8D8E0D8E0E1E1E1E2E140FF0080
:102BB0009AE2DA0100FFFF000200FFFFFF000A03B4
:102BC0000300000000000303420002020B02424A1D
:102BD000D8E0D8E898FB98D8D8D8D8FBE0D8EAFC59
:102BE000D8E8F0D8D898D8E0020200011516020201
:102BF0000203171802020405191A020206071B1C19
:102C0000020208091D1E02020A0B1F2002020C0DFF
:102C1000212202020E0F2324020210112526020295
:102C20001414141402022829393A02022A2B3B3CBC
:102C300002022C2D3D3E02022E2F3F400202303177
:102C40004142020232334344020234354546020215
:102C50003637474802022E383F400202494A5B5C41
:102C600002024B4C5D5E02024D4E5F6002024F500D
:102C700061620202515263640202535465660202A9
:102C80005556676802025758696A0202595A6B6CB6
:102C900002026D6E7E7F02026F708081020271728D
:102CA000828302027374848502027576868702022B
:102CB00077788889020279148A8B02027A7B8C8D5C
:102CC00002027C7D8E8F020214141414C7C7C7C77A
:102CD00002020401C7C7010201010265C7C7C7019B
:102CE00001650065C7C701010165FF00C7C7C701CE
:102CF0004040B765C7C799994040B7B7C740B7B715
:102D000090996565C7546565B79065650204C7C746
:102D1000C7C7C7C7016504C7C7C7C7C7656500C7B9
:102D2000C7C7C7C76500FFC7C7C7C7C7B765B7C7A6
:102D3000C7C7C7C7999090C7C7C7C7C7B7906554DB
:102D4000C7C7C7C7B7B7656554C7C7C7C7C7C7C76A
:102D500002020401C7C7010201010265C7C7C7011A
:102D600001650065C7C701010165FF00C7C7C7014D
:102D700040B7B765C7B7B799996565B7546565B783
:102D8000906565B7C7546565904840480204C7C759
:102D9000C7C7C7C7016504C7C7C7C7C7656500C739
:102DA000C7C7C7C76500FFC7C7C7C7C7B765B7C726
:102DB000C7C7C7C799909054C7C7C7C790906565E4
:102DC00054C7C7C790C7B7656554C7C7C7C7C7C784
:102DD00002020401C7C7010201010265C7C7C7019A
:102DE00001650065C7C701010165FF00C7C7C701CD
:102DF0004040B7B7C7C79999B7B75465C740405463
:102E000065655465C7404048546565400204C7C7BE
:102E1000C7C7C7C7016504C7C7C7C7C7656500C7B8
:102E2000C7C7C7C76500FFC7C7C7C7C7B7B7B7C753
:102E3000C7C7C7C76599B7C7C7C7C7C76590B7C76B
:102E4000C7C7C7C7484865B7C7C7C7C7C7C7C7C782
:102E5000C7020204C7C7C70102010102C7C7C7C72B
:102E600001016500C7C7C701010165FFC7B7B79971
:102E7000B7B740B76565484865B74040C754544048
:102E800054544048C740404848909040010204C70D
:102E9000C7C7C7C765016504C7C7C7C765656500FC
:102EA000C7C7C7C7006500FFC7C7C7C765B765B74E
:102EB000C7C7C7C790999090B799B7B790909065DA
:102EC000484865B74890545454405454C7C7C70441
:102ED00002010402C7C7046501650201C7C7006596
:102EE00065650065C7C7FF006500FF65C7C7B765B3
:102EF000B765B740C7C7909099904040C7B7B7B77C
:102F0000909048B7656554656548546502C7C7C762
:102F1000C7C7C7C7010201C7C7C7C7C70101C7C71E
:102F2000C7C7C7C7010101C7C7C7C7C74001C7C7D0
:102F3000C7C7C7C74099C7C7C7C7C7C7B79099C74B
:102F4000C7C7C7C7659999C7C7C7C7C7C7C7C7C7CF
:102F5000C7C7C7C7C7C7C7C7C7C7C7C7C7C7C7C701
:102F6000C7C7B7B7C7C7C7C7C7B76565C7C7C7C7E5
:102F7000C7B76565C70400FFB79099900465650001
:102F8000659090B702016565B7999090C7C7C7C7AC
:102F9000C7C7C7C7C7C7C7C7C7C7C7C7C7C7C7C7C1
:102FA000C7C7C7C740C7C7C7C7C7C7C74840C7C73E
:102FB000C7C7C7C7906554C7C7C7C7C7656554C7E4
:102FC0009990C7999999C79990480090C7C7C7C762
:102FD000C7C7C7C7C7C7C7C7C7C7C7C7C7C7C7C781
:102FE000C7C7C7C7C7C7C7C7C7C7C7C7C7C7C7C771
:102FF000C7C7C7C7C701C701C7C7C7C7C70201013E
:1030000001C7C7C7020101014040C7C7C7C7C7C73B
:10301000C7C7C7C7C7C7C7C7C7C7C7C7C7C7C7C740
:10302000C7C7C7C7C7C7C7C7C7C7C7C7C7C7C7C730
:10303000C7C7C7C7C7C7C7C7C7C7C7C7C7C7C7C720
:10304000C7C7C7C7C7C7C7C7C799C799C7C7C7C76C
:10305000C7C70202C7C7C7C701020101C7C7C7C7A1
:10306000C7010165C7C7C754B7B70165C7C7C7540C
:1030700065B74040C7C7C74048994040C7C7C75415
:1030800048B74840C7C7C75465B748480401020459
:10309000C7C7C7C70265016504C7C7C700656565BF
:1030A00000C7C7C7FF006500FFC7C7C7B765B765DB
:1030B000B7C7C7C74090999090B7C7C7489090903E
:1030C0006565B799404890909965B790C7C7C7C7DD
:1030D000C7C7C7C7C7C7C7C7C7C70102C7C7C7C70B
:1030E000C7C7C701C7C7B7B7B7C70101C765655429
:1030F00065654001C799484054544048C7994840C5
:10310000C7404048C7656565C740404002020401AA
:103110000204C7C701010265016504C701650065B6
:10312000656500C70165FF006500FFC74040B765E2
:10313000B765B7C740404090999090C74840B7B72F
:1031400099B7B7C74848B76548486565C7C701C755
:1031500001C701C7C701C701C701C702C7C701C768
:1031600001C701C7C765C7B7C748C70165C765C7F6
:1031700065C740C7C799C740C754C74865C748C750
:1031800048C740C7C765C765C740C74002C70401F5
:103190000204C7C7C7010265016504C701C700650E
:1031A000656500C7C765FF006500FFC74040B7659C
:1031B000B765B7C7C7404090999090C74840B7B728
:1031C00099B7B7C7C748B76548486565C7C7C7C790
:1031D000C7C7C7C7C7C7C7C7C7C7C7C7C7C7C7C77F
:1031E000C7C7C7C7C7C7C7C7C7C7C7C7C7C7C7C76F
:1031F000C7C7C7C7C7C7C7C7C7C7C7C7C7C7C7C75F
:10320000C7C7C7C7C7C7C7C7C7C7C7C7C7405465AA
:1032100065904840C740405465654090C7C74040EE
:1032200054544840C7C7C74040404090C7C7C740F4
:1032300090994048C7C7404890904040C7C7400059
:1032400048404040C790994840C7404899C7B76533
:103250006554C7C7999990906554C7C7B7656548C5
:1032600040C7C7C7B7656540C7C7C7C790B7B7C727
:10327000C7C7C7C74890C7C7C7C7C7C700C7C7C75B
:10328000C7C7C7C79099C7C7C7C7C7C7C74054658F
:1032900065409090C740405454489090C7C7404004
:1032A00040404840C7C74048404040C7C7C7C740E4
:1032B000489099C7C7C7C79040909099C7C7994889
:1032C000404000C7C7999040404890999999909084
:1032D0006554C7C79965654840C7C7C7B7656540A6
:1032E000C7C7C7C7C7B7B7C7C7C7C7C7C7C7C7C78E
:1032F000C7C7C7C7C7C7C7C7C7C7C7C7C7C7C7C75E
:10330000C7C7C7C7C7C7C7C7C7C7C7C7C7404048DA
:1033100048546565C740404048485454C7C740407A
:1033200040404840C7C7C74040404090C7C7C7401B
:1033300099904890C7C7C7C790994048C7C7C7402A
:1033400048404040C7C79999404840484065656536
:10335000C7C7C7C7995454C7C7C7C7C7C7C7C7C711
:10336000C7C7C7C799C7C7C7C7C7C7C799C7C7C749
:10337000C7C7C7C79099C7C7C7C7C7C748C7C7C7C1
:10338000C7C7C7C79999C7C7C7C7C7C7C7404040BE
:1033900048489090C7C7404040404840C7C7C740D2
:1033A00040404090C7C7404890999040C7C7409060
:1033B0009990C7C7C740004090C7C740489940C7C9
:1033C000C7C7C7409948C7C7C7C7C7C799C7C7C7EF
:1033D000C7C7C7C7C7C7C7C7C7C7C7C79999C7C7D9
:1033E000C7C7C7C7909099C7C7C7C7C7404890C746
:1033F000C7C7C7C70090C7C7C7C7C7C790C7C7C792
:10340000C7C7C7C74048C7C7C7C7C7C799484054F9
:10341000544854659948404040404840656565C7F8
:10342000404040405454544048484040C7C7C740BB
:1034300090994048C7C7404890904040C7C7400057
:1034400048404040C790994840C740486590B7C73A
:10345000C7C7C7C7484865B7C7C7C7C74065656519
:10346000C7C7C7C7405454C7C7C7C7C79099C7C7BE
:10347000C7C7C7C74890C7C7C7C7C7C700C7C7C759
:10348000C7C7C7C79099C7C7C7C7C7C70165650082
:1034900065909048040200FFB7404840020165650E
:1034A000404040900201010140655490C702010173
:1034B000B7655448C701C701B7544040C7C7C7C71D
:1034C000B7654848C7C7C7C7C765999990904090E6
:1034D00048404048909048404040404090484040DC
:1034E000999040C7484840409090484048404040EC
:1034F00040480048655440C7C74040996554C7C715
:10350000C7C7C7906554C7C7C7C7C7C702016565A6
:1035100040404099040200FFB74048400165650003
:103520006590904802016565B7996554046565002A
:1035300065B76554C70400FFB7B75440C7C7C7C7CE
:10354000C7B76548C7C7C7C7C7C765999999C79916
:103550009990489990904090904840489090484069
:10356000484040409048404090994048484840403A
:10357000999048404065544040C74099486554C7B9
:10358000C7C7C799996554C7C7C7C7C7C7C7C7C7FC
:1035900065404040C7C7C7C7C7484040C7C7C7C73F
:1035A000C7909940C7C7C7C7C7489099C7C7C7C77B
:1035B00048404840C7C7C7C7484040C7C7C7C7C734
:1035C000C7C7C7C7C7C7C7C7C7C7C7C74840656555
:1035D000484099484054656540409048489054544C
:1035E000904048484040404040404040C7C7C7C75F
:1035F000C7C7C7C7C7C7C7C7C7C7C7C7C7C7C7C75B
:10360000C7C7C7C7C7C7C7C7C7C7C7C7C7545454A3
:10361000C7484040C7C7C7C740489048C7C7C7400A
:1036200048909990C7C7404890999040C7C740902C
:103630009990C7C7C740004090C7C740489940C746
:10364000C7C7C7409948C7C7C7C7C7C74040545432
:10365000405454C7404040C7C7C7C7C79999C7C758
:10366000C7C7C7C7909099C7C7C7C7C7404890C7C3
:10367000C7C7C7C70090C7C7C7C7C7C790C7C7C70F
:10368000C7C7C7C74048C7C7C7C7C7C765C754C7A5
:1036900048C740C7C748C748C748C748C7C748C73B
:1036A00048C799C7C748C748C7999040C7C740C7C8
:1036B0009990C7C7C740C74090C7C74048C740C7D1
:1036C000C7C7C7409948C7C7C7C7C7C7C7C7C7C7BE
:1036D0001F1F1F1FC7C7C71F0F0F0F0FC7C7010F20
:1036E0000F006565C7C701030FFF0065C7C701036A
:1036F000036565B7C7C71F0103B7B703C7B7B70FE0
:103700001F6565B7546565B70F6565B71FC7C7C740
:10371000C7C7C7C70F1FC7C7C7C7C7C765001FC76A
:10372000C7C7C7C700FF1FC7C7C7C7C765B71FC77A
:10373000C7C7C7C70301B7B7C7C7C7C7011F6565F5
:10374000B7C7C7C71F0F6565B7C7C7C7C7C7C7C74D
:103750001F1F1F1FC7C7C71F0F0F0F0FC7C7010F9F
:103760000F006565C7C701030FFF0065C7C70103E9
:10377000036565B7C7C71F010303B7B7C701B7B76D
:10378000011F6565C7546565B70F65651FC7C7C766
:10379000C7C7C7C70F1FC7C7C7C7C7C765001FC7EA
:1037A000C7C7C7C700FF1FC7C7C7C7C765B71FC7FA
:1037B000C7C7C7C70301B7C7C7C7C7C7B76565B717
:1037C000C7C7C7C7B76565B7C7C7C7C7C7C7C71F15
:1037D0001F1F1F1FC7C71F0F0F0F0F0FC7010F0F8F
:1037E00000B7B7B7C701030FFF656565C7010303DE
:1037F000651F0F01C71F1FB7B7B7030101010FB73F
:10380000656565650101030F5454541FC7C7C7C7D9
:10381000C7C7C7C71FC7C7C7C7C7C7C7B7B7B7C710
:10382000C7C7C7C7656565C7C7C7C7C71F0F01C774
:10383000C7C7C7C7B70301C7C7C7C7C7656565C7D8
:10384000C7C7C7C75454C7C7C7C7C7C7C7C7C7C7EE
:10385000C7C71F1FC7C7C7C7C71F0F0FC754B7B7F3
:10386000010F0F00C75465B701030FFFC701031F06
:1038700001030365C75403B70F010303C75465B7BA
:10388000030F0101C7C7650103030F0F1F1F1FC7E8
:10389000C7C7C7C70F0F0F1FC7C7C7C76565650075
:1038A0001FC7C7C7006500FF1FC7C7C765B765B794
:1038B0001FC7C7C703030301B71FB7B701010165DE
:1038C000030365B70F1F545454015454C7C7C71F8F
:1038D0001F1F1F1FC7C71F0F0F0F0F0FC71F006529
:1038E0006565000FC71FFF006500FF0FC71FB765A5
:1038F000B7656503C7C70103B7B7B7B7C7010165A8
:1039000065656565C701010354545454C7C7C7C7EB
:10391000C7C7C7C71FC7C7C7C7C7C7C70F01C7C75D
:10392000C7C7C7C70301C7C7C7C7C7C70301C7C73B
:10393000C7C7C7C7B7B71FB7B7C7C7C7650303654B
:10394000B7C7C7C75454015454C7C7C7C7C7C7C7A9
:10395000C7C7C7C7C7C7C7C7C7C7C7C7C7C7C7C7F7
:10396000C7C7C7C7C7C7C7C7C7C7C7C7C7C7C7C7E7
:10397000C7C7C7C7C7C7B765010165C7C7C71F1F87
:103980001F036554C71F00FFB7011F1FC7C7C7C765
:10399000C7C7C7C7C7C7C7C7C7C7C7C7C7C7C7C7B7
:1039A000C7C7C7C7C7C7C7C7C7C7C7C7C7C7C7C7A7
:1039B000C7C7C7C7C7C7C7C7C7C7C7C7C7C7C7C797
:1039C000C7C7C7C71F1FC7C71F0FC71FC7C7C7C7DF
:1039D000C7C7C7C7C7C7C7C7C7C7C7C7C7C7C7C777
:1039E000C7C7C7C7C7C7C7C7C7C7C7C7C7C7C7C767
:1039F000C7C7C7C7C7C7C7C7C7C7C7C7C7C70101E3
:103A000001C7C7C7C71F0F0303011F1FC7C7C7C70A
:103A1000C7C7C7C7C7C7C7C7C7C7C7C7C7C7C7C736
:103A2000C7C7C7C7C7C7C7C7C7C7C7C7C7C7C7C726
:103A3000C7C7C7C7C7C7C7C7C7C7C7C7C7C7C7C716
:103A4000C71FC71F1F1FC71F1F0F031FC7C7C71FC2
:103A50001F1F1F1FC7C71F0F0F0F0F0FC7010F0F0C
:103A600000656565C701030FFF006500C70103031B
:103A70006565B765C7C7016503030303C7015465DF
:103A8000B7010101C7655465B70F0F0FC7C7C7C797
:103A9000C7C7C7C71FC7C7C7C7C7C7C7001FC7C7CD
:103AA000C7C7C7C7FF1FC7C7C7C7C7C7B71FC7C7CE
:103AB000C7C7C7C701C7C7C7C7C7C7C71FC7C7C704
:103AC000C7C7C7C71FC7C7C7C7C7C71F1F1F1FC7CE
:103AD000C7C7C7C70F0F0F1FC7C7C7C76565650033
:103AE0001FB7C7C7006500FF1F65C7C765B765B7C4
:103AF0001F01C7C7030303010301C7C70101016514
:103B00006565C7C70F1F545454C7C7C7C7546565F9
:103B10000F03010FC701546565010F0FC7C701549B
:103B200054010301C7C701030101011FC7C7010FEA
:103B30001F01030FC701030F0F010103C70100039A
:103B4000010101000F1F0301C701030F1F0F030134
:103B5000C7C7C7C71F6501C7C7C7C7C75454C7C7AB
:103B6000C7C7C7C7C7C7C7C7C7C7C7C71FC7C7C78D
:103B7000C7C7C7C70FC7C7C7C7C7C7C7C7C7C7C78D
:103B8000C7C7C7C71FC7C7C7C7C7C7C7C701546508
:103B9000650F0301C70101546565010FC7C7010126
:103BA00054540301C7C701030F1F03C7C7C7C70189
:103BB000030F1FC7C7C7C70F010F0F1FC7C71F03BB
:103BC000010100C7C71F0F0101030F1F1F0301C71A
:103BD000C7C7C7C71F01C7C7C7C7C7C754C7C7C756
:103BE000C7C7C7C7C7C7C7C7C7C7C7C7C7C7C7C765
:103BF000C7C7C7C7C7C7C7C7C7C7C7C7C7C7C7C755
:103C0000C7C7C7C7C7C7C7C7C7C7C7C70101030358
:103C10000F0F0F1F01010103030F0F1FC701010148
:103C2000010301C7C7C7010101010F1FC7C7011F5A
:103C30000F030F1FC7C7C70F1F01030FC7C701031C
:103C400001010103C71F1F010301031FC7C7C7C726
:103C5000C7C7C7C7C7C7C7C7C7C7C7C7C7C7C7C7F4
:103C6000C7C7C7C7C7C7C7C7C7C7C7C7C7C7C7C7E4
:103C7000C7C7C7C71FC7C7C7C7C7C7C7C7C7C7C77C
:103C8000C7C7C7C71FC7C7C7C7C7C7C7C7C70101F8
:103C90000103030FC7C7C70101010103C7C7C7015C
:103CA00003010101C7C701030F1F0F01C7C7010FA0
:103CB0001F0FC7C7C70100010FC7C701031F01C7F7
:103CC000C7C7C7011F03C7C7C7C7C7C70F1FC7C716
:103CD000C7C7C7C701C7C7C7C7C7C7C71F1FC7C78A
:103CE000C7C7C7C70F0F1FC7C7C7C7C701030FC7BE
:103CF000C7C7C7C7000FC7C7C7C7C7C70FC7C7C78B
:103D0000C7C7C7C70103C7C7C7C7C7C7C70101031D
:103D1000030F0F0FC701010103030F0FC7C70101F5
:103D200001010301C7C7C7010101010FC7C7C701CF
:103D30001F0F030FC7C7C7C70F1F0103C7C7C7019F
:103D400003010101C7C71F1F010301031FC7C7C725
:103D5000C7C7C7C71FC7C7C7C7C7C7C7C7C7C7C79B
:103D6000C7C7C7C71FC7C7C7C7C7C7C71FC7C7C733
:103D7000C7C7C7C70F1FC7C7C7C7C7C703C7C7C7F7
:103D8000C7C7C7C71F1FC7C7C7C7C7C71F0F65009C
:103D90006503010F1F0F6565B703010F1F0F650056
:103DA0006503010F1F0F00FF6503B7B71F0F0F0F4C
:103DB00003656565C71F0F0303015454C7C701019D
:103DC00001C70165C7C7C7C7C7C7C7C70F0F011F4F
:103DD0000F03000F0F0F0301030101030F03B7B718
:103DE00001010101031F6565540F01C7B70F656528
:103DF000540F0301650F030101030003655401C75C
:103E0000C701011F5454C7C7C7C7C70F1F0F0F0FE4
:103E10000303010F1F0F00FF6503010F1F0F650054
:103E20006503B7B71F0F6565B76565651F0F65004B
:103E300065035454C71F00FFB7010165C7C71F1FA3
:103E40001FC70101C7C7C7C7C7C7C7C70F0F010F24
:103E50000F0301030F0FB7B7030101010F1F6565C2
:103E6000541F0103B70F6565540F0301650F03016C
:103E700001C7011F655401C7C7C7C71F5454C7C72F
:103E8000C7C7C7C7C7C7C7C7C7C7C7C7546565B709
:103E9000030F0F0F54540F0F1F030F0FC7010365BC
:103EA00065B70301C7C7016565B70101C7C7C75437
:103EB00054030F1FC7C7C7C703010301C7C7C7C73D
:103EC000030101C7C7C7C7C7C7C7C7C71FC7C7C77A
:103ED000C7C71F0F1FC7C7C7C7C71F030F1F1F1F96
:103EE0001F010F03030F0F030F0103030101010162
:103EF00001010101C7C7C7C7C7C7C7C7C7C7C7C76A
:103F0000C7C7C7C7C7C7C7C7C7C7C7C7C7C7C7C741
:103F1000C7C7C7C7C7C7C7C7C7C73C3CC7C7C7C747
:103F2000C73C2B2BC7C7C7C7102B2B00C7C7C7C79A
:103F300010232BFFC7B7B7B71023236565655465FA
:103F4000651023233C231054542B1010C7C7C7C738
:103F5000C7C7C7C73C3C3CC7C7C7C7C72B2B2B3CF1
:103F6000C7C7C7C7656565003CC7C7C7006500FF11
:103F70003CC7C7C765B765B73CC7C7C7232B231066
:103F8000B7B7C7C71010103C6565B7C7C7C7C7C765
:103F9000C7C7C7C7C7C7C7C7C7C73C3CC7C7C7C7C7
:103FA000C73C2B2BC7C7C7C7102B2B00C7B7B7B74A
:103FB00010232BFF65655465652323653C2310544E
:103FC000541023233C231010232B1010C7C7C7C73E
:103FD000C7C7C7C73C3C3CC7C7C7C7C72B2B2B3C71
:103FE000C7C7C7C7656565003CC7C7C7006500FF91
:103FF0003CC7C7C765B765B73CC7C7C7232B2310E6
:1040000065B7C7C71010106565B7C7C7C7C7C7C7AB
:10401000C7C7C7C7C7C7C7C7C73C3C3CC7C7C7C7D1
:104020003C2B2B2BC7C7C7102B2B0065C7C7C7104E
:10403000232BFF00C7C7C71023236565C7C7101010
:10404000B7B7233CC7C710546565B72BC7C7C7C7E9
:10405000C7C7C7C73C3CC7C7C7C7C7C72B2B3CC7C9
:10406000C7C7C7C76565003CC7C7C7C76500FF3C72
:10407000C7C7C7C7B7B7B73CC7C7C7C76565B754D2
:10408000C7C7C7C76565B76554C7C7C7C7C7C7C769
:10409000C7C7C7C7C7C7C7C7C7C7C7C7C7C7C7C7B0
:1040A000C7C7C710C7C7C7C7C7C7C710C7C7C7C70E
:1040B000C7C73C10C7C7C7C7C710102BC7C7C7C7DC
:1040C000C710B7B7C7C7C7C7C7656565C73C3C3C1E
:1040D0003C3CC7C73C2B2B2B2B2B3CC72B2B006509
:1040E0006565003C232BFF006500FF3C23236565CD
:1040F000B765B73C102323232B2310C7B7B7B7B737
:10410000B73CB7B765656565232365B7C7C73C3C52
:104110003C3C3CC7C73C2B2B2B2B2B3C3C00656508
:1041200065002B2B3CFF006500FF2B233CB765B7D8
:1041300065652323C71023652323231010105465BE
:10414000B710103C10655465B72B2B3CC7C7C7C7C9
:10415000C7C7C7C7C7C7C7C7C7C7C7C710C7C7C7A6
:10416000C7C7C7C710C7C7C7C7C7C7C710C7C7C74D
:10417000C7C7C7C7C754C7C7C7C7C7C7B76554C727
:10418000C7C7C7C7B7656554C7C7C7C7C7C7C7C706
:10419000C7C7C7C7C7C7C7C7C7C7C7C7C7C7C7C7AF
:1041A000C7C7C7C7C7C7C7C7C7C7C7C7C7C7C7C79F
:1041B000C7C7C754C7C73C3C3CC75465C73C00FF92
:1041C000B71065653C2B6500652310B7C7C7C7C727
:1041D000C7C7C7C7C7C7C7C7C7C7C7C7C7C7C7C76F
:1041E000C7C7C7C75454C7C7C7C7C7C7656510C7C0
:1041F000C7C7C7C7652B2310C7C7C7C7B72B656518
:10420000B7C7C7C7C73C6565B72BC73CC7C7C7C7D4
:10421000C7C7C7C7C7C7C7C7C7C7C7C7C7C7C7C72E
:10422000C7C7C7C7C7C7C7C7C7C7C7C7C7C7C7C71E
:10423000C7C7C7C7C7C7C7C7C7C7C7C7C7C7C7C70E
:10424000C7C7C754C7C7101010C75465C7C7C7C76B
:10425000C7C7C7C7C7C7C7C7C7C7C7C7C7C7C7C7EE
:10426000C7C7C7C7C7C7C7C7C7C7C7C7C7C7C7C7DE
:10427000C7C7C7C75454C7C7C7C7C7C7656510C72F
:10428000C7C7C7C7652B2310C73CC73CC7C7C7C72D
:10429000C73C3C3CC7C7C7C73C2B2B2BC7C7C71065
:1042A0002B2B0065C7C7C710232BFF00C7C7C7103C
:1042B00023236565C7C71010B7B7233CC7C7105481
:1042C0006565B72BC7C710105465652B3C3CC7C745
:1042D000C7C7C7C72B2B3CC7C7C7C7C76565003C47
:1042E000C7C7C7C76500FF3CC7C7C7C7B7B7B73C95
:1042F000C7C7C7C76565B754C7C7C7C76565B765CB
:1043000054C7C7C72310B7656554C73CC7C7C7C7DD
:10431000C7C7C7C7C7C7C7C7C7C7C7C7C7C7C7C72D
:10432000C7C7C710C7C7C7C7C7C7C710C7C7C7B79B
:10433000B7B73C10C7C765655465652BC7C73C2335
:1043400010545423C7C73C2310101023C73C3C3CD7
:104350003C3CC7C73C2B2B2B2B2B3CC72B2B006586
:104360006565003C232BFF006500FF3C232365654A
:10437000B765B73C102323232B2310C72B10101035
:104380001010C7C7232B2B2B3C6554C73C231010A0
:1043900023232B2B656565101023232B54545410B5
:1043A00010101023C7C7102323101010C7C7102BDD
:1043B0003C10232BC710232B2B101023C710FF23D7
:1043C000101010FF2B3C2310C710232B2B3CB72BB6
:1043D0006565B7C72B3C652B2310C7C710546565AF
:1043E00010C7C7C7C7C75454C7C7C7C73CC7C7C785
:1043F000C7C7C7C72BC7C7C7C7C7C7C7C7C7C7C7E9
:10440000C7C7C7C73CC7C7C7C7C7C7C765656510A4
:1044100023232B2B545454101023232BC7C7C7100E
:1044200010101023C7C710232B101010C7C7C710B8
:10443000232B3CC7C7C7C72B102B2B3CC7C73C231C
:104440001010FFC7C73C2B1010232B3C2B3C2B23F9
:1044500010C7C7C72B3C6510C7C7C7C7105454C780
:10446000C7C7C7C7C7C7C7C7C7C7C7C7C7C7C7C7DC
:10447000C7C7C7C7C7C7C7C7C7C7C7C7C7C7C7C7CC
:10448000C7C7C7C7C7C7C7C7C7C7C7C7C7C710102A
:104490005465652BC7C7101010546565C7C7C71092
:1044A00010105454C7C7102B23101010C7C7103C4E
:1044B0002B232B3CC7C7C72B3C10232BC7C710236C
:1044C00010101023C73C3C102310233C2310B76569
:1044D0006554C7C7103C2B2B6554C7C710656523AF
:1044E00010C7C7C7B7656510C7C7C7C7C7B7B7C7BE
:1044F000C7C7C7C73CC7C7C7C7C7C7C7C7C7C7C7D7
:10450000C7C7C7C73CC7C7C7C7C7C7C7C7C7C7C7C6
:10451000C7105454C7C7C7C710231010C7C7C71048
:10452000232B3C2BC7C710232B3C2B10C7C7102BAA
:104530003C2BC7C7C710FF102BC7C710233C10C7A1
:10454000C7C7C7103C23C7C7C7C7C7C754545454AD
:1045500054105454101023102B2B65541010106558
:10456000652310C72B2BB7656510C7C710232BB762
:10457000B7C7C7C7FF2BC7C7C7C7C7C72BC7C7C7DB
:10458000C7C7C7C71023C7C7C7C7C7C7546565B75D
:104590002B2B2B3C54542B2B3C2B2B3CC710236533
:1045A00065B710B7C7C7106565B72BB7C7C7105435
:1045B00054232B3CC7C7C72B3C10232BC7C7102342
:1045C00010101023C73C3C102310233CC7B765656F
:1045D00054C7C7C73C2B2B6554C7C7C76565231095
:1045E000C7C7C7C7656510C7C7C7C7C7B7B7C7C7F6
:1045F000C7C7C7C73CC7C7C7C7C7C7C7C7C7C7C7D6
:10460000C7C7C7C73CC7C7C7C7C7C7C73C2B6565B0
:10461000B72B103C3C2B65006523102B3C2B00FF77
:104620006523102B3C2B2B2B2323B7B7C73C2B2305
:1046300023656565C7C71010103C5454C7C7C7C76A
:10464000C73C1065C7C7C7C7C7C710103C3CB7B742
:104650002B23FF2B2B2B102B231010232B2BB7B727
:10466000101010102B3C6565542B10C7B72B6565D7
:10467000542B2310652B23101023FF23655410C7E0
:10468000C710103C5454C7C7C7C7C72BC73C2B2300
:1046900023103C3C3C2B2B2B2323102B3C2B00FFCB
:1046A0006523B7B73C2B6500656565653C2B656583
:1046B000B72B54543C2B650065231065C73C00FFA5
:1046C000B7101010C7C73C3C3CC710103C3C656598
:1046D000B72B233C2B2BB7B7B72310232B3C656597
:1046E00054101010B72B6565543C1023652B231014
:1046F0003C2B23106554101010C7103C545410C7A5
:10470000C7C7C73C1010C7C7C7C7C7C7C7C71010A0
:1047100010546565C7C7C71010105454C7C7C7C722
:10472000C7101010C7C7C7C7C72B3C10C7C7C7C71C
:10473000C7232B3CC7C7C7C723102310C7C7C7C78A
:10474000231010C7C7C7C7C7C7C7C7C7103C2B2B85
:1047500065543C521065652310C73C23B76565104E
:104760003C102B2323B7B7232B102323101010103A
:1047700010101010C7C7C7C7C7C7C7C7C7C7C7C7A5
:10478000C7C7C7C7C7C7C7C7C7C7C7C7C7C765657D
:1047900065101010C7C7545454231010C7C7C71052
:1047A000232B3C2BC7C710232B3C2B10C7C7102B28
:1047B0003C2BC7C7C710FF102BC7C710233C10C71F
:1047C000C7C7C7103C23C7C7C7C7C7C723232B2BDF
:1047D0003C656554101023102B2B65541010106588
:1047E000652310C72B2BB7656510C7C710232BB7E0
:1047F000B7C7C7C7FF2BC7C7C7C7C7C72BC7C7C759
:10480000C7C7C7C71023C7C7C7C7C7C7C7C7C7C793
:10481000A4A4A4A4C7C7C7A452525252C7C70052E7
:1048200052006565C7C7004052FF0065C7C700401A
:10483000406565B7C7C7B7B7A4B7B752C765654086
:104840004065B700C700545400545452A4C7C7C7AA
:10485000C7C7C7C752A4C7C7C7C7C7C76500A4C7CC
:10486000C7C7C7C700FFA4B7C7C7C7C765B7A46591
:10487000C7C7C7C740005200C7C7C7C700B7400077
:10488000C7C7C7C7A4656565C7C7C7C7C7C7C7C701
:10489000A4A4A4A4C7C7C7A452525252C7C7005267
:1048A00052006565C7C7004052FF0065C7C700409A
:1048B000406565B7C7B7B7A4B7B740526565404014
:1048C00065B70000C754540054545252A4C7C7C718
:1048D000C7C7C7C752A4C7C7C7C7C7C76500A4C74C
:1048E000C7C7C7C700FFA4B7B7C7C7C765B7A46521
:1048F00065C7C7C74000A45200C7C7C700B7B740C5
:1049000000C7C7C7A465656565C7C7C7C7C7C7A4CC
:10491000A4A4A4A4C7C7A45252525252C7005252D0
:1049200000656565C7004052FF006500C700404054
:104930006565B7B7C7C70040404065B7C70000000E
:104940000000A4B7C7000040B7B7B754C7C7C7C770
:10495000C7C7C7C7A4C7C7C7C7C7C7C700A4C7C7F4
:10496000C7C7C7C7FFA4C7C7C7C7C7C7B7A4C7C7F5
:10497000C7C7C7C7B7A4B7B7C7C7C7C765404065EC
:1049800065C7C7C754005454C7C7C7C7C7C7C7C739
:10499000C7C7A4A4C7C7C7C7C7A45252C7C7C7C7FA
:1049A00000525200C7C7C7A4004052FFC7C700004B
:1049B00000404065C7C7000040004040C7C7000036
:1049C0004040B7B7C7C7000000656565A4A4A4C789
:1049D000C7C7C7C7525252A4C7C7C7C765656500D6
:1049E000A4C7C7C7006500FFA4C7C7C765B765B739
:1049F000A4B7A4B74052400065404065B7B7B7B709
:104A0000A4B7B754656565404065B7C7C7C7A4A4D8
:104A1000A4A4A4C7C7A45252525252A4A4006565CC
:104A200065005252A4FF006500FF5240A4B765B76D
:104A300065654040C7004052404040000000000013
:104A400000B7B7A400B7B752A46565B7C7C7C7C753
:104A5000C7C7C7C7C7C7C7C7C7C7C7C700C7C7C7AD
:104A6000C7C7C7C700C7C7C7C7C7C7C700C7C7C764
:104A7000C7C7C7C7C7C7C7C7C7C7C7C7B7B7A4B719
:104A8000B7C7C7C765404065B7C7C7C7C7C7C7C7A8
:104A9000C7C7C7C7C7C7C7C7C7C7C7C7C7C7C7C7A6
:104AA000C7C7C7C7C7C7C7C7C7C7B7B7C7C7C7C7B6
:104AB000C7C7B765C7C7C7C7C7C7A440C7C7A4A4E8
:104AC000A4C7B740C7A400FFB700B765C7C7C7C72B
:104AD000C7C7C7C7C7C7C7C7C7C7C7C7C7C7C7C766
:104AE000C7C7C7C754C7C7C7C7C7C7C754C7C7C73C
:104AF000C7C7C7C700C7C7C7C7C7C7C754C7C7C780
:104B0000A452C7A454C7C7A45240FF52C7C7C7C7BF
:104B1000C7C7C7C7C7C7C7C7C7C7C7C7C7C7C7C725
:104B2000C7C7C7C7C7C7C7C7C7C7C7C7C7C7C7C715
:104B3000C7C7C7C7C7C7C7C7C7C7C7C7C7C7C7C705
:104B4000C7C7C7C7C7C7000000C7C7C7C7C7C7C74A
:104B5000C7C7C7C7C7C7C7C7400000C7C7C7C7C7FA
:104B600040004000C7C7C7C7C74052A4C7C7C7C790
:104B7000C7520000C7C7C7C700000000C7C7C700AB
:104B800000004040C7B7B7B700404052C7C7C7C7CB
:104B9000C7C7C7C7C7C7C7C7C7C7C7C7C7C7C7C7A5
:104BA000C7C7C7C700000000000000000052524005
:104BB000520040404000A4A4A40052405252A4C756
:104BC000C7C7A4405252A4C7C7C7A452C7C7C7C7C4
:104BD000C7C7C7C7C7C7C7C7C7C7C7A4C7C7C7C788
:104BE000C7C70052C7C7C7C7A4A40040C7C7C700EC
:104BF00000520040C7C7C70000405200C7C7C700E7
:104C00000040B7B7C7C7C70000546565A4A4A4A4F3
:104C1000A4C7C7C75252525252A4C7C752006565B3
:104C20006500A4C752FF006500FFA4C7406565B7D3
:104C3000B7B7A4C74040546565A4C7C700A454656E
:104C40006552B7C7B7526500404065B7C70000401E
:104C500040525252C700000040405252C7C70000A5
:104C600000004000C7C7C70000000052C7C7C70008
:104C700052A40040C7C7004052520000C7C700FFFF
:104C800040000000C752A44000C70040A45454C7CD
:104C9000C7C7C7C7A4C7C7C7C7C7C7C7C7C7C7C7C7
:104CA000C7C7C7C7A4C7C7C7C7C7C7C752A4C7C74F
:104CB000C7C7C7C74052C7C7C7C7C7C7FFC7C7C748
:104CC000C7C7C7C752A4C7C7C7C7C7C7C700004021
:104CD00040525252C700000040405252C7C7000025
:104CE00000004000C7C70040000000C7C7C7C7009A
:104CF0004052A4C7C7C7C752005252A4C7C7A44056
:104D00000000FFC7C7A45200004052A4A45454544A
:104D1000C7C7C7C7A4C7C7C7C7C7C7C7C7C7C7C746
:104D2000C7C7C7C7C7C7C7C7C7C7C7C7C7C7C7C713
:104D3000C7C7C7C7C7C7C7C7C7C7C7C7C7C7C7C703
:104D4000C7C7C7C7C7C7C7C7C7C7C7C7C700004008
:104D5000B7656565C700000040545454C7C70000DC
:104D600000004000C7C7C70000000052C7C7C70007
:104D7000A4524052C7C7C7C752A40040C7C7C70004
:104D800040000000C7C7A4A40040004065C7C7C7D3
:104D9000C7C7C7C7A4C7C7C7C7C7C7C7C7C7C7C7C6
:104DA000C7C7C7C7A4C7C7C7C7C7C7C7A4C7C7C7D9
:104DB000C7C7C7C752A4C7C7C7C7C7C740C7C7C7A2
:104DC000C7C7C7C7A4A4C7C7C7C7C7C7C7C7C70080
:104DD00000005454C7C7C7C700000000C7C7C700BA
:104DE0004052A452C7C7004052A45200C7C7005245
:104DF000A452C7C7C700FF0052C7C70040A400C7DE
:104E0000C7C7C700A440C7C7C7C7C7C7545454546F
:104E1000005454C7C7C7C7C7C7C7C7C7A4A4C7C715
:104E2000C7C7C7C75252A4C7C7C7C7C7004052C7E2
:104E3000C7C7C7C7FF52C7C7C7C7C7C752C7C7C7B4
:104E4000C7C7C7C70040C7C7C7C7C7C7546565B787
:104E5000526565B700546565524000A4C7005465AB
:104E6000650000C7C7C7C75454004052C7C7C70032
:104E7000A4524052C7C7C7C752A40040C7C7C70003
:104E800040000000C7C7A4A4004000405454005490
:104E900054C7C7C7C7C7C7C7C7C7C7C7C7C7C7C715
:104EA000C7C7C7C7A4C7C7C7C7C7C7C7A4C7C7C7D8
:104EB000C7C7C7C752A4C7C7C7C7C7C740C7C7C7A1
:104EC000C7C7C7C7A4A4C7C7C7C7C7C7A452650079
:104ED000654000B7A4526565B752B765A452650036
:104EE0006540B765A45200FF654000A4A452525229
:104EF00040400052C7A45240400052B7C7C700000C
:104F000000A400B7C7C7C7C7C7C70000B7A4C75228
:104F100040000040650000400000000065400000C7
:104F2000A45200C75252655452524000B7656554AE
:104F30000040FF40656554C7C70000A4655400C722
:104F4000C7C7C7525400C7C7C7C7C7C7C7A45240BF
:104F50004000A4A4A452525240400052A45200FF68
:104F600065400052A45265006540B7B7A45265651C
:104F7000B7656565A452650065405454C7A400FF39
:104F8000B7000065C7C7A4A4A4C70000A4A4C7C7EE
:104F9000C7A4C7A4525200A4A45240A45252B7B707
:104FA0005240004052A4656554000000B752656548
:104FB00054A4004065524000A452400065540000D3
:104FC00000C700A45454C7C7C7C7C7A465655465C4
:104FD00065405252A440005454520000A44000C7FF
:104FE000A4004040656565C700404065545454C7FF
:104FF000004052FFC7C7C7C700525200C7C7C7C744
:10500000C7A45252C7C7C7C7C7C7A4A45252A45403
:10501000005454A4000000404065B7C7405240000F
:10502000A4B7B7C765B765B7A4C7C7C7006500FF12
:10503000A4C7C7C765656500A4C7C7C7525252A4B5
:10504000C7C7C7C7A4A4A4C7C7C7C7C7C7C7C7C759
:1050500000005465C7C7C7C700400054C7C7C70092
:105060004052A452C7C7004052A45200C7C70052C2
:10507000A452C7C7C700FF0052C7C70040A400C75B
:10508000C7C7C700A440C7C7C7C7C7C76552400046
:1050900000656565656500C7C75454C75454C7C7E4
:1050A000C7C7C7C75252A4C7C7C7C7C7004052C760
:1050B000C7C7C7C7FF52C7C7C7C7C7C752C7C7C732
:1050C000C7C7C7C70040C7C7C7C7C7C700010000D9
:1050D00007A00000EC0100FE00010100FF0000ED50
:1050E00000010602010100FF0000EC0001020107BF
:1050F000000207FF00010300FF0000E002030C02B2
:10510000040C02050000FF00010A0000E202010594
:1051100001010301010102050000FF0000E7020395
:105120000C04050000FF0000F100085A020403020D
:10513000040402040502040602050000FF03010640
:1051400004010901050000FF0002040000F8000846
:105150005003084E03085402084C02085802084A3B
:1051600001085C0000FC03086003085A03086003A0
:10517000085A03086003085A01050000FF000700F1
:105180000402040007FF000990000A3C0000FB0134
:105190000850030305030405030305030405030383
:1051A00005030405030305030405030305030405C0
:1051B00003030503040503030503050000FF0007BF
:1051C000FF0002030000FC0008280104050104049C
:1051D000010403010402010401000990000A6002B5
:1051E0000401020401020401020401020401020498
:1051F000010204010204010204010204010204018B
:1052000002040102040102050000FF000000CC506E
:1052100000000000000000DD500000000000000061
:10522000E85000000000000000BE51000000000037
:1052300000000751000000000000001B51000000AA
:10524000000000002651000000000100003D510058
:105250000000000000004851000000000000007D38
:1052600051000000000406000102030405060708BF
:10527000090A0B0C0D0E0F1011121308141516C786
:10528000C7C7C7C7C7C7C7C7C7C7C7C7C7C7C7C7AE
:10529000C7C7C7C7C7C701C7C7C7C7C7C70102C7EF
:1052A000C7C7C7C7C70104C7C7C7C7C7020104C765
:1052B000C7C7C7C7010202C7C7C7C7C7656502C757
:1052C000C7040202010101020402020101020204F8
:1052D00002020101020204040202010204040202A9
:1052E000020102040202020201020202020201029F
:1052F000020165655454010265650000545454C7A9
:10530000C7C7C7C7C7C7020202C7C7C7020201048F
:10531000040202020201C7020202020101C7C70120
:1053200001010101015454010101010101020201C5
:1053300001B765010102010165655401010101C761
:10534000C7C7C7C7C7C7C7C7C7C7C7C7C7C7C7C7ED
:10535000C7C7C7C7C7C7C7C7C7C7C7C7C7C7C7C7DD
:1053600002C7C7C7C7C7C70101C7C7C7C7C7C701E4
:105370005454C7C7C7C7C7545454C7C7C7C7C7C7FC
:10538000C7C7C7C7006565C7C7C7C7C7000065C728
:10539000C7C7C7C7C70000C7C7C7C7C7C7FF00C7BA
:1053A000C7C7C7C7C765FFC7C7C7C7C7C7C765C719
:1053B000C7C7C7C7C7C748C7C7C7C7C7C7C7C7655E
:1053C00065000000005454650000FFFFFF54546561
:1053D00000FF0000FF54546554FFA4A4FF5454B7C9
:1053E00054FFFFFF65B754B765656565B76554B78A
:1053F0006565656548484099909090484848405494
:10540000546554010101545454650101015454542C
:105410005440655454545454544040404054C7542C
:10542000404040404040C7404040404040404040F5
:105430004040404040404040404040404040405458
:1054400054C7C7C7C7C7C75454C7C7C7C7C7C754B8
:10545000C7C7C7C7C7C7C7C7C7C7C7C7C7C7C7C7DC
:10546000C7C7C7C7C7C7C7C7C7C7C7C7C7C7C74053
:10547000C7C7C7C7C7C7C74040C7C7C7C7C7C7C7CA
:10548000C7C7C7C7C7C7C7C7C7C7C7C7C7C7C7C7AC
:10549000C7C7C7C7C7C7C7C7C7C7C7C7C7C7C7C79C
:1054A000C7C7C7C7C7C7C7C7C7C7C7C7C7C7C7C78C
:1054B000C7C7C7C7C7C7C7C7C7C7C7C7C7C7C799AA
:1054C00099909090484840C790909090484840C725
:1054D000C7909090904848C7C7999090904848C707
:1054E000C7C79990484865C7C7C79990486565C7B9
:1054F000C7C7999065B7B7C79999999065545440B3
:10550000484040404040404848404040404040487B
:105510004840404040404048404040404040406556
:1055200065656565654040B7B7B7655465654065B5
:105530005454545454656554545454545454404031
:105540004040C7C7C7C7C7404040C7C7C7C7C74015
:105550004040C7C7C7C7C7404040C7C7C7C7C74005
:10556000404040C7C7C7C740404040C7C7C7C74003
:10557000404040C7C7C7C740404040C7C7C7C7C76C
:10558000C7C7C7C7C7C799B76565656590906565A3
:10559000B7B7B7B790999965B76565656590906538
:1055A00065B765545448486565545454545440C7CD
:1055B00065545454545440C76554545454544899F1
:1055C00090909065B76565656565B7B765655499F1
:1055D000B7B76565656565906565655454656548EB
:1055E00048545454545454404054545454544040D7
:1055F000405454544040404040404040404040545B
:105600005454545454544065655454545440406563
:1056100054545454404040655448484040404054DD
:10562000904848484840404848904848484840408A
:1056300090909048484040909999909048484040B8
:10564000404040C7C7C7C740404040C7C7C7C74022
:10565000404040C7C7C7C74040404040C7C7C74099
:1056600040404040C7C7C74040404040C7C7C74010
:1056700040404040C7C7C74040404040C7C7C7C779
:10568000C7545454544848C7C7545454544848C73E
:10569000C7C7C7C7484848C7C7C7C7C7C74848C715
:1056A000C7C7C7C7C7C7C7C7C7C7C7C7C7C7C7C78A
:1056B000C7C7C7C7C7C7C7C7C7C7C7C7C7C7C74001
:1056C00040404040404090484040404040909048DA
:1056D00040404040909099484040404090909940D0
:1056E00040400000909999C7C7C7C748909090C79D
:1056F000C7C7C748489090C7C7C7909048484899BF
:10570000999090904840409999909048484040998D
:105710009090904848404090909048484040409039
:1057200090904848404040909048484840404090C1
:1057300090484840404040484848484040404040E9
:10574000404040C7C7C7C7404040C7C790C7C740D1
:105750004040C74040999940400000004090994027
:1057600000004040004090400000000000404840E1
:10577000000000004040484000004040404048C712
:10578000C7909090404048C7C7909090484040C70D
:10579000909990484040409099904848404040C778
:1057A00090484840C7C7C7C7C74840C7C7C7C7C74B
:1057B000C7C7C7C7C7C7C7C7C7C7C7C7C7C7C748F8
:1057C00048404040404040404040404040404040D1
:1057D0004040404040404040404040404040C7C7BB
:1057E00040404040C7C7C7C7C7C7C7C7C7C7C7C765
:1057F000C7C7C7C7C7C7C7C7C7C7C7C7C7C7C740C0
:10580000C7C74040404040C7C7C74040404040C76E
:10581000C7C74040404040C7C7C7C7404040C7C750
:10582000C7C7C7404040C7C7C7C7C7C7C7C7C7C79D
:10583000C7C7C7C7C7C7C7C7C7C7C7C7C7C7C7427D
:10584000454154444F574E53213A004845414C542A
:1058500048213A0050524553532053544152542149
:1058600021210054484520484947482053434F527E
:105870004520495321212100594F55522053434F70
:105880005245205741532121210047414D45204F8A
:105890005645522121210050524553532053544123
:1058A00052542121210011241FBECFEFD0E1DEBFD1
:1058B000CDBF14BE88E10FB6F894809360001092BB
:1058C00060000FBE11E0A0E0B1E0E2E9F0EA02C042
:1058D00005900D92AE30B107D9F71DE0AEE0B1E012
:1058E00001C01D92A130B107E1F70E9470378823F3
:1058F00011F40E948637F894EDE4FAE080E090E03D
:1059000020E802C02193019632E08C309307D4F353
:105910008DE49AE090935A0C8093590C10925B0C92
:10592000EEE5FCE080E090E003C0108201963A963C
:1059300084309105D4F390938D0C80938C0C91E07E
:1059400090937E0C90937F0C90937D0C109281002D
:1059500015BC8FEF87B984B988E98AB95C9A8CE065
:1059600081B98BEF82B910922A0A86E080932B0AC4
:10597000109285001092840083E0809389008DE866
:105980008093880089E08093810082E080936F009B
:1059900082E484BD17BC95BD83E88093B00010926B
:1059A000B3009093B10081E185B910923F0A109243
:1059B0002E0A10922F0A10923A0A1092390A109267
:1059C0003E0A10923D0A1092400A0E94583880E028
:1059D0000E943E3780FF03C084E00E943B370E9454
:1059E0006D3E78940E946C3E0E94784D0C94475016
:1059F0000C9400000DE00A95F1F70000ECEBF9E0E3
:105A0000C0E2D1E02091FD0C0027A081B181AC0F54
:105A1000BD1F1C911283021708F4102F1C9333969C
:105A200003950A3190F309E216E01A95F1F70A9509
:105A3000D9F7C0E2D1E000E8A02E662778E04FD287
:105A400037E23A95F1F70E94592D3BE03A95F1F78C
:105A500000C0AA9489F06395C895683029F0C8956C
:105A6000C895C8950000EBCF662700243EE1C30F20
:105A7000D01DC8950000E3CF35E03A95F1F700C09E
:105A80002ED211240E94813D11E000912D0A0127A0
:105A900000932D0A20912E0A002309F0212720933C
:105AA0002E0AE1E0E0932C0AE2E0E09336001124B4
:105AB0000895DE01679F00000091340A1091350AB5
:105AC00000581640000D111D18010CE313E0000DE5
:105AD000111D280130E41EE12D912A316FB660FAC4
