:100000000C94AA2E0C94242F0C94242F0C94242F9F
:100010000C94242F0C94242F0C94242F0C94242F14
:100020000C94242F0C94242F0C94242F0C94242F04
:100030000C94242F0C9422300C9462300C94242FB6
:100040000C94242F0C94242F0C94242F0C94242FE4
:100050000C94242F0C94242F0C94242F0C94242FD4
:100060000C94242F0C94242F0C94242F0C94242FC4
:100070005A5501200101003808000000000000006E
:100080000000000000000000000000000000000070
:100090008100450027FF24FF2A902B1C210C22FB06
:1000A000850084008903888D81096F0244424700DE
:1000B0004501B083B300B10125118A4F8B0335335D
:1000C0003833413346334F3357335C336133643312
:1000D000733376337933BD3300E008B9199100E00A
:1000E00008B9159F00E008B9080E191E00E008B90C
:1000F000F9014A9500E008B909F0F00100E008B9FB
:10010000099400E008B9199100E008B9159F00E0D2
:1001100008B9080E191E00E008B9F9014A9500E077
:1001200008B909F0F00100E008B9099400E008B945
:10013000199100E008B9159F00E008B9080E191ED2
:1001400000E008B9F9014A9500E008B909F0F001AA
:1001500000E008B9099400E008B9199100E008B975
:10016000159F00E008B9080E191E00E008B9F90152
:100170004A9500E008B909F0F00100E008B90994D7
:1001800000E008B9199100E008B9159F00E008B92E
:10019000080E191E00E008B9F9014A9500E008B9F7
:1001A00009F0F00100E008B9099400E008B91991DC
:1001B00000E008B9159F00E008B9080E191E00E01C
:1001C00008B9F9014A9500E008B909F0F00100E02A
:1001D00008B9099400E008B9199100E008B9159F21
:1001E00000E008B9080E191E00E008B9F9014A95A7
:1001F00000E008B909F0F00100E008B9099400E056
:1002000008B9199100E008B9159F00E008B9080E77
:10021000191E00E008B9F9014A9500E008B909F093
:10022000F00100E008B9099400E008B9199100E074
:1002300008B9159F0FEF08B9080E191E00E008B99C
:10024000F9014A9500E008B909F0F00100E008B9A9
:10025000099400E008B919910FEF08B9159F0FEF45
:1002600008B9080E191E0FEF08B9F9014A9500E008
:1002700008B909F0F00100E008B9099400E008B9F4
:1002800019910FEF08B9159F0FEF08B9080E191E45
:100290000FEF08B9F9014A9500E008B909F0F0013B
:1002A00000E008B9099400E008B9199100E008B924
:1002B000159F0FEF08B9080E191E00E008B9F901E3
:1002C0004A9500E008B909F0F00100E008B9099486
:1002D00000E008B9199100E008B9159F0FEF08B9BF
:1002E000080E191E00E008B9F9014A9500E008B9A6
:1002F00009F0F00100E008B9099400E008B919918B
:1003000000E008B9159F00E008B9080E191E00E0CA
:1003100008B9F9014A9500E008B909F0F00100E0D8
:1003200008B9099400E008B9199100E008B9159FCF
:100330000FEF08B9080E191E00E008B9F9014A9537
:1003400000E008B909F0F00100E008B9099400E004
:1003500008B9199100E008B9159F00E008B9080E26
:10036000191E00E008B9F9014A9500E008B909F042
:10037000F00100E008B909940FEF08B919910FEFE7
:1003800008B9159F00E008B9080E191E0FEF08B94B
:10039000F9014A950FEF08B909F0F00100E008B93A
:1003A00009940FEF08B919910FEF08B9159F00E0F4
:1003B00008B9080E191E0FEF08B9F9014A950FEF99
:1003C00008B909F0F00100E008B909940FEF08B985
:1003D000199100E008B9159F00E008B9080E191E30
:1003E0000FEF08B9F9014A9500E008B909F0F001EA
:1003F00000E008B9099400E008B9199100E008B9D3
:10040000159F00E008B9080E191E00E008B9F901AF
:100410004A9500E008B909F0F00100E008B9099434
:1004200000E008B9199100E008B9159F00E008B98B
:10043000080E191E00E008B9F9014A9500E008B954
:1004400009F0F00100E008B9099400E008B9199139
:1004500000E008B9159F00E008B9080E191E00E079
:1004600008B9F9014A9500E008B909F0F00100E087
:1004700008B9099400E008B9199100E008B9159F7E
:1004800000E008B9080E191E00E008B9F9014A9504
:1004900000E008B909F0F00100E008B9099400E0B3
:1004A00008B9199100E008B9159F00E008B9080ED5
:1004B000191E00E008B9F9014A9500E008B909F0F1
:1004C000F00100E008B9099400E008B9199100E0D2
:1004D00008B9159F00E008B9080E191E00E008B918
:1004E000F9014A9500E008B909F0F00100E008B907
:1004F000099400E008B919910FEF08B9159F00E0C1
:1005000008B9080E191E0FEF08B9F9014A9500E065
:1005100008B909F0F00100E008B909940FEF08B933
:1005200019910FEF08B9159F0FEF08B9080E191EA2
:100530000FEF08B9F9014A950FEF08B909F0F0017A
:1005400000E008B9099400E008B919910FEF08B963
:10055000159F00E008B9080E191E0FEF08B9F90140
:100560004A9500E008B909F0F00100E008B90994E3
:1005700000E008B919910FEF08B9159F00E008B91C
:10058000080E191E0FEF08B9F9014A9500E008B9E5
:1005900009F0F00100E008B909940FEF08B91991CA
:1005A0000FEF08B9159F0FEF08B9080E191E0FEFCE
:1005B00008B9F9014A950FEF08B909F0F00100E018
:1005C00008B9099400E008B919910FEF08B9159F0F
:1005D00000E008B9080E191E0FEF08B9F9014A9595
:1005E00000E008B909F0F00100E008B9099400E062
:1005F00008B9199100E008B9159F00E008B9080E84
:10060000191E00E008B9F9014A9500E008B909F09F
:10061000F00100E008B9099400E008B919910FEF62
:1006200008B9159F00E008B9080E191E00E008B9C6
:10063000F9014A9500E008B909F0F00100E008B9B5
:10064000099400E008B919910FEF08B9159F0FEF51
:1006500008B9080E191E0FEF08B9F9014A9500E014
:1006600008B909F0F00100E008B909940FEF08B9E2
:10067000199100E008B9159F00E008B9080E191E8D
:1006800000E008B9F9014A9500E008B909F0F00165
:1006900000E008B9099400E008B919910FEF08B912
:1006A000159F0FEF08B9080E191E00E008B9F901EF
:1006B0004A9500E008B909F0F00100E008B9099492
:1006C00000E008B9199100E008B9159F00E008B9E9
:1006D000080E191E0FEF08B9F9014A9500E008B994
:1006E00009F0F00100E008B909940FEF08B9199179
:1006F0000FEF08B9159F0FEF08B9080E191E00E09B
:1007000008B9F9014A9500E008B909F0F00100E0E4
:1007100008B9099400E008B9199100E008B9159FDB
:100720000FEF08B9080E191E00E008B9F9014A9543
:1007300000E008B909F0F00100E008B9099400E010
:1007400008B9199100E008B9159F00E008B9080E32
:10075000191E00E008B9F9014A9500E008B909F04E
:10076000F00100E008B909940FEF08B919910FEFF3
:1007700008B9159F00E008B9080E191E00E008B975
:10078000F9014A950FEF08B909F0F00100E008B946
:1007900009940FEF08B919910FEF08B9159F00E000
:1007A00008B9080E191E00E008B9F9014A950FEFC3
:1007B00008B909F0F00100E008B9099400E008B9AF
:1007C000199100E008B9159F00E008B9080E191E3C
:1007D0000FEF08B9F9014A9500E008B909F0F001F6
:1007E00000E008B9099400E008B9199100E008B9DF
:1007F000159F0FEF08B9080E191E00E008B9F9019E
:100800004A9500E008B909F0F00100E008B9099440
:1008100000E008B919910FEF08B9159F00E008B979
:10082000080E191E00E008B9F9014A9500E008B960
:1008300009F0F00100E008B909940FEF08B9199127
:1008400000E008B9159F00E008B9080E191E0FEF67
:1008500008B9F9014A950FEF08B909F0F00100E075
:1008600008B909940FEF08B9199100E008B9159F6C
:1008700000E008B9080E191E0FEF08B9F9014A95F2
:100880000FEF08B909F0F00100E008B9099400E0A1
:1008900008B9199100E008B9159F00E008B9080EE1
:1008A000191E00E008B9F9014A9500E008B909F0FD
:1008B000F00100E008B9099400E008B919910FEFC0
:1008C00008B9159F00E008B9080E191E00E008B924
:1008D000F9014A9500E008B909F0F00100E008B913
:1008E00009940FEF08B9199100E008B9159F0FEFAF
:1008F00008B9080E191E00E008B9F9014A9500E090
:1009000008B909F0F00100E008B909940FEF08B93F
:10091000199100E008B9159F0FEF08B9080E191ECC
:1009200000E008B9F9014A9500E008B909F0F001C2
:1009300000E008B9099400E008B919910FEF08B96F
:10094000159F00E008B9080E191E00E008B9F9016A
:100950004A9500E008B909F0F00100E008B90994EF
:100960000FEF08B9199100E008B9159F0FEF08B90A
:10097000080E191E00E008B9F9014A950FEF08B9F1
:1009800009F0F00100E008B909940FEF08B91991D6
:1009900000E008B9159F00E008B9080E191E0FEF16
:1009A00008B9F9014A9500E008B909F0F00100E042
:1009B00008B9099400E008B919910FEF08B9159F1B
:1009C0000FEF08B9080E191E00E008B9F9014A95A1
:1009D0000FEF08B909F0F00100E008B9099400E050
:1009E00008B9199100E008B9159F00E008B9080E90
:1009F000191E00E008B9F9014A9500E008B909F0AC
:100A0000F00100E008B9099400E008B919910FEF6E
:100A100008B9159F0FEF08B9080E191E00E008B9B4
:100A2000F9014A9500E008B909F0F00100E008B9C1
:100A3000099400E008B919910FEF08B9159F0FEF5D
:100A400008B9080E191E00E008B9F9014A9500E03E
:100A500008B909F0F00100E008B9099400E008B90C
:100A600019910FEF08B9159F00E008B9080E191E7B
:100A700000E008B9F9014A9500E008B909F0F00171
:100A800000E008B9099400E008B9199100E008B93C
:100A9000159F00E008B9080E191E00E008B9F90119
:100AA0004A9500E008B909F0F00100E008B909949E
:100AB00000E008B9199100E008B9159F00E008B9F5
:100AC000080E191E00E008B9F9014A9500E008B9BE
:100AD00009F0F00100E008B9099400E008B91991A3
:100AE00000E008B9159F00E008B9080E191E00E0E3
:100AF00008B9F9014A9500E008B909F0F00100E0F1
:100B000008B9099400E008B9199100E008B9159FE7
:100B100000E008B9080E191E00E008B9F9014A956D
:100B200000E008B909F0F00100E008B9099400E01C
:100B300008B9199100E008B9159F00E008B9080E3E
:100B4000191E00E008B9F9014A9500E008B909F05A
:100B5000F00100E008B9099400E008B9199100E03B
:100B600008B9159F0FEF08B9080E191E00E008B963
:100B7000F9014A9500E008B909F0F00100E008B970
:100B8000099400E008B919910FEF08B9159F00E02A
:100B900008B9080E191E00E008B9F9014A9500E0ED
:100BA00008B909F0F00100E008B9099400E008B9BB
:100BB00019910FEF08B9159F00E008B9080E191E2A
:100BC00000E008B9F9014A9500E008B909F0F00120
:100BD00000E008B9099400E008B919910FEF08B9CD
:100BE000159F00E008B9080E191E00E008B9F901C8
:100BF0004A9500E008B909F0F00100E008B909944D
:100C000000E008B919910FEF08B9159F00E008B985
:100C1000080E191E00E008B9F9014A9500E008B96C
:100C200009F0F00100E008B9099400E008B9199151
:100C30000FEF08B9159F00E008B9080E191E00E073
:100C400008B9F9014A9500E008B909F0F00100E09F
:100C500008B9099400E008B9199100E008B9159F96
:100C60000FEF08B9080E191E00E008B9F9014A95FE
:100C700000E008B909F0F00100E008B9099400E0CB
:100C800008B9199100E008B9159F00E008B9080EED
:100C9000191E00E008B9F9014A9500E008B909F009
:100CA000F00100E008B9099400E008B919910FEFCC
:100CB00008B9159F00E008B9080E191E00E008B930
:100CC000F9014A9500E008B909F0F00100E008B91F
:100CD000099400E008B9199100E008B9159F0FEFD9
:100CE00008B9080E191E00E008B9F9014A9500E09C
:100CF00008B909F0F00100E008B9099400E008B96A
:100D0000199100E008B9159F0FEF08B9080E191ED8
:100D100000E008B9F9014A9500E008B909F0F001CE
:100D200000E008B9099400E008B9199100E008B999
:100D3000159F0FEF08B9080E191E00E008B9F90158
:100D40004A9500E008B909F0F00100E008B90994FB
:100D500000E008B9199100E008B9159F0FEF08B934
:100D6000080E191E00E008B9F9014A9500E008B91B
:100D700009F0F00100E008B9099400E008B9199100
:100D800000E008B9159F0FEF08B9080E191E00E022
:100D900008B9F9014A9500E008B909F0F00100E04E
:100DA00008B9099400E008B919910FEF08B9159F27
:100DB00000E008B9080E191E00E008B9F9014A95CB
:100DC00000E008B909F0F00100E008B9099400E07A
:100DD00008B9199100E008B9159F00E008B9080E9C
:100DE000191E00E008B9F9014A9500E008B909F0B8
:100DF000F00100E008B9099400E008B9199100E099
:100E000008B9159F00E008B9080E191E00E008B9DE
:100E1000F9014A9500E008B909F0F00100E008B9CD
:100E2000099400E008B919910FEF08B9159F00E087
:100E300008B9080E191E0FEF08B9F9014A9500E02C
:100E400008B909F0F00100E008B9099400E008B918
:100E500019910FEF08B9159F0FEF08B9080E191E69
:100E60000FEF08B9F9014A9500E008B909F0F0015F
:100E700000E008B909940FEF08B919910FEF08B90C
:100E8000159F0FEF08B9080E191E0FEF08B9F901E9
:100E90004A950FEF08B909F0F00100E008B909948C
:100EA00000E008B919910FEF08B9159F0FEF08B9C5
:100EB000080E191E0FEF08B9F9014A9500E008B9AC
:100EC00009F0F00100E008B9099400E008B91991AF
:100ED0000FEF08B9159F00E008B9080E191E0FEFB3
:100EE00008B9F9014A9500E008B909F0F00100E0FD
:100EF00008B9099400E008B9199100E008B9159FF4
:100F000000E008B9080E191E00E008B9F9014A9579
:100F100000E008B909F0F00100E008B9099400E028
:100F200008B9199100E008B9159F00E008B9080E4A
:100F3000191E00E008B9F9014A9500E008B909F066
:100F4000F00100E008B9099400E008B9199100E047
:100F500008B9159F00E008B9080E191E00E008B98D
:100F6000F9014A9500E008B909F0F00100E008B97C
:100F7000099400E008B9199100E008B9159F0FEF36
:100F800008B9080E191E00E008B9F9014A9500E0F9
:100F900008B909F0F00100E008B9099400E008B9C7
:100FA000199100E008B9159F0FEF08B9080E191E36
:100FB00000E008B9F9014A9500E008B909F0F0012C
:100FC00000E008B909940FEF08B919910FEF08B9BB
:100FD000159F0FEF08B9080E191E0FEF08B9F90198
:100FE0004A950FEF08B909F0F00100E008B909943B
:100FF00000E008B9199100E008B9159F0FEF08B992
:10100000080E191E00E008B9F9014A9500E008B978
:1010100009F0F00100E008B9099400E008B919915D
:1010200000E008B9159F0FEF08B9080E191E00E07F
:1010300008B9F9014A9500E008B909F0F00100E0AB
:1010400008B9099400E008B9199100E008B9159FA2
:1010500000E008B9080E191E00E008B9F9014A9528
:1010600000E008B909F0F00100E008B9099400E0D7
:1010700008B9199100E008B9159F00E008B9080EF9
:10108000191E00E008B9F9014A9500E008B909F015
:10109000F00100E008B9099400E008B9199100E0F6
:1010A00008B9159F00E008B9080E191E00E008B93C
:1010B000F9014A9500E008B909F0F00100E008B92B
:1010C000099400E008B9199100E008B9159F00E003
:1010D00008B9080E191E00E008B9F9014A9500E0A8
:1010E00008B909F0F00100E008B9099400E008B976
:1010F000199100E008B9159F00E008B9080E191E03
:1011000000E008B9F9014A9500E008B909F0F001DA
:1011100000E008B9099400E008B9199100E008B9A5
:10112000159F00E008B9080E191E00E008B9F90182
:101130004A9500E008B909F0F00100E008B9099407
:1011400000E008B9199100E008B9159F00E008B95E
:10115000080E191E00E008B9F9014A9500E008B927
:1011600009F0F00100E008B9099400E008B919910C
:101170000FEF08B9159F0FEF08B9080E191E00E010
:1011800008B9F9014A9500E008B909F0F00100E05A
:1011900008B9099400E008B919910FEF08B9159F33
:1011A0000FEF08B9080E191E00E008B9F9014A95B9
:1011B00000E008B909F0F00100E008B9099400E086
:1011C00008B919910FEF08B9159F00E008B9080E8A
:1011D000191E00E008B9F9014A9500E008B909F0C4
:1011E000F00100E008B9099400E008B9199100E0A5
:1011F00008B9159F00E008B9080E191E00E008B9EB
:10120000F9014A9500E008B909F0F00100E008B9D9
:10121000099400E008B9199100E008B9159F00E0B1
:1012200008B9080E191E00E008B9F9014A9500E056
:1012300008B909F0F00100E008B9099400E008B924
:10124000199100E008B9159F00E008B9080E191EB1
:1012500000E008B9F9014A9500E008B909F0F00189
:1012600000E008B909940FEF08B919910FEF08B918
:10127000159F0FEF08B9080E191E0FEF08B9F901F5
:101280004A950FEF08B909F0F00100E008B9099498
:1012900000E008B9199100E008B9159F00E008B90D
:1012A000080E191E00E008B9F9014A9500E008B9D6
:1012B00009F0F00100E008B9099400E008B91991BB
:1012C00000E008B9159F00E008B9080E191E00E0FB
:1012D00008B9F9014A9500E008B909F0F00100E009
:1012E00008B9099400E008B9199100E008B9159F00
:1012F00000E008B9080E191E00E008B9F9014A9586
:1013000000E008B909F0F00100E008B9099400E034
:1013100008B9199100E008B9159F00E008B9080E56
:10132000191E00E008B9F9014A9500E008B909F072
:10133000F00100E008B9099400E008B9199100E053
:1013400008B9159F00E008B9080E191E00E008B999
:10135000F9014A9500E008B909F0F00100E008B988
:10136000099400E008B9199100E008B9159F00E060
:1013700008B9080E191E00E008B9F9014A9500E005
:1013800008B909F0F00100E008B9099400E008B9D3
:10139000199100E008B9159F00E008B9080E191E60
:1013A00000E008B9F9014A9500E008B909F0F00138
:1013B00000E008B9099400E008B9199100E008B903
:1013C000159F00E008B9080E191E00E008B9F901E0
:1013D0004A9500E008B909F0F00100E008B9099465
:1013E00000E008B9199100E008B9159F00E008B9BC
:1013F000080E191E00E008B9F9014A9500E008B985
:1014000009F0F00100E008B9099400E008B9199169
:101410000FEF08B9159F0FEF08B9080E191E00E06D
:1014200008B9F9014A9500E008B909F0F00100E0B7
:1014300008B9099400E008B919910FEF08B9159F90
:101440000FEF08B9080E191E00E008B9F9014A9516
:1014500000E008B909F0F00100E008B9099400E0E3
:1014600008B9199100E008B9159F00E008B9080E05
:10147000191E00E008B9F9014A9500E008B909F021
:10148000F00100E008B9099400E008B9199100E002
:1014900008B9159F00E008B9080E191E00E008B948
:1014A000F9014A9500E008B909F0F00100E008B937
:1014B000099400E008B9199100E008B9159F00E00F
:1014C00008B9080E191E00E008B9F9014A950FEF96
:1014D00008B909F0F00100E008B9099400E008B982
:1014E000199100E008B9159F00E008B9080E191E0F
:1014F0000FEF08B9F9014A9500E008B909F0F001C9
:1015000000E008B9099400E008B9199100E008B9B1
:10151000159F0FEF08B9080E191E00E008B9F90170
:101520004A9500E008B909F0F00100E008B9099413
:1015300000E008B919910FEF08B9159F00E008B94C
:10154000080E191E00E008B9F9014A9500E008B933
:1015500009F0F00100E008B909940FEF08B91991FA
:1015600000E008B9159F00E008B9080E191E00E058
:1015700008B9F9014A9500E008B909F0F00100E066
:1015800008B9099400E008B9199100E008B9159F5D
:1015900000E008B9080E191E00E008B9F9014A95E3
:1015A00000E008B909F0F00100E008B9099400E092
:1015B00008B9199100E008B9159F00E008B9080EB4
:1015C000191E00E008B9F9014A9500E008B909F0D0
:1015D000F00100E008B9099400E008B919910FE2A0
:1015E00008B9159F0FE208B9080E191E0FE208B9D5
:1015F000F9014A9500E008B909F0F00100E008B9E6
:1016000009940FE208B9199100E008B9159F00E0AC
:1016100008B9080E191E00E008B9F9014A950FE251
:1016200008B909F0F00100E008B909940FE208B91F
:10163000199100E008B9159F00E008B9080E191EBD
:101640000FE208B9F9014A950FE208B909F0F00173
:1016500000E008B909940FE208B9199100E008B94F
:10166000159F0FE208B9080E191E00E008B9F9012C
:101670004A950FE208B909F0F00100E008B90994B1
:101680000FE208B919910FE208B9159F00E008B9F7
:10169000080E191E00E008B9F9014A950FE208B9D1
:1016A00009F0F00100E008B909940FE208B91991B6
:1016B00000E008B9159F00E008B9080E191E00E007
:1016C00008B9F9014A950FE208B909F0F00100E004
:1016D00008B9099400E008B919910FE208B9159FFB
:1016E0000FE208B9080E191E0FE208B9F9014A9570
:1016F00000E008B909F0F00100E008B9099400E041
:1017000008B9199100E008B9159F00E008B9080E62
:10171000191E00E008B9F9014A9500E008B909F07E
:10172000F00100E008B9099400E008B9199100E05F
:1017300008B9159F0FE208B9080E191E00E008B994
:10174000F9014A9500E008B909F0F00100E008B994
:10175000099400E008B919910FE208B9159F0FE24A
:1017600008B9080E191E00E008B9F9014A9500E011
:1017700008B909F0F00100E008B9099400E008B9DF
:10178000199100E008B9159F0FE208B9080E191E5B
:1017900000E008B9F9014A9500E008B909F0F00144
:1017A00000E008B9099400E008B9199100E008B90F
:1017B000159F0FE208B9080E191E00E008B9F901DB
:1017C0004A9500E008B909F0F00100E008B9099471
:1017D00000E008B9199100E008B9159F0FE208B9B7
:1017E000080E191E00E008B9F9014A9500E008B991
:1017F00009F0F00100E008B9099400E008B9199176
:1018000000E008B9159F0FE208B9080E191E00E0A4
:1018100008B9F9014A9500E008B909F0F00100E0C3
:1018200008B9099400E008B919910FE208B9159FA9
:101830000FE208B9080E191E0FE208B9F9014A951E
:1018400000E008B909F0F00100E008B9099400E0EF
:1018500008B9199100E008B9159F00E008B9080E11
:10186000191E00E008B9F9014A9500E008B909F02D
:10187000F00100E008B9099400E008B919910FE2FD
:1018800008B9159F0FE208B9080E191E0FE208B932
:10189000F9014A9500E008B909F0F00100E008B943
:1018A00009940FE208B9199100E008B9159F00E00A
:1018B00008B9080E191E00E008B9F9014A950FE2AF
:1018C00008B909F0F00100E008B9099400E008B98E
:1018D000199100E008B9159F00E008B9080E191E1B
:1018E00000E008B9F9014A950FE208B909F0F001E2
:1018F00000E008B9099400E008B9199100E008B9BE
:10190000159F0FE208B9080E191E0FE208B9F90178
:101910004A9500E008B909F0F00100E008B909941F
:1019200000E008B919910FE208B9159F00E008B965
:10193000080E191E00E008B9F9014A9500E008B93F
:1019400009F0F00100E008B909940FE208B9199113
:1019500000E008B9159F00E008B9080E191E00E064
:1019600008B9F9014A9500E008B909F0F00100E072
:1019700008B909940FE208B919910FE208B9159F47
:101980000FE208B9080E191E0FE208B9F9014A95CD
:101990000FE208B909F0F00100E008B9099400E08D
:1019A00008B9199100E008B9159F00E008B9080EC0
:1019B000191E00E008B9F9014A9500E008B909F0DC
:1019C000F00100E008B9099400E008B919910FE2AC
:1019D00008B9159F0FE208B9080E191E0FE208B9E1
:1019E000F9014A9500E008B909F0F00100E008B9F2
:1019F00009940FE208B9199100E008B9159F00E0B9
:101A000008B9080E191E00E008B9F9014A950FE25D
:101A100008B909F0F00100E008B9099400E008B93C
:101A2000199100E008B9159F00E008B9080E191EC9
:101A300000E008B9F9014A950FE208B909F0F00190
:101A400000E008B9099400E008B919910FE208B95B
:101A5000159F0FE208B9080E191E0FE208B9F90127
:101A60004A9500E008B909F0F00100E008B90994CE
:101A700000E008B9199100E008B9159F00E008B925
:101A8000080E191E00E008B9F9014A950FE208B9DD
:101A900009F0F00100E008B909940FE208B91991C2
:101AA00000E008B9159F00E008B9080E191E00E013
:101AB00008B9F9014A950FE208B909F0F00100E010
:101AC00008B9099400E008B919910FE208B9159F07
:101AD0000FE208B9080E191E0FE208B9F9014A957C
:101AE00000E008B909F0F00100E008B9099400E04D
:101AF00008B9199100E008B9159F00E008B9080E6F
:101B0000191E00E008B9F9014A9500E008B909F08A
:101B1000F00100E008B9099400E008B9199100E06B
:101B200008B9159F00E008B9080E191E0FE208B9A0
:101B3000F9014A9500E008B909F0F00100E008B9A0
:101B4000099400E008B9199100E008B9159F0FE267
:101B500008B9080E191E0FE208B9F9014A9500E00C
:101B600008B909F0F00100E008B9099400E008B9EB
:101B700019910FE208B9159F00E008B9080E191E67
:101B80000FE208B9F9014A9500E008B909F0F0013F
:101B900000E008B909940FE208B9199100E008B90A
:101BA000159F00E008B9080E191E0FE208B9F901E7
:101BB0004A9500E008B909F0F00100E008B909947D
:101BC0000FE208B919910FE208B9159F0FE208B9A1
:101BD000080E191E0FE208B9F9014A950FE208B97B
:101BE00009F0F00100E008B9099400E008B9199182
:101BF00000E008B9159F00E008B9080E191E0FE2B1
:101C000008B9F9014A9500E008B909F0F00100E0CF
:101C100008B9099400E008B9199100E008B9159FC6
:101C200000E008B9080E191E0FE208B9F9014A953B
:101C300000E008B909F0F00100E008B9099400E0FB
:101C400008B9199100E008B9159F00E008B9080E1D
:101C5000191E00E008B9F9014A9500E008B909F039
:101C6000F00100E008B909940FE208B919910FE2F8
:101C700008B9159F0FE208B9080E191E0FE208B93E
:101C8000F9014A950FE208B909F0F00100E008B93E
:101C900009940FE208B9199100E008B9159F00E016
:101CA00008B9080E191E00E008B9F9014A9500E0CC
:101CB00008B909F0F00100E008B909940FE208B989
:101CC000199100E008B9159F00E008B9080E191E27
:101CD00000E008B9F9014A9500E008B909F0F001FF
:101CE00000E008B909940FE208B919910FE208B9A8
:101CF000159F0FE208B9080E191E0FE208B9F90185
:101D00004A9500E008B909F0F00100E008B909942B
:101D100000E008B9199100E008B9159F00E008B982
:101D2000080E191E00E008B9F9014A950FE208B93A
:101D300009F0F00100E008B909940FE208B919911F
:101D400000E008B9159F00E008B9080E191E00E070
:101D500008B9F9014A950FE208B909F0F00100E06D
:101D600008B9099400E008B919910FE208B9159F64
:101D70000FE208B9080E191E0FE208B9F9014A95D9
:101D800000E008B909F0F00100E008B9099400E0AA
:101D900008B9199100E008B9159F00E008B9080ECC
:101DA000191E00E008B9F9014A9500E008B909F0E8
:101DB000F00100E008B9099400E008B9199100E0C9
:101DC00008B9159F0FE208B9080E191E0FE208B9ED
:101DD000F9014A9500E008B909F0F00100E008B9FE
:101DE000099400E008B919910FE208B9159F00E0C5
:101DF00008B9080E191E00E008B9F9014A9500E07B
:101E000008B909F0F00100E008B909940FE208B937
:101E1000199100E008B9159F00E008B9080E191ED5
:101E200000E008B9F9014A9500E008B909F0F001AD
:101E300000E008B909940FE208B919910FE208B956
:101E4000159F0FE208B9080E191E0FE208B9F90133
:101E50004A9500E008B909F0F00100E008B90994DA
:101E60000FE208B9199100E008B9159F00E008B920
:101E7000080E191E00E008B9F9014A950FE208B9E9
:101E800009F0F00100E008B909940FE208B91991CE
:101E900000E008B9159F00E008B9080E191E00E01F
:101EA00008B9F9014A950FE208B909F0F00100E01C
:101EB00008B9099400E008B919910FE208B9159F13
:101EC0000FE208B9080E191E0FE208B9F9014A9588
:101ED00000E008B909F0F00100E008B9099400E059
:101EE00008B9199100E008B9159F00E008B9080E7B
:101EF000191E00E008B9F9014A9500E008B909F097
:101F0000F00100E008B909940FE208B919910FE255
:101F100008B9159F0FE208B9080E191E0FE208B99B
:101F2000F9014A950FE208B909F0F00100E008B99B
:101F3000099400E008B9199100E008B9159F00E084
:101F400008B9080E191E00E008B9F9014A950FE218
:101F500008B909F0F00100E008B9099400E008B9F7
:101F6000199100E008B9159F00E008B9080E191E84
:101F70000FE208B9F9014A9500E008B909F0F0014B
:101F800000E008B9099400E008B9199100E008B927
:101F9000159F0FE208B9080E191E00E008B9F901F3
:101FA0004A9500E008B909F0F00100E008B9099489
:101FB00000E008B919910FE208B9159F00E008B9CF
:101FC000080E191E00E008B9F9014A9500E008B9A9
:101FD00009F0F00100E008B9099400E008B919918E
:101FE0000FE208B9159F00E008B9080E191E00E0BD
:101FF00008B9F9014A9500E008B909F0F00100E0DC
:1020000008B9099400E008B919910FE208B9159FC1
:1020100000E008B9080E191E00E008B9F9014A9558
:1020200000E008B909F0F00100E008B9099400E007
:1020300008B9199100E008B9159F00E008B9080E29
:10204000191E00E008B9F9014A9500E008B909F045
:10205000F00100E008B9099400E008B919910FE215
:1020600008B9159F0FE208B9080E191E0FE208B94A
:10207000F9014A9500E008B909F0F00100E008B95B
:1020800009940FE208B9199100E008B9159F00E022
:1020900008B9080E191E00E008B9F9014A950FE2C7
:1020A00008B909F0F00100E008B909940FE208B995
:1020B000199100E008B9159F00E008B9080E191E33
:1020C00000E008B9F9014A950FE208B909F0F001FA
:1020D00000E008B9099400E008B919910FE208B9C5
:1020E000159F0FE208B9080E191E0FE208B9F90191
:1020F0004A9500E008B909F0F00100E008B9099438
:102100000FE208B9199100E008B9159F00E008B97D
:10211000080E191E00E008B9F9014A950FE208B946
:1021200009F0F00100E008B909940FE208B919912B
:1021300000E008B9159F00E008B9080E191E00E07C
:1021400008B9F9014A950FE208B909F0F00100E079
:1021500008B9099400E008B919910FE208B9159F70
:102160000FE208B9080E191E0FE208B9F9014A95E5
:1021700000E008B909F0F00100E008B9099400E0B6
:1021800008B9199100E008B9159F00E008B9080ED8
:10219000191E00E008B9F9014A9500E008B909F0F4
:1021A000F00100E008B9099400E008B919910FE2C4
:1021B00008B9159F0FE208B9080E191E0FE208B9F9
:1021C000F9014A9500E008B909F0F00100E008B90A
:1021D00009940FE208B9199100E008B9159F00E0D1
:1021E00008B9080E191E00E008B9F9014A950FE276
:1021F00008B909F0F00100E008B909940FE208B944
:10220000199100E008B9159F00E008B9080E191EE1
:1022100000E008B9F9014A950FE208B909F0F001A8
:1022200000E008B9099400E008B919910FE208B973
:10223000159F0FE208B9080E191E0FE208B9F9013F
:102240004A950FE208B909F0F00100E008B90994D5
:1022500000E008B9199100E008B9159F00E008B93D
:10226000080E191E00E008B9F9014A950FE208B9F5
:1022700009F0F00100E008B9099400E008B91991EB
:1022800000E008B9159F00E008B9080E191E0FE21A
:1022900008B9F9014A9500E008B909F0F00100E039
:1022A00008B9099400E008B919910FE208B9159F1F
:1022B0000FE208B9080E191E00E008B9F9014A95A5
:1022C00000E008B909F0F00100E008B9099400E065
:1022D00008B9199100E008B9159F00E008B9080E87
:1022E000191E00E008B9F9014A9500E008B909F0A3
:1022F000F00100E008B9099400E008B9199100E084
:1023000008B9159F00E008B9080E191E00E008B9C9
:10231000F9014A9500E008B909F0F00100E008B9B8
:10232000099400E008B9199100E008B9159F00E090
:1023300008B9080E191E00E008B9F9014A9500E035
:1023400008B909F0F00100E008B9099400E008B903
:1023500019910FEF08B9159F0FEF08B9080E191E54
:1023600000E008B9F9014A9500E008B909F0F00168
:1023700000E008B9099400E008B919910FEF08B915
:10238000159F0FEF08B9080E191E00E008B9F901F2
:102390004A9500E008B909F0F00100E008B9099495
:1023A00000E008B9199100E008B9159F00E008B9EC
:1023B000080E191E00E008B9F9014A9500E008B9B5
:1023C00009F0F00100E008B9099400E008B919919A
:1023D0000FEF08B9159F0FEF08B9080E191E00E09E
:1023E00008B9F9014A9500E008B909F0F00100E0E8
:1023F00008B9099400E008B919910FEF08B9159FC1
:102400000FEF08B9080E191E00E008B9F9014A9546
:1024100000E008B909F0F00100E008B9099400E013
:1024200008B9199100E008B9159F00E008B9080E35
:10243000191E00E008B9F9014A9500E008B909F051
:10244000F00100E008B9099400E008B9199100E032
:1024500008B9159F00E008B9080E191E00E008B978
:10246000F9014A9500E008B909F0F00100E008B967
:10247000099400E008B9199100E008B9159F00E03F
:1024800008B9080E191E00E008B9F9014A9500E0E4
:1024900008B909F0F00100E008B9099400E008B9B2
:1024A00019910FEF08B9159F0FEF08B9080E191E03
:1024B00000E008B9F9014A9500E008B909F0F00117
:1024C00000E008B9099400E008B919910FEF08B9C4
:1024D000159F0FEF08B9080E191E00E008B9F901A1
:1024E0004A9500E008B909F0F00100E008B9099444
:1024F00000E008B9199100E008B9159F00E008B99B
:10250000080E191E00E008B9F9014A9500E008B963
:1025100009F0F00100E008B9099400E008B9199148
:102520000FEF08B9159F0FEF08B9080E191E00E04C
:1025300008B9F9014A9500E008B909F0F00100E096
:1025400008B9099400E008B919910FEF08B9159F6F
:102550000FEF08B9080E191E00E008B9F9014A95F5
:1025600000E008B909F0F00100E008B9099400E0C2
:1025700008B919910FEF08B9159F00E008B9080EC6
:10258000191E00E008B9F9014A9500E008B909F000
:10259000F00100E008B9099400E008B9199100E0E1
:1025A00008B9159F00E008B9080E191E00E008B927
:1025B000F9014A950FEF08B909F0F00100E008B9F8
:1025C000099400E008B9199100E008B9159F00E0EE
:1025D00008B9080E191E0FEF08B9F9014A9500E075
:1025E00008B909F0F00100E008B9099400E008B961
:1025F000199100E008B9159F0FEF08B9080E191ED0
:1026000000E008B9F9014A9500E008B909F0F001C5
:1026100000E008B9099400E008B919910FEF08B972
:10262000159F00E008B9080E191E00E008B9F9016D
:102630004A9500E008B909F0F00100E008B90994F2
:1026400000E008B9199100E008B9159F0FEF08B92B
:10265000080E191E00E008B9F9014A9500E008B912
:1026600009F0F00100E008B9099400E008B91991F7
:1026700000E008B9159F00E008B9080E191E0FEF19
:1026800008B9F9014A9500E008B909F0F00100E045
:1026900008B9099400E008B9199100E008B9159F3C
:1026A00000E008B9080E191E00E008B9F9014A95C2
:1026B0000FEF08B909F0F00100E008B9099400E053
:1026C00008B9199100E008B9159F00E008B9080E93
:1026D000191E00E008B9F9014A9500E008B909F0AF
:1026E000F00100E008B9099400E008B9199100E090
:1026F00008B9159F00E008B9080E191E00E008B9D6
:10270000F9014A9500E008B909F0F00100E008B9C4
:10271000099400E008B9199100E008B9159F00E09C
:1027200008B9080E191E00E008B9F9014A9500E041
:1027300008B909F0F00100E008B909940FEF08B9F1
:1027400019910FEF08B9159F0FEF08B9080E191E60
:102750000FEF08B9F9014A950FEF08B909F0F00138
:1027600000E008B9099400E008B9199100E008B93F
:10277000159F00E008B9080E191E00E008B9F9011C
:102780004A9500E008B909F0F00100E008B90994A1
:1027900000E008B9199100E008B9159F00E008B9F8
:1027A000080E191E00E008B9F9014A9500E008B9C1
:1027B00009F0F00100E008B909940FEF08B9199188
:1027C0000FEF08B9159F0FEF08B9080E191E0FEF8C
:1027D00008B9F9014A950FEF08B909F0F00100E0D6
:1027E00008B9099400E008B9199100E008B9159FEB
:1027F00000E008B9080E191E00E008B9F9014A9571
:1028000000E008B909F0F00100E008B9099400E01F
:1028100008B9199100E008B9159F00E008B9080E41
:10282000191E00E008B9F9014A9500E008B909F05D
:10283000F00100E008B9099400E008B919910FEF20
:1028400008B9159F00E008B9080E191E00E008B984
:10285000F9014A9500E008B909F0F00100E008B973
:10286000099400E008B9199100E008B9159F0FEF2D
:1028700008B9080E191E00E008B9F9014A9500E0F0
:1028800008B909F0F00100E008B9099400E008B9BE
:10289000199100E008B9159F00E008B9080E191E4B
:1028A0000FEF08B9F9014A9500E008B909F0F00105
:1028B00000E008B9099400E008B9199100E008B9EE
:1028C000159F00E008B9080E191E00E008B9F901CB
:1028D0004A950FEF08B909F0F00100E008B9099432
:1028E00000E008B9199100E008B9159F00E008B9A7
:1028F000080E191E0FEF08B9F9014A9500E008B952
:1029000009F0F00100E008B9099400E008B9199154
:1029100000E008B9159F0FEF08B9080E191E00E076
:1029200008B9F9014A9500E008B909F0F00100E0A2
:1029300008B9099400E008B919910FEF08B9159F7B
:1029400000E008B9080E191E00E008B9F9014A951F
:1029500000E008B909F0F00100E008B9099400E0CE
:1029600008B9199100E008B9159F00E008B9080EF0
:10297000191E00E008B9F9014A9500E008B909F00C
:10298000F00100E008B9099400E008B919910FEFCF
:1029900008B9159F0FEF08B9080E191E0FEF08B9F7
:1029A000F9014A9500E008B909F0F00100E008B922
:1029B00009940FEF08B9199100E008B9159F00E0DC
:1029C00008B9080E191E00E008B9F9014A950FEF81
:1029D00008B909F0F00100E008B9099400E008B96D
:1029E000199100E008B9159F00E008B9080E191EFA
:1029F00000E008B9F9014A950FEF08B909F0F001B4
:102A000000E008B9099400E008B9199100E008B99C
:102A1000159F0FEF08B9080E191E0FEF08B9F9013D
:102A20004A9500E008B909F0F00100E008B90994FE
:102A300000E008B9199100E008B9159F0FEF08B937
:102A4000080E191E00E008B9F9014A9500E008B91E
:102A500009F0F00100E008B9099400E008B9199103
:102A600000E008B9159F00E008B9080E191E00E043
:102A700008B9F9014A9500E008B909F0F00100E051
:102A800008B9099400E008B9199100E008B9159F48
:102A90000FEF08B9080E191E00E008B9F9014A95B0
:102AA00000E008B909F0F00100E008B9099400E07D
:102AB00008B9199100E008B9159F00E008B9080E9F
:102AC000191E00E008B9F9014A9500E008B909F0BB
:102AD000F00100E008B9099400E008B919910FEF7E
:102AE00008B9159F0FEF08B9080E191E0FEF08B9A6
:102AF000F9014A9500E008B909F0F00100E008B9D1
:102B000009940FEF08B9199100E008B9159F00E08A
:102B100008B9080E191E00E008B9F9014A950FEF2F
:102B200008B909F0F00100E008B909940FEF08B9FD
:102B3000199100E008B9159F0FEF08B9080E191E8A
:102B40000FEF08B9F9014A950FEF08B909F0F00144
:102B500000E008B909940FEF08B9199100E008B92D
:102B6000159F0FEF08B9080E191E00E008B9F9010A
:102B70004A950FEF08B909F0F00100E008B909948F
:102B80000FEF08B9199100E008B9159F0FEF08B9C8
:102B9000080E191E0FEF08B9F9014A950FEF08B991
:102BA00009F0F00100E008B909940FEF08B9199194
:102BB00000E008B9159F00E008B9080E191E00E0F2
:102BC00008B9F9014A9500E008B909F0F00100E000
:102BD00008B9099400E008B919910FEF08B9159FD9
:102BE0000FEF08B9080E191E0FEF08B9F9014A9541
:102BF00000E008B909F0F00100E008B9099400E02C
:102C000008B9199100E008B9159F00E008B9080E4D
:102C1000191E00E008B9F9014A9500E008B909F069
:102C2000F00100E008B9099400E008B919910FEF2C
:102C300008B9159F0FEF08B9080E191E0FEF08B954
:102C4000F9014A9500E008B909F0F00100E008B97F
:102C500009940FEF08B9199100E008B9159F00E039
:102C600008B9080E191E00E008B9F9014A950FEFDE
:102C700008B909F0F00100E008B909940FEF08B9AC
:102C8000199100E008B9159F00E008B9080E191E57
:102C900000E008B9F9014A950FEF08B909F0F00111
:102CA00000E008B909940FEF08B9199100E008B9DC
:102CB000159F00E008B9080E191E00E008B9F901D7
:102CC0004A950FEF08B909F0F00100E008B909943E
:102CD0000FEF08B919910FEF08B9159F0FEF08B959
:102CE000080E191E0FEF08B9F9014A950FEF08B940
:102CF00009F0F00100E008B909940FEF08B9199143
:102D000000E008B9159F00E008B9080E191E00E0A0
:102D100008B9F9014A950FEF08B909F0F00100E090
:102D200008B909940FEF08B9199100E008B9159F87
:102D300000E008B9080E191E00E008B9F9014A952B
:102D40000FEF08B909F0F00100E008B9099400E0BC
:102D500008B9199100E008B9159F00E008B9080EFC
:102D6000191E00E008B9F9014A9500E008B909F018
:102D7000F00100E008B909940FEF08B919910FEFBD
:102D800008B9159F0FEF08B9080E191E0FEF08B903
:102D9000F9014A9500E008B909F0F00100E008B92E
:102DA00009940FEF08B9199100E008B9159F00E0E8
:102DB00008B9080E191E00E008B9F9014A950FEF8D
:102DC00008B909F0F00100E008B909940FEF08B95B
:102DD000199100E008B9159F00E008B9080E191E06
:102DE00000E008B9F9014A950FEF08B909F0F001C0
:102DF00000E008B909940FEF08B919910FEF08B96D
:102E0000159F0FEF08B9080E191E0FEF08B9F90149
:102E10004A9500E008B909F0F00100E008B909940A
:102E20000FEF08B9199100E008B9159F00E008B943
:102E3000080E191E00E008B9F9014A950FEF08B90C
:102E400009F0F00100E008B909940FEF08B91991F1
:102E500000E008B9159F00E008B9080E191E00E04F
:102E600008B9F9014A950FEF08B909F0F00100E03F
:102E700008B909940FEF08B919910FEF08B9159F18
:102E80000FEF08B9080E191E0FEF08B9F9014A959E
:102E900000E008B909F0F00100E008B9099400E089
:102EA00008B9199100E008B9159F00E008B9080EAB
:102EB000191E00E008B9F9014A9500E008B909F0C7
:102EC000F00100E008B9099400E008B919910FEF8A
:102ED00008B9159F0FEF08B9080E191E0FEF08B9B2
:102EE000F9014A9500E008B909F0F00100E008B9DD
:102EF00009940FEF08B9199100E008B9159F00E097
:102F000008B9080E191E00E008B9F9014A950FEF3B
:102F100008B909F0F00100E008B909940FEF08B909
:102F2000199100E008B9159F00E008B9080E191EB4
:102F300000E008B9F9014A9500E008B909F0F0018C
:102F400000E008B909940FEF08B9199100E008B939
:102F5000159F00E008B9080E191E00E008B9F90134
:102F60004A9500E008B909F0F00100E008B90994B9
:102F70000FEF08B9199100E008B9159F00E008B9F2
:102F8000080E191E00E008B9F9014A9500E008B9D9
:102F900009F0F00100E008B909940FEF08B91991A0
:102FA00000E008B9159F00E008B9080E191E00E0FE
:102FB00008B9F9014A950FEF08B909F0F00100E0EE
:102FC00008B9099400E008B919910FEF08B9159FE5
:102FD0000FEF08B9080E191E0FEF08B9F9014A954D
:102FE00000E008B909F0F00100E008B9099400E038
:102FF00008B9199100E008B9159F00E008B9080E5A
:10300000191E00E008B9F9014A9500E008B909F075
:10301000F00100E008B909940FEF08B919910FEF1A
:1030200008B9159F0FEF08B9080E191E0FEF08B960
:10303000F9014A9500E008B909F0F00100E008B98B
:1030400009940FEF08B9199100E008B9159F00E045
:1030500008B9080E191E00E008B9F9014A950FEFEA
:1030600008B909F0F00100E008B909940FEF08B9B8
:10307000199100E008B9159F00E008B9080E191E63
:1030800000E008B9F9014A950FEF08B909F0F0011D
:1030900000E008B909940FEF08B9199100E008B9E8
:1030A000159F00E008B9080E191E00E008B9F901E3
:1030B0004A950FEF08B909F0F00100E008B909944A
:1030C0000FEF08B9199100E008B9159F00E008B9A1
:1030D000080E191E00E008B9F9014A950FEF08B96A
:1030E00009F0F00100E008B909940FEF08B919914F
:1030F00000E008B9159F00E008B9080E191E00E0AD
:1031000008B9F9014A950FEF08B909F0F00100E09C
:1031100008B909940FEF08B919910FEF08B9159F75
:103120000FEF08B9080E191E0FEF08B9F9014A95FB
:1031300000E008B909F0F00100E008B9099400E0E6
:1031400008B9199100E008B9159F00E008B9080E08
:10315000191E00E008B9F9014A9500E008B909F024
:10316000F00100E008B909940FEF08B919910FEFC9
:1031700008B9159F0FEF08B9080E191E0FEF08B90F
:10318000F9014A950FEF08B909F0F00100E008B91C
:1031900009940FEF08B9199100E008B9159F00E0F4
:1031A00008B9080E191E00E008B9F9014A9500E0B7
:1031B00008B909F0F00100E008B909940FEF08B967
:1031C000199100E008B9159F00E008B9080E191E12
:1031D00000E008B9F9014A9500E008B909F0F001EA
:1031E00000E008B909940FEF08B919910FEF08B979
:1031F000159F0FEF08B9080E191E0FEF08B9F90156
:103200004A9500E008B909F0F00100E008B9099416
:103210000FEF08B9199100E008B9159F00E008B94F
:10322000080E191E00E008B9F9014A9500E008B936
:1032300009F0F00100E008B909940FEF08B91991FD
:1032400000E008B9159F00E008B9080E191E00E05B
:1032500008B9F9014A9500E008B909F0F00100E069
:1032600008B909940FEF08B919910FEF08B9159F24
:103270000FEF08B9080E191E0FEF08B9F9014A95AA
:103280000FEF08B909F0F00100E008B9099400E077
:1032900008B9199100E008B9159F00E008B9080EB7
:1032A000191E00E008B9F9014A9500E008B909F0D3
:1032B000F00100E008B909940FEF08B919910FEF78
:1032C00008B9159F0FEF08B9080E191E0FEF08B9BE
:1032D000F9014A950FEF08B909F0F00100E008B9CB
:1032E00009940FEF08B9199100E008B9159F00E0A3
:1032F00008B9080E191E00E008B9F9014A9500E066
:1033000008B909F0F00100E008B909940FEF08B915
:10331000199100E008B9159F00E008B9080E191EC0
:1033200000E008B9F9014A9500E008B909F0F00198
:1033300000E008B909940FEF08B919910FEF08B927
:10334000159F0FEF08B9080E191E0FEF08B9F90104
:103350004A9500E008B909F0F00100E008B90994C5
:103360000FEF08B9199100E008B9159F00E008B9FE
:10337000080E191E00E008B9F9014A9500E008B9E5
:1033800009F0F00100E008B909940FEF08B91991AC
:1033900000E008B9159F00E008B9080E191E00E00A
:1033A00008B9F9014A9500E008B909F0F00100E018
:1033B00008B909940FEF08B9199100E008B9159FF1
:1033C00000E008B9080E191E00E008B9F9014A9595
:1033D00000E008B909F0F00100E008B9099400E044
:1033E00008B9199100E008B9159F00E008B9080E66
:1033F000191E00E008B9F9014A9500E008B909F082
:10340000F00100E008B9099400E008B919910FEF44
:1034100008B9159F0FEF08B9080E191E0FEF08B96C
:10342000F9014A9500E008B909F0F00100E008B997
:1034300009940FEF08B9199100E008B9159F00E051
:1034400008B9080E191E00E008B9F9014A950FEFF6
:1034500008B909F0F00100E008B909940FEF08B9C4
:10346000199100E008B9159F00E008B9080E191E6F
:1034700000E008B9F9014A9500E008B909F0F00147
:1034800000E008B909940FEF08B9199100E008B9F4
:10349000159F0FEF08B9080E191E0FEF08B9F901B3
:1034A0004A950FEF08B909F0F00100E008B9099456
:1034B0000FEF08B9199100E008B9159F00E008B9AD
:1034C000080E191E00E008B9F9014A950FEF08B976
:1034D00009F0F00100E008B909940FEF08B919915B
:1034E00000E008B9159F00E008B9080E191E00E0B9
:1034F00008B9F9014A950FEF08B909F0F00100E0A9
:1035000008B9099400E008B919910FEF08B9159F9F
:103510000FEF08B9080E191E0FEF08B9F9014A9507
:103520000FEF08B909F0F00100E008B9099400E0D4
:1035300008B9199100E008B9159F00E008B9080E14
:10354000191E00E008B9F9014A9500E008B909F030
:10355000F00100E008B909940FEF08B9199100E0F3
:1035600008B9159F00E008B9080E191E00E008B957
:10357000F9014A950FEF08B909F0F00100E008B928
:1035800009940FEF08B9199100E008B9159F00E000
:1035900008B9080E191E00E008B9F9014A950FEFA5
:1035A00008B909F0F00100E008B909940FEF08B973
:1035B000199100E008B9159F00E008B9080E191E1E
:1035C00000E008B9F9014A950FEF08B909F0F001D8
:1035D00000E008B909940FEF08B919910FEF08B985
:1035E000159F0FEF08B9080E191E0FEF08B9F90162
:1035F0004A950FEF08B909F0F00100E008B9099405
:103600000FEF08B9199100E008B9159F00E008B95B
:10361000080E191E00E008B9F9014A950FEF08B924
:1036200009F0F00100E008B909940FEF08B9199109
:1036300000E008B9159F00E008B9080E191E00E067
:1036400008B9F9014A950FEF08B909F0F00100E057
:1036500008B909940FEF08B9199100E008B9159F4E
:1036600000E008B9080E191E00E008B9F9014A95F2
:103670000FEF08B909F0F00100E008B9099400E083
:1036800008B9199100E008B9159F00E008B9080EC3
:10369000191E00E008B9F9014A9500E008B909F0DF
:1036A000F00100E008B9099400E008B919910FEFA2
:1036B00008B9159F0FEF08B9080E191E0FEF08B9CA
:1036C000F9014A9500E008B909F0F00100E008B9F5
:1036D000099400E008B9199100E008B9159F0FEFAF
:1036E00008B9080E191E00E008B9F9014A9500E072
:1036F00008B909F0F00100E008B9099400E008B940
:10370000199100E008B9159F0FEF08B9080E191EAE
:1037100000E008B9F9014A9500E008B909F0F001A4
:1037200000E008B9099400E008B9199100E008B96F
:10373000159F0FEF08B9080E191E00E008B9F9012E
:103740004A9500E008B909F0F00100E008B90994D1
:1037500000E008B9199100E008B9159F0FEF08B90A
:10376000080E191E00E008B9F9014A9500E008B9F1
:1037700009F0F00100E008B9099400E008B91991D6
:1037800000E008B9159F0FEF08B9080E191E00E0F8
:1037900008B9F9014A9500E008B909F0F00100E024
:1037A00008B9099400E008B919910FEF08B9159FFD
:1037B0000FEF08B9080E191E0FEF08B9F9014A9565
:1037C00000E008B909F0F00100E008B9099400E050
:1037D00008B9199100E008B9159F00E008B9080E72
:1037E000191E00E008B9F9014A9500E008B909F08E
:1037F000F00100E008B9099400E008B9199100E06F
:1038000008B9159F00E008B9080E191E00E008B9B4
:10381000F9014A950FEF08B909F0F00100E008B985
:10382000099400E008B9199100E008B9159F00E07B
:1038300008B9080E191E00E008B9F9014A950FEF02
:1038400008B909F0F00100E008B9099400E008B9EE
:10385000199100E008B9159F00E008B9080E191E7B
:1038600000E008B9F9014A950FEF08B909F0F00135
:1038700000E008B9099400E008B9199100E008B91E
:10388000159F00E008B9080E191E00E008B9F901FB
:103890004A950FEF08B909F0F00100E008B9099462
:1038A0000FEF08B9199100E008B9159F00E008B9B9
:1038B000080E191E00E008B9F9014A950FEF08B982
:1038C00009F0F00100E008B909940FEF08B9199167
:1038D00000E008B9159F00E008B9080E191E00E0C5
:1038E00008B9F9014A950FEF08B909F0F00100E0B5
:1038F00008B9099400E008B919910FEF08B9159FAC
:103900000FEF08B9080E191E0FEF08B9F9014A9513
:1039100000E008B909F0F00100E008B9099400E0FE
:1039200008B9199100E008B9159F00E008B9080E20
:10393000191E00E008B9F9014A9500E008B909F03C
:10394000F00100E008B909940FEF08B9199100E0FF
:1039500008B9159F00E008B9080E191E00E008B963
:10396000F9014A950FEF08B909F0F00100E008B934
:1039700009940FEF08B9199100E008B9159F00E00C
:1039800008B9080E191E0FEF08B9F9014A9500E0B1
:1039900008B909F0F00100E008B909940FEF08B97F
:1039A000199100E008B9159F0FEF08B9080E191E0C
:1039B00000E008B9F9014A9500E008B909F0F00102
:1039C00000E008B909940FEF08B919910FEF08B991
:1039D000159F00E008B9080E191E00E008B9F901AA
:1039E0004A9500E008B909F0F00100E008B909942F
:1039F0000FEF08B9199100E008B9159F0FEF08B94A
:103A0000080E191E00E008B9F9014A9500E008B94E
:103A100009F0F00100E008B909940FEF08B9199115
:103A200000E008B9159F00E008B9080E191E0FEF55
:103A300008B9F9014A9500E008B909F0F00100E081
:103A400008B909940FEF08B9199100E008B9159F5A
:103A500000E008B9080E191E00E008B9F9014A95FE
:103A60000FEF08B909F0F00100E008B9099400E08F
:103A700008B9199100E008B9159F00E008B9080ECF
:103A8000191E00E008B9F9014A9500E008B909F0EB
:103A9000F00100E008B909940FEF08B9199100E0AE
:103AA00008B9159F00E008B9080E191E00E008B912
:103AB000F9014A9500E008B909F0F00100E008B901
:103AC00009940FEF08B9199100E008B9159F00E0BB
:103AD00008B9080E191E00E008B9F9014A9500E07E
:103AE00008B909F0F00100E008B909940FEF08B92E
:103AF000199100E008B9159F00E008B9080E191ED9
:103B000000E008B9F9014A9500E008B909F0F001B0
:103B100000E008B909940FEF08B9199100E008B95D
:103B2000159F00E008B9080E191E00E008B9F90158
:103B30004A9500E008B909F0F00100E008B90994DD
:103B40000FEF08B9199100E008B9159F00E008B916
:103B5000080E191E00E008B9F9014A9500E008B9FD
:103B600009F0F00100E008B909940FEF08B91991C4
:103B700000E008B9159F00E008B9080E191E00E022
:103B800008B9F9014A9500E008B909F0F00100E030
:103B900008B909940FEF08B919910FEF08B9159FEB
:103BA0000FEF08B9080E191E0FEF08B9F9014A9571
:103BB0000FEF08B909F0F00100E008B9099400E03E
:103BC00008B9199100E008B9159F00E008B9080E7E
:103BD000191E00E008B9F9014A9500E008B909F09A
:103BE000F00100E008B909940FEF08B9199100E05D
:103BF00008B9159F00E008B9080E191E00E008B9C1
:103C0000F9014A950FEF08B909F0F00100E008B991
:103C100009940FEF08B919910FEF08B9159F00E04B
:103C200008B9080E191E0FEF08B9F9014A950FEFF0
:103C300008B909F0F00100E008B909940FEF08B9DC
:103C4000199100E008B9159F0FEF08B9080E191E69
:103C500000E008B9F9014A950FEF08B909F0F00141
:103C600000E008B909940FEF08B9199100E008B90C
:103C7000159F00E008B9080E191E00E008B9F90107
:103C80004A950FEF08B909F0F00100E008B909946E
:103C90000FEF08B9199100E008B9159F00E008B9C5
:103CA000080E191E00E008B9F9014A950FEF08B98E
:103CB00009F0F00100E008B909940FEF08B9199173
:103CC00000E008B9159F00E008B9080E191E00E0D1
:103CD00008B9F9014A950FEF08B909F0F00100E0C1
:103CE00008B909940FEF08B9199100E008B9159FB8
:103CF00000E008B9080E191E00E008B9F9014A955C
:103D00000FEF08B909F0F00100E008B9099400E0EC
:103D100008B9199100E008B9159F00E008B9080E2C
:103D2000191E00E008B9F9014A9500E008B909F048
:103D3000F00100E008B909940FEF08B9199100E00B
:103D400008B9159F00E008B9080E191E00E008B96F
:103D5000F9014A950FEF08B909F0F00100E008B940
:103D600009940FEF08B919910FEF08B9159F00E0FA
:103D700008B9080E191E00E008B9F9014A950FEFBD
:103D800008B909F0F00100E008B909940FEF08B98B
:103D9000199100E008B9159F0FEF08B9080E191E18
:103DA00000E008B9F9014A950FEF08B909F0F001F0
:103DB00000E008B909940FEF08B9199100E008B9BB
:103DC000159F00E008B9080E191E0FEF08B9F90198
:103DD0004A950FEF08B909F0F00100E008B909941D
:103DE0000FEF08B9199100E008B9159F00E008B974
:103DF000080E191E00E008B9F9014A950FEF08B93D
:103E000009F0F00100E008B909940FEF08B9199121
:103E100000E008B9159F00E008B9080E191E00E07F
:103E200008B9F9014A950FEF08B909F0F00100E06F
:103E300008B909940FEF08B9199100E008B9159F66
:103E400000E008B9080E191E00E008B9F9014A950A
:103E50000FEF08B909F0F00100E008B9099400E09B
:103E600008B9199100E008B9159F00E008B9080EDB
:103E7000191E00E008B9F9014A9500E008B909F0F7
:103E8000F00100E008B9099400E008B919910FEFBA
:103E900008B9159F0FEF08B9080E191E0FEF08B9E2
:103EA000F9014A9500E008B909F0F00100E008B90D
:103EB00009940FEF08B9199100E008B9159F00E0C7
:103EC00008B9080E191E00E008B9F9014A950FEF6C
:103ED00008B909F0F00100E008B909940FEF08B93A
:103EE000199100E008B9159F00E008B9080E191EE5
:103EF00000E008B9F9014A950FEF08B909F0F0019F
:103F000000E008B909940FEF08B9199100E008B969
:103F1000159F00E008B9080E191E00E008B9F90164
:103F20004A950FEF08B909F0F00100E008B90994CB
:103F30000FEF08B9199100E008B9159F00E008B922
:103F4000080E191E00E008B9F9014A950FEF08B9EB
:103F500009F0F00100E008B909940FEF08B91991D0
:103F600000E008B9159F00E008B9080E191E00E02E
:103F700008B9F9014A950FEF08B909F0F00100E01E
:103F800008B9099400E008B919910FEF08B9159F15
:103F90000FEF08B9080E191E0FEF08B9F9014A957D
:103FA00000E008B909F0F00100E008B9099400E068
:103FB00008B9199100E008B9159F00E008B9080E8A
:103FC000191E00E008B9F9014A9500E008B909F0A6
:103FD000F00100E008B909940FEF08B919910FEF4B
:103FE00008B9159F0FEF08B9080E191E0FEF08B991
:103FF000F9014A9500E008B909F0F00100E008B9BC
:1040000009940FEF08B9199100E008B9159F00E075
:1040100008B9080E191E00E008B9F9014A950FEF1A
:1040200008B909F0F00100E008B909940FEF08B9E8
:10403000199100E008B9159F00E008B9080E191E93
:1040400000E008B9F9014A950FEF08B909F0F0014D
:1040500000E008B909940FEF08B919910FEF08B9FA
:10406000159F0FEF08B9080E191E0FEF08B9F901D7
:104070004A9500E008B909F0F00100E008B9099498
:104080000FEF08B9199100E008B9159F00E008B9D1
:10409000080E191E00E008B9F9014A9500E008B9B8
:1040A00009F0F00100E008B909940FEF08B919917F
:1040B00000E008B9159F00E008B9080E191E00E0DD
:1040C00008B9F9014A9500E008B909F0F00100E0EB
:1040D00008B909940FEF08B9199100E008B9159FC4
:1040E00000E008B9080E191E00E008B9F9014A9568
:1040F00000E008B909F0F00100E008B9099400E017
:1041000008B9199100E008B9159F00E008B9080E38
:10411000191E00E008B9F9014A9500E008B909F054
:10412000F00100E008B9099400E008B919910FEF17
:1041300008B9159F0FEF08B9080E191E0FEF08B93F
:10414000F9014A9500E008B909F0F00100E008B96A
:1041500009940FEF08B9199100E008B9159F00E024
:1041600008B9080E191E00E008B9F9014A950FEFC9
:1041700008B909F0F00100E008B909940FEF08B997
:10418000199100E008B9159F00E008B9080E191E42
:1041900000E008B9F9014A950FEF08B909F0F001FC
:1041A00000E008B909940FEF08B9199100E008B9C7
:1041B000159F00E008B9080E191E00E008B9F901C2
:1041C0004A950FEF08B909F0F00100E008B9099429
:1041D0000FEF08B9199100E008B9159F0FEF08B962
:1041E000080E191E00E008B9F9014A950FEF08B949
:1041F00009F0F00100E008B909940FEF08B919912E
:1042000000E008B9159F00E008B9080E191E0FEF6D
:1042100008B9F9014A9500E008B909F0F00100E099
:1042200008B9099400E008B919910FEF08B9159F72
:104230000FEF08B9080E191E00E008B9F9014A95F8
:104240000FEF08B909F0F00100E008B9099400E0A7
:1042500008B9199100E008B9159F00E008B9080EE7
:10426000191E00E008B9F9014A9500E008B909F003
:10427000F00100E008B909940FEF08B919910FEFA8
:1042800008B9159F0FEF08B9080E191E0FEF08B9EE
:10429000F9014A9500E008B909F0F00100E008B919
:1042A00009940FEF08B9199100E008B9159F00E0D3
:1042B00008B9080E191E00E008B9F9014A950FEF78
:1042C00008B909F0F00100E008B909940FEF08B946
:1042D000199100E008B9159F00E008B9080E191EF1
:1042E00000E008B9F9014A950FEF08B909F0F001AB
:1042F00000E008B909940FEF08B919910FEF08B958
:10430000159F0FEF08B9080E191E0FEF08B9F90134
:104310004A9500E008B909F0F00100E008B90994F5
:104320000FEF08B9199100E008B9159F00E008B92E
:10433000080E191E0FEF08B9F9014A9500E008B9F7
:1043400009F0F00100E008B909940FEF08B91991DC
:1043500000E008B9159F00E008B9080E191E00E03A
:1043600008B9F9014A950FEF08B909F0F00100E02A
:1043700008B909940FEF08B9199100E008B9159F21
:1043800000E008B9080E191E00E008B9F9014A95C5
:104390000FEF08B909F0F00100E008B9099400E056
:1043A00008B9199100E008B9159F00E008B9080E96
:1043B000191E00E008B9F9014A9500E008B909F0B2
:1043C000F00100E008B9099400E008B919910FEF75
:1043D00008B9159F0FEF08B9080E191E0FEF08B99D
:1043E000F9014A9500E008B909F0F00100E008B9C8
:1043F00009940FEF08B9199100E008B9159F00E082
:1044000008B9080E191E00E008B9F9014A950FEF26
:1044100008B909F0F00100E008B909940FEF08B9F4
:10442000199100E008B9159F00E008B9080E191E9F
:1044300000E008B9F9014A9500E008B909F0F00177
:1044400000E008B9099400E008B919910FEF08B924
:10445000159F0FEF08B9080E191E0FEF08B9F901E3
:104460004A9500E008B909F0F00100E008B90994A4
:1044700000E008B9199100E008B9159F00E008B9FB
:10448000080E191E00E008B9F9014A950FEF08B9A6
:1044900009F0F00100E008B909940FEF08B919918B
:1044A00000E008B9159F00E008B9080E191E00E0E9
:1044B00008B9F9014A950FEF08B909F0F00100E0D9
:1044C00008B9099400E008B919910FEF08B9159FD0
:1044D0000FEF08B9080E191E0FEF08B9F9014A9538
:1044E00000E008B909F0F00100E008B9099400E023
:1044F00008B9199100E008B9159F00E008B9080E45
:10450000191E00E008B9F9014A9500E008B909F060
:10451000F00100E008B909940FEF08B919910FEF05
:1045200008B9159F0FEF08B9080E191E0FEF08B94B
:10453000F9014A950FEF08B909F0F00100E008B958
:10454000099400E008B9199100E008B9159F0FEF30
:1045500008B9080E191E00E008B9F9014A9500E0F3
:1045600008B909F0F00100E008B9099400E008B9C1
:10457000199100E008B9159F0FEF08B9080E191E30
:1045800000E008B9F9014A9500E008B909F0F00126
:1045900000E008B9099400E008B9199100E008B9F1
:1045A000159F0FEF08B9080E191E00E008B9F901B0
:1045B0004A9500E008B909F0F00100E008B9099453
:1045C00000E008B9199100E008B9159F0FEF08B98C
:1045D000080E191E00E008B9F9014A9500E008B973
:1045E00009F0F00100E008B9099400E008B9199158
:1045F00000E008B9159F0FEF08B9080E191E00E07A
:1046000008B9F9014A9500E008B909F0F00100E0A5
:1046100008B9099400E008B9199100E008B9159F9C
:104620000FEF08B9080E191E00E008B9F9014A9504
:1046300000E008B909F0F00100E008B9099400E0D1
:1046400008B9199100E008B9159F00E008B9080EF3
:10465000191E00E008B9F9014A9500E008B909F00F
:10466000F00100E008B909940FEF08B9199100E0D2
:1046700008B9159F00E008B9080E191E00E008B936
:10468000F9014A950FEF08B909F0F00100E008B907
:1046900009940FEF08B9199100E008B9159F00E0DF
:1046A00008B9080E191E00E008B9F9014A950FEF84
:1046B00008B909F0F00100E008B909940FEF08B952
:1046C000199100E008B9159F00E008B9080E191EFD
:1046D00000E008B9F9014A950FEF08B909F0F001B7
:1046E00000E008B909940FEF08B9199100E008B982
:1046F000159F00E008B9080E191E00E008B9F9017D
:104700004A950FEF08B909F0F00100E008B90994E3
:104710000FEF08B9199100E008B9159F00E008B93A
:10472000080E191E00E008B9F9014A950FEF08B903
:1047300009F0F00100E008B909940FEF08B91991E8
:1047400000E008B9159F00E008B9080E191E00E046
:1047500008B9F9014A950FEF08B909F0F00100E036
:1047600008B9099400E008B919910FEF08B9159F2D
:104770000FEF08B9080E191E0FEF08B9F9014A9595
:1047800000E008B909F0F00100E008B9099400E080
:1047900008B9199100E008B9159F00E008B9080EA2
:1047A000191E00E008B9F9014A9500E008B909F0BE
:1047B000F00100E008B909940FEF08B9199100E081
:1047C00008B9159F00E008B9080E191E00E008B9E5
:1047D000F9014A950FEF08B909F0F00100E008B9B6
:1047E00009940FEF08B9199100E008B9159F00E08E
:1047F00008B9080E191E00E008B9F9014A950FEF33
:1048000008B909F0F00100E008B909940FEF08B900
:10481000199100E008B9159F00E008B9080E191EAB
:1048200000E008B9F9014A950FEF08B909F0F00165
:1048300000E008B909940FEF08B9199100E008B930
:10484000159F00E008B9080E191E00E008B9F9012B
:104850004A950FEF08B909F0F00100E008B9099492
:104860000FEF08B9199100E008B9159F00E008B9E9
:10487000080E191E00E008B9F9014A950FEF08B9B2
:1048800009F0F00100E008B9099400E008B91991B5
:104890000FEF08B9159F00E008B9080E191E0FEFB9
:1048A00008B9F9014A9500E008B909F0F00100E003
:1048B00008B9099400E008B9199100E008B9159FFA
:1048C0000FEF08B9080E191E00E008B9F9014A9562
:1048D00000E008B909F0F00100E008B9099400E02F
:1048E00008B9199100E008B9159F00E008B9080E51
:1048F000191E00E008B9F9014A9500E008B909F06D
:10490000F00100E008B909940FEF08B9199100E02F
:1049100008B9159F00E008B9080E191E00E008B993
:10492000F9014A950FEF08B909F0F00100E008B964
:1049300009940FEF08B9199100E008B9159F00E03C
:1049400008B9080E191E00E008B9F9014A950FEFE1
:1049500008B909F0F00100E008B909940FEF08B9AF
:10496000199100E008B9159F0FEF08B9080E191E3C
:1049700000E008B9F9014A950FEF08B909F0F00114
:1049800000E008B909940FEF08B9199100E008B9DF
:10499000159F0FEF08B9080E191E00E008B9F901BC
:1049A0004A950FEF08B909F0F00100E008B9099441
:1049B0000FEF08B9199100E008B9159F0FEF08B97A
:1049C000080E191E00E008B9F9014A950FEF08B961
:1049D00009F0F00100E008B909940FEF08B9199146
:1049E00000E008B9159F0FEF08B9080E191E00E086
:1049F00008B9F9014A950FEF08B909F0F00100E094
:104A000008B9099400E008B919910FEF08B9159F8A
:104A100000E008B9080E191E0FEF08B9F9014A9510
:104A200000E008B909F0F00100E008B9099400E0DD
:104A300008B9199100E008B9159F00E008B9080EFF
:104A4000191E00E008B9F9014A9500E008B909F01B
:104A5000F00100E008B909940FEF08B9199100E0DE
:104A600008B9159F00E008B9080E191E00E008B942
:104A7000F9014A950FEF08B909F0F00100E008B913
:104A800009940FEF08B9199100E008B9159F00E0EB
:104A900008B9080E191E00E008B9F9014A950FEF90
:104AA00008B909F0F00100E008B9099400E008B97C
:104AB00019910FEF08B9159F00E008B9080E191EEB
:104AC0000FEF08B9F9014A9500E008B909F0F001C3
:104AD00000E008B9099400E008B9199100E008B9AC
:104AE000159F0FEF08B9080E191E00E008B9F9016B
:104AF0004A9500E008B909F0F00100E008B909940E
:104B000000E008B919910FEF08B9159F00E008B946
:104B1000080E191E0FEF08B9F9014A9500E008B90F
:104B200009F0F00100E008B909940FEF08B91991F4
:104B300000E008B9159F00E008B9080E191E00E052
:104B400008B9F9014A950FEF08B909F0F00100E042
:104B500008B909940FEF08B9199100E008B9159F39
:104B600000E008B9080E191E00E008B9F9014A95DD
:104B70000FEF08B909F0F00100E008B9099400E06E
:104B800008B9199100E008B9159F00E008B9080EAE
:104B9000191E00E008B9F9014A9500E008B909F0CA
:104BA000F00100E008B909940FEF08B9199100E08D
:104BB00008B9159F00E008B9080E191E00E008B9F1
:104BC000F9014A950FEF08B909F0F00100E008B9C2
:104BD00009940FEF08B9199100E008B9159F00E09A
:104BE00008B9080E191E00E008B9F9014A950FEF3F
:104BF00008B909F0F00100E008B909940FEF08B90D
:104C0000199100E008B9159F00E008B9080E191EB7
:104C100000E008B9F9014A950FEF08B909F0F00171
:104C200000E008B9099400E008B919910FEF08B93C
:104C3000159F00E008B9080E191E0FEF08B9F90119
:104C40004A9500E008B909F0F00100E008B90994BC
:104C500000E008B9199100E008B9159F0FEF08B9F5
:104C6000080E191E00E008B9F9014A9500E008B9DC
:104C700009F0F00100E008B9099400E008B91991C1
:104C800000E008B9159F0FEF08B9080E191E00E0E3
:104C900008B9F9014A9500E008B909F0F00100E00F
:104CA00008B9099400E008B9199100E008B9159F06
:104CB0000FEF08B9080E191E00E008B9F9014A956E
:104CC00000E008B909F0F00100E008B9099400E03B
:104CD00008B9199100E008B9159F00E008B9080E5D
:104CE000191E00E008B9F9014A9500E008B909F079
:104CF000F00100E008B909940FEF08B919910FEF1E
:104D000008B9159F0FEF08B9080E191E0FEF08B963
:104D1000F9014A9500E008B909F0F00100E008B98E
:104D2000099400E008B9199100E008B9159F00E066
:104D300008B9080E191E0FEF08B9F9014A9500E0ED
:104D400008B909F0F00100E008B9099400E008B9D9
:104D5000199100E008B9159F0FEF08B9080E191E48
:104D600000E008B9F9014A9500E008B909F0F0013E
:104D700000E008B9099400E008B919910FEF08B9EB
:104D8000159F00E008B9080E191E00E008B9F901E6
:104D90004A9500E008B909F0F00100E008B909946B
:104DA0000FEF08B9199100E008B9159F00E008B9A4
:104DB000080E191E00E008B9F9014A9500E008B98B
:104DC00009F0F00100E008B909940FEF08B9199152
:104DD00000E008B9159F00E008B9080E191E00E0B0
:104DE00008B9F9014A9500E008B909F0F00100E0BE
:104DF00008B909940FEF08B919910FEF08B9159F79
:104E00000FEF08B9080E191E0FEF08B9F9014A95FE
:104E100000E008B909F0F00100E008B9099400E0E9
:104E200008B9199100E008B9159F00E008B9080E0B
:104E3000191E00E008B9F9014A9500E008B909F027
:104E4000F00100E008B9099400E008B9199100E008
:104E500008B9159F0FEF08B9080E191E0FEF08B912
:104E6000F9014A9500E008B909F0F00100E008B93D
:104E7000099400E008B919910FEF08B9159F00E0F7
:104E800008B9080E191E00E008B9F9014A9500E0BA
:104E900008B909F0F00100E008B9099400E008B988
:104EA00019910FEF08B9159F00E008B9080E191EF7
:104EB00000E008B9F9014A9500E008B909F0F001ED
:104EC00000E008B909940FEF08B919910FEF08B97C
:104ED000159F00E008B9080E191E00E008B9F90195
:104EE0004A9500E008B909F0F00100E008B909941A
:104EF00000E008B919910FEF08B9159F00E008B953
:104F0000080E191E00E008B9F9014A9500E008B939
:104F100009F0F00100E008B9099400E008B919911E
:104F20000FEF08B9159F00E008B9080E191E00E040
:104F300008B9F9014A9500E008B909F0F00100E06C
:104F400008B9099400E008B9199100E008B9159F63
:104F50000FEF08B9080E191E0FEF08B9F9014A95AD
:104F600000E008B909F0F00100E008B9099400E098
:104F700008B9199100E008B9159F00E008B9080EBA
:104F8000191E00E008B9F9014A9500E008B909F0D6
:104F9000F00100E008B9099400E008B9199100E0B7
:104FA00008B9159F0FEF08B9080E191E0FEF08B9C1
:104FB000F9014A9500E008B909F0F00100E008B9EC
:104FC000099400E008B919910FEF08B9159F00E0A6
:104FD00008B9080E191E00E008B9F9014A950FEF4B
:104FE00008B909F0F00100E008B909940FEF08B919
:104FF000199100E008B9159F0FEF08B9080E191EA6
:105000000FEF08B9F9014A9500E008B909F0F0017D
:105010000FEF08B909940FEF08B9199100E008B92A
:10502000159F0FEF08B9080E191E00E008B9F90125
:105030004A9500E008B909F0F0010FEF08B90994AA
:105040000FEF08B9199100E008B9159F0FEF08B9E3
:10505000080E191E0FEF08B9F9014A9500E008B9CA
:1050600009F0F0010FEF08B9099400E008B91991AF
:105070000FEF08B9159F00E008B9080E191E00E0EF
:1050800008B9F9014A950FEF08B909F0F00100E0FD
:1050900008B9099400E008B9199100E008B9159F12
:1050A0000FEF08B9080E191E0FEF08B9F9014A955C
:1050B00000E008B909F0F00100E008B9099400E047
:1050C00008B9199100E008B9159F00E008B9080E69
:1050D000191E00E008B9F9014A9500E008B909F085
:1050E000F00100E008B9099400E008B919910FEF48
:1050F00008B9159F0FEF08B9080E191E00E008B98E
:10510000F9014A9500E008B909F0F00100E008B99A
:10511000099400E008B9199100E008B9159F00E072
:1051200008B9080E191E0FEF08B9F9014A9500E0F9
:1051300008B909F0F00100E008B9099400E008B9E5
:10514000199100E008B9159F00E008B9080E191E72
:105150000FEF08B9F9014A9500E008B909F0F0012C
:1051600000E008B9099400E008B9199100E008B915
:10517000159F00E008B9080E191E0FEF08B9F901D4
:105180004A950FEF08B909F0F00100E008B9099459
:1051900000E008B9199100E008B9159F00E008B9CE
:1051A000080E191E0FEF08B9F9014A9500E008B979
:1051B00009F0F00100E008B9099400E008B919917C
:1051C00000E008B9159F00E008B9080E191E0FEF9E
:1051D00008B9F9014A9500E008B909F0F00100E0CA
:1051E00008B9099400E008B919910FEF08B9159FA3
:1051F0000FEF08B9080E191E00E008B9F9014A9529
:1052000000E008B909F0F00100E008B9099400E0F5
:1052100008B9199100E008B9159F00E008B9080E17
:10522000191E00E008B9F9014A9500E008B909F033
:10523000F00100E008B9099400E008B9199100E014
:1052400008B9159F00E008B9080E191E08E308B94F
:10525000F9014A9500E008B909F0F00100E008B949
:10526000099400E008B9199100E008B9159F08E316
:1052700008B9080E191E08E308B9F9014A9508E3B0
:1052800008B909F0F00100E008B909940FE308B982
:10529000199100E008B9159F0FE308B9080E191E0F
:1052A0000FE308B9F9014A950FE308B909F0F001D5
:1052B00000E008B9099400E008B9199107E008B9BD
:1052C000159F07E008B9080E191E07E008B9F90193
:1052D0004A9507E008B909F0F00107E008B9099418
:1052E00000E008B9199100E008B9159F07E008B976
:1052F000080E191E07E008B9F9014A9507E008B938
:1053000009F0F0010FE308B9099400E008B9199118
:1053100000E008B9159F00E808B9080E191E00E062
:1053200008B9F9014A9500E808B909F0F00100E070
:1053300008B9099400E008B9199100E008B9159F6F
:1053400000E808B9080E191E00E008B9F9014A95ED
:1053500000E808B909F0F00100E008B9099400E09C
:1053600008B919910FEF08B9159F0FEF08B9080E8A
:10537000191E00E008B9F9014A950FEF08B909F0C4
:10538000F0010FEF08B909940FE308B9199100E093
:1053900008B9159F00E008B9080E191E08E308B9FE
:1053A000F9014A9500E008B909F0F00100E008B9F8
:1053B000099400E908B9199100E008B9159F08E3BC
:1053C00008B9080E191E08E308B9F9014A9508E35F
:1053D00008B909F0F00100E008B909940FE308B931
:1053E000199100E008B9159F0FE308B9080E191EBE
:1053F0000FE308B9F9014A950FE308B909F0F00184
:1054000000E008B9099400E008B9199107E008B96B
:10541000159F07E008B9080E191E07E008B9F90141
:105420004A9507E008B909F0F00107E008B90994C6
:1054300000E008B9199100E008B9159F07E008B924
:10544000080E191E07E008B9F9014A9507E008B9E6
:1054500009F0F0010FE308B9099400E008B91991C7
:1054600000E008B9159F00E808B9080E191E00E011
:1054700008B9F9014A9500E808B909F0F00100E01F
:1054800008B9099400E008B9199100E008B9159F1E
:1054900000E808B9080E191E00E008B9F9014A959C
:1054A00000E808B909F0F00100E008B9099400E04B
:1054B00008B919910FEF08B9159F0FEF08B9080E39
:1054C000191E00E008B9F9014A950FEF08B909F073
:1054D000F0010FEF08B9099400EE08B9199100E046
:1054E00008B9159F00E008B9080E191E08E308B9AD
:1054F000F9014A9500E008B909F0F00100E008B9A7
:10550000099400EE08B9199100E008B9159F08E365
:1055100008B9080E191E08E308B9F9014A9508E30D
:1055200008B909F0F00100E008B909940FE308B9DF
:10553000199100E008B9159F0FE308B9080E191E6C
:105540000FE308B9F9014A950FE308B909F0F00132
:1055500000E008B9099404E108B9199107E008B915
:10556000159F07E008B9080E191E07E008B9F901F0
:105570004A9507E008B909F0F00107E008B9099475
:1055800004E108B9199100E008B9159F07E008B9CE
:10559000080E191E07E008B9F9014A9507E008B995
:1055A00009F0F0010FE308B9099404E108B9199171
:1055B00000E008B9159F00E808B9080E191E00E0C0
:1055C00008B9F9014A9500E808B909F0F00100E0CE
:1055D00008B9099404E108B9199100E008B9159FC8
:1055E00000E808B9080E191E00E008B9F9014A954B
:1055F00000E808B909F0F00100E008B9099400E0FA
:1056000008B919910FEF08B9159F0FEF08B9080EE7
:10561000191E00E008B9F9014A950FEF08B909F021
:10562000F0010FEF08B9099400E008B9199100E002
:1056300008B9159F04EA08B9080E191E04EA08B94A
:10564000F9014A9504EA08B909F0F00100E008B947
:10565000099400E008B9199100E008B9159F07E026
:1056600008B9080E191E04EA08B9F9014A9507E0BD
:1056700008B909F0F00100E008B9099404EA08B992
:10568000199100E008B9159F04EA08B9080E191E1F
:1056900004EA08B9F9014A9504EA08B909F0F001E9
:1056A00000E008B9099404EA08B9199104EA08B9B4
:1056B000159F04EA08B9080E191E04EA08B9F90191
:1056C0004A9504EA08B909F0F00104EA08B9099416
:1056D00000E008B9199100E008B9159F04EA08B97B
:1056E000080E191E04EA08B9F9014A9504EA08B936
:1056F00009F0F00100E008B9099400E008B9199137
:1057000000E008B9159F04EA08B9080E191E00E068
:1057100008B9F9014A9504EA08B909F0F00100E076
:1057200008B9099400E008B9199100E008B9159F7B
:1057300004EA08B9080E191E00E008B9F9014A95F3
:1057400004EA08B909F0F00100E008B9099400E0A2
:1057500008B9199104EA08B9159F04EA08B9080EB6
:10576000191E00E008B9F9014A9504EA08B909F0E0
:10577000F00104EA08B9099400E008B9199100E0C1
:1057800008B9159F00E008B9080E191E00E008B915
:10579000F9014A9500E008B909F0F00100E008B904
:1057A000099400E008B9199100E008B9159F00E0DC
:1057B00008B9080E191E00E008B9F9014A9500E081
:1057C00008B909F0F00100E008B9099400E008B94F
:1057D000199100E008B9159F00E008B9080E191EDC
:1057E00000E008B9F9014A9500E008B909F0F001B4
:1057F00000E008B9099400E008B919910FE308B96D
:10580000159F04EA08B9080E191E00E008B9F9014D
:105810004A9500E008B909F0F00100E008B90994E0
:1058200000E008B9199104EA08B9159F04EA08B91B
:10583000080E191E04EA08B9F9014A9500E008B9F2
:1058400009F0F00100E008B9099400E008B91991E5
:1058500004EA08B9159F0DEA08B9080E191E04EAF2
:1058600008B9F9014A9504EA08B909F0F00100E025
:1058700008B9099404EA08B9199104EA08B9159F0E
:105880000DEA08B9080E191E07E008B9F9014A9592
:1058900004EA08B909F0F00100E008B9099404EA43
:1058A00008B919910DEA08B9159F0DEA08B9080E53
:1058B000191E0DEA08B9F9014A9504EA08B909F078
:1058C000F00104EA08B9099407E008B9199107E062
:1058D00008B9159F07E008B9080E191E07E008B9B6
:1058E000F9014A9507E008B909F0F00107E008B9A5
:1058F000099407E008B9199107E008B9159F00E07D
:1059000008B9080E191E00E008B9F9014A9500E02F
:1059100008B909F0F00107E008B9099407E008B9EF
:10592000199100E008B9159F00E008B9080E191E8A
:1059300000E008B9F9014A9500E008B909F0F00162
:1059400007E008B9099407E008B9199100E008B91F
:10595000159F00E008B9080E191E00E008B9F9010A
:105960004A9500E008B909F0F00107E008B9099488
:1059700007E008B9199100E008B9159F00E008B9DF
:10598000080E191E00E008B9F9014A9500E008B9AF
:1059900009F0F00107E008B9099407E008B9199186
:1059A00000E008B9159F00E008B9080E191E00E0D4
:1059B00008B9F9014A9500E008B909F0F00107E0DB
:1059C00008B9099407E008B9199100E008B9159FD2
:1059D00000E008B9080E191E00E008B9F9014A955F
:1059E00007E008B909F0F00107E008B9099407E0F9
:1059F00008B9199107E008B9159F07E008B9080E22
:105A0000191E07E008B9F9014A9507E008B909F03D
:105A1000F00107E008B909940FEF08B919910FEFE9
:105A200008B9159F0FEF08B9080E191E0FEF08B936
:105A3000F9014A950FEF08B909F0F0010FEF08B925
:105A400009940FEF08B919910FEF08B9159F0FEFDF
:105A500008B9080E191E0FEF08B9F9014A950FEFA2
:105A600008B909F0F0010FEF08B909940FEF08B970
:105A700019910FEF08B9159F0FEF08B9080E191EFD
:105A80000FEF08B9F9014A950FEF08B909F0F001D5
:105A90000FEF08B909940FEF08B919910FEF08B982
:105AA000159F0FEF08B9080E191E0FEF08B9F9017D
:105AB0004A950FEF08B909F0F0010FEF08B9099402
:105AC0000FEF08B919910FEF08B9159F0FEF08B93B
:105AD000080E191E0FEF08B9F9014A950FEF08B922
