:100000000C94F4240C9492250C9492250C94922533
:100010000C9492250C9492250C9492250C94922584
:100020000C9492250C9492250C9492250C94922574
:100030000C9492250C94C2270C9492250C94922532
:100040000C9492250C9492250C9492250C94922554
:100050000C9492250C9492250C9492250C94922544
:100060000C9492250C9492250C9492250C94922534
:100070005A5501200101003808000000000000006E
:100080000000000000000000000000000000000070
:1000900000020800085504085A0000F80009900002
:1000A0000A1E32050000FF00000090000000000062
:1000B0000000000000000000000000000000000040
:1000C0000000000000000000000000000000000030
:1000D0000000000000000000000000000000000020
:1000E0000000000000000000000000000000000010
:1000F0000000000000000000000000000000000000
:1001000000000000000000000000000000000049A6
:1001100000000000004952520000004952531C25C3
:10012000004952522425251B52525C2D2D1C1212BF
:1001300000000000000000000000000040494949A4
:1001400000404949525B5B5B4A52525B1C1C1312D4
:100150005B1C241C12090909241B12090909090A3C
:100160000A0A0A0A0A0A0A130A0A120A0A12130ACD
:1001700000000000000000009252525252525249B8
:1001800013121309001C1B130A1212401B65641C76
:10019000090A0009241B1C65120000251C1C1C1CDC
:1001A000010025241C1C1C1C0024252424241C1CA8
:1001B00000000000000000004940000000000000B6
:1001C00052494900000000001C5B4A480000000042
:1001D0001C2552490000000065246449000000000D
:1001E00065256449000000006D2E5C490000000098
:1001F0000000000000004052000000000049525C76
:1002000000000000535224250000005352252525EC
:1002100000004A5225251B0000005B251300001B2F
:10022000005B53000A1C3737095B1C657F372E2E95
:10023000522E2E1C131312002E251B131200001217
:100240001C1C12000012251C120000122E371C1359
:1002500000132E37361C131B37372E2E25131C1C6C
:100260002E2E2E2E1B1C1C1C6E6E6E1C1C1C1C1C91
:10027000091313121213130013131313131C000981
:10028000131313131C0100371313131C13002E2E0A
:100290001B1B1C1C001C772E1B1B2500137F251C01
:1002A0001C1C010A37241C1C1C130A2E25250900BE
:1002B000132E2425252525252E25252525252525EF
:1002C00025252D2E251B1C1C2E2E251C13251B130E
:1002D000251C1C1C1C0109521C1C1300011C5B5C0E
:1002E0000A000165775C1B00016E7F6E521B0000E7
:1002F0006D1C5249000000001C1353000000000058
:100300001C524A00000000005B5B0000000000007F
:100310005C00000000000000000000000000000081
:1003200000000000000000000000000000000000CD
:10033000135B7F776E6E6E6E136577766E6E6E6E84
:100340001B65777676766E771B5BBF76B6767676AC
:1003500009136DBFB7B6B765001B125C76BF766D2B
:100360000000121B125B5B5C00000000090A121304
:100370006E77241C1C1C1C1C77251C1C1C1C242593
:100380006E1C1C1C2425251B1C1C24252513000069
:10039000646D6D1B00096EBF6D5B09126EBF6D5BF6
:1003A0005B125B645B121312131B12120901000033
:1003B0001C242E1C0900096E2524010009767F7F6C
:1003C000000012777F7F641264BFBF775B121B0946
:1003D000BF6D5B121B09000012131B090000000017
:1003E0000900000000000000000000000000000004
:1003F0007F7F53131300000064121B0100000000F4
:100400001B120000000000000000000000000000BF
:1004100000000000000000000000000000000000DC
:1004200000000000000000000000000000000000CC
:100430000000000000000000260000002600262624
:100440002F0000002F0000003700000037000000E0
:10045000FF000000FF000000BF000000BF0000BF61
:10046000370000370000370000262600000026264F
:100470000000000000000000262626002626262672
:1004800000002F002F0000000037000037000000A0
:10049000FF000000FFFFFFFF00000000BF000000A2
:1004A000000000003700000026262600262626260B
:1004B000000000000000000026002626262600007E
:1004C00000002F0000002F00000037000000370060
:1004D0000000FFFFFFFF00000000BF000000BF00A2
:1004E00000003700000037002600262626260000E0
:1004F0000000000000000000000026262600260064
:10050000002F00002F002F003700000037000037B9
:10051000FF000000FF000000BF000000BF0000BFA0
:10052000370000370000370026262600000026008E
:100530000000000000000000000026000000000095
:1005400000002F0000000000003700000000000045
:10055000FF0000000000000000BF000000000000DD
:10056000000037000000000000002600000000002E
:10057000000000000000000000000000000000007B
:10058000000000000000000000000000000000E487
:1005900000000000099BEDF60000009BA4ADBFBF6A
:1005A00000529BA4767F7FB75B9B6D777F766EB79B
:1005B0000000000000000000000000005BB6F6F63E
:1005C000005BF6FFFFFFFFBFF6FFFFFFFFBFBFAE01
:1005D000FFBFFFFFFFB7AD65BFBFFFFFB7B6AD659C
:1005E000B7BFFFFFBFB7AE6EB7BFFFFFBFB7B765FF
:1005F0000000000000000000F6F6EDEDADA4A49BA5
:10060000B66D6D5C526E65646565655265766D2587
:100610005C5C52536E24656E6552526E252524250E
:100620005B52772D25252524526E6E2D25252525F7
:1006300000000000000000009B49000000000000D6
:10064000A49B920000000000256493490000000074
:10065000652E9B52000000006D25655200000000D1
:100660006D2D6552000000006E2E645200000000E7
:10067000000000000000495B00000000004A5B65CC
:10068000000000005B9B6D2D0000005B5B2D2E25A4
:100690000000525B2E2E1C0900015B2D1C01091C61
:1006A000005C5B014A65777F4A5B1C6E7F777776DB
:1006B0009B77776D656E6EA4776E6565655BA4B795
:1006C00025255C52526DBFBF130949647FBFBFBF70
:1006D000095C7F7FBFBFB7BF7F7F777F7FB7BFBF1B
:1006E00077777F7F6EB7BFBF777F7F6E77BFBFBFE4
:1006F000B6FFFFFFBFBFB75BBFFFFFFFBFBFA46475
:10070000BFFFFFFFBFADA47FBFFFFFFFBFA4BF7F41
:10071000FFFFFFBFADBFBFBFFFFFFFB6BFBFBF77CC
:10072000FFFFF7BFBFBF7777FFFFFFBFBFBF6452B9
:100730006D7F6E2E2D2D256E7F766E6E6E2E25654D
:10074000777777762E1C25247F776E251C251C1B3A
:10075000776525251C090A5B6E6E1C0949256464B2
:100760005B494A6E7F645C005377BF775B5C000037
:100770006E255B4A000000001C1B5B0000000000AF
:10078000245B5300000000005B5C000000000000E0
:1007900064000000000000000000000000000000F5
:1007A0000000000000000000000000000000000049
:1007B0005B5C7FBF777677775C6D7FB7777777778E
:1007C0005C6D7FBF777777BF5C64BFBFBFBFBF7F04
:1007D0000A5C6EBFBFBFBF760065646DBFBFBFBFA1
:1007E00000005B6D646DADB600000000125B646DCF
:1007F000777F6E6E77BFBFBF7F766D7677BFBFBFE7
:10080000776D6E767FBFBFBF6D6E767FBFB7ADF67B
:1008100076BFBF76A4ADFFFFBFB664ADFFFFFFFF9D
:10082000B6ADBFFFFFFFFFF6ADB6AD645B52000093
:10083000FFFFBFBFAD5B64BFFFFFB6ADADBFFFBF86
:10084000FFF6FFFFFFFFBF64FFFFFFFFBFB6765B52
:10085000FFFFFFBFBF5B0000FFFFFF5C0000000069
:10086000A4000000000000000000000000000000E4
:10087000BFBF645C5C0000006E5C65490000000066
:100880006D5B0000000000000000000000000000A0
:100890000000000000000000000000000000000058
:1008A0000000000000000000000000000000000048
:1008B0000504000102030405060708090A0B0C0DD4
:1008C000000E0F1011120503001314151617181936
:1008D0001A1B1C1D1E1F0000408891D2E4ADB5B646
:1008E000BEBFFF544F4B454E2100010100040701DC
:1008F00001010101010101010101010101010101E8
:1009000001010101010101010101010407020202CB
:1009100001020102010201020102010201020102BF
:1009200001020102010202020104070102010102A7
:1009300002010101020101010201010102010101A3
:100940000201010202020104070202020101010286
:100950000101010201020202010201010102010181
:100960000102020201040702020201010102010167
:100970000102010202020101010201010102010260
:100980000202010407020102010201020102010246
:100990000102020201010102010101020101010241
:1009A0000104070202020102010101020101010228
:1009B000020201010102010101020102020201041D
:1009C0000702020201020101010201010102020209
:1009D00001020102010201020102020201040702F6
:1009E00002020101010201010102010101020101F2
:1009F00001020101010201010102010407020202D8
:100A000001020102010201020102020201020102CD
:100A100001020102010202020104070202020102B4
:100A200001020102010201020202010101020101AF
:100A30000102010101020103070202020201010297
:100A40000101020101020101020101020202030788
:100A5000020202020101020101020202020101027C
:100A6000010102010104070101010101010101016C
:100A70000101010202020101010101010101010163
:100A80000101010407020202010201020102020245
:100A90000101010101010101010101010101010146
:100AA000010919000304050607000809000A0B0CD8
:100AB000000D000E0F10111213001415161718193F
:100AC0000B0C001A0000000000001B001C1D1E1F64
:100AD00020211722000D00232400000025002600FD
:100AE00000000027280C0014292A172B2C2D2E007B
:100AF0001A00000000000013001C2F303132333484
:100B00000C000D35363738393A1B0026000000003E
:100B10000000220014003B171D1E1F3C001A00009D
:100B2000000023240C001C3D3E000000003F000D8F
:100B300040410042434445002600000000000025DB
:100B40000014463B170000000C001A00000000478C
:100B50001722481C4930310000000C4A0D35363749
:100B60000000004B4C4D00000000003D4E4F505126
:100B700000000000606162636400000000007374A4
:100B80007500000001014801015F01015E01015D86
:100B900001015C01015B01015A0101590101580485
:100BA000045253545565666768767778797F8384F5
:100BB00085040456565755696A6B6C7A7B7C7D7F39
:100BC00083868704047F88898A8F9091929697986C
:100BD000997FA4A5A604048B8C8D8E939495929AEC
:100BE0009B9C9DA7A4A8A906066D6E6E6E6E6F7E77
:100BF0007F7F7F7F807E7F7F7F7F807E7F7F7F7F05
:100C0000807E7F7F7F7F809E9F9F9F9FA006067034
:100C10007171717172817F7F7F7F82817F7F7F7F22
:100C200082817F7F7F7F82817F7F7F7F82A1A2A25F
:100C3000A2A2A300000000000000000000000000CD
:100C400000000000000000000000000000000000A4
:100C50000000000000000000000000000000000094
:100C60000000000000000000000000000000000084
:100C7000000000525252525252520052525252529C
:100C800052520052525252525252005252525252E8
:100C900052520052525252525252005252525252D8
:100CA0005252005252525252525200000000000062
:100CB00000000007070707070707000707070707E0
:100CC00007070007070707070707000707070707C2
:100CD00007070007070707070707000707070707B2
:100CE00007070007070707070707000000000000C5
:100CF00000000000000000000000000000000000F4
:100D000000000000000000000000000000000000E3
:100D100000000000373700000000003700003700F7
:100D2000373737370000370037000000373700000B
:100D3000370000000000000000000000000000007C
:100D400000000000000000000000000000000000A3
:100D50000000000000000000000000373700000025
:100D60000000000000000000000000000000000083
:100D70000000000000000000000000000000000073
:100D80000000000000000000000000000000000063
:100D90000000000000000000000000000000000053
:100DA0000037370000000000003737000000000067
:100DB000373737000000000000000000000000008E
:100DC0000000000000000000000000000000000023
:100DD0000000003737373737373737373737373748
:100DE00037373737525252525252375200000000B2
:100DF00000005200000000000000000000000000A1
:100E000000000000000000000000000000000000E2
:100E10000000000000000000000000373700000064
:100E200000000037370000000000003737370000AF
:100E300000000000000000000000000000000000B2
:100E400000000000000000000000000000000000A2
:100E500000000000373700000000003700003700B6
:100E60000037373700003700370000003737000001
:100E7000370000000000000000000000000000003B
:100E80000000000000000000000000000000000062
:100E9000000000000000000000000037000000001B
:100EA000000000003700000000000000000000000B
:100EB000000000000000000037373700000000008D
:100EC00037000000000000003700000000000000B4
:100ED00037000000000000000000000000000000DB
:100EE0000000000000000000000000000000000002
:100EF00000000037000000000000000000000000BB
:100F000000000000000000000000000000000000E1
:100F100000000000000000000000000000000000D1
:100F200000000000000000000000000000000000C1
:100F300000000000000000003737520000000000F1
:100F40003737520000000000373752000000000021
:100F50003737520000000000373752000000000011
:100F60003737520000000000373752000000000001
:100F70003737525237370000000000523737000031
:100F800000000052373700000000005237370000E1
:100F900000000052373700000000005237370000D1
:100FA00000000052373700000000005237370000C1
:100FB00000000000000000003700000000000000FA
:100FC00037000000000000003700000000000000B3
:100FD00000373700000000000000000000000000A3
:100FE0000000000000000000000000000000000001
:100FF00000000000000000000000000000000000F1
:101000000000000037000000000000370000000072
:1010100000000000000000000000000000000000D0
:1010200000000000000000000000000000000000C0
:1010300000000000000000000000000000000000B0
:1010400000000000000037000000000000373700FB
:1010500000003700000037000000000000003700EB
:101060000000000000003700000000000000370012
:101070000000370000000000000000000000000039
:101080000000003737370000003737000000370016
:10109000370000000000370037000000373700003D
:1010A000370037370000000037370000000000002D
:1010B00037000000000000000000000000000000F9
:1010C00000000037000000000000000037000000B2
:1010D000000000373700000000000000370000006B
:1010E0000000000037000000000000003700000092
:1010F0000000000000000000373752000000000030
:10110000373752000000000037375200000000005F
:10111000373752000000000037375237373737373C
:10112000373752000000000037375200000000003F
:10113000373752523737000000000052373700006F
:1011400000000052373700000000005237373737B1
:10115000373737523737000000000052373700006A
:1011600000000052373700000000005237370000FF
:101170000000000000000000000037000000000038
:1011800000003700000000000000370000000000F1
:101190000000370000000000000000000000000018
:1011A0000000370000000000000000000000000008
:1011B00000000037373737000037370000000000E5
:1011C000370000000000000037000037373700000C
:1011D00037003700000037003737000000003700C5
:1011E00037000037373700000037370000000000B5
:1011F0000000003700000000000000003700000081
:101200000000003737000000000000003700000039
:101210000000000037000000000000003700000060
:101220000000003700000000000000000000000087
:1012300000000000003737370000370000000000D2
:10124000000000000000000000000000000000009E
:10125000000000000000000000000000000000008E
:10126000000000000000000000000000000000007E
:101270000000003737373700003737000000000024
:10128000000000000000000000000000000000005E
:10129000000000000000000000000000000000004E
:1012A000000000000000000000000000000000003E
:1012B00000000052373700000000005237370000AE
:1012C000000000523737000000000052373700009E
:1012D0000000005237370000000000523737373720
:1012E0003700005237370000000000523737000047
:1012F000000000373737373737375200000000001B
:10130000373752000000000037375200000000005D
:10131000373752000000000037375200000000004D
:10132000373752000000000037375200000000003D
:10133000373752523737000000000052373700006D
:10134000000000523737000000000052373700001D
:10135000000000523737000000000052373700000D
:10136000000000523737000000000052373737378F
:1013700037373700000000000000000000000000C8
:10138000000000000000000000000000000000005D
:10139000000000000000000000000000000000004D
:1013A0000000000000000000000037000000000006
:1013B00000003700000000000000000000000000F6
:1013C00000000000000000000000000000370000E6
:1013D000003737003737000037000037003700008C
:1013E0003700000000370000370037373737370045
:1013F000373700000000000000000000000000007F
:1014000000000000000000000000003700000000A5
:101410000000000037000000000000373700000027
:10142000000000003700000000000000370000004E
:101430000000000000003700000000000037370007
:1014400000003700000037000000370000003700C0
:1014500000003700000037000000370000003700B0
:1014600000003700003737370000000000000000A0
:101470000000003737370000003737000000370022
:101480003700000000373700370000003700370012
:1014900037003737000037003737000000003700CB
:1014A00037000037373700000037370000000000F2
:1014B000000000000000000037375200000000006C
:1014C0003737520000000000373752373737373789
:1014D000373752000000000037375200000000008C
:1014E000373752000000000037375200000000007C
:1014F0003737520000370000370000000037000087
:10150000003737000000000000000000000000006D
:1015100000000000000000000000000000000000CB
:1015200000000000000000000000000000000000BB
:10153000000000003700000000000037000000003D
:10154000000000000000000000000000000000009B
:10155000000000000000000000000000000000008B
:10156000000000000000000000000000000000007B
:1015700000000000000000003737520000000000AB
:1015800037375200000000003737520000000000DB
:1015900037375200000000003737520000000000CB
:1015A00037375200000000003737523737373737A8
:1015B000373752523737000000000052373737377D
:1015C0003700005237370000000000523737000064
:1015D000000000523737000000000052373700008B
:1015E000000000523737000000000052373700007B
:1015F00000000000000000000000000000000000EB
:1016000000000000000000000000000000000000DA
:1016100000000000000000000000000000000000CA
:101620000000000000000000000000373737000015
:10163000003737000000000000000000000000003C
:10164000000000000000000000000000000000009A
:10165000000000000000000000000000000000008A
:101660000000000000000000000000370000000043
:10167000000000000000000000000000000000006A
:101680000000370000000000000000000000000023
:10169000000000000000000000000000000000004A
:1016A0000000370000000000000000000000000003
:1016B00000000037373700000037370000003700E0
:1016C00037000000000037003700003737370000D0
:1016D00037003700000037003737000000003700C0
:1016E00037000037373700000037370000000000B0
:1016F00000000000000000000000370000000000B3
:1017000000003700000000000000000000000000A2
:10171000000037000000000000003700000000005B
:1017200000000000000000000000000000000000B9
:101730000000000000003700370000000000370004
:101740003700003737370000370037000000370018
:101750003737000000003700370000373737000008
:10176000003737000000000000000000000000000B
:1017700000000000370000000000003737000000C4
:1017800000000000370000000000000037000000EB
:1017900000000000370000000000003700000000DB
:1017A0000000000000000000000000000000000039
:1017B0000000000000000000373752000000000069
:1017C0003737523737373737373752000000000086
:1017D0003737520000000000373752000000000089
:1017E0003737520000000000373752000000000079
:1017F0003737520000000000000000000000000029
:1018000000000000000000000000000000000000D8
:1018100000000000000000000000000000000000C8
:101820000000370000000000000000000000000081
:1018300000000000000000000000000000000000A8
:101840000000000000000000000000000000000098
:10185000000000373737000000373700000037003E
:101860003700000000003700370000003737000065
:1018700037003700000000000000000000000000FA
:101880000000000000000000000000000000000058
:1018900000000037000000000000000037000000DA
:1018A0000000003737000000000000003700000093
:1018B0000000000000000000000000000000000028
:1018C0000000000000000000000000000000000018
:1018D0000000000000000000000000000000000008
:1018E00000000000000000000000000000000000F8
:1018F00000003700000000000000000000000000B1
:1019000000000000000000000000000000000000D7
:101910000000000000000000000000003737000059
:1019200000373737000000003700000000000000DB
:101930003700000000000000000000000000000070
:101940000000000000000000000000000000000097
:101950000000000000000000000000370000000050
:1019600000000000370000000000003737000000D2
:101970000000000000000000000000000000000067
:1019800000003700000000000000370000000000E9
:101990000000000000000000000000000000000047
:1019A0000000000000000000000000000000000037
:1019B0000000003700000000373700000000000082
:1019C0003700003737373700003737000000000096
:1019D0000000000000000000000000000000000007
:1019E00000000000000000000000000000000000F7
:1019F0000000000037000000000000003700000079
:101A0000000000370000000000000000000000009F
:101A100000000000000000000000000000000000C6
:101A200000000000000000000000000000000000B6
:101A3000000000000000000000003700000000006F
:101A40000000370000000000000037000000000028
:101A50000000000000000000000000000000000086
:101A60000000000000000000000000000000000076
:101A7000000000373737000037003700000037001C
:101A800037370000000037003700003737370000D5
:101A900000373700000000000000000000000000D8
:101AA0000000000000000000000000000000000036
:101AB00000000000370000000000000037000000B8
:101AC00000000000370000000000003700000000A8
:101AD0000000000000000000000000000000000006
:101AE00000000000000000000000000000000000F6
:101AF00000000000370000000037373737000000D3
:101B000037000000370000003700000037000000F9
:101B1000370037003700000037370000370000007B
:101B2000370000373737000000373700000000006B
:101B300000000000000000003737520000000000E5
:101B40003737520000000000373752000000000015
:101B50003737520000000000373752000000000005
:101B600037375237373737373737520000000000E2
:101B700037375200000000000000000000000000A5
:101B80000000000000000000000000000000000055
:101B90000000000000000000000000000000000045
:101BA00000003700000000000000370000000000C7
:101BB00000003700000000000000000000000000EE
:101BC0000000000000000000000000000000000015
:101BD0000000003737370000000000000000370029
:101BE0000000000000373700000000003700370019
:101BF0000000000000000000373752373737373712
:101C00003737520000000000373752000000000054
:101C10003737520000000000373752000000000044
:101C20003737520000000000373752000000000034
:101C300037375200000000000000370000000000AD
:101C4000000037000000000000000000000000005D
:101C50000000000000000000000000000000000084
:101C60000000000000000000000000000000000074
:101C700000000037000037000000000000003700BF
:101C800000000037373700000000000000000000AF
:101C90000000000000000000000000000000000044
:101CA0000000000000000000000000000000000034
:101CB0000000000000000000000000000000000024
:101CC00000000000000000000000370000000000DD
:101CD0000000000000000000000000000000000004
:101CE00000000000000000000000370000000000BD
:101CF0000000370000000000000000373737000008
:101D000000373700000037003700000000003700C0
:101D10003700000037370000370037370000000079
:101D20003737000000000000370000373737370032
:101D300000373700000000000000003700000000FE
:101D400000000000370000000000003737000000EE
:101D50000000000037000000000000003700000015
:101D60000000000037000000000000370000000005
:101D700000000000000000003737520000000000A3
:101D800037375200000000003737520000000000D3
:101D900037375237373737373737520000000000B0
:101DA00037375200000000003737520000000000B3
:101DB0003737520000000000000000000000000063
:101DC00000000000000000000000000000003737A5
:101DD00037000000000000000000000000000000CC
:101DE00000000000000000000000000000000000F3
:101DF0000000000000000000003737000000000075
:101E00003700000000000000370000000000000064
:101E100037003700000000003737000000000000E6
:101E2000370000000000000000373700000000000D
:101E300000000000000000000000000000000000A2
:101E40000000000000000000000000000000000092
:101E50000000000000000000000000000000000082
:101E60000000000000000000000000008080808072
:101E70008080000000000000000000000000000062
:101E80000000000000000000000000000000000052
:101E90000000000000000000000000000000000042
:101EA000000037000000000000000000000037378D
:101EB0003700008080808080808080808080C1C1E9
:101EC000808080808080C1C1808080808080C1C10E
:101ED000808080808080C1C1808080808080C1C1FE
:101EE000808080808080C1C1808080808080C1C1EE
:101EF00080808000000000003737520000000000A2
:101F00003737520000000000373752000000000051
:101F10003737520000000000373752000000000041
:101F200037375200000000003737520000000037FA
:101F3000373752808080C1C1808080808080C1C15D
:101F4000808080808080C1C1808080808080C1C18D
:101F5000808080808080C1C1808080808080C1C17D
:101F6000808080808080C1C18080808080908080DF
:101F70004880805237370000000000523737000099
:101F800000000052373700000000005237370000D1
:101F900000000052373700000000005237370000C1
:101FA000000000523737000000000052373737007A
:101FB0000000000000003737375252000037373733
:101FC00052908000373752528080C1373737528065
:101FD00080C1803737528080C1C1C1375252808062
:101FE00080C1C13752808080C1C1C13752408080DA
:101FF00080C1C1808080808080409080808080808F
:10200000808080C1C1C1C180808080C1C1C1C1C187
:10201000C18080C1C1C1C1C1C18080C1C1C1C1C1B4
:10202000C18080C1C1C1C1C1C18080C1C1C1C1C1A4
:10203000C180805252373737000000404052373756
:1020400037000040404852523737008040404052ED
:102050003737378040404048523737804040404013
:1020600052523780404040404852378040404040C4
:10207000485237000000000000000000000000008F
:102080000000000000000000000000000000000050
:102090000000000000000000000000370000000009
:1020A00000000037000000000000003700000000C2
:1020B000000000ADADADADADADADADADADADADAD57
:1020C000ADADADADADADADADADADADADADADADAD40
:1020D000ADADAD0000000000000000000FFFFFFFED
:1020E000FFC0C000FF0F0F0F0FFFFF00C0FFFFFF7B
:1020F000FF0F0FADADADADADADADADADADADADADFA
:10210000ADADADADADADADADADADADADADADADADFF
:10211000ADADAD0000000000000000C0C0C0C0C0F8
:10212000C0C0C0ADADC0C0C0C0C0C00F0FADADAD70
:10213000FFC0C0ADADADADADADADADADADADADAD57
:10214000ADADADADADADADADADADADADADADADADBF
:10215000ADADAD000000ADADADADADC0C000ADAD3D
:10216000ADADADC000ADADADADADADC000000000DA
:10217000000000ADADADADADADADADADADADADAD96
:10218000ADADADADADADADADADADADADADADADAD7F
:10219000ADADADADADADADADADADADADADADADAD6F
:1021A000ADADADADADADADADADADAD0000000000C0
:1021B00000ADADADADADADADADADADADADADADADFC
:1021C000ADADADADADADADADADADADADADADADAD3F
:1021D000ADADAD00000000000000000000000000F8
:1021E00000000000000000000000000000000000EF
:1021F000000000ADADADADADADADADADADADADAD16
:10220000ADADADADADADADADADADADADADADADADFE
:10221000ADADAD000000ADADADADAD000000ADADFC
:10222000ADADAD0000ADADADADADAD000000000099
:10223000000000808080C1C1808080808080C1C11A
:10224000808080808080C1C1808080808080C1C18A
:10225000808080808080C1C1808080808080C1C17A
:10226000808080808080C1C1808080808080C1C16A
:10227000808080008080808080800080808080805E
:10228000808080808080C1C1808080808080C1C14A
:10229000808080808080C1C1808080808080C1C13A
:1022A000808080808080C1C1808080808080C1C12A
:1022B000808080000000000000000000808080809E
:1022C0008080008080808080808080808080C1C10C
:1022D000808080808080C1C1808080808080C1C1FA
:1022E000808080808080C1C1808080808080C1C1EA
:1022F000808080000000000000000000000000005E
:10230000000000008080808080800080808080804D
:10231000808080808080C1C1808080808080C1C1B9
:10232000808080808080C1C1808080808080C1C1A9
:10233000808080000000000000000000000000001D
:10234000000000000000000000000000808080808D
:102350008080008080808080808080808080C1C17B
:10236000808080808080C1C1808080808080C1C169
:1023700080808000000000000000000000000000DD
:10238000000000000000000000000000000000004D
:1023900000000000808080808080008080808080BD
:1023A000808080808080C1C1808080808080C1C129
:1023B000808080000000000000000000000000009D
:1023C000000000000000000000000000000000000D
:1023D00000000000000000000000000080808080FD
:1023E0008080008080808080808080808080C1C1EB
:1023F000808080000000000000000000000000005D
:1024000000000000000000000000000000000000CC
:1024100000000000000000000000000000000000BC
:10242000000000008080808080800080808080802C
:1024300080808000000000000000370000000000E5
:10244000000037000000000000003700000000001E
:10245000000037000000000000003700000000000E
:1024600000003700000000000000370000000000FE
:102470000000003752808080C1C1C1375240808047
:1024800080808037528080808080803752404080BA
:1024900080808037524040404080803752484040E2
:1024A00040404037525240404040403737525240FF
:1024B000404040C1C1C1C1C1808080C1C1C18080D4
:1024C000808080C18080808080804080808080800B
:1024D00080404080808040404040404040404040FC
:1024E00040404040404040404040404040404040EC
:1024F000484048804040404048523740404040407B
:102500004852374040404048485237404040484891
:102510004052374040404848485237404848484871
:10252000525237484848484852523740484840522B
:10253000523737370000000000000037000000006D
:10254000000000370000000000000037000000001D
:10255000000000370000000000000037000000000D
:102560000000003700000000000000000000000034
:1025700000000000C0C0C0C0C0FFAD00C0C0C0C0EF
:10258000C0C0C000C0C0C0C0C0C0C000FFFFFFFFCF
:10259000ADADAD000F0F0F0F0F0F0F000F0F0F0F8F
:1025A0000F0F0F00FFADADADADFFFF00C0C0C0C04D
:1025B000C0C0C0ADAD0F0F0F0FADADC0C0ADFFFFC0
:1025C000FF0F0FC0C0C0C0C0C0AD00ADFFFFFFFF18
:1025D000ADAD000F0F0F0F0F0F00FF0F0F0F0F0FFD
:1025E0000F000FFFFFFFADAD00FFFFC0C0C0C0C0B8
:1025F000000F0F00C0C0AD0F0F0FFF00C0AD0F0FD9
:102600000FFFC0C0C0AD0F0F0FFFC0C0AD0F0F0F49
:10261000FFC0FFC0AD0F0F0FFFAD0FAD0F0F0FFFCE
:102620000F0FFF0F0F0F0F0FADFFC00F0F0F0F0F8B
:102630000F0F0FC0C0C0C0C000ADADC0C0C0C00053
:10264000ADADADC0FFADAD00000000FF0F0F00FF4E
:10265000FF0F000FADAD000F0FFF00ADC0000FFF6B
:10266000FFC000C0C000FFC0C0C0000F00C0C0C09D
:10267000C0C00000000000000000000000000000DA
:10268000000000000F0F0F0F0F0F0F000F0F0F0FA5
:102690000F0F0F000F0F0F0F0F0F0F000F0F0F0F68
:1026A0000F0F0F000F0F0F0F0F0F0F000F0F0F0F58
:1026B0000F0F0F00000000000000000000000000ED
:1026C0000000000F0F0F0F0F0F0F000F0F0F0F0F56
:1026D0000F0F000F0F0F0F0F0F00000F0F0F0F0F37
:1026E0000F000F0F0F0F0F0F000F0F0F0F0F0F0F18
:1026F000000F0F00000000000000000000000000BC
:1027000000000000000000000000000000000000C9
:1027100000000000000000000000000F0F0F0F0F6E
:102720000F0F0F0F0F0F0F0F0F0F0F0F0F0F0F0FB9
:102730000F0F0F000000000000ADAD000000000012
:10274000ADADAD0000000000000000000000000082
:1027500000000000000000000000000F0F0000005B
:102760000000000F0F0000000000000F000000003C
:102770000000000000000000000000000000000059
:1027800000000000000000000000000000005252A5
:102790005252520000005252525252000000525205
:1027A000ADADAD0000005252ADADAD0000005252D3
:1027B000ADADAD0000000000000000000000000012
:1027C000000000000000000000000052525252526F
:1027D0005252525252525252525252ADADADADAD12
:1027E000ADADADADADADADADADADADADADADADAD19
:1027F000ADADAD00000000000000000000000000D2
:10280000000000000000000000000052525252522E
:1028100000000052525252FF000000ADADADFFFF6C
:10282000000000ADADADFFFF000000ADADADFFFF9E
:102830000000000000000000000000000000000098
:102840000000000000000000000000000000FFFF8A
:10285000FFFFFF000000FFFFFFFFFF000000FFFF82
:10286000ADADAD000000FFFFADADAD000000FFFF5E
:10287000ADADAD0000000000000000000000000051
:102880000000000000000000000000FFFFFFFFFF4D
:10289000FFFFFFFFFFFFFFFFFFFFFFADADADADADE2
:1028A000ADADADADADADADADADADADADADADADAD58
:1028B000ADADAD0000000000000000000000000011
:1028C0000000000000000000000000FFFFFFFFFF0D
:1028D000000000FFFFFFFF52000000ADADAD5252FF
:1028E000000000ADADAD5252000000ADADAD525292
:1028F000000000373737524048404000377F52527F
:1029000052484800003737375252400000003737EE
:102910003752520000000037373737000000000000
:1029200037373700000000000000370000000000CB
:10293000000000404040484048484848484848480F
:1029400048484848484848484848485252404848FB
:1029500040485252525252525252523737373737FA
:10296000373737373737373737373700000000000A
:1029700000000048484852523737374840525252B8
:1029800037370049525237373700005252373737FE
:1029900000000037373737000000003737370000B6
:1029A00000000037000000000000000000000000F0
:1029B00000000000C0C0C0C0C0C0C000C0C0C0C0D7
:1029C000C0FFFF00C0C0FFFFFF0F0F00FFFF0F0F92
:1029D0000FFFFF000F0FFFFFFFC0C000000000004F
:1029E000000000ADADADADADADADADADADADADAD1E
:1029F000ADADADC0FFADAD000F0F0FFF0F0F0F005E
:102A0000FF0F0F0FADAD000F0FAD0FFFC0C000FFE8
:102A1000AD0F0FC0C000C0C0AD0F0F000000C0ADB3
:102A20000F0F0FAD00C0C0AD0F0F0FAD00C0AD0F49
:102A30000F0FFF0F0F0F0F0F0F0F0F0F0F0FADFF28
:102A4000FFADAD0F0FFF0F0FC0C0C00FFFC0FFFFE6
:102A50000F0F000FFFC0C0C0ADAD00FFC0C0C0C0B1
:102A6000C0000FFFC0C0C0C0C000FFC0C0C0C0C019
:102A700000C0C00F00C0C0C0C0C00000FFFFFFAD5D
:102A8000FFAD00000F0F0F0F0F0F000F0F0F0F0FF5
:102A90000F0F00FFFFADFFADADAD00FFFFC0C0C029
:102AA000C0C0000F0FFFADC0C0C000FFAD0F0FAD25
:102AB000ADC000003F3FADADAD3F3F003F3FADADCE
:102AC000AD3F3F003FADADAD3F3F3F003FADADAD92
:102AD0003F3F3F00ADADAD3F3F3F3F000000000036
:102AE000000000ADADADADADADADADADADADADAD1D
:102AF000ADADAD3F3FADAD000F0F0F3F3FADAD00F2
:102B00000F0F0F3FADAD003F3F3FAD3FADAD003FBD
:102B10003FADADADAD003F3F3FADAD0000003F3F2D
:102B2000ADADADAD003F3F3FADADADAD003F3FAD55
:102B3000ADAD3F0F0F0F0F0F0F0F0F0F0F0F0F0F39
:102B40000F0F0FADAD3FAD3F3FADADAD3FAD3F3F23
:102B5000ADAD00AD3FAD3F3FADAD003FAD3F3FAD93
:102B6000AD003F3FAD3F3FADAD003FAD3F3FADADF1
:102B7000003FAD0F000F0F0F0F0F00000F0F0F0FD3
:102B80000F0F00000F0F0F0F0F0F000F0F0F0F0F82
:102B90000F0F000F0F0F0F0F0F0F00AD3F3FADAD29
:102BA000AD3F00AD3F3FADADAD3F003F3FADADAD43
:102BB0003F3F000000005252ADADAD000000525248
:102BC000ADADAD0000005252ADADAD0000005252AF
:102BD000ADADAD0000005252ADADAD00000052529F
:102BE000ADADAD0000005252ADADAD00000052528F
:102BF000ADADADADADADADADADADADADADADADAD05
:102C0000ADADADADADADADADADADADADADADADADF4
:102C1000ADADADADADADADADADADADADADADADADE4
:102C2000ADADADADADADADADADADADADADADADADD4
:102C3000ADADADADADADFFFF000000ADADADFFFF83
:102C4000000000ADADADFFFF000000ADADADFFFF7A
:102C5000000000ADADADFFFF000000ADADADFFFF6A
:102C6000000000ADADADFFFF000000ADADADFFFF5A
:102C7000000000000000FFFFADADAD000000FFFF51
:102C8000ADADAD000000FFFFADADAD000000FFFF3A
:102C9000ADADAD000000FFFFADADAD000000FFFF2A
:102CA000ADADAD000000FFFFADADAD000000FFFF1A
:102CB000ADADADADADAD5252000000ADADAD5252B7
:102CC000000000ADADAD5252000000ADADAD5252AE
:102CD000000000ADADAD5252000000ADADAD52529E
:102CE000000000ADADAD5252000000ADADAD52528E
:102CF000000000AD00000000000000ADADADADADC6
:102D0000ADADADADADADADADADADADADADADADADF3
:102D1000ADADADADADADADADADADADADADADADADE3
:102D2000ADADADADADADADADADADADADADADADADD3
:102D3000ADADAD000000000000C0C0ADADADADADAB
:102D400000C0C0ADADADADAD000000ADADADADAD41
:102D5000ADADADADADADADADADADADADADADADADA3
:102D6000ADADADADADADADADADADADADADADADAD93
:102D7000ADADADC0C0ADAD0F0FAD00C0C0C0C0ADFA
:102D8000AD0F000000000000000000ADADADADAD26
:102D9000ADADADADADADADADADADADADADADADAD63
:102DA000ADADADADADADADADADADADADADADADAD53
:102DB000ADADAD0000000000003FADADADADADADBF
:102DC00000AD3FADADADADAD000000ADADADADAD55
:102DD000ADADADADADADADADADADADADADADADAD23
:102DE000ADADADADADADADADADADADADADADADAD13
:102DF000ADADAD3F3FADADAD3F3F003FADADAD3F44
:102E00003F3F000000000000000000ADADADADADE3
:102E1000ADADADADADADADADADADADADADADADADE2
:102E2000ADADADADADADADADADADADADADADADADD2
:102E3000ADADADADADADADADADADADADADADADADC2
:102E4000ADADADADADADADADADAD00ADADADADAD5F
:102E5000ADAD00ADADADAD00000052ADAD000000B8
:102E6000005252ADAD000000005252AD00000052C1
:102E7000525252ADADADADADADADADADADADADAD93
:102E8000ADAD5200000000ADADADAD00000000AD35
:102E9000ADADAD525252520000ADAD5252525252EF
:102EA0005200AD525252525252000052525252529D
:102EB000525200ADADADADADADADAD52ADADADAD00
:102EC000ADADADAD52ADADADADADADAD52ADADADE8
:102ED000ADADADADAD0052ADADADADADAD0052AD32
:102EE000ADADADADAD0052ADADADAD00ADADAD5222
:102EF00052ADAD0F0FADADADADADAD0F0F0FADAD73
:102F0000ADADADAD0F0F0FADADADADADAD0F0F0FA5
:102F1000ADADADADADAD0F0F0FADADADADADAD0F59
:102F20000F0FADADADADADAD0F0F0FADADADADADE7
:102F3000AD0F0FADADADADADADADADADADADADADFD
:102F4000ADADADADADADADADADAD00ADADADADAD5E
:102F5000ADAD00ADADADAD00000052ADAD000000B7
:102F6000005252ADAD0000000052520F000000525E
:102F7000525252ADADADADADADADADADADADADAD92
:102F8000ADAD5200000000ADADADAD00000000AD34
:102F9000ADADAD525252520000ADAD5252525252EE
:102FA0005200AD525252525252000F52525252528D
:102FB000520F0FADADADADAD0F0FAD52ADADAD0F0D
:102FC0000F0FADAD52AD0F0F0FADADAD520F0F0FD7
:102FD000ADADADAD0F0F0FADADADAD0F0F0F52AD30
:102FE000ADADAD0F0F0052ADADADAD0FADADAD524E
:102FF00052ADADADADADADADADADADADADADADAD5C
:10300000ADAD00ADAD000000000000ADAD000000B2
:10301000000000AD000000ADADAD00AD0000ADADF5
:10302000ADAD00AD0000ADADADAD00AD0000525294
:10303000525200AD000000525252520000000052A5
:10304000525252000000525252525200000052524C
:103050005252520000005252520000000000520032
:1030600000ADAD000000520000ADAD000000520008
:1030700000AD525252525252525200525252525279
:1030800052520052525252525252AD525252525217
:103090005252AD00525252525252ADAD0000AD529A
:1030A00052ADADAD0000AD5252ADAD520000ADAD70
:1030B000ADADAD00ADADAD5252ADAD00ADADAD52AB
:1030C00052ADADAD00ADADAD0052ADAD00ADADADED
:1030D0000052ADAD00ADADAD0052ADAD00ADADAD8A
:1030E0000052ADAD00ADADAD0052ADAD00ADADAD7A
:1030F0000052ADADADADADADADAD0FADADADADADA6
:10310000ADAD00ADAD000000000000ADAD000000B1
:10311000000000AD000000ADADAD00AD0000ADADF4
:10312000ADAD00AD0000ADADADAD00AD0000525293
:103130005252000F0F0000525252520F0F0F005206
:10314000525252000F0F0F5252525200000F0F0FE7
:103150005252520000000F0F0F0000000000520FEB
:103160000F0FAD00000052000F0F0F0000005200C3
:10317000000F0F52525252520F0F0F525252520F13
:103180000F0F005252520F0F0F52AD52520F0F0F2E
:103190005252AD000F0F0F525252AD0F0F0FAD52E2
:1031A00052ADAD0F0F00AD5252ADAD0F0000ADAD41
:1031B000ADADADAD00005252525200AD0000000066
:1031C000000000AD00000000000000AD00000000A5
:1031D000000000ADAD000000000000ADADADADAD34
:1031E000ADAD00ADADADADADADAD00ADADADADAD69
:1031F000ADADAD000000520000AD52000000520025
:103200000052520000005252520000000000525280
:10321000520000000000525252ADAD0000000052BA
:1032200052ADAD000000005252ADADAD00000052F5
:1032300052ADAD520000ADADADADAD520000ADAD83
:10324000ADADAD00ADADADADADADAD00ADADADAD08
:10325000ADADADADADADADADADADADADADADADAD9E
:10326000ADAD00ADADADADADADAD00ADADADADADE8
:10327000ADAD00AD00ADADAD0052ADAD00ADADAD8D
:103280000052ADAD00ADADAD0052ADAD00ADADADD8
:103290000052ADAD00ADADAD0052AD00ADADAD5223
:1032A00052ADAD00ADADAD5252ADAD00ADADAD5214
:1032B00052ADADAD00005252525200AD00000000C0
:1032C000000000AD00000000000000AD00000000A4
:1032D000000000ADAD000000000000ADADADADAD33
:1032E000ADAD00ADADADADADADAD0FADADADADAD59
:1032F000AD0F0F00000052000F0F0F000000520F23
:103300000F0F520000000F0F0F000000000F0F0FF3
:10331000520000000F0F0F5252ADAD0F0F0F0052B1
:1033200052ADAD0F0F00005252ADAD0F0000005274
:1033300052ADAD0F0F00ADADADADAD0F0F0FADADDB
:10334000ADADAD000F0F0FADADADAD00AD0F0F0FBB
:10335000ADADADADADAD0F0F0FADADADADADAD0F15
:103360000F0F00ADADADADAD0F0F0FADADADADAD50
:10337000AD0F0FAD00ADADAD0052ADAD00ADADAD1B
:103380000052ADAD00ADADAD0052ADAD00ADADADD7
:103390000052ADAD00ADADAD0052AD00ADADAD5222
:1033A00052ADAD00ADADAD5252ADAD0FADADAD5204
:1033B00052ADAD0000005252ADADAD000000525212
:1033C000ADADAD0000005252ADADAD0000005252A7
:1033D000FFFFFF00000052FFFFFFFF0000000000A2
:1033E00000000000000000000000000000000000DD
:1033F000000000ADADADADADADADADADADADADAD04
:10340000ADADADADADADADADADADADFFFFFFFFFF52
:10341000FFFFFFFFFFFFFFFFFFFFFF0000000000B7
:10342000000000000000000000000000000000009C
:10343000000000ADADADFFFF000000ADADADFFFF82
:10344000000000ADADADFFFF000000FFFFFFFFFF7C
:10345000000000FFFFFFFFFF000000000000000071
:10346000000000000000000000000000000000005C
:10347000000000000000FFFFADADAD000000FFFF49
:10348000ADADAD000000FFFFADADAD000000FFFF32
:10349000525252000000FF525252520000000000EF
:1034A000000000000000000000000000000000001C
:1034B000000000ADADADADADADADADADADADADAD43
:1034C000ADADADADADADADADADADAD5252525252F3
:1034D0005252525252525252525252000000000066
:1034E00000000000000000000000000000000000DC
:1034F000000000ADADAD5252000000ADADAD525276
:10350000000000ADADAD5252000000525252525276
:103510000000005252525252000000000000000011
:10352000000000000000000000000000000000009B
:10353000000000AD0000005252ADADADAD00000086
:1035400000ADADADADADAD000000ADADADADAD000C
:103550000000ADADADADADADADAD00ADADADADADA2
:10356000ADADADADADADADADADADADADADADADAD8B
:10357000ADADADADADADADADADAD00ADADADADAD28
:10358000AD0000ADADADAD000000ADADADADAD0079
:1035900000ADAD00000000ADADADADADADADADADBC
:1035A000ADAD52ADADADADADADAD52ADADADADAD01
:1035B000ADADADADADADAD5252ADADADAD0052ADF9
:1035C000ADADADADAD0052ADADADADADAD0052AD3B
:1035D000ADADADAD52ADADADADADAD52ADADADADD1
:1035E000ADADAD52ADADADADADADADADADADADAD66
:1035F000ADADADADADADADAD0F0F0FADADADAD0F73
:103600000F0FADADADAD0F0F0FADADADAD0F0F0FDA
:10361000ADADADAD0F0F0FADADADAD0F0F0FADAD8E
:10362000ADADAD0F0FADADADADADADADADADADAD06
:10363000ADADADADADADADADADAD0FADADADADAD58
:10364000AD0000ADADADAD000000ADADADADAD00B8
:1036500000ADAD00000000ADADADADADADADADADFB
:10366000ADAD52ADADADADADADAD52ADADADADAD40
:10367000ADADAD0F0FADAD5252ADAD0F0F0F52ADA1
:10368000ADADADAD0F0F0FADADADADADAD0F0F0F1E
:10369000ADADADAD52AD0F0F0FADAD52ADADAD0F88
:1036A0000F0FAD52ADADADAD0F0FADADADADADAD1D
:1036B000ADADAD0000000000000000000000000003
:1036C00000000000000000000000000000000000FA
:1036D00000000000000000000000000000000000EA
:1036E00000000000000000000000000000000000DA
:1036F0000000000000FFFFFF0000000000FFFFFFD0
:103700000000000000FFFFFF0000000000FFFF00BE
:103710000000000000FFFF000000000000000000AB
:103720000000000000FFFF0000000000000000009B
:103730000000000000FF00FF0000000000FF00FF8D
:103740000000000000FF00FF00000000000000007B
:103750000000000000000000000000000000000069
:103760000000000000000000000000000000000059
:1037700000000000FF000000FF0000FFFFFFFFFF50
:10378000FFFF0000FF000000FF000000FF0000003E
:10379000FF000000FF000000FF0000FFFFFFFFFF31
:1037A000FFFF0000FF000000FF000000000000001D
:1037B000000000000000FF0000000000FFFFFFFF0E
:1037C000FFFF00FF0000FF0000000000FFFFFFFF01
:1037D000FF0000000000FF0000FF00FFFFFFFFFFF1
:1037E000FF0000000000FF000000000000000000DB
:1037F000000000FFFF000000000000FFFF0000FFCE
:10380000000000000000FF000000000000FF0000BA
:1038100000000000FF000000000000FF0000FFFFAC
:10382000000000000000FFFF00000000000000009A
:103830000000000000FFFF0000000000FF0000FF8C
:1038400000000000FFFF00FF00000000FFFFFF007E
:10385000000000FF0000FFFF00FF00FF000000FF6E
:10386000FF000000FFFFFFFF00FF0000000000005E
:1038700000000000FFFF000000000000FFFF00004C
:103880000000000000FF000000000000FF0000003A
:103890000000000000000000000000000000000028
:1038A0000000000000000000000000000000000018
:1038B00000000000000000FFFF0000000000FF000B
:1038C0000000000000FF00000000000000FF0000FA
:1038D0000000000000FF0000000000000000FF00EA
:1038E00000000000000000FFFF00000000000000DA
:1038F0000000000000FFFF0000000000000000FFCB
:103900000000000000000000FF00000000000000B8
:10391000FF00000000000000FF000000000000FFAA
:103920000000000000FFFF00000000000000000099
:103930000000000000000000000000000000FF0088
:1039400000000000FF00FF00FF00000000FFFFFF7D
:1039500000000000FF00FF00FF0000000000FF006B
:103960000000000000000000000000000000000057
:103970000000000000000000000000000000FF0048
:10398000000000000000FF0000000000FFFFFFFF3C
:10399000FF0000000000FF00000000000000FF002A
:1039A0000000000000000000000000000000000017
:1039B0000000000000000000000000000000000007
:1039C00000000000000000000000000000000000F7
:1039D0000000000000FFFF000000000000FFFF00EB
:1039E00000000000FFFF00000000000000000000D9
:1039F00000000000000000000000000000000000C7
:103A0000000000000000000000000000FFFFFFFFBA
:103A1000FF000000000000000000000000000000A7
:103A20000000000000000000000000000000000096
:103A30000000000000000000000000000000000086
:103A40000000000000000000000000000000000076
:103A500000000000000000000000000000FFFF0068
:103A60000000000000FFFF00000000000000000058
:103A7000000000000000000000FF00000000000047
:103A8000FF000000000000FF000000000000FF0039
:103A90000000000000FF000000000000FF00000028
:103AA000000000FF00000000000000000000000017
:103AB0000000000000FFFFFF00000000FF0000FF0B
:103AC000FF0000FFFF000000FFFF00FFFF000000FD
:103AD000FFFF00FFFF000000FFFF0000FFFF0000EE
:103AE000FF00000000FFFFFF0000000000000000DA
:103AF000000000000000FFFF0000000000FFFFFFCB
:103B0000000000000000FFFF000000000000FFFFB9
:103B1000000000000000FFFF000000000000FFFFA9
:103B200000000000FFFFFFFFFFFF0000000000009B
:103B300000000000FFFFFFFFFF0000FFFF0000008C
:103B4000FFFF0000000000FFFFFF000000FFFFFF7D
:103B5000FF000000FFFFFFFF000000FFFFFF00006D
:103B6000000000FFFFFFFFFFFFFF0000000000005C
:103B700000000000FFFFFFFFFFFF0000000000FF4C
:103B8000FF0000000000FFFF0000000000FFFFFF3B
:103B9000FF00000000000000FFFF00FFFF0000002A
:103BA000FFFF0000FFFFFFFFFF000000000000001C
:103BB000000000000000FFFFFF00000000FFFFFF0B
:103BC000FF000000FFFF00FFFF0000FFFF0000FFFD
:103BD000FF0000FFFFFFFFFFFFFF0000000000FFEE
:103BE000FF000000000000FFFF00000000000000D8
:103BF000000000FFFFFFFFFFFF0000FFFF000000CD
:103C0000000000FFFFFFFFFFFF00000000000000BA
:103C1000FFFF000000000000FFFF00FFFF000000AA
:103C2000FFFF0000FFFFFFFFFF000000000000009B
:103C30000000000000FFFFFFFF000000FFFF00008A
:103C4000000000FFFF000000000000FFFFFFFFFF7B
:103C5000FF0000FFFF000000FFFF00FFFF0000006B
:103C6000FFFF0000FFFFFFFFFF000000000000005B
:103C7000000000FFFFFFFFFFFFFF00FFFF0000004D
:103C8000FFFF0000000000FFFF0000000000FFFF3A
:103C90000000000000FFFF000000000000FFFF0028
:103CA0000000000000FFFF00000000000000000016
:103CB00000000000FFFFFFFF000000FFFF0000000A
:103CC000FF0000FFFFFF0000FF000000FFFFFFFFFD
:103CD000000000FF0000FFFFFFFF00FF00000000EA
:103CE000FFFF0000FFFFFFFFFF00000000000000DB
:103CF00000000000FFFFFFFFFF0000FFFF000000CB
:103D0000FFFF00FFFF000000FFFF0000FFFFFFFFBD
:103D1000FFFF000000000000FFFF0000000000FFA8
:103D2000FF000000FFFFFFFF000000000000000098
:103D300000000000000000000000000000FFFF0085
:103D40000000000000FFFF00000000000000000075
:103D50000000000000FFFF000000000000FFFF0067
:103D60000000000000000000000000000000000053
:103D700000000000000000000000000000FFFF0045
:103D80000000000000FFFF00000000000000000035
:103D90000000000000FFFF000000000000FFFF0027
:103DA00000000000FFFF0000000000000000000015
:103DB00000000000000000FF000000000000FF0005
:103DC0000000000000FF000000000000FF000000F5
:103DD0000000000000FF0000000000000000FF00E5
:103DE00000000000000000FF0000000000000000D4
:103DF00000000000000000000000000000000000C3
:103E000000000000FFFFFFFFFF00000000000000B7
:103E100000000000FFFFFFFFFF00000000000000A7
:103E20000000000000000000000000000000000092
:103E30000000000000FF0000000000000000FF0084
:103E400000000000000000FF000000000000000073
:103E5000FF000000000000FF000000000000FF0065
:103E60000000000000FF0000000000000000000053
:103E700000000000FFFFFFFFFF0000FFFFFFFFFF4C
:103E8000FFFF00FFFF000000FFFF0000000000FF39
:103E9000FF00000000FFFFFF000000000000000026
:103EA0000000000000FFFFFF000000000000000015
:103EB0000000000000FFFFFF00000000FF00000006
:103EC000FF0000FF0000FF00FF0000FF00FF00FFF9
:103ED000FF0000FF0000FFFF00000000FF000000E7
:103EE0000000000000FFFFFFFF00000000000000D6
:103EF0000000000000FFFFFF00000000FFFF00FFC8
:103F0000FF0000FFFF000000FFFF00FFFF000000B8
:103F1000FFFF00FFFFFFFFFFFFFF00FFFF000000AC
:103F2000FFFF00FFFF000000FFFF00000000000097
:103F3000000000FFFFFFFFFFFF0000FFFF00000089
:103F4000FFFF00FFFF000000FFFF00FFFFFFFFFF7C
:103F5000FF0000FFFF000000FFFF00FFFF00000068
:103F6000FFFF00FFFFFFFFFFFF0000000000000059
:103F70000000000000FFFFFFFF000000FFFF000047
:103F8000FFFF00FFFF000000000000FFFF00000037
:103F9000000000FFFF00000000000000FFFF000025
:103FA000FFFF000000FFFFFFFF0000000000000017
:103FB000000000FFFFFFFFFF000000FFFF0000FF09
:103FC000FF0000FFFF000000FFFF00FFFF000000F8
:103FD000FFFF00FFFF000000FFFF00FFFF0000FFEA
:103FE000FF0000FFFFFFFFFF0000000000000000D7
:103FF000000000FFFFFFFFFFFFFF00FFFF000000CA
:10400000000000FFFF000000000000FFFFFFFFFFB7
:10401000FF0000FFFF000000000000FFFF000000A5
:10402000000000FFFFFFFFFFFFFF00000000000097
:10403000000000FFFFFFFFFFFFFF00FFFF00000089
:10404000000000FFFF000000000000FFFFFFFFFF77
:10405000FF0000FFFF000000000000FFFF00000065
:10406000000000FFFF000000000000000000000052
:104070000000000000FFFFFFFFFF0000FFFF000047
:10408000000000FFFF000000000000FFFF0000FF35
:10409000FFFF00FFFF000000FFFF0000FFFF000028
:1040A000FFFF000000FFFFFFFFFF00000000000017
:1040B000000000FFFF000000FFFF00FFFF00000006
:1040C000FFFF00FFFF000000FFFF00FFFFFFFFFFFB
:1040D000FFFF00FFFF000000FFFF00FFFF000000E8
:1040E000FFFF00FFFF000000FFFF000000000000D6
:1040F00000000000FFFFFFFFFFFF00000000FFFFC8
:10410000000000000000FFFF000000000000FFFFB3
:10411000000000000000FFFF000000000000FFFFA3
:1041200000000000FFFFFFFFFFFF00000000000095
:10413000000000000000FFFFFFFF0000000000FF84
:10414000FF000000000000FFFF000000000000FF73
:10415000FF000000000000FFFF0000FF000000FF64
:10416000FF000000FFFFFFFF000000000000000054
:10417000000000FFFF000000FFFF00FFFF0000FF46
:10418000FF0000FFFF00FFFF000000FFFFFFFF0038
:10419000000000FFFFFFFFFF000000FFFF00FFFF28
:1041A000FF0000FFFF0000FFFFFF00000000000015
:1041B00000000000FFFF000000000000FFFF000003
:1041C00000000000FFFF000000000000FFFF0000F3
:1041D00000000000FFFF000000000000FFFF0000E3
:1041E00000000000FFFFFFFFFFFF000000000000D5
:1041F000000000FFFF000000FFFF00FFFFFF00FFC7
:10420000FFFF00FFFFFFFFFFFFFF00FFFFFFFFFFBC
:10421000FFFF00FFFF00FF00FFFF00FFFF000000A7
:10422000FFFF00FFFF000000FFFF00000000000094
:10423000000000FFFF000000FFFF00FFFFFF000085
:10424000FFFF00FFFFFFFF00FFFF00FFFFFFFFFF7B
:10425000FFFF00FFFF00FFFFFFFF00FFFF0000FF69
:10426000FFFF00FFFF000000FFFF00000000000054
:1042700000000000FFFFFFFFFF0000FFFF00000045
:10428000FFFF00FFFF000000FFFF00FFFF00000036
:10429000FFFF00FFFF000000FFFF00FFFF00000026
:1042A000FFFF0000FFFFFFFFFF0000000000000015
:1042B000000000FFFFFFFFFFFF0000FFFF00000006
:1042C000FFFF00FFFF000000FFFF00FFFF000000F6
:1042D000FFFF00FFFFFFFFFFFF0000FFFF000000E8
:1042E000000000FFFF0000000000000000000000D0
:1042F00000000000FFFFFFFFFF0000FFFF000000C5
:10430000FFFF00FFFF000000FFFF00FFFF000000B5
:10431000FFFF00FFFF00FFFFFFFF00FFFF0000FFA8
:10432000FF000000FFFFFFFF00FF00000000000093
:10433000000000FFFFFFFFFFFF0000FFFF00000085
:10434000FFFF00FFFF000000FFFF00FFFF0000FF76
:10435000FFFF00FFFFFFFFFF000000FFFF00FFFF68
:10436000FF0000FFFF0000FFFFFF00000000000053
:1043700000000000FFFFFFFF000000FFFF0000FF44
:10438000FF0000FFFF00000000000000FFFFFFFF34
:10439000FF00000000000000FFFF00FFFF00000022
:1043A000FFFF0000FFFFFFFFFF0000000000000014
:1043B00000000000FFFFFFFFFFFF00000000FFFF05
:1043C000000000000000FFFF000000000000FFFFF1
:1043D000000000000000FFFF000000000000FFFFE1
:1043E000000000000000FFFF0000000000000000CF
:1043F000000000FFFF000000FFFF00FFFF000000C3
:10440000FFFF00FFFF000000FFFF00FFFF000000B4
:10441000FFFF00FFFF000000FFFF00FFFF000000A4
:10442000FFFF0000FFFFFFFFFF0000000000000093
:10443000000000FFFF000000FFFF00FFFF00000082
:10444000FFFF00FFFF000000FFFF00FFFFFF00FF76
:10445000FFFF0000FFFFFFFFFF00000000FFFFFF66
:10446000000000000000FF0000000000000000004D
:10447000000000FFFF000000FFFF00FFFF00000042
:10448000FFFF00FFFF00FF00FFFF00FFFFFFFFFF38
:10449000FFFF00FFFFFFFFFFFFFF00FFFFFF00FF29
:1044A000FFFF00FFFF000000FFFF00000000000012
:1044B000000000FFFF000000FFFF00FFFFFF00FF04
:1044C000FFFF0000FFFFFFFFFF00000000FFFFFFF6
:1044D00000000000FFFFFFFFFF0000FFFFFF00FFE5
:1044E000FFFF00FFFF000000FFFF000000000000D2
:1044F00000000000FFFF0000FFFF0000FFFF0000C2
:10450000FFFF0000FFFF0000FFFF000000FFFFFFB4
:10451000FF0000000000FFFF000000000000FFFFA0
:10452000000000000000FFFF00000000000000008D
:10453000000000FFFFFFFFFFFFFF0000000000FF83
:10454000FFFF00000000FFFFFF00000000FFFFFF73
:1045500000000000FFFFFF00000000FFFFFF000061
:10456000000000FFFFFFFFFFFFFF00000000000052
:104570000000000000FFFFFFFF00000000FFFF0041
:104580000000000000FFFF000000000000FFFF002F
:104590000000000000FFFF000000000000FFFF001F
:1045A0000000000000FFFFFFFF000000000000000F
:1045B0000000000000FFFFFFFF000000FF00000000
:1045C00000FF00FF0000FFFF0000FFFF00FF0000F2
:1045D0000000FFFF00FF00000000FFFF0000FFFFE2
:1045E0000000FF00FF00000000FF000000FFFFFFD1
:1045F000FF00000000FFFFFFFF000000000000FFC1
:10460000FF000000000000FFFF000000000000FFAE
:10461000FF000000000000FFFF000000000000FF9E
:10462000FF00000000FFFFFFFF000000000000008F
:104630000000000000FF000000000000FF00FF007D
:10464000000000FF000000FF00000000000000006C
:10465000000000000000000000000000000000005A
:10466000000000000000000000000000000000004A
:10467000000000000000000000000000000000003A
:10468000000000000000000000000000000000002A
:10469000000000000000000000000000000000001A
:1046A000000000FFFFFFFFFFFFFF00000000000011
:1046B0000000000B092909470965098309A109BF01
:1046C00009DD09FB09190A840B870B8A0B8D0B90F6
:1046D0000B930B960B990BFFFFFFFFFFFFFFFFFFF5
:1046E000ADADADADADADADFFADADFF5BADADFFFF04
:1046F000ADADFF5BADADFFFFADADFF5BADADFFFFA2
:10470000ADADADADADADADFF5B5252525252525256
:1047100000000000000000FFFFFFFFFFFFFF52ADA1
:10472000ADADADADAD5B005BADADFF5BAD52005B64
:10473000ADADFF5BAD52005BADADFF5BAD5200AD0B
:10474000ADADADADAD520052525252525252000078
:1047500000000000000000FEFFFFFFFFFF00FEFE64
:10476000FFADADADAD00FEFEFFADFFFFAD00FEFE47
:10477000FFAD5252AD00FEFEFFADADADAD00FEFE91
:10478000FFADFFFFAD00FEFEFFAD5252AD00FEFEDD
:10479000FF0000000000FE0000FEFEFEFEFEFE0028
:1047A000FF00FEFEFEFEFE00FFFF00FEFEFEFE001E
:1047B000FFFFFF00FEFEFE00FFFFFFFF00FEFE000A
:1047C000FFFFFFFFFF00FE00FFFFFFFFFFFF0000F6
:1047D000FFFFFFFF0000FE00FEFEFEFEFEFEFE00ED
:1047E00000FEFEFEFEFEFE00FF00FEFEFEFEFE00E0
:1047F000FFFF00FEFEFEFE00FFFFFF00FEFEFE00CC
:10480000FFFFFFFF00FEFE00FFFFFFFFFF00FE00B7
:10481000FFFFFFFFFFFF00FEFEFEFEFEFEFEFEFEB0
:10482000FEFEFEFEFEFEFEFEFEFEFEFEFEFEFEFEA8
:10483000FEFEFEFEFEFEFEFEFEFEFEFEFEFEFEFE98
:10484000FEFEFEFEFEFEFEFEFEFEFEFEFEFEFEFE88
:10485000FEFEFEFEFEFEFE00FF0000FF00FEFE006C
:1048600000FE00FFFF00FEFEFEFE0000FF00FEFE59
:10487000FEFEFE0000FEFEFEFEFEFEFEFEFEFEFE54
:10488000FEFEFEFEFEFEFEFEFEFEFEFEFEFEFEFE48
:10489000FEFEFEFEFEFEFE00FFFFFFFF000000002A
:1048A000FFFFFFFF00FEFE00FF0000FFFF00FE0015
:1048B00000FE00FFFF00FEFEFEFEFE00FFFF00FE0A
:1048C000FEFEFE00FFFF00FEFEFEFEFE0000FEFEFE
:1048D000FEFEFEFEFEFEFE020100010101020102DB
:1048E000040747455200454E470044454D4F204D73
:1048F0004F4445004641494C4544004F4B00494E0A
:10490000495449414C495A494E472053454E534F0B
:10491000522E2E2E004641494C4544004641494CFA
:104920004544004F4B00474552004C4F41442047FF
:1049300045524D414E20564F494345532E2E2E0091
:104940004F4B00454E47004C4F414420454E474C8D
:1049500049534820564F494345532E2E2E004F4B66
:104960000046495253542052454144204641494C47
:104970004544004641494C4544004641494C454464
:1049800000494E495449414C495A494E47205344E5
:104990002E2E2E00454D554C41544F522044455427
:1049A000454354454421005757572E4857484152D4
:1049B00044534F46542E44452E5655002843292033
:1049C000484152544D55542057454E44542032309E
:1049D000313200555A45544845524D2056455253A0
:1049E000494F4E20312E310011241FBECFEFD0E1B0
:1049F000DEBFCDBF14BE88E10FB6F894809360008F
:104A0000109260000FBE12E0A0E0B1E0E2EDF7E826
:104A100002C005900D92A231B107D9F710E1A0E2D2
:104A2000B2E001C01D92AC32B107E1F70E94442F01
:104A3000882311F40E945A2FF894E2E2FAE080E809
:104A400081939CE0EE32F907D9F782E29AE09093E5
:104A50002F0C80932E0C1092300C1092340C10926C
:104A60003E0C1092480C1092520C1092810015BC12
:104A70008FEF87B984B980E98AB98BB18C618BB922
:104A80008CE081B98BEF82B91092F00986E08093B7
:104A9000F10980EE8093FD0984E18093FC09109276
:104AA00085001092840083E0809389008DE88093D4
:104AB000880089E08093810082E080936F0082E427
:104AC00084BD17BC91E095BD83E88093B00010923F
:104AD000B3009093B10081E185B91092090A109258
:104AE000F4091092F5091092040A1092030A109228
:104AF000080A1092070A1092200A9093330C0E9421
:104B0000DB2E80E00E94B72E80FF03C084E00E946D
:104B1000B42E0E94353778940E94F9370E944142A2
:104B20000C94E7430C94000009E00A95F1F700C0EB
:104B3000EAE9F9E0C0E2D2E02091DF0C0027A08191
:104B4000B181AC0FBD1F1C911283021708F4102F06
:104B50001C9333960395003190F303E316E01A9506
:104B6000F1F70A95D9F7C0E2D2E000EEA02E662751
:104B700078E02CD237E23A95F1F70E94F3253BE03A
:104B80003A95F1F700C0AA9489F06395C89568300A
:104B900029F0C895C895C8950000EBCF662700247A
:104BA0003EE1C30FD01DC8950000E3CF35E03A9534
:104BB000F1F700C00BD211240E94803611E0009161
:104BC000F30901270093F3092091F409002309F068
:104BD00021272093F409E1E0E093F209E2E0E09379
:104BE000360011240895DE01679F00000091FE0940
:104BF0001091FF0900501440000D111D18010AE921
:104C000015E0000D111D280130E41EE12D91203129
:104C10006FB660FA239FA1010EF4A201040E151EC7
:104C2000F001F6F0059108B92D91059108B9239F7F
:104C3000059108B920316FB6059108B908F4A201B1
:104C4000059108B960FA040E059108B9151E1A9568
:104C5000059108B9059139F1F00108B91EF700C0B6
:104C6000019108B92D910191000008B9239F01918C
:104C7000000008B920316FB660FA019108B90EF052
:104C8000A1010191040E08B9151E00C0019108B9D7
:104C9000000000C0019108B901911A9521F0F001BE
:104CA00008B906F6DDCF08B90027C895000008B995
:104CB00005E00A95F1F7089520E4E091FE09F091EE
:104CC000FF098051829FE00DF11DAAE9B5E0629FC6
:104CD000A00DB11D002405900D9205900D92059038
:104CE0000D9205900D9205900D9205900D920590F4
:104CF0000D9205900D9205900D9205900D920590E4
:104D00000D9205900D9205900D9205900D920590D3
:104D10000D9205900D9205900D9205900D920590C3
:104D20000D9205900D9205900D9205900D920590B3
:104D30000D9205900D9205900D9205900D920590A3
:104D40000D9205900D9205900D9205900D92059093
:104D50000D9205900D9205900D9205900D92059083
:104D60000D9205900D9205900D9205900D92059073
:104D70000D9205900D9205900D9205900D92059063
:104D80000D9205900D9205900D9205900D92059053
:104D90000D9205900D9205900D9205900D92059043
:104DA0000D9205900D9205900D9205900D92059033
:104DB0000D9205900D9205900D9205900D92059023
:104DC0000D9205900D9205900D9205900D92059013
:104DD0000D9205900D92112408950F931F9395E065
:104DE000899FE8E6F5E0E00DF11D04818281938161
:104DF000E0E48E9FD0019E9FB00D98E0099FEAEC01
:104E0000F9E00024E10DF01D00801180F001EA0FAF
:104E1000FB1FAAE9B5E090E4699FA00DB11D112424
:104E2000403051F4A20FB11D822F122F00FF11C08C
:104E3000379610E1121B0DC088E0821B00FD04C0F4
:104E4000182FE80FF11D05C018E0120FE20FF11D39
:104E50003197503031F498E0939FA00DB11D932FFE
:104E600006C098E0931B58E0599FE00DF11D1124F6
:104E70003EEFE89400FD689458E0591B48E0481B59
:104E80003EF0259123132C9311964A95D1F707C034
:104E90002491319723132C9311964A95C9F7E10F6A
:104EA000F11DA80FB11D5A9549F711241F910F91BB
:104EB0000895F4270B2819285D2728980E94A22816
:104EC000EBE0EA95F1F700C0E7E0E0938900EBE161
:104ED000E0938800E0E0F6E0D1D0289AE0FF30D0FF
:104EE000E0FF2DC02F933F934F935F936F937F937A
:104EF0008F939F93AF93BF9378941124E091F60919
:104F0000F091F709E115F10509F009950E940B39B7
:104F10000E94162F0E947D281124E091F809F0913B
:104F2000F909E115F10509F00995BF91AF919F913C
:104F30008F917F916F915F914F913F912F91089544
:104F4000EF93FDEF0090FA09F019E091F109EF17E6
:104F5000B8F4FDEF0090FA09F0190090FB09F01980
:104F6000EF1770F0EDE1FF2700800F92EA95E1F76F
:104F70000E949425E1E0FF270F900192EE31E0F3CB
:104F8000EF910895FF93EF93EFB7EF93E0918400D3
:104F9000EE50F1E0EF1700F0F395FA30D8F305D0BA
:104FA000EF91EFBFEF91FF9118950F921F92E2EBF7
:104FB000FEE40090F009000C1124E00DF11D0590B5
:104FC0001490F00109951F900F90089528980E9461
:104FD000A228E5E1EA95F1F7E091F109EA95E0937D
:104FE000F109289A00C0089528980E94C428289A98
:104FF0000000E1E0F6E042D0E3E0E0938900EDE874
:10500000E0938800F091FC09F093FA09F091FD0912
:10501000F093FB09089528980E94C428E9EA00004B
:10502000EA95E9F700C00000F6E0E2E027D0289A10
:10503000089528980E94C428289A0000E3E0FDEF14
:105040001DD0E091F109E53091F4E091F309E130F0
:105050000000F091090A19F4F091090AF195E3E0D2
:10506000E0938900EDE8EF0FE09388000895E3E016
:10507000E0938900EDE8E093880008950090F1093D
:105080000A9410905F0011FC0F2E0092F10900901D
:10509000F00911FC0E2E0092F009E0E011FCE1E0B5
:1050A000089599277727E8E0F1E6660F771FE60F66
:1050B000F71FA591B491E4E3FCE02AE0289FE00DFE
:1050C000F11DA183B2831124089599277727E4E382
:1050D000FCE02AE0289FE00DF11D73E6760F758352
:1050E0001124089599277727E4E3FCE02AE0289F1C
:1050F000E00DF11D6083112408950090300C002014
:1051000019F4A2E2BAE002C0A8E2BBE021E0022664
:105110000092300C22E02093310C0895E0912E0C87
:10512000F0912F0C019100000093B3000CE0EE32DF
:10513000F00702E21AE008F0F801E0932E0CF09379
:105140002F0C08950C94A4280C94A6280F931F9359
:105150002F93E0912E0CF0912F0C01910093B3004E
:105160000CE0EE32F00708F400C010F0E2E2FAE0E2
:10517000E0932E0CF0932F0C26E02A95F1F700C057
:105180002F911F910F9108950000E091F109E0FF28
:10519000DDCFE1E1EA95F1F700C00895A0E0B0E0CD
:1051A000E4EDF8E20C94B043DC012B01FA019C9190
:1051B000923008F439C1EB018881823008F433C1A0
:1051C000943069F4843009F02FC111969C911197A5
:1051D0008981981709F428C1AAE0B1E025C184307B
:1051E00009F421C18230A9F4923009F01DC19A015D
:1051F000AD0188E0EA010990AE01E90109929E0142
:105200008150C1F7E201898111969C9189238183A4
:1052100008C1923009F407C112962D903C90139763
:10522000EB018A819B811496AD90BD90CD90DC906E
:105230001797EC80FD800E811F819101281B390B8F
:10524000B90137FF04C066277727621B730B6032F2
:1052500071050CF061C0121613066CF53701480198
:10526000062E04C096948794779467940A94D2F794
:1052700021E030E040E050E004C0220F331F441F23
:10528000551F6A95D2F721503040404050402E21A2
:105290003F2140235123211531054105510521F0BE
:1052A00021E030E040E050E079018A01E628F7286B
:1052B000082919293CC0232BD1F1260E371E3501B0
:1052C0004601062E04C096948794779467940A94B6
:1052D000D2F721E030E040E050E004C0220F331F5D
:1052E000441F551F6A95D2F721503040404050402E
:1052F0002A213B214C215D21211531054105510514
:1053000021F021E030E040E050E059016A01A62898
:10531000B728C828D9280BC0821593052CF01C018A
:10532000AA24BB24650103C0EE24FF248701119643
:105330009C91D20111968C91981709F445C099233C
:1053400039F0A80197012A193B094C095D0906C0EB
:10535000A60195012E193F09400B510B57FD08C0BE
:1053600011823382228224833583468357831DC072
:1053700081E081833382228288279927DC01821B86
:10538000930BA40BB50B84839583A683B7830DC0C1
:10539000220F331F441F551F2483358346835783B1
:1053A0008281938101979383828324813581468111
:1053B0005781DA01C9010197A109B1098F5F9F4F98
:1053C000AF4FBF4328F30BC0918333822282EA0C94
:1053D000FB1C0C1D1D1DE482F5820683178383E0F0
:1053E0008083248135814681578157FF1AC0C901C6
:1053F000AA2797FDA095BA2F81709070A070B07009
:105400005695479537952795822B932BA42BB52B33
:1054100084839583A683B783828193810196938346
:105420008283DF0101C0D201CD01CDB7DEB7E2E159
:105430000C94CC43A0E2B0E0E0E2FAE20C94BC436E
:1054400069837A838B839C832D833E834F83588724
:10545000E9E0EE2EF12CEC0EFD1ECE010196B70117
:105460000E94A82D8E010F5E1F4FCE010596B80138
:105470000E94A82D8A8991E089278A8BC701B801EB
:10548000AE01475E5F4F0E94CE280E94D32CA096AB
:10549000E6E00C94D843A0E2B0E0E1E5FAE20C9437
:1054A000BC4369837A838B839C832D833E834F83A4
:1054B0005887F9E0EF2EF12CEC0EFD1ECE0101967F
:1054C000B7010E94A82D8E010F5E1F4FCE010596D9
:1054D000B8010E94A82DC701B801AE01475E5F4F19
:1054E0000E94CE280E94D32CA096E6E00C94D843CC
:1054F000A0E2B0E0EEE7FAE20C94B04369837A836D
:105500008B839C832D833E834F835887CE010196E6
:10551000BE01675F7F4F0E94A82DCE010596BE0198
:105520006F5E7F4F0E94A82D9985923088F08989FF
:105530008230C8F0943019F4823051F404C08430C1
:1055400029F4923081F48AE091E0C6C0923049F4A7
:1055500020E09A858A89981321E02A87CE0109964E
:10556000BBC0823049F420E09A858A89981321E0F3
:105570002A8BCE014196B0C02D843E844F8458883A
:105580006D887E888F88988CEE24FF248701AA245A
:10559000BB24650140E050E060E070E0E0E0F0E056
:1055A000C10181709070892BE9F0E60CF71C081D91
:1055B000191D9A01AB012A0D3B1D4C1D5D1D80E09C
:1055C00090E0A0E0B0E0E614F7040805190520F427
:1055D00081E090E0A0E0B0E0BA01A901480F591FB6
:1055E0006A1F7B1FAA0CBB1CCC1CDD1C97FE08C0CD
:1055F00081E090E0A0E0B0E0A82AB92ACA2ADB2A1C
:105600003196E032F10549F0660C771C881C991C34
:105610005694479437942794C3CFFA85EA892B8907
:105620003C898B859C85280F391F2E5F3F4F17C003
:10563000CA0181709070892B61F016950795F794D7
:10564000E79480E090E0A0E0B0E8E82AF92A0A2B8D
:105650001B2B76956795579547952F5F3F4F77FDA5
:10566000E7CF0CC0440F551F661F771F17FD416021
:10567000EE0CFF1C001F111F21503040403090E005
:10568000590790E0690790E4790760F32B8F3C8F0E
:10569000DB01CA018F779070A070B07080349105E3
:1056A000A105B10561F447FD0AC0E114F10401054B
:1056B000110529F0405C5F4F6F4F7F4F40781A8E85
:1056C000FE1711F081E08A8F4D8F5E8F6F8F78A368
:1056D00083E0898FCE0149960E94D32CA096E2E107
:1056E0000C94CC43A8E1B0E0E8E7FBE20C94BC43A7
:1056F00069837A838B839C832D833E834F83588772
:1057000089E0E82EF12CEC0EFD1ECE010196B701CA
:105710000E94A82D8E010F5E1F4FCE010596B80185
:105720000E94A82D8985823040F08989823028F036
:10573000C701B8010E94202E01C08FEF6896E6E0F5
:105740000C94D843A8E1B0E0E8EAFBE20C94BC4337
:1057500069837A838B839C832D833E834F83588711
:1057600089E0E82EF12CEC0EFD1ECE010196B7016A
:105770000E94A82D8E010F5E1F4FCE010596B80125
:105780000E94A82D8985823040F08989823028F0D6
:10579000C701B8010E94202E01C081E06896E6E0B2
:1057A0000C94D843A8E0B0E0E8EDFBE20C94B943D8
:1057B0009B01AC0183E08983DA01C9018827B7FD29
:1057C00083959927AA27BB27B82E211531054105B6
:1057D000510519F482E089833AC08823A9F020306A
:1057E00080E0380780E0480780E8580729F460E047
:1057F00070E080E09FEC30C0EE24FF248701E21AC5
:10580000F30A040B150B02C079018A018EE1C82E40
:10581000D12CDC82CB82ED82FE820F831887C801F7
:10582000B7010E94842C01971816190684F4082EDB
:1058300004C0EE0CFF1C001F111F0A94D2F7ED826A
:10584000FE820F831887C81AD90ADC82CB82BA82FB
:10585000CE0101960E94D32C2896E9E00C94D54302
:10586000ACE0B0E0E6E3FCE20C94C04369837A83E9
:105870008B839C83CE010196BE016B5F7F4F0E949C
:10588000A82D8D81823061F1823050F1843021F475
:105890008E81882351F12EC02F81388537FD20C09D
:1058A0006E812F3131051CF06623F9F023C08EE1A3
:1058B00090E0821B930B29853A854B855C8504C05B
:1058C00056954795379527958A95D2F76623B1F077
:1058D00050954095309521953F4F4F4F5F4F0EC0EB
:1058E00020E030E040E050E009C02FEF3FEF4FEF05
:1058F0005FE704C020E030E040E050E8B901CA01B1
:105900002C96E2E00C94DC43EF92FF920F931F93EE
:105910007B018C0180E0E81680E0F80681E0080752
:1059200080E0180788F48FEFE816F10401051105EF
:1059300031F028F088E090E0A0E0B0E017C080E00F
:1059400090E0A0E0B0E012C080E0E81680E0F80649
:1059500080E0080781E0180728F088E190E0A0E0E7
:10596000B0E004C080E190E0A0E0B0E020E230E0F0
:1059700040E050E0281B390B4A0B5B0B04C0169526
:105980000795F794E7948A95D2F7F701EE5EFE4FFC
:105990008081281B310941095109C9011F910F91CB
:1059A000FF90EF900895DF92EF92FF920F931F9375
:1059B000FC01E480F58006811781D18080818230EE
:1059C00048F480E090E0A0E1B0E0E82AF92A0A2B50
:1059D0001B2BA5C0843009F49FC0823021F4EE2433
:1059E000FF24870105C0E114F1040105110519F434
:1059F000E0E0F0E096C0628173819FEF6238790742
:105A00000CF05BC022E83FEF261B370B2A31310533
:105A10002CF020E030E040E050E02AC0B801A701BF
:105A2000022E04C076956795579547950A94D2F74C
:105A300081E090E0A0E0B0E004C0880F991FAA1FA9
:105A4000BB1F2A95D2F70197A109B1098E219F2189
:105A5000A023B1230097A105B10521F081E090E0DA
:105A6000A0E0B0E09A01AB01282B392B4A2B5B2B2D
:105A7000DA01C9018F779070A070B0708034910501
:105A8000A105B10539F427FF09C0205C3F4F4F4FF6
:105A90005F4F04C0215C3F4F4F4F5F4FE0E0F0E0AD
:105AA0002030A0E03A07A0E04A07A0E45A0710F02F
:105AB000E1E0F0E079018A0127C06038710564F502
:105AC000FB01E158FF4FD801C7018F779070A0709C
:105AD000B07080349105A105B10539F4E7FE0DC021
