:100000000C94E0010C944C020C944C020C944C02A5
:100010000C944C020C944C020C944C020C944C0228
:100020000C944C020C944C020C944C020C944C0218
:100030000C944C020C9422040C9462040C944C0218
:100040000C944C020C944C020C944C020C944C02F8
:100050000C944C020C944C020C944C020C944C02E8
:100060000C944C020C944C020C944C020C944C02D8
:100070005A5501200101003808000000000000006E
:100080000000000000000000000000000000000070
:100090008100450027FF24FF2A902B1C210C22FB06
:1000A000850084008903888D81096F0244424700DE
:1000B0004501B083B300B10125118A4F8B03A90616
:1000C000AC06B506BA06C306CB06D006D506D806DA
:1000D000EA06ED06F006340700408891D2E4ADB59B
:1000E000B6BEBFFF010001000000010001000100D9
:1000F00001000100020001000100030001000100F5
:1001000004000100010005000100010006005B5B26
:100110005B5B5B5B5B5B5B5B5B5B5B5B5B5B5B5B2F
:100120005B5B5B5B5B5B5B5B5B5B5B5B5B5B5B5B1F
:100130005B5B5B5B5B5B5B5B5B5B5B5B5B5B5B5B0F
:100140005B5B5B5B5B5B5B5B5B5B5B5B5B5B5B5BFF
:100150005B5B5B5B5B5B5B5656565656565B5B5612
:1001600056565656565B5B5656565656565B5B561B
:1001700056565656565B5B5656565656565B5B560B
:1001800056565656565B00000000000000005B5BB0
:100190005B5B5B5B5B5B5B9191919191915B5B9135
:1001A00091919191915B5B9191919191915B5B9117
:1001B00091919191915B5B9191919191915B5B9107
:1001C00091919191915B00000000000000005B5B49
:1001D0005B5B5B5B5B5B5B5B5B5B5B5B5B5B5B5B6F
:1001E0005B5B5B5B5B5B5B7D7D7D7D7D7D5B5B7D71
:1001F0007D7D7D7D7D5B5B7D7D7D7D7D7D5B5B7DB7
:100200007D7D7D7D7D5B5B5B5B5B5B5B5B5B5B5B94
:100210005B5B5B5B5B5B5B5B5BADAD5B5B5B5B5B8A
:10022000ADADADAD5B5B5BADADADADADAD5B5BAD98
:10023000ADADADADAD5B5B5BADADADAD5B5B5B5B2C
:100240005BADAD5B5B5B5B5B5B5B5B5B5B5B5B5B5A
:100250005B5B5B5B5B5B5B5B5B5B5B5B5B5B5B5BEE
:100260005B5B5B5B5B5B5B5B5B5B5B5B5B5B5B5BDE
:100270005B5B5B5B5B5B5B5B5B5B5B5B5B5B5B5BCE
:100280005B5B5B5B5B5B00000000000000005B5B96
:100290005B5B5B5B5B5B5B5B5B04045B5B5B5B5B5C
:1002A000040404045B5B5B0404040404045B5B045B
:1002B00004040404045B5B5B040404045B5B5B5B9D
:1002C0005B04045B5B5B5B5B5B5B5B5B5B5B0002E0
:1002D000030000F804040C04040C04040C040500DE
:1002E00000FF0002040000F602040C02040C0204E9
:1002F0000602040602040602050000FF00020600D2
:1003000000FB00FF0001010007900000E20805006B
:1003100000FF0002080107C80106000100E700FF16
:100320000000EC0001020107000207FF00010300CA
:10033000FF0002040000F10400F900FF0000ED00DE
:10034000010602010100FF0001000007A00000EC0F
:100350000100FE00010100FF000208000764010027
:10036000140500F700FF000000CE020000000000AE
:100370000000E20200000000000000FC020000009B
:10038000000000000403000000000100004703001B
:100390000000000000002003000000000000003109
:1003A00003000000000100003C030000000000000A
:1003B00000580300000000010000120300000000CC
:1003C00011241FBECFEFD0E1DEBFCDBF14BE88E148
:1003D0000FB6F89480936000109260000FBE12E098
:1003E000A0E0B1E0E4EFFBE202C005900D92A8307E
:1003F000B107D9F71FE0A0E2B2E001C01D92AE3C08
:10040000B107E1F70E949306882311F40E94700659
:10041000F89491E09093B60E9093B70E9093B50E2A
:100420001092A20E1092A80E1092AE0E1092B40E60
:100430001092BA0E10926E0E1092700E82E180939E
:100440006F0E88ED8093780E8093760E88E180930E
:10045000770E8093750E10927C0E10927B0E109288
:10046000800E10927F0E9093A10E0E94EC1120E955
:1004700030E0F90185919491FC01F07090832E5F3A
:100480003F4F80E02E3B3807A1F778940E94EB1194
:100490000E94C9130C94F8150C9400000CE00A9506
:1004A000F1F7E0E0FEE0C0E2D2E02091CA0F0027C1
:1004B000A081B181AC0FBD1F1C911283021708F4FB
:1004C000102F1C9333960395003290F30DE116E044
:1004D0001A95F1F70A95D9F720906C0E30906D0EB1
:1004E0000091680E1091690E680138018BE1C0E23D
:1004F000D2E04E01002430916B0E303009F0C0EE96
:1005000009F0D5E009F0832F09F0610108EDA02E74
:10051000662778E07DD23CE03A95F1F700000000D4
:100520000E94C1023FE03A95F1F700000000AA9452
:10053000A9F06395C895683031F033E03A95F1F74A
:1005400000000000E7CF662700243EE1C30FD01D66
:100550008A9509F4E40109F46301DCCF36E03A95A9
:10056000F1F756D211240E940011E091700E42E082
:10057000E160E427E093700EE2E0E093360011249E
:100580000895DE01679F860100501840000D111D7F
:10059000180100E016E0000D111D280130E41EE1F5
:1005A0002D91239FA101203208F4A201040E151EF3
:1005B000F0012032F0F0059108B92D91059108B9AC
:1005C000239F059108B920320000059108B908F46D
:1005D000A201059108B9040E151E059108B9203233
:1005E0001A95059108B9059131F1F00108B918F78C
:1005F00000C0019108B92D910191000008B9239F15
:100600000191000008B9203200C0019108B908F03A
:10061000A1010191040E08B9151E00C0019108B98D
:10062000203200C0019108B901911A9521F0F00122
:1006300008B908F6DECF08B90027C895000008B948
:10064000089520E4E091680EF091690E8052829F37
:10065000E00DF11DA0E0B6E0629FA00DB11D0024E9
:1006600005900D9205900D9205900D9205900D92BA
:1006700005900D9205900D9205900D9205900D92AA
:1006800005900D9205900D9205900D9205900D929A
:1006900005900D9205900D9205900D9205900D928A
:1006A00005900D9205900D9205900D9205900D927A
:1006B00005900D9205900D9205900D9205900D926A
:1006C00005900D9205900D9205900D9205900D925A
:1006D00005900D9205900D9205900D9205900D924A
:1006E00005900D9205900D9205900D9205900D923A
:1006F00005900D9205900D9205900D9205900D922A
:1007000005900D9205900D9205900D9205900D9219
:1007100005900D9205900D9205900D9205900D9209
:1007200005900D9205900D9205900D9205900D92F9
:1007300005900D9205900D9205900D9205900D92E9
:1007400005900D9205900D9205900D9205900D92D9
:1007500005900D9205900D9205900D9205900D92C9
:10076000112408950F931F93CF93DF9394E0899FF3
:10077000E0EEF5E0E00DF11D03818281E0E48E9F63
:10078000D00198E0099FC0E6DEE00024C10DD01D35
:10079000E881F981EA0FFB1FA0E0B6E090E4699FD1
:1007A000A00DB11D1124DD27403051F4A20FB11D61
:1007B000822FC22F00FF11C03796C0E1C21B0DC0AF
:1007C00088E0821B00FD04C0C82FE80FF11D05C0A2
:1007D000C8E0C20FE20FF11D3197503041F498E0AC
:1007E000939FA00DB11D932F01FDF8960AC098E0CC
:1007F000931B632F6A9501FF692F58E0569FE00D08
:10080000F11D6FEF7FEF00FF61E000FF772701FD33
:10081000609711243EEF58E0591B48E0481B249193
:1008200023132C931196E60FF71F4A95C1F7EC0F8F
:10083000FD1FA80FB11D5A9581F7DF91CF911F9130
:100840000F9108950F921F92EF93FF93EFB7EF93DD
:10085000E0918400E251F1E0EF1700F0F395FA30F7
:10086000D8F30C943304E0916F0EEA95E0936F0E89
:10087000F0916E0EF0FD57C0EC3098F0F3E0F0937D
:100880008900FDE8F0938800E0FB289826F4E1E079
:100890000E941905B6C0E5E1EA95F1F70000289A33
:1008A000B0C0E63038F100C000C02898E0FBE4E0BA
:1008B00016F40E941905E4E0E0933600E6E0E093C8
:1008C0006F009FC0EF93EFB7EF93E0918400ED5579
:1008D000E13000F0E23000F0E33000F0E43000F00E
:1008E000E53000F0289AE2E0E0936F00EF91EFBF6F
:1008F000EF91189500C0E0FB289826F4E1E00E94F3
:10090000190505C0E5E1EA95F1F70000289AE091A4
:100910006F0EE03009F075C0EDEFE0936F0EE1E08F
:10092000E0936E0E6EC0E7E0E0938900EBE1E093A8
:10093000880000C02898E2E000C00E941905FDEF81
:100940000090750EF019E0916F0EEF17D0F4FDEFE7
:100950000090750EF0190090760EF019EF1788F0E0
:10096000EDE1FF2700800F92EA95E1F706E00A9596
:10097000F1F70E944E02E1E0FF270F900192EE3165
:10098000E0F3E0916F0EE03009F03BC02F933F930E
:100990004F935F936F937F938F939F93AF93BF9387
:1009A00078941124EE27E0936E0EE2E1E0936F0E4F
:1009B000F091770EF093750EF091780EF093760E1D
:1009C000E091710EF091720EE115F10509F00995B3
:1009D0000E945F060E94F6110E9413051124E09107
:1009E000730EF091740EE115F10509F00995BF91B0
:1009F000AF919F918F917F916F915F914F913F91B7
:100A00002F91EF91EFBFFF91EF911F900F901895ED
:100A10002898E2E000C00E941905E0916F0EEA9567
:100A2000E0936F0E0895E091A10EE0FD0E94520741
:100A300008950F931F932F93CF93DF932E2F009141
:100A4000A30E1091A50E100F0091A40EE091A60E1A
:100A5000F091A70EE01F0491E093A60E1093A50E4F
:100A60001091A20E010300240008C12DD02D009189
:100A7000A90E1091AB0E100F0091AA0EE091AC0ED2
:100A8000F091AD0EE01F0491E093AC0E1093AB0E0D
:100A90001091A80E20FD289A20FF00C00103002419
:100AA0000008C10DD01D0091AF0E1091B10E100FB6
:100AB0000091B00EE091B20EF091B30EE01F0491E0
:100AC000E093B20E1093B10E1091AE0E010300240C
:100AD0000008C10DD01D0091B60E1091B70EE09127
:100AE000B80EEA9592F4F091B50EEF2FE695002E30
:100AF0000694002600FA1695079516F9F0FF06F9F8
:100B00000093B60E1093B70E03C016E01A95F1F7D6
:100B1000E093B80E21FD289A21FF00C010E800FDE7
:100B20001FE70091B40E100300240008C10DD01D72
:100B30000091BD0E1091BB0E010F0093BD0EE09110
:100B4000BE0E1091BC0EE11FF091BF0E00E0F01F31
:100B50000090C20E1090C30E0091C00E1091C10EF5
:100B6000E015F10508F0F801E093BE0EF093BF0E1A
:100B700004911091BA0E010300240008C10DD01D8C
:100B80000024C038D0050CF0CFE70A94C038D00557
:100B90000CF4C0E8C058C093B300DF91CF912F91FF
:100BA0001F910F9108958093600E9093610E0895A8
:100BB000E0ECF3E0A0E2B2E060E26D933197E9F798
:100BC00011240895992777272EE1629F080E191E98
:100BD000A0E2B2E0A00DB11D405E4C931124089537
:100BE0008093680E9093690E08958091700E8170C5
:100BF00008952091700E2E7F2093700E0895882303
:100C000029F48091790E90917A0E089580917D0E4D
:100C100090917E0E0895F999FECF92BD81BD60BD81
:100C2000F894FA9AF99A78940895F999FECF92BDBA
:100C300081BDF894F89A80B578940895129AC89571
:100C4000C895C895C895129820E030E080E090E003
:100C500040E03695279596958795C895C895C8958F
:100C6000C8951398009B3068019B9068139AC895AB
:100C7000C895C895C8954F5F403159F730937A0EA3
:100C80002093790E90937E0E80937D0E8091790E45
:100C900090917A0E0F9731F080917D0E90917E0E9B
:100CA0000F9761F428E088E190E00FB6F894A895DA
:100CB000809360000FBE20936000FFCF08951092D4
:100CC0004A0F009903C081E080934A0F019905C043
:100CD00080914A0F826080934A0F0E941E060895F9
:100CE000CF93DF93C0E0D0E0FE01E059FF4FE491E5
:100CF000CE016E2F0E940B062196C032D105A1F7BE
:100D0000C0E2D0E0CE016FEF0E940B06CE0101964B
:100D10006FEF0E940B06A09688E0C030D80791F7CD
:100D2000DF91CF9108951F9380E090E00E94150617
:100D3000182F81E090E00E94150690E0382F20E007
:100D4000210F311D2A55354509F491E0892F1F9156
:100D50000895FC014587089581E091E09093B70ED6
:100D60008093B60E4093B50E0895862F642F0E948F
:100D7000870A0895FC01862F9181490F4183642FD2
:100D80000E94700A0895FC01862F6181641B6183B3
:100D90000E94700A0895FC0180818F7580830895F8
:100DA000FC018081806480830895FC01448708955C
:100DB000FF920F931F938C01862FF42E642F0E94B5
:100DC000700AF801F1828081877F80831F910F91E3
:100DD000FF900895FC0147830895FC014087089522
:100DE0001F93CF93DF93EC01162F898190E0FC01D4
:100DF000EE0FFF1FE85FF94E25913491E42FFF2796
:100E0000E7FDF095E80FF91FEE0FFF1FE85FF94EC1
:100E1000859194916091520F821B930B70E00E9418
:100E2000E5159B016115710511F421E030E0812F7A
:100E300090E0FC01EE0FFF1FE80FF91FEE0FFF1F00
:100E4000EE55F14F81819281820F931F92838183AE
:100E50003B832A838881886088838981840F8C837F
:100E6000DF91CF911F9108954093520F0895909371
:100E7000BE0F8093BD0F8FE68093C00F1092A00E1F
:100E8000EDE4FFE090E18FEF28E190831386818706
:100E9000828716862087958376963FE0EB3BF307A3
:100EA000A1F70895AF92BF92DF92EF92FF920F9356
:100EB0001F93CF93DF93ADE4BFE0C3EADEE01D965E
:100EC0008C911D978823B9F0282F332727FD309563
:100ED0001C968C911C97280F311D2F3F310519F05E
:100EE00014F02FEF30E0C90137FF02C080E090E03E
:100EF0001C968C931C978C9183FF26C012964D9163
:100F00005C91139728813981240F351F39832883F9
:100F100014968C911497E82FF0E0EE0FFF1FE85F16
:100F2000F94E859194911416150624F42817390763
:100F300030F40AC0452B41F08217930728F09983BB
:100F400088838C91877F8C93569626964FE0AB3B97
:100F5000B40709F0B4CF8091A00E882309F0DEC059
:100F6000F1C0E091C40FF091C50FCF0101969093AD
:100F7000C50F8093C40F44914F3F69F5AC014F5F9B
:100F80005F4F5093C50F4093C40FFC0184918F3283
:100F900019F41092A00ED0C0863009F0B2C0FA0148
:100FA0003196CF0101969093C50F8093C40FE491C1
:100FB000E33529F49093C70F8093C60FA2C0E534A0
:100FC00009F09FC08091C60F9091C70F9093C50FF5
:100FD0008093C40F96C047FF02C04093BF0F20917B
:100FE000BF0F322F3F7047FF08C001969093C50F87
:100FF0008093C40F0197FC014491822F90E0807F81
:101000009070803B910531F1803C910509F46DC0F1
:101010008039910509F075C0E091C40FF091C50FBA
:101020003196F093C50FE093C40F3197E491832F6D
:1010300090E08C9FD0018D9FB00D9C9FB00D11242E
:10104000A35BB04FEE0F832F1E966C912E2F0E9444
:10105000250A57C0E091C40FF091C50F3196F09367
:10106000C50FE093C40F31972491473071F4832F5B
:1010700090E08C9FF0018D9FF00D9C9FF00D11244E
:10108000E35BF04F220F22873CC04B3071F4832F7B
:1010900090E08C9FF0018D9FF00D9C9FF00D11242E
:1010A000E35BF04F220F21872CC04C3571F4832F66
:1010B00090E08C9FF0018D9FF00D9C9FF00D11240E
:1010C000E35BF04F220F27831CC04436D1F4832FFB
:1010D00090E08C9FF0018D9FF00D9C9FF00D1124EE
:1010E000E35BF04F220F20870CC0832F90E08C9F92
:1010F000F0018D9FF00D9C9FF00D1124E35BF04FEC
:10110000468784EC9FE00E9476099093C20F8093FB
:10111000C10F1092BC0F1092BB0F02C0C6E1D0E00D
:101120002091BB0F3091BC0F8091C10F9091C20FE5
:101130002817390709F415CF2F5F3F4F3093BC0FA5
:101140002093BB0FCDE4DFE002EA1EE0FF246FEF47
:10115000A62EB12CDC2EED2E888186FD3DC08C891B
:101160009D89892B09F435C09A898989981768F572
:1011700030C0EC89FD89CF0101969D8B8C8B249129
:101180002F3F31F488818F7788831D8A1C8A21C084
:1011900001969D8B8C8B0197FC014491822F90E0EE
:1011A000880F991F82549F4FFC01259134918D2DFA
:1011B0009E2D6F2DF9010995EC89FD893196FD8BE6
:1011C000EC8B3197E491E98B1A8A9A89898998176F
:1011D00081F28A898F5F8A8B888185FD03C020E038
:1011E00030E070C08B898F3F11F08F5F8B8B8881CF
:1011F00087FF02C08FEF01C08A859B85992309F480
:101200005BC02C85222309F457C0882309F454C0FD
:101210004091C00F442309F44FC0899FC00111249D
:1012200080509F4F892F992730E0B901869F900108
:10123000879F300D969F300D112420503F4F232F54
:101240003327898590E0FC012E9FC0012F9F900DD0
:101250003E9F900D112480509F4F892F9927242F56
:1012600030E0AC01429FC001439F900D529F900D12
:10127000112480509F4F292F33278F818823F1F02D
:10128000EE81F0E0E050F84EE491E058E89FC001B4
:10129000112480509F4F892F9927B501681B790B26
:1012A000629FC001639F900D729F900D112480502A
:1012B0009F4F292F332702C020E030E08E81988590
:1012C000890F8E83F8012083F39466960A5F1F4F7F
:1012D000F5E0FF1609F03ECFDF91CF911F910F91FE
:1012E000FF90EF90DF90BF90AF900895DC01ED91FB
:1012F000FC911197AF014F5F5F4F11965C934E9336
:10130000E4912E2F30E0E7FF13C02F773070369531
:10131000322F222737952795FA014F5F5F4FE491CF
:101320008E2F8F77280F311DE7FDF1CF4D935C9302
:10133000C9010895EF92FF920F931F93CF93DF930C
:10134000182FF62E022F86E1189FE0011124C35BAF
:10135000D04FEE24888187FF02C0EE24E3941A8ADE
:101360001D869FEF9C874B871B8A88818062877BC5
:1013700088831F8299870983133069F4EE2009F46A
:10138000F02E81E091E09093B70E8093B60E81E04D
:101390008093B50E34C0143051F51092BD0E89E023
:1013A000F89EC00111242091BD0F3091BE0F280F6F
:1013B000391FF9013196459154915093BF0E4093D6
:1013C000BE0EF901359685919491840F951F9093E7
:1013D000C10E8093C00EF901379685919491480F04
:1013E000591F5093C30E4093C20E84E005C0812F55
:1013F00060E00E94870A812F602F0E94700AEE2011
:1014000011F0FF8601C0FE8689E0F89EC00111241C
:10141000E091BD0FF091BE0FE80FF91F33962591B3
:1014200034912115310519F41D8A1C8A07C0F90170
:101430008491898B2F5F3F4F3D8B2C8BDF91CF9118
:101440001F910F91FF90EF9008951F93782F142F05
:10145000A82FB0E086E190E0A89FF001A99FF00DD1
:10146000B89FF00D1124E35BF04F3081532F35FF0F
:1014700002C037FD33C02223F9F486E190E0A89F33
:10148000F001A99FF00DB89FF00D1124E35BF04F20
:101490008585882311F456FF138686E190E0A89F86
:1014A000F001A99FF00DB89FF00D1124E35BF04F00
:1014B00080818F7B808312C086E190E0A89FF0013D
:1014C000A99FF00DB89FF00D1124E35BF04F3F771B
:1014D0003083872F422F212F0E949A091F91089550
:1014E00099277727833009F40895E8E0F6E1660F3D
:1014F000771FE60FF71FA591B491E2EAFEE026E020
:10150000289FE00DF11DA183B2831124089599272E
:101510007727E2EAFEE026E0289FE00DF11D6E3F0E
:1015200031F46091B50E6E7F6093B50E0BC06F3FC6
:1015300031F46091B50E6E6F6093B50E03C078E123
:10154000760F75831124089500000000000000004C
:10155000000000000000000000000000000000008B
:10156000000000000000000000000000000000007B
:10157000000000000000000000000000000000006B
:10158000000000000000000000000000000000005B
:10159000000000000000000000000000000000004B
:1015A000000000000000000000000000000000003B
:1015B000000000000000000000000000000000002B
:1015C000000000000000000000000000000000001B
:1015D000000000000000000000000000000000000B
:1015E00000000000000000000000000000000000FB
:1015F00000000000000000000000000000000000EB
:1016000080E08093A10E0895220024002600280087
:101610002B002D0030003300360039003D00400023
:10162000440048004C00510056005B00600066001A
:101630006C00730079008100880090009900A2007E
:10164000AC00B600C100CC00D800E500F3000101F9
:10165000100121013201440157016C0181019801FF
:10166000B001CA01E50102022102410264028802BE
:10167000AE02D7020303300361039403CB030504D6
:1016800042048304C70410055D05AF050506610625
:10169000C206290796070908830805098E09200A4A
:1016A000BA0A5D0B0A0CC10C840D510E2B0F1210DF
:1016B00007110A121D1340147415BA161418831951
:1016C000071BA31C571E24200E22142439267F2812
:1016D000E82A752D293006330F364539AD3C49408F
:1016E0001B442848734CFE50CF55EA5A51600C6693
:1016F0001D6C8B725A79928037885090E598FDA1C5
:101700009FABD3B5A3C000000000000000000000A4
:1017100000000000000000000000000000000000C9
:1017200000000000000000000000000000000000B9
:1017300000000000000000000000000000000000A9
:101740000000000000000000000000000000000099
:101750000000000000000000000000000000000089
:101760000000000000000000000000000000000079
:101770000000000000000000000000000000000069
:101780000000000000000000000000000000000059
:101790000000000000000000000000000000000049
:1017A0000000000000000000000000000000000039
:1017B0000000000000000000000000000000000029
:1017C0000000000000000000000000000000000019
:1017D0000000000000000000000000000000000009
:1017E00000000000000000000000000000000000F9
:1017F00000000000000000000000000000000000E9
:10180000000306090C101316191C1F2225282B2E65
:10181000313336393C3F414447494C4E515355587A
:101820005A5C5E60626466686A6B6D6F7071737437
:10183000757678797A7A7B7C7D7D7E7E7E7F7F7FF0
:101840007F7F7F7F7E7E7E7D7D7C7B7A7A797876D6
:1018500075747371706F6D6B6A68666462605E5CEC
:101860005A585553514E4C494744413F3C39363301
:10187000312E2B2825221F1C191613100C090603C4
:1018800000FDFAF7F4F0EDEAE7E4E1DEDBD8D5D2CB
:10189000CFCDCAC7C4C1BFBCB9B7B4B2AFADABA896
:1018A000A6A4A2A09E9C9A9896959391908F8D8CB9
:1018B0008B8A8887868685848383828282818181E0
:1018C0008181818182828283838485868687888ADA
:1018D0008B8C8D8F9091939596989A9C9EA0A2A4A4
:1018E000A6A8ABADAFB2B4B7B9BCBFC1C4C7CACD6F
:1018F000CFD2D5D8DBDEE1E4E7EAEDF0F4F7FAFD8C
:10190000808182838485868788898A8B8C8D8E8F5F
:10191000909192939495969798999A9B9C9D9E9F4F
:10192000A0A1A2A3A4A5A6A7A8A9AAABACADAEAF3F
:10193000B0B1B2B3B4B5B6B7B8B9BABBBCBDBEBF2F
:10194000C0C1C2C3C4C5C6C7C8C9CACBCCCDCECF1F
:10195000D0D1D2D3D4D5D6D7D8D9DADBDCDDDEDF0F
:10196000E0E1E2E3E4E5E6E7E8E9EAEBECEDEEEFFF
:10197000F0F1F2F3F4F5F6F7F8F9FAFBFCFDFEFFEF
:10198000000102030405060708090A0B0C0D0E0FDF
:10199000101112131415161718191A1B1C1D1E1FCF
:1019A000202122232425262728292A2B2C2D2E2FBF
:1019B000303132333435363738393A3B3C3D3E3FAF
:1019C000404142434445464748494A4B4C4D4E4F9F
:1019D000505152535455565758595A5B5C5D5E5F8F
:1019E000606162636465666768696A6B6C6D6E6F7F
:1019F000707172737475767778797A7B7C7D7E7F6F
:101A000000020406080A0C0E10121416181A1C1EE6
:101A100020222426282A2C2E30323436383A3C3ED6
:101A200040424446484A4C4E50525456585A5C5EC6
:101A300060626466686A6C6E70727476787A7C7EB6
:101A40007F7D7B79777573716F6D6B696765636196
:101A50005F5D5B59575553514F4D4B494745434186
:101A60003F3D3B39373533312F2D2B292725232176
:101A70001F1D1B19171513110F0D0B090705030166
:101A8000FFFDFBF9F7F5F3F1EFEDEBE9E7E5E3E156
:101A9000DFDDDBD9D7D5D3D1CFCDCBC9C7C5C3C146
:101AA000BFBDBBB9B7B5B3B1AFADABA9A7A5A3A136
:101AB0009F9D9B99979593918F8D8B898785838126
:101AC00080828486888A8C8E90929496989A9C9E26
:101AD000A0A2A4A6A8AAACAEB0B2B4B6B8BABCBE16
:101AE000C0C2C4C6C8CACCCED0D2D4D6D8DADCDE06
:101AF000E0E2E4E6E8EAECEEF0F2F4F6F8FAFCFEF6
:101B00007F7F7F7F7F7F7F7F7F7F7F7F7F7F7F7FE5
:101B10007F7F7F7F7F7F7F7F7F7F7F7F7F7F7F7FD5
:101B20007F7F7F7F7F7F7F7F7F7F7F7F7F7F7F7FC5
:101B30007F7F7F7F7F7F7F7F7F7F7F7F7F7F7F7FB5
:101E00000309131E28313A40464C5054585B5E611A
:101E1000636567696B6C6E6F7071727374757677DA
:101E2000777879797A7A7B7B7C7C7C7D7D7D7E7E00
:101E30007E7E7F7F7F7F7F7F7F7F7F7F7F7F7F7FB4
:101E40007F7F7F7F7F7F7F7F7F7F7F7F7F7E7E7EA5
:101E50007E7D7D7D7C7C7C7B7B7A7A7979787777D7
:101E6000767574737271706F6E6C6B6967656361A0
:101E70005E5B5854504C46403A31281E130903000B
:101E8000C6CCD5DBDFE3E5E7E9EAEBECEDEEEFEF1F
:101E9000F0F0F0F1F1F1F1F2F2F2F2F2F2F2F2F32B
:101EA000F3F3F3F3F3F3F3F3F3F3F3F3F3F3F3F302
:101EB000F3F3F3F3F3F3F3F3F3F3F3F3F3F3F3F3F2
:101EC000F3F3F3F3F3F3F3F3F3F3F3F3F3F3F3F3E2
:101ED000F3F3F3F3F3F3F3F3F3F3F3F3F3F3F3F3D2
:101EE000F2F2F2F2F2F2F2F2F1F1F1F1F0F0F0EFDF
:101EF000EFEEEDECEBEAE9E7E5E3DFDBD5CCC6009E
:101F000000283D42302D2C2B2C2D2E2F30323335F6
:101F100037393B3D3F414345484A4C4E5053555756
:101F2000595B5D5F61636567696B6C6E707173743B
:101F3000757778797A7B7C7D7D7E7E7F7F7F7F7FE2
:101F40007F7F7F7F7F7F7E7E7D7D7C7B7A797877C8
:101F500075747371706E6C6B69676563615F5D5BEF
:101F600059575553504E4C4A484543413F3D3B39E4
:101F700037353332302F2E2D2C2B2C2D30423D284F
:101F800000E9E5FED4D7D7D7D6D4D2D0CECCCAC8B4
:101F9000C6C3C1BFBDBAB8B6B4B1AFADABA9A7A5F2
:101FA000A3A19F9E9C9A999795949391908F8D8CC5
:101FB0008B8A8988888786858584848483838383C4
:101FC0008383838383848484858586878888898ABC
:101FD0008B8C8D8F909193949597999A9C9E9FA1AD
:101FE000A3A5A7A9ABADAFB1B4B6B8BABDBFC1C3C5
:101FF000C6C8CACCCED0D2D4D6D7D7D7D4FEE5E97E
:10200000F9F8F9F5EBE1DDDEE0E2E4E5E6E5E4E24E
:10201000DED9D2CAC1B7ACA299918A868381808069
:102020008182838586888A8C8D8F909293959697EE
:1020300098999A9B9B9C9D9D9D9E9E9E9F9F9F9FD6
:102040009F9F9F9E9E9E9D9D9D9C9B9B9A999897CE
:1020500096959392908F8D8C8A88868583828180D5
:10206000808183868A9199A2ACB7C1CAD2D9DEE2B7
:10207000E4E5E6E5E4E2E0DEDDE1EBF5F9F8F900C0
:102080000708070B151F2322201E1C1B1A1B1C1ED2
:1020900022272E363F49545E676F767A7E7F7F7F98
:1020A0007F7E7D7B7A7876747371706E6D6B6A69F2
:1020B00068676665656464636362626261616161E9
:1020C00061616162626263636364656566676869D2
:1020D0006A6B6D6E7071737476787A7B7D7E7F7FAC
:1020E0007F7F7E7A766F675E54493F362E27221EA9
:1020F0001C1B1A1B1C1E2022231F150B0708070080
:102100001F313D444E5354565A5F64696E7476795C
:102110007C7F7F7F7F7F7F7F7F7F7F7F7F7F7F7FD2
:102120007F7F7F7F7F7F7F7F7F7F7F7F7F7F7F7FBF
:102130007F7F7F7F7F7F7F7F7F7F7F7F7F7F7F7FAF
:102140007F7F7F7F7F7F7F7F7F7F7F7F7F7F7F7F9F
:102150007F7F7F7F7F7F7F7F7F7F7F7F7F7F7F7F8F
:102160007F7F7F7F7F7F7F7F7F7F7F7F7F7F7F7F7F
:102170007F7F7F7F7F7F7F7F7F7F7F7C7871684CD1
:102180002C1C120C0A0B0A05FDF3E9DFD4CAC0B7F8
:10219000AEA69E97918B868582808080808080808D
:1021A000808080808080808080808080808080802F
:1021B000808080808080808080808080808080801F
:1021C000808080808080808080808080808080800F
:1021D00080808080808080808080808080808080FF
:1021E00080808080808080808080808080808080EF
:1021F000808080808087919DACC4CBD4DDF2FAFAD8
:102200003091CA0F20E010C0822F90E0FC01EE0F49
:10221000FF1FE80FF91FE050F24FA081B181A05ECF
:10222000BD4F82818C932F5F231770F308952F92F7
:102230003F924F925F926F927F928F929F92AF9256
:10224000BF92CF92DF92EF92FF920F931F93DF9393
:10225000CF9300D00F92CDB7DEB71092CA0F809106
:102260000001882309F4A1C0B0EE8B2EB5E09B2EAF
:10227000CC24F4018081803F09F478C09181F82F4B
:10228000F695F695F695F983282F277019F0A2E0B8
:102290003A2E02C033243394292E26942694269471
:1022A000892F877019F0F2E04F2E02C04424439426
:1022B000B82EAA243501620E711C00E010E04DC05A
:1022C000952D20E2521609F490E04DE14D1510F0E5
:1022D0008D2D02C08D2D8E51EEE19E9F9001112417
:1022E000280F311DE0E2EE2EE2E0FE2EE20EF31E9C
:1022F000F70160816032F0F04091CA0F403200F582
:10230000842F90E0FC01EE0FFF1FE80FF91FE05053
:10231000F24F318320836283862F642F0E94210332
:102320006091CA0FF70160836F5F6093CA0F6150BD
:10233000603230F48C2D4A815B8193010E94B2039C
:102340008A819B8101969B838A83D394831508F4A9
:10235000B7CF0F5F1F4F041548F480E0902F9C010A
:102360003B832A83D980522C500EAACFC394E4E039
:10237000F0E08E0E9F1EF8E0CF1609F07ACF309174
:10238000CA0F20E010C0822F90E0FC01EE0FFF1F6B
:10239000E80FF91FE050F24FA081B181A05EBD4F60
:1023A00082818C932F5F231770F30F900F900F9003
:1023B000CF91DF911F910F91FF90EF90DF90CF9021
:1023C000BF90AF909F908F907F906F905F904F9055
:1023D0003F902F9008950895E0EEF5E080EF808320
:1023E000349696E0E030F907D1F708950E9449123B
:1023F0000E94171108957F928F929F92AF92BF9281
:10240000CF92DF92EF92FF920F931F93CF93DF93C0
:10241000782E862E5A016901780100E010E00CC088
:10242000872D8C0F692DA7010E94E2052196CA1500
:10243000DB05B4F30F5F1F4F0C151D052CF4C0E036
:10244000D0E0902E980CF3CFDF91CF911F910F9198
:10245000FF90EF90DF90CF90BF90AF909F908F90C4
:102460007F9008950F931F93CF93DF938C01C0E06B
:10247000D0E007C00E94F5058823E1F30E94F9052A
:102480002196C017D107B4F3DF91CF911F910F911F
:1024900008958091CB0F8823F9F08091CC0F882389
:1024A000C1F48091C80F8093CC0F8091CD0FE82F9D
:1024B000F0E0E952FF4FE491E7B99091C90F980F0E
:1024C0009093CD0F992311F09D3031F41092CB0FE2
:1024D000089581508093CC0F08950F931F9311E0BE
:1024E0001093CA0E80E062E042E050E00E94E205F4
:1024F0001093CE0E84E062E042E050E00E94E205DC
:102500001093D20E88E062E042E050E00E94E205C3
:102510001093D60E8CE062E042E050E00E94E205AB
:1025200010931A0F80E06CE042E050E00E94E20558
:1025300010931E0F84E06CE042E050E00E94E20540
:102540001093220F88E06CE042E050E00E94E20528
:102550001093260F8CE06CE042E050E00E94E20510
:1025600086E48093530180E5809357019AE5909328
:102570005B0184E680935F018093D3018093D70150
:102580009093DB010CE30093DF0110932C0F82E0AA
:102590006EE042E050E00E94E2051093300F86E0CA
:1025A0006EE042E050E00E94E2051093340F8AE0B2
:1025B0006EE042E050E00E94E20510933A0F80E0A6
:1025C00060E142E050E00E94E2050093F3011093C5
:1025D000070F8DE068E042E050E00E94E2051093B2
:1025E000080F8EE068E042E050E00E94E2051093A0
:1025F000090F8FE068E042E050E00E94E2058EE6BD
:102600008093C0018093C1018093C2011F910F91FB
:102610000895A091C60EB091C70EFD01E653F14F8B
:102620008081882359F0FD01ED57FE4F81E060E085
:10263000AD5FBE4F4C9120810E94250AA091C60E2D
:10264000B091C70EFD01E652F14F8081882359F009
:10265000FD01ED56FE4F81E061E0AD5EBE4F4C9155
:1026600020810E94250AA091C60EB091C70EFD01DF
:10267000E651F14F8081882359F0FD01ED55FE4F61
:1026800081E062E0AD5DBE4F4C9120810E94250A41
:10269000A091C60EB091C70EFD01E650F14F8081AA
:1026A000882359F0FD01ED54FE4F82E063E0AD5CFC
:1026B000BE4F4C9120810E94250AA091C60EB09178
:1026C000C70EFD01E65FF04F8081882359F0FD01C0
:1026D000ED53FE4F82E064E0AD5BBE4F4C91208134
:1026E0000E94250AA091C60EB091C70EFD01E65EBC
:1026F000F04F8081882359F0FD01ED52FE4F82E0BA
:1027000065E0AD5ABE4F4C9120810E94250AA091F0
:10271000C60EB091C70EFD01E65DF04F80818823A3
:1027200059F0FD01ED51FE4F82E066E0AD59BE4F1C
:102730004C9120810E94250AA091C60EB091C70E2F
:10274000FD01E65CF04F8081882359F0FD01ED50DA
:10275000FE4F82E067E0AD58BE4F4C9120810E9451
:10276000250A8091C60E9091C70E9C0143E0220F6E
:10277000331F4A95E1F72093E00501969093C70E29
:102780008093C60E409724F01092C70E1092C60E8A
:102790000895EF92FF920F931F9386E693E00E94B5
:1027A00037078EE091E00E94F0058EE091E00E94F4
:1027B000D3050E94D80586E08093E20584E08093EB
:1027C000E6051092E0051092E10580E090E060E0FF
:1027D00070E047E250E02CE130E000E010E00E94C1
:1027E000FB11FF24F39428C0802F6E2D41E050E0B0
:1027F0000E94E2050115110511F480E00EC00430BD
:10280000110511F484E009C00830110511F488E0C5
:1028100004C00C30110531F48CE06F2D43E050E022
:102820000E94E2050F5F1F4F00311105E9F682E0BB
:10283000F80E81E1F81629F000E010E0EF2CE394A7
:10284000D3CF8EE190E00E94321280E00E94FF051B
:1028500082FF02C00E946D1278EFE72EFF24F394EE
:1028600080E00E94FF05182F81E090E00E94321264
:102870008091C80E9091C90E892B79F58091030241
:1028800090910402181619062CF4019790930402F3
:102890008093030280910302909104021816190696
:1028A00054F00E94091380910502909106029093C2
:1028B00004028093030212FF10C081E090E0909325
:1028C000C90E8093C80E1092C70E1092C60E1092B9
:1028D000E00585E090E00E94321280E00E94FF0552
:1028E0008C018091C80E9091C90E019709F0B8CF64
:1028F0008091C40E9091C50E63E0880F991F6A9570
:10290000E1F78093E4052091010130910201C901B2
:1029100053E0880F991F5A95E1F78093E50504FF6E
:102920000DC02430310554F0225030403093020164
:102930002093010182E090E00E94321205FF10C056
:102940008091010190910201803191054CF4029631
:10295000909302018093010182E090E00E94321284
:1029600007FF10C08091C40E9091C50E8F30910565
:102970004CF401969093C50E8093C40E82E090E0D3
:102980000E94321206FF10C08091C40E9091C50EB5
:10299000181619064CF401979093C50E8093C40E37
:1029A00082E090E00E94321210FFECC080910101A1
:1029B000909102010297B9F42091C40E3091C50E96
:1029C000F901E653F14F8081813031F41082822F7A
:1029D00062E041E050E005C0F082822F62E042E018
:1029E00050E00E94E205809101019091020104975C
:1029F000B9F42091C40E3091C50EF901E652F14FA1
:102A00008081813031F41082822F64E041E050E017
:102A100005C0F082822F64E042E050E00E94E205AF
:102A200080910101909102010697B9F42091C40EA2
:102A30003091C50EF901E651F14F8081813031F4BA
:102A40001082822F66E041E050E005C0F082822FC4
:102A500066E042E050E00E94E20580910101909121
:102A600002010897B9F42091C40E3091C50EF90106
:102A7000E650F14F8081813031F41082822F68E07E
:102A800041E050E005C0F082822F68E042E050E073
:102A90000E94E20580910101909102010A97B9F428
:102AA0002091C40E3091C50EF901E65FF04F808190
:102AB000813031F41082822F6AE041E050E005C09D
:102AC000F082822F6AE042E050E00E94E2058091AD
:102AD0000101909102010C97B9F42091C40E30913C
:102AE000C50EF901E65EF04F8081813031F410822D
:102AF000822F6CE041E050E005C0F082822F6CE054
:102B000042E050E00E94E2058091010190910201B3
:102B10000E97B9F42091C40E3091C50EF901E65D0F
:102B2000F04F8081813031F41082822F6EE041E0DD
:102B300050E005C0F082822F6EE042E050E00E943B
:102B4000E20580910101909102014097B9F4209132
:102B5000C40E3091C50EF901E65CF04F80818130E2
:102B600031F41082822F60E141E050E005C0F08234
:102B7000822F60E142E050E00E94E20585E090E0B3
:102B80000E94321202FF6CCE1092C90E1092C80E33
:102B9000E092E405E092E50585E090E00E943212C3
:102BA0005FCEAA1BBB1B51E107C0AA1FBB1FA61704
:102BB000B70710F0A61BB70B881F991F5A95A9F7E6
:102BC00080959095BC01CD01089597FB092E0726AD
:102BD0000AD077FD04D0E5DF06D000201AF4709506
:102BE00061957F4F0895F6F7909581959F4F0895D1
:042BF000F894FFCF87
:102BF4000102003C3C3C3C3C3C3C3C3C3C3C3C3CC2
:102C04003C3C3C3C3C3C3C3C3C3C3C3C3C3C3C3C00
:102C14003C3C3C3C3C3C3C3C3C3C3C3C3C3C3C3CF0
:102C24003C3C3C5A5A5A5A5A5A5A5A5A5A5A5A5A5A
:102C34005A5A5A5A5A5A5A5A5A5A5A5A5A5A5A5AF0
:102C44005A5A5A5050505050505050505050505062
:102C54005050505050505050505050505050505070
:102C64005050505050505050505050505050505060
:102C74005050505050505050505050505050505050
:102C84005050505050505050505050505050505040
:102C94005050505050505050505050505050505030
:102CA400505050646464646464646464646464641C
:102CB40064646464646464646464646464646464D0
:102CC4006464647F7F7F7F7F7F7F7F7F7F7F7F7F61
:102CD4007F7F7F3C3C3C3C3C3C3C3C3C3C3C3C3C67
:102CE4003C3C3C3C3C3C3C3C3C3C3C3C3C3C3C3C20
:082CF4003C3C3C050008000017
:00000001FF
