:100000000C94081D0C94AD1D0C94AD1D0C94AD1DED
:100010000C94AD1D0C94AD1D0C94AD1D0C94AD1D38
:100020000C94AD1D0C94AD1D0C94AD1D0C94AD1D28
:100030000C94AD1D0C94921E0C94AD1D0C94AD1D32
:100040000C94AD1D0C94AD1D0C94AD1D0C94AD1D08
:100050000C94AD1D0C94AD1D0C94AD1D0C94AD1DF8
:100060000C94AD1D0C94AD1D0C94AD1D0C94AD1DE8
:100070005A5501200201003808000000000000006D
:100080000000000000AA28B82827295C2C482CBBB7
:1000900028CA28D928302CE728F5280300030000B7
:1000A00000010000002E002F0030005D005E005FA8
:1000B000000600020002000300040005000600071D
:1000C00000310032003300340035003600030002F6
:1000D00000080009000A0037003800390003000258
:1000E000000B000C000D003A003B003C0003000236
:1000F000000E000F0010003D003E003F0003000214
:1001000000110012001300400041004200030002F1
:1001100000140015001600430044004500030002CF
:1001200000170018001900460047004500030002B0
:100130000000001A0000001A001A001A0003000252
:10014000001B001B00000000001B001B000300023E
:1001500000000000001C001C001C001C000300022A
:10016000001D001E001F00480049004A0003000255
:1001700000200021002200480049004B000300023B
:10018000001D001E001F004C004D004E0003000229
:10019000002300240025004F0050005100030002FE
:1001A0000026002700280052000000530003000230
:1001B0000029002A002B00540055005600030002BD
:1001C0000000000000280057005800530003000200
:1001D00000000000002C00570059005A00030002E4
:1001E000002D0000002C005B005C005A00030002A0
:1001F0000060006100620090009100920003000224
:100200000063006400650093009400950003000201
:1002100000660067006800960097009800030002DF
:100220000069006A006B0099009A009B00030002BD
:100230000069006C006D0099009C009D00030002A5
:10024000006E006F00700099009E009F0003000286
:1002500000000071007200A000A100A200030002D3
:1002600000730074007500A000A300A20003000248
:1002700000760077000000A000A100A200030002A9
:1002800000780079007A00A400A500A6000300020F
:10029000007B007C007D00A700A800A900030002ED
:1002A0000078007E007F00A400AA00AB00030002DB
:1002B00000800081008200AC00AD00AE00030002AF
:1002C00000830084000000AF00B000B10003000212
:1002D00000000000000000B200B300B10003000203
:1002E00000850086008700B400B500B60003000258
:1002F00000880089008A00B700B800B90003000236
:10030000008B008C008D00BA00BB00BC0003000213
:10031000008B008C008D00BA00BD00BC0003000201
:100320000000008E008F00BE00BF00C0000300026E
:10033000000000C1008F00C900CA00C00003000215
:10034000000000C2008F00CB00CC00C00003000200
:1003500000C300C400C500CD00CE00CF00030002E2
:1003600000C600C700C800D000D100D200000000C5
:10037000000000000000000000000000000000007D
:10038000000000000000000000000000000000006D
:10039000000000000000000000000000000000005D
:1003A00000000000000000000000520000000000FB
:1003B000A400000000A4FFAD000000ADFFFF00009E
:1003C00000FFFFFF000000FFFFFF00000000000033
:1003D00000000000000000000000717171717100E8
:1003E00071000000000071000000000071000007B3
:1003F0000700710000070000710000070000000006
:1004000000000000000000000071717171710000B7
:10041000000000710000000000710007070000717B
:10042000000007000071000007000071000071006B
:1004300000070000710000070000710000070000C5
:100440007100000700007100000700007100000744
:1004500000007100000700007100000700000000AC
:1004600000000000000000000071717171717100E6
:100470000000000000000000000000070707070759
:100480000700000000000000000000000000000065
:100490000000000000000000000707070707070032
:1004A0000000000000000000000000717171717117
:1004B00071000000000000000000000000000000CB
:1004C000000000003000000000003030000000009C
:1004D000303030000000303030300000303030003C
:1004E0000000303000000000300000000000161650
:1004F0001616161627272727271627002727271619
:1005000027272727271627272727161627272727AE
:1005100016162727272716162727272727161616E2
:10052000161616272727272727272727272727169F
:100530001616161627160000001616160027271680
:10054000161600272716160000271616161616165A
:1005500016160027272727270027272700270027E9
:100560002727272700272727272700002727272790
:100570000000272727270000272727270000161617
:10058000161616161F1F1F1F1F161F001F1F1F16D0
:100590001F1F1F1F1F161F1F1F1F16161F1F1F1F86
:1005A00016161F1F1F1F16161F1F1F1F1F1616169A
:1005B0001616161F1F1F1F1F1F1F1F1F1F1F1F166F
:1005C000161616161F16000000161616001F1F1608
:1005D0001616001F1F161600001F161616161616E2
:1005E0001616001F1F1F1F1F001F1F1F001F001FA9
:1005F0001F1F1F1F001F1F1F1F1F00001F1F1F1F68
:1006000000001F1F1F1F00001F1F1F1F00001616C6
:10061000161616160C0C0C0C0C160C000C0C0C16EA
:100620000C0C0C0C0C160C0C0C0C16160C0C0C0CEC
:1006300016160C0C0C0C16160C0C0C0C0C161616B4
:100640001616160C0C0C0C0C0C0C0C0C0C0C0C16C2
:10065000161616160C16000000161616000C0C16B0
:100660001616000C0C161600000C1616161616168A
:100670001616000C0C0C0C0C000C0C0C000C000CD6
:100680000C0C0C0C000C0C0C0C0C00000C0C0C0CCE
:1006900000000C0C0C0C00000C0C0C0C00000000FA
:1006A000000000000000005B5B000000005B5B00DE
:1006B000000000525B0000005B5B52005C5B5B5B18
:1006C0005B0052A45B5B5B005B525C5B5B00000009
:1006D000000000000000005B5B5B00005B5B5B5B9D
:1006E0005B5B5B5B5B5B5B5B5B5B5B5B5B0000511A
:1006F000525B000000005B5B000000005B0000003C
:100700000000000000000000000000000000005B8E
:100710000000000000525B5B5B00005B5BAD5200C1
:10072000005B5B0900ADB65B5B5BB6FF5B00000086
:10073000000000000000000000000000005B52000C
:100740000000005B5B000000005B5B000000A45B3E
:100750005B005B5B5B5B5200A45C5B5B5B0000006F
:100760000000000000005B5B0000005A5B5C005B67
:10077000525B5B5B5B5B5B5B5B5B5B5B5B00005B88
:100780005B5B000000005B5B0000000000000000FD
:100790000000000000000000000000000000000059
:1007A0005B5B5A00005B5B51520000525C520000E0
:1007B000005B5B5B00ADB652645BB6FF5B000000A4
:1007C0000000000000000000000000005252000085
:1007D0000052525B52000000525B5B000000005B65
:1007E0005B000000A45B5B005B5B5B5B5200000096
:1007F00000000000005B5B0000005A5B5C000052E0
:100800005B5B5B5B5B5B525B5B6464525B5B5B642F
:10081000645B51000000A45B0000000000000000C9
:100820000000000000000000005B5B5A0000005B5D
:1008300051520000005C5200000000525C000000B9
:10084000005B5B5B00ADB652645BB6FF5BFFFFFF16
:10085000FF7F24FFE5E5E59224FFE5FFEE92247F8C
:10086000E5EEC3921A7FE5C3C3921A7FE5C3C39234
:10087000527FE59292925224241A1A5252FFFFFF9D
:10088000FF7F24FF5F5F5F0424FF5FFFAF04247FCF
:100890005FAF07041A7F5F0707041A7F5F0707042B
:1008A000527F5F0404045224241A1A5252FFFFFF9D
:1008B000FF7F24FFECECEC9024FFECFFF590247F0D
:1008C000ECF5D8901A7FECD8D8901A7FECD8D89055
:1008D000527FEC9090905224241A1A525222202ACD
:1008E00019221962221862226222107320196A22C8
:1008F00022192A20221918227319201922226B6B1F
:10090000221919226B2220636B2222BD2020226B28
:1009100022731910202A6B202219222022196A1909
:10092000221922626A6A196B6B6B11182A6B2222D8
:100930002A20206A192A2A6B226B6319226B732AD8
:100940006A20202020202A6B182A222A6A2A1820AE
:10095000182A622A2A6A226B731920226B2A202AFB
:10096000202A222222226B74222A746B2A22202A15
:1009700019221962221862226222107320196A2237
:1009800022192A20221918227319001922226B0019
:10099000141919226B2220636B2222BD2020226BA6
:1009A00022000B10000B00146E00140B146E1E00BE
:1009B0000B6E6E1E1E146E1E1E1E146E1E1E1E1448
:1009C0000B1E1E14140B006B000B0B192200732A54
:1009D0006A20201E1E202A6B181E1E0B002A1814C7
:1009E000140B002A2A0B0B6B73192000002A202AF3
:1009F00020000B0B00226B00141E14002A000000C4
:100A000000000000000000000000000000000000E6
:100A100000000000000000000000000000000000D6
:100A20000000000000FFFF00FFFFFF0404000000C3
:100A300000000000000000000000000000000000B6
:100A4000000000000000000000FFFF00FFFFFF04A7
:100A500004FF04040404040404040404FF0000006C
:100A600000FFFF00000000FFFF00000000FFFF008C
:100A7000FFFFFFFFFFFF040404FFFF04040404FF63
:100A8000FF04FFFFFF0000FFFF0000000000000068
:100A900000000000FFFF00000000FFFF000000005A
:100AA000FFFF00000000FFFF0000FF00FFFF00004D
:100AB000FF00FFFF00000000FFFF0000000000003B
:100AC0000000000000000000000000000000000026
:100AD0000000000000FF0000000000FF0000000018
:100AE0000000000000000000000000000000000006
:100AF00000000000000000000000000000000000F6
:100B000000000000000000000000000000000000E5
:100B100000000000FFFF00000000FFFF00000000D9
:100B200000000000000000000000000000000000C5
:100B3000FFFF00000000FFFF00000000FFFF0000BB
:100B40000000FFFF00000000FFFF000000000000A9
:100B50000000000000000000000000000000000095
:100B60000000000000000000000000000000000085
:100B7000000000000000000000000000FF00000076
:100B80000000000000000000000000000000000065
:100B90000000000000000000000000000000FFFF57
:100BA00000000000FFFF00FF0000FFFF000000004A
:100BB0000000000000000000000000000000000035
:100BC0000000000000000000000000000000000025
:100BD00000000000000000000000FFFF0000000017
:100BE0000000000000000000000000000000000005
:100BF000000000000000FFFF00000000FFFF0000F9
:100C00000000FFFF00000000FFFF000000000000E8
:100C100000000000000000000000000000000000D4
:100C200000000000000052520000000052FF0000CF
:100C3000000052FFA400000000FFFFAD00FFFFFF17
:100C4000000000FFFFFF000000FFFFFF000000FFAB
:100C5000FFFF000000FFFFFF000000FFFFFF00009C
:100C600000FFFFFF000000FFFFFF0000AD000000DD
:100C70000000000000000000000000000000000074
:100C8000000000000000005252000052FFFF52001E
:100C900000FFFFFF520000FFFFFF520000000700AF
:100CA00000710000070000710000070000710000E3
:100CB00007000071000007000071000007000071CC
:100CC00000000700007100000700007100007100C3
:100CD0000007000071000007000071000007070016
:100CE000710000000000710000000000717171715E
:100CF000710000000000000000000000000007007C
:100D0000007100000700007100070700007100007B
:100D100000000071000000000071007171717171BC
:100D200000000000000000000000000000000000C3
:100D3000000000000700000000000707000000009E
:100D4000070707000000070707070000070707005D
:100D5000000007070000000007000000000000007E
:100D60000000000000300000000000300000000023
:100D70000030000000000030000000303030303023
:100D800000003030300000000030000000000000A3
:100D90000000000000070000000000070000000045
:100DA0000007000000000007000000070707070712
:100DB00000000707070000000007000000162727B3
:100DC00027272716272727272716272727272716E6
:100DD00027272727271627272727271627002727EC
:100DE000271627272727270000000000002727169F
:100DF0001600002727161600272727270000272779
:100E0000271616272727271616002727272700002B
:100E10002727272727272700000000000000272773
:100E200027270027272727270027272727270027C7
:100E300027272727002727272727002727270027B7
:100E400000272727272700000000000000161F1F8B
:100E50001F1F1F161F1F1F1F1F161F1F1F1F1F16BD
:100E60001F1F1F1F1F161F1F1F1F1F161F001F1FC3
:100E70001F161F1F1F1F1F0000000000001F1F164E
:100E80001600001F1F1616001F1F1F1F00001F1F28
:100E90001F16161F1F1F1F1616001F1F1F1F0000E3
:100EA0001F1F1F1F1F1F1F000000000000001F1F2B
:100EB0001F1F001F1F1F1F1F001F1F1F1F1F001F9F
:100EC0001F1F1F1F001F1F1F1F1F001F1F1F001F8F
:100ED000001F1F1F1F1F00000000000000160C0C49
:100EE0000C0C0C160C0C0C0C0C160C0C0C0C0C1624
:100EF0000C0C0C0C0C160C0C0C0C0C160C000C0C2A
:100F00000C160C0C0C0C0C0000000000000C0C1655
:100F10001600000C0C1616000C0C0C0C00000C0C2F
:100F20000C16160C0C0C0C1616000C0C0C0C0000FD
:100F30000C0C0C0C0C0C0C000000000000000C0C45
:100F40000C0C000C0C0C0C0C000C0C0C0C0C000C05
:100F50000C0C0C0C000C0C0C0C0C000C0C0C000CF5
:100F6000000C0C0C0C0C0000000000000000000045
:100F7000645B5B0000005C5C5C0009AD5C5252008D
:100F8000005B5B0952000000000000000000000050
:100F9000000000000000000000000000005C0000F5
:100FA0000000645B640000A46464A4B6B6F6B6A452
:100FB000F6F6F6B6F6F6FF0AB6FFF6F6A40000B6A9
:100FC000F6000000B6FFFF0000FFFFFF5B5B52F67C
:100FD0005E5B00F6B6FF530000B6A452000000FFAF
:100FE000FF00000000F60000000000FF000000000D
:100FF000005B000000000000000000000000005244
:101000005C5B5B000000525B5C0000A45C5CAE00BB
:1010100000AEAD52520000525B52000000000000D2
:10102000000000000000000000000000005B5B000A
:101030000000005BA4A400006464A4B6B6F6B65237
:10104000F6F6F6B6F6F6FF0AB6FFF6F6A40000B618
:10105000F6000000B6FFFF0000FFFFFF5B5C52F6EA
:101060005E5B01F6B6FF535B00B6A452000000FFC2
:10107000A400000000F65200000000FF0000000085
:10108000005B000000000000000000000000A45C05
:101090005B5B5B0000525C5B5B000000A45C5C007F
:1010A0000000AEAD52000000525B52000000000094
:1010B000000000000000000000000000005C0000D4
:1010C0000000005B5B0000006464A4B6B6F6B6A442
:1010D000F6F6F6B6F6F6FF0AB6FFF6F6A40000B688
:1010E000F6000000B6FFFF0000FFFFFF5B626B220F
:1010F000196B20226A20BC221322226A20221D2280
:101100006A6B10001D6B226B62130018196A1100C4
:101110001D000A00131D1D201908000000001313F4
:10112000131300FFFF1D1DFFFFFF001D1D00FF1D0E
:101130001D52001D1D1D1D00001D1D00525252009C
:10114000001D1DFFFF1D1D00000000000022227376
:101150006B2274137322742A2A1D6A6B7322731D07
:10116000006B2A2274001320296A2A1D13192018E3
:10117000201D1D130A0A0000000009192A2222144A
:101180001E140B137322001E1E1D6A6B73000B1DB1
:10119000006B2A2274001320296A2A1D13192018B3
:1011A000201D1D130A0A0000000009192A626B2283
:1011B000196B20226A20BC221922226A20221922BD
:1011C0006A6B106B196B226B622B1018196A11086D
:1011D00008000A0A09090020190800000020226BF3
:1011E0006B2A226B1A6B2A22732222196A732A2015
:1011F0002219227320222A6A622A6200000000005B
:101200000000000000000000000000000022227327
:101210006B2274207322742A2A736A6B7322732AD6
:101220002A6B2A2274192020296A2A0009192018F9
:10123000200000090A0A0000000009192A00FFFF27
:10124000FF040400000000FFFF0000000000000099
:10125000000000000000000000000000000000008E
:101260000000000000000000000000000004040472
:101270000404FFFF040404040400FFFFFF0404004F
:10128000000000FFFF000000000000000000000060
:1012900000000000000000000000000000FFFF0050
:1012A00000000004FFFFFF000004040404FFFFFF30
:1012B000040404FFFF00FFFFFFFFFF00000000FF2A
:1012C000FF00000000FFFF00000000FFFF00FFFF25
:1012D000000000000000000000000000000000000E
:1012E00000000000000000000000000000000000FE
:1012F00000000000000000000000000000000000EE
:10130000FFFF00000000FFFF00000000FFFF0000E3
:101310000000FFFF00000000FFFF00000000FFFFD3
:101320000000000000000000000000000000FFFFBF
:1013300000000000FFFF00000000FFFF00000000B1
:10134000000000000000000000000000000000009D
:10135000000000000000000000000000000000008D
:101360000000FF000000000000000000000000007E
:10137000000000000000000000000000000000006D
:1013800000000000000000000000000000FF00005E
:10139000FFFF00000000FFFF00000000FFFF000053
:1013A0000000FFFF00000000FFFF00000000000041
:1013B0000000000000000000000000000000FFFF2F
:1013C00000000000FFFF00000000FFFF0000000021
:1013D000FFFF00000000FFFF00000000FFFF000013
:1013E0000000FFFF00000000FFFF00000000000001
:1013F00000000000000000000000FFFF00000000EF
:10140000FFFF0000000000000000000000000000DE
:1014100000000000000000000000000000000000CC
:1014200000000000000000000000000000000000BC
:1014300000000000000000000000000000000000AC
:1014400000FFFF00000000FFFF00000000000000A0
:10145000FFFF00000000FFFF00000000FFFF000092
:101460000000FFFF00000000FFFF00000000FFFF82
:1014700000000000FFFF0000000000000000FFFF70
:1014800000000000FFFF00000000FFFF0000000060
:10149000FFFF00000000000000000000000000004E
:1014A000000000000000000000000000000000003C
:1014B00000000000000000000000000000FFFF002E
:1014C000000000FFFF00000000000000000000001E
:1014D000000000000000000000000000000000FF0D
:1014E000FFFF000000ADFFFFAD000000FFFFFF00A9
:1014F000000000FFFF0000000052FF00000000009D
:10150000A4000000000000000000000000FFFFFF3A
:10151000A4FFFFFFFFFFFFFFFFFFFFFFFFFFFFFF36
:10152000FFFFFF5200FFFFFF520000FFFFFF000020
:1015300000525200000000000000000000FFFF52B7
:10154000000000FF520000000052000000000000F8
:10155000000000000000000000000000000000008B
:101560000000000000000000000000000099E0E022
:10157000E0E0E099E0E0E0E0E099E0E0E0E0E09940
:10158000E0E0E0E0E008484848484894DFDFDFDF7B
:10159000DF94DFDFDFDFDF94DFDFDFDFDFE0E0E0EE
:1015A000E0E0E0E0E0E0E0E0E0E0E0E0E0E0E0E03B
:1015B000E0E0E0E0E0484848484848DFDFDFDFDFC0
:1015C000DFDFDFDFDFDFDFDFDFDFDFDFDFE0E0E028
:1015D000E09908E0E0E0E09908E0E0E0E09908E068
:1015E000E0E0E09908484848484800DFDFDFDF9541
:1015F00001DFDFDFDF9501DFDFDFDF950120303046
:10160000303030203030303030203030303030200A
:10161000303030303008080808080899E0E0E0E091
:10162000E099E0E0E0E0E099E0E0E0E0E030303058
:1016300030303030303030303030303030303030AA
:101640003030303030080808080808E0E0E0E0E01A
:10165000E0E0E0E0E0E0E0E0E0E0E0E0E03030309A
:101660003020083030303020083030303020083022
:101670003030302008080808080800E0E0E0E09971
:1016800008E0E0E0E09908E0E0E0E0990894DFDFBE
:10169000DFDFDF94DFDFDFDFDF94DFDFDFDFDF943B
:1016A000DFDFDFDFDF014A020202022030303030AC
:1016B00030203030303030203030303030DFDFDF3D
:1016C000DFDFDFDFDFDFDFDFDFDFDFDFDFDFDFDF2A
:1016D000DFDFDFDFDF0202020202023030303030B3
:1016E00030303030303030303030303030DFDFDFED
:1016F000DF9501DFDFDFDF9501DFDFDFDF9501DF72
:10170000DFDFDF95010202020201003030303020BD
:1017100008303030302008303030302008000000F1
:1017200000000000000000000000000000000000B9
:10173000000000000000003F3F3F3F3F3F3F3FFAB7
:10174000FA3F3FFAFA3F3F3F3F3F3F3F3F00000035
:101750000000000000000000000000000000000089
:1017600000000000003F3F00474747FA3F0047673F
:10177000673F3F004767673F3F004747470000001C
:101780000000000000000000000000000000000059
:1017900000000000004747470000006767674747B1
:1017A0000067676747470047474747470000000013
:1017B0000000000000000000000000000000000029
:1017C00000000000003F3F00FAFAFAFA3F00FA6713
:1017D000673F3F00FA67673F3F00FAFAFA000000F0
:1017E00000000000000000000000000000000000F9
:1017F0000000000000FAFAFA000000676767FAFAD2
:1018000000676767FAFA00FAFAFAFAFA00000000CD
:1018100000000000000000000000000000000000C8
:10182000000000000000003F3F3F3F3F3F3FFAFA0B
:10183000FA3F3FFA3F3F3F3F3F3F3F3F3F000000FF
:101840000000000000000000000000000000000098
:1018500000000000003F3F003F3F3FFA3F003FFADB
:10186000FA3F3F003FFAFA3F3F003F3F3F00000092
:101870000000000000000000000000000000000068
:1018800000000000003F3F3F000000FAFAFA3F3F2F
:1018900000FAFAFA3F3F003F3F3F3F3F00000000A1
:1018A00000070700000707070700070007070707EB
:1018B00007070707070007070707000000070000E2
:1018C0000000000000000000000000000007070703
:1018D00007070707070707070700070700070707A6
:1018E00007070707070007070000070000000000C0
:1018F00000000000000000000000000000000000E8
:1019000000000700000007070700000700070700A6
:101910000707070707000007070707000000070081
:1019200000000000000000000000000000070707A2
:101930000707070707070707070700070700070745
:101940000707070707000007070000000000000066
:101950000000000000000000005700000007000029
:101960000000000707070000000707000700000746
:101970000707070700070707070000000007000028
:101980000000000000000000000000000000000057
:1019900000005700000000000000000000000000F0
:1019A00000000000570000000000000000000000E0
:1019B0000000000000005700000000000000005779
:1019C0000000575700570057000000000000005764
:1019D0000000005757000000000000570057005754
:1019E0000000005700005700000000000000000049
:1019F00000000000000000000000000000003F00A8
:101A00000000003F3F0000003F3F3F0000003F3F1D
:101A10003F00003F3F3F3F00003F3F3F3F0000008F
:101A2000000000003F3F3F3F003F3F3F3F3F3F3F01
:101A30003F3F3F3F3F3F3F3F3F3F3F3F3F3F3F3FB6
:101A40003F3F3F3F3F3F003F3F3F0000000000005F
:101A50000000000000000000003F00000000003F08
:101A60003F3F0000003F3F3F3F00003F00000000BD
:101A70000000000000000000000000000000000066
:101A80000000000000000000000000000000000056
:101A90000000000000000000000000000000000046
:101AA0000000000000003F00000000003F000000B8
:101AB00000000000000000003F0000003F3F3F002A
:101AC0003F3F3F3F3F3F3F3F3F3F3F3F3F3F3F3F26
:101AD0003F3F3F3F3F3F003F3F3F3F3F0000000051
:101AE0000000003F3F3F3F00003F3F3F0000003FFE
:101AF0003F000000003F0000000000000000000068
:101B000000000000000000000000000000000000D5
:101B1000000000003F3F3F3F003F3F3F3F3F3F3F10
:101B20003F3F3F3F3F3F3F3F3F3F3F3F3F3F3F3FC5
:101B30003F3F3F3F3F3F3F3F3F3F3F3F3F00000072
:101B40000000000000000000003F00000000003F17
:101B50003F000000003F3F3F0000003F3F3F0000CC
:101B6000003F3F3F3F00003F3F3F3F00000000007D
:101B70000000000000000000000000000000000065
:101B8000525BA4000000525B5BA4000000525B5B50
:101B9000A4000000525B5B00000000005200000047
:101BA0000000000000000000000052000000005291
:101BB0005252000000525252000000525252000095
:101BC00000A452520000005BA45200005E0000001E
:101BD0000000000000000000000000000000000005
:101BE00000000000000000000000000000000000F5
:101BF00000000000000000400000000000000000A5
:101C000000000000000000000000000000000000D4
:101C100000000000000000000000000000000000C4
:101C200000000051515151525BA4A4A4A400000033
:101C300000000000000000000000000000000000A4
:101C40000000000000000000000000000000000094
:101C5000005151000000005B5151000000000000E5
:101C600000000000000000004000000000D8FF005D
:101C70000000D8FFFF000040D8D8D80000D8D8FF17
:101C8000FF0000D8FFFFFF0000D8FFFFFF000000AB
:101C900000000040D8D8D84040FFFFD8FFD8D8D89F
:101CA000D8D8D8D8D8D8D8D8D8D8D8FFD8D8D8FF66
:101CB000FFFFFFD8FFFFFF0000D80000FF0000007B
:101CC000000000000000000000D80000000000D864
:101CD000D800000000D8D840000000FFD8D800008D
:101CE00000FFFFD8000000FFFFD800000000000048
:101CF00000000000000000004000000000D8FF00CD
:101D00000000D8FFFF000040D8D8D80000D8D85035
:101D1000500000D85050500000D8505050000000E3
:101D200000000040D8D8D84040FFFFD8FFD8D8D80E
:101D3000D8D8D8D8D8D8D8D8D8D8D850D8D8D85033
:101D4000505050D85050505050D850505000000073
:101D5000000000000000000000D80000000000D8D3
:101D6000D800000000D8D84000000050D8D80000AB
:101D7000005050D80000005050D800000000000073
:101D80000000000000000000000000000000020051
:101D900000000000000000000D0D0D0000000D0D02
:101DA000020000006F6F6F00000000000D000202D3
:101DB000020200000202020200020202020202000B
:101DC0006F6F6F6F000D6F6F6F6F0D0202020D0D61
:101DD0000D6F02020D0D0D0D02026F6F6F000000FE
:101DE00000000000000000000002000000000000F1
:101DF00000000000000D0D0D0000000D0D0D000095
:101E0000000D6F6F0000006F6F6F0000000000009A
:101E100000000000000000000000000000000000C2
:101E200000000000000000FF772F0000FF77772FF1
:101E30002FFF77FF2F772F77FF772F772F00000067
:101E40000000000000000000000000000000000092
:101E50000000000000000000000000000000000082
:101E6000002F00000000002F000000000094DFDFC2
:101E7000DFDFDF014A020202022030303030302042
:101E80003030303030203030303030203030303072
:101E900030080808080808000000000000DFDFDF45
:101EA000DFDFDF0202020202023030303030303039
:101EB0003030303030303030303030303030303022
:101EC00030080808080808000000000000DFDFDF15
:101ED000DF9501020202020100303030302008306C
:101EE0003030302008303030302008303030302072
:101EF0000808080808080000000000000099E0E059
:101F0000E0E0E008484848484894DFDFDFDFDF943E
:101F1000DFDFDFDFDF94DFDFDFDFDF94DFDFDFDF67
:101F2000DF014A02020202000000000000E0E0E0DF
:101F3000E0E0E0484848484848DFDFDFDFDFDFDF38
:101F4000DFDFDFDFDFDFDFDFDFDFDFDFDFDFDFDFA1
:101F5000DF020202020202000000000000E0E0E0F6
:101F6000E09908484848484800DFDFDFDF9501DF97
:101F7000DFDFDF9501DFDFDFDF9501DFDFDFDF950B
:101F800001020202020100000000000000203030C7
:101F900030303008080808080899E0E0E0E0E099EF
:101FA000E0E0E0E0E099E0E0E0E0E099E0E0E0E0BF
:101FB000E008484848484800000000000030303041
:101FC000303030080808080808E0E0E0E0E0E0E031
:101FD000E0E0E0E0E0E0E0E0E0E0E0E0E0E0E0E001
:101FE000E0484848484848000000000000303030D1
:101FF000302008080808080800E0E0E0E09908E060
:10200000E0E0E09908E0E0E0E09908E0E0E0E09955
:10201000084848484848000000000000003F3F3F93
:102020003F3F3F3F3F3F3F3F3F3F3F3F3F3F3F00FF
:10203000003F3F3F3F0000000000000000000000A4
:10204000000000000000000000000000003F3F0012
:102050004747473F3F004747473F3F004747473FC6
:102060003F0047474700000000000000000000005C
:10207000000000000000000000000000004747478B
:1020800047470047474747470047474747470047B5
:1020900047470000000000000000000000000000B2
:1020A000000000000000000000000000003F3F00B2
:1020B000FAFAFA3F3F00FAFAFA3F3F00FAFAFA3F1B
:1020C0003F00FAFAFA0000000000000000000000E3
:1020D00000000000000000000000000000FAFAFA12
:1020E000FAFA00FAFAFAFAFA00FAFAFAFAFA00FA3E
:1020F000FAFA0000000000000000000000000000EC
:10210000000000000000000000000000003F3F0051
:102110003F3F3F3F3F003F3F3F3F3F003F3F3F3F4D
:102120003F003F3F3F0000000000000000000000B3
:10213000000000000000000000000000003F3F3FE2
:102140003F3F003F3F3F3F3F003F3F3F3F3F003F5C
:102150003F3F000000000000000000000000000001
:10216000000000000000000000000000000000006F
:10217000000000000000000000000000000000005F
:10218000000000000000000000000000000000F956
:10219000F90000F9F9F9F900F9F9F9F9F900000085
:1021A000000000000000000000000000000000002F
:1021B00000F900000000F9F9F90000F9F9F9F9F95E
:1021C000F9F9F9F9F9F9F9F9F9F9F9F9F90000006A
:1021D00000000000000000000000000000000000FF
:1021E0000000000000000000000000F900000000F6
:1021F00000F9F9F9000000F9F9F9F90000000057B9
:102200000000000000570000000000000000000077
:1022100000F900000000F9F9F90000F9F9F9F9F9FD
:10222000F9F9F9F9F9F9F9F9F9F9F9F9F900003FCA
:102230003F3F3F00003F3F3F3F0000003F3F3F0028
:1022400000003F3F3F000000003F3F000000000053
:102250003F0000000000000000000000003F3F3F82
:102260000000003F3F3F3F3F003F3F3F3F3F3F3F7A
:102270003F3F3F3F3F3F3F3F3F3F3F3F3F3F3F3F6E
:102280003F003F3F3F3F0000000000000000000013
:102290000000000000000000003F00000000003FC0
:1022A0003F3F3F00003F3F3F0000003F0000000075
:1022B000000000000000000000000000000000001E
:1022C00000003F00000000003F0000000000000090
:1022D00000000000000000000000000000000000FE
:1022E000000000000000000000000000003F3F3F31
:1022F0003F3F003F3F3F3F3F003F3F3F3F3F3F3F6C
:102300003F3F3F3F3F003F3F3F3F3F0000003F3FD9
:102310003F00000000003F0000000000000000003F
:102320000000000000000000000000000000003F6E
:1023300000000000003F3F000000003F3F3F000062
:10234000003F3F3F3F00000000000000003F3F3FD4
:102350003F3F3F3F3F3F3F3F3F3F3F3F3F3F3F3F8D
:102360003F3F3F3F3F3F3F3F3F3F3F3F3F3F3F3F7D
:102370003F003F3F3F3F000000000000003F3F3F65
:102380003F00003F3F3F3F00003F3F3F0000003F16
:102390003F3F0000003F3F000000003F0000000002
:1023A000000000000000000000000000000000002D
:1023B000002918000010201810001029200000101B
:1023C0003020100000292010000000201000000024
:1023D000000000000000000000000000005252A4B5
:1023E0005D5DF65E5D5D5E665E5D66045E005E0080
:1023F00003060300000400040004000004000400BD
:10240000000000000000000000000000008140000B
:10241000000000F65D000000005D660000000000A6
:1024200000660000000000006600000000000000E0
:102430000000000000000000000000000000525BEF
:102440005B5B5B00000000000000000000005D001E
:10245000001020291800103020180810302010001B
:1024600000292010000000201000000000A4A4514A
:1024700000005E525BA45D5DF65E5D5D5E665E5D66
:1024800066045E005E00030603000004000400040E
:1024900000000400040000000000000000400000F4
:1024A000000000814000000000F65D000000005DBB
:1024B00066000000000000660000000000006600EA
:1024C000000000000000000000000000000000000C
:1024D00000000000000000000000000000525B004F
:1024E0000008525BA40008525BA4A418205BA4A4BB
:1024F0000029180800000018080000000000005122
:1025000000005E5BA4A45D5DF6A4A45D5E665EA4AF
:1025100066045E005E00030603000004000400047D
:1025200000000400040000000000000000000000A3
:10253000FFFFFF00FF00FFFFFF00FF0000FFFF00A5
:1025400000FF00D8D80000FFFF00000000000000DE
:102550000000000000FFFF0000000000000000D8A5
:102560000000FFFFFFD8FFFFFFFFD8D8D8FFFFD83C
:10257000D8D8D8D8D8D8D8D8D8D8000000000000EB
:1025800000FF000000FFFF000000000000FFFF0050
:10259000000000FFFF00FF0000FFD800FF0000D890
:1025A00000FF00000000FFFF00000000000000002E
:1025B00000FF00000000000000000000000000001C
:1025C00050505000FF0048505000FF0000484800A5
:1025D00000FF00D8D80000FFFF000000000000004E
:1025E0000000000000FFFF0000000000005050D875
:1025F0005050505048D848505048D8D8D84848D85B
:10260000D8D8D8D8D8D8D8D8D8D80000000000005A
:1026100000FF000000FFFF0000000000005050001D
:10262000000000504800FF000048D800FF0000D81C
:1026300000FF00000000FFFF00000000000000009D
:1026400000FF00000000000000000000000000008B
:1026500000000D000000000000000000000000006D
:10266000000000000000000000000000000000006A
:10267000000000000000000000000000000D020249
:102680000D0D0D00020299990000020299990000B7
:10269000999999990000999902020000999902026A
:1026A000000002020000000002020000000D000015
:1026B000000000000000000000000000000000001A
:1026C000000000000000000000000000000000000A
:1026D000000000000000000000000000000D0202E9
:1026E0000D0D0D0002029999000002029999000057
:1026F000999999990000020299990000020299990A
:1027000000000000020200000000020200000000C1
:102710000000770000000077FF00000077FF7700DF
:102720000000FF77FF0000FF77FF77000077FF775B
:10273000770077FF77FF7700FF77FF77FFFF7777E7
:102740002F7777777777772F77FF77FF77772F77E1
:10275000772F772F77FF77FF2F77777777772F7719
:102760002FFF777777777777FF77772F2F2F2F00C8
:10277000000000772F000000002F2F2F0000002FF7
:10278000772F000000772F2F2F00002F772F2F009B
:1027900000772F772F2F002F772F2F2F000000008B
:1027A0000000000000000000000000000000000029
:1027B00000000000000000AD772F0000AD77772FFC
:1027C0002FAD77AD2F772F77AD772F772F000000C4
:1027D00000000000000000000000000000000000F9
:1027E000000000000000005C772F00005C77772F6E
:1027F0002F5C775C2F772F775C772F772F00000087
:10280000000000000000001C000000001C1C2E0046
:1028100000001C1C2E000000001C1C00006F0000AB
:102820000000006F001F6F000000001F6F0000001D
:102830000000001C2E2E1C002E000000002E2E1C5E
:102840002E2E2E1C2E2E2E2E2E1C1C0000000000C4
:1028500000006F6F6F006FFF006F00FF1F00000030
:102860000000001C00000000001C1C000000001CF8
:102870001C000000001C000000000000001F000001
:10288000001F006F0000001F00000000000000009B
:1028900000000000000000001C000000001C1C00E4
:1028A0000000001C1C00000000001C0000001F00B5
:1028B000000000006F001F00000000001F0000006B
:1028C0000000002E001C2E2E1C2E2E000000002EBC
:1028D0001C2E2E2E1C1C1C2E2E2E2E000000000046
:1028E000006F006F6F6F001FFF006F00FF000000A0
:1028F000000000001C000000002E1C1C0000002E28
:102900001C1C0000001C1C000000000000006F00E8
:10291000006F1F006F00006F1F000000000000002C
:102920000000770000000077AD00000077AD770071
:102930000000AD77AD0000AD77AD77000077AD77E3
:10294000770077AD77AD7700AD77AD77ADAD7777C1
:102950002F7777777777772F77AD77AD77772F7773
:10296000772F772F77AD77AD2F77777777772F77AB
:102970002FAD777777777777AD77772F2F000000B8
:1029800000007700000000775C000000775C7700B3
:1029900000005C775C00005C775C770000775C7718
:1029A0007700775C775C77005C775C775C5C777747
:1029B0002F7777777777772F775C775C77772F77B5
:1029C000772F772F775C775C2F77777777772F77ED
:1029D0002F5C7777777777775C77772F2F000000FA
:1029E0002E001F00000076760000000000767600C2
:1029F0000000006476000000000064000000009801
:102A000000000000009898000000000000FF006F28
:102A100000FF1F1F1F1F1F1F000000000000767611
:102A20007664767664646464646400000000000088
:102A300000980000000000000000000000001C1CC6
:102A4000000000640064000000640000000000005A
:102A5000006F000000000000000000000000000007
:102A60000000000000000000000000000000000066
:102A70001C1C0000000064006400000000006400F2
:102A800000006F00000000000000000000000000D7
:102A9000000000000000000000000000001FFF0018
:102AA0006F00FF001F1F1F1F1F7600000000006443
:102AB00076766476760064646464640000000000E6
:102AC000000000000000980000000000001F002E21
:102AD00000000000767600000076760000000076A8
:102AE0006400000000640000000000009800000086
:102AF00000989800000000000000000000000000A6
:102B000000000000000000000000000000000000C5
:102B100000000000000000000000000000000000B5
:102B2000000000000000000000000000000000FFA6
:102B300000000000FFFFFF000000FFFFFF0000009B
:102B400000FF0000000000FF000000000000000087
:102B5000000000FF000000000000000000FFFF0078
:102B6000FFFF00FFFF00FFFF00FF0000FF0000006D
:102B70000000000000000000000000000000000055
:102B80000000000000000000000000000000000045
:102B900000000000FF00FF0000FFFFFFFFFF00003C
:102BA000FF00FF000000FF00FF0000FFFFFFFFFF2E
:102BB0000000FF00FF000000000000000000FF0018
:102BC00000000000FFFFFF0000FF00000000000009
:102BD000FFFF000000000000FF0000FFFFFF0000FB
:102BE000000000FF000000000000000000FFFF00E8
:102BF00000FF00FFFF0000FF00000000FF000000DA
:102C000000FF00000000FF00000000FF0000FFFFC9
:102C100000FF0000FFFF0000000000000000FF00B8
:102C2000000000FF00FF000000FF00FF00000000A8
:102C3000FF00000000FF00FF00FF00FF0000FF009A
:102C40000000FFFF00FF0000000000000000FFFF89
:102C500000000000FFFF00000000FF000000000077
:102C60000000000000000000000000000000000064
:102C7000000000000000000000000000000000FF55
:102C800000000000FF0000000000FF000000000046
:102C9000FF0000000000FF0000000000FF00000037
:102CA000000000FF00000000000000000000FF0026
:102CB0000000000000FF0000000000FF0000000016
:102CC00000FF0000000000FF0000000000FF000007
:102CD0000000FF00000000000000000000000000F5
:102CE00000000000FF00FF000000FFFFFF0000FFEA
:102CF000FFFFFFFF0000FFFFFF000000FF00FF00DD
:102D000000000000000000000000000000000000C3
:102D10000000000000FF0000000000FF000000FFB6
:102D2000FFFFFFFF000000FF0000000000FF0000A9
:102D30000000000000000000000000000000000093
:102D40000000000000000000000000000000000083
:102D5000000000000000000000000000FFFF000075
:102D60000000FFFF00000000FF0000000000000066
:102D7000000000000000000000000000000000FF54
:102D8000FFFFFFFF00000000000000000000000047
:102D90000000000000000000000000000000000033
:102DA0000000000000000000000000000000000023
:102DB000000000000000000000000000FFFF000015
:102DC0000000FFFF00000000000000000000000005
:102DD00000000000000000FF00000000FF000000F5
:102DE00000FF00000000FF00000000FF00000000E6
:102DF0000000000000000000000000000000FFFFD5
:102E0000FF0000FF000000FF00FF0000FFFF00FFC9
:102E100000FF00FF00FFFF0000FF00FF000000FFB9
:102E20000000FFFFFF00000000000000000000FFA6
:102E300000000000FFFF0000000000FF0000000095
:102E400000FF0000000000FF0000000000FF000085
:102E50000000FFFFFF000000000000000000FFFF77
:102E6000FF0000FF000000FF0000000000FF000066
:102E700000FFFF000000FF00000000FF0000000056
:102E800000FFFFFFFFFF0000000000000000FFFF49
:102E9000FF0000FF000000FF0000000000FF000036
:102EA000FFFFFF000000000000FF00FF000000FF28
:102EB0000000FFFFFF000000000000000000000015
:102EC000FF00000000FFFF000000FF00FF0000FF08
:102ED0000000FF0000FFFFFFFFFF00000000FF00F9
:102EE00000000000FF0000000000000000FFFFFFE6
:102EF000FFFF00FF0000000000FF0000000000FFD7
:102F0000FFFFFF000000000000FF00FF000000FFC7
:102F10000000FFFFFF00000000000000000000FFB5
:102F2000FF000000FF00000000FF0000000000FFA5
:102F3000FFFFFF0000FF000000FF00FF000000FF98
:102F40000000FFFFFF0000000000000000FFFFFF87
:102F5000FFFF0000000000FF00000000FF00000075
:102F600000FF00000000FF0000000000FF00000064
:102F70000000FF0000000000000000000000FFFF54
:102F8000FF0000FF000000FF00FF000000FF000046
:102F9000FFFFFF0000FF000000FF00FF000000FF38
:102FA0000000FFFFFF000000000000000000FFFF26
:102FB000FF0000FF000000FF00FF000000FF000016
:102FC000FFFFFFFF0000000000FF00000000FF0007
:102FD0000000FFFF000000000000000000000000F3
:102FE00000000000000000000000FFFF00000000E3
:102FF000FFFF00000000000000000000FFFF0000D5
:103000000000FFFF000000000000000000000000C2
:1030100000000000000000000000FFFF00000000B2
:10302000FFFF00000000000000000000FFFF0000A4
:103030000000FFFF00000000FF0000000000000093
:1030400000FF00000000FF00000000FF0000000083
:10305000FF000000000000FF000000000000FF0073
:103060000000000000FF0000000000000000000061
:10307000000000000000000000FFFFFFFFFF000055
:103080000000000000000000000000FFFFFFFFFF45
:103090000000000000000000000000000000FF0031
:1030A0000000000000FF000000000000FF00000022
:1030B000000000FF00000000FF00000000FF000013
:1030C0000000FF0000000000000000000000FFFF03
:1030D000FF0000FF000000FF0000000000FF0000F4
:1030E00000FFFF00000000FF0000000000000000E3
:1030F000000000FF00000000000000000000FFFFD3
:10310000FF0000FF000000FF00FF00FFFFFF00FFC7
:1031100000FF00FF00FF00FFFFFF00FF00000000B6
:103120000000FFFFFF000000000000000000FFFFA4
:10313000FF0000FF000000FF00FF000000FF00FF95
:10314000000000FF00FFFFFFFFFF00FF000000FF87
:1031500000FF000000FF00000000000000FFFFFF74
:10316000FF0000FF000000FF00FF000000FF00FF65
:10317000FFFFFF0000FF000000FF00FF000000FF56
:1031800000FFFFFFFF000000000000000000FFFF45
:10319000FF0000FF000000FF00FF0000000000FF34
:1031A0000000000000FF0000000000FF000000FF22
:1031B0000000FFFFFF0000000000000000FFFFFF15
:1031C000FF0000FF000000FF00FF000000FF00FF05
:1031D000000000FF00FF000000FF00FF000000FFF4
:1031E00000FFFFFFFF0000000000000000FFFFFFE6
:1031F000FFFF00FF0000000000FF0000000000FFD4
:10320000FFFFFF0000FF0000000000FF00000000C3
:1032100000FFFFFFFFFF00000000000000FFFFFFB6
:10322000FFFF00FF0000000000FF0000000000FFA3
:10323000FFFFFF0000FF0000000000FF0000000093
:1032400000FF000000000000000000000000FFFF81
:10325000FF0000FF000000FF00FF0000000000FF73
:1032600000FFFFFF00FF000000FF00FF000000FF65
:103270000000FFFFFFFF00000000000000FF000053
:1032800000FF00FF000000FF00FF000000FF00FF44
:10329000FFFFFFFF00FF000000FF00FF000000FF36
:1032A00000FF000000FF0000000000000000FFFF22
:1032B000FF00000000FF0000000000FF0000000011
:1032C00000FF0000000000FF0000000000FF000001
:1032D0000000FFFFFF0000000000000000000000F1
:1032E00000FF0000000000FF0000000000FF0000E1
:1032F000000000FF00FF000000FF00FF000000FFD3
:103300000000FFFFFF0000000000000000FF0000C1
:1033100000FF00FF0000FF0000FF00FF000000FFB3
:10332000FF00000000FF00FF000000FF0000FF00A2
:1033300000FF000000FF00000000000000FF000090
:10334000000000FF0000000000FF0000000000FF80
:103350000000000000FF0000000000FF000000006F
:1033600000FFFFFFFFFF00000000000000FF000063
:1033700000FF00FFFF00FFFF00FF00FF00FF00FF56
:10338000000000FF00FF000000FF00FF000000FF42
:1033900000FF000000FF00000000000000FF000030
:1033A00000FF00FFFF0000FF00FF00FF00FF00FF25
:1033B0000000FFFF00FF000000FF00FF000000FF13
:1033C00000FF000000FF0000000000000000FFFF01
:1033D000FF0000FF000000FF00FF000000FF00FFF3
:1033E000000000FF00FF000000FF00FF000000FFE2
:1033F0000000FFFFFF0000000000000000FFFFFFD3
:10340000FF0000FF000000FF00FF000000FF00FFC2
:10341000FFFFFF0000FF0000000000FF00000000B1
:1034200000FF000000000000000000000000FFFF9F
:10343000FF0000FF000000FF00FF000000FF00FF92
:10344000000000FF00FF00FF00FF00FF0000FF0082
:103450000000FFFF00FF00000000000000FFFFFF72
:10346000FF0000FF000000FF00FF000000FF00FF62
:10347000FFFFFF0000FF0000FF0000FF000000FF53
:1034800000FF000000FF0000000000000000FFFF40
:10349000FF0000FF000000FF00FF00000000000030
:1034A000FFFFFF000000000000FF00FF000000FF22
:1034B0000000FFFFFF0000000000000000FFFFFF12
:1034C000FFFF000000FF0000000000FF0000000000
:1034D00000FF0000000000FF0000000000FF0000EF
:1034E000000000FF000000000000000000FF0000DE
:1034F00000FF00FF000000FF00FF000000FF00FFD2
:10350000000000FF00FF000000FF00FF000000FFC0
:103510000000FFFFFF0000000000000000FF0000AF
:1035200000FF00FF000000FF00FF000000FF00FFA1
:10353000000000FF00FF000000FF0000FF00FF0090
:10354000000000FF000000000000000000FF00007D
:1035500000FF00FF000000FF00FF00FF00FF00FF72
:1035600000FF00FF00FF00FF00FF00FF00FF00FF63
:103570000000FF00FF0000000000000000FF00004E
:1035800000FF00FF000000FF0000FF00FF00000040
:1035900000FF00000000FF00FF0000FF000000FF30
:1035A00000FF000000FF00000000000000FF00001E
:1035B00000FF00FF000000FF00FF000000FF000010
:1035C000FF00FF00000000FF0000000000FF0000FF
:1035D000000000FF000000000000000000FFFFFFEF
:1035E000FF0000000000FF00000000FF00000000DE
:1035F000FF00000000FF0000000000FF00000000CE
:1036000000FFFFFFFF00000000000000000000FFBF
:10361000FF000000FF0000000000FF00000000FFAE
:10362000FF0000000000FF0000000000FF0000009D
:10363000000000FFFF00000000000000000000FF8D
:10364000FF000000FF0000FF00FF00FFFF00FFFF82
:1036500000FF0000FFFF00FFFF00FF00FF0000FF72
:10366000000000FFFF000000000000000000FFFF5E
:10367000000000000000FF0000000000FF0000004C
:103680000000FFFF00000000FF0000000000FF003E
:103690000000FFFF0000000000000000004652454F
:1036A0004520424C4F434B0050414745002F0045B9
:1036B00044495400434F505900504153544500521F
:1036C000452D4C4F4144005341564500464F524D05
:1036D000415400AF36B436B936BF36C736CC362D76
:1036E0002D2D204B45524E454C2053455454494EA8
:1036F0004753202D2D2D002D2D2D2046454154556D
:10370000524553202D2D2D004E455300534E455309
:10371000004F5448455200300031004A4F5953542D
:1037200049434B3A00534F465420504F574552207F
:1037300053573A00535441545553204C45443A0092
:10374000534420434152443A004D49444920494E94
:103750003A004D494449204F55543A004554484594
:10376000524E45543A00505332204B2F423A0050AB
:103770005332204D4F5553453A004144373235209E
:10378000502F433A002D2D2D205350454353202DCB
:103790002D2D005349474E41545552453A2024009F
:1037A00056455253494F4E3A202400424C4F434B0A
:1037B0002053495A453A2024004845414445522067
:1037C00053495A453A202400482F57205645522E37
:1037D0003A202400482F57205245562E3A202400E4
:1037E0004558542046454154555245533A202400EB
:1037F0004D414320414444523A202400434F4C4F12
:103800005220434F5252454354494F4E3A202400D0
:1038100047414D45204352433A20240052455345E9
:10382000525645443A2031302042595445530052B3
:1038300045534552564544004D454741545249531E
:1038400000574841434B2D412D4D4F4C4500564F9D
:103850004944204649474854455200504F4E47007E
:1038600041524B414E4F49440044522E204D41524B
:10387000494F004C4F44452052554E4E4552003F53
:103880003F3F00535041434520494E564144455225
:1038900053005041432D4D414E00422E432E2044B3
:1038A00041534800534F4B4F42414E20574F524CCB
:1038B0004400414456454E5455524553204F4620EE
:1038C0004C4F4C4F005A4F4D4249454E41544F5278
:1038D00000434F5252494441204E45424F534F53AB
:1038E0004100434153544C4556414E49413A2056BC
:1038F000454E4745414E434500FFFF3C000500054E
:10390000000500050005000500050005000500058F
:10391000000A000A000A0005000500030003000376
:103920000003001400140014000700070000000149
:10393000000102000102030001020304000102036E
:103940000405000100020001020104190300CD007A
:1039500003030C002D0103030C005D0101000000B6
:103960008D01050A07009D0103030C00ED0103030F
:103970000C004D02041503007D0204191100AD0274
:1039800002010100DD0202010F00FD0204190C001A
:103990001D03030315001D02020118004D03041945
:1039A0000C00FD000200383801000300413802001D
:1039B00004004E38030005005B3804000600603840
:1039C0000500070069380C00080073380B000C0074
:1039D000833806000D00923807000E009A38080060
:1039E0000F009A3808003D00A4380D003E00A438AE
:1039F0000D003F00B23809005900C5380A003902ED
:103A0000D13800009A02E23800005A552F380E00D3
:103A100011241FBECFEFD0E1DEBFCDBF14BE88E1C1
:103A20000FB6F89480936000109260000FBE11E012
:103A3000A0E0B1E0E4E5F4E702C005900D92AA3001
:103A4000B107D9F71DE0AAE0B1E001C01D92AE3F79
:103A5000B107E1F70E942127882311F40E9437273C
:103A6000F894EFEEF9E080E090E020E802C02193C6
:103A7000019632E08C309307D4F38FEE99E0909367
:103A8000FC0B8093FB0B1092FD0BE0E0FCE080E070
:103A900090E003C0108201963A9684309105D4F3E9
:103AA00090932F0C80932E0C91E09093200C909388
:103AB000210C90931F0C1092810015BC8FEF87B9D9
:103AC00084B988E98AB95C9A8CE081B98BEF82B9B4
:103AD0001092CC0986E08093CD0910928500109257
:103AE000840083E0809389008DE88093880089E0DA
:103AF0008093810082E080936F0082E484BD17BCD4
:103B000095BD83E88093B0001092B3009093B1000C
:103B100081E185B91092E0091092D0091092D10983
:103B20001092DB091092DA091092DF091092DE0977
:103B30001092E2090E94092880E00E94EF2680FF8F
:103B400003C084E00E94EC260E94702C78940E94AE
:103B50006F2C0E94EB370C94283A0C940000EEED89
:103B600000C000C0EA95E1F7C895C895CAE0D1E069
:103B700000EEA02E662776E005D13EE23A95F1F7F9
:103B80000E94EA1D31E13A95F1F7AA9489F0C895AF
:103B90006395683029F0C895C895C8950000ECCFAA
:103BA0006627002430E5C30FD01DC8950000E4CF80
:103BB00035E03A95F1F700C0E5D011E00091CF096A
:103BC00001270093CF0900FF1093CE09E2E0E093B4
:103BD00036000895DE014D915D91679FC001480F49
:103BE000591FFA0128E2059108B94D91059108B9CC
:103BF0005D91059108B900C0059108B9480F591F9A
:103C0000059108B90591FA012A9508B961F700C034
:103C10000000002708B90895D01EDA1EE81E101E05
:103C200028980E946920E7E1EA95F1F7289A0FD1D8
:103C3000E0E0F6E0F2D0E0FF32D0E0FF2FC02F93BB
:103C40003F934F935F936F937F938F939F93AF9324
:103C5000BF9378941124E091D209F091D309E11532
:103C6000F10509F009950E94712C0E946A280E94B2
:103C70005A270E94C71F1124E091D409F091D50959
:103C8000E115F10509F00995BF91AF919F918F91D1
:103C90007F916F915F914F913F912F910895EF9395
:103CA000E091CD09E93EE0F5E930D0F12F923F9265
:103CB0004F925F926F927F928F929F92AF92BF923C
:103CC000CF92DF92EF92FF920F931F932F933F9328
:103CD0004F935F936F937F938F939F93AF93BF9314
:103CE000CF93DF930E94AF1DDF91CF91BF91AF9132
:103CF0009F918F917F916F915F914F913F912F9104
:103D00001F910F91FF90EF90DF90CF90BF90AF90F9
:103D10009F908F907F906F905F904F903F902F90EB
:103D2000EF910895FF93EF93EFB7EF93E091840045
:103D3000EE50E13000F0E23000F0E33000F0E4302B
:103D400000F0E53000F0E63000F0E73000F0E83059
:103D500000F0E93000F005D0EF91EFBFEF91FF9157
:103D600018950F921F92E8E1FCE30090CC09000C3B
:103D70001124E00DF11D05901490F00109951F909C
:103D80000F90089528980E946920E5E1EA95F1F7DF
:103D9000E091CD09EA95E093CD09289A00C00895F5
:103DA00028980E949020289A0000E1E0F6E035D0A3
:103DB00047D0089528980E949020E0EB0000EA95F3
:103DC000E9F700000000289AF6E0E2E026D0089526
:103DD00028980E949020289A0000E3E0FDEF1DD073
:103DE000E091CD09E53091F4E091CF09E130000098
:103DF000F091E00919F4F091E009F195E3E0E09326
:103E00008900EDE8EF0FE09388000895E3E0E09388
:103E10008900EDE8E093880008950090CD090A94A8
:103E200010905F0011FC0F2E0092CD090090CC097C
:103E300011FC0E2E0092CC09E0E011FCE1E00895A7
:103E4000E3E0E0938900EDE8E09388000895E7E07F
:103E5000E0938900EBE1E093880008950000000002
:103E60000000000000000000000000000000000052
:103E70000000000000000000000000000000000042
:103E80000000000000000000000000000000000032
:103E90000000000000000000000000000000000022
:103EA0000000000000000000000000000000000012
:103EB0000000000000000000000000000000000002
:103EC00000000000000000000000000000000000F2
:103ED00000000000000000000000000000000000E2
:103EE00000000000000000000000000000000000D2
:103EF00000000000000000000000000000000000C2
:103F000099277727833008F00895E0E0FCE4660FF6
:103F1000771FE60FF71FA591B491E0E0FCE02AE0DF
:103F2000289FE00DF11DA183B28311240895909183
:103F30001F0C9170880F892B80931F0C089599276F
:103F40007727E0E0FCE02AE0289FE00DF11D6E3FBE
:103F500031F460911F0C6E7F60931F0C0BC06F3F9C
:103F600031F460911F0C6E6F60931F0C03C072E4FC
:103F7000760F75831124089599277727E0E0FCE0F8
:103F80002AE0289FE00DF11D6083112408950E940E
:103F9000D7290090FD0B002019F4AFEEB9E002C064
:103FA000A5EFBAE021E002260092FD0B22E020936B
:103FB000FE0B2F923F924F925F926F927F928F9261
:103FC0009F92AF92BF92CF92DF92EF92FF920F93A8
:103FD0001F93CF93DF932090010C3090020C409000
:103FE000040C5090050C6090030C1091000C709024
:103FF0000B0C80900C0C90900D0CA0900E0CB090BF
:104000000F0C20910A0CC090150CD090160CE0906B
:10401000180CF090190C0091170C3091140C9FEFB4
:10402000620C431CF2014491410300240008C12D9D
:10403000D02D0024C038D0050CF0CFE70A94C0384A
:10404000D0050CF4C0E8C058CD939A9509F0E8CF9C
:104050004091FE0B4A954093FE0B97E009F0E0CFAC
:104060006092030C4092040C90920D0CA0920E0CE6
:104070000093170CE092180C6093200C7093210CA5
:104080008093220CDF91CF911F910F91FF90EF90C1
:10409000DF90CF90BF90AF909F908F907F906F9068
:1040A0005F904F903F902F900895E091FB0BF0911F
:1040B000FC0B019100000093B3000BE0EB3FF00715
:1040C0000FEE19E008F0F801E093FB0BF093FC0B06
:1040D00008950C946B200C946D200F931F932F93D5
:1040E000E091FB0BF091FC0B01910093B3000BE00E
:1040F000EB3FF00710F40000000010F0EFEEF9E0E5
:10410000E093FB0BF093FC0BC895C895C895C89538
:10411000C895C895000000002F911F910F91089538
:104120000000E091CD09E0FFD8CFE1E1EA95F1F799
:1041300000000000089500000000000000000000E2
:10414000000000000000000000000000000000006F
:10415000000000000000000000000000000000005F
:10416000000000000000000000000000000000004F
:10417000000000000000000000000000000000003F
:10418000000000000000000000000000000000002F
:10419000000000000000000000000000000000001F
:1041A000000000000000000000000000000000000F
:1041B00000000000000000000000000000000000FF
:1041C00000000000000000000000000000000000EF
:1041D00000000000000000000000000000000000DF
:1041E00000000000000000000000000000000000CF
:1041F00000000000000000000000000000000000BF
:10420000000306090C101316191C1F2225282B2E3B
:10421000313336393C3F414447494C4E5153555850
:104220005A5C5E60626466686A6B6D6F707173740D
:10423000757678797A7A7B7C7D7D7E7E7E7F7F7FC6
:104240007F7F7F7F7E7E7E7D7D7C7B7A7A797876AC
:1042500075747371706F6D6B6A68666462605E5CC2
:104260005A585553514E4C494744413F3C393633D7
:10427000312E2B2825221F1C191613100C0906039A
:1042800000FDFAF7F4F0EDEAE7E4E1DEDBD8D5D2A1
:10429000CFCDCAC7C4C1BFBCB9B7B4B2AFADABA86C
:1042A000A6A4A2A09E9C9A9896959391908F8D8C8F
:1042B0008B8A8887868685848383828282818181B6
:1042C0008181818182828283838485868687888AB0
:1042D0008B8C8D8F9091939596989A9C9EA0A2A47A
:1042E000A6A8ABADAFB2B4B7B9BCBFC1C4C7CACD45
:1042F000CFD2D5D8DBDEE1E4E7EAEDF0F4F7FAFD62
:10430000808182838485868788898A8B8C8D8E8F35
:10431000909192939495969798999A9B9C9D9E9F25
:10432000A0A1A2A3A4A5A6A7A8A9AAABACADAEAF15
:10433000B0B1B2B3B4B5B6B7B8B9BABBBCBDBEBF05
:10434000C0C1C2C3C4C5C6C7C8C9CACBCCCDCECFF5
:10435000D0D1D2D3D4D5D6D7D8D9DADBDCDDDEDFE5
:10436000E0E1E2E3E4E5E6E7E8E9EAEBECEDEEEFD5
:10437000F0F1F2F3F4F5F6F7F8F9FAFBFCFDFEFFC5
:10438000000102030405060708090A0B0C0D0E0FB5
:10439000101112131415161718191A1B1C1D1E1FA5
:1043A000202122232425262728292A2B2C2D2E2F95
:1043B000303132333435363738393A3B3C3D3E3F85
:1043C000404142434445464748494A4B4C4D4E4F75
:1043D000505152535455565758595A5B5C5D5E5F65
:1043E000606162636465666768696A6B6C6D6E6F55
:1043F000707172737475767778797A7B7C7D7E7F45
:1044000000020406080A0C0E10121416181A1C1EBC
:1044100020222426282A2C2E30323436383A3C3EAC
:1044200040424446484A4C4E50525456585A5C5E9C
:1044300060626466686A6C6E70727476787A7C7E8C
:104440007F7D7B79777573716F6D6B69676563616C
:104450005F5D5B59575553514F4D4B49474543415C
:104460003F3D3B39373533312F2D2B29272523214C
:104470001F1D1B19171513110F0D0B09070503013C
:10448000FFFDFBF9F7F5F3F1EFEDEBE9E7E5E3E12C
:10449000DFDDDBD9D7D5D3D1CFCDCBC9C7C5C3C11C
:1044A000BFBDBBB9B7B5B3B1AFADABA9A7A5A3A10C
:1044B0009F9D9B99979593918F8D8B8987858381FC
:1044C00080828486888A8C8E90929496989A9C9EFC
:1044D000A0A2A4A6A8AAACAEB0B2B4B6B8BABCBEEC
:1044E000C0C2C4C6C8CACCCED0D2D4D6D8DADCDEDC
:1044F000E0E2E4E6E8EAECEEF0F2F4F6F8FAFCFECC
:104500007F7F7F7F7F7F7F7F7F7F7F7F7F7F7F7FBB
:104510007F7F7F7F7F7F7F7F7F7F7F7F7F7F7F7FAB
:104520007F7F7F7F7F7F7F7F7F7F7F7F7F7F7F7F9B
:104530007F7F7F7F7F7F7F7F7F7F7F7F7F7F7F7F8B
:104800000309131E28313A40464C5054585B5E61F0
:10481000636567696B6C6E6F7071727374757677B0
:10482000777879797A7A7B7B7C7C7C7D7D7D7E7ED6
:104830007E7E7F7F7F7F7F7F7F7F7F7F7F7F7F7F8A
:104840007F7F7F7F7F7F7F7F7F7F7F7F7F7E7E7E7B
:104850007E7D7D7D7C7C7C7B7B7A7A7979787777AD
:10486000767574737271706F6E6C6B696765636176
:104870005E5B5854504C46403A31281E13090300E1
:10488000C6CCD5DBDFE3E5E7E9EAEBECEDEEEFEFF5
:10489000F0F0F0F1F1F1F1F2F2F2F2F2F2F2F2F301
:1048A000F3F3F3F3F3F3F3F3F3F3F3F3F3F3F3F3D8
:1048B000F3F3F3F3F3F3F3F3F3F3F3F3F3F3F3F3C8
:1048C000F3F3F3F3F3F3F3F3F3F3F3F3F3F3F3F3B8
:1048D000F3F3F3F3F3F3F3F3F3F3F3F3F3F3F3F3A8
:1048E000F2F2F2F2F2F2F2F2F1F1F1F1F0F0F0EFB5
:1048F000EFEEEDECEBEAE9E7E5E3DFDBD5CCC60074
:1049000000283D42302D2C2B2C2D2E2F30323335CC
:1049100037393B3D3F414345484A4C4E505355572C
:10492000595B5D5F61636567696B6C6E7071737411
:10493000757778797A7B7C7D7D7E7E7F7F7F7F7FB8
:104940007F7F7F7F7F7F7E7E7D7D7C7B7A7978779E
:1049500075747371706E6C6B69676563615F5D5BC5
:1049600059575553504E4C4A484543413F3D3B39BA
:1049700037353332302F2E2D2C2B2C2D30423D2825
:1049800000E9E5FED4D7D7D7D6D4D2D0CECCCAC88A
:10499000C6C3C1BFBDBAB8B6B4B1AFADABA9A7A5C8
:1049A000A3A19F9E9C9A999795949391908F8D8C9B
:1049B0008B8A89888887868585848484838383839A
:1049C0008383838383848484858586878888898A92
:1049D0008B8C8D8F909193949597999A9C9E9FA183
:1049E000A3A5A7A9ABADAFB1B4B6B8BABDBFC1C39B
:1049F000C6C8CACCCED0D2D4D6D7D7D7D4FEE5E954
:104A0000F9F8F9F5EBE1DDDEE0E2E4E5E6E5E4E224
:104A1000DED9D2CAC1B7ACA299918A86838180803F
:104A20008182838586888A8C8D8F909293959697C4
:104A300098999A9B9B9C9D9D9D9E9E9E9F9F9F9FAC
:104A40009F9F9F9E9E9E9D9D9D9C9B9B9A999897A4
:104A500096959392908F8D8C8A88868583828180AB
:104A6000808183868A9199A2ACB7C1CAD2D9DEE28D
:104A7000E4E5E6E5E4E2E0DEDDE1EBF5F9F8F90096
:104A80000708070B151F2322201E1C1B1A1B1C1EA8
:104A900022272E363F49545E676F767A7E7F7F7F6E
:104AA0007F7E7D7B7A7876747371706E6D6B6A69C8
:104AB00068676665656464636362626261616161BF
:104AC00061616162626263636364656566676869A8
:104AD0006A6B6D6E7071737476787A7B7D7E7F7F82
:104AE0007F7F7E7A766F675E54493F362E27221E7F
:104AF0001C1B1A1B1C1E2022231F150B0708070056
:104B00001F313D444E5354565A5F64696E74767932
:104B10007C7F7F7F7F7F7F7F7F7F7F7F7F7F7F7FA8
:104B20007F7F7F7F7F7F7F7F7F7F7F7F7F7F7F7F95
:104B30007F7F7F7F7F7F7F7F7F7F7F7F7F7F7F7F85
:104B40007F7F7F7F7F7F7F7F7F7F7F7F7F7F7F7F75
:104B50007F7F7F7F7F7F7F7F7F7F7F7F7F7F7F7F65
:104B60007F7F7F7F7F7F7F7F7F7F7F7F7F7F7F7F55
:104B70007F7F7F7F7F7F7F7F7F7F7F7C7871684CA7
:104B80002C1C120C0A0B0A05FDF3E9DFD4CAC0B7CE
:104B9000AEA69E97918B8685828080808080808063
:104BA0008080808080808080808080808080808005
:104BB00080808080808080808080808080808080F5
:104BC00080808080808080808080808080808080E5
:104BD00080808080808080808080808080808080D5
:104BE00080808080808080808080808080808080C5
:104BF000808080808087919DACC4CBD4DDF2FAFAAE
:104C000022002400260028002B002D003000330055
:104C1000360039003D004000440048004C0051007F
:104C200056005B00600066006C0073007900810034
:104C3000880090009900A200AC00B600C100CC0032
:104C4000D800E500F3000101100121013201440107
:104C500057016C0181019801B001CA01E50102020E
:104C60002102410264028802AE02D702030330032C
:104C700061039403CB03050442048304C7041005B5
:104C80005D05AF0505066106C206290796070908F6
:104C9000830805098E09200ABA0A5D0B0A0CC10CAB
:104CA000840D510E2B0F121007110A121D13401400
:104CB0007415BA1614188319071BA31C571E242039
:104CC0000E22142439267F28E82A752D2930063330
:104CD0000F364539AD3C49401B442848734CFE50C3
:104CE000CF55EA5A51600C661D6C8B725A799280CE
:104CF00037885090E598FDA19FABD3B5A3C00000C5
:104D0000FB01DC0102C005900D9241505040D8F7E4
:104D10000895FC0105900020E9F7809590958E0F8D
:104D20009F1F0895FB01DC0102C001900D924150CC
:104D30005040D8F70895E0E6F4E0AAE0B1E06091D1
:104D4000CA097091CB096D937D933197E1F71124D6
:104D500008959927552728E2220F629F880F080E91
:104D6000191EAAE0B1E0A00DB11D6091CA097091B1
:104D7000CB0920E3429F600D711D6D937C9311243C
:104D800008959927772728E2220F629F880F080E3F
:104D9000191EAAE0B1E0A00DB11D6091D609709175
:104DA000D70920E3429F600D711D529F700D6D93D6
:104DB0007C93112408958093CA099093CB09089598
:104DC0008093D6099093D70908958091CE090895CC
:104DD00011241092CE0908958093E0090895882344
:104DE00029F48091D8099091D90908958091DC091E
:104DF0009091DD090895882329F48091DA09909132
:104E0000DB0908958091DE099091DF09089578E02B
:104E10007A95F1F700000197D1F70895F999FECF3F
:104E200092BD81BD60BDF894FA9AF99A789408957C
:104E3000F999FECF92BD81BDF894F89A80B5789427
:104E400008951F9380E090E00E941827182F81E0BA
:104E500090E00E94182790E0382F20E0210F311DAC
:104E60002A55354509F491E0892F1F910895CF9374
:104E7000DF93C0E0D0E0FE01E059FF4FE491CE01A6
:104E80006E2F0E940E272196C531D105A1F7C0E4EF
:104E9000D0E0CE016FEF0E940E27CE0101966FEF9A
:104EA0000E940E27A09688E0C030D80791F7DF91C6
:104EB000CF9108958091E209882309F4A9C08091D7
:104EC000E309882309F051C08091E4090E94EF268C
:104ED000282F86FF0FC08091E5099091E60902977F
:104EE0009093E6098093E50997FF04C01092E609C4
:104EF0001092E50927FF12C08091E5099091E6091B
:104F000002969093E6098093E509883E910534F076
:104F100087EE90E09093E6098093E50924FF0FC0A7
:104F20008091E7099091E80902979093E8098093AE
:104F3000E70997FF04C01092E8091092E70925FFDE
:104F400067C08091E7099091E80902969093E8097B
:104F50008093E709883D91050CF45AC087ED90E0F5
:104F60009093E8098093E70908958091E4090E94ED
:104F7000FB269C014091E5095091E6098F779070DE
:104F800027FF0EC0BA01681B790B7093E609609386
:104F9000E50977FF14C01092E6091092E5090FC0E9
:104FA000840F951F9093E6098093E509883E91054B
:104FB00034F087EE90E09093E6098093E509409104
:104FC000E7095091E809832F992737FF10C08F77A1
:104FD00090709A01281B390B3093E8092093E70958
:104FE00037FF16C01092E8091092E70908958F77ED
:104FF0009070840F951F9093E8098093E709883D8E
:10500000910534F087ED90E09093E8098093E709EB
:105010000895FF920F931F93CF93DF93129A80917D
:10502000E209882329F081E090E00E94072702C06E
:10503000C895C895129800E010E0C0E0D0E0FF24C9
:1050400016950795D695C79513988091E209882300
:1050500029F085E090E00E94072702C0C895C89516
:10506000009B1068019BD068139A8091E209882305
:1050700029F085E090E00E94072702C0C895C895F6
:10508000F39480E1F816E1F61093D9090093D8095A
:10509000D093DD09C093DC098091D8099091D9099A
:1050A0000F9731F08091DC099091DD090F9761F441
:1050B00028E088E190E00FB6F894A895809360000E
:1050C0000FBE20936000FFCFDF91CF911F910F9112
:1050D000FF900895FF920F931F93CF93DF930E9449
:1050E00009288091D8099091D90997FD06C080912F
:1050F000DC099091DD0997FF27C081E090E00E94D4
:10510000072700E010E0C0E0D0E0FF24000F111FEF
:10511000CC0FDD1F1398C895C895C895C895009BFE
:105120000160019BC160139A88E090E00E9407270C
:10513000F39480E1F81651F71093DB090093DA0934
:10514000D093DF09C093DE09DF91CF911F910F91BA
:10515000FF90089590E026E130E0829FF001839F68
:10516000F00D929FF00D1124EB5CF34F62870895D0
:1051700060931F0C089590E026E130E0829FF001DB
:10518000839FF00D929FF00D1124EB5CF34F13867B
:105190001182089590E026E130E0829FF001839F24
:1051A000F00D929FF00D1124EB5CF34F81E0838BA7
:1051B000089590E026E130E0829FF001839FF00D9A
:1051C000929FF00D1124EB5CF34F6187089590E0FE
:1051D00026E130E0829FF001839FF00D929FF00D59
:1051E0001124EB5CF34F6483089590E026E130E0F6
:1051F000829FF001839FF00D929FF00D1124EB5CD4
:10520000F34F65830895DC01ED91FC911197AF0197
:105210004F5F5F4F11965C934E93E4912E2F30E0D9
:10522000E7FF13C02F7730703695322F222737953E
:105230002795FA014F5F5F4FE4918E2F8F77280FEC
:10524000311DE7FDF1CF4D935C93C90108950E9494
:105250009F1F0895EF92FF920F931F93CF93DF93B9
:10526000182F062FF42EE22EC82FD0E086E190E012
:10527000C89FF001C99FF00DD89FF00D1124EB5C81
:10528000F34F8385882321F08181882309F088C02A
:10529000EE2091F486E190E0C89FF001C99FF00DE7
:1052A000D89FF00D1124EB5CF34F138A828588237D
:1052B00009F076C0108674C0133059F481E091E093
:1052C0009093210C8093200C81E080931F0C0F2D74
:1052D00008C0812F60E00E949F1F812F6F2D0E94C8
:1052E000801F0F3799F486E190E0C89FF001C99FB5
:1052F000F00DD89FF00D1124EB5CF34F8091920CD0
:10530000878783E99CE0958B848B30C089E0089F78
:10531000C0011124E0918F0CF091900CE80FF91F5F
:105320003396459154914115510571F486E190E011
:10533000C89FF001C99FF00DD89FF00D1124EB5CC0
:10534000F34F158A148A12C0FA01249186E190E085
:10535000C89FF001C99FF00DD89FF00D1124EB5CA0
:10536000F34F27874F5F5F4F558B448B86E190E06B
:10537000C89FF001C99FF00DD89FF00D1124EB5C80
:10538000F34F108A1286048711829FEF9187E0867F
:10539000F282118A81E08387138A128A14829683AB
:1053A000DF91CF911F910F91FF90EF900895CF92D1
:1053B000DF92FF920F931F93CF93DF93EEE3FCE016
:1053C0008181282F332727FD30958081280F311DBB
:1053D0002F3F310519F014F02FEF30E0C90137FFEE
:1053E00002C080E090E0808376964CE0E639F407D6
:1053F00039F78091EE09882309F028C144C1E09172
:10540000980CF091990C9F012F5F3F4F3093990CAE
:105410002093980C44914F3F69F5A9014F5F5F4F6E
:105420005093990C4093980CF90184918F3219F4A0
:105430001092EE0919C1863009F0FBC0FA013196CD
:10544000CF0101969093990C8093980CE491E335E9
:1054500029F490939C0C80939B0CEBC0E53409F0ED
:10546000E8C080919B0C90919C0C9093990C809338
:10547000980CDFC047FF02C04093910C542F5F701F
:10548000842F90E0807F9070803B910531F1803CCB
:10549000910581F18039910509F043C0C901019658
:1054A000F901449101969093990C8093980C01977F
:1054B000FC012491852F90E08C9FF0018D9FF00DD1
:1054C0009C9FF00D1124EB5CF34F8081882309F43D
:1054D000B0C0220F852F648553C0C9010196F90120
:1054E000449101969093990C8093980C0197FC013C
:1054F000249153C02F5F3F4F3093990C2093980C09
:1055000021503040F9012491852F90E08C9FF001CB
:105510008D9FF00D9C9FF00D1124EB5CF34F2487C1
:1055200088C08091910C582F5F7090E0807F9070C0
:10553000803B910541F1803C910509F46EC08039B2
:10554000910509F076C02F5F3F4F3093990C20935F
:10555000980C21503040F9012491852F90E08C9FC8
:10556000D0018D9FB00D9C9FB00D1124AB5CB34F4B
:105570008C91882309F45DC0220F852F1C966C91B5
:105580000E942A2956C02F5F3F4F3093990C2093D9
:10559000980C21503040F9012491473071F4852F47
:1055A00090E08C9FF0018D9FF00D9C9FF00D1124D9
:1055B000EB5CF34F220F27833CC04B3071F4852FF7
:1055C00090E08C9FF0018D9FF00D9C9FF00D1124B9
:1055D000EB5CF34F220F26832CC04C3571F4852FE2
:1055E00090E08C9FF0018D9FF00D9C9FF00D112499
:1055F000EB5CF34F220F24831CC04436D1F4852F7B
:1056000090E08C9FF0018D9FF00D9C9FF00D112478
:10561000EB5CF34F220F25830CC0852F90E08C9F0D
:10562000F0018D9FF00D9C9FF00D1124EB5CF34F6A
:10563000448788E99CE00E9403299093970C80930B
:10564000960C10928E0C10928D0C02C0C6E1D0E028
:1056500060918D0C70918E0C8091960C9091970CAE
:105660006817790709F4CBCE6F5F7F4F70938E0C6C
:1056700060938D0C8091930C9091940C0196909373
:10568000940C8093930C00E01CE0C6E3DCE0FF2464
:10569000BFEFCB2ED12C8A89882309F05EC08B897D
:1056A0009C89892B09F456C09F858E85981708F030
:1056B0004CC050C08B852B893C898F37E9F4D901C8
:1056C0008D91BC8BAB8B8F3F01F1F90161811196FC
:1056D000BC8BAB8BE82FF0E0EE0FFF1FEB57FF4FBB
:1056E0000190F081E02D8F2D0995EB89FC89819146
:1056F0008E87FC8BEB8B28C0A9014F5F5F4F5C8BC3
:105700004B8BF90184918F3F21F418821C8A1B8AEC
:1057100021C04F5F5F4F5C8B4B8B41505040FA0173
:10572000649190E0880F991F8B579F4FFC01259142
:1057300034918F2DF9010995EB89FC893196FC8B09
:10574000EB8B3197E491EE871F869F858E859817A6
:1057500009F4B0CF8F858F5F8F878A85882319F4EE
:1057600020E030E06BC088898F3F11F08F5F888B1D
:105770009F81992309F45CC02885222309F458C02D
:105780008E81882309F454C04091950C442309F478
:105790004FC0899FC001112480509F4F892F9927A6
:1057A00030E0B901869F9001879F300D969F300DA4
:1057B000112420503F4F232F33278D8190E0FC018F
:1057C0002E9FC0012F9F900D3E9F900D1124805061
:1057D0009F4F892F9927242F30E0AC01429FC001B1
:1057E000439F900D529F900D112480509F4F292F61
:1057F00033278B818823F1F0EA81F0E0E050FE4B03
:10580000E491E058E89FC001112480509F4F892FF8
:105810009927B601681B790B629FC001639F900DA9
:10582000729F900D112480509F4F292F332702C063
:1058300020E030E08A819C81890F8A83F8012083EF
:10584000F394065F1F4F6696F4E0FF1609F023CF2E
:10585000DF91CF911F910F91FF90DF90CF9008952E
:10586000FF920F931F93082FF62E0E94801F10E0C7
:1058700086E190E0089FF001099FF00D189FF00D60
:105880001124EB5CF34FF2821F910F91FF9008956A
:10589000962F482F50E026E130E0429FF001439FD1
:1058A000F00D529FF00D1124EB5CF34F6281691BE8
:1058B00062830E94801F0895482F50E026E130E067
:1058C000429FF001439FF00D529FF00D1124EB5CBD
:1058D000F34F9281690F62830E94801F089508959B
:1058E00008950895FF920F931F93CF93DF938C0138
:1058F000F62EEA01FE0144912196442349F0802FBF
:105900000F5F1F4F4F7740526F2D0E94A926F2CF95
:10591000DF91CF911F910F91FF900895FF920F9308
:105920001F93182F062FF42E42954F704A3010F413
:10593000405F01C0495E812F602F0E94A9264F2D34
:105940004F70812F8F5F4A3010F4405F01C0495E75
:10595000602F0E94A9261F910F91FF900895CF926A
:10596000DF92EF92FF920F931F93D82EC62E7901EC
:105970008A01212F332744275527422F0E948E2C3E
:105980009801442755278D2D8E5F6C2D422F0E9444
:105990008E2C5527412F302F2F2D8D2D8C5F6C2D68
:1059A000422F0E948E2C8D2D8A5F6C2D4E2D0E94D1
:1059B0008E2C1F910F91FF90EF90DF90CF90089564
:1059C000FF920F931F93182F062FF42E452F0E943E
:1059D0008E2C812F8E5F602F4F2D0E948E2C1F9159
:1059E0000F91FF900895DF92EF92FF920F931F9314
:1059F000CF93DF93E62E8A01D22EEC01FF2401150E
:105A0000110511F4FF2051F4C8016AE070E00E9412
:105A1000013A482F405F8C2F6E2D09C0DD2021F008
:105A20008C2F6E2D40E103C08C2F6E2D40E00E9424
:105A3000A926F394219785E0F81639F0C8016AE0A9
:105A400070E00E94013A8B01DACFDF91CF911F9174
:105A50000F91FF90EF90DF9008957F928F929F9229
:105A6000AF92BF92CF92DF92EF92FF920F931F936C
:105A7000CF93DF93782E862EEA01FA01C590D49059
:105A8000FA013296A590B49000E016C0FC01EE0D2C
:105A9000FF1D3296EE0FFF1FEC0FFD1F4591549135
:105AA000812F870D692D0E94C1261F5F812F90E0F5
:105AB0008C159D055CF30F5F802F90E08A159B0588
:105AC0005CF48C9D70018D9DF00C9C9DF00C11245C
:105AD00010E0902E980CEACFDF91CF911F910F919B
:105AE000FF90EF90DF90CF90BF90AF909F908F90FE
:105AF0007F90089586E08093C20C82E08093C30C6F
:105B00001092C40C1092C50C87E08093C60CA7ECD1
:105B1000BCE0E6E0F1E083E001900D928150E1F716
:105B200085E08093CA0C83E08093CB0C1092CD0C5F
:105B30001092CC0C8FE08093EF0C98E09093F00CD7
:105B40008AE08093F10C9093F20C87E08093F30C41
:105B5000A4EFBCE0E3E0F1E083E001900D9281501E
:105B6000E1F780E18093F70C89E08093F80C8EE4F4
:105B70009DE09093FA0C8093F90C85E08093F20DF0
:105B800087E18093F30D80E28093F40D83E08093AE
:105B9000F50D85E38093F60DA7EFBDE0E0E0F1E0C1
:105BA00083E001900D928150E1F785E08093FA0D3A
:105BB00086E18093FB0D1092FD0D1092FC0D08956F
:105BC0004A3010F4405F01C0495E0E94A926089542
:105BD0009C01CB01822B932B80739070892B09F44D
:105BE00045C020733070232B11F086E00EC0CB012E
:105BF00080739070892B59F080910901882321F0DE
:105C0000815080930901089583E08093090164FD28
:105C100002C04FEF01C041E08091480D9091490DC5
:105C2000FC01F595E795EA5FF24F908180FF0EC089
:105C3000490F4F70907F490F40836091FB0D6F5F5C
:105C40004F708091FA0D0E94E02D08954295407F9B
:105C5000490F407F9F70490F40836091FB0D6F5F3C
:105C600042954F708091FA0D0E94E02D08950F9398
:105C70001F938C0135E0000F111F3A95E1F7C80121
:105C80006FEF0E940E27C80101966FEF0E940E274A
:105C90001F910F910895EF92FF920F931F93CF934F
:105CA000DF937C018B0145E0000F111F4A95E1F75E
:105CB000C0E0D0E0F701EC0FFD1FCE01800F911F77
:105CC00060810E940E272196C032D10599F7DF919D
:105CD000CF911F910F91FF90EF900895EF92FF9257
:105CE0000F931F93CF93DF93E5E0660F771FEA953D
:105CF000E1F7EC0150E2E52EF12CE80EF91E8B01E4
:105D00000F5F1F4FCB010E9418278993B801CE1552
:105D1000DF05A9F7DF91CF911F910F91FF90EF90D1
:105D20000895EF92FF920F931F93CF93DF937C011F
:105D300015E007E1C1E0D0E008C0CE018F7090709F
:105D4000892B11F40E5F15E02196F70141917F0137
:105D5000812F602F0E948E2C1E5FC032D10569F703
:105D6000DF91CF911F910F91FF90EF900895FF92D7
:105D70000F931F93CF93DF93F82E062F142FE90173
:105D80000CC0602F0F5FFE01459154918F2D90E064
:105D900070E00E94722C11502296112391F7DF912E
