:100000000C94575A0C94835A0C94835A0C94835A28
:100010000C94835A0C94835A0C94835A0C94835AEC
:100020000C94835A0C94835A0C94835A0C94835ADC
:100030000C94835A0C9422600C94835A0C94835A27
:100040000C94835A0C94835A0C94835A0C94835ABC
:100050000C94835A0C94835A0C94835A0C94835AAC
:100060000C94835A0C94835A0C94835A0C94835A9C
:100070000000000000000000000000000000000080
:100080000000000000000000000000000000000070
:100090000000000000000000000000000000000060
:1000A0000000000000000000000000000000000050
:1000B0000000000000000000000000000000000040
:1000C00000000049000000495252000052525C2DCD
:1000D0000000000000000000000000000000000020
:1000E0000040000000494A52004952525B1C5253E2
:1000F0001C25241B2425251B0A0A2D1C12120A0A62
:100100000000000000000000404949494949525B95
:100110005B5B525B1C1C1312241C12090909120997
:100120000909090A0A0A0A0A0A13120A0A12130A10
:100130000000000000009252525252521312130952
:10014000001C0A1212401B65090A0009241B120038
:1001500000251C1C010025241C1C0024252424240B
:100160000000000000005249494000001B135249A2
:100170004900641C1C5B4A481C651C2552491C1C18
:10018000652464491C1C652564491C1C6D2E5C4952
:100190000000000000000000000000490000000016
:1001A000535200000053522500004A5225250000FA
:1001B0005B251300005B53000A1C095B1C657F373D
:1001C0004052522E2E1C525C2E251B1324251C1C23
:1001D00012002525120000121B0000132E37001BF1
:1001E00037372E2E37372E2E2E2E2E2E6E6E6E1C5D
:1001F0001313120009131200001213130012251C0E
:1002000013132E371C131313361C131B1B1B251320
:100210001C1C1B1B1B1C1C1C1C1C1C1C1C1C1C132A
:100220001312121313001313131C000913131C01D0
:100230000037131C13002E2E1C1C001C772E2500CB
:10024000137F251C010A37241C1C0A2E25250900B2
:10025000132E242525252E252525252525252D2E3E
:10026000251B2E2E251C1325251C1C1C1C011C1CAB
:100270001300011C0A000165775C016E7F6E521B42
:1002800025256D1C524925251C1353001C1C1C528E
:100290004A001B135B5B000009525C0000005B5CC2
:1002A000000000001B000000000000000000000033
:1002B000135B7F776E6E136577766E6E1B65777650
:1002C00076761B5BBF76B67609136DBFB7B6001B9B
:1002D000125C76BF0000121B125B00000000090ACE
:1002E0006E6E6E77241C6E6E77251C1C6E776E1CEE
:1002F0001C1C76761C1C2425B765646D6D1B766D01
:100300006D5B09125B5C5B125B641213131B1212B0
:100310001C1C1C1C1C241C1C242525242425251BDA
:1003200000002513000064BF00096EBFBF6D6EBFE3
:100330006D5B12135B12131209000901000000002B
:100340002E1C0900096E010009767F7F12777F7FDE
:100350006412BF775B121B095B121B0900001B09AB
:10036000000000000000000000000000000000008D
:100370007F7F5313130064121B0100001B12000047
:10038000000000000000000000000000000000006D
:10039000000000000000000000000000000000005D
:1003A0000000000000002600000026002F000000D2
:1003B0002F00370000003700FF000000FF00BF00E3
:1003C0000000BF00370000370000002626000000B4
:1003D000000000000000262626262600000000005F
:1003E0002F000000003700000000FF00000000BFE9
:1003F0000000000037000000000026262626260008
:100400000000000000002626262626002F000000FF
:100410000000370000000000FFFFFFFF0000BF00EA
:1004200000000000370000000000262626262600D7
:100430000000000000002626262600002F000000F5
:100440002F00370000003700FFFFFFFF0000BF0054
:100450000000BF00370000003700262626260000D7
:10046000000000000000000026262600002F0000EB
:100470002F00370000003700FF000000FF00BF0022
:100480000000BF00370000370000262626000000CD
:100490000000000000002600000026002F000000E1
:1004A0002F000037003700000000FF00000000BFF1
:1004B00000BF0000370000003700260000002600C3
:1004C000000000000000000000000000000000002C
:1004D000000000000000000000000000000000001C
:1004E0000000009B000000529BA400005B9B6D7706
:1004F00000000000000000000000000000000000FC
:10050000005B000000E4F6FF099BEDF6FFBFA4AD21
:10051000BFBFBFBF767F7FB7B7BF7F766EB7B7BFAE
:1005200000000000000000005BB6F6F6F6FFFFFFDB
:10053000FFBFFFFFFFBFBFAEFFFFFFB7AD65FFFF10
:10054000B7B6AD65FFFFBFB7AE6EFFFFBFB7B7650C
:10055000000000000000F6F6EDEDADA4B66D6D5C98
:10056000526E6565655265765C5C52536E246552C9
:10057000526E25255B52772D2525526E6E2D252531
:10058000000000000000A49B9B4900006564A49B40
:1005900092006D2525649349656E652E9B52242536
:1005A0006D25655225246D2D655225256E2E6452CC
:1005B00000000000000000000000004A00000000F1
:1005C0005B9B0000005B5B2D0000525B2E2E000148
:1005D0005B2D1C01005C5B014A654A5B1C6E7F77EA
:1005E000495B9B77776D5B65776E65656D2D25251E
:1005F0005C522E25130949641C09095C7F7F091C84
:100600007F7F777F777F77777F7F7776777F7F6E44
:10061000656E6EA4B6FF655BA4B7BFFF526DBFBF2A
:10062000BFFF7FBFBFBFBFFFBFBFB7BFFFFF7FB76A
:10063000BFBFFFFF6EB7BFBFFFFF77BFBFBFFFFFEB
:10064000FFFFBFBFB75BFFFFBFBFA464FFFFBFAD2E
:10065000A47FFFFFBFA4BF7FFFBFADBFBFBFFFB67B
:10066000BFBFBF77F7BFBFBF7777FFBFBFBF6452C2
:100670006D7F6E2E2D2D7F766E6E6E2E7777777650
:100680002E1C7F776E251C25776525251C096E6E2F
:100690001C0949255B494A6E7F645377BF775B5CD1
:1006A000256E6E255B4A25651C1B5B002524245B9B
:1006B00053001C1B5B5C00000A5B64000000646468
:1006C000000000005C0000000000000000000000CE
:1006D0005B5C7FBF77765C6D7FB777775C6D7FBF44
:1006E00077775C64BFBFBFBF0A5C6EBFBFBF0065EA
:1006F000646DBFBF00005B6D646D00000000125BA5
:100700007777777F6E6E77777F766D7677BF776D49
:100710006E76BF7F6D6E767FBF7676BFBF76BFBFCA
:10072000BFB664ADADB6B6ADBFFF646DADB6AD647A
:1007300077BFBFBFFFFF77BFBFBFFFFF7FBFBFBF99
:10074000FFF6BFB7ADF6FFFFA4ADFFFFFFFFFFFF52
:10075000FFFFFFFFFFFFFFF6A4005B520000000059
:10076000BFBFAD5B64BFB6ADADBFFFBFFFFFFFFF57
:10077000BF64FFFFBFB6765BFFBFBF5B0000FF5CDF
:100780000000000000000000000000000000000069
:10079000BFBF645C5C006E5C654900006D5B00007F
:1007A0000000000000000000000000000000000049
:1007B0000000000000000000000000000000000039
:1007C0000600040000000100020003000400050010
:1007D00006000700080009000A000B000C000D00CD
:1007E0000E000F0010000000110012001300140092
:1007F000150016000600030000001700180019007D
:100800001A001B001C001D001E001F0020002100FC
:10081000220023002400250026000000000002081A
:1008200000085504085A0000F8000990000A1E321A
:10083000050000FF1C080000000100020003000486
:10084000000501000101010201030104010502008C
:100850000201020202030204020503000301030273
:100860000303030403050400040104020403040455
:10087000040505000501050205030504050506003C
:100880000601060206030604060507000701070223
:100890000703070407050800080108020803080405
:1008A00008050900090109020903090409050A00EC
:1008B0000A010A020A030A040A050B000B010B02D3
:1008C0000B030B040B050C000C010C020C030C04B5
:1008D0000C050D000D010D020D030D040D050E009C
:1008E0000E010E020E030E040E050F000F010F0283
:1008F0000F030F040F051000100110021003100465
:10090000100511001101110211031104110512004B
:100910001201120212031204120513001301130232
:100920001303130413051400140114021403140414
:1009300014051500150115021503150415051600FB
:1009400016011602160316041605170017011702E2
:1009500017031704170518001801180218031804C4
:1009600018051900190119021903190419051A00AB
:100970001A011A021A031A041A051B001B011B0292
:100980001B031B041B051C001C011C021C031C0474
:100990001C051D001D011D021D031D041D051E005B
:1009A0001E011E021E031E041E051F001F011F0242
:1009B0001F031F041F0500C00300B0070000C00391
:1009C00000B0075800C10900B1070000C10900B11B
:1009D000077300C21000B2070000C21000B2076126
:1009E00000C30000B3077200C30000B307280190E2
:1009F000286D0091465E0093071D1391435E00939E
:100A0000073203B2074D1090236D0091465E0092AD
:100A10004764009307481491475E00924067009333
:100A200007351390286D0091435F009307211391C0
:100A3000425F0093073313902B6D0091406000924A
:100A4000436C0093074813072F1490276D009143C0
:100A50006000930720139142610093072C139023A9
:100A60006D00913F610092426D0093074813072E7D
:100A70001390286D009143610093071E1491426109
:100A80000093073013902B6D0091406100924370EA
:100A900000930748139143610093072C1390286D2E
:100AA000009146610093071D139143600093073244
:100AB0001490236D009146600092406C00930748AB
:100AC0001391476000924071009307351390286D91
:100AD0000091436000930721139142600093073314
:100AE00013902B6D009140600092476C0093074873
:100AF00014072F13902A6D00914260009307201372
:100B00009140600093072C1390276D00913F600087
:100B10009242700093074813072E1390236D0091A3
:100B20004062009243460093071E1407301390273B
:100B30006D009243540093074813072C1390286DBF
:100B40000093071D1307321490236D0092406C0030
:100B500093074813924070009307351390286D0057
:100B600093072113073313902B6D00924771009365
:100B7000074814072F1390276D0093072013072CA5
:100B80001390236D009247700093074813072E14AB
:100B900090286D00914F440093071E13914E44001E
:100BA00093073013902B6D00914C450092436C00DD
:100BB00093074813914E450093072C0A914F45091E
:100BC00090286D009152450093071D13914F4500E9
:100BD0009307321490236D009152450092476400B0
:100BE00093074813915345009240730093073513C0
:100BF00090286D00914F460093072113914E4700B6
:100C000093073313902B6D00914C47009243730070
:100C100093074814072F13902A6D00914E470093B5
:100C2000072013914C470093072C1390276D0091D8
:100C30004B47009242700093074813072E149023ED
:100C40006D00914C4F009247730093071E130730BD
:100C50001390276D0093074813072C1390286D00FD
:100C600093071D1407321390236D00924361009384
:100C7000074813924759009307351390286D009346
:100C8000072113073314902B6D0092426A009307DB
:100C90004813072F1390276D0093072013072C1379
:100CA00090236D009240710093074813072E149013
:100CB000286D0093071E13073013902B6D0092428E
:100CC0005900930748139243350093072C1390283B
:100CD0006D0093071D1407321390236D00924C5939
:100CE0000093074813924F64009307351390286DC3
:100CF0000093072113073314902B6D009247670070
:100D000093074813072F13902A6D009307201307AA
:100D10002C1390276D00924B3E0093074814072E2A
:100D20001390236D009243750093071E1307301331
:100D300090276D0093074813072C1490286D00939B
:100D4000071D1307321390236D0092435900930738
:100D50004813924061009307351390286D00930764
:100D60002113073314902B6D0092407100930748B4
:100D700013072F1390276D0093072013072C139050
:100D8000236D009242680093074814072E139028A1
:100D90006D0093071E13073013902B6D009243676D
:100DA000009307481392434A0093072C1490286D30
:100DB0000093071D1307321390236D00924F5300C9
:100DC0009307481392475E009307351390286D00F0
:100DD00093072114073313902B6D0092426D0093FB
:100DE000074813072F1390286D00924C6400930757
:100DF0002013072C13914C7D0093074814072E13E2
:100E0000914E7D0093071E13073013914F7E009380
:100E1000074813072C1490286D00914F6400930726
:100E20001D1307321390236D009247640093074807
:100E300013924067009307351390286D00914E641C
:100E40000093072114073313902B6D0092436C001D
:100E500093074813072F1390276D00914C6400935C
:100E6000072013072C1490236D00924B70009307FA
:100E70004813072E1390286D0093071E1307301395
:100E8000902B6D009243700093074814072C139029
:100E9000286D00914F640093071D130732139023B0
:100EA0006D0092406C0093074813924770009307BF
:100EB000351390286D00914E640093072114073379
:100EC00013902B6D00924C6C0093074813914C6467
:100ED0000093072F0A914E6409902A6D00914B648C
:100EE0000093072013072C1490276D009242700086
:100EF00093074813072E1390236D00924E4A0093D8
:100F0000071E1307301390276D00924F4C00930774
:100F10004814072C1390286D00914F640093071D0F
:100F20001307321390236D0092406C00930748130F
:100F3000924070009307351490286D00914E640024
:100F400093072113073313902B6D00924771009381
:100F5000074813072F1390276D00915364009307E0
:100F60002014072C1390236D00924B7000930748B8
:100F700013072E1390286D0093071E13073013904C
:100F80002B6D0092436C0093074814072C13902894
:100F90006D00914B640093071D13914C64009307FF
:100FA000321390236D00914B6400924073009307BD
:100FB0004813914C640092476400930735149028BD
:100FC0006D00914F640093072113073313902B6D2D
:100FD0000091476400924C6C0093074813072F134D
:100FE000902A6D00914C640093072014072C1390F5
:100FF000276D00914B6400924270009307481307DD
:101000002E1390236D00914C640092477300930758
:101010001E1307301490276D0093074813072C13F5
:1010200090286D00914F640093071D1307321390B1
:10103000236D00924061009307481492406700932B
:1010400007351390286D00914E6400930721130714
:101050003313902B6D009247640093074813072FBA
:101060001390276D00914C640093072014072C13F4
:1010700090236D0092426D0093074813072E139042
:10108000286D0093071E13073014902B6D009243B8
:10109000700093074813072C1390286D00914F643C
:1010A0000093071D1307321390236D0092406C00CC
:1010B0009307481492436C009307351390286D00F2
:1010C000914E640093072113073313902B6D009208
:1010D0004C6C0093074813914C640093072F0A91BE
:1010E0004E640A902A6D00914B6400930720130709
:1010F0002C1390276D00924B700093074813072E16
:101100001390236D00924E4A0093071E130730146C
:1011100090276D0092494B0093074813072C1390BA
:10112000286D00914F640093071D1307321390231D
:101130006D00924767009307481492407000930730
:10114000351390286D00914E6400930721130733E7
:1011500013902B6D00924C4A0093074813072F14ED
:1011600090276D009153640093072013072C139070
:10117000236D009242720093074813072E139028A4
:101180006D0093071E14073013902B6D0092436C73
:101190000093074813072C1390286D00914B6400AF
:1011A00093071D13914C64009307321490236D0034
:1011B000914B64009240730093074813914C640074
:1011C000924073009307351390286D00914F64008F
:1011D00093072113073313902B6D009147640092FE
:1011E00043730093074813072F14902A6D00914C06
:1011F000640093072013072C1390276D00914B6414
:10120000009242700093074813072E1390236D003D
:10121000914C64009240710093071E1407301390A4
:10122000276D0093074813072C1390236C00922F0F
:101230006C0093071D1307321490266700923267E3
:10124000009307481307351390256D0092316D0008
:101250009307211307331390236100922F610093AA
:10126000074814072F1390266700923267009307F0
:101270002013072C13902A6A0092366A00930748BD
:1012800013072E14902B6C0092376C0093071E13DB
:1012900007301390266400923264009307481307C6
:1012A0002C1390236400922F640093071D130732C0
:1012B0001490266C0092326C009307481307351384
:1012C00090256D0092316D00930721130733139021
:1012D000236400922F640093074814072F13902B68
:1012E00070009237700093072013072C13902A6D1B
:1012F0000092366D0093074813072E14902B6C0054
:1013000092376C0093071E130730139026700092DB
:1013100032700093074813072C1390236C00922F10
:101320006C0093071D1407321390267000923270E0
:10133000009307481307351390256D0092316D0017
:101340009307211307331390236C00922F6C0093A3
:10135000074814072F1390267000923270009307ED
:101360002013072C13902A6D0092366D00930748C6
:1013700013072E14902B6C0092376C0093071E13EA
:1013800007301390267000923270009307481307BD
:101390002C13902C6D0092386D0093071D140732AA
:1013A0001390276A0092336A009307481307351396
:1013B0009026700092327000930721130733149027
:1013C000237000922F700093074813072F13902764
:1013D0006D0092336D0093072013072C1390266C39
:1013E0000092326C0093074814072E13902C6A0069
:1013F00092386A0093071E130730139027700092EB
:1014000033700093074813072C1390236700922F23
:10141000670093071D14073213902664009232640C
:10142000009307481307351390256D0092316D0026
:101430009307211307331490236400922F640093C1
:10144000074813072F13902667009232670093070F
:101450002013072C13902A630092366300930748E9
:1014600014072E13902B6C0092376C0093071E13F9
:1014700007301390266400923264009307481307E4
:101480002C14902B67009237670093071D130732C7
:1014900013902664009232640093074813073513B3
:1014A00090226A00922E6A0093072114073313904A
:1014B000215900922D590093074813072F13902BA1
:1014C00067009237670093072013072C13902E5D57
:1014D00000923A5D0093074814072E13902664008B
:1014E0009232640093071E13073013902B71009201
:1014F00037710093074813072C1490236100922F33
:10150000610093071D130732139026640092326422
:10151000009307481307351390256D0092316D0035
:101520009307211407331390236400922F640093D0
:10153000074813072F13902667009232670093071E
:101540002013072C14902A6A0092366A00930748E9
:1015500013072E13902B67009237670093071E1313
:101560000730139026670092326700930748139163
:101570004E640093072C0A914F640A9023670091F0
:10158000526400922F670093071D139153640093D8
:1015900007321390266400915264009232640093E3
:1015A000074813915364009307351390256A0091FF
:1015B0004E640092316A0093072114914F640093A6
:1015C00007331390236400914E6400922F640093BC
:1015D000074813914F640093072F139023610091E4
:1015E0004B6400923B61003B61003B61009307202C
:1015F00013914C640093072C14901F5600914B6478
:1016000000923761003761003761009307481391FA
:101610004C640093072E1390235600914E64009261
:101620003B61003B61003B610093071E13073013D1
:1016300090225500914F6400923A61003A61003A5D
:1016400061009307481490235500923B61003B6171
:10165000003B610093072C1390286D00914F6400AC
:1016600093071D1307321390236D0092406100937E
:10167000074813924067009307351490286D009136
:101680004E640093072113073313902B6D00924390
:101690006C0093074813072F1390276D00914C643B
:1016A0000093072013072C1490236D0092426D00C5
:1016B00093074813072E1390286D0093071E1307F6
:1016C0003013902B6D009243700093074814072C41
:1016D0001390286D00914F640093071D1307321378
:1016E00090236D0092406C00930748139240710064
:1016F0009307351490286D00914E640093072113D1
:10170000073313902B6D0092436C0093074813919D
:101710004C640093072F0A914E6409902A6D009142
:101720004B640093072014072C1390276D009242FE
:10173000700093074813072E1390236D00924346C1
:101740000093071E1307301490276D009243540036
:1017500093074813072C1390286D00914F64009352
:10176000071D1307321390236D0092406C009307FE
:101770004813924070009307351490286D00914EE5
:10178000640093072113073313902B6D0092436C71
:101790000093074813072F1390276D00915364009F
:1017A00093072014072C1390236D0092427200932C
:1017B000074813072E1390286D0093071E13073058
:1017C00014902B6D0092436C0093074813072C1361
:1017D00090286D00914B640093071D13914C640099
:1017E0009307321390236D00914B64009240730075
:1017F00093074814914C640092407300930735138B
:1018000090286D00914F64009307211307331390C4
:101810002B6D0091476400924373009307481307B0
:101820002F13902A6D00914C640093072014072C0D
:101830001390276D00914B6400924270009307480B
:1018400013072E1390236D00914C64009240710099
:1018500093071E1307301490276D00930748130752
:101860002C1390286D0093071D1307321390236DDE
:101870000092406700930748149240670093073531
:101880001390286D0093072113073313902B6D00DD
:101890009240700093074813072F1490276D009310
:1018A000072013072C13901F640092494A009307E6
:1018B0004813924A470093072E13901E63009249E3
:1018C000440093071E14924A4B0093073013901F55
:1018D00064009249470093074813924A44009307D3
:1018E0002C13902364009249440093071D13924ADD
:1018F000470093073213901F640092494A009307F0
:101900004814924A4B009307351390236400924980
:101910004A0093072113924A4700930733139027F5
:10192000680092494F0093074813924A4700930773
:101930002F14902A6A00924E530093072013924F5F
:101940004B0093072C13902B6C00924A3F00930797
:10195000481392494F0093072E1390266C0092472C
:101960004D0093071E14924A4400930730139025AC
:101970006D00924940009307481392474B0093072C
:101980002C13902B6C009249440093071D13924A2C
:10199000440093073214901F590092494A0093075C
:1019A0004813924A470093073513902B6C009249D5
:1019B000470093072113924A470093073313902758
:1019C0005D009249470093074814924A4B009307E1
:1019D0002F13902B4F009249470093072013924AF0
:1019E000470093072C13901F530092494700930719
:1019F0004813924A4B0093072E13902B670092498D
:101A0000470093071E14924A470093073013901F14
:101A100056009249470093074813924A4B00930798
:101A20002C13902B67009249440093071D13924A90
:101A30004B0093073214901F5300924953009307B1
:101A40004813924A44009307351390266100924947
:101A5000470093072113924A4700930733139027B7
:101A600068009249470093074814924A4700930739
:101A70002F13902A5D00924E4F0093072013924F30
:101A80004D0093072C13902B6400924A4D0093074E
:101A9000481392494A0093072E14902664009252EC
:101AA0004A0093071E1392534B009307301390255F
:101AB0007000924F4D0093074813924E57009307C2
:101AC0002C13902364009249400093071D13924AFF
:101AD0003F0093073214901F59009249400093072A
:101AE0004813924A440093073513902361009249AA
:101AF0004F0093072113924A440093073313902712
:101B000068009249440093074814924A440093079E
:101B10002F13902367009249440093072013924AA1
:101B2000470093072C13901F640092494A009307C3
:101B30004813924A470093072E14901E630092495F
:101B4000440093071E13924A4B0093073013901FD3
:101B500064009249470093074813924A4400930750
:101B60002C13902364009249440093071D14924A59
:101B7000470093073213901F640092494A0093076D
:101B80004813924A4B0093073513902364009249FF
:101B90004A0093072113924A470093073314902772
:101BA000680092494F0093074813924A47009307F1
:101BB0002F13902A6A00924E530093072013924FDE
:101BC0004B0093072C13902B6C00924A3F00930715
:101BD000481392494F0093072E1490266C009247A9
:101BE0004D0093071E13924A44009307301390252B
:101BF0006D00924940009307481392474B009307AA
:101C00002C13902B6C009249440093071D14924AA8
:101C1000440093073213901F590092494A009307DA
:101C20004813924A470093073513902B6C00924952
:101C3000470093072113924A4700930733149027D4
:101C40005D009249470093074813924A4B0093075F
:101C50002F13902B4F009249470093072013924A6D
:101C6000470093072C13901F530092494700930796
:101C70004814924A4B0093072E13902B6700924909
:101C8000470093071E13924A470093073013901F93
:101C900056009249470093074813924A4B00930716
:101CA0002C14902B67009249440093071D13924A0D
:101CB0004B0093073213901F530092495300930730
:101CC0004813924A440093073513902661009249C5
:101CD000470093072113924A470093073314902734
:101CE00068009249470093074813924A47009307B8
:101CF0002F13902A5D00924E4F0093072013924FAE
:101D00004D0093072C13902B6400924A4D009307CB
:101D1000481492494A0093072E1390266400925269
:101D20004A0093071E1392534B00930730139025DC
:101D30007000924F4D0093074813924E570093073F
:101D40002C14902364009249400093071D13924A7B
:101D50003F0093073213901F5900924940009307A8
:101D60004813924A44009307351390236100924927
:101D70004F0093072114924A44009307331390278E
:101D800068009249440093074813924A440093071D
:101D90002F13902367009249440093072013924A1F
:101DA000470093072C13901F640092494A00930741
:101DB0004814924A470093072E13901E63009249DD
:101DC000440093071E13924A4B0093073013901F51
:101DD00064009249470093074813924A44009307CE
:101DE0002C14902364009249440093071D13924AD7
:101DF000470093073213901F640092494A009307EB
:101E00004813924A4B00930735139023640092497C
:101E10004A0093072114924A4700930733139027EF
:101E2000680092494F0093074813924A470093076E
:101E30002F13902A6A00924E530093072013924F5B
:101E40004B0093072C14902B6C00924A3F00930791
:101E5000481392494F0093072E1390266C00924727
:101E60004D0093071E13924A4400930730139025A8
:101E70006D00924940009307481492474B00930726
:101E80002C13902B6C009249440093071D13924A27
:101E9000440093073213901F590092494A00930758
:101EA0004813924A470093073513902B6C009249D0
:101EB000470093072114924A470093073313902752
:101EC0005D009249470093074813924A4B009307DD
:101ED0002F13902B4F009249470093072013924AEB
:101EE000470093072C14901F530092494700930713
:101EF0004813924A4B0093072E13902B6700924988
:101F0000470093071E13924A470093073013901F10
:101F100056009249470093074814924A4B00930792
:101F20002C13902B67009249440093071D13924A8B
:101F30004B0093073213901F5300924953009307AD
:101F40004813924A44009307351490266100924941
:101F5000470093072113924A4700930733139027B2
:101F600068009249470093074813924A4700930735
:101F70002F13902A5D00924E4F0093072014924F2A
:101F80004D0093072C13902B6400924A4D00930749
:101F9000481392494A0093072E13902664009252E8
:101FA0004A0093071E1392534B009307301390255A
:101FB0007000924F4D0093074814924E57009307BC
:101FC0002C13902364009249400093071D13924AFA
:101FD0003F0093073213901F590092494000930726
:101FE0004813924A440093073514902361009249A4
:101FF0004F0093072113924A44009307331390270D
:1020000068009249440093074813924A440093079A
:102010002F13902367009249440093072014924A9B
:10202000470093072C13901F640092494A009307BE
:102030004813924A470093072E13901E630092495B
:10204000440093071E13924A4B0093073014901FCD
:1020500064009249470093074813924A440093074B
:102060002C13902364009249440093071D13924A55
:10207000470093073213901F640092494A00930768
:102080004814924A4B0093073513902364009249F9
:102090004A0093072113924A47009307331390276E
:1020A000680092494F0093074813924A47009307EC
:1020B0002F13902A6A00924E530093072014924FD8
:1020C0004B0093072C13902B6C00924A3F00930710
:1020D000481392494F0093072E1390236C009247A8
:1020E0004D0093071E13073014074813072C139055
:1020F000286D0091465E0093071D1391435E009387
:10210000073203B2074D1090236D0091465E009296
:102110004061009307481491475E00924067009326
:1021200007351390286D0091435F009307211391A9
:10213000425F0093073313902B6D00914060009233
:10214000436C0093074813072F1490276D009143A9
:102150006000930720139142610093072C13902392
:102160006D00913F610092426D0093074813072E66
:102170001390286D009143610093071E13914261F3
:102180000093073014902B6D0091406100924370D2
:1021900000930748139143610093072C1390286D17
:1021A000009146610093071D13914360009307322D
:1021B0001390236D009146600092406C0093074895
:1021C0001491476000924071009307351390286D79
:1021D00000914360009307211391426000930733FD
:1021E00013902B6D009140600092436C0093074860
:1021F00013072F14902A6D0091426000930720135B
:102200009140600093072C1390276D00913F600070
:102210009242700093074813072E1390236D00918C
:102220004062009243460093071E14073013902724
:102230006D009243540093074813072C1390286DA8
:102240000093071D1307321490236D0092406C0019
:1022500093074813924070009307351390286D0040
:1022600093072113073313902B6D0092436C009357
:10227000074813072F1490276D0093072013072C8E
:102280001390236D009242720093074813072E1398
:1022900090286D00914F440093071E14914E440006
:1022A00093073013902B6D00914C450092436C00C6
:1022B00093074813914E450093072C0A914F450907
:1022C00090286D009152450093071D13914F4500D2
:1022D0009307321490236D00915245009240730091
:1022E00093074813915345009240730093073513A9
:1022F00090286D00914F460093072113914E47009F
:1023000093073313902B6D00914C47009243730059
:1023100093074814072F13902A6D00914E4700939E
:10232000072013914C470093072C1390276D0091C1
:102330004B47009242700093074813072E149023D6
:102340006D00914C4F009240710093071E130730AF
:102350001390276D0093074813072C1390286D00E6
:1023600093071D1307321490236D0092406700936A
:10237000074813924067009307351390286D009328
:10238000072113073313902B6D00924370009307BE
:102390004814072F1390276D0093072013072C1361
:1023A00090236D009240710093074813072E1490FC
:1023B000286D0093071E13073013902B6D00924376
:1023C0007300930748139243350093072C1390280A
:1023D0006D0093071D1407321390236D00924F5E1A
:1023E0000093074813924F64009307351390286DAC
:1023F0000093072113073313902B6D0092422D0099
:1024000093074814072F13902A6D00930720130792
:102410002C1390276D00924B3E0093074813072E14
:102420001490236D00924C4E0093071E1307301337
:1024300090276D0093074813072C1390286D009385
:10244000071D1407321390236D0092406C00930710
:102450004813924061009307351390286D0093074D
:102460002113073314902B6D0092426800930748A4
:1024700013072F1390276D0093072013072C139039
:10248000236D009240700093074814072E13902884
:102490006D0093071E13073013902B6D00930748B0
:1024A0001392434A0093072C1390286D0093071D45
:1024B0001407321390236D00924F53009307481373
:1024C000924F61009307351390286D0093072113F5
:1024D000073314902B6D0092426D00930748130749
:1024E0002F1390286D00924C640093072013072C43
:1024F00013914C7D0093074814072E13914E7D00D5
:1025000093071E13073013914F7E0093074813075C
:102510002C1490286D00914F640093071D1307320F
:102520001390236D00924764009307481392476C01
:10253000009307351390286D00914E640093072196
:1025400014073313902B6D00924C6C0093074813C3
:10255000072F1390276D00914C64009307201307F9
:102560002C1390236D0092426D0093074814072EA0
:102570001390286D0093071E13073013902B6D00E6
:102580009243700093074813072C1490286D009114
:102590004F640093071D1307321390236D00924779
:1025A0005E009307481392477000930735139028F5
:1025B0006D00914E640093072114073313902B6D27
:1025C00000924C6C0093074813914C640093072FC2
:1025D0000A914E6409902A6D00914B640093072084
:1025E00013072C1490276D00924270009307481334
:1025F000072E1390236D009243460093071E130786
:10260000301390276D009243540093074813072C12
:102610001490286D00914F640093071D1307321327
:1026200090236D00924767009307481392476C0010
:102630009307351390286D00914E64009307211481
:10264000073313902B6D0092436C009307481307D8
:102650002F1390276D009153640093072013072CCC
:102660001490236D009242720093074813072E13B3
:1026700090286D0093071E13073013902B6D009266
:10268000436C0093074814072C1390286D00914B5E
:10269000640093071D13914C640093073213902339
:1026A0006D00914B64009240730093074813914C66
:1026B0006400924073009307351490286D00914F89
:1026C000640093072113073313902B6D0091476427
:1026D000009243730093074813072F13902A6D004D
:1026E000914C640093072013072C1490276D0091E0
:1026F0004B64009242700093074813072E139023F7
:102700006D00914C64009240710093071E130730D6
:102710001390276D0093074814072C1390286D0021
:10272000914F640093071D1307321390236D00929D
:102730004061009307481392406700930735149057
:10274000286D00914E640093072113073313902BDB
:102750006D0092436C0093074813072F1390276D69
:1027600000914C640093072014072C1390236D00F4
:1027700092426D0093074813072E1390286D009323
:10278000071E13073014902B6D00924370009307BF
:102790004813072C1390286D00914F640093071D78
:1027A0001307321390236D0092406C009307481377
:1027B000924071009307351490286D00914E64008B
:1027C00093072113073313902B6D0092436C0093F2
:1027D000074813914C640093072F0A914E640990A7
:1027E0002A6D00914B640093072014072C13902747
:1027F0006D009242700093074813072E1390236DCB
:10280000009243460093071E1307301490276D0073
:102810009243540093074813072C1390286D00919E
:102820004F640093071D1307321390236D009240ED
:102830006C0093074814924070009307351390285A
:102840006D00914E640093072113073313902B6D95
:102850000092436C0093074813072F1390276D00D5
:102860009153640093072014072C1390236D00925A
:1028700042720093074813072E1390286D009307A8
:102880001E13073014902B6D0092436C0093074881
:1028900013072C1390286D00914B640093071D13B0
:1028A000914C64009307321390236D00914B6400A8
:1028B0009240730093074814914C64009240730057
:1028C0009307351390286D00914F640093072113EF
:1028D000073313902B6D009147640092437300936C
:1028E000074813072F14902A6D00914C640093073A
:1028F0002013072C1390276D00914B6400924270B7
:102900000093074813072E1390236D00914C640029
:102910009240710093071E1407301390276D0093A7
:10292000074813072C1390236C00922F6C00930719
:102930001D130732139026670092326700930748F1
:102940001407351390256D0092316D009307211304
:1029500007331390236100922F61009307481307F8
:102960002F14902667009232670093072013072CDC
:1029700013902A6A0092366A0093074813072E13B1
:10298000902B6C0092376C0093071E140730139045
:102990002664009232640093074813072C13902397
:1029A0006400922F640093071D1307321490266C65
:1029B0000092326C009307481307351390256D0081
:1029C00092316D0093072113073313902364009213
:1029D0002F640093074814072F13902B7000923731
:1029E000700093072013072C13902A6D0092366D08
:1029F0000093074813072E13902B6C0092376C003E
:102A000093071E14073013902670009232700093C3
:102A1000074813072C1390236C00922F6C00930728
:102A20001D130732149026700092327000930748ED
:102A30001307351390256D0092316D009307211314
:102A400007331390236C00922F6C009307481407F0
:102A50002F13902670009232700093072013072CDA
:102A600013902A6D0092366D0093074813072E14B9
:102A7000902B6C0092376C0093071E130730139055
:102A80002670009232700093074813072C13902C85
:102A90006D0092386D0093071D1307321490276A5A
:102AA0000092336A0093074813073513902670008D
:102AB0009232700093072113073313902370009212
:102AC0002F700093074814072F1390276D0092333F
:102AD0006D0093072013072C1390266C0092326C24
:102AE0000093074813072E14902C6A0092386A004E
:102AF00093071E13073013902770009233700093D2
:102B0000074813072C1390236700922F6700930741
:102B10001D14073213902664009232640093074814
:102B20001307351390256D0092316D009307211323
:102B300007331490236400922F640093074813070F
:102B40002F13902667009232670093072013072CFB
:102B500013902A63009236630093074813072E14DC
:102B6000902B6C0092376C0093071E130730139064
:102B70002664009232640093074813072C13902BAD
:102B800067009237670093071D140732139026647D
:102B900000923264009307481307351390226A00AD
:102BA000922E6A0093072113073314902159009243
:102BB0002D590093074813072F13902B6700923766
:102BC000670093072013072C13902E5D00923A5D47
:102BD0000093074814072E13902664009232640075
:102BE00093071E13073013902B71009237710093D7
:102BF000074813072C1490236100922F610093075C
:102C00001D13073213902664009232640093074824
:102C10001307351390256D0092316D009307211332
:102C200007331490236400922F640093074813071E
:102C30002F13902667009232670093072013072C0A
:102C400013902A6A0092366A0093074814072E13DD
:102C5000902B67009237670093071E13073013907D
:102C60002667009232670093074813914E640093E1
:102C7000072C0A914F640A902367009152640092D6
:102C80002F670093071D139153640093073213902D
:102C900026640091526400923264009307481391B5
:102CA0005364009307351390256A00914E64009297
:102CB000316A0093072114914F64009307331390F6
:102CC000236400914E6400922F640093074813918F
:102CD0004F640093072F1390236100914B6400927F
:102CE0003B61003B61003B610093072013914C6402
:102CF0000093072C13901F5600914B64009237618C
:102D00000037610037610093074814914C640093C9
:102D1000072E1390235600914E6400923B61003BB6
:102D200061003B610093071E13073013902255008A
:102D3000914F6400923A61003A61003A6100930752
:102D4000481390235500923B61003B61003B6100BA
:102D500093072C1490286D00914F640093071D1366
:102D600007321390236D009240610093074813923D
:102D70004067009307351390286D00914E640093CF
:102D8000072114073313902B6D0092436C009307B7
:102D90004813072F1390276D00914C640093072070
:102DA00013072C1490236D0092426D009307481373
:102DB000072E1390286D0093071E13073013902BD6
:102DC0006D009243700093074814072C1390286DF0
:102DD00000914F640093071D1307321390236D0079
:102DE00092406C009307481392407100930735138B
:102DF00090286D00914E64009307211407331390BF
:102E00002B6D0092436C0093074813914C64009320
:102E1000072F0A914E6409902A6D00914B6400932C
:102E2000072013072C1490276D009242700093071F
:102E30004813072E1390236D009243460093071EFC
:102E40001307301390276D009243540093074814E2
:102E5000072C1390286D00914F640093071D1307F2
:102E6000321390236D0092406C00930748139240F8
:102E700070009307351490286D00914E64009307FD
:102E80002113073313902B6D0092436C0093074876
:102E900013072F1390276D0091536400930720149C
:102EA000072C1390236D009242720093074813077A
:102EB0002E1390286D0093071E13073013902B6D6F
:102EC0000092436C0093074814072C1390286D0060
:102ED000914B640093071D13914C640093073213C8
:102EE00090236D00914B6400924073009307481348
:102EF000914C6400924073009307351490286D0044
:102F0000914F640093072113073313902B6D0091A9
:102F1000476400924C6C0093074813072F13902AC4
:102F20006D00914C640093072014072C1390276DBB
:102F300000914B64009242700093074813072E13D0
:102F400090236D00914C64009240710093071E1312
:102F500007301490276D0093074813072C1390280F
:102F60006D0093071D1307321390236D0092406785
:102F70000093074813924067009307351490286D1B
:102F80000093072113073313902B6D0092407000BC
:102F900093074813072F1390276D009307201407FA
:102FA0002C1390236D009240710093074813072E55
:102FB0001390286D0093071E13073014902B6D009B
:102FC000930748139243350093072C1390286D0004
:102FD00093071D1307321390236D00924719009336
:102FE00007481492471E009307351390286D0093ED
:102FF000072113073313902B6D0092422D00930786
:103000004813072F14902A6D0093072013072C13E1
:1030100090276D009243640093074813072E139086
:10302000236D0092476C0093071E130730149027FE
:103030006D0093074813072C1390286D0093071D0C
:103040001307321390236D009243590093074814DD
:1030500092475E009307351390286D009307211364
:10306000073313902B6D00924268009307481307B3
:103070002F1490276D0093072013072C1390236DB6
:10308000009240700093074813072E1390286D009C
:1030900093071E14073013902B6D0092407000931D
:1030A000074813072C1390286D0093071D13073250
:1030B0001490236D00924759009307481392475E7E
:1030C000009307351390286D0093072113073313DE
:1030D000902B6D0092426D0093074813072F1490B8
:1030E000286D0092406D0093074A26FF2F000000D4
:1030F00002060000FB00FF000000F405030C0504BD
:103100000C05030C05040C05050000FF0000FF0082
:103110000002090000F10400F900FF0100010A00AB
:1031200000E202010501010301010102050000FFA7
:10313000000000E702030C04050000FF000000F19E
:1031400000085A02040302040402040502040602F1
:10315000050000FF010001010007900000E20805E2
:103160000000FF000002080107C80106000100E797
:1031700000FF010001000007A00000EC0100FE00BC
:10318000010100FF010001030000E2030106040148
:103190000903050000FF000002010107C801060045
:1031A0000100EC00FF000002040000F10400F9003F
:1031B000FF000002010000F100FF010000ED00012E
:1031C0000602010100FF010000EC000102010700FE
:1031D0000207FF00010300FF00000208000764016E
:1031E00000140500F700FF000002090000F100FFD5
:1031F000000002040000F800085003084E030854C1
:1032000002084C02085802084A01085C0000FC034E
:10321000086003085A03086003085A03086003089B
:103220005A01050000FF000002040000FB00083EF8
:10323000010302010302010302010302010302016F
:10324000040A010302010302010302010302010354
:10325000020104020103020103020103020103024D
:1032600001030201040A0103020103020103020136
:103270000302010302010405010302010302010329
:10328000020103020103020104050103020103021A
:10329000010302010302010302010405010302010B
:1032A000030201030201030201030201050000FF02
:1032B0000000020300085602040A02040802040681
:1032C000020404020402000842020305020402028E
:1032D00003050203050204020203050000F80403CB
:1032E000050404050403050404050403050404059A
:1032F00004030501050000FF000002040000FB00BC
:10330000083401030201030401030601040A010356
:103310000201030401030601040A0103020103047C
:10332000010306010405010302010304010306026F
:10333000030202030402030603040503030203035A
:10334000040303060404050403020403040403063F
:1033500001050000FF000007000402040007FF0051
:103360000990000A3C0000FB010850030305030418
:10337000050303050304050303050304050303050F
:103380000304050303050304050303050304050300
:10339000030503050000FF00000700040204000706
:1033A000FF000990000A3C0000FB010853030305DD
:1033B00003040503030503040503030503040503D0
:1033C00003050304050303050304050303050304C0
:1033D0000503030503050000FF00000700040204C5
:1033E0000007FF000990000A3C0000FB010856039B
:1033F0000305030405030305030405030305030490
:10340000050303050304050303050304050303057E
:1034100003040503030503050000FF000007000483
:1034200002040007FF000990000A3C0000FB0108AD
:1034300059030305030405030305030405030305FA
:10344000030405030305030405030305030405033F
:10345000030503040503030503050000FF00000244
:10346000020106000100E000FF0000020101060069
:103470000100E000FF000002080106000100E0007A
:10348000FF000002050106000100E000FF0000024D
:10349000090106000100E000FFEE30F7300C310FAB
:1034A000311B3130313C31543163317231843196CA
:1034B00031A531B131BA31C631D831E731F03126D9
:1034C00032B032F83255339733D9331B345D346917
:1034D00034753481348D3400000000000000000099
:1034E00000000000000000000000000000000000DC
:1034F00000000000000000000000000000000000CC
:10350000000000000000004A4A4A4A4A4A4A4A4A21
:103510004A4A4A4A4A4A4A4A4A4A4A4A4A4A4A4A0B
:103520004A4A4A4A4A4A4A4A4A4A4A4A4A4A4A4AFB
:103530004A4A4A4A4A4A4A4A4A4A4A4A4A4A4A41F4
:103540004A4A4A414A4A4A4A4A4A01414A4A4A4A36
:1035500000014A4A4A4A01014A4A4A4A01014A418B
:103560004A4A01014A014A4A4A4A4A4A4A4A414A9F
:103570004A4A4A41014A4A4A4A41414A4A014A4161
:10358000414A01014A41014A004A4A4101410001C0
:10359000014A000100414A4A4A4A4A4A4A4A4A4ABA
:1035A0004A4A4A4A4A4A4A4A524A4A4A4A4A644A59
:1035B0004A4A4A0A6D4A4A4A4A5BAE4A4A4A4A65F8
:1035C000AE4A4A4A006DAE096DADADAEAE64AEAD69
:1035D000ADADAD6DAEAEADAEAEAEAEAEAEADAEAE51
:1035E000ADAEAEAEAEAEAEADAEB6AEAEADAEAEAEF6
:1035F000AEADAEAEAEAEAEAEAEAEB6B6B6AEAEB6CC
:10360000B6B6B6AEAEB6B6B6B6AEAEB6B6B6B6AE82
:10361000AEB6B6B6B6AEAEB6B6B6B6AEAEB6B6B672
:10362000B6AEAEAEB6B6B664004A4A4A4AB6AD4A7F
:103630004A4A4AB6B60A4A4A4AB6B6AD4A4A4AB6AB
:10364000B6B6004A4AB6B6B65B4A4AB6B6B6AE4A4F
:103650004AB6B6B6B64A4A4A4A4A4A4A4A4A4A4A1A
:103660004A4A4A4A4A4A4A4A4A4A4A4A4A4A4A4ABA
:103670004A4A4A4A4A4A4A4A4A4A004A4A4A4A013D
:10368000004A4A4A0000004A4A4A4A4A4A4A4A4AC2
:103690004A4A4A4A4A4A4A4A4A4A4A4A4A4A4A4A8A
:1036A0004A4A4A4A4A414A4A4A4A4A01004A4A4A16
:1036B0004A0000004A4A4A4A4A4A4A4A4A4A4A4A48
:1036C000414A4A4A4A4A4A4A4A4A4A4A014A4A00F6
:1036D0004A4A004A4A00014A01414A000041004169
:1036E00041010000004A014A00014A014A4A000122
:1036F0004A01414A00004A014A4A000041004A4A40
:10370000000000014A4A010000414A014100004115
:10371000410141000041414A00004A4A4A4A000032
:103720004A4A4A4A00004A4A4A4A000041414A413C
:10373000000000414A4100000101014100004A4AE5
:103740004A0100414A4A4A4A4A4A4A4A4A4A4A4A75
:103750004A4A4A4A4A4A4A4A4A4A4A4A4A4A4A4AC9
:103760004A4A4A4A4A4A4A4A4A4A524A4A4A4A53A8
:10377000534A4A4A5253534A4A4A4A4A4A4A4A4A86
:103780004A4A4A4A4A4A4A4A4A4A4A4A4A4A4A4A99
:103790004A4A4A4A4A535B5353524A535353535328
:1037A000525353535253534A4A4A4A4A4A4A4A4A3C
:1037B0004A4A4A4A4A4A4A4A4A4A4A4A4A4A4A4A69
:1037C0004A4A4A4A4A4A4A4A4A4A4A4A4A4A4A5251
:1037D000535352535353534A4A4A4A4A4A4A4A4A0B
:1037E0004A4A4A4A4A4A4A4A4A4A4A4A4A4A4A4A39
:1037F0004A4A4A4A4A4A4A4A4A4A4A5353535353FC
:10380000535353535353534A4A4A4A4A4A4A4A4AD9
:103810004A4A4A4A4A4A4A4A4A4A4A4A4A52534AF7
:103820004A4A53535352535353535353535353537B
:10383000535253535353534A4A4A4A4A4A4A4A4AAA
:103840004A4A4A4A52525252535B53535353535368
:10385000535353535352535353535353535253533A
:10386000535353005353534A4A4A4A4A4A52535BAA
:103870005353535353535353535353535353535318
:103880005353535353535353535353535353535308
:10389000535353525353534A4A4A4A4A4A53524A39
:1038A0004A4A4A5353524A4A4A53535B4A4A4A5332
:1038B00053535353535353535352525353535353DA
:1038C000535353535353524A4A4A0AADAE4A4A4A93
:1038D0005BADAE4A4A4A64AEAE4A4A4A64AEAE53A3
:1038E00053535B5C5C5353535B5C5C5353535B5C63
:1038F0005C5353535C5C5CAEAEAEAEAEAEAEAEAE41
:10390000AEAEAEAEADAEAEAE5CADAEAE5C5C5C5C73
:103910005C5C5C5C5C5CA45C5C5C5C5C5C5C5C5C9F
:103920005C5C5C5C5C5C5CAEAEADB6B6B6AEAEAEDE
:10393000B6B6B65C5C5C5C64B6645C5CA4646464EF
:103940005C5C5C5C645C5C5C5C5C5C5C5C5C5C5CAF
:103950005C5C5C5C5C5C5CB6B6B6B6094AB6B6B696
:10396000B6124AB6B6B6B65B4A5CB6B6B6654A5C3F
:1039700064B6B6AE4A64645CB6B64A64645CB6B615
:103980004A5C6464645C4A4A4A4A4A4A4A4A4A4A25
:103990004A4A4A4A4A4A4A4A4A4A4A4A4A4A4A4A87
:1039A0004A4A4A4A4A4A4A4A4A4A4A4A4A4A4A4A77
:1039B0004A4A01004A4A4A4A4A4A0000004A4A4AD8
:1039C0000041004A4A4A414A004A4A4A4A4A004A91
:1039D0004A4A4A01004A4A4A4A01004A4A4A4A01B6
:1039E000004A4A4A4A00000100004A4A4A4A410045
:1039F0004A4A4A014A4A4A4A4A00014A4A4A4A004D
:103A0000014A4A4A4A00004A4A4A4A0000414A4A90
:103A10004A0000004A4A000000000041010941003C
:103A200000414109410100000100000000000009BF
:103A3000010000000009414A00000009414A00411C
:103A400000090001004A00014100004A4101410013
:103A5000014A010001000101000000000000000017
:103A600000014A01000000414A000000000141003D
:103A7000000000010100000100414A4A4A000041E3
:103A80004A414A00004141014A00004A520952009D
:103A90004A53524909005252520109414A4A4A01C5
:103AA00001414A4A4A00004A52524A4A4A4A52533B
:103AB000534A5252525352535352525252535352E8
:103AC000495252524A5201495249094A0152524AF4
:103AD0000141014A4A01014A4A5353535353535334
:103AE00053535353535253535353535353535352A8
:103AF00053535353535253525252534A53525253A5
:103B000052524A414A4A4A535353535353535353BD
:103B10005353535352535253535353525353525379
:103B20005353535252535353535352525253524A74
:103B30004A41414A41414A535353535353535353B8
:103B40005352535353525353535353535352535348
:103B500053535252535253535353534A4A52524A55
:103B60005241414141414153535353535352535294
:103B70005352535353535353525353525353535318
:103B8000525253525353535353535A52524A4A5216
:103B90005241414141414153535353535353535263
:103BA00053535353535352525353535352525352EA
:103BB00052535353535352525352524A4A4A4A4A07
:103BC0004A41414A414141535300535353535300D7
:103BD00053535353530052535353530009535253A7
:103BE0005300005252525200005252414100004ACA
:103BF0004A4A010909414A535352525353535352AB
:103C00005353535353535353535252535353535287
:103C10005253535B535352525353534A4A41414AAE
:103C20004A414141414141535353535353535353D9
:103C30005353535353535353535353535353535354
:103C400053525253535253535353534A4A53535359
:103C5000534A414A4A4A4A5353535C5C5C53535358
:103C60005C5C5C5353535C5C5C5353535B5C5C53D4
:103C70005353535C5C535353525C5C5353534A5CF1
:103C80005C4A4A4A4A64B65C5C5C5C5C5C5C5C5C5A
:103C90005C5C5C5C5C5C5C64645C5C5C5C5C5C5C54
:103CA0005C5C5C5C5C5C5C5C5C5C5C5C5C5C5C5C54
:103CB0005CAEB6B6B6B65C5C5C5C5C5C5C5C5C5C8A
:103CC0005C5C5C645C5C5C5C5C64645C5C645C640C
:103CD000645C5C646464645C5C5C645C645C5C5BED
:103CE0005C5C5C5CAEADAE5C5C64645B4A5C5C641A
:103CF000645B535B5B5C645B535C5C5C5B52535C1E
:103D00005C5B5B4A52645C5C5B525264AE5B5B52D0
:103D10004AB6AEAE124141525252524A4A535352DF
:103D200052524A53535353524A535352535352527B
:103D3000525353525352535A535352525252525255
:103D40004A4A4A41414A4A4A4A4A4A4A4A4A4A4AE5
:103D50004A4A4A4A4A4A4A4A4A4A4A4A4A4A4A4AC3
:103D60004A4A4A4A4A4A4A4A4A4A4A4A4A4A4A4AB3
:103D70004A4A4A4A4A4A4A4A4A4A4A4A4A4A4A4AA3
:103D80004A4A4A4A4A4A4A4A4A4A4A4A4A4A4A4A93
:103D90004A4A4A4A4A4A4A4A4A4A414A4A4A4A4A8C
:103DA000414A4A414A4A004A0000014A4A41000049
:103DB00000004A010009000041000909000041001B
:103DC0000909090041000909090001090909090057
:103DD000010909090900004A4A4A0100094A4A4AF8
:103DE0000009094A4A4A0009094A4A4A0009094A97
:103DF0004A4A0009094A4A41000909414141090961
:103E0000090000000909090900004A4A00090001E7
:103E10004A41000900004A41000900014A01000925
:103E2000000041000009090000000009090000002D
:103E300000090909090909000009414A410900006E
:103E4000414A41090000414141000900004101008F
:103E5000090000010009004100000009004A0000BB
:103E60000009014100000000000000000000000007
:103E700000000000000000000109000000004109EE
:103E800000000000410900000000410000000000A7
:103E9000410000000000000041414100014101419A
:103EA00001004A0100010100410100000000414100
:103EB0000000000001010000000000000000000000
:103EC000000000000000004101414A010141014A97
:103ED00041410941014A0141014101010001410102
:103EE000000000004100000000004100000001004F
:103EF000000000014100004A41414141414141412E
:103F00004141414A4A41414A414A41414A41414174
:103F1000414A41414A414A414A41410141414141AD
:103F200041000141414141414141414A4141414AF0
:103F300041414A4141414A4141414A414141414156
:103F400041414A41414A414A414A4141414141413D
:103F50004141414101414A414141414141414A417F
:103F600041414141414141414A4A41414A41414126
:103F7000414A4141414141414A4141414A41414A0D
:103F80004141414141414141414141414141414121
:103F90004141414141414141414141414141414111
:103FA0004141414141414141414141414141414101
:103FB00041414141414141414141414141414141F1
:103FC00041410141414A4141014109414101004111
:103FD00000414A01000100414A01000100014A007C
:103FE000000000014A0000410923084A004A09373D
:103FF000004A004A0123004A004A0108004A004AD8
:1040000001000041004A0100004108414100004117
:1040100000414100084100410041004141000009C8
:1040200000414100000900414A08230900414100C4
:1040300037000041410037000041010823000041E2
:1040400000000000014100414A414141414A4141D3
:10405000414A4141414A4141414A41414A414A4123
:1040600041414141414A41414141414A414A414125
:10407000414141414141414A41414152B6414141A1
:104080004A00AE4A4141414164414A4141410041F7
:10409000414141414141414A414141414A414141FE
:1040A0004A4A41414A4141B6AEAEB6B6B6B6AEAEE8
:1040B000B6B6B6B6B6B6B6B6B6B6B6B6B6B6B65CFA
:1040C000B6B6B6B6B641ADB6B6B6B6410053B6B69C
:1040D000B6414A4109ADAEB6B6AEAEADB6B6B6B6AD
:1040E000AEB6B6B6B6B6B6B6B6B6B6B6B6B6B6B678
:1040F000B6B6B6B6B6B6B6B6B6B6ADB6B6B6B6AD72
:1041000000B6B6AD5C0041B6B6AE00414AB6B66583
:10411000414141B6B609414141B6AD4141414164D9
:10412000094A414141004A414A4A414141414141D4
:104130004A4141414141524141414A524A4A4A4A17
:104140004A4A41414141414A49414152525200414A
:104150005252530000414141414101525252524199
:10416000415A53535A4A41014A4A4A4101004A4A74
:104170004A41000001004A41000000004A010000DD
:10418000014A41000000414A410000004141410014
:10419000000041410000094A4A010001004A4A0169
:1041A000000000014A09000000014A010000090066
:1041B0000100090909000009090909090909090992
:1041C000090909090909090909090909090909095F
:1041D000090909090909090909090909090909094F
:1041E000090909090909090909090909090909093F
:1041F0000909090909090909410000000000010035
:10420000000000000000000000000000000041006D
:10421000000009090000000009000900000909095F
:104220005209000900090000000000000000000021
:1042300000000000000000000041010000000052EA
:1042400052000000000912000000000909090000E6
:104250000900090000010900010900000000525393
:104260000000000052530900000812520900090022
:1042700001090000490000090900000000000909C7
:104280000009000000090900000941010000005276
:104290004A01000000525200010000090900414992
:1042A000000000495201000000525200000052522A
:1042B000520000005209000041414101010041410A
:1042C000410100004141414100414141410100495A
:1042D00001090100004949010000000149000909E4
:1042E00000000100525200414141014A094141018F
:1042F0000952094141010909014949520100495244
:104300000953000953090952000952005252000092
:104310004900524900004941414A4A4141525252E2
:1043200052524A525353535352525352525253526F
:1043300052535253525352535253525B5A535A533D
:10434000525A525252525A4141414141004A4A4105
:104350004141415252524141415253524A414153CB
:10436000525252525252525252525252525252522D
:1043700052525252525252000000010000000000FE
:104380000000000000000000000900000800000913
:1043900000000000000900000000004900000000CB
:1043A000005209000000004101090041000900001D
:1043B000004100000000004A010008000041010027
:1043C00000000000000000000000000000000008E5
:1043D0000000000000000008000041410000000053
:1043E0004A01000000014A000008000141000000ED
:1043F00000010100000800000000090000000800A2
:10440000000008000000004A4A4141414141414149
:1044100041414A0141414141410041414141410045
:1044200041414141410141414141410041414141FD
:10443000410041414141410909004141414141415E
:1044400041414141414141414141414141414A4153
:1044500041414152524141414A52524141414149F7
:104460005241414141414141414A525252414A5ACD
:104470005353534152520949534953090000525270
:1044800052090000495252090900495252010900DB
:10449000094A4A000900095352525352525251528A
:1044A000525253520952535353520000535249002F
:1044B000000052090000000009090909090000096B
:1044C000000909090009090041000909090000095A
:1044D0000909090109090909090009090909090066
:1044E000090909090909090909090909090909093C
:1044F00009090909090909090009095209090009F5
:1045000000410009090900410009090900000909E1
:10451000090909090909090909090909090909090B
:104520000909090909000809090000090909090020
:10453000000009090900000009090900000909092A
:10454000000000090908010000090908000000092D
:104550000908090000000909000000524909090979
:1045600000014109000900010909010000000009DA
:1045700001000000000001010000000041010900ED
:1045800000000100000000000000494A0000000097
:1045900001010001000041000000000001000000D6
:1045A0000000010000000000000001000000000009
:1045B00000000000000000000000524A000000005F
:1045C000410900000000010100000000000100019D
:1045D0000000000000410001000000010001000097
:1045E0000000000000000000090900094900010066
:1045F0000041010101000001010100000041010131
:104600000000014101010000010101000001010160
:104610000000000001010009494909495201014116
:1046200001410101010141010101010101010101FA
:10463000010101010101010101010101010101016A
:104640000101010101010149094149090901010172
:10465000010101010101010101010101010101014A
:10466000010101010101010101010101010101013A
:1046700001010101010101090900000000410100DF
:1046800000000001010000000001010000082301FA
:10469000010000093701010000083701010000088E
:1046A00023010100000000000000000000000000E5
:1046B00000000000000000000008000000000008EA
:1046C000000000002309000000003708000000007F
:1046D000370000000000080000000000000000009B
:1046E0000000010000000000410000000000410047
:1046F00000000000410000230000410000370000DE
:10470000410000370009414141414141414141419E
:104710004141414141414141414141414141414189
:1047200041414141414141414101014141010100BA
:1047300000410101000909414900090001415201FC
:104740000900004149000900004141000900004101
:104750004100090009414100090909000100090956
:1047600009090000090909000909090008000909E7
:1047700009090000090909080000090908080900D9
:1047800009090808080009090800080809090008BB
:1047900000080909000909090909000900080900B8
:1047A00000000009090800090909090900090909A7
:1047B0000908000909000900090809080909090888
:1047C000000909090909080900090101000909008E
:1047D0000100000909014100000900010000090968
:1047E0000001000909090001000909090001000987
:1047F0000909000809090900000000000100000083
:10480000000000000000000900000009000900008D
:104810000000010000000009000000000809000974
:104820000008090909090000000900000001000052
:104830000101000100000000000100000000000074
:104840000000000000000000000000000000010166
:104850000000000000000000000100010000000155
:104860000000000001000000000000000000000047
:104870000000000100000000010100000000010133
:1048800000000000000952010100000101000000C9
:104890000001010000000001010000010000010012
:1048A0000001010000010101090100000012525243
:1048B000090909525252520101010101010101018C
:1048C00001010101010101010101010101000001DA
:1048D0000101010000090949520100125252520916
:1048E00009495209520900010100000000010100BC
:1048F00000000001010000000001000000000001B4
:104900000900000000490900000000120800000032
:10491000000900000000000000000000000000008E
:104920000000000000000000000000000000000087
:104930000000000000000000000000000000000077
:10494000000000000000000000090000010000005D
:1049500000000900000000005200000000095200A1
:10496000000000095A000000000052000000000092
:104970005200000000001201014141414141090182
:104980004101415B520909090952525252520952DE
:104990005252525209525252521249525252525289
:1049A00012525252525252414141414141414141C0
:1049B00041414141414141414101014141414101A7
:1049C00001414141410901010909491212090952F4
:1049D0005252525252525241414141414141414150
:1049E0004141014141414141014141414141014177
:1049F000414141090009495252090052525252099B
:104A0000005252525209000101010009090101013D
:104A1000000909000101000909000101000909005C
:104A20004952010909000052000909000009000962
:104A30000900090000090908090908090908090904
:104A40000009090009090008000909000800000917
:104A500009090901000909090808000909000808ED
:104A600008090808000900090909080800090908D7
:104A700000090008090008090908090800090900D7
:104A800009000009090809000009090809000008CF
:104A900009090908090809090000090008090009AD
:104AA000090808090009090000090909000808099E
:104AB0000909080800090909080808090909080876
:104AC0000009090008080809080908000008090980
:104AD0000908000800080800000808080808090874
:104AE0000909080800010909090900090909090952
:104AF0000009090909090000000000000000000188
:104B0000000000000001000000090000000000009B
:104B1000000000000000000900000000000909007A
:104B20000000090909090000000000091200000046
:104B30000000000000000000010001000000000073
:104B40000000000000000900000100000900000052
:104B5000000000090000004909094909000000009F
:104B60000000000000010000010000000001000042
:104B70000000010009000000000909000000000910
:104B800000000000000909000909490900000000AF
:104B900009000000000000000009000009000009F1
:104BA00000000000090909000000090909090000C6
:104BB00000000909000000090000000000000000DA
:104BC00000000000000000000009000008000000D4
:104BD0000009090909000009090909000909090969
:104BE0000909090909090900000000000000000086
:104BF00000000000000000000800000000000009A4
:104C00000909090909090909090909090909090914
:104C1000090909090909090000000000090000004C
:104C20000000090000000000090000080008000959
:104C300009090909090909090909090909090909E4
:104C4000090909090909095252525252520909091E
:104C5000090909010100000100000001010100092A
:104C600009000000000909090001000909090900FB
:104C70000009090909000052525252525209090909
:104C80000909090100010001000100010001000003
:104C90000000000000000000010000000000000013
:104CA0000000000000000052525252000009091298
:104CB00009000001000000000000000000000000EA
:104CC00000000000090000000000090000000000D2
:104CD0000900000000000908080808080808000882
:104CE0000808080808080808080808080808080844
:104CF0000808080808080808080808080808080834
:104D0000080808080808080809080009090009082F
:104D10000808000809090808080009080808080820
:104D20000909080808080908080808000909080806
:104D300008080909080808090908080800090908F5
:104D400008080808000009080808080808080908F1
:104D500008080008090800000808080808090800F1
:104D600009080909080809090909090900090909BF
:104D700009090009090909090009090909090909B5
:104D8000090909080909090909010909090909099C
:104D900008090909090908090900090900090900A0
:104DA00000090009000000000009000000000009DF
:104DB00009000000090009000000000009000000CF
:104DC00008000000000000000000000000000000DB
:104DD00000000000000000000009000000000008C2
:104DE000090000000011110000000009110000007E
:104DF0000009110800080000000000090900000077
:104E0000000909000000000009000000000009007E
:104E10000000000009000000000909000000090965
:104E20000000000009090909090909090009090028
:104E30000000000909000000000909090900000933
:104E400009090909090909090909090909090909D2
:104E50000909090909090900000000000000000013
:104E60000000000000000000000000000000000939
:104E700009000000000909090909090909090909C6
:104E800009090909090909000000000909000000D1
:104E900000090900000000090900000000090900DC
:104EA000000000090909090909090909090909098D
:104EB000090909090909090808080808080808086B
:104EC0000808080808080808080808080808080862
:104ED0000808080808080808080808080808080852
:104EE0000808080808080800090808080808090947
:104EF0000808080808080808080808080808080832
:104F00000808080808080808080808080808080821
:104F10000808080808080808090808000908090915
:104F2000080809080908080809080800080009080D
:104F30000808080809080808000008080808080800
:104F400009080808080808090909090808090909D9
:104F500009010909090909080909090909090909CA
:104F600009090908080808090901090909090808BF
:104F700008090909090808080900090008080809BA
:104F80000009090808080809090908080911110891
:104F9000080808090908080808090908080808088D
:104FA000000808080808080911080000000911098C
:104FB0000809001109091111080909091111090944
:104FC000090911110911090909080809110900083D
:104FD0000809111108080000090009090900090958
:104FE0000909000800090909000800090909B608AB
:104FF00009090909B60809090909B60809090909C9
:10500000B60009090964B609090909090909090964
:10501000090909B60909090909B61111110009B6EA
:105020001112120909B61111120909B61112111142
:1050300009B6111112110909090909090909090912
:1050400009090909090909090909090909090909D0
:1050500009090909090909090909090900090909C9
:1050600009000908090909090909090909090909BA
:1050700009090909090909090909090909090909A0
:105080000909090909090909090909090909090990
:10509000090908080909000909090909090909098B
:1050A0000909090909090909090909090808090972
:1050B0000909090909090908111109090909111141
:1050C0001109080911111109090909090909090931
:1050D0000909090909090909090909090909090940
:1050E0000909090909090909090909090909090930
:1050F000000909090900000909090909090909093B
:10510000090909090909090909090909090909090F
:105110000909090909090909090909090A0A0A0005
:10512000090A0909090009090909090909090909F7
:1051300009090909090909090909090909090909DF
:1051400009090909090909090909090909090909CF
:1051500009090809090909080808080808080808C9
:1051600008080808080808080808080808080808BF
:1051700008080808090808080808080808080800B6
:1051800009080808000909080808080808080808A4
:1051900008080808080909090809090900121B0973
:1051A00008095B5B1B09095B521B1B0852525252D8
:1051B0001B095B52525252080808080808080808E0
:1051C00008080808080808080852080808080852CB
:1051D00012080808081B52080808081B23120008B8
:1051E000081B1B23121108080808080808080808EB
:1051F0000808080808080008080808000008080847
:10520000080808080808080800080808080808002E
:1052100008080808080808091212080908091212E3
:1052200008080911121208080809121208080809CA
:1052300012120808080912120908080912120908AE
:1052400008091112090808090900006D6D0800001D
:10525000006DB60908006D6DB60808646D6DB6087E
:10526000086DF6FF6D08A4F6FFFFB6A4F6FFFFFF7A
:10527000FFF6F6FFFFFFFFB66411121109B66D11BC
:105280001209096D6D641209096D6D6D640909F6E5
:10529000F66D6D0909FFFFFF6D5209FFFFFFF65222
:1052A00000FFFFFFF6A452090909090909090909C4
:1052B0000909090909090909000909090909090967
:1052C0000909090909090909090900000009090969
:1052D0000900000009090908120909090900120951
:1052E0000909090011110809091112111200091206
:1052F00012111208090911110909090811110909E6
:1053000009001111090909080911120908081111E8
:1053100012110909111111120909111211120909A9
:105320001112121209111251111109111111111139
:1053300009091111121209090909090909090909BB
:1053400009090909090909090909090909090909CD
:1053500009090909090909090909090909090909BD
:1053600009090909090900090909090909090909B6
:1053700009090909090909090909090900080009B0
:105380000909110911090809111111080909111157
:105390001109090912111109090911110909091144
:1053A000111109000911111111001112121111002E
:1053B00009111111110911121111111109091211FB
:1053C0001109090911110909090909090911000936
:1053D0000909091208090909081208090908091226
:1053E0000009090912090809090912090809090827
:1053F000090908080808090808090909091109091B
:1054000009090912120909090912120809090912E0
:105410001B12090909121B1B0909091212090808A4
:1054200008121208080908090909090909090909DE
:1054300009090909090909090909090909090009E5
:10544000090909090009090909000A000808000AF0
:105450001608080001161F090909090909090900A8
:1054600000000000000909090A090A0A0A0A1414BE
:10547000141414140A161416140B0A16140B14140C
:1054800014140B14161F1609090909000A00000953
:105490000909140A0100000B14140A090914140A5A
:1054A0000A090B14140009001414140A00000A1449
:1054B000140B0A09090B0B0B09000009001400006A
:1054C000090A00160A00090A0016140A0A0A00143A
:1054D00016140A0008140B0A0008080B0A09000039
:1054E000080A000900000008080008510908080817
:1054F0000951090808005109090808085109090853
:105500000008510911080808510911080809510932
:105510001108080951091212525252525252525253
:10552000525252525252525252525252525252525B
:10553000525252521252525252125252525212520B
:1055400052525212525B5B521B1B231B09521B1BF4
:105550001B1B1252521B1B1B125252521B1B12526C
:105560001252521B52525B5B5B1B235B5B5B5B5BB0
:105570001B5B5B5B5B5B23080808080808080808DE
:105580000808080808080808080808090809110890
:1055900008125212110908525B51081108525208A0
:1055A00008120809510808080808080008080951E5
:1055B0000808080912510808085B5B120808080966
:1055C000525B0908080808090808090808080808BB
:1055D0000808080808080809121209080809121220
:1055E0000908080911120908080809121108080019
:1055F0000909080808080808080808080808080928
:1056000009080809091112F6F6FFFFFFFFA4F6FFCB
:10561000FFFFFFA4F6F6FFF6A452A4F6FF5200081F
:10562000A4F6FFA4000809A4F6F6FF095252F6FFFB
:10563000FF1211A400A4F6FFFFFFFFA452FFFFFF1B
:1056400052A408FFFFA400005200FFF600F652A487
:10565000FFFFFFFFA4FFFF00F6F652F6F600FFA4DF
:1056600052A4FFFFFF0052080800000909080808BB
:1056700008080908080808080808080808080808A9
:105680000808080808080808080808090908090996
:105690000811111111090900111100090900111156
:1056A0000009090811110900090809110909080868
:1056B0000909080808080909090808090808080864
:1056C0000809090909080809090909090909000956
:1056D000000909090900000909080800090008086B
:1056E0000808080808080808080808080809090937
:1056F00009090908090808091112111209111111E3
:1057000011120909111111120909111111110909B7
:105710001111111109091111111109091211111198
:105720000909090909090809090900080908000007
:10573000080911090808081151090908090911097E
:1057400008090809090808080808080908080808D5
:105750000808080808080851091111090951090920
:105760000909091111090909091111090909111179
:105770001211090911111109091111090909111150
:105780001108081112121209090909090909090960
:10579000090911090911090911121211110909093F
:1057A000090911110812121109110911121212110D
:1057B0000912121209090809090908080911120930
:1057C000080809111209080808090909080809093F
:1057D0000909080808090808080809090808080844
:1057E00009080808080808120908090808121B080F
:1057F000080808121B0808080812120808080812EE
:1058000012080808081209080808081109080808F9
:10581000080908080808080808000B1F16080800EF
:10582000161F140808091F161608080B1F161F0854
:10583000080B1F1F16080814161F27080814162720
:105840003708081427376F0A141F1F1F1414161F58
:105850001F160B1F271616141F27271F141627168F
:105860001F1F16161F2716161F1F1F371F16272745
:10587000276F6F161F27270A140A00090A14140A33
:105880000000001F160A0A0A0027160B1616142716
:1058900016141616161F14141F1F1F1616161F1681
:1058A000161F161416161409000009090000090035
:1058B0000A0B0A090A0A0914140A0A140A0A141417
:1058C0000B16140A1414141616140B1414161614AA
:1058D0000B1414141F1F0B080808080808000808F8
:1058E0000808080900080808080B00080808081438
:1058F00001080808081409080808080B0A0808081D
:10590000080B0B080808080808495109120808493B
:105910005109120809095109120808095109120808
:105920000909510911080009510912080009510912
:10593000520809095151525252525B5B5B52525B01
:105940005B5B5B52525B5B5B5B525B5B5B5B5B5BC2
:105950005B5B5B5B5B5B5B5B5B5B5B5B5B5B5B5B97
:105960005B5B5B5B5B5B5B5B5B5B5B1B235B5B5BFF
:105970005B5A235B5B5B5B5B235B5B5B5B5B235B20
:105980005B5B5B5B5B5B5B5B52521B5B5B525B5BC2
:105990001B525A5B52525B5208080808081208084A
:1059A0000808081208080808081208080808081B50
:1059B00009080808082311080808082351080808DE
:1059C000082312080808080809111212080809110A
:1059D00012120808091111121208090912121208EC
:1059E0000911111112080951111111080849091161
:1059F00011080809111212080800FF000008080821
:105A0000F6A4FF08080808F6F61212080808521152
:105A100011111108081112121111110909090909AE
:105A200009121112121212A4FFA400A452000000C5
:105A3000A4FF52A4FFA4FFA412F6FFF6A45212087A
:105A4000080811111111111211121209090909097D
:105A5000091212121212121212121212121212122F
:105A60001212121212121212121212121212121117
:105A70001111111111121212121212090909090938
:105A80000911111109090912121111090912121231
:105A900012120912121212121112121212121211F1
:105AA000111112111112111211110909090909110B
:105AB0005109090952511209080800080809090981
:105AC00009090909111211121212121212121211DD
:105AD00012121212120909090911111109090909F1
