:100000000C94D3440C943B450C943B450C943B45D9
:100010000C943B450C943B450C943B450C943B4560
:100020000C943B450C943B450C943B450C943B4550
:100030000C943B450C9480460C94BD460C943B4577
:100040000C943B450C943B450C943B450C943B4530
:100050000C943B450C943B450C943B450C943B4520
:100060000C943B450C943B450C943B450C943B4510
:100070005A5501200101003808000000000000006E
:100080000000000000000000000000000000000070
:100090008100450027FF24FF2A902B1C210C22FB06
:1000A000850084008903888D81096F0244424700DE
:1000B0004501B083B300B10125118A4F8B031C4A5F
:1000C0001F4A7E4E074B014B284A2D4A324AF34ABB
:1000D000354A384A3B4A7F4A00408891D2E4ADB560
:1000E000B6BEBFFF000000000000000000000000DE
:1000F0000000000000000000000000000000000000
:1001000000000000000000000000000000000000EF
:1001100000000000000000000000000000000000DF
:100120000000000006070300000203035707050351
:10013000000002030605060501000100050506068C
:100140000401000105050607060200010505050674
:10015000050301000405050503020100040404046D
:100160000101030303010105060603000100035713
:100170000606050201020757050607040206570690
:100180000505060F020757060505050601040505C6
:100190000505040400020405040504030101030429
:1001A00004040303020204040200045701020403CE
:1001B000010357FF010102020257FFA703010102D9
:1001C00007AF5706050201010756060504020001A4
:1001D00003050506020202010103050501040602EA
:1001E00000030304020302000207A7070202010042
:1001F00005AF070F000100020756060500010103C5
:1002000007060405000102030605050501010203B6
:1002100003040505010100020204050502030001B3
:100220000203030504010102030302000F0301019D
:10023000030200030605030102000207050504028C
:10024000010106AF060604020001030F05050502C1
:10025000000003050504030001000103040302007C
:100260000502010304A7570603000203565E0706B2
:10027000050101025F0705060603000007040506E5
:100280000705020006050605050503010505060527
:100290000404030105050504040301010304040427
:1002A00004020102E5E5938A8ADCDCDCDC938ADC6B
:1002B000E58ADC93938ADCDCDCE58ADC8ADC93DC8F
:1002C00093DCE58A8A93DCE5DCDCDCE5F78A93DC09
:1002D000DC93DCDCE5F78A93DCDCDCE5DCE5DC8A5E
:1002E00093DCDCDC938AE58A8A93DCDC93938ADCFA
:1002F000E58A93DC938ADC93E5E58A938ADCDCDC8F
:10030000DC93E58ADCDCDCE5DCDC938ADCE5DCDC48
:10031000DC938AF7DCDC93DC938AF7E5DC93DC93EF
:100320008AF7E5E5E5DC938A8A93DCDCDC938AF7DF
:10033000F78A93DC938AF7E5E5F78A938AF7EEE587
:10034000E5EEF78A8ADCE5EEDCE5E5F7E58ADCE553
:10035000E5EEE5E5E5E58ADCE5E5DCEEDCDCE58A15
:10036000DCE5EEE5E5DC938A8A93DCE5DC938AF74D
:10037000F78A93DC938AF7E5E5F78A938AF7E5E550
:10038000EEE5F78AF7E5E5E5DCE5DC8AE5DCE5E5C1
:10039000E5DC8ADCE5E5EEE5DC8ADCDCDCEEE5DCF0
:1003A0008ADCDCDC93DC938AE5DCDCDC93938AE595
:1003B000DCDC93E5938AE5DCDCDCDCDC8AE5DC93E1
:1003C000E5DCDC938A93DCDCDCDC938AF78A93DC63
:1003D000DC938AF7E5F78A93938AF7E5E5E5F78AF0
:1003E0008AF7DCE5DCDCDCE58ADCE5E5DC93DCDCFB
:1003F000E58ADCDCDCDCE5DCDCE58ADC93DCDC9358
:10040000DCDCE58A8A93DCDCDCDC938A8A8A93DC98
:10041000DC938AE5938A8A93938AE5E5E5938A8A51
:100420008AE5E5E5DCDC938AF7E5E5E5DC938AF728
:10043000E5EEE5EE938AF7E5DCE5E5DC8ADCE5E56B
:10044000E5E5DC938A93DCEEE5DC938AF78A93DCBE
:10045000DC938AE5E5F78A93938AE5DCE5E5DC8AB7
:1004600093E5DCDCE5E5E5F78A93E5DCE5E5E5E544
:10047000F78A93DCDCEEE5DCE5F78A9393DCE5E5CF
:10048000E5DCDC8A8A93DCEEDC938AF7E58A93DC90
:10049000938AF7EEDCE58A938AF7EEDC93DCE58A53
:1004A000F7EEE5E593DC938AE5DCDCDC93938AE503
:1004B000DCDC93E5DC8AE5DCDCDCDCDC8AE5DC9397
:1004C000E5DCDC938A93DCDCDCDC938AF78A93DC62
:1004D000DC938AF7E5F78A93938AF7E5E5E5F78AEF
:1004E0008AF7DCE5DCDCDCE58ADCE5E5DC93DCDCFA
:1004F000E58ADCDCDCDCE5DCDCE58ADC93DCDC9357
:10050000DCDCE58A8A93DCDCDCDC938A8A8A93DC97
:10051000DC938AE5938A8A93938AE5E593938A8AA2
:100520008AE5E5E500000000000000000000000092
:1005300004040404000000040FFFFFA70000040FE0
:10054000FFFFFFA700040FFFFFFFA7A700040FFF97
:10055000FFA7A70F000403A7A7A70F040004030425
:100560000F0F040400000000000000000404040455
:100570000000000004040303040000000404040459
:10058000030400000F0F0404040304000F0F0F0402
:10059000040404000F0F0F0F04040400040F0F0FD6
:1005A000040404000004030304040404000403031B
:1005B00003030404000404030303040400040F04FD
:1005C000040404040004040F0404040F00000404E1
:1005D0000F0F0F0F000000040404040300000000CC
:1005E00004040404040F0F0F04040400040F0F0F8D
:1005F00004040400040F0FA7040404000F0FA7A7AE
:10060000040404000FA7A704040304000F04040457
:1006100003040000030303030400000004040404B3
:1006200000000000000000000000002700000000A3
:10063000000F27770000000F0FFFFF27000F0F7735
:100640007727270F000F7727270F0F04000F270F9B
:100650000F040404000F270F04040404000F270FE5
:1006600004040404270000000000000027272700DE
:10067000000000000F272727270000000F0F0F277B
:10068000270F0F00270F0F0F0F770F002777270F68
:100690000F270F0027FFFF27270F0F000F27272700
:1006A00027770F00000F270F0F0F0F0F000F270FD7
:1006B0000F27270F000F270F0F27770F000F272770
:1006C000270F0F0F000404777727270F000000047F
:1006D0000477770F000000000004042700000000EA
:1006E00000000004040404040F770F000404040451
:1006F0000F770F000404040F0F270F00040F0F0FD4
:100700000F270F000F0F0F27270404000F272704C0
:1007100004000000270404000000000004000000A2
:1007200000000000000000000000000000000026A3
:100730003737B6B60000263F3F26262600261E1E67
:1007400037261E1E0026FFFF261E1E1E0026FFFF48
:1007500026FFFF3F0026B6B626FFFF2600261E1EF8
:10076000261E1E1E0000000000000000FFFFFFB656
:100770002600000026373FFFB62600001E26373F22
:100780003F3F2600373726263F3F260026263F3F9D
:10079000262626003F3F3F261E1E26002626261E12
:1007A0001E1E260000261E26261E1E1E002626377A
:1007B000261E1E1E0026373F26261E1E0026B63782
:1007C000372626260026B63F373726260026B6B619
:1007D0003F372626000026B6B6261E1E000000263D
:1007E000262626261E1E261E261E26001E1E261E07
:1007F000261E26001E1E261E262626002626262605
:1008000026372600263737373F3F26003737373F12
:100810003F3F26001E1E263F3F2600002626262696
:100820002600000000000000000000000000002181
:1008300021212121000021B9182130300021B9FFE8
:100840001818213000211818B918FFF000212118BC
:10085000FF21181800302118FF18181800B921219D
:10086000FF18181800000000000000003030302190
:1008700021000000B9302130B9210000B93021F049
:10088000F0B92100303021B9F0302100181821B919
:100890002118300018211830211830002130213063
:1008A0002118300000B93021B91818180030F02193
:1008B000B91818210030F021F02118180030B93093
:1008C000212121210021183018181818002118188A
:1008D00021212121000021181818181800000021DA
:1008E000213030B921302130212130002121183030
:1008F00021213000181821B9212130003030B930C1
:100900003030300021213030F0302100303021F003
:10091000F0B9210021212121B9210000F0B93021B5
:100920002100000000000000000000000000D9FFCE
:10093000F0F0E3E300D9FFD9D9E3E3D900D9FFFF11
:10094000D9E3F4E300D9F0FFF0E3FFF400D9F4F4C5
:10095000F0FFFFFF00D9F0F4F0E3F4E300D9E3F097
:10096000F0E3F4D90000000000000000E3E3F0F041
:10097000FFD90000D9D9E3E3E3FFD900E3E3F4F0C2
:10098000FFFFD900F4F4FFFFFFF0D900FFFFFFFFE6
:10099000F4F0D900E3E3F4E3F4F0D900E3D9F4E3AD
:1009A000F0E3D90000D9D9E3F0E3F0D900D948D970
:1009B000F0E3E3D900D94848D9D9E3D900D9484868
:1009C000E3D9D9E300E348D9D9D9E3E300E3D9E394
:1009D000D9F0F0F400E3D9D9F4F0E3D90000E3E36F
:1009E000E3E3E3E3D9D9F0E3F0E3D900D9D9F0E3C5
:1009F000E3D9D900D9D9F0E3D948D900E3D9D9D975
:100A00004848D900E3E3D948D948E300F4F0F0D9E5
:100A1000E3D9E300D9E3F0F0D9D9E300E3E3E3E37A
:100A2000E3E300000000000000000000000000847C
:100A300084CFE7E70000008484CF43FF00008443B5
:100A4000CFCF43E600008443CF844384008443E750
:100A500084434384008443E643434384844343FF05
:100A6000438484840000000000000000E7E7CF8496
:100A700084000000FFFF434384000000E6E6844357
:100A8000E6840000CFCF8484E6840000CFFFE784B3
:100A900084438400CFE6E78484438400CFCFE78497
:100AA00084434384844343FF43CF8484844343FF8C
:100AB00043CF8484008443E643E7CF84008443E645
:100AC000CFE7CF8400008443CFE7E74300008443AF
:100AD00043E7FF430000008443FFFFFF0000008462
:100AE000848484848484CF84844343848484CF84B2
:100AF000844343848484CF84844384008484CF8467
:100B0000CF4384008484CFCFE78400004384E7E7A9
:100B1000438400004343434384000000848484846E
:100B2000840000000000000000000000000000370A
:100B300037370000000037000000370000370000A2
:100B400000003700003700000000370000370000C9
:100B50000000370000370000003700000000373782
:100B6000370000000000000000000000000000004E
:100B700037000000000000373700000000000000D0
:100B800037000000000000003700000000000037C0
:100B900000000000000000370000000000003737B0
:100BA00037000000000000000000000000000037D7
:100BB0003737000000003700000037000000000059
:100BC0000000370000000000373700000000373712
:100BD0000000000000370000000000000037373739
:100BE0003737000000000000000000000000003760
:100BF0003737000000003700000037000000000019
:100C0000000037000000000037370000000000003F
:100C100000003700003700000000370000003737C1
:100C20003737000000000000000000000000000056
:100C300000373700000000003700370000000037A1
:100C400000003700000037000000370000370000C8
:100C50000037000000373737373737000000000013
:100C600000370000000000000000000000003737DF
:100C70003737370000003700000000000037000061
:100C80000000000000373737373700000000000051
:100C90000000370000000000000037000037373741
:100CA000373700000000000000000000000000379F
:100CB0003737370000003700000000000037000021
:100CC00000000000003737373737000000370000DA
:100CD0000000370000370000000037000000373701
:100CE0003737000000000000000000000000373728
:100CF00037373700003700000000370000000000E1
:100D00000000370000000000003700000000000075
:100D1000370000000000003700000000000037002E
:100D2000000000000000000000000000000000378C
:100D300037370000000037000000370000003700A0
:100D40000000370000003737373700000037000059
:100D50000000370000370000000037000000373780
:100D600037370000000000000000000000000037DE
:100D70003737000000003700000037000000370060
:100D80000000370000000037373737000000000050
:100D90000000370000370000000037000000373740
:100DA000373700008080808091919191A2A2A2A209
:100DB000B3B3B3B3B3B3B3B3C4C4C4C4D5D5D5D537
:100DC000D5D5D5D5E6B3E6B3E6B3E6B3B3E6B3E639
:100DD000B3E6B3E6E6B3E6B3E6B3E6B3B3E6B3E64B
:100DE000B3E6B3E6E6B3E6B3E6B3E6B3B3E6B3E63B
:100DF000B3E6B364E6B3E6A2E6B364A2B3E6A2C484
:100E0000B364A2C4E6B364A2E6A2C4A2A2C4A2C40C
:100E1000A2C4A246C4A246B3C4A24632A2C4B3C46A
:100E2000A2C4B3C4C4A2E6B3C4A2C4B3A2C4A246BB
:100E3000B364A2C4E6B3C4A2C4B364A2A2E632C43B
:100E400023E632C4E6B3E6B3E6B3E6B3B3E6B3E60D
:100E5000B3E6B3E6E6B3E632E6B364A2B3C4A2C433
:100E6000A2C4A2C4E6A2C4A2E6A2C4A232C4A2C47E
:100E7000A2C4A2C4C4A2C4A2C4A2C4A2A2C4A2C442
:100E8000A2C4A2C4C4A2E6A2C4A2E6A2A2C42364CD
:100E9000A2C4A2E6C4A2C4A2C4A2C4A2A2C4A2C400
:100EA000A2C4A2C446B3C423C4A2C423A2C4A2E65B
:100EB00032C4B3E6E6B3E6B3C4B3E6B3A2C4A2E673
:100EC000A2C4A2C4D5D5D5D5D5D5D5D5A2A2A2A226
:100ED000B3B3B3B3B3B3B3B3C4C4C4C4777777778E
:100EE00077777777020B640A5B14130A64010101B8
:100EF0000101010203040502030607080906070AA7
:100F00000A0A0A0A0A01020301040506040102038F
:100F1000010405060401020301040506040102039D
:100F2000010405060401020301040506040102038D
:100F3000010405060401020301040506040102037D
:100F4000010405060401020301040506040102036D
:100F5000010708090A0B0C0D0E090A07080D0E0FF0
:100F6000100708090A0B0C0D0E090A07080D0E0FD1
:100F7000100708090A0B0C0D0E090A07080D0E0FC1
:100F8000100708090A0B0C0D0E090A07080D0E0FB1
:100F9000100708090A0B0C0D0E090A0708FF8080CC
:100FA0008080808080FE0000000000000080808043
:100FB000808080800000FF0307A70600FF162777C8
:100FC0001700FF132F3F1D00FF1078B02800FF8887
:100FD000E1F0D100FF42C6DF840000000000000005
:100FE00002000000000000020300000000000002F8
:100FF00004000000000002030100000000000304E0
:1010000001000000000203030100000000020105CE
:1010100004000000020401030502000000000000BB
:1010200000030200000000000004020000000000B5
:1010300000010302000000000001040300000000A2
:10104000000103030200000000040501020000008B
:101050000005030104020000000000000201010479
:10106000010000020405030401000002040501035D
:10107000050002030501010503000204010101034B
:10108000010204010101030401020104040302033B
:101090000400020202020202020104010102000035
:1010A0000001040305040200000503010504020019
:1010B000000305010105030200010301010104020F
:1010C00000010403010101040204030203040401FA
:1010D00002020202020202020000000000000202FC
:1010E00002000104020204040400040204040304D4
:1010F00004000204010104030300020401010105CC
:1011000004020505040105010102030303050101B1
:1011100001020404040401010102020200000000B3
:1011200000010101020204010001010304040204A0
:10113000000303040101040200040501010104028B
:10114000000101050104030402010101050304017A
:101150000201010104040101020201010404010170
:101160000102010403050101010204030401050158
:10117000010002040101010505000204010104034C
:101180000300010204040303030004040202040434
:10119000040000000000020202040101040404042F
:1011A0000204040105030303020404050104050508
:1011B0000205050101010402000303040101040208
:1011C00000030303040402010001010102020404FC
:1011D00000020202000000000000020202020202FD
:1011E00002020104040302030402040101010304D6
:1011F00001000204010101030100020305010105D0
:1012000003000002040501030500000204050304B5
:1012100001000000020101040102020202020202B6
:101220000004030203040401020104030101010498
:10123000020103010101040200030501010503028B
:101240000005030105040200000104030504020077
:10125000000104010102000000000000020401037B
:101260000500000000020105040000000002030365
:101270000100000000000304010000000000020360
:101280000100000000000002040000000000000255
:10129000030000000000000002050301040200003A
:1012A0000004050102000000000103030200000029
:1012B0000001040300000000000103020000000020
:1012C0000004020000000000000302000000000013
:1012D00000020000000000000000001555255529FF
:1012E000552A552A952AA52AA9000055545558551E
:1012F0006855A856A85AA86AA82AA82AA02A802A07
:101300000028002000000000002AA80AA802A80067
:10131000A8002800080000000000000000000000F5
:1013200000000000000000000000000000000000BD
:1013300000000000000000000000000000FF0000AE
:101340000000000000000000FF00000000003F005F
:1013500037000037000000373F00000000000000A9
:101360000000000000000000003700000000000046
:10137000000000000000000000000000FF0000006E
:1013800000003F00000000000037000000000000E7
:10139000003F37FF00000000000000000000FF37A2
:1013A0003F00000000000000370000000000003F88
:1013B0000000000000FF000000000000000000002E
:1013C00000000000000000003700000000000000E6
:1013D0000000000000000000003F37000000370060
:1013E0000037003F0000000000FF00000000000088
:1013F00000000000FF0000000000000000000000EE
:1014000000000000000000000000000000000000DC
:10141000000000000000000000FF000000000000CD
:101420000000003F0000000000000000000000007D
:10143000000000003F003F0000000000000000002E
:101440003700000037000F0000000000000000FF20
:10145000003F000000000F000F3F000000000000F0
:10146000FF00000000000000000000000000003F3E
:1014700000000037003F00000000000000000000F6
:10148000000F000F003F00000000FF000000000000
:10149000000F0000370000000000000000370000CF
:1014A0000F000000000000FF000000003F000F00E0
:1014B0000F00000000000000000000003F003700A7
:1014C00000003F00000000000000000000000000DD
:1014D00000FF0000000000003F0F000F00000000B0
:1014E0003F00FF00000000000000000F0037000078
:1014F00000370000000000000000003F003F000037
:1015000000000000000000000000000000003F009C
:101510000000000000000000FFA70FA700A70000C8
:10152000000F00003700000000A7000000000F00BF
:1015300000003700A7000000FFA7000000370000F0
:101540000000000F000000FF0000000000FF00008E
:10155000370F00000000002E0F0F0000A700A70F9C
:10156000A7000000003700000F00000F000000007F
:10157000A700000000A700370000FF0037000000B0
:10158000A700000000000F00002E00FF0000000078
:10159000000F370000FF000000000000FF000037D0
:1015A0000F0000000000FF002E00000F00000000F0
:1015B00000A70000003700FF00003700A700000070
:1015C00000A7000000000F00000F0000370000001F
:1015D00000A70FA700A700000F0F2E0000000000BB
:1015E0000F370000FF0000000000FF0000000F00A8
:1015F0000000000037000000A7FF000000A7003730
:101600000000000F00000000A700000000370000ED
:101610000F000000A700A70FA70F00000F00000099
:101620000000A70000000000000000E20000000031
:10163000E20F0000FF00FF000000000000000000BB
:1016400000000000FF0000F0000000000000E200C9
:1016500000A70000000000FD00A70000000F000030
:101660000F000000000000A7000000000000E200E2
:10167000000000FF00FF00000F000000000000005D
:101680000000E20000FF000000FD00F0000000008C
:10169000000000000000E200000000E20000000086
:1016A000000000000000F000FD000000FF0000E26C
:1016B0000000000000000000000F0000FF00FF001D
:1016C000000000E2000000000000A7000000000091
:1016D000000F00000F000000A700FD000000000048
:1016E000A70000E2000000000000F00000FF000082
:1016F0000000000000000000000000FF00FF0000EC
:101700000FE200000000E20000000000000000A75F
:1017100000000000000F00000F2E00FF0037000047
:101720000000000000000000E2FF00FD00E20000F9
:101730000000000000000000003700E200FD00F0A3
:1017400000000000000000000000000000E20000B7
:101750000000000000000000000000003700FF0053
:101760002E0000000000000000000000E200FD006C
:10177000FF000000000000000000E200FD00E200A9
:10178000370000000000000000000000F000000032
:1017900000000000000000E20000E2000000000085
:1017A0000000000000F00000000000000000000049
:1017B000003700E200FD00E2000000000000000031
:1017C00000FF00FD00E2000000000000000000003B
:1017D000002E00FF003700000000000000000000A5
:1017E00000000000E2000000000000000000000017
:1017F0000000F000FD00E2003700000000000000E3
:1018000000000000E200FD00FFE200000000000018
:10181000000000003700FF002EFF00FD0000000068
:10182000E200000000FD000000FD000000000000DC
:1018300000000000000000000000E20000000000C6
:101840000000000000000000000000000000000098
:101850000000000000000000000000000000FD008B
:10186000FF000000E2000000000000000000000097
:10187000FD0000000000000000000000000000FD6E
:101880000000000000000000000000000000000058
:101890000000000000000000E2E200000000000084
:1018A0000000000000000000000000000000000038
:1018B0000000FD000000000000000000000000002B
:1018C00000FD0000000000000000000000E2000039
:1018D00000FF00FD0000000000000000000000000C
:1018E00000000000000000000000000000000000F8
:1018F00000000000000000E2000000000000000006
:101900000000000000000000FD000000FD000000DD
:1019100000E200000000FD00FF00000000F00000F9
:101920000000DA00000000000000000000000000DD
:10193000000000000000000000F0000000000000B7
:101940000000000000000000000000000000000097
:10195000000000000000000000000000F000000097
:1019600000000000000000DA00000000000000009D
:101970000000000000000000000000000000000067
:10198000F000000000000000000000000000000067
:101990000000000000000000000000000000000047
:1019A0000000000000000000000000000000000037
:1019B00000F0000000000000000000000000000037
:1019C00000000000000000000000DA00000000003D
:1019D0000000000000F00000000000000000000017
:1019E00000000000000000000000000000000000F7
:1019F0000000000000000000F000000000000000F7
:101A0000000000000000000000000000000000DAFC
:101A100000000000F00000000007070706060503AD
:101A20000201020203050607078A8A9393DCDCE5BC
:101A3000E5EEEEE5E5DCDC93930103040003050726
:101A4000008A93DC00DCE5EE00010307474F0FC876
:101A5000003000003000000038444408100010003E
:101A6000080CFEFFFFFE0C083F7FFFF0E0E0E0E027
:101A7000FCFEFF0F07070707E0E0E0E0F0FF7F3F15
:101A8000070707070FFFFEFCE0E0E0E0E0E0E0E032
:101A90000707070707070707FFFFFF000000000011
:101AA0000000000000FFFFFF06060C0810002000E9
:101AB000382844447C828200F844427C4244F80046
:101AC0001E22408040221E00F04844424448F0005C
:101AD0001E2040FC40201E001E2040FC40404000D4
:101AE0003C40808E44281000C64444FE4444C60056
:101AF00038101010101038001E0202C28244380044
:101B0000C68890E09088C600704040404042FE0089
:101B1000C6C6AAAA9292C600C4C4A4B4948C8C006F
:101B20003844829282443800F8848284F8808000AD
:101B3000384482928A443A00F8848284F888860085
:101B40003E40807C0204F800FE9210101010380015
:101B5000C644444444443800C64444282810100075
:101B6000C6829292AA6C44008244281028448200C3
:101B70008244281010101000FE4408102044FE007B
:101B80003844848484887000103010102020700045
:101B9000384404186080F80038440418048478003D
:101BA0000C14244488FC08007C4080F80404F800ED
:101BB0003C4080F8848478007C8404081020400035
:101BC00038444478848478003844443C0484780061
:101BD0003C3C3C3CFF7E3C18FFFFFFFFFFFFFFFF4C
:101BE000FFFFFFFF020003000303020002020001E7
:101BF0000000020002000200000000000000FFFFE1
:101C0000FFFFFFFFFFFFFFFFFFFFFFFFFFFFFFFFE4
:101C1000FFFF3A3F3E7B7D5B5D2C2E5E762141428D
:101C2000434445464748494A4B4C4D4E4F5051520C
:101C3000535455565758595A303132333435363754
:101C400038397C000002030007410000080006004C
:101C50000000F906050000FF000964000A3C0002CC
:101C6000030007410000080006000000FD0C05000D
:101C700000FF00020000074C000008010600000001
:101C8000F907050000FF00FF0009AA000AB40002DE
:101C9000040007600000100106000000F8080500BD
:101CA00000FF00020100073C0000080106000000E0
:101CB000F008050000FF00020400075800000803B8
:101CC00000F00E050000FF0009AA000AB40002049B
:101CD0000007620000100106000000F8080500007F
:101CE000FF00010E00072800001E0100EC0100F8B3
:101CF0000100FC05050000FF00010800073C000092
:101D0000E20100F10100F802050000FF00010200FD
:101D100007280000E20100F101050000FF00FF00BC
:101D2000010E00072800001E0100EC0100F8010070
:101D3000FC05050000FF00010800073C0000E2016F
:101D400000F10100F802050000FF00010200074653
:101D50000000E20100F101050000FF00011600078C
:101D6000500000E20100F101050000FF0002030045
:101D7000070020075A0009B1000A68000848020855
:101D80004702084602084502084402084303084285
:101D900002084103084003083F03083E03083D03CF
:101DA000083C04083B03083A0408390508380308CE
:101DB00037050836050835050834060833020832A9
:101DC0000608310508330208320608310009B1005F
:101DD0000A6F0000FF0508330208320608310508C3
:101DE000330208320608310508330208320608318A
:101DF00005083302083206083105083302083206A6
:101E0000083105083302083206083105050000FFD5
:101E100000020000070021075A0008470108460198
:101E20000845030844020843020842030841020827
:101E30004003083F03083E03083D04083C02083BFA
:101E400004083A030839040838050837030836053A
:101E5000083505083405083306083202083106083B
:101E6000300308320308310708300009B1000A21A5
:101E70000000FE030832030831070830030832036C
:101E80000831070830030832030831070830030817
:101E900032030831070830030832030831070830DD
:101EA00003083304083206083105050000FFFF026D
:101EB000FE03FC06F61717393FABAF8CA68AAA972C
:101EC000233AD720C47613D4B8ACA4959EA457E384
:101ED00001E9BB7F3D572843E1F1A96FFCF60AA356
:101EE0005D57452917CE909B803C0FED649AA29ECA
:101EF000CBF24F613AFE7FCF243189BCD80C3776C4
:101F0000FC8EC683EE3F8DF65678715FF895396C7E
:101F10004C479A13754403CC9AA659F2970AC2BF4C
:101F20004A721DFADCB8BB6DB8F578691AA6A8E646
:101F30000F180622F2E72DF1103663371005D2A5EF
:101F4000C760C62EE58AA4A4DAF8162C6638B63A1D
:101F5000DA4725C9E5E60F1D2E4D62AA13D8162EC5
:101F6000A9C6B2D0ABE3D14E24DA13E04AE7C9C424
:101F7000C2B5B8C1CC38F6F3F7E62AFEFFF6F0D7C3
:101F8000D4B0B834E204FEC0D5E7011A2B464A3C6F
:101F9000C01AEF0149A4B288B2B0F40635A10CFF13
:101FA000E35EE3B9ACAEB90B525769C1FA1A9409B2
:101FB0003B5E5943F1ACC5ECA033E6B230515D460F
:101FC00012B2F253B44650A7A7CF1D363639464C4D
:101FD000545358544F3B11C2970877BFBE62089FB5
:101FE0009EE52F3E404C5A656D73797C7D7B69225E
:101FF000B1CB750A982D5D0BA8849DACA9A8ACB394
:10200000C5DEFE1C2D2800B4A0345DA8C3545A04BC
:10201000AB969F9D939092A1BCE6163C4C4D26CD6D
:10202000A1345FB8B44A4BE6F19EAFAAACBBD3FD76
:10203000385C58341E2A5B72109AF86F40CD8F9A24
:10204000B9C4CEDCFA23515F2ED4A3B0C7BA97A48B
:10205000185C059C9ADE172C36435563684E07B60C
:10206000B7125E5C4950633BD4A9EF446658463CC6
:10207000332004D7ADB2095C23A89DDB02EDB497F1
:10208000BF0B445044352F281C03E1BEC40431FF6C
:10209000E20C1C00EAF5F8E0EC163D4E4E50524DB5
:1020A0003E1AE2B3D3453FB1C8415B340F1B3D53E9
:1020B0005951463F372C1E07E6C1B1E74824AAF123
:1020C0004E15C7A4AEB8B1B1BCCAD5DEEBFA0F2924
:1020D000454D19C0DB5307B717492DF7DCE5F0F282
:1020E000F3F5F8FE051022384C3EF5B5194ACCDE62
:1020F0003C3A07D4CAD3D1CBCAC9CCCFD3DBEB048B
:102100002632FEC9172FD9EC292E0BE5DBDDD9D5F8
:10211000D3D3D2D1D1D2D4DEF61912E0F916FAF720
:102120000709F9E3D6CCC0B6B0AEB0B6BFCBD4DBAE
:10213000E0E30521EAD81F3001D1C1CDD5D5D7DBE9
:10214000E4F2051929323220EDC2014AF3BA034400
:102150004212EDE1DCD2C7BBB6B6C3DBF400F5D06A
:10216000B6F847FDB5EF3C4E2B0AFDF4E6D6C5BBED
:10217000C5E916353C3F3B13CFDB3740F1B9BCDA3C
:10218000EDF2FB0B20373F2AF6CACADEE4D2BDD7F8
:102190001E32FAC6C9E7000A101A26302C13EADEEE
:1021A000FE1D221D1B1A08EDED0717150C0500F783
:1021B000EFE4DCEA132D05CDD70B2C290BDBBCCECD
:1021C000FE222E2C2A27211D1D1F08DDE6342CDEC1
:1021D000B8BBC5BFC2E10B28373E4446443719E7B8
:1021E000C4EE431AB9E2334D4138434739220FFF59
:1021F000F1E2D3C4BBCB053C05B50B40F1BDC2DE5B
:10220000E3D1C3BDBBBAB8B8B8BFCFF32536EBBF77
:10221000282DCDD5103D41383A403F3D39352E224D
:102220000DECCAD5282BC0FC38EFC3CBF10400FF5E
:102230000306070603FCEDD6C2DB2C20BD0336EBFC
:10224000C4D3FF1515181E2427292A29210DE7C8F4
:10225000F641EECD2C21E2BECBE8F2F4F5FC0610FF
:1022600019202219FDD2D62E21C4F53726EFC9C771
:10227000CCC8C5C5CBD5E4F50000ECCBD22527C929
:10228000E52F3508DED4D2CCC6C4CBDDF813232627
:1022900019EECA053EF8C2E31F3A362F2E2A1D0456
:1022A000E5CED2EAFFFFE6C5DA282AE1C1DE0A1E42
:1022B000232A3338341CF2D2D8F609FFDFC3F433B3
:1022C000F9F1DF031F262F32372E0EE0D2FF303513
:1022D0002627362CF7D0E00B272D2E302F2408E2AE
:1022E000D2FE351CDCC5CFD5CDD3F81F2E281C144B
:1022F0000BFDEDD9CDE0152FF3C6F42A39312C268C
:102300000FF1DBD3D2D2D6DEEF0C2926EFCD12347B
:10231000F4CAD3E8E8D6CAC9CDD3D9DFE8F4061F9A
:102320002E16DAE22F16D3DB06222117110A01F945
:10233000F1E9E1DAD4D8F01616E9EB03171AF0E662
:10234000FD0C161C1E1D1E22282C2D260CE4E3213C
:102350001AD9F4252100E6E2E5E1DDDADADBDEE296
:10236000EDFC111F0CE1F624FAE2021F23140B0B03
:102370000A0702FFFDFCFC010B191BFAE20C1BEF24
:10238000E7031C1D13101111100D0B070200030CA5
:10239000160FF0F21508EEF40613130C08070301EC
:1023A000FEFAF6F2F0EEF0F8050BFBF6FF0404027D
:1023B00004080C1011110F08FCF0EBEFF4F7F8F51E
:1023C000FB0C05EDEE0010161412110E08FEF2EAD9
:1023D000EAF3FF0400F6E8EC0A1A04E7E1ECF7FD83
:1023E000020810191D1502EBE4ECF5F4EADEEA0B25
:1023F0001C0BEEE0E3EBF0F4FB06131B11F6E4F12B
:102400000B17161107F4E7EF0211181614110D053A
:10241000FBF2EEF7091202ECEAF1F5F1EEF2FD083B
:102420000E0E0D0C0C0804FFF9F4F6020E04F2F087
:10243000F8FEFEF7ECE4E5EAF1F90209121B2324A9
:1024400015F5E3FD200EEAEAFF0C0D0A0C1013113E
:102450000D0803FAF2E6DDDEF91B15E1E51A20FBB3
:10246000DFD9DFDFDDDBDFE0E5E7EDF2FD0A1C1F92
:102470000CE0EE110FEFF4E02129CDCBE90B181D94
:10248000252A1E21222827271D0AE3CCFF3EE8E447
:102490003A07C5CBF3161A22322F292C33393B3C8D
:1024A0003B3412DAE1380BD0203902D0C4D0D0CE80
:1024B000DCE4E4E7F20211191703DBC80F2FDAE7B7
:1024C000322AF7D3CFCEC4C7D4D6D9E3F70D20270D
:1024D0002713E5C70E2FE2E12F27EBF6D7D8CED48E
:1024E000E5F503222D2913040721340FD3FB341DF6
:1024F000E9D2D3D8D9EAFC0815272B12E4CBD2E1D4
:10250000E2D6DB0E2F05D0CCE6FF11222E2E2C2B8F
:1025100020FFD8DA0A31332D2F3117E3CFF31F34E0
:10252000352F241405FAEAD8DC073317DBD4ECF98D
:10253000F3E3D7E0FE1B29271D120A05FEF3E3E4AF
:10254000021C03F40A0AF4ECFAFFEEF20C1F262731
:102550002827221B0CF2DAE92225E0EC24260E05BE
:10256000101E232B302B2219130E05F5E1D7F42969
:1025700019D6FB2C04D9D1D8D6CFD7E5E7E9EDF3AE
:10258000FA041222290FDCE42803D7133117F9EFDC
:10259000F5F2F0FB0102010308121E2A23FAD50905
:1025A00026E2F12B22FFE7E5E5DCDEE6E6E4E3E503
:1025B000E9F200152004DB031BE2F3222008F2EF0E
:1025C000EEE5E6EBEAE7E6E5E6E9F0021308EAFC09
:1025D0000AF4FC0B0AFBEAE2DDD6D6D9DCDFE4EA3A
:1025E000F1F5F6EEE6FA1AF3E4151BFAE0DDE2E1A6
:1025F000E4EEF3F5FA030E171B1A0FF4DAFA28FECD
:10260000DD06271E05F9F4E7DFE1E0DDDCE3F1FF9D
:1026100004FCE5D4F820FCDDFC1E1F110700F2E8E5
:10262000E6E3E0E7FA101F201F1A04E1EA1A1FFB95
:10263000E4E3EAEFF9070E131A1D11F6E2E3EFF6F1
:10264000F0E6EF0F17FBE4E4EEF8020D131414119B
:1026500002F1EEFE0F1413120E02F5F6030C0E0D2E
:1026600006FFF9F4F1F0F80C1600E7EF0612140B70
:10267000F3DCE1FB121D1F191009080A0D03ECF72A
:102680001D12ECDFE1DFDAE3F80A141B1E1E1D1C2D
:10269000170AF2E2FA250AE1FE1D1F191F2620156E
:1026A0000F0801F9F3EDE6E1E9072100DD0B17EA78
:1026B000DCEAF4EFE9EAE5DDDBDCDDDEE0E8FA1395
:1026C00019F0E0140ADFF0111E1C1D231E18191B3F
:1026D00019161005F4E4F01C10E20D19EBDCEBFC0C
:1026E000FEFF070500FF0000FCF5E9E1F31C09E02F
:1026F0000D15E9DEF003070A13120E0F1113130F65
:1027000003F0E40320F0F21E09E6DEEBF4F5FD052C
:102710000404080D11120CFAE5EE1B09E4071E0A69
:10272000F0E7E6E1DFE6E9EAEDF3FB00FEF2E1ECDB
:102730001708E3001C11FAF0ECE3E0E5E7EBF30027
:102740000C121106EDE2091AF4E7FD12171A1D1812
:102750000E06FBEFE7EDFA0402F3E2F3150CEBE6ED
:10276000F3020B161C1B171305F2E6F1000A03F324
:10277000E20112F7FBF4050A131B1C1811FDEAEB2A
:10278000081C1C1618190CF1E7F408151C1D1A1268
:102790000AFCECEA051D0CEEE6E7E4E3EF04131691
:1027A000130D06FEF9F4ECE9F51117F5E700131621
:1027B000191B1401F2ECE9EAECEFF3FB08150FF03A
:1027C000E70C10F0E9F2F6F0ECEBE8E5E8ECF0F4F9
:1027D000F9030F1505E8F41601E9F80A100E100DBB
:1027E00004FDFCF9F6F3F0ECEEFA0B08F7F8FB0B3E
:1027F00006F7FE05080A0D10100F11131516130425
:10280000F1F3130AED02170BFAF2F1EDEAEEF0EF35
:10281000EEEEEFF3FB071206EAFB12F6ED061613D7
:102820000C0A0902010203010101040A1210F9EE67
:102830000C0CEFF50A130F0D0D090504050301FF3C
:10284000FF01080F0BF6F40C06F2F7050D0C0B0C4C
:1028500008040302FEFBF8F7F7FA020802F6FC0789
:1028600003FDFCFEFF0105090A0803FBF4F3F5F87C
:10287000FBFAF6FF0C01F0F3010A0E0F0E0A04003A
:10288000FBF5F1F3FB040706FDEFEF041105F4EE91
:10289000F1F5FB03090B0E100C01F3EEF2F9FAF55A
:1028A000EFF5071004F5EDECEFF4FC03080E0F074D
:1028B000F6ECF5040E111008F8ECF0FF0C121210F3
:1028C0000B0703FEF7F2F7071107F6EFEFF0F0F151
:1028D000F802090C0B080400FDFBF8F5F7000A06E6
:1028E000F9F7FF0406070704FEFAFAFBFCFDFF00F8
:1028F00003060906FCF3FC0C07F4F2FB020201FDDF
:10290000F7F1EFF1F4F7F9F9F8F6F5FC0A09F3F34A
:102910000C0CFBF0EFEFECECF0F1F0F0F1F3F7FB67
:10292000030B0E00F9F608F30F15E9E7F3040B0F9C
:1029300014130E10121414130F05F2E5FF1FF4F216
:102940001D02E1E6FC0A0C13191514171A1D1E1EB0
:102950001E1A09EDF11C05E8101C00E7E4E8E6E8A2
:10296000EFF1F1F3F901080C0B01EDE40818EDF4B7
:102970001814FBEAE9E6E1E5E9E9EAEFF9040E12E9
:102980001207F1E40817F0F01613F4FBEDE9E5EA9D
:10299000F2F7000F15150B0506121A05E9FF1A0EBE
:1029A000F5EAE9E9ECF6FD020812160AF4E6E8EFAA
:1029B000EFEAEE081701E8E6F3FF091216151516FF
:1029C0001000ECED0518191616170AF0E8FA101A9F
:1029D0001B17100802FEF6ECED03190CEEE9F3FAF2
:1029E000F8F1EBF0FF0F15130D08040300F9F1F1F6
:1029F000000D02F90405FBF8FF00F7FA07101314A5
:102A00001413100D06F8EDF41112F0F4101309056B
:102A10000B0F12161814100C0A0702FAF0EBF91437
:102A20000CEBFD1501EDE9ECE9E7EDF2F2F4F6F956
:102A3000FD0209111407EEF21401EC0A180AFCF960
:102A4000FAF7F9FE0000000104080F1511FDEA0471
:102A500013F1F91510FEF4F4F1EDF0F3F2F1F1F2E7
:102A6000F4F9000A1002ED010DF1F9111002F8F766
:102A7000F4F1F3F5F4F2F2F2F2F4F8010904F5FEE0
:102A800005FAFE0605FCF4F1EEEBEBECEDEFF1F5EB
:102A9000F8FAFBF7F3FD0DF9F20A0DFCF0EFF1F097
:102AA000F2F7F8F9FC01070B0D0D07FAEDFD14FF25
:102AB000EE02130E02FDF9F2F0F1F0EEEDF1F8FF87
:102AC00002FEF2EAFC12FEEDFE10100804FFF7F41D
:102AD000F3F1EEF1FB080F11110E01EEF40F11FEF0
:102AE000F1EFF2F6FC0306090E100AFCEFEFF5F821
:102AF000F5F0F70B0DFBEEEFF5FC030A0C0D0D0BDB
:102B000001F4F2000E100E0E0D06FAF4F9030A0C91
:102B10000C09060402FEFBFD0506FEFAFE0101009B
:102B2000FBF5F7FF070C0F100F0D0800F4F1020F73
:102B300003F7FBFDFAF8F6F6FA030B0F10100F0E71
:102B40000B04F9F1FD1205F0FD0D0F0E11120E0927
:102B50000602FEFBF8F5F2F0F50410FFEE050BF6A9
:102B6000EEF5F8F5F4F4F1EEEDEEEEEFF0F4FD0A2B
:102B70000CF8EF0905EFF8080E0D0F110D0C0D0DF7
:102B80000D0B0804FBF3F3050F0B0402010000FF1B
:102B9000FE04FAFF03FA04051CF8C9111C0300F136
:102BA000B224DFE301DF1217C210FACB11F4F012E6
:102BB000CDF61CD10C19D1F4EBD530F0FF1FC3DCDE
:102BC00013D62618E50FD3CD20EC1230E1DDECCA88
:102BD00026150822EEC1EFDD14350413ECBCED011F
:102BE000123C0BE9EBC8FA11133018D1DAD8F730E0
:102BF0001D1A06D2CDEDF62D270900D0CEFA0D2BE9
:102C000030F3E6DBDD0F152526FAC9DEE1192D1EAE
:102C100011EDC7DCF80F301A02EBCAE207203119B8
:102C2000E1E4DCF915212515E0CCE3FA29291802A5
:102C3000D9CBEB0A1E2F0AF6D9D7F117272B00D7CD
:102C4000E1E9091E271700D3D2F20F2D220DEED491
:102C5000D401172525FBE9D9E8FF272223EBD6E885
:102C6000F911292006F1C8E403172D1BFEE4D2E078
:102C7000191A2B13ECE4E8EC14291E17D5DDF50125
:102C80001D2D0E02DECAFD081D2F0DF1E2CFFC2323
:102C90001B2FFBE5ECECF42B1D22FDCEECFE042FEC
:102CA0001E06F6CFDC11042E2200E9DDD61C1C27FF
:102CB0001DEAE7F8E60E2D1818E4D0FFFA153013D8
:102CC000FFEAC8FC100D3512F2EBD8EB2D1A2C0AD6
:102CD000DEF5F5EA2A270F0FCFE206F9273000F3D9
:102CE000D2CF1903FD22E30E1C18D1F400F60AD945
:102CF000F9FFD8FFDC0C0BD518D6F4FFF10CCAFE97
:102D0000FDD31EE4F2EFDB1DE20E04C30BE0130C57
:102D1000F504BB0500F52EE1EED1E829FC24FCC347
:102D2000EFE321160601C4EFF41636EFF6C8E71BF1
:102D30000D35FFCCDEE1201F1607C9DBEF1E320880
:102D400003C6DC020F3C03E4D8D51717260ECED9F4
:102D5000E9172A1D10CAD1EC123D0A00D6CC040E88
:102D60003415DEE1DE0A202917D7CEE112301B141C
:102D7000D6C8EF0B391EF7E5D0FB162B1EE7D4DFC4
:102D800003202622DDCAE20531230DECC4EA0F261A
:102D900023F8E3DDEC142E26EDD3DCFC222720F013
:102DA000C3E202222A0AF3D2DF10272A06E2DBE678
:102DB00010282AFAD1E1F3172F15FFCEDF0C182EB9
:102DC00018EEDCD406262B0FE5DFE208292011D50A
:102DD000E2FC082F1CFFDECD06182B1FF5E0D3FC0C
:102DE000232320E2E7EAF62E160FE7D10500282A72
:102DF00003E8C9FA17232CF5EED4EF251224F0E0EE
:102E0000FFE82A2511F8C7FE001E3104F9C7F116A4
:102E10001137F7F1ECDE29142306D002E4192C1047
:102E200008C6F9000F39FE08D4E42002340AE5F898
:102E3000D01C1F2017CFFDE60933091ACCF00CF681
:102E40003B07FDEBD11D0A2C1EE3F8D109251926FD
:102E5000D3F9EFF2390417E4DE1BF13321F8F7C799
:102E60000E131F2EE6FADAF32D082AE4EB0BE338F3
:102E70001D07F7C92DEAE8FAF32BFCF0FDF604FA7A
:102E800013D4F9ED0EFBCF1EC004E60ED402F3E41A
:102E900017CF0AC91CD51FD9EAFFE41FE20FB226DB
:102EA000D924F9EBDFEA25F12BC0EFD7270D06EF88
:102EB000C504F63BE7F9C106081E13D0DFE230086F
:102EC00022D9D0EE1726FDF7C3FB033606E5D9F568
:102ED0001A1821D6D9E2231E19ECCCF2073506F9CF
:102EE000CAED092B15E3E3E41A1C27E2CEE714240C
:102EF00010FCC7E5053210F6DAE20E1E1FE9DBE032
:102F0000141D23F7CBEE08291303CCDE032A20F788
:102F1000E6DF091C27F4D8E404232000CFE70128CA
:102F20001F06DCD0032022F9EDD9FB1C2905D3EACA
:102F3000FD1D180DD7D5FF202806EDD50116280B4D
:102F4000E3E0F01C2315D9EDF51A2411E4CCFF14AD
:102F5000300AF4D6F0192717E1EAE4192016E2E066
:102F6000F70D2C14F7C6FF0E2610F7DCDE1823260B
:102F7000E1F1E80D1C1DF4CFFA01311503D4F50A77
:102F80002527F4E6D2141E29EFEEE8FB2D1C05C818
:102F9000FDF82C1A05DADD111B32F6F1D10A1D22DB
:102FA000FFDEF1EA301E13CDFBFD1B2804E9C91436
:102FB0001239FCF4DEF6241F18D1F9DF2D1F13DFC0
:102FC000EA020C3E01F7C1100E2C0CEEE6DB3217C4
:102FD0002ACE00E21D250FF1CC0FFA470201C906E7
:102FE000121F24DFF4CB351431DBF9EE063A070665
:102FF000BA19EF440BFED6EE21133BD7FFC52C16B2
:1030000020EFE502F148FF0FBC18FF1704FC0DFE8E
:1030100007F50E07EFEB00F7FDFFF8E705F9EF0303
:10302000F4FA11F6ED0DF0EB05F9FA07ECF20DEC00
:10303000F60DF4ED09E7FE0DF0FF11E0F709E809E0
:103040000BF005FFDE0406EF1008EFF8F5E60E06BC
:10305000F90F05E0F9F5F31507FA0DF0E205F802AE
:103060001801F6FDE7F40D000D10F8EBF3EF031275
:10307000080A08EDE9FAF60C150301FEE5F503FF71
:103080001310F7F7F2EC0709081302EBF0F1FB124B
:103090000D0A08F5E6F3FA06160CFEFDEEEB020249
:1030A0000D1700F2F6EDFC0D08110DF1EBF2F60B29
:1030B000120C0BFCE9EBF803131406FBF2E9F8031E
:1030C0000B160EF5F1EFF3070D0E12FDE9F0F4010A
:1030D00012100C06EEE9F1FF0D160D00F4EEEFFDF7
:1030E0000C121302EDEFF2FC0C12100BEFEAF1FDE3
:1030F0000A150F09F8E9EEF809131206F8EFF0F5D2
:103100000711120BF5EBF3F70314100CFDE7ECFBC2
:103110000310170700EFEBF3070D150CFAF1F3F3AB
:10312000FF12100CFDEAF0FCFC10160904EFE5F8A4
:1031300002081A0C00FAEBED030A1113FEF4F4F482
:10314000F810110D04EFEAFDFD071A0D02F9E4EF86
:1031500007041417FFFAF3E7FC0E0C1606F3F5F854
:10316000F10B140E0AF6E7F90100181504FCECE562
:10317000040A0B1C09F4F8EAEE110E1213F6EFFB29
:10318000EF00190F0D00E8F003FC101B08FDF4E33D
:10319000F814061A10E70C130F09FDE5050B0001E2
:1031A000EEE909EBFCF1F913EEF708E801FBFC0688
:1031B000E7FF04EB0BFCF0FCEA0206F113EDEE0472
:1031C000EB0F04F506DFF907F81700EDF7E3060F3C
:1031D000FE13F2E5F6EF1413FD07E6EC00FB1D0904
:1031E000F4F6E4FD0B0A1BFBE7EEED0B130A0EE908
:1031F000E5F5FA1A13FFFCE4F100062005F0F0EA09
:10320000030B1117F2E6EEF411120D07E4E9F603D1
:103210001C0DFEF3E5F6030E1DFEEEEEF2080D1496
:1032200010ECE6F0FE12120DFEE2ECFB0A1909FBAF
:10323000EFE8FB071318FAECF0F70A0F1408E9E6B9
:10324000F605141209F8E3EE010E1508F7ECECFE92
:103250000D1510F7E9F3FC0C121202E7E8FE0A1450
:103260001204F3E4F2080F1206F2EDF00211120A52
:10327000F4E9F7000F140CFEE7ED040C1410FEF255
:10328000E7F60E0E1203EFF1F305140B07F1E9FC5C
:1032900001111506FEE6F10A0B160EF8F4E8FC1211
:1032A0000B13FDEDF6F30A140707ECEC02001612FF
:1032B00001FDE6F70C091907F6F7E703130A14F600
:1032C000EFF9F210110606E6F203FF1B0CFFFCE417
:1032D000FE0B0A1CFFF8F8E90B100D12EEF5F9F3DE
:1032E000160D0802E3FA00021E0500F9E404090EB7
:1032F0001BF9FBF6EB100F0F0DEAFAF7F61A0C09A3
:10330000FCE300FE061D01FEF5E60A081117F5FDB7
:10331000F5EE150E1008E8FFF5FA1E0908F5E505AB
:10332000000D1FF40805FB0B0A0BEE00F8FDFFFF74
:1033300005EDFDF4FE0BE809F1F5FDFC02E507EFF4
:10334000FA06EBFFE80AF70204DF09EA0EFB00F7D2
:10335000E111ED11FDF2F0EB15F713F7E5F4F519B6
:10336000000AEDE900FF1AFDF8EBF10D0318F4EA8D
:10337000EEF9190610EAE5F6051E0102E1F1010D6C
:103380001CF4F5E2010C1013E7EBEC0E130D05E253
:10339000EDFA141401F6E7FA07150DF0F0EE090E38
:1033A0001105E3EEF614120AF9DFF4001C0DFDEE30
:1033B000E702091D01EDEAF50F0F15F5E3EE04161E
:1033C0001006EEE6FA0E1808F6EEF1061112F9EC08
:1033D000F3FB120E0BEFE5FA07190B00E7EA0212F6
:1033E00017FEF4E9F90A150EF1EAF406131202E7E2
:1033F000E9020F1608F6EBF10E1110F9F1F4FD13C6
:103400000D07EBF3FB081708FEE3F4051116FFF4B4
:10341000E7FB0F140CF2F1F305150FFFE7F5010EB2
:103420001704F7E3FE0B1113F4F7EB08100D06EC8D
:10343000FEF3100E09F9E802FC180C02F0E7080789
:103440001A06F6F0ED0F0D14F9EFF9F7160D0BED66
:10345000ED05001D0600EAF10E071CF9FAF1F8145B
:103460000713EDFEF60016040AE400FC0A19FF013A
:10347000E100071215F5F9E80411100AE9FEF10C54
:103480001509FFE306FC1414FCFBE50C05150AF214
:10349000FEEB110910FEEF04EF19080BF3ED08FA2B
:1034A0001E0700EFEC0F061CFEF6F4F0180B13F1EC
:1034B000F3FFF7230308E3FA090319F804FA0401F8
:1034C000F2FD0B00EEFE04FF02FFF9EE05FBF8FF34
:1034D000FBF90802F5FF05F2FE00FA0003F4FA0614
:1034E000F6FA05FCF700FBF60601F70601F0FC040E
:1034F000F40408F9FD00F2F807FB000AFDF7FCF7F9
:10350000F60905FD0902F2F6FDF7050900FF02F4D0
:10351000F400FF020E02FCFCF7F40403030905F6B5
:10352000F6F8F60209060504F9F2FAFC030C0702A4
:10353000FFF8F1FDFE030A08FCFAFAF4FE0705099C
:1035400008FDF3F7F8FF08070603FBF1F8FB000A94
:103550000A0100FBF3F80202090A01F7F8F5FA0282
:10356000060707FEF5F5F9FD080A0506FFF3F5FB6A
:10357000FF060A05FDFCF5F6FE03070A03FCF7F754
:10358000FA0306070803F5F5F8FC0309090401F836
:10359000F3F901060A0802FBF7F6FC01080807FC2C
:1035A000F8F8FAFF07090805FDF3F6FD02070B0618
:1035B00000F9F4F6FE05080A03FDFAF8F902070817
:1035C0000802F6F6FAFD010A0803FEF6F3FC02060D
:1035D0000B0802FCF7F4FC04050908FBF8F9F8FCF9
:1035E00009080705FBF4FBFE00080A0502F7F4F9D9
:1035F0000101090C01FEFBF4F80507080B01F7FABD
:10360000FAF904090507FDF4FAFFFD070D0503FEAD
:10361000F2F60202050E05FCFBF7F50108050B03A7
:10362000F9FAFDF7030A060804F4F6FFFC000E079A
:1036300001FEF6F20103040C09FEFDF9F4FD090494
:103640000C07F8F706FBF905FF0705EFFD0901FE7A
:1036500000EEFE02F502F50008F6FB05F1FFFFFBA8
:1036600003FBF407F8FC05FAF9FFF30402FB08FC7E
:10367000F002FA010AFCFFFEEF0300FD0B02F5FA6F
:10368000F2FE0A000703F2F6FAFB0B060202F1F45F
:10369000FE000B0BFBFBF6F60403090AFDF2F6F63F
:1036A000070A0607FAF0F8FB040D0501FAF0FA0024
:1036B000060E05F7F9F3FE06060B04F6F3F7FD0C0C
:1036C000080701F2F2FB010A0B01FEF4F5FE030B01
:1036D0000CFDF6F7F704070A07FCF2F5FA040C07ED
:1036E00006FAF1F500070D07FDFAF3FB00090B08D8
:1036F000F7F6F7FD07090802F7F1F9FF080C0600D5
:10370000F5F2FA06090C01FBF7F7FD060B0901F3C8
:10371000F7FA02090A05FDF3F4FF030A0A03FBF4B2
:10372000F401090A09FCF9F8FA000A0805FBF2FAA3
:10373000FE050B0701F9F2F904030C06FEF7F6F893
:1037400008080A05F8F9FBFB070B0503F6F4FFFF71
:10375000080B04FDF7F20204050D01FBF9F6FE0B60
:10376000050BFEF6FDFBFE0C060300F1FA01FF0D52
:103770000800FCF3F709000B09FCFBF9F507080743
:1037800009F7F800F8060B0204F9F203FC050E0233
:10379000FFFAF10206020F01FAFEF5FC0C030B031F
:1037A000F3FFFCFB0D050202F2FA04FA0D0900FE1C
:1037B000F5F50A01090BFBFEFDF40509040BF9F60A
:1037C00002F7040C0204FBF103FE001003FFFBF2FE
:1037D000FE0C000F01F70C040506F3FDFFFE01F6D9
:1037E000FEFFF500F60302F505F5FCFFFC03F2FF12
:1037F000FFF407F9FCFBF607F80300F102F80403F5
:10380000FD01EE0100FE0BF8FBF4F90AFE09FEF0E3
:10381000FBF808060100F0FBFC050DFCFDF2F906C3
:10382000030DFFF3F7F808070501F2F6FB070C029A
:1038300000F1F700030F01F8F5F505050903F3F6AC
:10384000FA060A0703F2F4FB040F02FFF5F3000483
:103850000C05F7F8F702080A05F5F3F8040C06055D
:10386000F5F2FB020E07FDF9F3FE050A07F9F4F87D
:1038700000080908F7F2F8010C0903FBF1FA030943
:1038800008FEF8F7FA050B09FBF4F7FE080A07FC37
:10389000F0F800080A02FCF4F704090A01F8F6F946
:1038A000040A0AFEF4F8FC050B05FFF3F703050B09
:1038B00005FBF7F501090A03F9F7F8020A0804F510
:1038C000F8FF010B06FFF7F301060A07FDF8F4FF06
:1038D000080808F8F9FAFD0B0503F9F401FF090AD5
:1038E00000FAF2FE05080BFDFBF5FB090409FCF8E4
:1038F000FFFA0A0904FEF1FFFF070C00FEF1FC05C8
:10390000030DFDFCFBF70A040801F300F9060A04A5
:1039100002F1FE00030EFF02F5F808000D02F9FEA9
:10392000F307070805F3FFF9020C0206F2FC02FD9B
:103930000E01FFFBF407020B07F8FEF4020906096B
:10394000F4FEFCFC0E0105F9F706FC0C08FEFDF286
:103950000304070BF9FEF6FC0B010AF9FA03F70D55
:103960000602FEF005FF090DFCFEF50003FD03FC59
:1039700003000303F8FA030002FE01F8F805FCFC5B
:10398000FFFDFC0402FAFE04F9FC01FFFC02FFF853
:10399000FF03F9FE03FFF900FFF90204FB0004FC3A
:1039A000F70100FA0404FCFF01FAFA0301FD050324
:1039B000FBFCFEF9FD0501000401F9FAFEFB00061F
:1039C00002FF01FDF7FC00FD030602FDFDFBF9FF10
:1039D00003000405FFFBFBFBFC0305020302FCF8EC
:1039E000FBFD0005050100FFFAF9FEFF020504FEDC
:1039F000FCFCFAFD0202040401FAFAFBFC010403D8
:103A00000302FEF8FAFEFF04060200FFFBF9FD01C7
:103A100002050500FDFCFBFC0104040402FDFAFBA9
:103A2000FCFF03050301FFFAF9FCFE02040501FE99
:103A3000FCFAFC0001040503FDFBFBFC000303048E
:103A400003FFFAF9FCFF0205040200FDF9FBFF0287
:103A5000040502FEFDFBFBFD01040403FEFBFBFC71
:103A6000FE0004050300FBF9FBFF0103050300FD55
:103A7000FAFAFE0203040400FDFCFCFD0104040349
:103A800001FCFAFDFEFF04060300FEFAFAFE010146
:103A9000050500FDFCFAFC0103030502FCFBFDFC2F
:103AA000FF04040303FEF9FCFFFF0206040100FB10
:103AB000F8FE0202040601FEFEFBFA000402040402
:103AC000FDFCFEFCFC0305020300FAFBFFFFFF0602
:103AD000050100FDF9FC0201020704FEFDFDF9FEEF
:103AE0000403030500FAFDFEFB0106030202FCF8D5
:103AF000FE00FE0506FDFB05FF04FDF900FDFF00CD
:103B0000FEF90101F901FEFC03FFFA03FFF901FED2
:103B1000FD03FDFA04FCFB04FEFB02FBFB05FBFFBF
:103B200005FAFA02FAFF05FD0001F7FD03FB0304A5
:103B3000FCFDFEF70103FE0403F8FDFDFA0503FF9B
:103B400004FEF7FFFDFE0702FEFFFAF90100020680
:103B500001FBFCFAFD03030304FDF9FCFB01060273
:103B60000100F8FBFFFF050500FEFCF9FF0102065E
:103B700003FCFAFBFC0204030300F9FAFDFF050550
:103B80000100FCF9FEFF030602FDFCFAFD0102053F
:103B900004FEFAFAFC0104040300FBF9FCFF04062E
:103BA00003FFFDF9FB00020505FEFCFBFB0003041F
:103BB0000501FAF9FBFF04050401FCF9FAFF03050E
:103BC0000500FDFAFAFE03050601FBFBFBFE0305FB
:103BD0000503FCF9FAFE02050503FEFAF9FD0205EC
:103BE0000603FDFBFAFC02050504FDF9FBFD0005DB
:103BF0000504FFF9F9FD0104060300FBF9FB0104CC
:103C00000604FFFAFBFBFE05050401F9F9FDFE04BD
:103C1000070301FBF8FB0002060500FCFAFAFF04AB
:103C2000040501FBFBFDFC04060302FCF8FDFF009C
:103C3000070501FFF8F90001040701FDFCFAFC0487
:103C4000030503FCFAFEFC01070302FEF8FB01FF7B
:103C5000050700FFFBF7FF03020703FCFDFBFA0368
:103C6000040305FEFAFEFDFE07040200F9F9010057
:103C7000020802FEFDF7FC05010506FDFCFDF8004B
:103C800006010501FA0105FCFE03FEF90103FF0030
:103C9000FBFA02FAFFFCFE04FBFD01FA00FFFF0144
:103CA000F9FF01FA02FFFBFFFA0001FC04FBFB0134
:103CB000FA0301FD01F7FE01FE0600FBFDF801031A
:103CC000FF04FCF9FDFB0504FF01F9FB00FF0702FF
:103CD000FDFDF9FF020206FEF9FBFB02050203FAF5
:103CE000F9FDFE0604FFFFF9FC00010801FCFCFAE7
:103CF00000020405FCF9FBFD04040301F9FAFD00D0
:103D00000703FFFCF9FD010307FFFBFBFC020305B2
:103D100004FBF9FCFF040403FFF8FAFE020602FEAE
:103D2000FBFAFE020505FEFBFCFD02040501FAF9A3
:103D3000FD01040402FDF8FB00030501FDFBFBFF90
:103D4000030504FDFAFCFF03040400F9FAFF020472
:103D50000400FCF9FC02030401FCFBFC0004040267
:103D6000FDFAFEFF030503FFFAFB01020504FFFC59
:103D7000F9FD03030400FBFCFC01050202FCFAFF51
:103D800000040501FFF9FC02020503FDFDF9FF0433
:103D90000304FFFBFDFC02050101FBFA00FF050423
:103DA00000FFF9FD03020601FDFDF900050205FD16
:103DB000FBFEFC04040101F9FC00000603FFFFF810
:103DC000FF020207FFFDFEFA02040304FBFDFEFCF6
:103DD00005030200F8FE0000070100FEF9010203DE
:103DE00007FEFEFDFA04040303FAFEFDFD060302CE
:103DF000FFF800FF010700FFFDF902010405FDFFC8
:103E0000FDFB05030401FAFFFDFE080102FDF901B7
:103E1000FF0207FEFFFBFA04020402FC01FFFF00A1
:103E2000FDFE01FFFFFB020001FE01FFFBFD04FCA4
:103E3000FFFEFFFC0200FFFB03FEFDFE02FDFF0094
:103E4000FFFB0101FEFD02FFFDFE01FCFE0200FD85
:103E50000102FCFC0000FC020100FD01FDFCFE0370
:103E6000FD020102FBFFFDFEFC040001FF03FBFD60
:103E7000FD00FC030102FE02FDFDFC01FD02020348
:103E8000FE00FDFEFC02FF020103FEFEFCFEFC0143
:103E900001020002FFFDFCFFFE0102030000FFFD26
:103EA000FCFF0000020300FEFFFDFDFE0100020218
:103EB00001FDFDFCFEFE0201030001FDFDFC00FE14
:103EC000030203FE00FDFDFC01FF030202FEFFFCF6
:103ED000FEFD0100020102FEFEFCFEFE01010301E7
:103EE00001FEFDFCFEFF01020201FFFEFDFDFF00E1
:103EF00001020200FEFDFDFEFF0102020100FDFDC8
:103F0000FDFFFF0202020100FEFDFCFF00020103B3
:103F100000FFFDFEFD0001030102FFFEFCFEFE01AD
:103F200001030101FEFDFCFEFF0101030100FEFE95
:103F3000FCFEFF0201020100FDFEFDFE0002020187
:103F400000FFFCFEFF0000030201FFFEFCFDFF017D
:103F500001020200FEFEFDFDFF0201020200FEFE64
:103F6000FEFEFE0202010100FDFDFF00FF02030153
:103F700000FFFDFCFE0100010302FEFEFEFDFD014F
:103F800002010102FEFDFEFFFD0002010101FFFC36
:103F9000FE00FF00030200FFFFFCFD000100020322
:103FA00000FEFEFEFDFF02FCFE0102FDFC01000022
:103FB000FF00FBFE01FCFF00FD0002FDFE02FEFC17
:103FC00001FFFF01FFFC01FFFC0101FDFF00FCFF01
:103FD00001FDFF02FEFC01FEFE0300FF01FEFB01EE
:103FE000FFFE0201FDFEFFFCFF02FF0102FEFCFFDF
:103FF000FDFF03010001FEFBFEFFFF0202FFFFFECB
:10400000FCFE01000203FFFDFDFCFE01010102FFB9
:10401000FCFDFEFF02020101FFFCFDFFFF020301A8
:10402000FEFEFCFD0001020301FEFDFDFE01020299
:104030000200FCFCFDFE01030200FFFDFCFE00018E
:104040000302FFFDFDFD0000020201FEFDFDFD007B
:1040500002020201FEFCFDFF00020201FFFDFCFE68
:10406000FF01020200FEFDFDFF01020202FFFCFC57
:10407000FDFF01030200FEFCFCFE00020301FFFE47
:10408000FDFDFF01020201FDFDFDFE000202020036
:10409000FDFCFE0001020201FFFCFCFD0001030229
:1040A000FFFEFDFDFE02020202FFFCFDFE00010319
:1040B0000200FEFCFDFF01020301FFFEFCFD000209
:1040C000020300FDFDFDFE00030201FFFCFDFFFFFA
:1040D00001030201FFFCFCFF00010302FFFEFDFCE7
:1040E000FF02020201FEFDFEFE0003020200FCFCD4
:1040F000FFFF00030200FFFDFBFF01010302FFFEC3
:10410000FDFCFE02010202FEFDFEFEFE03030101B4
:10411000FEFBFE00FF020300FFFEFCFE01000203A7
:1041200000FEFFFDFD02020103FFFCFEFFFD020396
:104130000001FFFDFF02FEFE000101FBFF0200FF88
:1041400000FBFF00FD00FDFF02FDFF01FCFF00FE84
:1041500000FEFD01FEFF01FEFEFFFC0000FE02FE70
:10416000FC00FE0002FE00FFFB0000FF0200FDFE5F
:10417000FCFF02000100FCFDFEFE02010000FCFD50
:10418000FF000202FEFEFDFD01000202FFFCFDFD3C
:1041900001020101FEFCFEFE01030100FEFBFEFF29
:1041A000010301FDFEFCFF01010201FDFCFDFF0317
:1041B000010100FCFCFE00020200FFFCFDFF00020A
:1041C00003FFFDFDFD01010201FFFCFDFE010301F6
:1041D00001FEFCFDFF010301FFFEFCFE00020201E7
:1041E000FDFDFDFF01020200FDFCFEFF02020100D9
:1041F000FDFCFE01020300FEFDFDFF01020200FDC9
:10420000FDFE00020201FFFCFDFF00020200FEFCB9
:10421000FD00020202FFFEFEFE00020201FEFCFEA5
:10422000FF01020100FEFCFE01000301FFFDFDFE97
:1042300001020201FEFEFEFE01020100FDFDFFFF84
:10424000020201FFFDFC0001010300FEFEFDFF0272
:104250000102FFFDFFFEFF03010000FCFE00FF0363
:104260000200FFFCFD02000202FFFEFEFD01020152
:1042700002FDFEFFFE01020001FEFC00FF01030043
:10428000FFFEFC0001000300FEFFFDFF0200020034
:10429000FCFFFFFE03010000FCFE01FE030200FF25
:1042A000FDFD02000202FEFFFFFC0102010201000F
:1042B000FF00FC00FDFFFE01FE00FFFE00FF00FF0F
:1042C00000FF00FF00FFFFFFFF00090A09090703C5
:1042D000FEFAF5F4FB0707F9F4FB0000FBF6F6FD28
:1042E0000609090707060300FCF8F6FB0809F9F5BB
:1042F000FF0709090702FBF7F6F7FAFBFDFDFBF9DB
:10430000F9FF060404FDF90409060303040708087D
:104310000605050502FFFEFAF5F70307F8F807059D
:10432000FAF5F5F5F5F6F8FAFCFCFCFF0203060BCE
:1043300007FBF60504F5FE090601FEFDFDFEFF0084
:1043400000FF00030404080902F7FB07FCF703075A
:1043500001FDF9FAF70426202716F8FEFCF0050700
:10436000070EF80BF2E00AFE1317F203DEE004EE8C
:10437000461DEC05C8F001FF3C06F9FFC3FFF7112D
:1043800041FD09EDE912F22D39F108C0C404EB47F3
:104390002BF8FFACE00D00662FF6E89EF0F81D57F5
:1043A0000408D3B003013E48F809AFD117075F3ABC
:1043B000FFE99DC6F8145620F9D29EDB0335551E41
:1043C000FEBF9D062B505A1AE5A9ADE31F4E430DC3
:1043D000D0B0C0FC43593FFABBB3BA2B5D4940E3B0
:1043E000AEAEC62D5A5738C3A5A5CB3E475025B80B
:1043F000B3A3E479615605A6BDA9175E4652D8A7B6
:10440000B9B13A595147B5AFABC853727523A3B28E
:104410009EE5624961F99ABAA617624452D3A4B7DD
:10442000B5395B534ABDC6DAD042495B29ABABA173
:10443000E64A465103B2B7B7155B584AE8AAA5C287
:104440002C555458EFB2B6E5375B5215CCA6B7F1F0
:104450002F5334F8C5AACFFC3D6220EDB3A1E02A6A
:10446000644908EAA7ACF008523B07F5A2C8051C4E
:10447000591C03E8A8F20C524C07E8CCF70352335E
:10448000F6D6A9FFF7592BFBCFA803FD5C3909CE5F
:10449000BD0AFE540103C0C90E0547FC13C1DA264C
:1044A0000F43F710C8F2021438F50ECBF6F21329B9
:1044B000F228E303F40C0DF500E104F90F09010201
:1044C000F506FD24030201F7FF07FAFAF8FC04F3EE
:1044D000FCE1FAF60E360300D9FEF32214F1FDD406
:1044E0000FF02B07F9EAC304EF36232BE4CD0DF4CC
:1044F00045070ECDC40A055A0310C3D5060D51F366
:104500000CDADD001D4FFA06A8DBF7315003F5A5E4
:10451000E708474CFEDC9808194A3F01D3A2DD0E9C
:10452000544204C5ADE62A5D40F6AEAEDF567C4689
:10453000F7B0ABD942524BE1B4B2EF534C41C3AEEA
:10454000AEFA544640DBC89C0B5D5541AFB9A21A88
:10455000544C2B9EBFA72E4B5723A4BFAB444B6696
:1045600034A3AFAB46475DF9A9B5BD4A4C5DE3A1A5
:10457000A8CE4F454CD3A7A5E2496D68D2B2B2F997
:10458000475139D1A4B2034E5726D2A8C009495089
:104590000FCF9ECC107D5F02D4A1E40C5139FCD02A
:1045A000A1F30A5B2F02D1AD01095C1AFEF3CBFC2B
:1045B000065E0E05C0C2030555FA07B9D4020C4EBB
:1045C000F513B801201540EB0DBEFDFB1E2EF407C0
:1045D000C501F61D1EF703D408014513FFFADE06D8
:1045E000FC190900FEF006FC0CFE01FCFFFF03FEB7
:1045F000280C0308FA00EE05FC110BFCFFDF07F4A2
:104600001E06FDF4D60B1B380302E9D40DF63FFE5F
:1046100008D8D40AFF4AFA0AEADD01084EF60BB8B8
:10462000E1FF174EF807ACE7FF2D7202F79FE7FB9B
:104630003D46FDEB9CE9014E41FDD99D1013533CD5
:1046400001CDA8EC185735F9BAA8E62358381ABF97
:10465000A9E7355437E2ACAFF14B563BD0A8AEF8E2
:10466000795F3BC2ABA8055A4C13B8C2135125C1A0
:10467000B71D4E3BD1A6EC4D46E0A0D7465109B739
:10468000C23D5E0DA4B724641CAFA9117F3CB7A046
:10469000F96140D094E64F54E1A0F24A5D00A2C413
:1046A0002C5E0FB2B11F5631D5AC0D5732CEADFADC
:1046B0004B3CDAAFDF514FEDBCD82A4104C0D019D2
:1046C0003809C7EA123014D6D0FF2C1AECDAFB1DD9
:1046D0001D14DDF61B14F5E6F40E13060EFD060B95
:1046E00005030005FB0A09FD08F2F20A17FCECFFBE
:1046F000071E10EEE8062A1702E7FC3026F3C7E98A
:10470000273B02C1E72638FCBBCA155514BCBF0CB9
:104710004F23CFB20F5D2AD4AEED4349E9A4EC405C
:104720004BF19BC32E5B01B3C7246A22B7A50C5F74
:1047300045C195FE614DD793E34C55EB94D3456746
:104740000CA2C5336622ABAE1A6434B9A505533A40
:10475000CAA3F74C4CE8ACE83947F2A9D5274C116D
:10476000BDCE18431AC9CF12422BDED2052D24E448
:10477000D3FF2931FCDCF3112303E4F810220DEC04
:10478000F4000E07F2FD030307FA01FEF901FF082A
:1047900006F60309170BF0E601161400DCFD1E1DDA
:1047A000F1D4F0214003CDE8203B02CDD228540FB4
:1047B000C9C00C4827CCB4185235DAADF34A4BE5E2
:1047C000B8EE3E57F6A7C6325509C1BC1E5F22B6E9
:1047D000A30D5840C795F95946CF99E2596BE89F08
:1047E000D44259FEA2B7447010ACAD1E5D26B4B1E0
:1047F0001D5836CAA8F75645DFA1004E44EDAEDB82
:10480000324AFDB6C7204215E1C40E3F1AD4C8078C
:104810003721DFD1F0383EEED6ED1C1EF8D9E91075
:104820001901E105140C07F0F7FF0A02FCF700FF7D
:10483000001C06FBF6F0FF0603ECECFA1609FAFD85
:10484000F81E19EFD9F32022F7CBE4154316C5D88B
:10485000153E12CFCA10431CCFBC1C4C2CEEC1C35A
:104860002F332FF1C2CFD7361E4804CCCCE93328E2
:1048700036DECAC9F83B2C2ED4D4C40F52281ED21F
:10488000D2D10E353318D1CCD5152E2F04E3EEDA64
:1048900014302F06DCCDE7102F24FCD6C6F01047CD
:1048A00042F7D6CBF90F391400D7D8000F360701DD
:1048B000CFEB271138FD00CBEBFF172FFCFFCBF020
:1048C000FC152BF718EEF8FC1E21FAFDCC00F722A0
:1048D00015FFFDDA08F9210AFFF3E635011AFEFE9D
:1048E000F1E801FA170105F9F8080012FD02F2FBE0
:1048F000022817F905000302030003FF05FFFEF974
:10490000F200F70CFC08F20827FD17F502E8F1FEAB
:10491000FD19F503DFF0FC031FF609DEF6043E2A5D
:10492000F302D3FFFF1E24FC02CE02FC271DFCF481
:10493000C6FDFD301400F0F216F9351301E0CFFD8D
:10494000083813FDD7CEF80E3B13F6D2D8F9173539
:104950001103FCE0FE263517ECCCD801292C15E21A
:10496000CBD20D302E0ED3CCD411322E30F3D1D683
:104970001F313203C7D5D4252C39FCC7CED52D26FF
:1049800034ECC7CCDF352F65F4C7CBEC392434DDEC
:10499000D2C8F435272BD0D0C401353123E9FAC56C
:1049A0000B333417CED0D215353313D2D1D5162CC4
:1049B0002D04D1D40A1C312E00D0CAE81B3427FCA8
:1049C000D8D0F7173515F8CFD5F83C490EFECDDA1B
:1049D000FD183809FFCEE8011A2FFDFCCDEF031CAE
:1049E0004920F8C7F5FD2325FDFFCD02F82214FB71
:1049F000FBD205F22D2FFCF2D90AFA270503F1E2CA
:104A000005F71EFC07F0F527FD1CFD07F2F801FE77
:104A10000DF800F0FAFE01060729FAFC0002FDFC81
:104A2000FC01FDFEF8F7FFFB0AF9081AFA0302156C
:104A3000F704EEF8FD021AF908E2FCFC1141F90353
:104A4000D6FCF8131BF802D200F62317FFF9D8287A
:104A500004180100F703090BFAF6FA0C08020BF52B
:104A60000B17FFE9EC0C1604E1E9022C24E1E0014C
:104A70002517EBD7F9281CEFCE0B3623FBCFE91D0A
:104A80003000D0DB17340DF2DC093717DCC70235F4
:104A900027E1CAF33B4BECC4E92B36F7C5DC2639DA
:104AA00007C1E6303613CECE0C3C1EDAC8FD3822E4
:104AB000FDD3EC312AF2C6EA2332FBCFEB1B3007E1
:104AC000D1DA0E310EE7DD022A13E4D4FC221FFDF9
:104AD000D8F41A1DF9E0F2142805E2EE091700EDEA
:104AE000EB0C1E05F2EE000F08F8F1090903FEF9C0
:104AF000000204FE0709F9FBFC0402FAF3FE180D9C
:104B0000FAEFF50A0E00E9FB141707E8E8051D0C9B
:104B1000EDF1032011EADAFC2224F6D6F51F29FC78
:104B2000CFE61A3109D0DC123211D2D30C3621DC97
:104B3000CD02342AE3C4F42E33F1C4E92839FEC48B
:104B4000DF213E0BC6D3153E18CECC0A3D26D9C672
:104B5000FC3530E6C3EF2D35F2C5E72337FEC7DD60
:104B600018370CCFD80E3518DAD4023022E3D3F838
:104B70002523ECD4F21C26F7D9EE142604E2EC0B24
:104B8000200AE7EC081A0BECEE01140BFBF00914F9
:104B90000800F7FF0504F9FC0E00FC0204FFFAFA16
:104BA000FC130FFDF9FB0D0E04F1FC171506EAE9E5
:104BB000081A07EAF506190FE9DDF71E16F7E2EF06
:104BC0002023FBD7EA19270DDADC123010D5D505E2
:104BD000381DD6CCFD3120E3C8F83F2FF0C5E42BBB
:104BE0003BF7C3DD253807C7D0133A10D1DD0D3DA3
:104BF00022DBC7FD392AE7BFF0303B00C0E3243396
:104C0000FBC8DC1C390AD4D21C3B0DD9CE032F1FA4
:104C1000E5D0F82720EEE6F92127FADCEC171E0094
:104C2000DFEC10261BE9E704180CF0EC02170DF777
:104C3000EA051A05FBF3FE0506FCF9FB0201FC0B75
:104C40000BFD04FB01150DF2DDFC001E10FDFEEC5A
:104C5000FB09200DFDE5E3FC0F2210FBE6E6FF1249
:104C60003316EFE3E8FE161F11F0E2E6041D2010F4
:104C7000ECE2F9141B1E0BE3E0E10E1F1B06E2E65B
:104C8000E2111A1A12E8E0E518191FFCDFE5EA2123
:104C90001A20F2E1E5E932271FF0E0E0F221171FC8
:104CA000E9E4DFFC211B1CE7F1F5FF231912E5E71E
:104CB000E1071B1B0AE4E1E4081C1A06E5E1EF2901
:104CC000231801E9DFEF0D2117FFE5E0F40B1D11BB
:104CD000FAE6E0FB083619FCE7E5FE0B2105FEE3EA
:104CE000EBFE0A1EFEFDDDF0FC0E180A15DEF9FBD8
:104CF0001018FCFDE1FFFC110FFAFCE100FA130BA8
:104D0000FC020209FB1605FEF8EE04F9120203F894
:104D1000F202FC0DFDFFF6F501FC1C1401F9FA008E
:104D20000105FB00FD010000FFFFFE00FDFEFBFB97
:104D300001000801051504FE000DFD01F3F8000057
:104D400010FC05F1FC010311F803E8FBFB09110954
:104D50001DE6FDFB0F11FC00E302FD170FFCF9E15E
:104D600002FD1C0DFFF3E000001F2212EBE4FE0425
:104D70001F09FFE9E5FD08220AFFE3E7FB0F1F0C0F
:104D8000F7F0FFFF171F0CF3E0E7001A1E09EBDF37
:104D9000E6041A1C0AE9E3ED27231E08E3E3E41105
:104DA0001E1F00DFE6E91A1C22FDE1E3EB1C2F2C9D
:104DB000F1E0DFED1F1A20ECE2E2F31F161DE7E23F
:104DC000DDF9201528F8E0DEFF211B19E1E5DF0BF6
:104DD0001B1D0FE5E5E60D211B16F6E3E8101D1C73
:104DE00000E3E3EE0E1E1AFEE1E2EF1C3114FCE4D8
:104DF000E3F80F1F0FF9E1E4FD111D0DF9EBFBFCCA
:104E0000102006FDE1F000121E01FDDFF3FE10256B
:104E100010FAE1FBFC1312FCFBE0FFFC170FFEFC99
:104E2000E10D0F150700F8E604FD1701FFF4EC0390
:104E3000F915F90B07F401000FFFF6E8FF0E0FF963
:104E4000EDF90A160AE9F8050DFDF5F7070B03F66B
:104E5000F51112FEFCF7020305FD00FF02FE001033
:104E600002FBFEFE04FFFDF9010306F8FD0D080B31
:104E7000FFF4FA080DFDF1F20A0D0FFAED07130920
:104E8000EFEB011710F3E9FB2718F2E5F61719FE0F
:104E9000E4F0101C00E5FC0F210BE6E405200DEA10
:104EA000DE0A2612EFD9F71B1DF4E0FE1921FDDC06
:104EB000E9112202ECEB0A230AE6E0072118F5DBF0
:104EC000FD1D16EFDCF61A28FCDEF1121FFEE3E7EB
:104ED000142602E7E6071909EAE70E190DF3E9FEC1
:104EE0001111F6F3FF0B12FBEFF60C0E02FDF505A8
:104EF0000C01F5F403070F00F4010505FCFDFD07A7
:104F00000EFEFF000006030103FD02010106FBFC8B
:104F1000010509FBF8FE040BFDF4FB040F02F2F897
:104F2000041308F0F302130CF2F0FF1414F6ECF97A
:104F30001219FAE8F40E1D01E9EF092008E7EA0565
:104F40002110EBE8FF2017EFE4F81C1CF4E3F41841
:104F500021FAE3EE102303E4EA0B250BE7E6032333
:104F600011EBE3FC1F18F1DEF32621F6E0EE161C30
:104F700000DEF01A1C06E5E7071B0AE9F205181126
:104F8000F0E7FA170FFFF3F61211FDEAF509110C1D
:104F9000F1F3070E03F1F501160CF4F6FE0904FC1B
:104FA000F7011204FEFBFD010000FC0904FB0201F5
:104FB00003FBFBFA0811FCF8FB060AFFF4F41112DC
:104FC00002F5F2040E08F1F40C100EF4EBFB1310D2
:104FD000F7E6F612160DE9EE101902E4EB0A1F08C7
:104FE000E9E30B300FEBE0FE1E15F0DDF81A1DF3C0
:104FF000E7FE1421FBDDE8122205E0E40E221DECA1
:10500000DB052215E8DDFB2118F2DBF72D1FF7DEAB
:10501000EE161DFFDEEA0D2104EBF5071F0BE9E399
:10502000001A0EF0E3FC131E02E2F91015FBEBF37D
:105030000C14FEF4FA1907FA03FD07FE02FBFC004C
:10504000000700FFFAF6110E09FE01F5FBFF020B47
:10505000FC01F1FBFF030EF911FDFAFF080CFDFF47
:10506000ECFFFE0D0AFDFCEB01FB1F19FCFAEB0047
:10507000FF130700F4EDFE03140600EFFD0E021609
:1050800004FEECF0FC0B1108F9EEEFFF0B13060E1B
:10509000FAEE010F1208F3EDEF03101106F0EDEF39
:1050A00006121006EAFD0509111103ECF0EF0F0FCF
:1050B00013FEECEEF1100E13FAECEDF82C1113F7D1
:1050C000EDECF7130F12F3EEEDFC140E11EFEFEA17
:1050D00000112719ECF0EC04111108EFEFEE0611A6
:1050E0001205F0EEF106120E1105EBF606120E0097
:1050F000F0EEF708110CFDF0EDFC071408FEEEEFE2
:10510000FD151E04FEEEF2FF081402FFEDF5FF0888
:1051100011FFFFECFAFF0A0FFDFFEB010E100BFE73
:10512000FEED00FD0C07FDFDEF02FD0D04FEFCF29F
:1051300003FD0D0101FA000FFD0AFE01F9F901FF5F
:1051400008FE00FAFC01FF05FD00FBFEFF0001FF69
:10515000010E07FF00FF00FF01FF00FEFD00FE053E
:10516000FE01FBFC0000060210F8FCFF0109FD0235
:10517000F5FDFE030BFC02F0FEFD0709FD00FD0539
:10518000FB0B08FEFDED01FD0F07FFFAEE00FE111F
:1051900006FFF7ED0B0B1106FFF3EFFF031404FFFF
:1051A000EFF1FE081405FCEDF2FD102105FAEBF21B
:1051B000FF0E1106F5EDF103101104F3EDF2041EDC
:1051C0001503EFEDF009101101EDEEF10C101200D6
:1051D000EBFBF70F1013FBECEEF4120E13F7EDEDF3
:1051E000F7140D1FF8EDEDFB140E11F0F0EB0013AA
:1051F0000F0EEDF0EA10180F0BEDF0EC0711110691
:10520000EDEFEE09101201FAF5F10C1011FFEFEDC0
:10521000F60A110EFDEFEDFA091D12F5EEEF0B1374
:1052200005EDEF041607F2EA09180AF5EBFC100E7B
:10523000F9ECF90D10FCF8F9091000F0F3070F056F
:10524000F3F3011011F6F3000B08F9F4FC0907FD64
:10525000F3010F0600F7FB030600FAFB0105FF054B
:1052600001FE0300FFFD000000FF00FFFE09020138
:1052700001FCFCFF0402FDF9FF040808F7FD050826
:10528000FEF6F9060904FCF5050B04F5F4020D0E13
:10529000F8F0FF0D0BF7F0F91213FAEFF60C10FF10
:1052A000EDF4111303EFF0061308EFF306120DF2FD
:1052B000EBFC130EF9F1F81012FBEAF40E1307EEF3
:1052C000EF0A1405EDEE03170FF0ED00130CF5ECEB
:1052D000FC1811F8ECF70E0FFEEBF9100F02EFF4CB
:1052E000061003F4F6020F06F6F6FE0C08F9F7FDB9
:1052F0000909FCF8FB0609FEFAFC0308FFFCFD01A6
:105300000700FEFEFF0401FF00FE0200FF02FF0097
:10531000FFFF0400FEFEFF0603FDFBFD0705FCF991
:10532000FB0709FDF8F9060C00F7F7040E03F7F583
:10533000021106F7F2FF110AF8F0FA100EFBEFF770
:105340000F12FDEFF20C1502EFF1051406F6F30053
:10535000140AF4EAFD1110FFEBF81011FCE9F50B4B
:105360001A04EAF1091604EEEC061C08F0EB00142E
:105370000CF5EA03140EF9EAF80D12FBF0FB0A1221
:1053800001EFF2061104F9F3021107F6F0000C0D1B
:10539000FFF0FD0A0AFCF4FA0811FFF4F904090011
:1053A000F9F7080C01FBFA010502FDFA090700FFF5
:1053B000FCFF0001FEFFFEFFFD010B01FDFDFE03F2
:1053C00002FFFAFE0206FDFE04030800F8F9030AD4
:1053D00003F8F502090EFEF1000B09F9F1FB0C0CC4
:1053E000FCEFF71412FEF0F3081003EFF1041306BC
:1053F000F4F801130BF3ECFD120EF8E9F90E1804A2
:10540000E8F50C1400ECF0091505EEEC0E1B08F2A3
:10541000EFFD0B0BFDFEF2FEFD09040806F200FE97
:105420000904FFFCF501FE0A0200FAF8FF0713FE6B
:1054300001FAF900FF08FF01FAFC000006FFFF0275
:1054400008FE0104FE00FBFEFF0002FE00FCFF0060
:10545000FF090AFEFEFF000000FF00FFFFFFFFFF45
:10546000FF0000050BFB00FE0102FFFFFBFEFF013A
:1054700004FE01F901FE1209FD00F800FE0503FF1C
:10548000FEF701FD080100FCF800FF080C0CF9F81C
:1054900000000A0000F8F800010B0000F6F9000314
:1054A0000BFF0303FAFF050A00FEF4FAFF080901E7
:1054B000FBF4FA01080900F9F40907090900F8F5F5
:1054C000F9040908FFF6F5F9060A09FEF5F6F914DC
:1054D0001408FDF4F6FA0A080AF9F6F4FD0A0909B7
:1054E000F7F6F4FE0B0809F40101010B0907F4F7C4
:1054F000F3040A0A05F4F7F405090A02F4F6F507BD
:10550000090A0204FDF608080AFEF5F5FA08090979
:10551000FCF5F5FC080907FBF5F5FD08090D0BF690
:10552000F6FF080A04FBF5F800070A01FCF4FA008C
:10553000080800FBF4FC0008150AFAF4FE0009054F
:10554000FFFBF400FF0A0300FAF600FF0A0100085F
:10555000FD0000090001F9FA010008FE01F9FC0054
:105560000007FD01F7090A0005FD01F9FFFE02022F
:10557000FE00FBFFFF0101FFFFFDFF050F0000FE26
:10558000FFFF00FF00FF00000000FEFF000002FE22
:1055900000FC0F020102FF00FA00FE0402FEFFF809
:1055A00001FD070000FBFF0CFD090000FBF801FEF8
:1055B00009FF01F8F9000109060CF5FBFF030AFFDA
:1055C00000F5FBFF040900FEF5FA05130801FCF4E1
:1055D000FB00080800FAF4FB010909FFFE00FA03CA
:1055E0000908FFF7F4FB050A08FEF6F5FC060E15A0
:1055F000FBF6F5FC080908FAF5F5FD0A0808F8F5C8
:10560000F90C090A02F7F6010905F8F5FF0A07FB8C
:10561000FEFE0809FCF4F9080A00F3F904100BF483
:10562000F6030C04F6F4000C06F9F1061106FBF281
:10563000FC090AFDF3F9070BFFFEFB030C01F7F66B
:10564000030A05F7F6FF0B10FBF5FE0707FCF7FB57
:10565000070600F6000D0501F8FB020601FAFA0044
:1056600006000401FD0501FEFAFF0103FD0302FF30
:1056700002FEFEFE01FF0206FE00FFFF000000FD2D
:1056800006030001FCFE0004FF0002FF0401FCFB16
:1056900000050304FAFD0504FEF7FD030B04F6FB09
:1056A000030800F8F8031003F7F7010A04FAF405F9
:1056B0000E06FCF3FD080AFCF602070AFFF4F805E3
:1056C0000C01FCF9020D03F7F3010A09FBF2FF0AD2
:1056D0000AFEF2FC080B01F3F9070B04F4F7050BC3
:1056E00007F7F5030A08F9F4010909FDF4FE0709B3
:1056F000FFF5FD050902F6FB040804F8FA020706A7
:10570000FAF9010507FDF9000307FFFAFF02060198
:10571000FBFF010403FCFF000204FEFFFF0104FF86
:10572000FFFFFE03000000FD02020101FC00F51373
:1057300041C77FB93BD839852CBAECFD21BA5A2B29
:10574000DD1C7FDF14E235D7809B8094B77A0AD9BD
:105750006A9F9AE67C34928181838A8E80898488CC
:10576000B5E2D485818392A59182B1BFA98B818254
:105770008281B46C348DA0115C87027D23DBDBD881
:1057800000387FB61E2084732D93A02236C89A71EC
:10579000E2A57AF6A87D2FD2EE607B1A81FD79A072
:1057A000345DA4879B09617F6B3EC8888ECC085B03
:1057B0006EDA8588848ACF377E6E503E40686822D4
:1057C00007B18580DF27567F189AADEB1E5D7F5DA0
:1057D00044707B1494EE7F059E6E9BBF234544115D
:1057E00085DE5CB14894197F5C4771589A53B74A7B
:1057F000D284F0F6CF8162D228D6FA7FFA191C7FC4
:10580000E1E230BC72BD82A7B59E801F48A278BA83
:1058100097437BEF908088C6597217CB812475C45B
:1058200080A9F95F794B08B3A39F9F9383828881F6
:10583000858B858083838291A09B9094A3CD2655F0
:10584000737F7D5BED8AC11F667F42A5B24E7E6A83
:105850000FA580B6FB11FCD0A28B80980D7F2792FC
:10586000A0137556A99510697F7F653306ED003F3B
:10587000797F775419BB80AA0C5D7F7967079B807D
:10588000949792BDF74D694F484A4A5F4D4A411778
:10589000E5A880848095D76A7B623908A486CB21ED
:1058A00050666C78747F5202FEC9306B5CBE84D542
:1058B000537B733F10EADDDDEE0E416C7F6418B55B
:1058C00080A9F84E7F44CF859A0B776908BC8789F9
:1058D000B4E90D21312913EAC79183C13372782BC2
:1058E000B986A2E34F7B59EEBD8B86C2114D677F0F
:1058F0006F3D03E0AE91848381838C9FC3F608548F
:10590000767E3D34E99B80ACC3E640677F6A784D84
:1059100004AB838289CC12617C7A773E08C2CAAA22
:105920008D818080818080808080808083868A8E47
:10593000969A9EA0ACA9A79C949991818086938EFB
:10594000ACBCDFF0CFD5F2F813F3DCEEF40F13E0CC
:10595000FB1130533A4C667A7F7B7B7F7F7E7C796C
:105960007A7C7C7F6E5C69676A66475A696F7E6E77
:105970006D7A787F7460625C59581C0C08FDFAD10E
:10598000B4BCB4C1BCA9B2BBCBD6BFB5BCB2B0A08D
:105990008F8A8682808080808080808080808187DE
:1059A00097A6B1BAC2D9F6F3FCF609302C373942C2
:1059B0006C787C7C7E5F2307DCB99B808590A9B4E2
:1059C000FD2C3F5667747A6B5B431AC89E898084AE
:1059D000B4FD26516B7C7665533D2AFDD4C6AFA13C
:1059E0008E808080808CA3BCD2EBFA0C131608004A
:1059F000F6E7D8C8B6A7958881808080838A919C75
:105A0000A8C2E2012344657977664518E3B4908023
:105A100080889BB9DCF710304C66757A7159360B6B
:105A2000D5AD9281808596A9C0DDF2060F192C3A7A
:105A30004A58606C757A78766E6357463C372B25EA
:105A400021222A2F33393E42444442403B36322DF4
:105A50002927222023272F363C4A55616C6F727507
:105A600077797777777878787676777879787879BC
:105A700077736F706962595661625E625F686E6FBC
:105A8000706F6F75747170686B6B635F585C656382
:105A900065686A73777778797978787878797779BB
:105AA000797A7979797A79797877757471706D6C9A
:105AB0006A6B6B6F72757779797874736F706761E1
:105AC0005F5C5B54423C342B19F2D3C7AE9E878097
:105AD000808891A7D9F70D27325D737879755E2D8F
