:100000000C946F0F0C9414100C9414100C94141086
:100010000C9414100C9414100C9414100C941410D0
:100020000C9414100C9414100C9414100C941410C0
:100030000C9414100C945D120C9414100C94141065
:100040000C9414100C9414100C9414100C941410A0
:100050000C9414100C9414100C9414100C94141090
:100060000C9414100C9414100C9414100C94141080
:100070005A5501200201003808000000000000006D
:100080000000000000D81BE61B551CB21F9C1FE996
:100090001BF81B071C821F151C231C0101000000FC
:1000A0000000000000000000000000000000000050
:1000B0000000000000000000000000000000000040
:1000C0000000000000000000000000000000000030
:1000D0000000000000000000000000000000000020
:1000E00000000000000000FEFEFEFEFE000000001A
:1000F000000000FE000000000000FEFE000000FE08
:1001000000FEFE00000000FEFEFE000000000000F9
:1001100000000000000000000000000000000000DF
:1001200000000000000000FEFEFEFEFE000000FEDB
:1001300000000000000000FEFE00000000000000C3
:10014000FEFE00FE0000000000FEFEFE00000000BB
:10015000000000000000000000000000000000009F
:1001600000FE00000000FE0000FEFE000000FEFE9B
:100170000000FEFE000000FEFE0000FE0000000089
:10018000FEFE00000000000000FEFE000000000077
:100190000000FE0000000000000000000000000061
:1001A0000000000000000000FEFEFE000000000055
:1001B000FE00000000000000FEFE00000000000045
:1001C0000000FE00000000000000FE000000000033
:1001D000000000000000000000000000000000001F
:1001E0000000000000000000FEFEFE00000000FE17
:1001F000FE00FE00000000FE0000FEFE0000000009
:10020000000000FE00000000000000FE00000000F2
:10021000000000FE000000000000000000000000E0
:10022000000000000000000000FEFE0000000000D2
:100230000000FE00000000FEFE0000FEFE000000C8
:10024000FEFEFEFE0000000000FE000000000000B8
:10025000000000000000000000000000000000009E
:1002600000000000000000FE000000FE000000FE94
:100270000000FEFE000000FE0000FE00000000FE88
:100280000000FE00000000FE0000FE00000000FE76
:100290000000FE0000000000000000000000000060
:1002A0000000000000000000FEFE00000000000052
:1002B000FEFE00000000000000FEFE000000000046
:1002C000000000000000000000FEFE000000000032
:1002D000FEFE000000000000000000000000000022
:1002E000000000000000000000000000000000FE10
:1002F000FE0000FE00000000FEFE00FE0000000008
:1003000000FEFE00000000FEFEFE0000000000FEF9
:1003100000000000000000000000000000000000DD
:1003200000000000000000FEFE000000000000FED3
:1003300000000000000000FE00000000000000FEC1
:10034000FEFEFE00000000000000FEFE00000000B7
:10035000000000FE0000000000000000000000009F
:10036000000000000000000000000000FE0000008F
:100370000000FEFE00000000FEFEFE00000000FE89
:10038000FE00FE00000000000000FE000000000073
:100390000000FE000000000000000000000000005F
:1003A00000000000000000FEFE000000000000FE53
:1003B0000000FE00000000FEFEFEFE00000000FE49
:1003C00000000000000000FEFE0000000000000031
:1003D000000000000000000000000000000000001D
:1003E000000000000000000000000000FE0000000F
:1003F000FE00FEFEFE000000FEFEFE00000000000B
:100400000000FE00FE0000FEFE00FEFEFE000000FA
:1004100000FEFEFE000000000000000000000000E2
:1004200000000000000000000000FE0000000000CE
:1004300000FEFE0000000000FEFE000000000000C4
:10044000FE00000000000000FEFEFE0000000000B4
:10045000000000000000000000000000000000009C
:10046000000000000000000000FE0000000000FE90
:1004700000FEFEFE000000FEFE0000FE0000000088
:10048000FE000000FEFE0000000000FEFE0000FE78
:10049000FEFEFEFE00000000000000000000000064
:1004A00000000000000000FEFE0000000000000050
:1004B000FEFE00000000000000FE0000FE00000044
:1004C000000000FEFE000000FEFEFEFE0000000038
:1004D000000000000000000000000000000000001C
:1004E000000000000000000000FE0000000000000E
:1004F000FE00000000000000FE000000000000FE02
:10050000FE000000000000FE00000000000000FEF1
:10051000FEFEFE00000000000000000000000000E1
:100520000000000000000000000000FE000000FECF
:10053000FEFEFEFE00000000000000FE00000000C5
:10054000000000FE00000000FEFEFEFE000000FEB7
:10055000000000000000000000000000000000009B
:10056000000000000000000000000000000000FE8D
:10057000FEFEFEFE000000000000FEFE0000000087
:1005800000FEFEFE00000000000000FE0000000073
:100590000000FEFE0000000000000000000000005F
:1005A00000000000000000FEFEFE00000000000051
:1005B00000FEFEFE00000000000000FE0000000043
:1005C000000000FE00000000000000FEFE00000031
:1005D00000000000FE00000000000000000000001D
:1005E00000000000000000FEFE0000FE000000FE13
:1005F000FE00FEFE000000FEFEFEFEFE000000FE0D
:10060000FE00FEFE000000000000FEFE00000000F4
:1006100000FEFE000000000000000000000000FEE0
:1006200000000000000000FE00000000000000FECE
:100630000000FEFE000000FE00FEFE00000000FEC6
:1006400000FE0000000000FEFE00000000000000B0
:10065000FEFE00000000000000000000000000009E
:100660000000000000000000FEFE0000000000008E
:10067000FE00FEFE00000000FE0000FE0000000084
:10068000FEFEFEFE0000000000FEFE000000000076
:10069000FEFE00000000000000000000000000005E
:1006A00000000000000000FE00FE0000000000FE50
:1006B00000FE0000000000FE00FE00FE0000000042
:1006C0000000FEFE000000000000FE00000000FE32
:1006D000FEFE00000000000000000000000000001E
:1006E000000000000000000000FE0000000000000C
:1006F00000FE000000000000FE00000000000000FE
:10070000FE000000FE000000FEFEFEFEFE000000F7
:1007100000000000000000000000000000000000D9
:10072000000000000000000000FEFE0000000000CD
:1007300000FEFE0000000000FEFEFE0000000000C3
:10074000FE00FEFE000000FEFE0000FE00000000B5
:10075000000000FE0000000000000000000000009B
:10076000FEFEFE0000000000FE00FEFE0000000095
:10077000FE0000FEFE0000FEFEFEFEFEFE0000008B
:1007800000FE00000000000000FEFE00000000006F
:100790000000FE000000000000000000000000005B
:1007A0000000000000000000000000000000000049
:1007B000FEFEFE0000000000FE000000000000FE43
:1007C000FE000000000000FEFEFEFEFE0000000035
:1007D0000000000000000000000000000000000019
:1007E000000000000000000000FE00000000FE000D
:1007F00000FE0000FE0000FEFEFEFEFE0000000007
:1008000000FE00000000000000FE000000000000EC
:1008100000000000000000000000000000000000D8
:100820000000000000000000FEFEFEFE00000000D0
:10083000FE00000000000000FEFEFE0000000000C0
:100840000000FE00000000000000FE0000000000AC
:100850000000FE000000000000000000000000009A
:1008600000000000000000202020202000000000E8
:1008700000000020000000000000202000000020F8
:1008800000202000000000202020000000000000C8
:100890000000000000000000000000000000000058
:1008A0000000000000000020202020200000002088
:1008B00000000000000000202000000000000000F8
:1008C0002020002000000000002020200000000068
:1008D0000000000000000000000000000000000018
:1008E0000020000000002000002020000000202048
:1008F0000000202000000020200000200000000058
:100900002020000000000000002020000000000067
:1009100000002000000000000000000000000000B7
:100920000000000000000000202020000000000067
:100930002000000000000000202000000000000057
:100940000000200000000000000020000000000067
:100950000000000000000000000000000000000097
:100960000000000000000000202020000000002007
:1009700020002000000000200000202000000000D7
:100980000000002000000000000000200000000027
:100990000000002000000000000000000000000037
:1009A0000000000000000000002020000000000007
:1009B0000000200000000020200000202000000097
:1009C0002020202000000000002000000000000087
:1009D0000000000000000000000000000000000017
:1009E00000000000000000200000002000000020A7
:1009F0000000202000000020000020000000002057
:100A00000000200000000020000020000000002066
:100A100000002000000000000000000000000000B6
:100A20000000000000000000202000000000000086
:100A30002020000000000000002020000000000036
:100A40000000000000000000002020000000000066
:100A50002020000000000000000000000000000056
:100A60000000000000000000000000000000002066
:100A700020000020000000002020002000000000D6
:100A800000202000000000202020000000000020A6
:100A90000000000000000000000000000000000056
:100AA00000000000000000202000000000000020E6
:100AB00000000000000000200000000000000020F6
:100AC0002020200000000000000020200000000086
:100AD00000000020000000000000000000000000F6
:100AE00000000000000000000000000020000000E6
:100AF0000000202000000000202020000000002036
:100B00002000200000000000000020000000000085
:100B100000002000000000000000000000000000B5
:100B20000000000000000020200000000000002065
:100B300000002000000000202020200000000020F5
:100B40000000000000000020200000000000000065
:100B50000000000000000000000000000000000095
:100B60000000000000000000000000002000000065
:100B70002000202020000000202020000000000095
:100B80000000200020000020200020202000000085
:100B900000202020000000000000000000000000F5
:100BA0000000000000000000000020000000000025
:100BB00000202000000000002020000000000000B5
:100BC00020000000000000002020200000000000A5
:100BD0000000000000000000000000000000000015
:100BE00000000000000000000020000000000020C5
:100BF0000020202000000020200000200000000035
:100C00002000000020200000000000202000002024
:100C10002020202000000000000000000000000054
:100C20000000000000000020200000000000000084
:100C30002020000000000000002000002000000034
:100C400000000020200000002020202000000000E4
:100C50000000000000000000000000000000000094
:100C60000000000000000000002000000000000064
:100C70002000000000000000200000000000002014
:100C80002000000000000020000000000000002004
:100C900020202000000000000000000000000000F4
:100CA0000000000000000000000000200000002004
:100CB0002020202000000000000000200000000094
:100CC0000000002000000000202020200000002064
:100CD0000000000000000000000000000000000014
:100CE00000000000000000000000000000000020E4
:100CF0002020202000000000000020200000000034
:100D00000020202000000000000000200000000063
:100D10000000202000000000000000000000000093
:100D20000000000000000020202000000000000063
:100D30000020202000000000000000200000000033
:100D40000000002000000000000000202000000043
:100D50000000000020000000000000000000000073
:100D60000000000000000020200000200000002003
:100D70002000202000000020202020200000002053
:100D800020002020000000000000202000000000C3
:100D900000202000000000000000000000000020F3
:100DA0000000000000000020000000000000002003
:100DB0000000202000000020002020000000002073
:100DC00000200000000000202000000000000000C3
:100DD00020200000000000000000000000000000D3
:100DE00000000000000000002020000000000000C3
:100DF0002000202000000000200000200000000053
:100E00002020202000000000002020000000000022
:100E10002020000000000000000000000000000092
:100E20000000000000000020002000000000002062
:100E30000020000000000020002000200000000032
:100E40000000202000000000000020000000002022
:100E50002020000000000000000000000000000052
:100E60000000000000000000002000000000000062
:100E70000020000000000000200000000000000032
:100E80002000000020000000202020202000000082
:100E90000000000000000000000000000000000052
:100EA0000000000000000000002020000000000002
:100EB0000020200000000000202020000000000092
:100EC0002000202000000020200000200000000062
:100ED00000000020000000000000000000000000F2
:100EE0002020200000000000200020200000000042
:100EF00020000020200000202020202020000000D2
:100F00000020000000000000002020000000000081
:100F100000002000000000000000000000000000B1
:100F200000000000000000000000000000000000C1
:100F30002020200000000000200000000000002011
:100F400020000000000000202020202000000000E1
:100F50000000000000000000000000000000000091
:100F60000000000000000000002000000000200041
:100F70000020000020000020202020200000000091
:100F80000020000000000000002000000000000021
:100F90000000000000000000000000000000000051
:100FA00000000000000000002020202000000000C1
:100FB00020000000000000002020200000000000B1
:100FC00000002000000000000000200000000000E1
:100FD00000002000000000000000000000000000F1
:100FE0000000000000000018181818180000000089
:100FF0000000001800000000000018180000001891
:101000000018180000000018181800000000000068
:1010100000000000000000000000000000000000D0
:101020000000000000000018181818180000001830
:101030000000000000000018180000000000000080
:101040001818001800000000001818180000000010
:101050000000000000000000000000000000000090
:1010600000180000000018000018180000001818F0
:1010700000001818000000181800001800000000F8
:101080001818000000000000001818000000000000
:101090000000180000000000000000000000000038
:1010A00000000000000000001818180000000000F8
:1010B00018000000000000001818000000000000E8
:1010C00000001800000000000000180000000000F0
:1010D0000000000000000000000000000000000010
:1010E00000000000000000001818180000000018A0
:1010F0001800180000000018000018180000000078
:1011000000000018000000000000001800000000AF
:1011100000000018000000000000000000000000B7
:10112000000000000000000000181800000000008F
:101130000000180000000018180000181800000037
:101140001818181800000000001800000000000027
:10115000000000000000000000000000000000008F
:101160000000000000000018000000180000001837
:1011700000001818000000180000180000000018F7
:1011800000001800000000180000180000000018FF
:101190000000180000000000000000000000000037
:1011A000000000000000000018180000000000000F
:1011B00018180000000000000018180000000000CF
:1011C00000000000000000000018180000000000EF
:1011D00018180000000000000000000000000000DF
:1011E00000000000000000000000000000000018E7
:1011F0001800001800000000181800180000000077
:10120000001818000000001818180000000000184E
:1012100000000000000000000000000000000000CE
:101220000000000000000018180000000000001876
:10123000000000000000001800000000000000187E
:101240001818180000000000000018180000000026
:101250000000001800000000000000000000000076
:101260000000000000000000000000001800000066
:1012700000001818000000001818180000000018DE
:101280001800180000000000000018000000000016
:101290000000180000000000000000000000000036
:1012A00000000000000000181800000000000018F6
:1012B000000018000000001818181800000000189E
:1012C00000000000000000181800000000000000EE
:1012D000000000000000000000000000000000000E
:1012E00000000000000000000000000018000000E6
:1012F0001800181818000000181818000000000046
:101300000000180018000018180018181800000035
:101310000018181800000000000000000000000085
:1013200000000000000000000000180000000000A5
:10133000001818000000000018180000000000004D
:10134000180000000000000018181800000000003D
:10135000000000000000000000000000000000008D
:10136000000000000000000000180000000000184D
:1013700000181818000000181800001800000000DD
:1013800018000000181800000000001818000018CD
:1013900018181818000000000000000000000000ED
:1013A000000000000000001818000000000000000D
:1013B00018180000000000000018000018000000CD
:1013C000000000181800000018181818000000008D
:1013D000000000000000000000000000000000000D
:1013E00000000000000000000018000000000000E5
:1013F00018000000000000001800000000000018A5
:101400001800000000000018000000000000001894
:101410001818180000000000000000000000000084
:10142000000000000000000000000018000000188C
:101430001818181800000000000000180000000034
:10144000000000180000000018181818000000180C
:10145000000000000000000000000000000000008C
:101460000000000000000000000000000000001864
:1014700018181818000000000000181800000000DC
:1014800000181818000000000000001800000000FC
:10149000000018180000000000000000000000001C
:1014A00000000000000000181818000000000000F4
:1014B00000181818000000000000001800000000CC
:1014C00000000018000000000000001818000000D4
:1014D00000000000180000000000000000000000F4
:1014E000000000000000001818000018000000189C
:1014F0001800181800000018181818180000001814
:101500001800181800000000000018180000000063
:101510000018180000000000000000000000001883
:10152000000000000000001800000000000000188B
:10153000000018180000001800181800000000181B
:101540000018000000000018180000000000000053
:10155000181800000000000000000000000000005B
:10156000000000000000000018180000000000004B
:1015700018001818000000001800001800000000F3
:1015800018181818000000000018180000000000CB
:10159000181800000000000000000000000000001B
:1015A00000000000000000180018000000000018F3
:1015B00000180000000000180018001800000000CB
:1015C00000001818000000000000180000000018BB
:1015D00018180000000000000000000000000000DB
:1015E00000000000000000000018000000000000E3
:1015F00000180000000000001800000000000000BB
:101600001800000018000000181818181800000032
:1016100000000000000000000000000000000000CA
:10162000000000000000000000181800000000008A
:101630000018180000000000181818000000000032
:10164000180018180000001818000018000000000A
:101650000000001800000000000000000000000072
:1016600018181800000000001800181800000000EA
:101670001800001818000018181818181800000092
:101680000018000000000000001818000000000012
:101690000000180000000000000000000000000032
:1016A000000000000000000000000000000000003A
:1016B00018181800000000001800000000000018B2
:1016C000180000000000001818181818000000008A
:1016D000000000000000000000000000000000000A
:1016E00000000000000000000018000000001800CA
:1016F0000018000018000018181818180000000042
:1017000000180000000000000018000000000000A9
:1017100000000000000000000000000000000000C9
:101720000000000000000000181818180000000059
:101730001800000000000000181818000000000049
:101740000000180000000000000018000000000069
:101750000000180000000000000000000000000071
:101760000000000000000010101010100000000029
:101770000000001000000000000010100000001029
:101780000010100000000010101000000000000009
:101790000000000000000000000000000000000049
:1017A00000000000000000101010101000000010D9
:1017B0000000000000000010100000000000000009
:1017C00010100010000000000010101000000000B9
:1017D0000000000000000000000000000000000009
:1017E0000010000000001000001010000000101099
:1017F0000000101000000010100000100000000099
:101800001010000000000000001010000000000098
:1018100000001000000000000000000000000000B8
:101820000000000000000000101010000000000088
:101830001000000000000000101000000000000078
:101840000000100000000000000010000000000078
:101850000000000000000000000000000000000088
:101860000000000000000000101010000000001038
:101870001000100000000010000010100000000018
:101880000000001000000000000000100000000038
:101890000000001000000000000000000000000038
:1018A0000000000000000000001010000000000018
:1018B00000001000000000101000001010000000D8
:1018C00010101010000000000010000000000000C8
:1018D0000000000000000000000000000000000008
:1018E00000000000000000100000001000000010C8
:1018F0000000101000000010000010000000001098
:101900000000100000000010000010000000001097
:1019100000001000000000000000000000000000B7
:101920000000000000000000101000000000000097
:101930001010000000000000001010000000000067
:101940000000000000000000001010000000000077
:101950001010000000000000000000000000000067
:101960000000000000000000000000000000001067
:101970001000001000000000101000100000000017
:1019800000101000000000101010000000000010F7
:101990000000000000000000000000000000000047
:1019A0000000000000000010100000000000001007
:1019B0000000000000000010000000000000001007
:1019C00010101000000000000000101000000000C7
:1019D00000000010000000000000000000000000F7
:1019E00000000000000000000000000010000000E7
:1019F0000000101000000000101010000000001087
:101A000010001000000000000000100000000000A6
:101A100000001000000000000000000000000000B6
:101A20000000000000000010100000000000001086
:101A30000000100000000010101010000000001046
:101A40000000000000000010100000000000000076
:101A50000000000000000000000000000000000086
:101A60000000000000000000000000001000000066
:101A700010001010100000001010100000000000F6
:101A800000001000100000101000101010000000E6
:101A90000010101000000000000000000000000016
:101AA0000000000000000000000010000000000026
:101AB00000101000000000001010000000000000E6
:101AC00010000000000000001010100000000000D6
:101AD0000000000000000000000000000000000006
:101AE00000000000000000000010000000000010D6
:101AF0000010101000000010100000100000000086
:101B00001000000010100000000000101000001075
:101B10001010101000000000000000000000000085
:101B20000000000000000010100000000000000095
:101B30001010000000000000001000001000000065
:101B40000000001010000000101010100000000035
:101B50000000000000000000000000000000000085
:101B60000000000000000000001000000000000065
:101B70001000000000000000100000000000001035
:101B80001000000000000010000000000000001025
:101B90001010100000000000000000000000000015
:101BA0000000000000000000000000100000001015
:101BB00010101010000000000000001000000000D5
:101BC00000000010000000001010101000000010B5
:101BD0000000000000000000000000000000000005
:101BE00000000000000000000000000000000010E5
:101BF0001010101000000000000010100000000085
:101C00000010101000000000000000100000000094
:101C100000001010000000000000000000000000A4
:101C20000000000000000010101000000000000084
:101C30000010101000000000000000100000000064
:101C40000000001000000000000000101000000064
:101C50000000000010000000000000000000000074
:101C60000000000000000010100000100000001034
:101C700010001010000000101010101000000010D4
:101C80001000101000000000000010100000000004
:101C90000010100000000000000000000000001014
:101CA0000000000000000010000000000000001014
:101CB00000001010000000100010100000000010C4
:101CC00000100000000000101000000000000000E4
:101CD00010100000000000000000000000000000E4
:101CE00000000000000000001010000000000000D4
:101CF0001000101000000000100000100000000094
:101D00001010101000000000001010000000000073
:101D100010100000000000000000000000000000A3
:101D20000000000000000010001000000000001083
:101D30000010000000000010001000100000000063
:101D40000000101000000000000010000000001053
:101D50001010000000000000000000000000000063
:101D60000000000000000000001000000000000063
:101D70000010000000000000100000000000000043
:101D800010000000100000001010101010000000E3
:101D90000000000000000000000000000000000043
:101DA0000000000000000000001010000000000013
:101DB00000101000000000001010100000000000D3
:101DC00010001010000000101000001000000000B3
:101DD00000000010000000000000000000000000F3
:101DE0001010100000000000100010100000000093
:101DF0001000001010000010101010101000000053
:101E000000100000000000000010100000000000A2
:101E100000001000000000000000000000000000B2
:101E200000000000000000000000000000000000B2
:101E30001010100000000000100000000000001052
:101E40001000000000000010101010100000000032
:101E50000000000000000000000000000000000082
:101E60000000000000000000001000000000100052
:101E700000100000100000101010101000000000F2
:101E80000010000000000000001000000000000032
:101E90000000000000000000000000000000000042
:101EA00000000000000000001010101000000000F2
:101EB00010000000000000001010100000000000E2
:101EC00000001000000000000000100000000000F2
:101ED00000001000000000000000000000001124BD
:101EE0001FBECFEFD0E1DEBFCDBF14BE88E10FB67D
:101EF000F89480936000109260000FBE11E0A0E0A3
:101F0000B1E0E6E6F4E402C005900D92A231B1071B
:101F1000D9F71AE0A0E2B1E001C01D92A63EB107D8
:101F2000E1F70E944F1A882311F40E94651AF89471
:101F3000EDEAF4E080E090E020E802C02193019611
:101F400032E08C309307D4F38DEA94E09093BA0694
:101F50008093B9061092BB06EEEBF6E080E090E0CD
:101F600003C0108201963A9684309105D4F3909381
:101F7000ED068093EC0691E09093DE069093DF06E9
:101F80009093DD061092810015BC8FEF87B984B95C
:101F900088E98AB95C9A8CE081B98BEF82B910929A
:101FA000880486E080938904109285001092840052
:101FB00083E0809389008DE88093880089E0809396
:101FC000810082E080936F0082E484BD17BC95BDE0
:101FD00083E88093B0001092B3009093B10081E148
:101FE00085B910929D0410928C0410928D04109269
:101FF00098041092970410929C0410929B041092E3
:10200000A0040E94371B80E00E941D1A80FF03C0BD
:1020100084E00E941A1A0E941F2078940E941E20B9
:102020000E94C0200C9431220C940000E8E6F4E0F9
:10203000C0E2D1E020915D070027A081B181AC0F03
:10204000BD1F1C911283021708F4102F1C933396A6
:102050000395003090F309E416E01A95F1F70A951C
:10206000D9F7C0E2D1E000EEA02E662778E055D285
:1020700033E23A95F1F70E9477103FE03A95F1F795
:1020800000C0AA94A9F00000639500000000683029
:1020900029F0C895C895C8950000E9CF66270024A7
:1020A0003EE1C30FD01D0000000000000000DFCFA4
:1020B000C895C895C895C895C895000000002DD250
:1020C0000E94C71F11E000918B04012700938B042D
:1020D00020918C04002309F0212720938C04E1E057
:1020E000E0938A04E2E0E093360011240895DE01D3
:1020F000679F0000009192041091930400501040DB
:10210000000D111D180108E614E0000D111D280135
:1021100030E41EE12D9120306FB660FA239FA101BB
:102120000EF4A201040E151EF001F6F0059108B997
:102130002D91059108B9239F059108B920306FB6FC
:10214000059108B908F4A201059108B960FA040ED6
:10215000059108B9151E1A95059108B9059139F12F
:10216000F00108B91EF700C0019108B92D91019145
:10217000000008B9239F0191000008B920306FB614
:1021800060FA019108B90EF0A1010191040E08B99D
:10219000151E00C0019108B9000000C0019108B9E6
:1021A00001911A9521F0F00108B906F6DDCF08B9C2
:1021B0000027C895000008B905E00A95F1F70895D1
:1021C00020E4E0919204F09193048050829FE00D0E
:1021D000F11DA8E6B4E0629FA00DB11D002405909A
:1021E0000D9205900D9205900D9205900D9205901F
:1021F0000D9205900D9205900D9205900D9205900F
:102200000D9205900D9205900D9205900D920590FE
:102210000D9205900D9205900D9205900D920590EE
:102220000D9205900D9205900D9205900D920590DE
:102230000D9205900D9205900D9205900D920590CE
:102240000D9205900D9205900D9205900D920590BE
:102250000D9205900D9205900D9205900D920590AE
:102260000D9205900D9205900D9205900D9205909E
:102270000D9205900D9205900D9205900D9205908E
:102280000D9205900D9205900D9205900D9205907E
:102290000D9205900D9205900D9205900D9205906E
:1022A0000D9205900D9205900D9205900D9205905E
:1022B0000D9205900D9205900D9205900D9205904E
:1022C0000D9205900D9205900D9205900D9205903E
:1022D0000D9205900D9205900D9205900D9211248E
:1022E00008950F931F9395E0899FE8E6F4E0E00DD1
:1022F000F11D048182819381E0E48E9FD0019E9F35
:10230000B00DE0916804F0916904EA0FFB1FA8E6A4
:10231000B4E090E4699FA00DB11D1124403051F448
:10232000A20FB11D822F122F00FF11C0379610E1AE
:10233000121B0DC088E0821B00FD04C0182FE80F9F
:10234000F11D05C018E0120FE20FF11D319750305A
:1023500031F498E0939FA00DB11D932F06C098E033
:10236000931B58E0599FE00DF11D11243EEFE894B6
:1023700000FD689458E0591B48E0481B3EF0259149
:1023800023132C9311964A95D1F707C024913197C6
:1023900023132C9311964A95C9F7E10FF11DA80F4D
:1023A000B11D5A9549F711241F910F9108959B1261
:1023B000A512B312DB1128980E941A14E7E1EA95DE
:1023C000F1F7289A0FD1E0E0F6E0F2D0E0FF32D04A
:1023D000E0FF2FC02F933F934F935F936F937F93B3
:1023E0008F939F93AF93BF9378941124E0918E04C1
:1023F000F0918F04E115F10509F009950E94442040
:102400000E94981B0E94881A0E9447131124E09191
:102410009004F0919104E115F10509F00995BF913F
:10242000AF919F918F917F916F915F914F913F916C
:102430002F910895EF93E0918904E93EE0F5E930AA
:10244000D0F12F923F924F925F926F927F928F9234
:102450009F92AF92BF92CF92DF92EF92FF920F9333
:102460001F932F933F934F935F936F937F938F931C
:102470009F93AF93BF93CF93DF930E941610DF918A
:10248000CF91BF91AF919F918F917F916F915F910C
:102490004F913F912F911F910F91FF90EF90DF90FF
:1024A000CF90BF90AF909F908F907F906F905F90F4
:1024B0004F903F902F90EF910895FF93EF93EFB7D8
:1024C000EF93E0918400EE50E13000F0E23000F054
:1024D000E33000F0E43000F0E53000F0E63000F0EA
:1024E000E73000F0E83000F0E93000F005D0EF917F
:1024F000EFBFEF91FF9118950F921F92EEEAF3E272
:1025000000908804000C1124E00DF11D059014903A
:10251000F00109951F900F90089528980E941A14B1
:10252000E5E1EA95F1F7E0918904EA95E093890401
:10253000289A00C0089528980E944114289A000003
:10254000E1E0F6E035D047D0089528980E94411484
:10255000E0EB0000EA95E9F700000000289AF6E0B9
:10256000E2E026D0089528980E944114289A00009D
:10257000E3E0FDEF1DD0E0918904E53091F4E091B6
:102580008B04E1300000F0919D0419F4F0919D045A
:10259000F195E3E0E0938900EDE8EF0FE093880028
:1025A0000895E3E0E0938900EDE8E0938800089562
:1025B000009089040A9410905F0011FC0F2E009285
:1025C00089040090880411FC0E2E00928804E0E03B
:1025D00011FCE1E00895E3E0E0938900EDE8E09389
:1025E00088000895E7E0E0938900EBE1E09388003C
:1025F000089500000000000000000000000000003E
:1026000099277727833008F00895E0E0F3E3660F19
:10261000771FE60FF71FA591B491EEEBF6E02AE0E5
:10262000289FE00DF11DA183B2831124089590919C
:10263000DD069170880F892B8093DD060895992718
:102640007727EEEBF6E02AE0289FE00DF11D6E3FC4
:1026500031F46091DD066E7F6093DD060BC06F3F45
:1026600031F46091DD066E6F6093DD0603C079E2A0
:10267000760F75831124089599277727EEEBF6E0FE
:102680002AE0289FE00DF11D6083112408950E9427
:10269000291D0090BB06002019F4ADEAB4E002C089
:1026A000A3EBB5E021E002260092BB0622E02093D6
:1026B000BC062F923F924F925F926F927F928F92C1
:1026C0009F92AF92BF92CF92DF92EF92FF920F93C1
:1026D0001F93CF93DF935091DC066091DE067091DB
:1026E000DF068091E0062090BF063090C006409043
:1026F000C2065090C3066090C1061091BE0670904D
:10270000C9068090CA069090CB06A090CC06B090E7
:10271000CD062091C806C090D306D090D406E09094
:10272000D606F090D7060091D5063091D2069FEFDD
:10273000620C431CF2014491410300240008C12DA6
:10274000D02D970CA81CF5014491420300240008E9
:10275000C10DD01D0C0DED1CF70144914303002465
:102760000008C10DD01D8A956AF44091DD06842FC2
:102770008695062E0694062600FA7695679576F9D4
:1027800040FF66F940E860FD4FE74503002400087C
:10279000C10DD01D0024C038D0050CF0CFE70A943D
:1027A000C038D0050CF4C0E8C058CD939A9509F014
:1027B000BFCF4091BC064A954093BC0697E009F014
:1027C000B7CF6092C1064092C2069092CB06A0920B
:1027D000CC060093D506E092D6066093DE06709391
:1027E000DF068093E006DF91CF911F910F91FF905C
:1027F000EF90DF90CF90BF90AF909F908F907F90A1
:102800006F905F904F903F902F900895E091B906A0
:10281000F091BA06019100000093B30006E0E93B95
:10282000F0070DEA14E008F0F801E093B906F09320
:10283000BA0608950C941C140C941E140F931F9345
:102840002F93E091B906F091BA0601910093B3007D
:1028500006E0E93BF00710F40000000010F0EDEA9C
:10286000F4E0E093B906F093BA06C895C895C89508
:10287000C895C895C895000000002F911F910F9131
:1028800008950000E0918904E0FFD8CFE1E1EA95E6
:10289000F1F70000000008950000000000000000B3
:1028A0000000000000000000000000000000000028
:1028B0000000000000000000000000000000000018
:1028C0000000000000000000000000000000000008
:1028D00000000000000000000000000000000000F8
:1028E00000000000000000000000000000000000E8
:1028F00000000000000000000000000000000000D8
:10290000000306090C101316191C1F2225282B2E54
:10291000313336393C3F414447494C4E5153555869
:102920005A5C5E60626466686A6B6D6F7071737426
:10293000757678797A7A7B7C7D7D7E7E7E7F7F7FDF
:102940007F7F7F7F7E7E7E7D7D7C7B7A7A797876C5
:1029500075747371706F6D6B6A68666462605E5CDB
:102960005A585553514E4C494744413F3C393633F0
:10297000312E2B2825221F1C191613100C090603B3
:1029800000FDFAF7F4F0EDEAE7E4E1DEDBD8D5D2BA
:10299000CFCDCAC7C4C1BFBCB9B7B4B2AFADABA885
:1029A000A6A4A2A09E9C9A9896959391908F8D8CA8
:1029B0008B8A8887868685848383828282818181CF
:1029C0008181818182828283838485868687888AC9
:1029D0008B8C8D8F9091939596989A9C9EA0A2A493
:1029E000A6A8ABADAFB2B4B7B9BCBFC1C4C7CACD5E
:1029F000CFD2D5D8DBDEE1E4E7EAEDF0F4F7FAFD7B
:102A0000808182838485868788898A8B8C8D8E8F4E
:102A1000909192939495969798999A9B9C9D9E9F3E
:102A2000A0A1A2A3A4A5A6A7A8A9AAABACADAEAF2E
:102A3000B0B1B2B3B4B5B6B7B8B9BABBBCBDBEBF1E
:102A4000C0C1C2C3C4C5C6C7C8C9CACBCCCDCECF0E
:102A5000D0D1D2D3D4D5D6D7D8D9DADBDCDDDEDFFE
:102A6000E0E1E2E3E4E5E6E7E8E9EAEBECEDEEEFEE
:102A7000F0F1F2F3F4F5F6F7F8F9FAFBFCFDFEFFDE
:102A8000000102030405060708090A0B0C0D0E0FCE
:102A9000101112131415161718191A1B1C1D1E1FBE
:102AA000202122232425262728292A2B2C2D2E2FAE
:102AB000303132333435363738393A3B3C3D3E3F9E
:102AC000404142434445464748494A4B4C4D4E4F8E
:102AD000505152535455565758595A5B5C5D5E5F7E
:102AE000606162636465666768696A6B6C6D6E6F6E
:102AF000707172737475767778797A7B7C7D7E7F5E
:102B000000020406080A0C0E10121416181A1C1ED5
:102B100020222426282A2C2E30323436383A3C3EC5
:102B200040424446484A4C4E50525456585A5C5EB5
:102B300060626466686A6C6E70727476787A7C7EA5
:102B40007F7D7B79777573716F6D6B696765636185
:102B50005F5D5B59575553514F4D4B494745434175
:102B60003F3D3B39373533312F2D2B292725232165
:102B70001F1D1B19171513110F0D0B090705030155
:102B8000FFFDFBF9F7F5F3F1EFEDEBE9E7E5E3E145
:102B9000DFDDDBD9D7D5D3D1CFCDCBC9C7C5C3C135
:102BA000BFBDBBB9B7B5B3B1AFADABA9A7A5A3A125
:102BB0009F9D9B99979593918F8D8B898785838115
:102BC00080828486888A8C8E90929496989A9C9E15
:102BD000A0A2A4A6A8AAACAEB0B2B4B6B8BABCBE05
:102BE000C0C2C4C6C8CACCCED0D2D4D6D8DADCDEF5
:102BF000E0E2E4E6E8EAECEEF0F2F4F6F8FAFCFEE5
:102C00007F7F7F7F7F7F7F7F7F7F7F7F7F7F7F7FD4
:102C10007F7F7F7F7F7F7F7F7F7F7F7F7F7F7F7FC4
:102C20007F7F7F7F7F7F7F7F7F7F7F7F7F7F7F7FB4
:102C30007F7F7F7F7F7F7F7F7F7F7F7F7F7F7F7FA4
:102F00000309131E28313A40464C5054585B5E6109
:102F1000636567696B6C6E6F7071727374757677C9
:102F2000777879797A7A7B7B7C7C7C7D7D7D7E7EEF
:102F30007E7E7F7F7F7F7F7F7F7F7F7F7F7F7F7FA3
:102F40007F7F7F7F7F7F7F7F7F7F7F7F7F7E7E7E94
:102F50007E7D7D7D7C7C7C7B7B7A7A7979787777C6
:102F6000767574737271706F6E6C6B69676563618F
:102F70005E5B5854504C46403A31281E13090300FA
:102F8000C6CCD5DBDFE3E5E7E9EAEBECEDEEEFEF0E
:102F9000F0F0F0F1F1F1F1F2F2F2F2F2F2F2F2F31A
:102FA000F3F3F3F3F3F3F3F3F3F3F3F3F3F3F3F3F1
:102FB000F3F3F3F3F3F3F3F3F3F3F3F3F3F3F3F3E1
:102FC000F3F3F3F3F3F3F3F3F3F3F3F3F3F3F3F3D1
:102FD000F3F3F3F3F3F3F3F3F3F3F3F3F3F3F3F3C1
:102FE000F2F2F2F2F2F2F2F2F1F1F1F1F0F0F0EFCE
:102FF000EFEEEDECEBEAE9E7E5E3DFDBD5CCC6008D
:1030000000283D42302D2C2B2C2D2E2F30323335E5
:1030100037393B3D3F414345484A4C4E5053555745
:10302000595B5D5F61636567696B6C6E707173742A
:10303000757778797A7B7C7D7D7E7E7F7F7F7F7FD1
:103040007F7F7F7F7F7F7E7E7D7D7C7B7A797877B7
:1030500075747371706E6C6B69676563615F5D5BDE
:1030600059575553504E4C4A484543413F3D3B39D3
:1030700037353332302F2E2D2C2B2C2D30423D283E
:1030800000E9E5FED4D7D7D7D6D4D2D0CECCCAC8A3
:10309000C6C3C1BFBDBAB8B6B4B1AFADABA9A7A5E1
:1030A000A3A19F9E9C9A999795949391908F8D8CB4
:1030B0008B8A8988888786858584848483838383B3
:1030C0008383838383848484858586878888898AAB
:1030D0008B8C8D8F909193949597999A9C9E9FA19C
:1030E000A3A5A7A9ABADAFB1B4B6B8BABDBFC1C3B4
:1030F000C6C8CACCCED0D2D4D6D7D7D7D4FEE5E96D
:10310000F9F8F9F5EBE1DDDEE0E2E4E5E6E5E4E23D
:10311000DED9D2CAC1B7ACA299918A868381808058
:103120008182838586888A8C8D8F909293959697DD
:1031300098999A9B9B9C9D9D9D9E9E9E9F9F9F9FC5
:103140009F9F9F9E9E9E9D9D9D9C9B9B9A999897BD
:1031500096959392908F8D8C8A88868583828180C4
:10316000808183868A9199A2ACB7C1CAD2D9DEE2A6
:10317000E4E5E6E5E4E2E0DEDDE1EBF5F9F8F900AF
:103180000708070B151F2322201E1C1B1A1B1C1EC1
:1031900022272E363F49545E676F767A7E7F7F7F87
:1031A0007F7E7D7B7A7876747371706E6D6B6A69E1
:1031B00068676665656464636362626261616161D8
:1031C00061616162626263636364656566676869C1
:1031D0006A6B6D6E7071737476787A7B7D7E7F7F9B
:1031E0007F7F7E7A766F675E54493F362E27221E98
:1031F0001C1B1A1B1C1E2022231F150B070807006F
:103200001F313D444E5354565A5F64696E7476794B
:103210007C7F7F7F7F7F7F7F7F7F7F7F7F7F7F7FC1
:103220007F7F7F7F7F7F7F7F7F7F7F7F7F7F7F7FAE
:103230007F7F7F7F7F7F7F7F7F7F7F7F7F7F7F7F9E
:103240007F7F7F7F7F7F7F7F7F7F7F7F7F7F7F7F8E
:103250007F7F7F7F7F7F7F7F7F7F7F7F7F7F7F7F7E
:103260007F7F7F7F7F7F7F7F7F7F7F7F7F7F7F7F6E
:103270007F7F7F7F7F7F7F7F7F7F7F7C7871684CC0
:103280002C1C120C0A0B0A05FDF3E9DFD4CAC0B7E7
:10329000AEA69E97918B868582808080808080807C
:1032A000808080808080808080808080808080801E
:1032B000808080808080808080808080808080800E
:1032C00080808080808080808080808080808080FE
:1032D00080808080808080808080808080808080EE
:1032E00080808080808080808080808080808080DE
:1032F000808080808087919DACC4CBD4DDF2FAFAC7
:1033000022002400260028002B002D00300033006E
:10331000360039003D004000440048004C00510098
:1033200056005B00600066006C007300790081004D
:10333000880090009900A200AC00B600C100CC004B
:10334000D800E500F3000101100121013201440120
:1033500057016C0181019801B001CA01E501020227
:103360002102410264028802AE02D7020303300345
:1033700061039403CB03050442048304C7041005CE
:103380005D05AF0505066106C2062907960709080F
:10339000830805098E09200ABA0A5D0B0A0CC10CC4
:1033A000840D510E2B0F121007110A121D13401419
:1033B0007415BA1614188319071BA31C571E242052
:1033C0000E22142439267F28E82A752D2930063349
:1033D0000F364539AD3C49401B442848734CFE50DC
:1033E000CF55EA5A51600C661D6C8B725A799280E7
:1033F00037885090E598FDA19FABD3B5A3C00000DE
:10340000992777272EE1629F080E191EA0E2B1E0EE
:10341000A00DB11D40504C93112408958093920447
:1034200090939304089580918A0408951124109232
:103430008A04089580939D040895882329F4809137
:1034400095049091960408958091990490919A041E
:103450000895882329F48091970490919804089501
:1034600080919B0490919C04089578E07A95F1F7FF
:1034700000000197D1F70895F999FECF92BD81BD63
:1034800060BDF894FA9AF99A78940895F999FECF64
:1034900092BD81BDF894F89A80B5789408951F93F1
:1034A00080E090E00E94461A182F81E090E00E9490
:1034B000461A90E0382F20E0210F311D2A5535455E
:1034C00009F491E0892F1F910895CF93DF93C0E015
:1034D000D0E0FE01E059FF4FE491CE016E2F0E9433
:1034E0003C1A2196C531D105A1F7C0E4D0E0CE0148
:1034F0006FEF0E943C1ACE0101966FEF0E943C1ABA
:10350000A09688E0C030D80791F7DF91CF91089559
:103510000F938091A004882309F4A7C08091A1048F
:10352000882309F043C08091A2040E941D1A282F0D
:1035300086FF0FC08091A3049091A40402979093FA
:10354000A4048093A30497FF04C01092A4041092D3
:10355000A30427FF12C08091A3049091A4040296B3
:103560009093A4048093A304883E910534F087EEE1
:1035700090E09093A4048093A30424FF0FC0809153
:10358000A5049091A60402979093A6048093A504A5
:1035900097FF04C01092A6041092A50425FF59C0FD
:1035A0008091A5049091A604029646C08091A20441
:1035B0000E94291A9C014091A3045091A4048F7782
:1035C000907027FF0EC0BA01681B790B7093A4049A
:1035D0006093A30477FF14C01092A4041092A30474
:1035E0000FC0840F951F9093A4048093A304883E7A
:1035F000910534F087EE90E09093A4048093A304A7
:103600004091A5045091A604832F992737FF10C03D
:103610008F7790709A01281B390B3093A604209362
:10362000A50437FF16C01092A6041092A50411C07D
:103630008F779070840F951F9093A6048093A504B4
:10364000883D910534F087ED90E09093A604809337
:10365000A5048091EA066091A3044091A5042091FD
:10366000EB060091F0060E94E11F0F910895FF9272
:103670000F931F93CF93DF93129A8091A004882316
:1036800029F081E090E00E94351A02C0C895C895E3
:10369000129800E010E0C0E0D0E0FF2416950795F6
:1036A000D695C79513988091A004882329F085E0CA
:1036B00090E00E94351A02C0C895C895009B10681A
:1036C000019BD068139A8091A004882329F085E09B
:1036D00090E00E94351A02C0C895C895F39480E125
:1036E000F816E1F61093960400939504D0939A048B
:1036F000C093990480919504909196040F9731F0AE
:103700008091990490919A040F9761F428E088E1E0
:1037100090E00FB6F894A895809360000FBE2093B8
:103720006000FFCFDF91CF911F910F91FF9008951F
:10373000FF920F931F93CF93DF930E94371B8091CB
:1037400095049091960497FD06C0809199049091FC
:103750009A0497FF27C081E090E00E94351A00E0AC
:1037600010E0C0E0D0E0FF24000F111FCC0FDD1FE0
:103770001398C895C895C895C895009B0160019B92
:10378000C160139A88E090E00E94351AF39480E1BA
:10379000F81651F71093980400939704D0939C0463
:1037A000C0939B04DF91CF911F910F91FF900895DB
:1037B00090E026E130E0829FF001839FF00D929F20
:1037C000F00D1124ED50F94F628708956093DD06E6
:1037D000089590E026E130E0829FF001839FF00D94
:1037E000929FF00D1124ED50F94F13861182089528
:1037F00090E026E130E0829FF001839FF00D929FE0
:10380000F00D1124ED50F94F81E0838B089590E085
:1038100026E130E0829FF001839FF00D929FF00D32
:103820001124ED50F94F6187089590E026E130E0D2
:10383000829FF001839FF00D929FF00D1124ED50B7
:10384000F94F6483089590E026E130E0829FF00113
:10385000839FF00D929FF00D1124ED50F94F658379
:103860000895DC01ED91FC911197AF014F5F5F4F1F
:1038700011965C934E93E4912E2F30E0E7FF13C036
:103880002F7730703695322F222737952795FA01FA
:103890004F5F5F4FE4918E2F8F77280F311DE7FD2B
:1038A000F1CF4D935C93C90108950E941F130895B1
:1038B000EF92FF920F931F93CF93DF93182F062F52
:1038C000F42EE22EC82FD0E086E190E0C89FF001F0
:1038D000C99FF00DD89FF00D1124ED50F94F83854D
:1038E000882321F08181882309F0ACC0EE2091F477
:1038F00086E190E0C89FF001C99FF00DD89FF00DC0
:103900001124ED50F94F138A8285882309F09AC05B
:10391000108698C0133059F481E091E09093DF064F
:103920008093DE0681E08093DD060F2D08C0812F95
:1039300060E00E941F13812F6F2D0E9400130F372C
:1039400099F486E190E0C89FF001C99FF00DD89FDF
:10395000F00D1124ED50F94F80915007878781E5D4
:1039600097E0958B848B30C089E0089FC0011124BB
:10397000E0914D07F0914E07E80FF91F33964591FE
:1039800054914115510571F486E190E0C89FF00112
:10399000C99FF00DD89FF00D1124ED50F94F158AF5
:1039A000148A12C0FA01249186E190E0C89FF001C8
:1039B000C99FF00DD89FF00D1124ED50F94F2787C6
:1039C0004F5F5F4F558B448B86E190E0C89FD001DD
:1039D000C99FB00DD89FB00D1124AD50B94F50966E
:1039E0001C9250971A961C921A971C960C931C972F
:1039F00011961C9211972FEF19962C9319971896E0
:103A0000EC9218978BE090E0C89FF001C99FF00DF1
:103A1000D89FF00D1124EE0FFF1FEB50F94FF082ED
:103A200051961C92519781E01B968C931B9753964D
:103A30001C92539752961C92529714961C9214976C
:103A400016962C93DF91CF911F910F91FF90EF90DD
:103A50000895CF92DF92FF920F931F93CF93DF933E
:103A6000ECEFF6E08181282F332727FD3095808108
:103A7000280F311D2F3F310519F014F02FEF30E0E2
:103A8000C90137FF02C080E090E08083769647E06E
:103A9000E435F40739F78091AC04882309F028C194
:103AA00044C1E0915607F09157079F012F5F3F4FA8
:103AB000309357072093560744914F3F69F5A9016A
:103AC0004F5F5F4F5093570740935607F90184911A
:103AD0008F3219F41092AC0419C1863009F0FBC082
:103AE000FA013196CF0101969093570780935607BC
:103AF000E491E33529F490935A0780935907EBC07A
:103B0000E53409F0E8C08091590790915A079093E5
:103B1000570780935607DFC047FF02C040934F0707
:103B2000542F5F70842F90E0807F9070803B9105D0
:103B300031F1803C910581F18039910509F043C054
:103B4000C9010196F901449101969093570780931A
:103B500056070197FC012491852F90E08C9FF0017E
:103B60008D9FF00D9C9FF00D1124ED50F94F808139
:103B7000882309F4B0C0220F852F648553C0C90182
:103B80000196F90144910196909357078093560747
:103B90000197FC01249153C02F5F3F4F309357078B
:103BA0002093560721503040F9012491852F90E051
:103BB0008C9FF0018D9FF00D9C9FF00D1124ED5016
:103BC000F94F248788C080914F07582F5F7090E08D
:103BD000807F9070803B910541F1803C910509F414
:103BE0006EC08039910509F076C02F5F3F4F30934A
:103BF00057072093560721503040F9012491852F13
:103C000090E08C9FD0018D9FB00D9C9FB00D112432
:103C1000AD50B94F8C91882309F45DC0220F852FD8
:103C20001C966C910E94581C56C02F5F3F4F3093DA
:103C300057072093560721503040F901249147300F
:103C400071F4852F90E08C9FF0018D9FF00D9C9F6B
:103C5000F00D1124ED50F94F220F27833CC04B305B
:103C600071F4852F90E08C9FF0018D9FF00D9C9F4B
:103C7000F00D1124ED50F94F220F26832CC04C3546
:103C800071F4852F90E08C9FF0018D9FF00D9C9F2B
:103C9000F00D1124ED50F94F220F24831CC044363F
:103CA000D1F4852F90E08C9FF0018D9FF00D9C9FAB
:103CB000F00D1124ED50F94F220F25830CC0852FF4
:103CC00090E08C9FF0018D9FF00D9C9FF00D1124D2
:103CD000ED50F94F448786E597E00E94311C9093A0
:103CE00055078093540710924C0710924B0702C05F
:103CF000C6E1D0E060914B0770914C07809154076A
:103D0000909155076817790709F4CBCE6F5F7F4F05
:103D100070934C0760934B07809151079091520725
:103D2000019690935207809351070EEB16E0C4EF73
:103D3000D6E0FF24BFEFCB2ED12C8A89882309F04F
:103D40005EC08B899C89892B09F456C09F858E851E
:103D5000981708F04CC050C08B852B893C898F3751
:103D6000E9F4D9018D91BC8BAB8B8F3F01F1F90147
:103D700061811196BC8BAB8BE82FF0E0EE0FFF1F3B
:103D8000EB57FF4F0190F081E02D8F2D0995EB89C6
:103D9000FC8981918E87FC8BEB8B28C0A9014F5F3A
:103DA0005F4F5C8B4B8BF90184918F3F21F418821C
:103DB0001C8A1B8A21C04F5F5F4F5C8B4B8B41502D
:103DC0005040FA01649190E0880F991F8B579F4FE4
:103DD000FC01259134918F2DF9010995EB89FC891E
:103DE0003196FC8BEB8B3197E491EE871F869F8594
:103DF0008E85981709F4B0CF8F858F5F8F878A855E
:103E0000882319F420E030E06BC088898F3F11F0DF
:103E10008F5F888B9F81992309F45CC028852223BA
:103E200009F458C08E81882309F454C04091530787
:103E3000442309F44FC0899FC001112480509F4F33
:103E4000892F992730E0B901869F9001879F300D17
:103E5000969F300D112420503F4F232F33278D8103
:103E600090E0FC012E9FC0012F9F900D3E9F900D72
:103E7000112480509F4F892F9927242F30E0AC01C7
:103E8000429FC001439F900D529F900D112480507E
:103E90009F4F292F33278B818823F1F0EA81F0E0AF
:103EA000E050F74DE491E058E89FC00111248050A4
:103EB0009F4F892F9927B601681B790B629FC0011C
:103EC000639F900D729F900D112480509F4F292F5A
:103ED000332702C020E030E08A819C81890F8A83E9
:103EE000F8012083F394065F1F4F6696F4E0FF16F7
:103EF00009F023CFDF91CF911F910F91FF90DF90B9
:103F0000CF900895FF920F931F93082FF62E0E94D3
:103F1000001310E08BE090E0089FF001099FF00D86
:103F2000189FF00D1124EE0FFF1FEB50F94FF08298
:103F30001F910F91FF900895962F482F50E02BE08E
:103F400030E0429FF001439FF00D529FF00D11248D
:103F5000EE0FFF1FEB50F94F6081691B60830E94D9
:103F600000130895482F50E02BE030E0429FF0010D
:103F7000439FF00D529FF00D1124EE0FFF1FEB50E9
:103F8000F94F9081690F60830E940013089530916A
:103F90005D0720E010C0822F90E0FC01EE0FFF1FB4
:103FA000E80FF91FE859FB4FA081B181A05EBE4F19
:103FB00082818C932F5F231770F3089510925D0711
:103FC0000895DF92EF92FF920F931F93CF93DF93A9
:103FD000182FD62E622F70E0A0E0B0E0E42EFF2470
:103FE0001BC090E0FC01EE0FFF1FEE0FFF1FE80F5C
:103FF000F91FE859FB4F5083C13ED10514F02183CE
:1040000001C041833F5F585F832F810F361748F30C
:10401000160F7F5F485F1896701740F4242F205EBC
:104020005D2D30E0ED01CE0DDF1DEECFDF91CF91A4
:104030001F910F91FF90EF90DF90089508950895DC
:1040400080915E078823F9F080915F078823C1F48F
:1040500080915B0780935F0790916007E92FF0E004
:10406000E050FF4F808187B980915C07890F809372
:104070006007882311F08D3031F410925E070895A7
:10408000815080935F0708950E9420200E94DE1FC8
:1040900008950F931F93CF93DF938C01C0E0D0E07E
:1040A00007C00E94131A8823E1F30E94161A219672
:1040B000C017D107B4F3DF91CF911F910F910895ED
:1040C000EF92FF920F931F9380910D0190910E013B
:1040D000A0910F01B09110017C018D017FE0EE0CE9
:1040E000FF1C001F111F7A95D1F72FEF3FEF4FEF05
:1040F0005FE7E222F322042315239C01AD0165E171
:1041000055954795379527956A95D1F7E21AF30AA1
:10411000040B150B9D01552737FD5095452FE20ED9
:10412000F31E041F151F2AE0880F991FAA1FBB1F2B
:104130002A95D1F7BF77E81AF90A0A0B1B0BE09210
:104140000D01F0920E0100930F011093100117FF63
:1041500010C08FEF9FEFAFEFBFE7E80EF91E0A1F09
:104160001B1FE0920D01F0920E0100930F011093BE
:10417000100180910D011F910F91FF90EF90089514
:104180008F929F92AF92BF92CF92DF92FF920F9346
:104190001F93CF93DF938EE990E00E940E1A109246
:1041A00061071BC00E946020E02FF0E0E256F84F4C
:1041B0006EE10E9425229F5F908380916107C82F46
:1041C000D0E00E946020C058D84F87708E5F8883EF
:1041D000809161078F5F80936107009161070E31C5
:1041E00008F32AE1822E912C9BE1C92ED12C8CE17F
:1041F000A82EB12C81E090E00E9449201092610726
:104200001EC10E9460206EE10E942522892F90939A
:10421000EC06A92FB0E0FD01EE59F84F6081262F82
:1042200030E0F90105E0EE0FFF1F0A95E1F7220FDC
:10423000331FE21BF30BEA0FFB1FE256F84F4081DE
:10424000425E262F30E0F90175E0EE0FFF1F7A95F0
:10425000E1F7220F331FE21BF30BEA0FFB1FE256BD
:10426000F84F408350E00E94001A0091EC06402F66
:1042700050E0FA01EE59F84F70817F5F7083A72FED
:10428000B0E0FA01E058F84F6081262F30E0C40119
:10429000821B930BA817B907ECF4C90102968A0F89
:1042A0009B1FDC0135E0AA0FBB1F3A95E1F7880F91
:1042B000991FA81BB90BA40FB51FA256B84F4C915C
:1042C000442341F0425E4C936E5F670F802F50E0B5
:1042D0000E94001A7091EC06472F50E0FA01EE5947
:1042E000F84F6081A62FB0E0FA01E058F84FE08166
:1042F0002E2F30E0C601821B930BA817B907ECF4F0
:10430000CD01820F931F0196DC0105E0AA0FBB1FB0
:104310000A95E1F7880F991FA81BB90BA40FB51FC9
:10432000A256B84F4C91442341F0425E4C936E0F1D
:104330006F5F872F50E00E94001A0091EC06402F1B
:1043400050E0FA01EE59F84F7081A72FB0E0FA0162
:10435000E058F84F6081262F30E0C501821B930B97
:10436000A817B907DCF4C9018A0F9B1FDC01F5E02F
:10437000AA0FBB1FFA95E1F7880F991FA81BB90B6D
:10438000A40FB51FA256B84F8C91882339F01C9208
:10439000670F802F40E050E00E94001A8091EC06E9
:1043A000C82FD0E0FE01EE59F84F80818C3140F0EB
:1043B00010820E946020C058D84F87708E5F88831B
:1043C0000091EC0610E0F801EE59F84FF0800E94E1
:1043D00060202F2D30E0F90145E0EE0FFF1F4A95D8
:1043E000E1F7220F331FE21BF30BE00FF11FE25640
:1043F000F84F6EE10E9425229F5F90838091EC062A
:10440000482F50E0FA01EE59F84F6081262F30E036
:10441000F901B5E0EE0FFF1FBA95E1F7220F331F48
:10442000E21BF30BE40FF51FE256F84F408150E01A
:104430000E94001A809161078F5F809361078091CD
:104440006107833008F0D6CEDCCE991B79E004C03A
:10445000991F961708F0961B881F7A95C9F78095C3
:064460000895F894FFCF5F
:104466000100408891D2E4ADB5B6BEBFFFD20400CC
:02447600000044
:00000001FF
