:100000000C9495150C94C1150C94C1150C94C11544
:100010000C94C1150C94C1150C94C1150C94C11508
:100020000C94C1150C94C1150C94C1150C94C115F8
:100030000C94C1150C94733B0C94C1150C94C11510
:100040000C94C1150C94C1150C94C1150C94C115D8
:100050000C94C1150C94C1150C94C1150C94C115C8
:100060000C94C1150C94C1150C94C1150C94C115B8
:10007000000000010002000300040005010001016E
:100080000102010301040105020002010202020350
:100090000204020503000301030203030304030532
:1000A000040004010402040304040405050005011E
:1000B0000502050305040505060006010602060300
:1000C00006040605070007010702070307040705E2
:1000D00008000801080208030804080509000901CE
:1000E00009020903090409050A000A010A020A03B0
:1000F0000A040A050B000B010B020B030B040B0592
:100100000C000C010C020C030C040C050D000D017D
:100110000D020D030D040D050E000E010E020E035F
:100120000E040E050F000F010F020F030F040F0541
:10013000100010011002100310041005110011012D
:10014000110211031104110512001201120212030F
:1001500012041205130013011302130313041305F1
:1001600014001401140214031404140515001501DD
:1001700015021503150415051600160116021603BF
:1001800016041605170017011702170317041705A1
:10019000180018011802180318041805190019018D
:1001A00019021903190419051A001A011A021A036F
:1001B0001A041A051B001B011B021B031B041B0551
:1001C0001C001C011C021C031C041C051D001D013D
:1001D0001D021D031D041D051E001E011E021E031F
:1001E0001E041E051F001F011F021F031F041F0501
:1001F00000000000000000000000000000000000FF
:1002000000000000000000000000000000000000EE
:1002100000000000000000000000000000000000DE
:1002200000000000000000000000000000000000CE
:1002300000000000000000000000000000000000BE
:1002400000000049000000495252000052525C2D4B
:10025000000000000000000000000000000000009E
:100260000040000000494A52004952525B1C525360
:100270001C25241B2425251B0A0A2D1C12120A0AE0
:100280000000000000000000404949494949525B14
:100290005B5B525B1C1C1312241C12090909120916
:1002A0000909090A0A0A0A0A0A13120A0A12130A8F
:1002B00000000000000092525252525213121309D1
:1002C000001C0A1212401B65090A0009241B1200B7
:1002D00000251C1C010025241C1C0024252424248A
:1002E0000000000000005249494000001B13524921
:1002F0004900641C1C5B4A481C651C2552491C1C97
:10030000652464491C1C652564491C1C6D2E5C49D0
:100310000000000000000000000000490000000094
:10032000535200000053522500004A522525000078
:100330005B251300005B53000A1C095B1C657F37BB
:100340004052522E2E1C525C2E251B1324251C1CA1
:1003500012002525120000121B0000132E37001B6F
:1003600037372E2E37372E2E2E2E2E2E6E6E6E1CDB
:100370001313120009131200001213130012251C8C
:1003800013132E371C131313361C131B1B1B25139F
:100390001C1C1B1B1B1C1C1C1C1C1C1C1C1C1C13A9
:1003A0001312121313001313131C000913131C014F
:1003B0000037131C13002E2E1C1C001C772E25004A
:1003C000137F251C010A37241C1C0A2E2525090031
:1003D000132E242525252E252525252525252D2EBD
:1003E000251B2E2E251C1325251C1C1C1C011C1C2A
:1003F0001300011C0A000165775C016E7F6E521BC1
:1004000025256D1C524925251C1353001C1C1C520C
:100410004A001B135B5B000009525C0000005B5C40
:10042000000000001B0000000000000000000000B1
:10043000135B7F776E6E136577766E6E1B657776CE
:1004400076761B5BBF76B67609136DBFB7B6001B19
:10045000125C76BF0000121B125B00000000090A4C
:100460006E6E6E77241C6E6E77251C1C6E776E1C6C
:100470001C1C76761C1C2425B765646D6D1B766D7F
:100480006D5B09125B5C5B125B641213131B12122F
:100490001C1C1C1C1C241C1C242525242425251B59
:1004A00000002513000064BF00096EBFBF6D6EBF62
:1004B0006D5B12135B1213120900090100000000AA
:1004C0002E1C0900096E010009767F7F12777F7F5D
:1004D0006412BF775B121B095B121B0900001B092A
:1004E000000000000000000000000000000000000C
:1004F0007F7F5313130064121B0100001B120000C6
:1005000000000000000000000000000000000000EB
:1005100000000000000000000000000000000000DB
:100520000000000000002600000026002F00000050
:100530002F00370000003700FF000000FF00BF0061
:100540000000BF0037000037000000262600000032
:1005500000000000000026262626260000000000DD
:100560002F000000003700000000FF00000000BF67
:100570000000000037000000000026262626260086
:100580000000000000002626262626002F0000007E
:100590000000370000000000FFFFFFFF0000BF0069
:1005A0000000000037000000000026262626260056
:1005B0000000000000002626262600002F00000074
:1005C0002F00370000003700FFFFFFFF0000BF00D3
:1005D0000000BF0037000000370026262626000056
:1005E000000000000000000026262600002F00006A
:1005F0002F00370000003700FF000000FF00BF00A1
:100600000000BF003700003700002626260000004B
:100610000000000000002600000026002F0000005F
:100620002F000037003700000000FF00000000BF6F
:1006300000BF000037000000370026000000260041
:1006400000000000000000000000000000000000AA
:10065000000000000000000000000000000000009A
:100660000000009B000000529BA400005B9B6D7784
:10067000000000000000000000000000000000007A
:10068000005B000000E4F6FF099BEDF6FFBFA4ADA0
:10069000BFBFBFBF767F7FB7B7BF7F766EB7B7BF2D
:1006A00000000000000000005BB6F6F6F6FFFFFF5A
:1006B000FFBFFFFFFFBFBFAEFFFFFFB7AD65FFFF8F
:1006C000B7B6AD65FFFFBFB7AE6EFFFFBFB7B7658B
:1006D000000000000000F6F6EDEDADA4B66D6D5C17
:1006E000526E6565655265765C5C52536E24655248
:1006F000526E25255B52772D2525526E6E2D2525B0
:10070000000000000000A49B9B4900006564A49BBE
:1007100092006D2525649349656E652E9B522425B4
:100720006D25655225246D2D655225256E2E64524A
:1007300000000000000000000000004A000000006F
:100740005B9B0000005B5B2D0000525B2E2E0001C6
:100750005B2D1C01005C5B014A654A5B1C6E7F7768
:10076000495B9B77776D5B65776E65656D2D25259C
:100770005C522E25130949641C09095C7F7F091C02
:100780007F7F777F777F77777F7F7776777F7F6EC3
:10079000656E6EA4B6FF655BA4B7BFFF526DBFBFA9
:1007A000BFFF7FBFBFBFBFFFBFBFB7BFFFFF7FB7E9
:1007B000BFBFFFFF6EB7BFBFFFFF77BFBFBFFFFF6A
:1007C000FFFFBFBFB75BFFFFBFBFA464FFFFBFADAD
:1007D000A47FFFFFBFA4BF7FFFBFADBFBFBFFFB6FA
:1007E000BFBFBF77F7BFBFBF7777FFBFBFBF645241
:1007F0006D7F6E2E2D2D7F766E6E6E2E77777776CF
:100800002E1C7F776E251C25776525251C096E6EAD
:100810001C0949255B494A6E7F645377BF775B5C4F
:10082000256E6E255B4A25651C1B5B002524245B19
:1008300053001C1B5B5C00000A5B640000006464E6
:10084000000000005C00000000000000000000004C
:100850005B5C7FBF77765C6D7FB777775C6D7FBFC2
:1008600077775C64BFBFBFBF0A5C6EBFBFBF006568
:10087000646DBFBF00005B6D646D00000000125B23
:100880007777777F6E6E77777F766D7677BF776DC8
:100890006E76BF7F6D6E767FBF7676BFBF76BFBF49
:1008A000BFB664ADADB6B6ADBFFF646DADB6AD64F9
:1008B00077BFBFBFFFFF77BFBFBFFFFF7FBFBFBF18
:1008C000FFF6BFB7ADF6FFFFA4ADFFFFFFFFFFFFD1
:1008D000FFFFFFFFFFFFFFF6A4005B5200000000D8
:1008E000BFBFAD5B64BFB6ADADBFFFBFFFFFFFFFD6
:1008F000BF64FFFFBFB6765BFFBFBF5B0000FF5C5E
:1009000000000000000000000000000000000000E7
:10091000BFBF645C5C006E5C654900006D5B0000FD
:1009200000000000000000000000000000000000C7
:1009300000000000000000000000000000000000B7
:10094000060004000000010002000300040005008E
:1009500006000700080009000A000B000C000D004B
:100960000E000F0010000000110012001300140010
:1009700015001600060003000000170018001900FB
:100980001A001B001C001D001E001F00200021007B
:100990002200230024002500260000000000020899
:1009A00000085504085A0000F8000990000A1E3299
:1009B000050000FF9C095A525249525B5252525A4A
:1009C00052525252525A495252525A525252525200
:1009D00051525252525B525152525B5B52525152DF
:1009E0005251525B5251606060FFFF5B606052FF8A
:1009F000FF52585852FFFF52585858FFFF5258584C
:100A000051FFFF52606060FFFF52606060FFFF5265
:100A1000606052FFFFFE5BFFFF60606052FFFF5BA4
:100A200060605AFFFF58585852FFFF5A585852FFFB
:100A3000FF5A585852FFFF60606052FFFF606060CD
:100A400052FFFF5160605A52FFFF525B5252FFFF4C
:100A500052525252FFFF49525252FFFF52525252CB
:100A6000FFFF5252525BFFFF52525B5BFFFF51523E
:100A70005251FFFF52515A523636525B52523F3F4B
:100A8000525252523F3F495252523F3F525252529B
:100A90003F3F5252525B3F3F52525B5B3F3F51528E
:100AA00052513636525160606060606060606060D4
:100AB00060605858585858585858585858585858A6
:100AC0005858585860606060606060606060606046
:100AD0006060606060606060606060606060606016
:100AE0006060585858585858585858585858585876
:100AF0005858583160606060603B60606060603191
:100B000060606060223B606060602A316031602A12
:100B100039395831582A39315831582A3931313117
:100B20003131393131312A31222231313B313131C8
:100B300022312A393B306060316060606060226041
:100B400031313B2A313939223B2A31393922223B92
:100B5000222239313B2A2222222A222231312A2AF8
:100B6000222A2A312A3B60606060606060606060B9
:100B70006060585858585858585858585858222251
:100B80003B31585831312A6060603139393B6060FF
:100B9000222A603B3B606060603B22316060313BF9
:100BA0002231585858312A3958585831222A582A4F
:100BB0002A2A3122602231222A3960223122223926
:100BC000602260602A2231312A31393131312A31B3
:100BD00039313B2A2A2A2A3B312A2A222A2A2A2246
:100BE000392A2A222A2A222A2A22222A22222A228E
:100BF00039222A32313B3C2A2A3C3B293C2A2A3CD6
:100C00003B2922312A303B2A3B3C2A22222A3131FD
:100C10003939303C2A312A39393B2A312A39393B92
:100C2000223B2A2A2A31313131313B603131313195
:100C30003B60222A312A2A5831223B3B3C2A223B64
:100C400031312A582A3922316060392A22316060D4
:100C5000393931223160606060602A226060602230
:100C600031225831313B3B315822222A3B31582224
:100C7000223B312260313131313139313B2A3B2A3B
:100C80006022312A31222A1F22303C3C222722397D
:100C90003930313B39312A3B323B2A1D3131323B2D
:100CA0003B1D3131221D2A2A313B2A22223B302A88
:100CB0002A313B3B2A22312A2A2A223B3B1D3B393F
:100CC000223131223B2A2222221D3B2A3939221D80
:100CD0003B2A3939311D3122312A30312222392A39
:100CE0002A31223B2A31223B60606060222A2A603E
:100CF00060312A31313B3158393131583B58393123
:100D000031583B58393B312A2231312A2A2A316065
:100D10002A31603B396060313B3B2A2260223B3103
:100D20003B3158223B313B31583B222A3122585823
:100D300058582231602231313B3960222A3B31310F
:100D40006031222A22313A3B313B22222239392298
:100D50002A2A223939222A2A221D1D31222231141F
:100D60001F2A22583B2A392A271D3939223A2A1D9F
:100D7000222A2A22311D31223B2A2A2A2F143131DC
:100D80002A222F1431312A221F27582222311D1DD9
:100D900014312A22141D27143B391D1F1D3B223BF1
:100DA0001D1F1F142A39392A3B39226031223B2A60
:100DB00031603122222A31582A2A223131583939D8
:100DC000313958582222606060603922606060606A
:100DD000223B606060606060602A22316060606019
:100DE00060225858585858585858585858585858B1
:100DF000585858586060606060606060606060086B
:100E0000606060606008222A2A22311D31222A6037
:100E1000141F2A585858141D58585858141D5858FB
:100E200058581D1F600808081D1F080808081D1FC6
:100E30000808081D271F1D1F1F142A391D1F1E60AB
:100E400060601F2F275858581F1414585858271DD2
:100E500014585858271D140808602F1D1408080836
:100E60002F1D14080808223B6060606060606060AD
:100E700060605858585858585858585858585858E2
:100E800058585858606060606060086060606060DA
:100E9000080860606060606060600808606060080A
:100EA0000808585858080808585808580808585842
:100EB00058580808606060606060606060606060F2
:100EC0006060606060600808081E141F080808144D
:100ED0001D2F08080827272F08080827272F081D77
:100EE0001F1D1D2F081D2F141D2F60606060606086
:100EF0006060606060601D1F140808081D271D08E1
:100F000008081D1F1D0808081D1F1D0808081D1DB5
:100F10002714080814141D2F1408606060606060B6
:100F200060606060606008080860606008080860D1
:100F30006060080808585858080858585858085801
:100F400058585858606060606060606060606060C1
:100F50006060606060606060606060606060606091
:100F60006060585858585858585828585858585821
:100F70005828585860606060392860286060706048
:100F80006060391870186060606060606060606008
:100F900060605858585858585858585858587058A9
:100FA0005858585860606060181818181818E2D916
:100FB000E2D9D9E8FAD96060606060606060606022
:100FC00060605858585858585858395858585828E0
:100FD00058705870181818182860D9D9D9D97018AD
:100FE000D9D9E8FAD9D960606060606060606060FB
:100FF0006060585858585858585858585858585861
:101000005870585860607060606018187060706048
:10101000D9E228701860606070D970D96018E2D980
:10102000D9605858509999D95858585050505858D4
:1010300058585858606060606060606060606060D0
:10104000606060606060D9D960D9D9D960D9D9D9D8
:10105000D9D9D9D9D9D9E8FA9999D9D9D9D9505062
:101060005099999960606050505060606060606015
:1010700060606060606060606060D9D9D9E8FAD96A
:10108000D960D9D9D9D9E8FAD9D9D9D9D9999999D9
:101090009999995050505050506060606060606005
:1010A000606060606060D9D9E8FAE218606060D979
:1010B000E250D9D9D9E250609999505058585050BF
:1010C0005858585860606060606060606060606040
:1010D0006060606060606060606060606060606010
:1010E00060605858585858585858285858585858A0
:1010F00058285858606060603928602860607060C7
:101100006060391870186060606060606060606086
:101110006060585858585858585858585858705827
:101120005858585860606060181818181818E2D994
:10113000E2D9E8FAD9D960606060606060606060A0
:10114000606058585858585858583958585858285E
:1011500058705870181818182860D9D9D9D970182B
:10116000D9E8FAD9D9D96060606060606060606079
:1011700060605858585858585858585858585858DF
:1011800058705858606070606060181870607060C7
:10119000D9E228701860606070D970D96018E2D9FF
:1011A000D9605858509999D9585858505050585853
:1011B000585858586060606060606060606060604F
:1011C000606060606060D9D960D9D9D960D9D9D957
:1011D000D9D9D9D9D9E8FAD99999D9D9D9D95050E1
:1011E0005099999960606050505060606060606094
:1011F00060606060606060606060D9D9E8FAD9D9E9
:10120000D960D9D9D9E8FAD9D9D9D9D9D999999957
:101210009999995050505050506060606060606083
:10122000606060606060D9E8FAD9E218606060D9F7
:10123000E250D9D9D9E2506099995050585850503D
:1012400058585858606060606060606060606060BE
:10125000606060606060606060606060606060608E
:10126000606058585858585858582858585858581E
:101270005828585860606060392860286060706045
:101280006060391870186060606060606060606005
:1012900060605858585858585858585858587058A6
:1012A0005858585860606060181818181818E2D913
:1012B000E2E8FAD9D9D9606060606060606060601F
:1012C00060605858585858585858395858585828DD
:1012D00058705870181818182860D9D9D9D97018AA
:1012E000E8FAD9D9D9D960606060606060606060F8
:1012F000606058585858585858585858585858585E
:101300005870585860607060606018187060706045
:10131000D9E228701860606070D970D96018E2D97D
:10132000D9605858509999D95858585050505858D1
:1013300058585858606060606060606060606060CD
:10134000606060606060D9D960D9D9D960D9D9D9D5
:10135000D9E8D9D9E8FAD9D99999D9D9D9D9505050
:101360005099999960606050505060606060606012
:1013700060606060606060606060D9D9FAD9D9D976
:10138000D960D9D9E8FAD9D9D9D9D9D9D9999999D6
:101390009999995050505050506060606060606002
:1013A000606060606060E8FAD9D9E218606060D976
:1013B000E250D9D9D9E250609999505058585050BC
:1013C000585858586060606060606060606060603D
:1013D00060606060606000000000000000000000CD
:1013E00000000000000000000000000000000000FD
:1013F00000000000000000000000000000000000ED
:10140000000000000000C7C7C7C7C7C7C7C7C7C716
:10141000C7C7C7C7C7C7C7C7C7C7C7C7C7C7C7C75C
:10142000C7C7C7C7C7C7C7C7C7C7C7C7C7C7C7C74C
:10143000C7C7C7C7C7C7FFFFFFFFFFFFFF00000009
:101440000000FF0000000000FF0000000000FF009F
:1014500000FF0000FF0000FF0000FFFFFFFFFFFF95
:10146000000000000000FFFFFFFFFFFF0000000082
:101470000000000000000000000000000000FF006D
:1014800000FF0000FF0000FF0000FFFFFFFFFFFF65
:10149000000000000000FFFFFFFF0000000000FF51
:1014A0000000000000FF0000000000FF0000FF003F
:1014B00000FF0000FF0000FF0000FFFFFFFF000033
:1014C000000000000000FFFFFFFFFFFFFF202020C3
:1014D0000000FF2020200000FF2020200000FF202F
:1014E00020FF0000FF2020FF0000FFFFFFFFFFFFA5
:1014F000000000000000FFFFFFFFFFFFFF20202093
:101500002020FF2020202020FF2020202020FF203E
:1015100020FF2020FF2020FF2020FFFFFFFFFFFFF4
:10152000000000000000FFFFFFFFFFFF2020200061
:101530000000202020000000202020000000FF20CC
:1015400020FF0000FF2020FF0000FFFFFFFFFFFF44
:10155000000000000000FFFFFFFFFFFF2020202011
:101560002020202020202020202020202020FF209C
:1015700020FF2020FF2020FF2020FFFFFFFFFFFF94
:10158000000000000000FFFFFFFFFFFF7F7F7F00E4
:1015900000007F7F7F0000007F7F7F000000FF7FD3
:1015A0007FFF0000FF7F7FFF0000FFFFFFFFFFFFC7
:1015B000000000000000FFFFFFFFFFFF7F7F7F7F35
:1015C0007F7F7F7F7F7F7F7F7F7F7F7F7F7FFF7FAB
:1015D0007FFF7F7FFF7F7FFF7F7FFFFFFFFFFFFF9B
:1015E000000000000000FFFFFFFFFFFF06060600EF
:1015F0000000060606000000060606000000FF06C2
:1016000006FF0000FF0606FF0000FFFFFFFFFFFFD1
:10161000000000000000FFFFFFFFFFFF06060606B8
:101620000606060606060606060606060606FF0661
:1016300006FF0606FF0606FF0606FFFFFFFFFFFF89
:10164000000000000000FFFFFFFF0000060606FF8D
:101650000000060606FF0000060606FF0000FF0663
:1016600006FF0000FF0606FF0000FFFFFFFF00006F
:10167000000000000000000000000000000000006A
:10168000000000000000000000000000000000005A
:10169000000000000000000000000000000000004A
:1016A0000000000000000000FF00000000FFFFFF3E
:1016B000000000FFFFFF00000000FF00000000002E
:1016C000FF0000000000000000000000FF0000001C
:1016D000000000000000FFFF00FFFF00FFFF00FF11
:1016E000FF00FF0000FF00000000000000000000FD
:1016F00000000000000000000000000000000000EA
:1017000000000000000000000000000000FF00FFDB
:101710000000FFFFFFFFFF0000FF00FF000000FFD1
:1017200000FF0000FFFFFFFFFF0000FF00FF0000C1
:1017300000000000000000FF0000000000FFFFFFAD
:101740000000FF000000000000FFFF00000000009C
:1017500000FF0000FFFFFF0000000000FF0000008E
:10176000000000000000FFFF0000FF00FFFF00007E
:10177000FF00000000FF00000000FF00000000FF6D
:1017800000000000FF0000FFFF00FF0000FFFF005F
:1017900000000000000000FF00000000FF00FF004C
:1017A0000000FF00FF00000000FF00000000FF003D
:1017B000FF00FF00FF0000FF000000FFFF00FF0030
:1017C00000000000000000FFFF00000000FFFF001D
:1017D000000000FF0000000000000000000000000A
:1017E00000000000000000000000000000000000F9
:1017F0000000000000000000FF00000000FF0000EB
:10180000000000FF0000000000FF0000000000FFDB
:101810000000000000FF000000000000FF000000CA
:1018200000000000000000FF000000000000FF00BA
:1018300000000000FF0000000000FF0000000000AA
:10184000FF0000000000FF00000000FF000000009B
:1018500000000000000000000000000000FF00FF8A
:10186000000000FFFFFF0000FFFFFFFFFF0000FF81
:10187000FFFF000000FF00FF00000000000000006C
:101880000000000000000000000000000000FF0059
:1018900000000000FF000000FFFFFFFFFF0000004E
:1018A000FF0000000000FF0000000000000000003A
:1018B0000000000000000000000000000000000028
:1018C0000000000000000000000000000000000018
:1018D0000000000000FFFF00000000FFFF0000000C
:1018E00000FF0000000000000000000000000000F9
:1018F0000000000000000000FFFFFFFFFF000000ED
:1019000000000000000000000000000000000000D7
:1019100000000000000000000000000000000000C7
:1019200000000000000000000000000000000000B7
:101930000000000000FFFF00000000FFFF000000AB
:101940000000000000000000000000000000000097
:10195000FF00000000FF00000000FF00000000FF8B
:1019600000000000FF000000000000000000000078
:10197000000000000000002F2F2F00002F000000AB
:101980002F002F00002F2F002F002F002F002F2FB0
:1019900000002F002F0000002F00002F2F2F00002D
:1019A00000000000000000002F000000002F2F00AA
:1019B000000000002F00000000002F0000000000C9
:1019C0002F00000000002F000000002F2F2F00002C
:1019D000000000000000002F2F2F00002F0000004B
:1019E0002F00000000002F0000002F2F0000002F0C
:1019F000000000002F00000000002F2F2F2F2F00CD
:101A0000000000000000002F2F2F00002F0000001A
:101A10002F00000000002F00002F2F2F00000000DB
:101A200000002F002F0000002F00002F2F2F00009C
:101A30000000000000000000002F000000002F2F19
:101A40000000002F002F00002F00002F00002F2F7C
:101A50002F2F2F000000002F00000000002F00009B
:101A60000000000000002F2F2F2F2F002F0000005C
:101A700000002F00000000002F2F2F2F000000007B
:101A800000002F002F0000002F00002F2F2F00003C
:101A900000000000000000002F2F0000002F0000B9
:101AA00000002F00000000002F2F2F2F00002F001C
:101AB00000002F002F0000002F00002F2F2F00000C
:101AC0000000000000002F2F2F2F2F00000000002B
:101AD0002F000000002F000000002F000000002F4A
:101AE00000000000002F00000000002F0000000098
:101AF000000000000000002F2F2F00002F0000002A
:101B00002F002F0000002F00002F2F2F00002F008C
:101B100000002F002F0000002F00002F2F2F0000AB
:101B2000000000000000002F2F2F00002F000000F9
:101B30002F002F0000002F00002F2F2F2F0000005C
:101B400000002F000000002F0000002F2F000000D9
:101B50000000000000000000000000000000000085
:101B6000000000FFFF00000000FFFF000000000079
:101B70000000000000FFFF00000000FFFF00000069
:101B80000000000000000000000000000000000055
:101B9000000000FFFF00000000FFFF000000000049
:101BA0000000000000FFFF00000000FFFF00000039
:101BB00000FF0000000000000000FF00000000FF28
:101BC00000000000FF00000000FF00000000000017
:101BD000FF000000000000FF000000000000FF0008
:101BE00000000000000000000000000000000000F5
:101BF0000000FFFFFFFFFF000000000000000000EA
:101C000000000000FFFFFFFFFF00000000000000D9
:101C100000000000000000FF000000000000FF00C6
:101C20000000000000FF000000000000FF000000B6
:101C300000FF00000000FF00000000FF00000000A7
:101C400000000000000000FFFFFF0000FF00000098
:101C5000FF0000000000FF000000FFFF0000000088
:101C6000FF0000000000000000000000FF00000076
:101C700000000000000000FFFFFF0000FF00000068
:101C8000FF00FF00FFFFFF00FF00FF00FF00FF005D
:101C9000FFFFFF00FF000000000000FFFFFF00004B
:101CA00000000000000000FFFFFF0000FF00000038
:101CB000FF00FF000000FF00FF000000FF00FFFF2B
:101CC000FFFFFF00FF000000FF00FF000000FF001B
:101CD000000000000000FFFFFFFF0000FF00000009
:101CE000FF00FF000000FF00FFFFFFFF0000FF00FC
:101CF0000000FF00FF000000FF00FFFFFFFF0000EB
:101D000000000000000000FFFFFF0000FF000000D7
:101D1000FF00FF0000000000FF0000000000FF00C7
:101D200000000000FF000000FF0000FFFFFF0000B8
:101D3000000000000000FFFFFFFF0000FF000000A8
:101D4000FF00FF000000FF00FF000000FF00FF0099
:101D50000000FF00FF000000FF00FFFFFFFF00008A
:101D6000000000000000FFFFFFFFFF00FF00000079
:101D70000000FF0000000000FFFFFFFF0000FF0069
:101D800000000000FF0000000000FFFFFFFFFF0059
:101D9000000000000000FFFFFFFFFF00FF00000049
:101DA0000000FF0000000000FFFFFFFF0000FF0039
:101DB00000000000FF0000000000FF000000000025
:101DC00000000000000000FFFFFF0000FF00000017
:101DD000FF00FF0000000000FF00FFFFFF00FF000A
:101DE0000000FF00FF000000FF0000FFFFFFFF00FA
:101DF000000000000000FF000000FF00FF000000E6
:101E0000FF00FF000000FF00FFFFFFFFFF00FF00DB
:101E10000000FF00FF000000FF00FF000000FF00C7
:101E200000000000000000FFFFFF00000000FF00B6
:101E300000000000FF0000000000FF0000000000A4
:101E4000FF0000000000FF00000000FFFFFF000097
:101E500000000000000000000000FF000000000083
:101E6000FF0000000000FF0000000000FF00FF0076
:101E70000000FF00FF000000FF0000FFFFFF000068
:101E8000000000000000FF000000FF00FF0000FF56
:101E90000000FF00FF000000FFFF00000000FF0047
:101EA000FF000000FF0000FF0000FF000000FF0037
:101EB000000000000000FF0000000000FF00000024
:101EC0000000FF0000000000FF0000000000FF0015
:101ED00000000000FF0000000000FFFFFFFFFF0008
:101EE000000000000000FF000000FF00FFFF00FFF7
:101EF000FF00FF00FF00FF00FF000000FF00FF00E9
:101F00000000FF00FF000000FF00FF000000FF00D6
:101F1000000000000000FF000000FF00FFFF0000C5
:101F2000FF00FF00FF00FF00FF0000FFFF00FF00B9
:101F30000000FF00FF000000FF00FF000000FF00A6
:101F400000000000000000FFFFFF0000FF00000095
:101F5000FF00FF000000FF00FF000000FF00FF0087
:101F60000000FF00FF000000FF0000FFFFFF000077
:101F7000000000000000FFFFFFFF0000FF00000066
:101F8000FF00FF000000FF00FFFFFFFF0000FF0059
:101F900000000000FF0000000000FF000000000043
:101FA00000000000000000FFFFFF0000FF00000035
:101FB000FF00FF000000FF00FF000000FF00FF0027
:101FC000FF00FF00FF0000FF000000FFFF00FF0018
:101FD000000000000000FFFFFFFF0000FF00000006
:101FE000FF00FF000000FF00FFFFFFFF0000FF00F9
:101FF00000FF0000FF000000FF00FF000000FF00E6
:1020000000000000000000FFFFFF0000FF000000D4
:10201000FF00FF000000000000FFFFFF00000000C5
:102020000000FF00FF000000FF0000FFFFFF0000B6
:10203000000000000000FFFFFFFFFF000000FF00A6
:1020400000000000FF0000000000FF000000000092
:10205000FF0000000000FF0000000000FF00000083
:10206000000000000000FF000000FF00FF00000073
:10207000FF00FF000000FF00FF000000FF00FF0066
:102080000000FF00FF000000FF0000FFFFFF000056
:10209000000000000000FF000000FF00FF00000043
:1020A000FF00FF000000FF00FF000000FF00FF0036
:1020B0000000FF0000FF00FF00000000FF00000024
:1020C000000000000000FF000000FF00FF00000013
:1020D000FF00FF00FF00FF00FF00FF00FF00FF0008
:1020E000FF00FF00FF00FF00FF0000FF00FF0000F7
:1020F000000000000000FF000000FF00FF000000E3
:10210000FF0000FF00FF00000000FF00000000FFD4
:1021100000FF0000FF000000FF00FF000000FF00C4
:10212000000000000000FF000000FF00FF000000B2
:10213000FF00FF000000FF0000FF00FF00000000A4
:10214000FF0000000000FF0000000000FF00000092
:10215000000000000000FFFFFFFF0000000000FF84
:1021600000000000FF00000000FF00000000FF0072
:1021700000000000FF0000000000FFFFFFFF000064
:102180000000000000000000FFFF000000FF000052
:10219000000000FF00000000FFFF0000000000FF43
:1021A0000000000000FF000000000000FFFF000032
:1021B0000000000000000000FFFF000000FF000022
:1021C000FF00FF00FFFF00FFFF00FF0000FFFF0018
:1021D000FFFF00FF00FF0000FF000000FFFF000006
:1021E00000000000000000FFFF000000000000FFF2
:1021F0000000000000FF0000000000FFFF000000E2
:1022000000FF0000000000FF000000FFFF000000D2
:10221000000000000000FEFEFEFEFEFEFEFEFEFED2
:10222000FEFEFEFEFEFEFEFEFEFEFEFEFEFEFEFECE
:10223000FEFEFEFEFEFEFEFEFEFEFEFEFEFEFEFEBE
:10224000FEFEFEFEFEFE5EAFAFAFAFB7A6151616E2
:102250001616A61516161616A61516161616A61571
:1022600016161616A61516161616A61516161616F0
:10227000A615161616165C0CAFAFAF560B651E16DC
:1022800015090B651E1615090B651E1615090B5C45
:102290000A1615090B0B010001550BA5B7AFAE4986
:1022A0000B651E161509A61516161616A615161672
:1022B0001616000B1616160CB7530016160CA6664B
:1022C000AE000049A61516AFAF52A6151616154A50
:1022D00014000000005E0B651E1615090B651E1626
:1022E0001509535F15161509535F1516150967155E
:1022F0001616150966151616150967151616090816
:102300005C0000000155AFAFAFAFAFAF15161616AA
:10231000150A15161616150A0000000000001516FD
:102320000A15161615160A15161615160A15161676
:10233000000000000000AFAFAFAFAFAE161616162C
:1023400015091616161615090000000000081615C6
:102350000A16165516150A16165516150A16165586
:1023600000000000000815161616150A1516161698
:10237000150A15161616150A00000000000015169D
:102380000A15161615160A15161615160A15161616
:10239000000000000000161616161509161616166F
:1023A0001509161616161509000000000008161566
:1023B0000A16165516150A16165516150A16165526
:1023C000000000000008FEFE0000FEFEFE005F04AC
:1023D00000FE005FFF070400000707070400000677
:1023E00007060400000406060400FE00040400FEC4
:1023F000FEFE0000FEFEFEFE0000FEFEFE00EA996C
:1024000000FE00EAFFE2490000E2E2E24900009932
:10241000E2994900004999994900FE00494900FEA6
:10242000FEFE0000FEFEFEFE0000FEFEFE007D2120
:1024300000FE007DFF31190000313131190000210B
:1024400031211900001921211900FE00191900FE7F
:10245000FEFE0000FEFEFEFE0000FEFEFE00F78611
:1024600000FE00F7FFC74C0000C7C7C74C0000863E
:10247000C7864C00004C86864C00FE004C4C00FE8B
:10248000FEFE0000FEFEE3E3E3E3E3E3E3E3E3E376
:10249000E3E3E3E3E3E3E3E3E3E3E3E3E3E3E3E30C
:1024A000E3E3E3E3E3E3E3E3E3E3E3E3E3E3E3E3FC
:1024B000E3E3E3E3E3E3FEFEFEFE2F2FFEFEFE2F4B
:1024C0002F2FFE00001F2F2FFE0000002F27FE00E1
:1024D000001F2F27FEFEFE1F2FF6FEFEFE1F1DEC27
:1024E000FEFE1F2F1DFD2F2FFEFEFEFE2F2F2FFEA7
:1024F000FEFE2F2F1F0000FE272F000000FE272FBB
:102500001F0000FEF62F1FFEFEFEEC1F1FFEFEFE4C
:10251000FD1F2F1FFEFEFEFEFEFE2F2FFEFEFE2FD6
:102520002F2FFE00001F2F2FFE0000002F27FE0080
:10253000FA1F2F27FEFEFE1F2FF6FEFEFE1F1DECCC
:10254000FEFE1F2F1DFD2F2FFEFEFEFE2F2F2FFE46
:10255000FEFE2F2F1F0000FE272F000000FE272F5A
:102560001FFA00FEF62F1FFEFEFEEC1F1FFEFEFEF2
:10257000FD1F2F1FFEFEFEFEFEFE2F2FFEFEFE2F76
:102580002F2FFE00001F2F2FFE00FA002F27FE0026
:10259000001F2F27FEFEFE1F2FF6FEFEFE1F1DEC66
:1025A000FEFE1F2F1DFD2F2FFEFEFEFE2F2F2FFEE6
:1025B000FEFE2F2F1F0000FE272F00FA00FE272F00
:1025C0001F0000FEF62F1FFEFEFEEC1F1FFEFEFE8C
:1025D000FD1F2F1FFEFEFEFEFEFE2F2FFEFEFE2F16
:1025E0002F2FFE00FA1F2F2FFE0000002F27FE00C6
:1025F000001F2F27FEFEFE1F2FF6FEFEFE1F1DEC06
:10260000FEFE1F2F1DFD2F2FFEFEFEFE2F2F2FFE85
:10261000FEFE2F2F1FFA00FE272F000000FE272F9F
:102620001F0000FEF62F1FFEFEFEEC1F1FFEFEFE2B
:10263000FD1F2F1FFEFEFEFE1F2F1DFDFEFE1F2F86
:102640001DFDFEFE1F2F1D2F000000001D2F00008E
:10265000003F3F3F000000777777000000271F1FF3
:1026600000000000FEFEFD1F2F1FFEFEFD1F2F1F9E
:10267000FEFE2F1F2F1FFEFE2F1F000000003F3FFA
:102680003F0000007777770000001F1F2700000041
:10269000FEFE00000000FEFE1F2F1DFDFEFE1F2F90
:1026A0001DFDFEFE1F2F1D2F000000001D2F00002E
:1026B000003F3F3F00000077777700FAFA271F1F9F
:1026C00000000000FEFEFD1F2F1FFEFEFD1F2F1F3E
:1026D000FEFE2F1F2F1FFEFE2F1F000000003F3F9A
:1026E0003F0000007777770000001F1F27FAFA00ED
:1026F000FEFE00000000FEFE1F2F1DFDFEFE1F2F30
:102700001DFDFEFE1F2F1D2F000000001D2F0000CD
:10271000003F3F3F00FAFA777777000000271F1F3E
:1027200000000000FEFEFD1F2F1FFEFEFD1F2F1FDD
:10273000FEFE2F1F2F1FFEFE2F1F000000003F3F39
:102740003F000000777777FAFA001F1F270000008C
:10275000FEFE00000000FEFE1F2F1DFDFEFE1F2FCF
:102760001DFDFEFE1F2F1D2F000000001D2F00FA73
:10277000FA3F3F3F000000777777000000271F1FD8
:1027800000000000FEFEFD1F2F1FFEFEFD1F2F1F7D
:10279000FEFE2F1F2F1FFEFE2F1F000000003F3FD9
:1027A0003FFAFA007777770000001F1F270000002C
:1027B000FEFE00000000FEFEFEFE2F2FFEFEFE2F9E
:1027C0002F2FFE00001F2F2FFE0000002F27FE00DE
:1027D000001F2F27FEFEFE1F2FF6FEFEFE1F1DEC24
:1027E000FEFE1F2F1DFD2F2FFEFEFEFE2F2F2FFEA4
:1027F000FEFE2F2F1F0000FE272F000000FE272FB8
:102800001F0000FEF62F1FFEFEFEEC1F1FFEFEFE49
:10281000FD1F2F1FFEFEFEFE1F2F1DFDFEFE1F2FA4
:102820001DFDFEFE1F2F1D2F000000001D2F0000AC
:10283000003F3F3F00000003777700000307031FBE
:1028400000000003FEFEFD1F2F1FFEFEFD1F2F1FB9
:10285000FEFE2F1F2F1FFEFE2F1F000000003F3F18
:102860003F0000007777030000001F03070300000C
:10287000FEFE0300000053505249544520454E4788
:10288000494E452044454D4F005C3230303820558C
:102890005A45202D2047504C205633002020202020
:1028A0005354415254203D204F5645524C415900FB
:1028B00053434F52455320474F45532048455245B7
:1028C00021203A29004D494C45533A3030302052AE
:1028D000504D202020202020202020200020204398
:1028E0004C41592753205343524F4C4C2044454DA3
:1028F0004F2020205C323030382020202020202023
:1029000020202020202020202000583A00593A0082
:1029100002010000FF000001020304040504040595
:1029200004040302010000FF00000102030422234B
:102930002425262728292A2B2C2D2E2F30313334DD
:1029400035363738393A3B3C3D3E3F404142DEDD8B
:10295000DCDCDCDCDCDCDDDEDFE0E1E2E4E5E7E979
:10296000EBEDEFF1F3F5F7F9FBFDFF0102040506CE
:1029700007080808090908080807060504030200F3
:10298000FFFDFCFAF9F7F6F4F3F2F1F0EFEEEEEDFD
:10299000EDEDEDEDEDEEEEEFF0F1F2F3F4F6F7F82C
:1029A000F9FBFCFDFEFF000102030304040505051D
:1029B0000404040302020100FFFDFCFBFAF8F7F532
:1029C000F4F2F1EFEDECEAE9E7E6E4E3E1E0DEDC86
:1029D000DBD9D8D6D5D3D1CFCECCCAC8C6C4C3C113
:1029E000BFBDBBB9B7B5B3B1AFADACAAA9A7A6A5DA
:1029F000A4A3A2A2A1A1A1A1A2A2A3A4A5A6A7A9A2
:102A0000ABACAEB0B3B5B7BABCBFC2C5C7CACDD008
:102A1000D3D5D8DBDDE0E3E5E8EAECEEF1F3F5F65B
:102A2000F8FAFBFDFEFF00010203030404040505A0
:102A30000404040303020100FFFEFCFBF9F8F6F5B1
:102A4000F3F1EFEEECEAE8E7E5E4E2E1E0DF1601BE
:102A5000050505050100000000000000000002055A
:102A60000505050505050801383939393939393A77
:102A700008013B3939393939393A08013C39393992
:102A80003939393A08013C3D39393939393A08017F
:102A90003C3E39393939393A08013C3E3D393939FA
:102AA000393A08013C3E3E393939393A08013C3E51
:102AB0003E3D3939393A08013C3E3E3E3F39393ACC
:102AC00008013C3E3E3E4039393A08013C3E3E3E1C
:102AD000403F393A08013C3E3E3E4040413A080101
:102AE0003C3E3E3E4040423A08013C3E3E3E404075
:102AF00042430406060708090A0B0C0D0E0F1011BD
:102B000012131415161718191A1B1C1D04021E1F68
:102B10002021222324250402262728292A2B2C2D94
:102B200004022E2F30313233343511241FBECFEF43
:102B3000D0E1DEBFCDBF14BE88E10FB6F89480931C
:102B40006000109260000FBE11E0A0E0B1E0E0E193
:102B5000F2E802C005900D92AC34B107D9F71CE041
:102B6000ACE4B1E001C01D92A23FB107E1F70E94C1
:102B70002A1E0E941E3C0E9446180E94DB3D0C94B7
:102B800006410C9400001F93CF93DF93FA015491F8
:102B900031961491C52FD0E09F012F5F3F4F70E019
:102BA00095E0660F771F9A95E1F7680F711D40E079
:102BB0000BC084918D939F5F31969517D0F34F5F33
:102BC0002C0F3D1F605E7F4F411730F4DB01A05892
:102BD000BC4FF90190E0F1CFDF91CF911F910895A3
:102BE000803C88F4282F30E0220F331FC901805920
:102BF0009F4FFC0184912F583F4FF901949180938E
:102C00005E0C90935D0C60935F0C0895E3E7F8E031
:102C1000108211821282138234968BE0E33FF80710
:102C2000B9F7A7EFBBE041E08C91282F30E0C90154
:102C30000197873D910598F5F901EE0FFF1FEE0F03
:102C4000FF1FED58F74F90E08081882339F4892FDA
:102C50008295880F807E840F80831DC081818823A8
:102C600039F4892F8295880F807E840F818313C069
:102C70008281882339F4892F8295880F807E840F82
:102C8000828309C08381882331F4892F8295880F3C
:102C9000807E840F83839F5F34969830A9F64F5FC0
:102CA0001396403209F608958F929F92AF92BF9289
:102CB000CF92DF92EF92FF920F931F93CF93DF9308
:102CC000882E962E5A016901F02E00E010E080EE69
:102CD000F80E0CC04F2D6E2D882D8C0F0E940C3CD1
:102CE0002196CA15DB05B4F30F5F1F4F0C151D05A8
:102CF0002CF4C0E0D0E0E02EE90CF3CFDF91CF91CF
:102D00001F910F91FF90EF90DF90CF90BF90AF9009
:102D10009F908F90089540520E940C3C0895FF921E
:102D20000F931F93CF93DF938C01F62EEA01FE01E0
:102D300044912196442349F0802F0F5F1F4F4F7716
:102D400040526F2D0E940C3CF2CFDF91CF911F912A
:102D50000F91FF900895FF920F931F93182F062F46
:102D6000F42E42954F704A3010F4405F01C0495E26
:102D7000602F812F0E940C3C4F2D4F70812F8F5F51
:102D80004A3010F4405F01C0495E602F0E940C3C45
:102D90001F910F91FF900895FF920F931F93F82EAC
:102DA000162F042F452F0E94AB16402F612F8F2D19
:102DB0008E5F0E94AB161F910F91FF900895EF92C6
:102DC000FF920F931F93F62E042F182F68E0E62E24
:102DD000E80E07FF02C041E101C040E16F2D812FE5
:102DE0000E940C3C1F5F1E1511F0000FF2CF1F91C7
:102DF0000F91FF90EF900895FF920F931F93CF9341
:102E0000DF93F62E042FEC0110E0002311F41123C0
:102E100039F4802F6AE00E944040905F492F01C042
:102E200040E06F2D8C2F0E940C3C1F5F21971330C8
:102E300031F0802F6AE00E944040082FE6CFDF91FA
:102E4000CF911F910F91FF900895CF92DF92EF9253
:102E5000FF920F931F93CF93DF93C62E79018A01C0
:102E6000EC01DD24E114F1040105110511F4DD206C
:102E700059F4C801B7012AE030E040E050E00E9478
:102E80005F40462F405F01C040E06C2D8C2F0E94B8
:102E90000C3CD394219786E0D81669F0C801B7019D
:102EA0002AE030E040E050E00E945F40C901DA01D2
:102EB0007C018D01D7CFDF91CF911F910F91FF90B2
:102EC000EF90DF90CF9008957F928F929F92AF9274
:102ED000BF92CF92DF92EF92FF920F931F93CF9307
:102EE000DF93782E862E5A016901780100E010E008
:102EF0000CC0A701692D872D8C0F0E94FE3B2196E7
:102F0000CA15DB05B4F30F5F1F4F0C151D052CF41C
:102F1000C0E0D0E0902E980CF3CFDF91CF911F91BD
:102F20000F91FF90EF90DF90CF90BF90AF909F9068
:102F30008F907F9008957F928F929F92AF92BF92D1
:102F4000CF92DF92EF92FF920F931F93CF93DF9375
:102F5000782E862EEA01FA01C590D490FA013296B5
:102F6000A590B49000E016C0FC01EE0DFF1D329656
:102F7000EE0FFF1FEC0FFD1F45915491692D812F1E
:102F8000870D0E94FE3B1F5F812F90E08C159D05F1
:102F90005CF30F5F802F90E08A159B055CF48C9D9D
:102FA00070018D9DF00C9C9DF00C112410E0902E72
:102FB000980CEACFDF91CF911F910F91FF90EF9086
:102FC000DF90CF90BF90AF909F908F907F900895AB
:102FD0000F931F93CF93DF938C01C0E0D0E007C025
:102FE0000E94763C8823E1F30E94793C2196C01729
:102FF000D107B4F3DF91CF911F910F91089528E08D
:1030000088E190E00FB6F894A895809360000FBE19
:10301000209360000895882329F480916C0C90918E
:103020006D0C04C080916E0C90916F0C90934D01CB
:1030300080934C0140914C0150914D014F3F5105FF
:1030400019F1CA018070937080509340E9F4CA016D
:103050008870987088509840B9F480916C0C909169
:103060006D0C892B31F080916E0C90916F0C892B37
:10307000A1F728E088E190E00FB6F894A895809336
:1030800060000FBE20936000CA0108950F931F9344
:1030900084EB99E00E94DF1800EF11E0C8010E9464
:1030A0006C3CC8010E94673C0E94F43B8FE090E0BA
:1030B0000E94E81741E06FEF80E00E94F11B00E4FE
:1030C00019E0A8016CE088E00E949B1783E090E083
:1030D0000E94E81744E759E06CE088E00E949B17E3
:1030E00082E090E00E94E817A8016CE088E00E946E
:1030F0009B1788E290E00E94E8170E94F43B84E16D
:1031000090E00E94E8171F910F91089590E025E14B
:1031100030E0829FF001839FF00D929FF00D11240B
:10312000E757F34F6187089560937403089590E023
:1031300025E130E0829FF001839FF00D929FF00D1A
:103140001124E757F34F12861182089590E025E18C
:1031500030E0829FF001839FF00D929FF00D1124CB
:10316000E757F34F81E0828B089590E025E130E04E
:10317000829FF001839FF00D929FF00D1124E7577D
:10318000F34F6087089590E025E130E0829FF001E1
:10319000839FF00D929FF00D1124E757F34F648346
:1031A000089590E025E130E0829FF001839FF00DCB
:1031B000929FF00D1124E757F34F65830895909384
:1031C000E00C8093DF0C10924E01E9E8FCE021E076
:1031D0009FEF88E12083178296831386118285836F
:1031E00075963CE0ED3DF307A9F7089510928A0C1F
:1031F00010929F0C1092B40C1092C90C01969093EF
:10320000E80C8093E70C9093880C8093870C909344
:10321000EB0C8093EA0C1092E60C1092E50C1092E5
:10322000DE0C1092DD0C1092E10C81E080934E01D7
:103230001092E40C1092E30C08958091870C909109
:10324000880C0E94F61808958091920C87FD03C0A7
:103250008AEF8093920C8091A70C87FD03C08AEFC0
:103260008093A70C8091BC0C87FD03C08AEF8093EC
:10327000BC0C8091D10C87FD03C08AEF8093D10CE8
:1032800010924E01089581E080934E010895DC0173
:10329000ED91FC911197AF014F5F5F4F11965C93D9
:1032A0004E93E4912E2F30E0E7FF13C02F7730705C
:1032B0003695322F222737952795FA014F5F5F4FBA
:1032C000E4918E2F8F77280F311DE7FDF1CF4D93BD
:1032D0005C93C901089508950E941F1D0895EF92FF
:1032E000FF920F931F93CF93DF93182F062FF42E87
:1032F000E22EC82FD0E085E190E0C89FF001C99F81
:10330000F00DD89FF00D1124E757F34F82858823E5
:1033100021F08181882309F077C0EE2091F485E1C6
:1033200090E0C89FF001C99FF00DD89FF00D1124C7
:10333000E757F34F128A8185882309F065C0178209
:1033400063C0133059F481E091E090937603809349
:10335000750381E0809374030F2D08C060E0812F16
:103360000E941F1D6F2D812F0E94001D0F3799F4A1
:1033700085E190E0C89FF001C99FF00DD89FF00D46
:103380001124E757F34F8091E30C868784EE9CE08D
:10339000948B838B20C0802F90E0880F991FE09141
:1033A000DF0CF091E00CE80FF91F259134912F5FAD
:1033B0003F4FF901449185E190E0C89FF001C99F1A
:1033C000F00DD89FF00D1124E757F34F46872F5F7C
:1033D0003F4F348B238B85E190E0C89FF001C99F5C
:1033E000F00DD89FF00D1124E757F34F1786118683
:1033F000038711828FEF8087E782F282108A81E053
:103400008287128A118A1482DF91CF911F910F91C6
:10341000FF90EF900895CF92DF92FF920F931F934A
:10342000CF93DF93E1E9FCE08181282F332727FD4B
:1034300030958081280F311D2F3F310519F014F090
:103440002FEF30E0C90137FF02C080E090E08083B9
:1034500075964CE0E53EF40739F780914E018823DC
:1034600009F0D9C0F5C0E091E70CF091E80C9F019C
:103470002F5F3F4F3093E80C2093E70C44914F3F70
:1034800069F5A9014F5F5F4F5093E80C4093E70C3B
:10349000F90184918F3219F410924E01CAC086301E
:1034A00009F0AAC0FA013196CF0101969093E80C79
:1034B0008093E70CE491E33529F49093EB0C80932F
:1034C000EA0C9AC0E53409F097C08091EA0C90911B
:1034D000EB0C9093E80C8093E70C8EC047FF02C082
:1034E0004093E10C542F5F70842F90E0807F9070A8
:1034F000803B910529F1803C910529F180399105A6
:1035000009F038C0C9010196F901449101969093E0
:10351000E80C8093E70C0197FC012491852F90E043
:103520008C9FF0018D9FF00D9C9FF00D1124E757AB
:10353000F34F8081882309F45FC0220F638545C063
:103540002E5F3F4F48C02F5F3F4F3093E80C2093D2
:10355000E70C21503040F9012491852F90E08C9F99
:10356000F0018D9FF00D9C9FF00D1124E757F34F54
:10357000238742C08091E10C582F5F7090E0807FDC
:103580009070803B910529F1803C910549F180398B
:10359000910591F52F5F3F4F3093E80C2093E70C96
:1035A00021503040F9012491852F90E08C9FD0016B
:1035B0008D9FB00D9C9FB00D1124A757B34F8C91D8
:1035C0008823D1F0220F1B966C91852F0E946F19D2
:1035D00013C02F5F3F4F3093E80C2093E70C0CC0D3
:1035E000852F90E08C9FF0018D9FF00D9C9FF00D3A
:1035F0001124E757F34F438787EE9CE00E94471959
:10360000969587959093E60C8093E50C1092DE0CCE
:103610001092DD0C02C0C5E1D0E06091DD0C70912C
:10362000DE0C8091E50C9091E60C6817790709F49F
:103630001ACF6F5F7F4F7093DE0C6093DD0C80912B
:10364000E30C9091E40C01969093E40C8093E30CCE
:1036500001E613E0CAE8DCE0FF24BFEFCB2ED12C5B
:103660008989882309F05EC08A899B89892B09F49E
:1036700056C09E858D85981708F04CC050C08A852D
:103680002A893B898F37E9F4D9018D91BB8BAA8BAD
:103690008F3F01F1F90161811196BB8BAA8BE82F55
:1036A000F0E0EE0FFF1FE050FF4F0190F081E02DA2
:1036B0008F2D0995EA89FB8981918D87FB8BEA8B98
:1036C00028C0A9014F5F5F4F5B8B4A8BF901849142
:1036D0008F3F21F418821B8A1A8A21C04F5F5F4FE7
:1036E0005B8B4A8B41505040FA016491E82FF0E027
:1036F000EE0FFF1FE050FF4F0190F081E02D8F2D66
:103700000995EA89FB893196FB8BEA8B3197E49125
:10371000ED871E869E858D85981709F4B0CF8E851E
:103720008F5F8E878985882319F420E030E047C0B9
:103730008F858F3F11F08F5F8F879E819923C9F10D
:103740002F812223B1F18D81882399F1899FC001B6
:10375000112480509F4F892F992730E0AC01429F60
:10376000C001439F900D529F900D112480509F4F98
:10377000292F33278B818823F1F0EA81F0E0E05094
:10378000F24CE491E058E89FC001112480509F4F13
:10379000892F9927F601E81BF90BE29FC001E39FEF
:1037A000900DF29F900D112480509F4F292F3327A9
:1037B00002C020E030E08A819C81890F8A83F80171
:1037C0002083F3940A5F1F4F6596F4E0FF1609F01B
:1037D00047CFDF91CF911F910F91FF90DF90CF9056
:1037E00008951F93CF93DF93582F90E0880F991F70
:1037F0002091DF0C3091E00C280F391FF9018591E1
:103800009491DC011196FC018491813011F413E054
:103810001DC080919F0C8823B1F08091AA0C851760
:1038200011F4442381F48091B40C882371F08091C9
:10383000BF0C851711F4442341F49091AE0C809194
:10384000C30C891710F411E001C012E0212F30E001
:10385000FD01449185E190E0289FE001299FD00D72
:10386000389FD00D1124C757D34F4E871196BC8B6C
:10387000AB8B1F8680E58A836F838FEF88871986DD
:103880001A8A188A21E02A87198A5C8729831C8270
:10389000133049F481E091E09093760380937503AF
:1038A0002093740308C060E5812F0E94001D698980
:1038B000812F0E941F1DDF91CF911F910895FF92CC
:1038C0000F931F93082FF62E0E94001D10E085E134
:1038D00090E0089FF001099FF00D189FF00D112452
:1038E000E757F34FF2821F910F91FF900895962FA3
:1038F000482F50E025E130E0429FF001439FF00D5A
:10390000529FF00D1124E757F34F6281691B6283C8
:103910000E94001D0895482F50E025E130E0429FAD
:10392000F001439FF00D529FF00D1124E757F34F24
:103930009281690F62830E94001D089500000000BB
:103940000000000000000000000000000000000077
:103950000000000000000000000000000000000067
:103960000000000000000000000000000000000057
:103970000000000000000000000000000000000047
:103980000000000000000000000000000000000037
:103990000000000000000000000000000000000027
:1039A0000000000000000000000000000000000017
:1039B0000000000000000000000000000000000007
:1039C00000000000000000000000000000000000F7
:1039D00000000000000000000000000000000000E7
:1039E00000000000000000000000000000000000D7
:1039F00000000000000000000000000000000000C7
:103A000099277727833008F00895E0E0F8E4660FFF
:103A1000771FE60FF71FA591B491E1E6F3E026E0EA
:103A2000289FE00DF11DA183B28311240895909188
:103A300074039170880F892B8093740308959927DC
:103A40007727E1E6F3E026E0289FE00DF11D6E3FC9
:103A500031F4609174036E7F609374030BC06F3F09
:103A600031F4609174036E6F6093740303C07EE35E
:103A7000760F75831124089599277727E1E6F3E0FF
:103A800026E0289FE00DF11D6083112408952F93F7
:103A90003F934F935F936F937F938F939F93AF93D6
:103AA000BF93789411240E9406160E94F23A0E9455
:103AB0000B1A2F923F924F925F926F927F928F924A
:103AC0009F92AF92BF92CF92DF92EF92FF920F93AD
:103AD0001F93CF93DF9300905E03002019F4A2E5BB
:103AE000B1E002C0A7E5B2E001E0002600925E036B
:103AF00002E000935F0320906203309063034090E4
:103B000065035090660360906403109161037090A8
:103B100068038090690390906A03A0906B03B09053
:103B20006C0320916703C0906E03D0906F03E09008
:103B30007103F09072030091700330916D03509106
:103B400073036091750370917603809177039FEF03
:103B5000620C431CF2014491410300240008C12D72
:103B6000D02D970CA81CF5014491420300240008B5
:103B7000C10DD01D0C0DED1CF70144914303002431
:103B80000008C10DD01D8A956AF440917403842FFA
:103B90008695062E0694062600FA7695679576F9A0
:103BA00040FF66F940E860FD4FE745030024000848
:103BB000C10DD01DD595C7950024C038D0050CF097
:103BC000CFE70A94C038D0050CF4C0E8CD939A959D
:103BD00009F0BECF40915F034A9540935F0396E0A2
:103BE00009F0B6CF609264034092650390926A0335
:103BF000A0926B0300937003E092710360937503CE
:103C00007093760380937703DF91CF911F910F918B
:103C1000FF90EF90DF90CF90BF90AF909F908F90EC
:103C20007F906F905F904F903F902F909927809159
:103C3000600C77276091610C11240E946B19BF9171
:103C4000AF919F918F917F916F915F914F913F9134
:103C50002F910895A2E5B1E08AE092E000E00D9393
:103C60000197E9F7A2E5B1E0A0935C03B0935D038F
:103C7000002700935E036EE36093660360936C031A
:103C80006093720361E0609375036093760361E073
:103C90006093740366276093610360936703609386
:103CA0006D03609373036093620360936303609397
:103CB0006403609365036093680360936903609392
:103CC0006A0360936B0360936E0360936F0360936A
:103CD00070036093710311240895E0915C03F091E7
:103CE0005D03019100580093B30003E0EC35F00749
:103CF00002E511E008F0F801E0935C03F0935D0346
:103D000008950C94831E0C94851E0F931F932ABD57
:103D1000E0915C03F0915D03019100580093B300C2
:103D200003E0EC35F00710F40000000010F0E2E5CD
:103D3000F1E0E0935C03F0935D03C895C895C895E6
:103D4000C895C895C8950000000000002AB51F91CD
:103D50000F9108950000E091610CE0FFD6CFE1E102
:103D6000EA95F1F70000000008950000000000004F
:103D70000000000000000000000000000000000043
:103D80000000000000000000000000000000000033
:103D90000000000000000000000000000000000023
:103DA0000000000000000000000000000000000013
:103DB0000000000000000000000000000000000003
:103DC00000000000000000000000000000000000F3
:103DD00000000000000000000000000000000000E3
:103DE00000000000000000000000000000000000D3
:103DF00000000000000000000000000000000000C3
:103E0000000306090C101316191C1F2225282B2E3F
:103E1000313336393C3F414447494C4E5153555854
:103E20005A5C5E60626466686A6B6D6F7071737411
:103E3000757678797A7A7B7C7D7D7E7E7E7F7F7FCA
:103E40007F7F7F7F7E7E7E7D7D7C7B7A7A797876B0
:103E500075747371706F6D6B6A68666462605E5CC6
:103E60005A585553514E4C494744413F3C393633DB
:103E7000312E2B2825221F1C191613100C0906039E
:103E800000FDFAF7F4F0EDEAE7E4E1DEDBD8D5D2A5
:103E9000CFCDCAC7C4C1BFBCB9B7B4B2AFADABA870
:103EA000A6A4A2A09E9C9A9896959391908F8D8C93
:103EB0008B8A8887868685848383828282818181BA
:103EC0008181818182828283838485868687888AB4
:103ED0008B8C8D8F9091939596989A9C9EA0A2A47E
:103EE000A6A8ABADAFB2B4B7B9BCBFC1C4C7CACD49
:103EF000CFD2D5D8DBDEE1E4E7EAEDF0F4F7FAFD66
:103F0000808182838485868788898A8B8C8D8E8F39
:103F1000909192939495969798999A9B9C9D9E9F29
:103F2000A0A1A2A3A4A5A6A7A8A9AAABACADAEAF19
:103F3000B0B1B2B3B4B5B6B7B8B9BABBBCBDBEBF09
:103F4000C0C1C2C3C4C5C6C7C8C9CACBCCCDCECFF9
:103F5000D0D1D2D3D4D5D6D7D8D9DADBDCDDDEDFE9
:103F6000E0E1E2E3E4E5E6E7E8E9EAEBECEDEEEFD9
:103F7000F0F1F2F3F4F5F6F7F8F9FAFBFCFDFEFFC9
:103F8000000102030405060708090A0B0C0D0E0FB9
:103F9000101112131415161718191A1B1C1D1E1FA9
:103FA000202122232425262728292A2B2C2D2E2F99
:103FB000303132333435363738393A3B3C3D3E3F89
:103FC000404142434445464748494A4B4C4D4E4F79
:103FD000505152535455565758595A5B5C5D5E5F69
:103FE000606162636465666768696A6B6C6D6E6F59
:103FF000707172737475767778797A7B7C7D7E7F49
:1040000000020406080A0C0E10121416181A1C1EC0
:1040100020222426282A2C2E30323436383A3C3EB0
:1040200040424446484A4C4E50525456585A5C5EA0
:1040300060626466686A6C6E70727476787A7C7E90
:104040007F7D7B79777573716F6D6B696765636170
:104050005F5D5B59575553514F4D4B494745434160
:104060003F3D3B39373533312F2D2B292725232150
:104070001F1D1B19171513110F0D0B090705030140
:10408000FFFDFBF9F7F5F3F1EFEDEBE9E7E5E3E130
:10409000DFDDDBD9D7D5D3D1CFCDCBC9C7C5C3C120
:1040A000BFBDBBB9B7B5B3B1AFADABA9A7A5A3A110
:1040B0009F9D9B99979593918F8D8B898785838100
:1040C00080828486888A8C8E90929496989A9C9E00
:1040D000A0A2A4A6A8AAACAEB0B2B4B6B8BABCBEF0
:1040E000C0C2C4C6C8CACCCED0D2D4D6D8DADCDEE0
:1040F000E0E2E4E6E8EAECEEF0F2F4F6F8FAFCFED0
:104100007F7F7F7F7F7F7F7F7F7F7F7F7F7F7F7FBF
:104110007F7F7F7F7F7F7F7F7F7F7F7F7F7F7F7FAF
:104120007F7F7F7F7F7F7F7F7F7F7F7F7F7F7F7F9F
:104130007F7F7F7F7F7F7F7F7F7F7F7F7F7F7F7F8F
:104400000309131E28313A40464C5054585B5E61F4
:10441000636567696B6C6E6F7071727374757677B4
:10442000777879797A7A7B7B7C7C7C7D7D7D7E7EDA
:104430007E7E7F7F7F7F7F7F7F7F7F7F7F7F7F7F8E
:104440007F7F7F7F7F7F7F7F7F7F7F7F7F7E7E7E7F
:104450007E7D7D7D7C7C7C7B7B7A7A7979787777B1
:10446000767574737271706F6E6C6B69676563617A
:104470005E5B5854504C46403A31281E13090300E5
:10448000C6CCD5DBDFE3E5E7E9EAEBECEDEEEFEFF9
:10449000F0F0F0F1F1F1F1F2F2F2F2F2F2F2F2F305
:1044A000F3F3F3F3F3F3F3F3F3F3F3F3F3F3F3F3DC
:1044B000F3F3F3F3F3F3F3F3F3F3F3F3F3F3F3F3CC
:1044C000F3F3F3F3F3F3F3F3F3F3F3F3F3F3F3F3BC
:1044D000F3F3F3F3F3F3F3F3F3F3F3F3F3F3F3F3AC
:1044E000F2F2F2F2F2F2F2F2F1F1F1F1F0F0F0EFB9
:1044F000EFEEEDECEBEAE9E7E5E3DFDBD5CCC60078
:1045000000283D42302D2C2B2C2D2E2F30323335D0
:1045100037393B3D3F414345484A4C4E5053555730
:10452000595B5D5F61636567696B6C6E7071737415
:10453000757778797A7B7C7D7D7E7E7F7F7F7F7FBC
:104540007F7F7F7F7F7F7E7E7D7D7C7B7A797877A2
:1045500075747371706E6C6B69676563615F5D5BC9
:1045600059575553504E4C4A484543413F3D3B39BE
:1045700037353332302F2E2D2C2B2C2D30423D2829
:1045800000E9E5FED4D7D7D7D6D4D2D0CECCCAC88E
:10459000C6C3C1BFBDBAB8B6B4B1AFADABA9A7A5CC
:1045A000A3A19F9E9C9A999795949391908F8D8C9F
:1045B0008B8A89888887868585848484838383839E
:1045C0008383838383848484858586878888898A96
:1045D0008B8C8D8F909193949597999A9C9E9FA187
:1045E000A3A5A7A9ABADAFB1B4B6B8BABDBFC1C39F
:1045F000C6C8CACCCED0D2D4D6D7D7D7D4FEE5E958
:10460000F9F8F9F5EBE1DDDEE0E2E4E5E6E5E4E228
:10461000DED9D2CAC1B7ACA299918A868381808043
:104620008182838586888A8C8D8F909293959697C8
:1046300098999A9B9B9C9D9D9D9E9E9E9F9F9F9FB0
:104640009F9F9F9E9E9E9D9D9D9C9B9B9A999897A8
:1046500096959392908F8D8C8A88868583828180AF
:10466000808183868A9199A2ACB7C1CAD2D9DEE291
:10467000E4E5E6E5E4E2E0DEDDE1EBF5F9F8F9009A
:104680000708070B151F2322201E1C1B1A1B1C1EAC
:1046900022272E363F49545E676F767A7E7F7F7F72
:1046A0007F7E7D7B7A7876747371706E6D6B6A69CC
:1046B00068676665656464636362626261616161C3
:1046C00061616162626263636364656566676869AC
:1046D0006A6B6D6E7071737476787A7B7D7E7F7F86
:1046E0007F7F7E7A766F675E54493F362E27221E83
:1046F0001C1B1A1B1C1E2022231F150B070807005A
:104700001F313D444E5354565A5F64696E74767936
:104710007C7F7F7F7F7F7F7F7F7F7F7F7F7F7F7FAC
:104720007F7F7F7F7F7F7F7F7F7F7F7F7F7F7F7F99
:104730007F7F7F7F7F7F7F7F7F7F7F7F7F7F7F7F89
:104740007F7F7F7F7F7F7F7F7F7F7F7F7F7F7F7F79
:104750007F7F7F7F7F7F7F7F7F7F7F7F7F7F7F7F69
:104760007F7F7F7F7F7F7F7F7F7F7F7F7F7F7F7F59
:104770007F7F7F7F7F7F7F7F7F7F7F7C7871684CAB
:104780002C1C120C0A0B0A05FDF3E9DFD4CAC0B7D2
:10479000AEA69E97918B8685828080808080808067
:1047A0008080808080808080808080808080808009
:1047B00080808080808080808080808080808080F9
:1047C00080808080808080808080808080808080E9
:1047D00080808080808080808080808080808080D9
:1047E00080808080808080808080808080808080C9
:1047F000808080808087919DACC4CBD4DDF2FAFAB2
:1048000022002400260028002B002D003000330059
:10481000360039003D004000440048004C00510083
:1048200056005B00600066006C0073007900810038
:10483000880090009900A200AC00B600C100CC0036
:10484000D800E500F300010110012101320144010B
:1048500057016C0181019801B001CA01E501020212
:104860002102410264028802AE02D7020303300330
:1048700061039403CB03050442048304C7041005B9
:104880005D05AF0505066106C206290796070908FA
:10489000830805098E09200ABA0A5D0B0A0CC10CAF
:1048A000840D510E2B0F121007110A121D13401404
:1048B0007415BA1614188319071BA31C571E24203D
:1048C0000E22142439267F28E82A752D2930063334
:1048D0000F364539AD3C49401B442848734CFE50C7
:1048E000CF55EA5A51600C661D6C8B725A799280D2
:1048F00037885090E598FDA19FABD3B5A3C00000C9
:10490000B23BBC3BCA3BE03AE2255F29DE2C5D307E
:10491000DD335E37E8EDC8950000EA95E1F7000069
:10492000C0E8D3E0002400915E0CC00FD01DCABDCA
:10493000DBBD2091E007022F220F220F220F709182
:104940005F0C720F672F262E67702694269426948C
:1049500010E2219EC00DD11DC093E107D093E20764
:10496000EE24A0E8B7E000242011ED012011F72E7D
:104970002011962E201166272011E39420E8201B99
:1049800000EDA02EA3E9B8E041D000C000C03D0179
:10499000A3E5BCE00EEF14E0ED91FD9101930193CE
:1049A00001930193019301931A95B1F7D301AA944E
:1049B00001F17395639500C0683021F008E00A9515
:1049C000F1F7E2CF6627A0960AB41BB42090E10766
:1049D0003090E20723950BF4E1010BF4692D0BF401
:1049E0007F2D0BF4EE2444247030E40409F4E0013C
:1049F000CBCF05E00A95F1F700000E94A33BE1E070
:104A0000E093620CE2E0E0933600089528980E945B
:104A10006D1E2F931E01C0905B0CD0905C0C80E348
:104A200023E036E099270D91102F0F7112951695FE
:104A30001770C3EFDBE0029FC00DD11D4880F60167
:104A40000A81089FE00DF11D139FE00DF11DC3EEDB
:104A5000D7E0C40DD91FC093530CD093540C0590CC
:104A60000992059009920590099205900992059086
:104A70000992059009920D91102F0F7112951695BC
:104A80001770C3EFDBE0029FC00DD11D4880F60117
:104A90000A81089FE00DF11D139FE00DF11DC3EE8B
:104AA000D7E0C40DC093550CD91F289AD093560C4B
:104AB0000590099205900992059009920590099236
:104AC00005900992059009920D91102F0F71129582
:104AD00016951770C3EFDBE0029FC00DD11D488013
:104AE000F6010A81089FE00DF11D139FE00DF11DF5
:104AF000C3EED7E0C40DD91FC093570CD093580C08
:104B000005900992059009920590099205900992E5
:104B100005900992059009920D91102F0F71129531
:104B200016951770C3EFDBE0029FC00DD11D4880C2
:104B3000F6010A81089FE00DF11D139FE00DF11DA4
:104B4000C3EED7E0C40DD91FC093590CD0935A0CB3
:104B50000590099205900992059009920590099295
:104B60000590099205900992E101E091610CEA95A6
:104B7000E093610C3D01DE013C2F307E1EEFC9EE5B
:104B8000D7E04090650C5090660C26E0629FC00113
:104B9000E8E0F9E480905D0C40E0E4128824880CA1
:104BA0001124E80DF11D05901490F00186944C91AC
:104BB00020E3429FA395AF71A32B040C151C080E94
:104BC000191E0994F001C895C895C895C895059116
:104BD000D990D1120D2D08B94C910591D990D112CF
:104BE0000D2D08B9429F0591D990D1120D2D08B90C
:104BF000040C151C0591D990D1120D2D08B9080E81
:104C0000191E0591D990D1120D2D08B9A395AF7138
:104C10000591D990D1120D2D08B9A32BF001059162
:104C2000D990D1120D2D08B94C910591D990D1127E
:104C30000D2D08B9429F0591D990D1120D2D08B9BB
:104C4000040C151C0591D990D1120D2D08B9080E30
:104C5000191E0591D990D1120D2D08B9A395AF71E8
:104C60000591D990D1120D2D08B9A32BF001059112
:104C7000D990D1120D2D08B94C910591D990D1122E
:104C80000D2D08B9429F0591D990D1120D2D08B96B
:104C9000040C151C0591D990D1120D2D08B9080EE0
:104CA000191E0591D990D1120D2D08B9A395AF7198
:104CB0000591D990D1120D2D08B9A32BF0010591C2
:104CC000D990D1120D2D08B94C910591D990D112DE
:104CD0000D2D08B9429F0591D990D1120D2D08B91B
:104CE000040C151C0591D990D1120D2D08B9080E90
:104CF000191E0591D990D1120D2D08B9A395AF7148
:104D00000591D990D1120D2D08B9A32BF001059171
:104D1000D990D1120D2D08B94C910591D990D1128D
:104D20000D2D08B9429F0591D990D1120D2D08B9CA
:104D3000040C151C0591D990D1120D2D08B9080E3F
:104D4000191E0591D990D1120D2D08B9A395AF71F7
:104D50000591D990D1120D2D08B9A32BF001059121
:104D6000D990D1120D2D08B94C910591D990D1123D
:104D70000D2D08B9429F0591D990D1120D2D08B97A
:104D8000040C151C0591D990D1120D2D08B9080EEF
:104D9000191E0591D990D1120D2D08B9A395AF71A7
:104DA0000591D990D1120D2D08B9A32BF0010591D1
:104DB000D990D1120D2D08B94C910591D990D112ED
:104DC0000D2D08B9429F0591D990D1120D2D08B92A
:104DD000040C151C0591D990D1120D2D08B9080E9F
:104DE000191E0591D990D1120D2D08B9A395AF7157
:104DF0000591D990D1120D2D08B9A32BF001059181
:104E0000D990D1120D2D08B94C910591D990D1129C
:104E10000D2D08B9429F0591D990D1120D2D08B9D9
:104E2000040C151C0591D990D1120D2D08B9080E4E
:104E3000191E0591D990D1120D2D08B9A395AF7106
:104E40000591D990D1120D2D08B9A32BF001059130
:104E5000D990D1120D2D08B94C910591D990D1124C
:104E60000D2D08B9429F0591D990D1120D2D08B989
:104E7000040C151C0591D990D1120D2D08B9080EFE
:104E8000191E0591D990D1120D2D08B9A395AF71B6
:104E90000591D990D1120D2D08B9A32BF0010591E0
:104EA000D990D1120D2D08B94C910591D990D112FC
:104EB0000D2D08B9429F0591D990D1120D2D08B939
:104EC000040C151C0591D990D1120D2D08B9080EAE
:104ED000191E0591D990D1120D2D08B9A395AF7166
:104EE0000591D990D1120D2D08B9A32BF001059190
:104EF000D990D1120D2D08B94C910591D990D112AC
:104F00000D2D08B9429F0591D990D1120D2D08B9E8
:104F1000040C151C0591D990D1120D2D08B9080E5D
:104F2000191E0591D990D1120D2D08B9A395AF7115
:104F30000591D990D1120D2D08B9A32BF00105913F
:104F4000D990D1120D2D08B94C910591D990D1125B
:104F50000D2D08B9429F0591D990D1120D2D08B998
:104F6000040C151C0591D990D1120D2D08B9080E0D
:104F7000191E0591D990D1120D2D08B9A395AF71C5
:104F80000591D990D1120D2D08B9A32BF0010591EF
:104F9000D990D1120D2D08B94C910591D990D1120B
:104FA0000D2D08B9429F0591D990D1120D2D08B948
:104FB000040C151C0591D990D1120D2D08B9080EBD
:104FC000191E0591D990D1120D2D08B9A395AF7175
:104FD0000591D990D1120D2D08B9A32BF00105919F
:104FE000D990D1120D2D08B94C910591D990D112BB
:104FF0000D2D08B9429F0591D990D1120D2D08B9F8
:10500000040C151C0591D990D1120D2D08B9080E6C
:10501000191E0591D990D1120D2D08B9A395AF7124
:105020000591D990D1120D2D08B9A32BF00105914E
:10503000D990D1120D2D08B94C910591D990D1126A
:105040000D2D08B9429F0591D990D1120D2D08B9A7
:10505000040C151C0591D990D1120D2D08B9080E1C
:10506000191E0591D990D1120D2D08B9A395AF71D4
:105070000591D990D1120D2D08B9A32BF0010591FE
:10508000D990D1120D2D08B94C910591D990D1121A
:105090000D2D08B9429F0591D990D1120D2D08B957
:1050A000040C151C0591D990D1120D2D08B9080ECC
:1050B000191E0591D990D1120D2D08B9A395AF7184
:1050C0000591D990D1120D2D08B9A32BF0010591AE
:1050D000D990D1120D2D08B94C910591D990D112CA
:1050E0000D2D08B9429F0591D990D1120D2D08B907
:1050F000040C151C0591D990D1120D2D08B9080E7C
:10510000191E0591D990D1120D2D08B9A395AF7133
:105110000591D990D1120D2D08B9A32BF00105915D
:10512000D990D1120D2D08B94C910591D990D11279
:105130000D2D08B9429F0591D990D1120D2D08B9B6
:10514000040C151C0591D990D1120D2D08B9080E2B
:10515000191E0591D990D1120D2D08B9A395AF71E3
:105160000591D990D1120D2D08B9A32BF00105910D
:10517000D990D1120D2D08B94C910591D990D11229
:105180000D2D08B9429F0591D990D1120D2D08B966
:10519000040C151C0591D990D1120D2D08B9080EDB
:1051A000191E0591D990D1120D2D08B9A395AF7193
:1051B0000591D990D1120D2D08B9A32BF0010591BD
:1051C000D990D1120D2D08B94C910591D990D112D9
:1051D0000D2D08B9429F0591D990D1120D2D08B916
:1051E000040C151C0591D990D1120D2D08B9080E8B
:1051F000191E0591D990D1120D2D08B9A395AF7143
:105200000591D990D1120D2D08B9A32BF00105916C
:10521000D990D1120D2D08B94C910591D990D11288
:105220000D2D08B9429F0591D990D1120D2D08B9C5
:10523000040C151C0591D990D1120D2D08B9080E3A
:10524000191E0591D990D1120D2D08B9A395AF71F2
:105250000591D990D1120D2D08B9A32BF00105911C
:10526000D990D1120D2D08B94C910591D990D11238
:105270000D2D08B9429F0591D990D1120D2D08B975
:10528000040C151C0591D990D1120D2D08B9080EEA
:10529000191E0591D990D1120D2D08B9A395AF71A2
:1052A0000591D990D1120D2D08B9A32BF0012F91A2
:1052B000000000000027E101D30108B90895F001C2
:1052C00031964C9100C000C000C000C00591D9903B
:1052D000D1120D2D08B9429F0591D990D1120D2DF3
:1052E00008B9040C151C0591D990D1120D2D08B9DF
:1052F000080E191E0591D990D1120D2D08B9A3954C
:10530000AF710591D990D1120D2D08B9A32BF001E1
:105310000591D990D1120D2D08B94C910591D990D4
:10532000D1120D2D08B9429F0591D990D1120D2DA2
:1053300008B9040C151C0591D990D1120D2D08B98E
:10534000080E191E0591D990D1120D2D08B9A395FB
:10535000AF710591D990D1120D2D08B9A32BF00191
:105360000591D990D1120D2D08B94C910591D99084
:10537000D1120D2D08B9429F0591D990D1120D2D52
:1053800008B9040C151C0591D990D1120D2D08B93E
:10539000080E191E0591D990D1120D2D08B9A395AB
:1053A000AF710591D990D1120D2D08B9A32BF00141
:1053B0000591D990D1120D2D08B94C910591D99034
:1053C000D1120D2D08B9429F0591D990D1120D2D02
:1053D00008B9040C151C0591D990D1120D2D08B9EE
:1053E000080E191E0591D990D1120D2D08B9A3955B
:1053F000AF710591D990D1120D2D08B9A32BF001F1
:105400000591D990D1120D2D08B94C910591D990E3
:10541000D1120D2D08B9429F0591D990D1120D2DB1
:1054200008B9040C151C0591D990D1120D2D08B99D
:10543000080E191E0591D990D1120D2D08B9A3950A
:10544000AF710591D990D1120D2D08B9A32BF001A0
:105450000591D990D1120D2D08B94C910591D99093
:10546000D1120D2D08B9429F0591D990D1120D2D61
:1054700008B9040C151C0591D990D1120D2D08B94D
:10548000080E191E0591D990D1120D2D08B9A395BA
:10549000AF710591D990D1120D2D08B9A32BF00150
:1054A0000591D990D1120D2D08B94C910591D99043
:1054B000D1120D2D08B9429F0591D990D1120D2D11
:1054C00008B9040C151C0591D990D1120D2D08B9FD
:1054D000080E191E0591D990D1120D2D08B9A3956A
:1054E000AF710591D990D1120D2D08B9A32BF00100
:1054F0000591D990D1120D2D08B94C910591D990F3
:10550000D1120D2D08B9429F0591D990D1120D2DC0
:1055100008B9040C151C0591D990D1120D2D08B9AC
:10552000080E191E0591D990D1120D2D08B9A39519
:10553000AF710591D990D1120D2D08B9A32BF001AF
:105540000591D990D1120D2D08B94C910591D990A2
:10555000D1120D2D08B9429F0591D990D1120D2D70
:1055600008B9040C151C0591D990D1120D2D08B95C
:10557000080E191E0591D990D1120D2D08B9A395C9
:10558000AF710591D990D1120D2D08B9A32BF0015F
:105590000591D990D1120D2D08B94C910591D99052
:1055A000D1120D2D08B9429F0591D990D1120D2D20
:1055B00008B9040C151C0591D990D1120D2D08B90C
:1055C000080E191E0591D990D1120D2D08B9A39579
:1055D000AF710591D990D1120D2D08B9A32BF0010F
:1055E0000591D990D1120D2D08B94C910591D99002
:1055F000D1120D2D08B9429F0591D990D1120D2DD0
:1056000008B9040C151C0591D990D1120D2D08B9BB
:10561000080E191E0591D990D1120D2D08B9A39528
:10562000AF710591D990D1120D2D08B9A32BF001BE
:105630000591D990D1120D2D08B94C910591D990B1
:10564000D1120D2D08B9429F0591D990D1120D2D7F
:1056500008B9040C151C0591D990D1120D2D08B96B
:10566000080E191E0591D990D1120D2D08B9A395D8
:10567000AF710591D990D1120D2D08B9A32BF0016E
:105680000591D990D1120D2D08B94C910591D99061
:10569000D1120D2D08B9429F0591D990D1120D2D2F
:1056A00008B9040C151C0591D990D1120D2D08B91B
:1056B000080E191E0591D990D1120D2D08B9A39588
:1056C000AF710591D990D1120D2D08B9A32BF0011E
:1056D0000591D990D1120D2D08B94C910591D99011
:1056E000D1120D2D08B9429F0591D990D1120D2DDF
:1056F00008B9040C151C0591D990D1120D2D08B9CB
:10570000080E191E0591D990D1120D2D08B9A39537
:10571000AF710591D990D1120D2D08B9A32BF001CD
:105720000591D990D1120D2D08B94C910591D990C0
:10573000D1120D2D08B9429F0591D990D1120D2D8E
:1057400008B9040C151C0591D990D1120D2D08B97A
:10575000080E191E0591D990D1120D2D08B9A395E7
:10576000AF710591D990D1120D2D08B9A32BF0017D
:105770000591D990D1120D2D08B94C910591D99070
:10578000D1120D2D08B9429F0591D990D1120D2D3E
:1057900008B9040C151C0591D990D1120D2D08B92A
:1057A000080E191E0591D990D1120D2D08B9A39597
:1057B000AF710591D990D1120D2D08B9A32BF0012D
:1057C0000591D990D1120D2D08B94C910591D99020
:1057D000D1120D2D08B9429F0591D990D1120D2DEE
:1057E00008B9040C151C0591D990D1120D2D08B9DA
:1057F000080E191E0591D990D1120D2D08B9A39547
:10580000AF710591D990D1120D2D08B9A32BF001DC
:105810000591D990D1120D2D08B94C910591D990CF
:10582000D1120D2D08B9429F0591D990D1120D2D9D
:1058300008B9040C151C0591D990D1120D2D08B989
:10584000080E191E0591D990D1120D2D08B9A395F6
:10585000AF710591D990D1120D2D08B9A32BF0018C
:105860000591D990D1120D2D08B94C910591D9907F
:10587000D1120D2D08B9429F0591D990D1120D2D4D
:1058800008B9040C151C0591D990D1120D2D08B939
:10589000080E191E0591D990D1120D2D08B9A395A6
:1058A000AF710591D990D1120D2D08B9A32BF0013C
:1058B0000591D990D1120D2D08B94C910591D9902F
:1058C000D1120D2D08B9429F0591D990D1120D2DFD
:1058D00008B9040C151C0591D990D1120D2D08B9E9
:1058E000080E191E0591D990D1120D2D08B9A39556
:1058F000AF710591D990D1120D2D08B9A32BF001EC
:105900000591D990D1120D2D08B94C910591D990DE
:10591000D1120D2D08B9429F0591D990D1120D2DAC
:1059200008B9040C151C0591D990D1120D2D08B998
:10593000080E191E0591D990D1120D2D08B9A39505
:10594000AF710591D990D1120D2D08B9A32BF0019B
:105950000591D990D1120D2D08B94C910591D9908E
:10596000D1120D2D08B9429F0591D990D1120D2D5C
:1059700008B9040C151C0591D990D1120D2D08B948
:10598000080E191E0591D990D1120D2D08B9A395B5
:10599000AF710591D990D1120D2D08B9A32BF0014B
:1059A0000591D990D1120D2D08B94C912F9100007D
:1059B00000000027D301E10108B90895F0013296F3
:1059C0004C91429F00C000C000C00591D990D112F7
:1059D0000D2D08B9040C151C0591D990D1120D2D6F
:1059E00008B9080E191E0591D990D1120D2D08B9CC
:1059F000A395AF710591D990D1120D2D08B9A32BA4
:105A0000F0010591D990D1120D2D08B94C91059155
:105A1000D990D1120D2D08B9429F0591D990D1127C
:105A20000D2D08B9040C151C0591D990D1120D2D1E
:105A300008B9080E191E0591D990D1120D2D08B97B
:105A4000A395AF710591D990D1120D2D08B9A32B53
:105A5000F0010591D990D1120D2D08B94C91059105
:105A6000D990D1120D2D08B9429F0591D990D1122C
:105A70000D2D08B9040C151C0591D990D1120D2DCE
:105A800008B9080E191E0591D990D1120D2D08B92B
:105A9000A395AF710591D990D1120D2D08B9A32B03
:105AA000F0010591D990D1120D2D08B94C910591B5
:105AB000D990D1120D2D08B9429F0591D990D112DC
:105AC0000D2D08B9040C151C0591D990D1120D2D7E
:105AD00008B9080E191E0591D990D1120D2D08B9DB
:105AE000A395AF710591D990D1120D2D08B9A32BB3
:105AF000F0010591D990D1120D2D08B94C91059165
:105B0000D990D1120D2D08B9429F0591D990D1128B
:105B10000D2D08B9040C151C0591D990D1120D2D2D
:105B200008B9080E191E0591D990D1120D2D08B98A
:105B3000A395AF710591D990D1120D2D08B9A32B62
:105B4000F0010591D990D1120D2D08B94C91059114
:105B5000D990D1120D2D08B9429F0591D990D1123B
:105B60000D2D08B9040C151C0591D990D1120D2DDD
:105B700008B9080E191E0591D990D1120D2D08B93A
:105B8000A395AF710591D990D1120D2D08B9A32B12
:105B9000F0010591D990D1120D2D08B94C910591C4
:105BA000D990D1120D2D08B9429F0591D990D112EB
:105BB0000D2D08B9040C151C0591D990D1120D2D8D
:105BC00008B9080E191E0591D990D1120D2D08B9EA
:105BD000A395AF710591D990D1120D2D08B9A32BC2
:105BE000F0010591D990D1120D2D08B94C91059174
:105BF000D990D1120D2D08B9429F0591D990D1129B
:105C00000D2D08B9040C151C0591D990D1120D2D3C
:105C100008B9080E191E0591D990D1120D2D08B999
:105C2000A395AF710591D990D1120D2D08B9A32B71
:105C3000F0010591D990D1120D2D08B94C91059123
:105C4000D990D1120D2D08B9429F0591D990D1124A
:105C50000D2D08B9040C151C0591D990D1120D2DEC
:105C600008B9080E191E0591D990D1120D2D08B949
:105C7000A395AF710591D990D1120D2D08B9A32B21
:105C8000F0010591D990D1120D2D08B94C910591D3
:105C9000D990D1120D2D08B9429F0591D990D112FA
:105CA0000D2D08B9040C151C0591D990D1120D2D9C
:105CB00008B9080E191E0591D990D1120D2D08B9F9
:105CC000A395AF710591D990D1120D2D08B9A32BD1
:105CD000F0010591D990D1120D2D08B94C91059183
:105CE000D990D1120D2D08B9429F0591D990D112AA
:105CF0000D2D08B9040C151C0591D990D1120D2D4C
:105D000008B9080E191E0591D990D1120D2D08B9A8
:105D1000A395AF710591D990D1120D2D08B9A32B80
:105D2000F0010591D990D1120D2D08B94C91059132
:105D3000D990D1120D2D08B9429F0591D990D11259
:105D40000D2D08B9040C151C0591D990D1120D2DFB
:105D500008B9080E191E0591D990D1120D2D08B958
:105D6000A395AF710591D990D1120D2D08B9A32B30
:105D7000F0010591D990D1120D2D08B94C910591E2
:105D8000D990D1120D2D08B9429F0591D990D11209
:105D90000D2D08B9040C151C0591D990D1120D2DAB
